{"src/contracts/OfficerManagement.sol":{"OfficerManagement":{"abi":[{"inputs":[],"stateMutability":"nonpayable","type":"constructor"},{"anonymous":false,"inputs":[{"indexed":true,"internalType":"address","name":"walletAddress","type":"address"},{"indexed":false,"internalType":"string","name":"id","type":"string"},{"indexed":false,"internalType":"string","name":"name","type":"string"},{"indexed":false,"internalType":"string","name":"username","type":"string"}],"name":"OfficerAdded","type":"event"},{"anonymous":false,"inputs":[{"indexed":true,"internalType":"address","name":"walletAddress","type":"address"},{"indexed":false,"internalType":"string","name":"id","type":"string"}],"name":"OfficerRemoved","type":"event"},{"anonymous":false,"inputs":[{"indexed":true,"internalType":"address","name":"walletAddress","type":"address"},{"indexed":false,"internalType":"bool","name":"isActive","type":"bool"}],"name":"OfficerStatusChanged","type":"event"},{"anonymous":false,"inputs":[{"indexed":true,"internalType":"address","name":"walletAddress","type":"address"},{"indexed":false,"internalType":"string","name":"name","type":"string"},{"indexed":false,"internalType":"string","name":"username","type":"string"}],"name":"OfficerUpdated","type":"event"},{"inputs":[{"internalType":"address","name":"walletAddress","type":"address"},{"internalType":"string","name":"id","type":"string"},{"internalType":"string","name":"name","type":"string"},{"internalType":"string","name":"username","type":"string"},{"internalType":"string","name":"email","type":"string"}],"name":"addOfficer","outputs":[],"stateMutability":"nonpayable","type":"function"},{"inputs":[],"name":"admin","outputs":[{"internalType":"address","name":"","type":"address"}],"stateMutability":"view","type":"function"},{"inputs":[],"name":"getAllOfficerAddresses","outputs":[{"internalType":"address[]","name":"","type":"address[]"}],"stateMutability":"view","type":"function"},{"inputs":[{"internalType":"address","name":"walletAddress","type":"address"}],"name":"getOfficer","outputs":[{"internalType":"string","name":"id","type":"string"},{"internalType":"string","name":"name","type":"string"},{"internalType":"string","name":"username","type":"string"},{"internalType":"string","name":"email","type":"string"},{"internalType":"bool","name":"isActive","type":"bool"},{"internalType":"uint256","name":"createdAt","type":"uint256"}],"stateMutability":"view","type":"function"},{"inputs":[],"name":"getOfficerCount","outputs":[{"internalType":"uint256","name":"","type":"uint256"}],"stateMutability":"view","type":"function"},{"inputs":[{"internalType":"address","name":"walletAddress","type":"address"}],"name":"isOfficer","outputs":[{"internalType":"bool","name":"","type":"bool"}],"stateMutability":"view","type":"function"},{"inputs":[{"internalType":"uint256","name":"","type":"uint256"}],"name":"officerAddresses","outputs":[{"internalType":"address","name":"","type":"address"}],"stateMutability":"view","type":"function"},{"inputs":[{"internalType":"address","name":"","type":"address"}],"name":"officers","outputs":[{"internalType":"string","name":"id","type":"string"},{"internalType":"string","name":"name","type":"string"},{"internalType":"string","name":"username","type":"string"},{"internalType":"string","name":"email","type":"string"},{"internalType":"bool","name":"isActive","type":"bool"},{"internalType":"uint256","name":"createdAt","type":"uint256"}],"stateMutability":"view","type":"function"},{"inputs":[{"internalType":"address","name":"walletAddress","type":"address"}],"name":"removeOfficer","outputs":[],"stateMutability":"nonpayable","type":"function"},{"inputs":[{"internalType":"address","name":"walletAddress","type":"address"},{"internalType":"bool","name":"isActive","type":"bool"}],"name":"setOfficerStatus","outputs":[],"stateMutability":"nonpayable","type":"function"},{"inputs":[{"internalType":"address","name":"newAdmin","type":"address"}],"name":"transferAdmin","outputs":[],"stateMutability":"nonpayable","type":"function"},{"inputs":[{"internalType":"address","name":"walletAddress","type":"address"},{"internalType":"string","name":"name","type":"string"},{"internalType":"string","name":"username","type":"string"},{"internalType":"string","name":"email","type":"string"}],"name":"updateOfficer","outputs":[],"stateMutability":"nonpayable","type":"function"},{"inputs":[{"internalType":"string","name":"","type":"string"}],"name":"usernameExists","outputs":[{"internalType":"bool","name":"","type":"bool"}],"stateMutability":"view","type":"function"}],"evm":{"bytecode":{"linkReferences":{},"object":"6080806040523461002857600080546001600160a01b031916331790556116c1908161002e8239f35b600080fdfe6080604052600436101561001257600080fd5b60003560e01c806304e82d291461128a57806306296328146111c2578063084866dd146111475780631e572c0f146110935780636816442d1461104f578063719a0f8c14610e29578063728576d11461076057806375829def146106de5780639e8d7f541461020b578063bf9cf4cf14610158578063e935a2f51461013a578063f309e3f9146100d95763f851a440146100ab57600080fd5b346100d45760003660031901126100d4576000546040516001600160a01b039091168152602090f35b600080fd5b346100d45760203660031901126100d4576004356001600160401b0381116100d45760ff6101246020610111819436906004016114ee565b816040519382858094519384920161144b565b8101600381520301902054166040519015158152f35b346100d45760003660031901126100d4576020600254604051908152f35b346100d45760403660031901126100d457610171611319565b60243590811515908183036100d4577f8a40ef3e42980aa96509d3e2e04b0c037f32d7251181d8843c0cb9b3378c99df9161020260209260018060a01b03906101bf82600054163314611544565b169485600052600184526101e16101da60406000205461132f565b15156115fd565b856000526001845260046040600020019060ff801983541691151516179055565b604051908152a2005b346100d45760803660031901126100d457610224611319565b6001600160401b036024358181116100d4576102449036906004016114ee565b906044358181116100d45761025d9036906004016114ee565b6064358281116100d4576102759036906004016114ee565b60005490946001600160a01b03916102909083163314611544565b1693846000526001926020938085526102b06101da60406000205461132f565b866000528085526102c760026040600020016113a5565b81815187808401918220938851828a019581872003610658575b505050505050866000528085528060406000200186519083821161050b57610309815461132f565b91601f9283811161062a575b5080888482116001146105c7576000916105bc575b50600019600383901b1c191690841b1790555b876000528186526002604060002001855184811161050b5761035f825461132f565b83811161058e575b50808884821160011461052c57600091610521575b50600019600383901b1c191690841b1790555b87600052818652600360406000200193805193841161050b576103b2855461132f565b8281116104d3575b5086918411600114610442579280807f2ba41e3e50dd5d36d00a4b9bab6324ef9fae734dc40398301b8503405fff600c99979461043297946104259a97600094610437575b50501b916000199060031b1c19161790555b60405194859460408652604086019061146e565b918483039085015261146e565b0390a2005b015192508c806103ff565b90601f9392931983169185600052876000209260005b8181106104be57509261042598959285927f2ba41e3e50dd5d36d00a4b9bab6324ef9fae734dc40398301b8503405fff600c9b99966104329996106104a5575b505050811b019055610411565b015160001960f88460031b161c191690558a8080610498565b82840151855593860193928901928901610458565b6104fc9086600052886000208480880160051c8201928b8910610502575b0160051c01906115e6565b896103ba565b925081926104f1565b634e487b7160e01b600052604160045260246000fd5b90508701518b61037c565b859250601f19821690846000528a6000209160005b8c8c838310610579575050508311610560575b5050811b01905561038f565b89015160001960f88460031b161c191690558b80610554565b84015185558996909401939283019201610541565b6105b69083600052896000208580850160051c8201928c8610610502570160051c01906115e6565b8a610367565b90508901518b61032a565b60008481528a81208794509190601f198416908c8e5b8383106106135750505083116105fa575b5050811b01905561033d565b8b015160001960f88460031b161c191690558b806105ee565b840151855589969094019392830192018c8e6105dd565b6106529083600052896000208580850160051c8201928c8610610502570160051c01906115e6565b8a610315565b6106c29361069c9261068b60ff84878b81976106796040519485809461144b565b8101600381520301902054161561159a565b60405193849283925192839161144b565b810160038152030190209360ff1994858154169055604051809381928b5192839161144b565b81016003815203019020918254161790558781818781806102e1565b346100d45760203660031901126100d4576106f7611319565b600054906001600160a01b03906107113383851614611544565b16908115610729576001600160a01b03191617600055005b60405162461bcd60e51b815260206004820152600f60248201526e496e76616c6964206164647265737360881b6044820152606490fd5b346100d45760a03660031901126100d457610779611319565b6024356001600160401b0381116100d4576107989036906004016114ee565b906044356001600160401b0381116100d4576107b89036906004016114ee565b906064356001600160401b0381116100d4576107d89036906004016114ee565b926084356001600160401b0381116100d4576107f89036906004016114ee565b6000546001600160a01b039491906108139086163314611544565b848416600052600160205261082c60406000205461132f565b610dd45761086060ff6040516020818161084c8c8381519384920161144b565b60038183015281010301902054161561159a565b6040519061086d82611369565b8382528260208301528660408301526060820152600160808201524260a0820152848416600052600160205260406000209080518051906001600160401b03821161050b5781906108be855461132f565b601f8111610da2575b50602090601f8311600114610d3657600092610d2b575b50508160011b916000199060031b1c19161782555b60208101518051906001600160401b03821161050b578190610918600186015461132f565b601f8111610cf6575b50602090601f8311600114610c8457600092610c79575b50508160011b916000199060031b1c19161760018301555b60408101518051906001600160401b03821161050b578190610975600286015461132f565b601f8111610c44575b50602090601f8311600114610bd257600092610bc7575b50508160011b916000199060031b1c19161760028301555b60608101518051906001600160401b03821161050b576109d0600385015461132f565b601f8111610b87575b50602090601f8311600114610b125791806005949260a094600092610b07575b50508160011b916000199060031b1c19161760038501555b610a3060808201511515600486019060ff801983541691151516179055565b0151910155600254926801000000000000000084101561050b577fc5d1941eae357372bc3eacc7d6f759f515b8152b4d592a813c31368e8737e52f94610af761043293610aa984610a8a896001610ae99b016002556112cc565b90919082549060031b9160018060a01b03809116831b921b1916179055565b60405160208181610ac08d8381519384920161144b565b81016003815203019020600160ff1982541617905560405196879660608852606088019061146e565b90868203602088015261146e565b918483036040860152169561146e565b015190508b806109f9565b906003850160005260206000209160005b601f1985168110610b6f5750926005949260019260a09583601f19811610610b56575b505050811b016003850155610a11565b015160001960f88460031b161c191690558b8080610b46565b91926020600181928685015181550194019201610b23565b610bb790600386016000526020600020601f850160051c81019160208610610bbd575b601f0160051c01906115e6565b896109d9565b9091508190610baa565b015190508980610995565b9250600285016000526020600020906000935b601f1984168510610c29576001945083601f19811610610c10575b505050811b0160028301556109ad565b015160001960f88460031b161c19169055898080610c00565b81810151835560209485019460019093019290910190610be5565b610c7390600287016000526020600020601f850160051c81019160208610610bbd57601f0160051c01906115e6565b8a61097e565b015190508980610938565b9250600185016000526020600020906000935b601f1984168510610cdb576001945083601f19811610610cc2575b505050811b016001830155610950565b015160001960f88460031b161c19169055898080610cb2565b81810151835560209485019460019093019290910190610c97565b610d2590600187016000526020600020601f850160051c81019160208610610bbd57601f0160051c01906115e6565b8a610921565b0151905089806108de565b9250846000526020600020906000935b601f1984168510610d87576001945083601f19811610610d6e575b505050811b0182556108f3565b015160001960f88460031b161c19169055898080610d61565b81810151835560209485019460019093019290910190610d46565b610dce90866000526020600020601f850160051c81019160208610610bbd57601f0160051c01906115e6565b8a6108c7565b60405162461bcd60e51b815260206004820152602760248201527f4f66666963657220616c72656164792065786973747320666f722074686973206044820152666164647265737360c81b6064820152608490fd5b346100d4576020806003193601126100d457610e43611319565b6000546001600160a01b03918291610e5e9083163314611544565b169081600052600192838152610e7b6101da60406000205461132f565b826000528381526002610e93816040600020016113a5565b908460005285835285610ea960406000206113a5565b9484610ebe604051958681519384920161144b565b84019385816003968781520301902060ff1981541690556000915b610f57575b50508495610f3b600093610f346005947f814bf979c9f7f89608ec350a486866636ec790bbda23eda1ad00da146cd62ecb998752848852610f2d6040882095610f2687611642565b8601611642565b8401611642565b8201611642565b826004820155015561043260405192828493845283019061146e565b825480831015611049578782610f6c856112cc565b905490881b1c1614610fa257506000198214610f8c578780920191610ed9565b634e487b7160e01b600052601160045260246000fd5b6000989291939497981991828201918211610f8c57610a8a85610fc7610fd4946112cc565b9054908c1b1c16916112cc565b835496871561103357610f34600095600595610f3b947f814bf979c9f7f89608ec350a486866636ec790bbda23eda1ad00da146cd62ecb9b0190611017826112cc565b9091825491871b1b191690558155945050935081979650610ede565b634e487b7160e01b600052603160045260246000fd5b50610ede565b346100d45760203660031901126100d4576001600160a01b03611070611319565b166000526001602052602061108960406000205461132f565b1515604051908152f35b346100d45760203660031901126100d4576001600160a01b036110b4611319565b16600052600160205260406000206040516110ce81611369565b6110d7826113a5565b81526111436110e8600184016113a5565b91602081019283526110fc600285016113a5565b9360408201948552611110600382016113a5565b806060840152600560ff6004840154161515928360808601520154928360a0820152519451955160405196879687611493565b0390f35b346100d45760203660031901126100d4576001600160a01b03611168611319565b166000526001602052604060002061117f816113a5565b61114361118e600184016113a5565b9261119b600282016113a5565b906111a8600382016113a5565b600560ff6004840154169201549260405196879687611493565b346100d45760003660031901126100d457604051806002548083526020809301809160026000527f405787fa12a823e0f2b7631cc41b3ba8828b3321ca811111fa75cd3aa3bb5ace9060005b8682821061126d57868661122482880383611384565b604051928392818401908285525180915260408401929160005b82811061124d57505050500390f35b83516001600160a01b03168552869550938101939281019260010161123e565b83546001600160a01b03168552909301926001928301920161120e565b346100d45760203660031901126100d4576004356002548110156100d4576112b36020916112cc565b905460405160039290921b1c6001600160a01b03168152f35b6002548110156113035760026000527f405787fa12a823e0f2b7631cc41b3ba8828b3321ca811111fa75cd3aa3bb5ace0190600090565b634e487b7160e01b600052603260045260246000fd5b600435906001600160a01b03821682036100d457565b90600182811c9216801561135f575b602083101461134957565b634e487b7160e01b600052602260045260246000fd5b91607f169161133e565b60c081019081106001600160401b0382111761050b57604052565b90601f801991011681019081106001600160401b0382111761050b57604052565b90604051918260008254926113b98461132f565b90818452600194858116908160001461142857506001146113e5575b50506113e392500383611384565b565b9093915060005260209081600020936000915b8183106114105750506113e3935082010138806113d5565b855488840185015294850194879450918301916113f8565b9150506113e394506020925060ff191682840152151560051b82010138806113d5565b60005b83811061145e5750506000910152565b818101518382015260200161144e565b906020916114878151809281855285808601910161144b565b601f01601f1916010190565b926114d4906114c66114e2946114b860a098959b9a999b60c0895260c089019061146e565b90878203602089015261146e565b90858203604087015261146e565b90838203606085015261146e565b94151560808201520152565b81601f820112156100d4578035906001600160401b03821161050b5760405192611522601f8401601f191660200185611384565b828452602083830101116100d457816000926020809301838601378301015290565b1561154b57565b60405162461bcd60e51b815260206004820152602160248201527f4f6e6c792061646d696e2063616e2063616c6c20746869732066756e6374696f6044820152603760f91b6064820152608490fd5b156115a157565b60405162461bcd60e51b815260206004820152601760248201527f557365726e616d6520616c7265616479206578697374730000000000000000006044820152606490fd5b8181106115f1575050565b600081556001016115e6565b1561160457565b60405162461bcd60e51b815260206004820152601660248201527513d9999a58d95c88191bd95cc81b9bdd08195e1a5cdd60521b6044820152606490fd5b61164c815461132f565b9081611656575050565b81601f60009311600114611668575055565b908083918252611687601f60208420940160051c8401600185016115e6565b555556fea26469706673582212203bd7f855d856ded62afc19bfc609cce1bedef7dcdb679dfbf0385ce6c8ddbd7a64736f6c63430008140033","opcodes":"PUSH1 0x80 DUP1 PUSH1 0x40 MSTORE CALLVALUE PUSH2 0x28 JUMPI PUSH1 0x0 DUP1 SLOAD PUSH1 0x1 PUSH1 0x1 PUSH1 0xA0 SHL SUB NOT AND CALLER OR SWAP1 SSTORE PUSH2 0x16C1 SWAP1 DUP2 PUSH2 0x2E DUP3 CODECOPY RETURN JUMPDEST PUSH1 0x0 DUP1 REVERT INVALID PUSH1 0x80 PUSH1 0x40 MSTORE PUSH1 0x4 CALLDATASIZE LT ISZERO PUSH2 0x12 JUMPI PUSH1 0x0 DUP1 REVERT JUMPDEST PUSH1 0x0 CALLDATALOAD PUSH1 0xE0 SHR DUP1 PUSH4 0x4E82D29 EQ PUSH2 0x128A JUMPI DUP1 PUSH4 0x6296328 EQ PUSH2 0x11C2 JUMPI DUP1 PUSH4 0x84866DD EQ PUSH2 0x1147 JUMPI DUP1 PUSH4 0x1E572C0F EQ PUSH2 0x1093 JUMPI DUP1 PUSH4 0x6816442D EQ PUSH2 0x104F JUMPI DUP1 PUSH4 0x719A0F8C EQ PUSH2 0xE29 JUMPI DUP1 PUSH4 0x728576D1 EQ PUSH2 0x760 JUMPI DUP1 PUSH4 0x75829DEF EQ PUSH2 0x6DE JUMPI DUP1 PUSH4 0x9E8D7F54 EQ PUSH2 0x20B JUMPI DUP1 PUSH4 0xBF9CF4CF EQ PUSH2 0x158 JUMPI DUP1 PUSH4 0xE935A2F5 EQ PUSH2 0x13A JUMPI DUP1 PUSH4 0xF309E3F9 EQ PUSH2 0xD9 JUMPI PUSH4 0xF851A440 EQ PUSH2 0xAB JUMPI PUSH1 0x0 DUP1 REVERT JUMPDEST CALLVALUE PUSH2 0xD4 JUMPI PUSH1 0x0 CALLDATASIZE PUSH1 0x3 NOT ADD SLT PUSH2 0xD4 JUMPI PUSH1 0x0 SLOAD PUSH1 0x40 MLOAD PUSH1 0x1 PUSH1 0x1 PUSH1 0xA0 SHL SUB SWAP1 SWAP2 AND DUP2 MSTORE PUSH1 0x20 SWAP1 RETURN JUMPDEST PUSH1 0x0 DUP1 REVERT JUMPDEST CALLVALUE PUSH2 0xD4 JUMPI PUSH1 0x20 CALLDATASIZE PUSH1 0x3 NOT ADD SLT PUSH2 0xD4 JUMPI PUSH1 0x4 CALLDATALOAD PUSH1 0x1 PUSH1 0x1 PUSH1 0x40 SHL SUB DUP2 GT PUSH2 0xD4 JUMPI PUSH1 0xFF PUSH2 0x124 PUSH1 0x20 PUSH2 0x111 DUP2 SWAP5 CALLDATASIZE SWAP1 PUSH1 0x4 ADD PUSH2 0x14EE JUMP JUMPDEST DUP2 PUSH1 0x40 MLOAD SWAP4 DUP3 DUP6 DUP1 SWAP5 MLOAD SWAP4 DUP5 SWAP3 ADD PUSH2 0x144B JUMP JUMPDEST DUP2 ADD PUSH1 0x3 DUP2 MSTORE SUB ADD SWAP1 KECCAK256 SLOAD AND PUSH1 0x40 MLOAD SWAP1 ISZERO ISZERO DUP2 MSTORE RETURN JUMPDEST CALLVALUE PUSH2 0xD4 JUMPI PUSH1 0x0 CALLDATASIZE PUSH1 0x3 NOT ADD SLT PUSH2 0xD4 JUMPI PUSH1 0x20 PUSH1 0x2 SLOAD PUSH1 0x40 MLOAD SWAP1 DUP2 MSTORE RETURN JUMPDEST CALLVALUE PUSH2 0xD4 JUMPI PUSH1 0x40 CALLDATASIZE PUSH1 0x3 NOT ADD SLT PUSH2 0xD4 JUMPI PUSH2 0x171 PUSH2 0x1319 JUMP JUMPDEST PUSH1 0x24 CALLDATALOAD SWAP1 DUP2 ISZERO ISZERO SWAP1 DUP2 DUP4 SUB PUSH2 0xD4 JUMPI PUSH32 0x8A40EF3E42980AA96509D3E2E04B0C037F32D7251181D8843C0CB9B3378C99DF SWAP2 PUSH2 0x202 PUSH1 0x20 SWAP3 PUSH1 0x1 DUP1 PUSH1 0xA0 SHL SUB SWAP1 PUSH2 0x1BF DUP3 PUSH1 0x0 SLOAD AND CALLER EQ PUSH2 0x1544 JUMP JUMPDEST AND SWAP5 DUP6 PUSH1 0x0 MSTORE PUSH1 0x1 DUP5 MSTORE PUSH2 0x1E1 PUSH2 0x1DA PUSH1 0x40 PUSH1 0x0 KECCAK256 SLOAD PUSH2 0x132F JUMP JUMPDEST ISZERO ISZERO PUSH2 0x15FD JUMP JUMPDEST DUP6 PUSH1 0x0 MSTORE PUSH1 0x1 DUP5 MSTORE PUSH1 0x4 PUSH1 0x40 PUSH1 0x0 KECCAK256 ADD SWAP1 PUSH1 0xFF DUP1 NOT DUP4 SLOAD AND SWAP2 ISZERO ISZERO AND OR SWAP1 SSTORE JUMP JUMPDEST PUSH1 0x40 MLOAD SWAP1 DUP2 MSTORE LOG2 STOP JUMPDEST CALLVALUE PUSH2 0xD4 JUMPI PUSH1 0x80 CALLDATASIZE PUSH1 0x3 NOT ADD SLT PUSH2 0xD4 JUMPI PUSH2 0x224 PUSH2 0x1319 JUMP JUMPDEST PUSH1 0x1 PUSH1 0x1 PUSH1 0x40 SHL SUB PUSH1 0x24 CALLDATALOAD DUP2 DUP2 GT PUSH2 0xD4 JUMPI PUSH2 0x244 SWAP1 CALLDATASIZE SWAP1 PUSH1 0x4 ADD PUSH2 0x14EE JUMP JUMPDEST SWAP1 PUSH1 0x44 CALLDATALOAD DUP2 DUP2 GT PUSH2 0xD4 JUMPI PUSH2 0x25D SWAP1 CALLDATASIZE SWAP1 PUSH1 0x4 ADD PUSH2 0x14EE JUMP JUMPDEST PUSH1 0x64 CALLDATALOAD DUP3 DUP2 GT PUSH2 0xD4 JUMPI PUSH2 0x275 SWAP1 CALLDATASIZE SWAP1 PUSH1 0x4 ADD PUSH2 0x14EE JUMP JUMPDEST PUSH1 0x0 SLOAD SWAP1 SWAP5 PUSH1 0x1 PUSH1 0x1 PUSH1 0xA0 SHL SUB SWAP2 PUSH2 0x290 SWAP1 DUP4 AND CALLER EQ PUSH2 0x1544 JUMP JUMPDEST AND SWAP4 DUP5 PUSH1 0x0 MSTORE PUSH1 0x1 SWAP3 PUSH1 0x20 SWAP4 DUP1 DUP6 MSTORE PUSH2 0x2B0 PUSH2 0x1DA PUSH1 0x40 PUSH1 0x0 KECCAK256 SLOAD PUSH2 0x132F JUMP JUMPDEST DUP7 PUSH1 0x0 MSTORE DUP1 DUP6 MSTORE PUSH2 0x2C7 PUSH1 0x2 PUSH1 0x40 PUSH1 0x0 KECCAK256 ADD PUSH2 0x13A5 JUMP JUMPDEST DUP2 DUP2 MLOAD DUP8 DUP1 DUP5 ADD SWAP2 DUP3 KECCAK256 SWAP4 DUP9 MLOAD DUP3 DUP11 ADD SWAP6 DUP2 DUP8 KECCAK256 SUB PUSH2 0x658 JUMPI JUMPDEST POP POP POP POP POP POP DUP7 PUSH1 0x0 MSTORE DUP1 DUP6 MSTORE DUP1 PUSH1 0x40 PUSH1 0x0 KECCAK256 ADD DUP7 MLOAD SWAP1 DUP4 DUP3 GT PUSH2 0x50B JUMPI PUSH2 0x309 DUP2 SLOAD PUSH2 0x132F JUMP JUMPDEST SWAP2 PUSH1 0x1F SWAP3 DUP4 DUP2 GT PUSH2 0x62A JUMPI JUMPDEST POP DUP1 DUP9 DUP5 DUP3 GT PUSH1 0x1 EQ PUSH2 0x5C7 JUMPI PUSH1 0x0 SWAP2 PUSH2 0x5BC JUMPI JUMPDEST POP PUSH1 0x0 NOT PUSH1 0x3 DUP4 SWAP1 SHL SHR NOT AND SWAP1 DUP5 SHL OR SWAP1 SSTORE JUMPDEST DUP8 PUSH1 0x0 MSTORE DUP2 DUP7 MSTORE PUSH1 0x2 PUSH1 0x40 PUSH1 0x0 KECCAK256 ADD DUP6 MLOAD DUP5 DUP2 GT PUSH2 0x50B JUMPI PUSH2 0x35F DUP3 SLOAD PUSH2 0x132F JUMP JUMPDEST DUP4 DUP2 GT PUSH2 0x58E JUMPI JUMPDEST POP DUP1 DUP9 DUP5 DUP3 GT PUSH1 0x1 EQ PUSH2 0x52C JUMPI PUSH1 0x0 SWAP2 PUSH2 0x521 JUMPI JUMPDEST POP PUSH1 0x0 NOT PUSH1 0x3 DUP4 SWAP1 SHL SHR NOT AND SWAP1 DUP5 SHL OR SWAP1 SSTORE JUMPDEST DUP8 PUSH1 0x0 MSTORE DUP2 DUP7 MSTORE PUSH1 0x3 PUSH1 0x40 PUSH1 0x0 KECCAK256 ADD SWAP4 DUP1 MLOAD SWAP4 DUP5 GT PUSH2 0x50B JUMPI PUSH2 0x3B2 DUP6 SLOAD PUSH2 0x132F JUMP JUMPDEST DUP3 DUP2 GT PUSH2 0x4D3 JUMPI JUMPDEST POP DUP7 SWAP2 DUP5 GT PUSH1 0x1 EQ PUSH2 0x442 JUMPI SWAP3 DUP1 DUP1 PUSH32 0x2BA41E3E50DD5D36D00A4B9BAB6324EF9FAE734DC40398301B8503405FFF600C SWAP10 SWAP8 SWAP5 PUSH2 0x432 SWAP8 SWAP5 PUSH2 0x425 SWAP11 SWAP8 PUSH1 0x0 SWAP5 PUSH2 0x437 JUMPI JUMPDEST POP POP SHL SWAP2 PUSH1 0x0 NOT SWAP1 PUSH1 0x3 SHL SHR NOT AND OR SWAP1 SSTORE JUMPDEST PUSH1 0x40 MLOAD SWAP5 DUP6 SWAP5 PUSH1 0x40 DUP7 MSTORE PUSH1 0x40 DUP7 ADD SWAP1 PUSH2 0x146E JUMP JUMPDEST SWAP2 DUP5 DUP4 SUB SWAP1 DUP6 ADD MSTORE PUSH2 0x146E JUMP JUMPDEST SUB SWAP1 LOG2 STOP JUMPDEST ADD MLOAD SWAP3 POP DUP13 DUP1 PUSH2 0x3FF JUMP JUMPDEST SWAP1 PUSH1 0x1F SWAP4 SWAP3 SWAP4 NOT DUP4 AND SWAP2 DUP6 PUSH1 0x0 MSTORE DUP8 PUSH1 0x0 KECCAK256 SWAP3 PUSH1 0x0 JUMPDEST DUP2 DUP2 LT PUSH2 0x4BE JUMPI POP SWAP3 PUSH2 0x425 SWAP9 SWAP6 SWAP3 DUP6 SWAP3 PUSH32 0x2BA41E3E50DD5D36D00A4B9BAB6324EF9FAE734DC40398301B8503405FFF600C SWAP12 SWAP10 SWAP7 PUSH2 0x432 SWAP10 SWAP7 LT PUSH2 0x4A5 JUMPI JUMPDEST POP POP POP DUP2 SHL ADD SWAP1 SSTORE PUSH2 0x411 JUMP JUMPDEST ADD MLOAD PUSH1 0x0 NOT PUSH1 0xF8 DUP5 PUSH1 0x3 SHL AND SHR NOT AND SWAP1 SSTORE DUP11 DUP1 DUP1 PUSH2 0x498 JUMP JUMPDEST DUP3 DUP5 ADD MLOAD DUP6 SSTORE SWAP4 DUP7 ADD SWAP4 SWAP3 DUP10 ADD SWAP3 DUP10 ADD PUSH2 0x458 JUMP JUMPDEST PUSH2 0x4FC SWAP1 DUP7 PUSH1 0x0 MSTORE DUP9 PUSH1 0x0 KECCAK256 DUP5 DUP1 DUP9 ADD PUSH1 0x5 SHR DUP3 ADD SWAP3 DUP12 DUP10 LT PUSH2 0x502 JUMPI JUMPDEST ADD PUSH1 0x5 SHR ADD SWAP1 PUSH2 0x15E6 JUMP JUMPDEST DUP10 PUSH2 0x3BA JUMP JUMPDEST SWAP3 POP DUP2 SWAP3 PUSH2 0x4F1 JUMP JUMPDEST PUSH4 0x4E487B71 PUSH1 0xE0 SHL PUSH1 0x0 MSTORE PUSH1 0x41 PUSH1 0x4 MSTORE PUSH1 0x24 PUSH1 0x0 REVERT JUMPDEST SWAP1 POP DUP8 ADD MLOAD DUP12 PUSH2 0x37C JUMP JUMPDEST DUP6 SWAP3 POP PUSH1 0x1F NOT DUP3 AND SWAP1 DUP5 PUSH1 0x0 MSTORE DUP11 PUSH1 0x0 KECCAK256 SWAP2 PUSH1 0x0 JUMPDEST DUP13 DUP13 DUP4 DUP4 LT PUSH2 0x579 JUMPI POP POP POP DUP4 GT PUSH2 0x560 JUMPI JUMPDEST POP POP DUP2 SHL ADD SWAP1 SSTORE PUSH2 0x38F JUMP JUMPDEST DUP10 ADD MLOAD PUSH1 0x0 NOT PUSH1 0xF8 DUP5 PUSH1 0x3 SHL AND SHR NOT AND SWAP1 SSTORE DUP12 DUP1 PUSH2 0x554 JUMP JUMPDEST DUP5 ADD MLOAD DUP6 SSTORE DUP10 SWAP7 SWAP1 SWAP5 ADD SWAP4 SWAP3 DUP4 ADD SWAP3 ADD PUSH2 0x541 JUMP JUMPDEST PUSH2 0x5B6 SWAP1 DUP4 PUSH1 0x0 MSTORE DUP10 PUSH1 0x0 KECCAK256 DUP6 DUP1 DUP6 ADD PUSH1 0x5 SHR DUP3 ADD SWAP3 DUP13 DUP7 LT PUSH2 0x502 JUMPI ADD PUSH1 0x5 SHR ADD SWAP1 PUSH2 0x15E6 JUMP JUMPDEST DUP11 PUSH2 0x367 JUMP JUMPDEST SWAP1 POP DUP10 ADD MLOAD DUP12 PUSH2 0x32A JUMP JUMPDEST PUSH1 0x0 DUP5 DUP2 MSTORE DUP11 DUP2 KECCAK256 DUP8 SWAP5 POP SWAP2 SWAP1 PUSH1 0x1F NOT DUP5 AND SWAP1 DUP13 DUP15 JUMPDEST DUP4 DUP4 LT PUSH2 0x613 JUMPI POP POP POP DUP4 GT PUSH2 0x5FA JUMPI JUMPDEST POP POP DUP2 SHL ADD SWAP1 SSTORE PUSH2 0x33D JUMP JUMPDEST DUP12 ADD MLOAD PUSH1 0x0 NOT PUSH1 0xF8 DUP5 PUSH1 0x3 SHL AND SHR NOT AND SWAP1 SSTORE DUP12 DUP1 PUSH2 0x5EE JUMP JUMPDEST DUP5 ADD MLOAD DUP6 SSTORE DUP10 SWAP7 SWAP1 SWAP5 ADD SWAP4 SWAP3 DUP4 ADD SWAP3 ADD DUP13 DUP15 PUSH2 0x5DD JUMP JUMPDEST PUSH2 0x652 SWAP1 DUP4 PUSH1 0x0 MSTORE DUP10 PUSH1 0x0 KECCAK256 DUP6 DUP1 DUP6 ADD PUSH1 0x5 SHR DUP3 ADD SWAP3 DUP13 DUP7 LT PUSH2 0x502 JUMPI ADD PUSH1 0x5 SHR ADD SWAP1 PUSH2 0x15E6 JUMP JUMPDEST DUP11 PUSH2 0x315 JUMP JUMPDEST PUSH2 0x6C2 SWAP4 PUSH2 0x69C SWAP3 PUSH2 0x68B PUSH1 0xFF DUP5 DUP8 DUP12 DUP2 SWAP8 PUSH2 0x679 PUSH1 0x40 MLOAD SWAP5 DUP6 DUP1 SWAP5 PUSH2 0x144B JUMP JUMPDEST DUP2 ADD PUSH1 0x3 DUP2 MSTORE SUB ADD SWAP1 KECCAK256 SLOAD AND ISZERO PUSH2 0x159A JUMP JUMPDEST PUSH1 0x40 MLOAD SWAP4 DUP5 SWAP3 DUP4 SWAP3 MLOAD SWAP3 DUP4 SWAP2 PUSH2 0x144B JUMP JUMPDEST DUP2 ADD PUSH1 0x3 DUP2 MSTORE SUB ADD SWAP1 KECCAK256 SWAP4 PUSH1 0xFF NOT SWAP5 DUP6 DUP2 SLOAD AND SWAP1 SSTORE PUSH1 0x40 MLOAD DUP1 SWAP4 DUP2 SWAP3 DUP12 MLOAD SWAP3 DUP4 SWAP2 PUSH2 0x144B JUMP JUMPDEST DUP2 ADD PUSH1 0x3 DUP2 MSTORE SUB ADD SWAP1 KECCAK256 SWAP2 DUP3 SLOAD AND OR SWAP1 SSTORE DUP8 DUP2 DUP2 DUP8 DUP2 DUP1 PUSH2 0x2E1 JUMP JUMPDEST CALLVALUE PUSH2 0xD4 JUMPI PUSH1 0x20 CALLDATASIZE PUSH1 0x3 NOT ADD SLT PUSH2 0xD4 JUMPI PUSH2 0x6F7 PUSH2 0x1319 JUMP JUMPDEST PUSH1 0x0 SLOAD SWAP1 PUSH1 0x1 PUSH1 0x1 PUSH1 0xA0 SHL SUB SWAP1 PUSH2 0x711 CALLER DUP4 DUP6 AND EQ PUSH2 0x1544 JUMP JUMPDEST AND SWAP1 DUP2 ISZERO PUSH2 0x729 JUMPI PUSH1 0x1 PUSH1 0x1 PUSH1 0xA0 SHL SUB NOT AND OR PUSH1 0x0 SSTORE STOP JUMPDEST PUSH1 0x40 MLOAD PUSH3 0x461BCD PUSH1 0xE5 SHL DUP2 MSTORE PUSH1 0x20 PUSH1 0x4 DUP3 ADD MSTORE PUSH1 0xF PUSH1 0x24 DUP3 ADD MSTORE PUSH15 0x496E76616C69642061646472657373 PUSH1 0x88 SHL PUSH1 0x44 DUP3 ADD MSTORE PUSH1 0x64 SWAP1 REVERT JUMPDEST CALLVALUE PUSH2 0xD4 JUMPI PUSH1 0xA0 CALLDATASIZE PUSH1 0x3 NOT ADD SLT PUSH2 0xD4 JUMPI PUSH2 0x779 PUSH2 0x1319 JUMP JUMPDEST PUSH1 0x24 CALLDATALOAD PUSH1 0x1 PUSH1 0x1 PUSH1 0x40 SHL SUB DUP2 GT PUSH2 0xD4 JUMPI PUSH2 0x798 SWAP1 CALLDATASIZE SWAP1 PUSH1 0x4 ADD PUSH2 0x14EE JUMP JUMPDEST SWAP1 PUSH1 0x44 CALLDATALOAD PUSH1 0x1 PUSH1 0x1 PUSH1 0x40 SHL SUB DUP2 GT PUSH2 0xD4 JUMPI PUSH2 0x7B8 SWAP1 CALLDATASIZE SWAP1 PUSH1 0x4 ADD PUSH2 0x14EE JUMP JUMPDEST SWAP1 PUSH1 0x64 CALLDATALOAD PUSH1 0x1 PUSH1 0x1 PUSH1 0x40 SHL SUB DUP2 GT PUSH2 0xD4 JUMPI PUSH2 0x7D8 SWAP1 CALLDATASIZE SWAP1 PUSH1 0x4 ADD PUSH2 0x14EE JUMP JUMPDEST SWAP3 PUSH1 0x84 CALLDATALOAD PUSH1 0x1 PUSH1 0x1 PUSH1 0x40 SHL SUB DUP2 GT PUSH2 0xD4 JUMPI PUSH2 0x7F8 SWAP1 CALLDATASIZE SWAP1 PUSH1 0x4 ADD PUSH2 0x14EE JUMP JUMPDEST PUSH1 0x0 SLOAD PUSH1 0x1 PUSH1 0x1 PUSH1 0xA0 SHL SUB SWAP5 SWAP2 SWAP1 PUSH2 0x813 SWAP1 DUP7 AND CALLER EQ PUSH2 0x1544 JUMP JUMPDEST DUP5 DUP5 AND PUSH1 0x0 MSTORE PUSH1 0x1 PUSH1 0x20 MSTORE PUSH2 0x82C PUSH1 0x40 PUSH1 0x0 KECCAK256 SLOAD PUSH2 0x132F JUMP JUMPDEST PUSH2 0xDD4 JUMPI PUSH2 0x860 PUSH1 0xFF PUSH1 0x40 MLOAD PUSH1 0x20 DUP2 DUP2 PUSH2 0x84C DUP13 DUP4 DUP2 MLOAD SWAP4 DUP5 SWAP3 ADD PUSH2 0x144B JUMP JUMPDEST PUSH1 0x3 DUP2 DUP4 ADD MSTORE DUP2 ADD SUB ADD SWAP1 KECCAK256 SLOAD AND ISZERO PUSH2 0x159A JUMP JUMPDEST PUSH1 0x40 MLOAD SWAP1 PUSH2 0x86D DUP3 PUSH2 0x1369 JUMP JUMPDEST DUP4 DUP3 MSTORE DUP3 PUSH1 0x20 DUP4 ADD MSTORE DUP7 PUSH1 0x40 DUP4 ADD MSTORE PUSH1 0x60 DUP3 ADD MSTORE PUSH1 0x1 PUSH1 0x80 DUP3 ADD MSTORE TIMESTAMP PUSH1 0xA0 DUP3 ADD MSTORE DUP5 DUP5 AND PUSH1 0x0 MSTORE PUSH1 0x1 PUSH1 0x20 MSTORE PUSH1 0x40 PUSH1 0x0 KECCAK256 SWAP1 DUP1 MLOAD DUP1 MLOAD SWAP1 PUSH1 0x1 PUSH1 0x1 PUSH1 0x40 SHL SUB DUP3 GT PUSH2 0x50B JUMPI DUP2 SWAP1 PUSH2 0x8BE DUP6 SLOAD PUSH2 0x132F JUMP JUMPDEST PUSH1 0x1F DUP2 GT PUSH2 0xDA2 JUMPI JUMPDEST POP PUSH1 0x20 SWAP1 PUSH1 0x1F DUP4 GT PUSH1 0x1 EQ PUSH2 0xD36 JUMPI PUSH1 0x0 SWAP3 PUSH2 0xD2B JUMPI JUMPDEST POP POP DUP2 PUSH1 0x1 SHL SWAP2 PUSH1 0x0 NOT SWAP1 PUSH1 0x3 SHL SHR NOT AND OR DUP3 SSTORE JUMPDEST PUSH1 0x20 DUP2 ADD MLOAD DUP1 MLOAD SWAP1 PUSH1 0x1 PUSH1 0x1 PUSH1 0x40 SHL SUB DUP3 GT PUSH2 0x50B JUMPI DUP2 SWAP1 PUSH2 0x918 PUSH1 0x1 DUP7 ADD SLOAD PUSH2 0x132F JUMP JUMPDEST PUSH1 0x1F DUP2 GT PUSH2 0xCF6 JUMPI JUMPDEST POP PUSH1 0x20 SWAP1 PUSH1 0x1F DUP4 GT PUSH1 0x1 EQ PUSH2 0xC84 JUMPI PUSH1 0x0 SWAP3 PUSH2 0xC79 JUMPI JUMPDEST POP POP DUP2 PUSH1 0x1 SHL SWAP2 PUSH1 0x0 NOT SWAP1 PUSH1 0x3 SHL SHR NOT AND OR PUSH1 0x1 DUP4 ADD SSTORE JUMPDEST PUSH1 0x40 DUP2 ADD MLOAD DUP1 MLOAD SWAP1 PUSH1 0x1 PUSH1 0x1 PUSH1 0x40 SHL SUB DUP3 GT PUSH2 0x50B JUMPI DUP2 SWAP1 PUSH2 0x975 PUSH1 0x2 DUP7 ADD SLOAD PUSH2 0x132F JUMP JUMPDEST PUSH1 0x1F DUP2 GT PUSH2 0xC44 JUMPI JUMPDEST POP PUSH1 0x20 SWAP1 PUSH1 0x1F DUP4 GT PUSH1 0x1 EQ PUSH2 0xBD2 JUMPI PUSH1 0x0 SWAP3 PUSH2 0xBC7 JUMPI JUMPDEST POP POP DUP2 PUSH1 0x1 SHL SWAP2 PUSH1 0x0 NOT SWAP1 PUSH1 0x3 SHL SHR NOT AND OR PUSH1 0x2 DUP4 ADD SSTORE JUMPDEST PUSH1 0x60 DUP2 ADD MLOAD DUP1 MLOAD SWAP1 PUSH1 0x1 PUSH1 0x1 PUSH1 0x40 SHL SUB DUP3 GT PUSH2 0x50B JUMPI PUSH2 0x9D0 PUSH1 0x3 DUP6 ADD SLOAD PUSH2 0x132F JUMP JUMPDEST PUSH1 0x1F DUP2 GT PUSH2 0xB87 JUMPI JUMPDEST POP PUSH1 0x20 SWAP1 PUSH1 0x1F DUP4 GT PUSH1 0x1 EQ PUSH2 0xB12 JUMPI SWAP2 DUP1 PUSH1 0x5 SWAP5 SWAP3 PUSH1 0xA0 SWAP5 PUSH1 0x0 SWAP3 PUSH2 0xB07 JUMPI JUMPDEST POP POP DUP2 PUSH1 0x1 SHL SWAP2 PUSH1 0x0 NOT SWAP1 PUSH1 0x3 SHL SHR NOT AND OR PUSH1 0x3 DUP6 ADD SSTORE JUMPDEST PUSH2 0xA30 PUSH1 0x80 DUP3 ADD MLOAD ISZERO ISZERO PUSH1 0x4 DUP7 ADD SWAP1 PUSH1 0xFF DUP1 NOT DUP4 SLOAD AND SWAP2 ISZERO ISZERO AND OR SWAP1 SSTORE JUMP JUMPDEST ADD MLOAD SWAP2 ADD SSTORE PUSH1 0x2 SLOAD SWAP3 PUSH9 0x10000000000000000 DUP5 LT ISZERO PUSH2 0x50B JUMPI PUSH32 0xC5D1941EAE357372BC3EACC7D6F759F515B8152B4D592A813C31368E8737E52F SWAP5 PUSH2 0xAF7 PUSH2 0x432 SWAP4 PUSH2 0xAA9 DUP5 PUSH2 0xA8A DUP10 PUSH1 0x1 PUSH2 0xAE9 SWAP12 ADD PUSH1 0x2 SSTORE PUSH2 0x12CC JUMP JUMPDEST SWAP1 SWAP2 SWAP1 DUP3 SLOAD SWAP1 PUSH1 0x3 SHL SWAP2 PUSH1 0x1 DUP1 PUSH1 0xA0 SHL SUB DUP1 SWAP2 AND DUP4 SHL SWAP3 SHL NOT AND OR SWAP1 SSTORE JUMP JUMPDEST PUSH1 0x40 MLOAD PUSH1 0x20 DUP2 DUP2 PUSH2 0xAC0 DUP14 DUP4 DUP2 MLOAD SWAP4 DUP5 SWAP3 ADD PUSH2 0x144B JUMP JUMPDEST DUP2 ADD PUSH1 0x3 DUP2 MSTORE SUB ADD SWAP1 KECCAK256 PUSH1 0x1 PUSH1 0xFF NOT DUP3 SLOAD AND OR SWAP1 SSTORE PUSH1 0x40 MLOAD SWAP7 DUP8 SWAP7 PUSH1 0x60 DUP9 MSTORE PUSH1 0x60 DUP9 ADD SWAP1 PUSH2 0x146E JUMP JUMPDEST SWAP1 DUP7 DUP3 SUB PUSH1 0x20 DUP9 ADD MSTORE PUSH2 0x146E JUMP JUMPDEST SWAP2 DUP5 DUP4 SUB PUSH1 0x40 DUP7 ADD MSTORE AND SWAP6 PUSH2 0x146E JUMP JUMPDEST ADD MLOAD SWAP1 POP DUP12 DUP1 PUSH2 0x9F9 JUMP JUMPDEST SWAP1 PUSH1 0x3 DUP6 ADD PUSH1 0x0 MSTORE PUSH1 0x20 PUSH1 0x0 KECCAK256 SWAP2 PUSH1 0x0 JUMPDEST PUSH1 0x1F NOT DUP6 AND DUP2 LT PUSH2 0xB6F JUMPI POP SWAP3 PUSH1 0x5 SWAP5 SWAP3 PUSH1 0x1 SWAP3 PUSH1 0xA0 SWAP6 DUP4 PUSH1 0x1F NOT DUP2 AND LT PUSH2 0xB56 JUMPI JUMPDEST POP POP POP DUP2 SHL ADD PUSH1 0x3 DUP6 ADD SSTORE PUSH2 0xA11 JUMP JUMPDEST ADD MLOAD PUSH1 0x0 NOT PUSH1 0xF8 DUP5 PUSH1 0x3 SHL AND SHR NOT AND SWAP1 SSTORE DUP12 DUP1 DUP1 PUSH2 0xB46 JUMP JUMPDEST SWAP2 SWAP3 PUSH1 0x20 PUSH1 0x1 DUP2 SWAP3 DUP7 DUP6 ADD MLOAD DUP2 SSTORE ADD SWAP5 ADD SWAP3 ADD PUSH2 0xB23 JUMP JUMPDEST PUSH2 0xBB7 SWAP1 PUSH1 0x3 DUP7 ADD PUSH1 0x0 MSTORE PUSH1 0x20 PUSH1 0x0 KECCAK256 PUSH1 0x1F DUP6 ADD PUSH1 0x5 SHR DUP2 ADD SWAP2 PUSH1 0x20 DUP7 LT PUSH2 0xBBD JUMPI JUMPDEST PUSH1 0x1F ADD PUSH1 0x5 SHR ADD SWAP1 PUSH2 0x15E6 JUMP JUMPDEST DUP10 PUSH2 0x9D9 JUMP JUMPDEST SWAP1 SWAP2 POP DUP2 SWAP1 PUSH2 0xBAA JUMP JUMPDEST ADD MLOAD SWAP1 POP DUP10 DUP1 PUSH2 0x995 JUMP JUMPDEST SWAP3 POP PUSH1 0x2 DUP6 ADD PUSH1 0x0 MSTORE PUSH1 0x20 PUSH1 0x0 KECCAK256 SWAP1 PUSH1 0x0 SWAP4 JUMPDEST PUSH1 0x1F NOT DUP5 AND DUP6 LT PUSH2 0xC29 JUMPI PUSH1 0x1 SWAP5 POP DUP4 PUSH1 0x1F NOT DUP2 AND LT PUSH2 0xC10 JUMPI JUMPDEST POP POP POP DUP2 SHL ADD PUSH1 0x2 DUP4 ADD SSTORE PUSH2 0x9AD JUMP JUMPDEST ADD MLOAD PUSH1 0x0 NOT PUSH1 0xF8 DUP5 PUSH1 0x3 SHL AND SHR NOT AND SWAP1 SSTORE DUP10 DUP1 DUP1 PUSH2 0xC00 JUMP JUMPDEST DUP2 DUP2 ADD MLOAD DUP4 SSTORE PUSH1 0x20 SWAP5 DUP6 ADD SWAP5 PUSH1 0x1 SWAP1 SWAP4 ADD SWAP3 SWAP1 SWAP2 ADD SWAP1 PUSH2 0xBE5 JUMP JUMPDEST PUSH2 0xC73 SWAP1 PUSH1 0x2 DUP8 ADD PUSH1 0x0 MSTORE PUSH1 0x20 PUSH1 0x0 KECCAK256 PUSH1 0x1F DUP6 ADD PUSH1 0x5 SHR DUP2 ADD SWAP2 PUSH1 0x20 DUP7 LT PUSH2 0xBBD JUMPI PUSH1 0x1F ADD PUSH1 0x5 SHR ADD SWAP1 PUSH2 0x15E6 JUMP JUMPDEST DUP11 PUSH2 0x97E JUMP JUMPDEST ADD MLOAD SWAP1 POP DUP10 DUP1 PUSH2 0x938 JUMP JUMPDEST SWAP3 POP PUSH1 0x1 DUP6 ADD PUSH1 0x0 MSTORE PUSH1 0x20 PUSH1 0x0 KECCAK256 SWAP1 PUSH1 0x0 SWAP4 JUMPDEST PUSH1 0x1F NOT DUP5 AND DUP6 LT PUSH2 0xCDB JUMPI PUSH1 0x1 SWAP5 POP DUP4 PUSH1 0x1F NOT DUP2 AND LT PUSH2 0xCC2 JUMPI JUMPDEST POP POP POP DUP2 SHL ADD PUSH1 0x1 DUP4 ADD SSTORE PUSH2 0x950 JUMP JUMPDEST ADD MLOAD PUSH1 0x0 NOT PUSH1 0xF8 DUP5 PUSH1 0x3 SHL AND SHR NOT AND SWAP1 SSTORE DUP10 DUP1 DUP1 PUSH2 0xCB2 JUMP JUMPDEST DUP2 DUP2 ADD MLOAD DUP4 SSTORE PUSH1 0x20 SWAP5 DUP6 ADD SWAP5 PUSH1 0x1 SWAP1 SWAP4 ADD SWAP3 SWAP1 SWAP2 ADD SWAP1 PUSH2 0xC97 JUMP JUMPDEST PUSH2 0xD25 SWAP1 PUSH1 0x1 DUP8 ADD PUSH1 0x0 MSTORE PUSH1 0x20 PUSH1 0x0 KECCAK256 PUSH1 0x1F DUP6 ADD PUSH1 0x5 SHR DUP2 ADD SWAP2 PUSH1 0x20 DUP7 LT PUSH2 0xBBD JUMPI PUSH1 0x1F ADD PUSH1 0x5 SHR ADD SWAP1 PUSH2 0x15E6 JUMP JUMPDEST DUP11 PUSH2 0x921 JUMP JUMPDEST ADD MLOAD SWAP1 POP DUP10 DUP1 PUSH2 0x8DE JUMP JUMPDEST SWAP3 POP DUP5 PUSH1 0x0 MSTORE PUSH1 0x20 PUSH1 0x0 KECCAK256 SWAP1 PUSH1 0x0 SWAP4 JUMPDEST PUSH1 0x1F NOT DUP5 AND DUP6 LT PUSH2 0xD87 JUMPI PUSH1 0x1 SWAP5 POP DUP4 PUSH1 0x1F NOT DUP2 AND LT PUSH2 0xD6E JUMPI JUMPDEST POP POP POP DUP2 SHL ADD DUP3 SSTORE PUSH2 0x8F3 JUMP JUMPDEST ADD MLOAD PUSH1 0x0 NOT PUSH1 0xF8 DUP5 PUSH1 0x3 SHL AND SHR NOT AND SWAP1 SSTORE DUP10 DUP1 DUP1 PUSH2 0xD61 JUMP JUMPDEST DUP2 DUP2 ADD MLOAD DUP4 SSTORE PUSH1 0x20 SWAP5 DUP6 ADD SWAP5 PUSH1 0x1 SWAP1 SWAP4 ADD SWAP3 SWAP1 SWAP2 ADD SWAP1 PUSH2 0xD46 JUMP JUMPDEST PUSH2 0xDCE SWAP1 DUP7 PUSH1 0x0 MSTORE PUSH1 0x20 PUSH1 0x0 KECCAK256 PUSH1 0x1F DUP6 ADD PUSH1 0x5 SHR DUP2 ADD SWAP2 PUSH1 0x20 DUP7 LT PUSH2 0xBBD JUMPI PUSH1 0x1F ADD PUSH1 0x5 SHR ADD SWAP1 PUSH2 0x15E6 JUMP JUMPDEST DUP11 PUSH2 0x8C7 JUMP JUMPDEST PUSH1 0x40 MLOAD PUSH3 0x461BCD PUSH1 0xE5 SHL DUP2 MSTORE PUSH1 0x20 PUSH1 0x4 DUP3 ADD MSTORE PUSH1 0x27 PUSH1 0x24 DUP3 ADD MSTORE PUSH32 0x4F66666963657220616C72656164792065786973747320666F72207468697320 PUSH1 0x44 DUP3 ADD MSTORE PUSH7 0x61646472657373 PUSH1 0xC8 SHL PUSH1 0x64 DUP3 ADD MSTORE PUSH1 0x84 SWAP1 REVERT JUMPDEST CALLVALUE PUSH2 0xD4 JUMPI PUSH1 0x20 DUP1 PUSH1 0x3 NOT CALLDATASIZE ADD SLT PUSH2 0xD4 JUMPI PUSH2 0xE43 PUSH2 0x1319 JUMP JUMPDEST PUSH1 0x0 SLOAD PUSH1 0x1 PUSH1 0x1 PUSH1 0xA0 SHL SUB SWAP2 DUP3 SWAP2 PUSH2 0xE5E SWAP1 DUP4 AND CALLER EQ PUSH2 0x1544 JUMP JUMPDEST AND SWAP1 DUP2 PUSH1 0x0 MSTORE PUSH1 0x1 SWAP3 DUP4 DUP2 MSTORE PUSH2 0xE7B PUSH2 0x1DA PUSH1 0x40 PUSH1 0x0 KECCAK256 SLOAD PUSH2 0x132F JUMP JUMPDEST DUP3 PUSH1 0x0 MSTORE DUP4 DUP2 MSTORE PUSH1 0x2 PUSH2 0xE93 DUP2 PUSH1 0x40 PUSH1 0x0 KECCAK256 ADD PUSH2 0x13A5 JUMP JUMPDEST SWAP1 DUP5 PUSH1 0x0 MSTORE DUP6 DUP4 MSTORE DUP6 PUSH2 0xEA9 PUSH1 0x40 PUSH1 0x0 KECCAK256 PUSH2 0x13A5 JUMP JUMPDEST SWAP5 DUP5 PUSH2 0xEBE PUSH1 0x40 MLOAD SWAP6 DUP7 DUP2 MLOAD SWAP4 DUP5 SWAP3 ADD PUSH2 0x144B JUMP JUMPDEST DUP5 ADD SWAP4 DUP6 DUP2 PUSH1 0x3 SWAP7 DUP8 DUP2 MSTORE SUB ADD SWAP1 KECCAK256 PUSH1 0xFF NOT DUP2 SLOAD AND SWAP1 SSTORE PUSH1 0x0 SWAP2 JUMPDEST PUSH2 0xF57 JUMPI JUMPDEST POP POP DUP5 SWAP6 PUSH2 0xF3B PUSH1 0x0 SWAP4 PUSH2 0xF34 PUSH1 0x5 SWAP5 PUSH32 0x814BF979C9F7F89608EC350A486866636EC790BBDA23EDA1AD00DA146CD62ECB SWAP10 DUP8 MSTORE DUP5 DUP9 MSTORE PUSH2 0xF2D PUSH1 0x40 DUP9 KECCAK256 SWAP6 PUSH2 0xF26 DUP8 PUSH2 0x1642 JUMP JUMPDEST DUP7 ADD PUSH2 0x1642 JUMP JUMPDEST DUP5 ADD PUSH2 0x1642 JUMP JUMPDEST DUP3 ADD PUSH2 0x1642 JUMP JUMPDEST DUP3 PUSH1 0x4 DUP3 ADD SSTORE ADD SSTORE PUSH2 0x432 PUSH1 0x40 MLOAD SWAP3 DUP3 DUP5 SWAP4 DUP5 MSTORE DUP4 ADD SWAP1 PUSH2 0x146E JUMP JUMPDEST DUP3 SLOAD DUP1 DUP4 LT ISZERO PUSH2 0x1049 JUMPI DUP8 DUP3 PUSH2 0xF6C DUP6 PUSH2 0x12CC JUMP JUMPDEST SWAP1 SLOAD SWAP1 DUP9 SHL SHR AND EQ PUSH2 0xFA2 JUMPI POP PUSH1 0x0 NOT DUP3 EQ PUSH2 0xF8C JUMPI DUP8 DUP1 SWAP3 ADD SWAP2 PUSH2 0xED9 JUMP JUMPDEST PUSH4 0x4E487B71 PUSH1 0xE0 SHL PUSH1 0x0 MSTORE PUSH1 0x11 PUSH1 0x4 MSTORE PUSH1 0x24 PUSH1 0x0 REVERT JUMPDEST PUSH1 0x0 SWAP9 SWAP3 SWAP2 SWAP4 SWAP5 SWAP8 SWAP9 NOT SWAP2 DUP3 DUP3 ADD SWAP2 DUP3 GT PUSH2 0xF8C JUMPI PUSH2 0xA8A DUP6 PUSH2 0xFC7 PUSH2 0xFD4 SWAP5 PUSH2 0x12CC JUMP JUMPDEST SWAP1 SLOAD SWAP1 DUP13 SHL SHR AND SWAP2 PUSH2 0x12CC JUMP JUMPDEST DUP4 SLOAD SWAP7 DUP8 ISZERO PUSH2 0x1033 JUMPI PUSH2 0xF34 PUSH1 0x0 SWAP6 PUSH1 0x5 SWAP6 PUSH2 0xF3B SWAP5 PUSH32 0x814BF979C9F7F89608EC350A486866636EC790BBDA23EDA1AD00DA146CD62ECB SWAP12 ADD SWAP1 PUSH2 0x1017 DUP3 PUSH2 0x12CC JUMP JUMPDEST SWAP1 SWAP2 DUP3 SLOAD SWAP2 DUP8 SHL SHL NOT AND SWAP1 SSTORE DUP2 SSTORE SWAP5 POP POP SWAP4 POP DUP2 SWAP8 SWAP7 POP PUSH2 0xEDE JUMP JUMPDEST PUSH4 0x4E487B71 PUSH1 0xE0 SHL PUSH1 0x0 MSTORE PUSH1 0x31 PUSH1 0x4 MSTORE PUSH1 0x24 PUSH1 0x0 REVERT JUMPDEST POP PUSH2 0xEDE JUMP JUMPDEST CALLVALUE PUSH2 0xD4 JUMPI PUSH1 0x20 CALLDATASIZE PUSH1 0x3 NOT ADD SLT PUSH2 0xD4 JUMPI PUSH1 0x1 PUSH1 0x1 PUSH1 0xA0 SHL SUB PUSH2 0x1070 PUSH2 0x1319 JUMP JUMPDEST AND PUSH1 0x0 MSTORE PUSH1 0x1 PUSH1 0x20 MSTORE PUSH1 0x20 PUSH2 0x1089 PUSH1 0x40 PUSH1 0x0 KECCAK256 SLOAD PUSH2 0x132F JUMP JUMPDEST ISZERO ISZERO PUSH1 0x40 MLOAD SWAP1 DUP2 MSTORE RETURN JUMPDEST CALLVALUE PUSH2 0xD4 JUMPI PUSH1 0x20 CALLDATASIZE PUSH1 0x3 NOT ADD SLT PUSH2 0xD4 JUMPI PUSH1 0x1 PUSH1 0x1 PUSH1 0xA0 SHL SUB PUSH2 0x10B4 PUSH2 0x1319 JUMP JUMPDEST AND PUSH1 0x0 MSTORE PUSH1 0x1 PUSH1 0x20 MSTORE PUSH1 0x40 PUSH1 0x0 KECCAK256 PUSH1 0x40 MLOAD PUSH2 0x10CE DUP2 PUSH2 0x1369 JUMP JUMPDEST PUSH2 0x10D7 DUP3 PUSH2 0x13A5 JUMP JUMPDEST DUP2 MSTORE PUSH2 0x1143 PUSH2 0x10E8 PUSH1 0x1 DUP5 ADD PUSH2 0x13A5 JUMP JUMPDEST SWAP2 PUSH1 0x20 DUP2 ADD SWAP3 DUP4 MSTORE PUSH2 0x10FC PUSH1 0x2 DUP6 ADD PUSH2 0x13A5 JUMP JUMPDEST SWAP4 PUSH1 0x40 DUP3 ADD SWAP5 DUP6 MSTORE PUSH2 0x1110 PUSH1 0x3 DUP3 ADD PUSH2 0x13A5 JUMP JUMPDEST DUP1 PUSH1 0x60 DUP5 ADD MSTORE PUSH1 0x5 PUSH1 0xFF PUSH1 0x4 DUP5 ADD SLOAD AND ISZERO ISZERO SWAP3 DUP4 PUSH1 0x80 DUP7 ADD MSTORE ADD SLOAD SWAP3 DUP4 PUSH1 0xA0 DUP3 ADD MSTORE MLOAD SWAP5 MLOAD SWAP6 MLOAD PUSH1 0x40 MLOAD SWAP7 DUP8 SWAP7 DUP8 PUSH2 0x1493 JUMP JUMPDEST SUB SWAP1 RETURN JUMPDEST CALLVALUE PUSH2 0xD4 JUMPI PUSH1 0x20 CALLDATASIZE PUSH1 0x3 NOT ADD SLT PUSH2 0xD4 JUMPI PUSH1 0x1 PUSH1 0x1 PUSH1 0xA0 SHL SUB PUSH2 0x1168 PUSH2 0x1319 JUMP JUMPDEST AND PUSH1 0x0 MSTORE PUSH1 0x1 PUSH1 0x20 MSTORE PUSH1 0x40 PUSH1 0x0 KECCAK256 PUSH2 0x117F DUP2 PUSH2 0x13A5 JUMP JUMPDEST PUSH2 0x1143 PUSH2 0x118E PUSH1 0x1 DUP5 ADD PUSH2 0x13A5 JUMP JUMPDEST SWAP3 PUSH2 0x119B PUSH1 0x2 DUP3 ADD PUSH2 0x13A5 JUMP JUMPDEST SWAP1 PUSH2 0x11A8 PUSH1 0x3 DUP3 ADD PUSH2 0x13A5 JUMP JUMPDEST PUSH1 0x5 PUSH1 0xFF PUSH1 0x4 DUP5 ADD SLOAD AND SWAP3 ADD SLOAD SWAP3 PUSH1 0x40 MLOAD SWAP7 DUP8 SWAP7 DUP8 PUSH2 0x1493 JUMP JUMPDEST CALLVALUE PUSH2 0xD4 JUMPI PUSH1 0x0 CALLDATASIZE PUSH1 0x3 NOT ADD SLT PUSH2 0xD4 JUMPI PUSH1 0x40 MLOAD DUP1 PUSH1 0x2 SLOAD DUP1 DUP4 MSTORE PUSH1 0x20 DUP1 SWAP4 ADD DUP1 SWAP2 PUSH1 0x2 PUSH1 0x0 MSTORE PUSH32 0x405787FA12A823E0F2B7631CC41B3BA8828B3321CA811111FA75CD3AA3BB5ACE SWAP1 PUSH1 0x0 JUMPDEST DUP7 DUP3 DUP3 LT PUSH2 0x126D JUMPI DUP7 DUP7 PUSH2 0x1224 DUP3 DUP9 SUB DUP4 PUSH2 0x1384 JUMP JUMPDEST PUSH1 0x40 MLOAD SWAP3 DUP4 SWAP3 DUP2 DUP5 ADD SWAP1 DUP3 DUP6 MSTORE MLOAD DUP1 SWAP2 MSTORE PUSH1 0x40 DUP5 ADD SWAP3 SWAP2 PUSH1 0x0 JUMPDEST DUP3 DUP2 LT PUSH2 0x124D JUMPI POP POP POP POP SUB SWAP1 RETURN JUMPDEST DUP4 MLOAD PUSH1 0x1 PUSH1 0x1 PUSH1 0xA0 SHL SUB AND DUP6 MSTORE DUP7 SWAP6 POP SWAP4 DUP2 ADD SWAP4 SWAP3 DUP2 ADD SWAP3 PUSH1 0x1 ADD PUSH2 0x123E JUMP JUMPDEST DUP4 SLOAD PUSH1 0x1 PUSH1 0x1 PUSH1 0xA0 SHL SUB AND DUP6 MSTORE SWAP1 SWAP4 ADD SWAP3 PUSH1 0x1 SWAP3 DUP4 ADD SWAP3 ADD PUSH2 0x120E JUMP JUMPDEST CALLVALUE PUSH2 0xD4 JUMPI PUSH1 0x20 CALLDATASIZE PUSH1 0x3 NOT ADD SLT PUSH2 0xD4 JUMPI PUSH1 0x4 CALLDATALOAD PUSH1 0x2 SLOAD DUP2 LT ISZERO PUSH2 0xD4 JUMPI PUSH2 0x12B3 PUSH1 0x20 SWAP2 PUSH2 0x12CC JUMP JUMPDEST SWAP1 SLOAD PUSH1 0x40 MLOAD PUSH1 0x3 SWAP3 SWAP1 SWAP3 SHL SHR PUSH1 0x1 PUSH1 0x1 PUSH1 0xA0 SHL SUB AND DUP2 MSTORE RETURN JUMPDEST PUSH1 0x2 SLOAD DUP2 LT ISZERO PUSH2 0x1303 JUMPI PUSH1 0x2 PUSH1 0x0 MSTORE PUSH32 0x405787FA12A823E0F2B7631CC41B3BA8828B3321CA811111FA75CD3AA3BB5ACE ADD SWAP1 PUSH1 0x0 SWAP1 JUMP JUMPDEST PUSH4 0x4E487B71 PUSH1 0xE0 SHL PUSH1 0x0 MSTORE PUSH1 0x32 PUSH1 0x4 MSTORE PUSH1 0x24 PUSH1 0x0 REVERT JUMPDEST PUSH1 0x4 CALLDATALOAD SWAP1 PUSH1 0x1 PUSH1 0x1 PUSH1 0xA0 SHL SUB DUP3 AND DUP3 SUB PUSH2 0xD4 JUMPI JUMP JUMPDEST SWAP1 PUSH1 0x1 DUP3 DUP2 SHR SWAP3 AND DUP1 ISZERO PUSH2 0x135F JUMPI JUMPDEST PUSH1 0x20 DUP4 LT EQ PUSH2 0x1349 JUMPI JUMP JUMPDEST PUSH4 0x4E487B71 PUSH1 0xE0 SHL PUSH1 0x0 MSTORE PUSH1 0x22 PUSH1 0x4 MSTORE PUSH1 0x24 PUSH1 0x0 REVERT JUMPDEST SWAP2 PUSH1 0x7F AND SWAP2 PUSH2 0x133E JUMP JUMPDEST PUSH1 0xC0 DUP2 ADD SWAP1 DUP2 LT PUSH1 0x1 PUSH1 0x1 PUSH1 0x40 SHL SUB DUP3 GT OR PUSH2 0x50B JUMPI PUSH1 0x40 MSTORE JUMP JUMPDEST SWAP1 PUSH1 0x1F DUP1 NOT SWAP2 ADD AND DUP2 ADD SWAP1 DUP2 LT PUSH1 0x1 PUSH1 0x1 PUSH1 0x40 SHL SUB DUP3 GT OR PUSH2 0x50B JUMPI PUSH1 0x40 MSTORE JUMP JUMPDEST SWAP1 PUSH1 0x40 MLOAD SWAP2 DUP3 PUSH1 0x0 DUP3 SLOAD SWAP3 PUSH2 0x13B9 DUP5 PUSH2 0x132F JUMP JUMPDEST SWAP1 DUP2 DUP5 MSTORE PUSH1 0x1 SWAP5 DUP6 DUP2 AND SWAP1 DUP2 PUSH1 0x0 EQ PUSH2 0x1428 JUMPI POP PUSH1 0x1 EQ PUSH2 0x13E5 JUMPI JUMPDEST POP POP PUSH2 0x13E3 SWAP3 POP SUB DUP4 PUSH2 0x1384 JUMP JUMPDEST JUMP JUMPDEST SWAP1 SWAP4 SWAP2 POP PUSH1 0x0 MSTORE PUSH1 0x20 SWAP1 DUP2 PUSH1 0x0 KECCAK256 SWAP4 PUSH1 0x0 SWAP2 JUMPDEST DUP2 DUP4 LT PUSH2 0x1410 JUMPI POP POP PUSH2 0x13E3 SWAP4 POP DUP3 ADD ADD CODESIZE DUP1 PUSH2 0x13D5 JUMP JUMPDEST DUP6 SLOAD DUP9 DUP5 ADD DUP6 ADD MSTORE SWAP5 DUP6 ADD SWAP5 DUP8 SWAP5 POP SWAP2 DUP4 ADD SWAP2 PUSH2 0x13F8 JUMP JUMPDEST SWAP2 POP POP PUSH2 0x13E3 SWAP5 POP PUSH1 0x20 SWAP3 POP PUSH1 0xFF NOT AND DUP3 DUP5 ADD MSTORE ISZERO ISZERO PUSH1 0x5 SHL DUP3 ADD ADD CODESIZE DUP1 PUSH2 0x13D5 JUMP JUMPDEST PUSH1 0x0 JUMPDEST DUP4 DUP2 LT PUSH2 0x145E JUMPI POP POP PUSH1 0x0 SWAP2 ADD MSTORE JUMP JUMPDEST DUP2 DUP2 ADD MLOAD DUP4 DUP3 ADD MSTORE PUSH1 0x20 ADD PUSH2 0x144E JUMP JUMPDEST SWAP1 PUSH1 0x20 SWAP2 PUSH2 0x1487 DUP2 MLOAD DUP1 SWAP3 DUP2 DUP6 MSTORE DUP6 DUP1 DUP7 ADD SWAP2 ADD PUSH2 0x144B JUMP JUMPDEST PUSH1 0x1F ADD PUSH1 0x1F NOT AND ADD ADD SWAP1 JUMP JUMPDEST SWAP3 PUSH2 0x14D4 SWAP1 PUSH2 0x14C6 PUSH2 0x14E2 SWAP5 PUSH2 0x14B8 PUSH1 0xA0 SWAP9 SWAP6 SWAP12 SWAP11 SWAP10 SWAP12 PUSH1 0xC0 DUP10 MSTORE PUSH1 0xC0 DUP10 ADD SWAP1 PUSH2 0x146E JUMP JUMPDEST SWAP1 DUP8 DUP3 SUB PUSH1 0x20 DUP10 ADD MSTORE PUSH2 0x146E JUMP JUMPDEST SWAP1 DUP6 DUP3 SUB PUSH1 0x40 DUP8 ADD MSTORE PUSH2 0x146E JUMP JUMPDEST SWAP1 DUP4 DUP3 SUB PUSH1 0x60 DUP6 ADD MSTORE PUSH2 0x146E JUMP JUMPDEST SWAP5 ISZERO ISZERO PUSH1 0x80 DUP3 ADD MSTORE ADD MSTORE JUMP JUMPDEST DUP2 PUSH1 0x1F DUP3 ADD SLT ISZERO PUSH2 0xD4 JUMPI DUP1 CALLDATALOAD SWAP1 PUSH1 0x1 PUSH1 0x1 PUSH1 0x40 SHL SUB DUP3 GT PUSH2 0x50B JUMPI PUSH1 0x40 MLOAD SWAP3 PUSH2 0x1522 PUSH1 0x1F DUP5 ADD PUSH1 0x1F NOT AND PUSH1 0x20 ADD DUP6 PUSH2 0x1384 JUMP JUMPDEST DUP3 DUP5 MSTORE PUSH1 0x20 DUP4 DUP4 ADD ADD GT PUSH2 0xD4 JUMPI DUP2 PUSH1 0x0 SWAP3 PUSH1 0x20 DUP1 SWAP4 ADD DUP4 DUP7 ADD CALLDATACOPY DUP4 ADD ADD MSTORE SWAP1 JUMP JUMPDEST ISZERO PUSH2 0x154B JUMPI JUMP JUMPDEST PUSH1 0x40 MLOAD PUSH3 0x461BCD PUSH1 0xE5 SHL DUP2 MSTORE PUSH1 0x20 PUSH1 0x4 DUP3 ADD MSTORE PUSH1 0x21 PUSH1 0x24 DUP3 ADD MSTORE PUSH32 0x4F6E6C792061646D696E2063616E2063616C6C20746869732066756E6374696F PUSH1 0x44 DUP3 ADD MSTORE PUSH1 0x37 PUSH1 0xF9 SHL PUSH1 0x64 DUP3 ADD MSTORE PUSH1 0x84 SWAP1 REVERT JUMPDEST ISZERO PUSH2 0x15A1 JUMPI JUMP JUMPDEST PUSH1 0x40 MLOAD PUSH3 0x461BCD PUSH1 0xE5 SHL DUP2 MSTORE PUSH1 0x20 PUSH1 0x4 DUP3 ADD MSTORE PUSH1 0x17 PUSH1 0x24 DUP3 ADD MSTORE PUSH32 0x557365726E616D6520616C726561647920657869737473000000000000000000 PUSH1 0x44 DUP3 ADD MSTORE PUSH1 0x64 SWAP1 REVERT JUMPDEST DUP2 DUP2 LT PUSH2 0x15F1 JUMPI POP POP JUMP JUMPDEST PUSH1 0x0 DUP2 SSTORE PUSH1 0x1 ADD PUSH2 0x15E6 JUMP JUMPDEST ISZERO PUSH2 0x1604 JUMPI JUMP JUMPDEST PUSH1 0x40 MLOAD PUSH3 0x461BCD PUSH1 0xE5 SHL DUP2 MSTORE PUSH1 0x20 PUSH1 0x4 DUP3 ADD MSTORE PUSH1 0x16 PUSH1 0x24 DUP3 ADD MSTORE PUSH22 0x13D9999A58D95C88191BD95CC81B9BDD08195E1A5CDD PUSH1 0x52 SHL PUSH1 0x44 DUP3 ADD MSTORE PUSH1 0x64 SWAP1 REVERT JUMPDEST PUSH2 0x164C DUP2 SLOAD PUSH2 0x132F JUMP JUMPDEST SWAP1 DUP2 PUSH2 0x1656 JUMPI POP POP JUMP JUMPDEST DUP2 PUSH1 0x1F PUSH1 0x0 SWAP4 GT PUSH1 0x1 EQ PUSH2 0x1668 JUMPI POP SSTORE JUMP JUMPDEST SWAP1 DUP1 DUP4 SWAP2 DUP3 MSTORE PUSH2 0x1687 PUSH1 0x1F PUSH1 0x20 DUP5 KECCAK256 SWAP5 ADD PUSH1 0x5 SHR DUP5 ADD PUSH1 0x1 DUP6 ADD PUSH2 0x15E6 JUMP JUMPDEST SSTORE SSTORE JUMP INVALID LOG2 PUSH5 0x6970667358 0x22 SLT KECCAK256 EXTCODESIZE 0xD7 0xF8 SSTORE 0xD8 JUMP 0xDE 0xD6 0x2A 0xFC NOT 0xBF 0xC6 MULMOD 0xCC 0xE1 0xBE 0xDE 0xF7 0xDC 0xDB PUSH8 0x9DFBF0385CE6C8DD 0xBD PUSH27 0x64736F6C6343000814003300000000000000000000000000000000 "},"methodIdentifiers":{"addOfficer(address,string,string,string,string)":"728576d1","admin()":"f851a440","getAllOfficerAddresses()":"06296328","getOfficer(address)":"1e572c0f","getOfficerCount()":"e935a2f5","isOfficer(address)":"6816442d","officerAddresses(uint256)":"04e82d29","officers(address)":"084866dd","removeOfficer(address)":"719a0f8c","setOfficerStatus(address,bool)":"bf9cf4cf","transferAdmin(address)":"75829def","updateOfficer(address,string,string,string)":"9e8d7f54","usernameExists(string)":"f309e3f9"}}}}}