{"src/contracts/UserAuthentication.sol":{"UserAuthentication":{"abi":[{"inputs":[],"stateMutability":"nonpayable","type":"constructor"},{"anonymous":false,"inputs":[{"indexed":true,"internalType":"address","name":"walletAddress","type":"address"},{"indexed":false,"internalType":"bool","name":"isApproved","type":"bool"},{"indexed":false,"internalType":"string","name":"remark","type":"string"}],"name":"UserApprovalChanged","type":"event"},{"anonymous":false,"inputs":[{"indexed":true,"internalType":"address","name":"walletAddress","type":"address"},{"indexed":false,"internalType":"string","name":"id","type":"string"},{"indexed":false,"internalType":"string","name":"username","type":"string"},{"indexed":false,"internalType":"string","name":"role","type":"string"}],"name":"UserRegistered","type":"event"},{"anonymous":false,"inputs":[{"indexed":true,"internalType":"address","name":"walletAddress","type":"address"},{"indexed":false,"internalType":"string","name":"id","type":"string"}],"name":"UserRemoved","type":"event"},{"anonymous":false,"inputs":[{"indexed":true,"internalType":"address","name":"walletAddress","type":"address"},{"indexed":false,"internalType":"string","name":"username","type":"string"}],"name":"UserUpdated","type":"event"},{"inputs":[],"name":"admin","outputs":[{"internalType":"address","name":"","type":"address"}],"stateMutability":"view","type":"function"},{"inputs":[],"name":"getAllUserAddresses","outputs":[{"internalType":"address[]","name":"","type":"address[]"}],"stateMutability":"view","type":"function"},{"inputs":[{"internalType":"address","name":"walletAddress","type":"address"}],"name":"getCompanyDetails","outputs":[{"internalType":"string","name":"companyName","type":"string"},{"internalType":"string","name":"registrationNumber","type":"string"},{"internalType":"string","name":"gstNumber","type":"string"},{"internalType":"string","name":"panNumber","type":"string"},{"internalType":"uint256","name":"establishmentYear","type":"uint256"},{"internalType":"string","name":"registeredAddress","type":"string"},{"internalType":"string","name":"state","type":"string"},{"internalType":"string","name":"city","type":"string"},{"internalType":"string","name":"pinCode","type":"string"},{"internalType":"string","name":"bidderType","type":"string"}],"stateMutability":"view","type":"function"},{"inputs":[{"internalType":"address","name":"walletAddress","type":"address"}],"name":"getUserByAddress","outputs":[{"internalType":"string","name":"id","type":"string"},{"internalType":"string","name":"name","type":"string"},{"internalType":"string","name":"username","type":"string"},{"internalType":"string","name":"email","type":"string"},{"internalType":"string","name":"role","type":"string"},{"internalType":"bool","name":"isApproved","type":"bool"},{"internalType":"string","name":"approvalRemark","type":"string"},{"internalType":"uint256","name":"createdAt","type":"uint256"}],"stateMutability":"view","type":"function"},{"inputs":[{"internalType":"string","name":"username","type":"string"}],"name":"getUserByUsername","outputs":[{"internalType":"address","name":"walletAddress","type":"address"},{"internalType":"string","name":"id","type":"string"},{"internalType":"string","name":"name","type":"string"},{"internalType":"string","name":"email","type":"string"},{"internalType":"string","name":"role","type":"string"},{"internalType":"bool","name":"isApproved","type":"bool"},{"internalType":"string","name":"approvalRemark","type":"string"},{"internalType":"uint256","name":"createdAt","type":"uint256"}],"stateMutability":"view","type":"function"},{"inputs":[],"name":"getUserCount","outputs":[{"internalType":"uint256","name":"","type":"uint256"}],"stateMutability":"view","type":"function"},{"inputs":[{"internalType":"address","name":"walletAddress","type":"address"}],"name":"isAdmin","outputs":[{"internalType":"bool","name":"","type":"bool"}],"stateMutability":"view","type":"function"},{"inputs":[{"internalType":"address","name":"walletAddress","type":"address"}],"name":"isOfficer","outputs":[{"internalType":"bool","name":"","type":"bool"}],"stateMutability":"view","type":"function"},{"inputs":[{"internalType":"address","name":"walletAddress","type":"address"}],"name":"isUser","outputs":[{"internalType":"bool","name":"","type":"bool"}],"stateMutability":"view","type":"function"},{"inputs":[{"internalType":"address","name":"walletAddress","type":"address"},{"internalType":"string","name":"id","type":"string"},{"internalType":"string","name":"name","type":"string"},{"internalType":"string","name":"username","type":"string"},{"internalType":"string","name":"email","type":"string"},{"internalType":"string","name":"role","type":"string"},{"internalType":"string","name":"companyName","type":"string"},{"internalType":"string","name":"registrationNumber","type":"string"},{"internalType":"string","name":"gstNumber","type":"string"},{"internalType":"string","name":"panNumber","type":"string"},{"internalType":"uint256","name":"establishmentYear","type":"uint256"},{"internalType":"string","name":"registeredAddress","type":"string"},{"internalType":"string","name":"state","type":"string"},{"internalType":"string","name":"city","type":"string"},{"internalType":"string","name":"pinCode","type":"string"},{"internalType":"string","name":"bidderType","type":"string"}],"name":"registerUser","outputs":[],"stateMutability":"nonpayable","type":"function"},{"inputs":[{"internalType":"address","name":"walletAddress","type":"address"}],"name":"removeUser","outputs":[],"stateMutability":"nonpayable","type":"function"},{"inputs":[{"internalType":"address","name":"walletAddress","type":"address"},{"internalType":"bool","name":"isApproved","type":"bool"},{"internalType":"string","name":"remark","type":"string"}],"name":"setUserApproval","outputs":[],"stateMutability":"nonpayable","type":"function"},{"inputs":[{"internalType":"address","name":"newAdmin","type":"address"}],"name":"transferAdmin","outputs":[],"stateMutability":"nonpayable","type":"function"},{"inputs":[{"internalType":"address","name":"walletAddress","type":"address"},{"internalType":"string","name":"companyName","type":"string"},{"internalType":"string","name":"registrationNumber","type":"string"},{"internalType":"string","name":"gstNumber","type":"string"},{"internalType":"string","name":"panNumber","type":"string"},{"internalType":"uint256","name":"establishmentYear","type":"uint256"},{"internalType":"string","name":"registeredAddress","type":"string"},{"internalType":"string","name":"state","type":"string"},{"internalType":"string","name":"city","type":"string"},{"internalType":"string","name":"pinCode","type":"string"},{"internalType":"string","name":"bidderType","type":"string"}],"name":"updateCompanyDetails","outputs":[],"stateMutability":"nonpayable","type":"function"},{"inputs":[{"internalType":"address","name":"walletAddress","type":"address"},{"internalType":"string","name":"name","type":"string"},{"internalType":"string","name":"username","type":"string"},{"internalType":"string","name":"email","type":"string"}],"name":"updateUser","outputs":[],"stateMutability":"nonpayable","type":"function"},{"inputs":[{"internalType":"uint256","name":"","type":"uint256"}],"name":"userAddresses","outputs":[{"internalType":"address","name":"","type":"address"}],"stateMutability":"view","type":"function"},{"inputs":[{"internalType":"string","name":"","type":"string"}],"name":"usernameExists","outputs":[{"internalType":"bool","name":"","type":"bool"}],"stateMutability":"view","type":"function"},{"inputs":[{"internalType":"string","name":"","type":"string"}],"name":"usernameToAddress","outputs":[{"internalType":"address","name":"","type":"address"}],"stateMutability":"view","type":"function"},{"inputs":[{"internalType":"address","name":"","type":"address"}],"name":"users","outputs":[{"internalType":"string","name":"id","type":"string"},{"internalType":"string","name":"name","type":"string"},{"internalType":"string","name":"username","type":"string"},{"internalType":"string","name":"email","type":"string"},{"internalType":"string","name":"role","type":"string"},{"internalType":"bool","name":"isApproved","type":"bool"},{"internalType":"string","name":"approvalRemark","type":"string"},{"internalType":"uint256","name":"createdAt","type":"uint256"},{"internalType":"string","name":"companyName","type":"string"},{"internalType":"string","name":"registrationNumber","type":"string"},{"internalType":"string","name":"gstNumber","type":"string"},{"internalType":"string","name":"panNumber","type":"string"},{"internalType":"uint256","name":"establishmentYear","type":"uint256"},{"internalType":"string","name":"registeredAddress","type":"string"},{"internalType":"string","name":"state","type":"string"},{"internalType":"string","name":"city","type":"string"},{"internalType":"string","name":"pinCode","type":"string"},{"internalType":"string","name":"bidderType","type":"string"}],"stateMutability":"view","type":"function"}],"evm":{"bytecode":{"linkReferences":{},"object":"34620017da57600080546001600160a01b031916331790556102c060405262000027620017df565b600781526661646d696e2d3160c81b602082015260805262000048620017df565b600c81526b29bcb9ba32b69020b236b4b760a11b602082015260a0526200006e620017df565b600581526430b236b4b760d91b602082015260c0526200008d620017df565b601481527f61646d696e407472757374636861696e2e636f6d000000000000000000000000602082015260e052620000c4620017df565b600581526430b236b4b760d91b602082015261010052600161012052620000ea620017ff565b6000815261014052426101605262000101620017df565b600a8152692a393ab9ba21b430b4b760b11b60208201526101805262000126620017df565b6005815264544330303160d81b60208201526101a05262000146620017ff565b600081526101c05262000158620017ff565b600081526101e0526107e76102005262000171620017df565b600d81526c426c6f636b636861696e20485160981b60208201526102205262000199620017df565b600c81526b111958d95b9d1c985b185b9960a21b602082015261024052620001c0620017df565b600b81526a43727970746f204369747960a81b602082015261026052620001e6620017df565b600681526503030303030360d41b60208201526102805262000207620017ff565b60008082526102a0919091523381526001602052604090206080518051906001600160401b03821162000a4b578254908160011c916001811615620017cf575b600116602083101462000b2e5781601f8493116200177a575b50602090601f83116001146200170957600092620016fd575b50508160011b916000199060031b1c19161781555b60a0518051906001600160401b03821162000a4b57600183015490600182811c92168015620016f2575b602083101462000b2e5781601f8493116200169a575b50602090601f8311600114620016235760009262001617575b50508160011b916000199060031b1c19161760018201555b60c0518051906001600160401b03821162000a4b57600283015490600182811c921680156200160c575b602083101462000b2e5781601f849311620015b4575b50602090601f83116001146200153d5760009262001531575b50508160011b916000199060031b1c19161760028201555b60e0518051906001600160401b03821162000a4b57600383015490600182811c9216801562001526575b602083101462000b2e5781601f849311620014ce575b50602090601f831160011462001457576000926200144b575b50508160011b916000199060031b1c19161760038201555b610100518051906001600160401b03821162000a4b57600483015490600182811c9216801562001440575b602083101462000b2e5781601f849311620013e8575b50602090601f8311600114620013715760009262001365575b50508160011b916000199060031b1c19161760048201555b6101205160058201805460ff191691151560ff16919091179055610140518051906001600160401b03821162000a4b57600683015490600182811c921680156200135a575b602083101462000b2e5781601f84931162001302575b50602090601f83116001146200128b576000926200127f575b50508160011b916000199060031b1c19161760068201555b610160516007820155610180518051906001600160401b03821162000a4b57600883015490600182811c9216801562001274575b602083101462000b2e5781601f8493116200121c575b50602090601f8311600114620011a55760009262001199575b50508160011b916000199060031b1c19161760088201555b6101a0518051906001600160401b03821162000a4b57600983015490600182811c921680156200118e575b602083101462000b2e5781601f84931162001136575b50602090601f8311600114620010bf57600092620010b3575b50508160011b916000199060031b1c19161760098201555b6101c0518051906001600160401b03821162000a4b57600a83015490600182811c92168015620010a8575b602083101462000b2e5781601f84931162001050575b50602090601f831160011462000fd95760009262000fcd575b50508160011b916000199060031b1c191617600a8201555b6101e0518051906001600160401b03821162000a4b57600b83015490600182811c9216801562000fc2575b602083101462000b2e5781601f84931162000f6a575b50602090601f831160011462000ef35760009262000ee7575b50508160011b916000199060031b1c191617600b8201555b61020051600c820155610220518051906001600160401b03821162000a4b57600d83015490600182811c9216801562000edc575b602083101462000b2e5781601f84931162000e84575b50602090601f831160011462000e0d5760009262000e01575b50508160011b916000199060031b1c191617600d8201555b610240518051906001600160401b03821162000a4b57600e83015490600182811c9216801562000df6575b602083101462000b2e5781601f84931162000d9e575b50602090601f831160011462000d275760009262000d1b575b50508160011b916000199060031b1c191617600e8201555b610260518051906001600160401b03821162000a4b57600f83015490600182811c9216801562000d10575b602083101462000b2e5781601f84931162000cb8575b50602090601f831160011462000c415760009262000c35575b50508160011b916000199060031b1c191617600f8201555b610280518051906001600160401b03821162000a4b57601083015490600182811c9216801562000c2a575b602083101462000b2e5781601f84931162000bd2575b50602090601f831160011462000b5b5760009262000b4f575b50508160011b916000199060031b1c19161760108201555b6102a0518051906001600160401b03821162000a4b576011830154600181811c9116801562000b44575b602082101462000b2e57601f811162000ae2575b50602090601f831160011462000a6d57601192916000918362000a61575b50508160011b916000199060031b1c1916179101555b60256040516430b236b4b760d91b815260026005820152203360018060a01b031982541617905560256040516430b236b4b760d91b81526004600582015220600160ff198254161790556003546801000000000000000081101562000a4b57600181018060035581101562000a355760036000527fc2575a0e9e593c00f959f8c92f12db2869c3395a3b0502d05e2516446f71f85b0180546001600160a01b0319163317905560405160608082526007908201526661646d696e2d3160c81b608082015260a0602082018190526005908201526430b236b4b760d91b60c08201527f509c70f523067009f7db7f46db6956d7af8b679323680dc3821a8bad001ac1e160e082019180830360408201528062000a223394604090600581526430b236b4b760d91b60208201520190565b0390a26040516141ec9081620018208239f35b634e487b7160e01b600052603260045260246000fd5b634e487b7160e01b600052604160045260246000fd5b015190503880620008dd565b906011840160005260206000209160005b601f198516811062000ac95750918391600193601195601f1981161062000aaf575b505050811b01910155620008f3565b015160001960f88460031b161c1916905538808062000aa0565b9192602060018192868501518155019401920162000a7e565b601184016000526020600020601f840160051c81016020851062000b26575b601f830160051c8201811062000b19575050620008bf565b6000815560010162000b01565b508062000b01565b634e487b7160e01b600052602260045260246000fd5b90607f1690620008ab565b01519050388062000869565b9250601084016000526020600020906000935b601f198416851062000bb6576001945083601f1981161062000b9c575b505050811b01601082015562000881565b015160001960f88460031b161c1916905538808062000b8b565b8181015183556020948501946001909301929091019062000b6e565b909150601084016000526020600020601f840160051c81016020851062000c22575b90849392915b601f830160051c8201811062000c1257505062000850565b6000815585945060010162000bfa565b508062000bf4565b91607f16916200083a565b015190503880620007f7565b9250600f84016000526020600020906000935b601f198416851062000c9c576001945083601f1981161062000c82575b505050811b01600f8201556200080f565b015160001960f88460031b161c1916905538808062000c71565b8181015183556020948501946001909301929091019062000c54565b909150600f84016000526020600020601f840160051c81016020851062000d08575b90849392915b601f830160051c8201811062000cf8575050620007de565b6000815585945060010162000ce0565b508062000cda565b91607f1691620007c8565b01519050388062000785565b9250600e84016000526020600020906000935b601f198416851062000d82576001945083601f1981161062000d68575b505050811b01600e8201556200079d565b015160001960f88460031b161c1916905538808062000d57565b8181015183556020948501946001909301929091019062000d3a565b909150600e84016000526020600020601f840160051c81016020851062000dee575b90849392915b601f830160051c8201811062000dde5750506200076c565b6000815585945060010162000dc6565b508062000dc0565b91607f169162000756565b01519050388062000713565b9250600d84016000526020600020906000935b601f198416851062000e68576001945083601f1981161062000e4e575b505050811b01600d8201556200072b565b015160001960f88460031b161c1916905538808062000e3d565b8181015183556020948501946001909301929091019062000e20565b909150600d84016000526020600020601f840160051c81016020851062000ed4575b90849392915b601f830160051c8201811062000ec4575050620006fa565b6000815585945060010162000eac565b508062000ea6565b91607f1691620006e4565b01519050388062000698565b9250600b84016000526020600020906000935b601f198416851062000f4e576001945083601f1981161062000f34575b505050811b01600b820155620006b0565b015160001960f88460031b161c1916905538808062000f23565b8181015183556020948501946001909301929091019062000f06565b909150600b84016000526020600020601f840160051c81016020851062000fba575b90849392915b601f830160051c8201811062000faa5750506200067f565b6000815585945060010162000f92565b508062000f8c565b91607f169162000669565b01519050388062000626565b9250600a84016000526020600020906000935b601f198416851062001034576001945083601f198116106200101a575b505050811b01600a8201556200063e565b015160001960f88460031b161c1916905538808062001009565b8181015183556020948501946001909301929091019062000fec565b909150600a84016000526020600020601f840160051c810160208510620010a0575b90849392915b601f830160051c82018110620010905750506200060d565b6000815585945060010162001078565b508062001072565b91607f1691620005f7565b015190503880620005b4565b9250600984016000526020600020906000935b601f19841685106200111a576001945083601f1981161062001100575b505050811b016009820155620005cc565b015160001960f88460031b161c19169055388080620010ef565b81810151835560209485019460019093019290910190620010d2565b909150600984016000526020600020601f840160051c81016020851062001186575b90849392915b601f830160051c82018110620011765750506200059b565b600081558594506001016200115e565b508062001158565b91607f169162000585565b01519050388062000542565b9250600884016000526020600020906000935b601f198416851062001200576001945083601f19811610620011e6575b505050811b0160088201556200055a565b015160001960f88460031b161c19169055388080620011d5565b81810151835560209485019460019093019290910190620011b8565b909150600884016000526020600020601f840160051c8101602085106200126c575b90849392915b601f830160051c820181106200125c57505062000529565b6000815585945060010162001244565b50806200123e565b91607f169162000513565b015190503880620004c7565b9250600684016000526020600020906000935b601f1984168510620012e6576001945083601f19811610620012cc575b505050811b016006820155620004df565b015160001960f88460031b161c19169055388080620012bb565b818101518355602094850194600190930192909101906200129e565b909150600684016000526020600020601f840160051c81016020851062001352575b90849392915b601f830160051c8201811062001342575050620004ae565b600081558594506001016200132a565b508062001324565b91607f169162000498565b0151905038806200043b565b9250600484016000526020600020906000935b601f1984168510620013cc576001945083601f19811610620013b2575b505050811b01600482015562000453565b015160001960f88460031b161c19169055388080620013a1565b8181015183556020948501946001909301929091019062001384565b909150600484016000526020600020601f840160051c81016020851062001438575b90849392915b601f830160051c820181106200142857505062000422565b6000815585945060010162001410565b50806200140a565b91607f16916200040c565b015190503880620003c9565b9250600384016000526020600020906000935b601f1984168510620014b2576001945083601f1981161062001498575b505050811b016003820155620003e1565b015160001960f88460031b161c1916905538808062001487565b818101518355602094850194600190930192909101906200146a565b909150600384016000526020600020601f840160051c8101602085106200151e575b90849392915b601f830160051c820181106200150e575050620003b0565b60008155859450600101620014f6565b5080620014f0565b91607f16916200039a565b01519050388062000358565b9250600284016000526020600020906000935b601f198416851062001598576001945083601f198116106200157e575b505050811b01600282015562000370565b015160001960f88460031b161c191690553880806200156d565b8181015183556020948501946001909301929091019062001550565b909150600284016000526020600020601f840160051c81016020851062001604575b90849392915b601f830160051c82018110620015f45750506200033f565b60008155859450600101620015dc565b5080620015d6565b91607f169162000329565b015190503880620002e7565b9250600184016000526020600020906000935b601f19841685106200167e576001945083601f1981161062001664575b505050811b016001820155620002ff565b015160001960f88460031b161c1916905538808062001653565b8181015183556020948501946001909301929091019062001636565b909150600184016000526020600020601f840160051c810160208510620016ea575b90849392915b601f830160051c82018110620016da575050620002ce565b60008155859450600101620016c2565b5080620016bc565b91607f1691620002b8565b01519050388062000279565b9250836000526020600020906000935b601f19841685106200175e576001945083601f1981161062001744575b505050811b0181556200028e565b015160001960f88460031b161c1916905538808062001736565b8181015183556020948501946001909301929091019062001719565b909150836000526020600020601f840160051c810160208510620017c7575b90849392915b601f830160051c82018110620017b757505062000260565b600081558594506001016200179f565b508062001799565b91607f169162000247565b600080fd5b60408051919082016001600160401b0381118382101762000a4b57604052565b60405190602082016001600160401b0381118382101762000a4b5760405256fe61012080604052600436101561001457600080fd5b60003560e01c9081630558d3e914613ab8575080630da4578b1461352d57806324d7806c146134d95780632f3300231461341157806337a1bba2146128325780634209fff1146127ee578063502c9bd5146127ac5780636816442d1461274957806369c212f6146124a357806375829def146123d457806398575188146120975780639d4d134214610b715780639f42af631461080e578063a87430ba1461047b578063b5cb15f71461045d578063b979cc2f146101e8578063f309e3f914610187578063f825f1431461011f5763f851a440146100f157600080fd5b3461011a57600036600319011261011a576000546040516001600160a01b039091168152602090f35b600080fd5b3461011a57602036600319011261011a576004356001600160401b03811161011a576101516020913690600401613e9b565b816101656040519283815193849201613dfb565b600290820190815281900382019020546040516001600160a01b039091168152f35b3461011a57602036600319011261011a576004356001600160401b03811161011a5760ff6101d260206101bf81943690600401613e9b565b8160405193828580945193849201613dfb565b8101600481520301902054166040519015158152f35b3461011a57606036600319011261011a57610201613de5565b6024358015159081810361011a576001600160401b039160443583811161011a57610230903690600401613e9b565b60005490946001600160a01b0391821633148015610411575b610252906140f7565b169283600052600190600660209483865261027b610274604060002054613f3e565b15156140b5565b866000528386526102a0604060002091600583019060ff801983541691151516179055565b019186519182116103fb576102b58354613f3e565b601f81116103c0575b5084601f83116001146103365791808061032695937f925b0343b9085747d26a9125c88206057343a6e2db8d4fe70cee25da0220aac1999a9560009361032b575b501b916000199060031b1c19161790555b6040805194859485528401526040830190613e1e565b0390a2005b86015192508b6102ff565b601f9291921982169084600052866000209160005b8181106103ab575091839161032696947f925b0343b9085747d26a9125c88206057343a6e2db8d4fe70cee25da0220aac19a9b969410610392575b5050811b019055610310565b85015160001960f88460031b161c191690558980610386565b8a83015184559285019291880191880161034b565b6103eb908460005286600020601f850160051c8101918886106103f1575b601f0160051c019061409e565b876102be565b90915081906103de565b634e487b7160e01b600052604160045260246000fd5b5033600052600160205261025261043861043f600460406000200160405192838092613f78565b0382613e7a565b6020815191012061044e614031565b60208151910120149050610249565b3461011a57600036600319011261011a576020600354604051908152f35b3461011a57602036600319011261011a576001600160a01b0361049c613de5565b16600052600160205260406000208080604051806104ba8184613f78565b036104c59082613e7a565b60405160a08190526104da8160018501613f78565b0360a051906104e891613e7a565b60405160808190526104fd8160028501613f78565b036080519061050b91613e7a565b6040518061051c8160038601613f78565b036105279082613e7a565b604051806105388160048701613f78565b036105439082613e7a565b600584015460ff166040518080600688019061055e91613f78565b036105699082613e7a565b600786015460405191826105808160088b01613f78565b0361058b9084613e7a565b604051938461059d8160098c01613f78565b036105a89086613e7a565b60405195866105ba81600a8d01613f78565b036105c59088613e7a565b60405197886105d781600b8e01613f78565b036105e2908a613e7a565b600c8b01549960405180600d819e01906105fb91613f78565b03610606908d613e7a565b60405180809e600e8291019061061b91613f78565b0361062591613e7a565b6040519d8e8061063881600f8501613f78565b0361064291613e7a565b60405160c08190526106578160108401613f78565b0360c0519061066591613e7a565b60405180918160e0526011019061067b91613f78565b0360e0519061068991613e7a565b604051806101005261024080915261010051016106a591613e1e565b61010051808203906020015260a051906106be91613e1e565b610100518082039060400152608051906106d791613e1e565b6101005180820390606001526106ec91613e1e565b61010051808203906080015261070191613e1e565b9015156101005160a00152610100518082039060c0015261072191613e1e565b906101005160e001526101005180820390610100015261074091613e1e565b6101005180820390610120015261075691613e1e565b6101005180820390610140015261076c91613e1e565b6101005180820390610160015261078291613e1e565b9061010051610180015261010051808203906101a001526107a291613e1e565b61010051808203906101c001526107b891613e1e565b61010051808203906101e001526107ce91613e1e565b6101005180820390610200015260c051906107e891613e1e565b61010051808203906102200152610100519060e0519061080791613e1e565b0361010051f35b3461011a5760208060031936011261011a576004356001600160401b03811161011a5761083f903690600401613e9b565b816108536040519283815193849201613dfb565b600290820190815281900382019020546001600160a01b03168015610b37578060005260018252604060002060405161088b81613e43565b604051806108998185613f78565b036108a49082613e7a565b8152604051806108b78160018601613f78565b036108c29082613e7a565b818501908152604051806108d98160028701613f78565b036108e49082613e7a565b6040830152604051808060038601906108fc91613f78565b036109079082613e7a565b606083019081526040518061091f8160048801613f78565b0361092a9082613e7a565b60808401908152600585015460ff169160a085019215158352604051938480600689019061095791613f78565b036109629086613e7a565b60c0860194855260078701549560e08101968752604051978880600883019061098a91613f78565b03610995908a613e7a565b6101009889830152604051808060098401906109b091613f78565b036109bb9082613e7a565b610120830152604051806109d281600a8501613f78565b036109dd9082613e7a565b610140830152604051806109f481600b8501613f78565b036109ff9082613e7a565b610160830152600c81015461018083015260405180610a2181600d8501613f78565b03610a2c9082613e7a565b6101a083015260405180610a4381600e8501613f78565b03610a4e9082613e7a565b6101c083015260405180610a6581600f8501613f78565b03610a709082613e7a565b6101e083015260405180610a878160108501613f78565b03610a929082613e7a565b61020083015260405180601181930190610aab91613f78565b03610ab69082613e7a565b61022082015251905191519251935115159451955196806040519a8b9a8b528a01528801610ae391613e1e565b8781036040890152610af491613e1e565b8681036060880152610b0591613e1e565b8581036080870152610b1691613e1e565b9060a085015283810360c0850152610b2d91613e1e565b9060e08301520390f35b60405162461bcd60e51b8152600481018390526012602482015271155cd95c9b985b59481b9bdd08199bdd5b9960721b6044820152606490fd5b3461011a5761020036600319011261011a57610b8b613de5565b6024356001600160401b03811161011a57610baa903690600401613e9b565b906044356001600160401b03811161011a57610bca903690600401613e9b565b916064356001600160401b03811161011a57610bea903690600401613e9b565b906084356001600160401b03811161011a57610c0a903690600401613e9b565b9360a4356001600160401b03811161011a57610c2a903690600401613e9b565b9460c4356001600160401b03811161011a57610c4a903690600401613e9b565b60e4356001600160401b03811161011a57610c69903690600401613e9b565b610104356001600160401b03811161011a57610c89903690600401613e9b565b6001600160401b03610124351161011a57610caa3661012435600401613e9b565b6001600160401b03610164351161011a57610ccb3661016435600401613e9b565b906001600160401b03610184351161011a57610ced3661018435600401613e9b565b926001600160401b036101a4351161011a57610d0f366101a435600401613e9b565b946001600160401b036101c4351161011a57610d31366101c435600401613e9b565b966001600160401b036101e4351161011a578d98610d55366101e435600401613e9b565b9960208151910120610d6561400e565b6020815191012014611ffa575b6001600160a01b038e16600090815260016020526040902054610d9490613f3e565b611fa9578e8c918e60405180825181816020860191610db292613dfb565b8101600481520360200190205460ff1615610dcc90614052565b82516020840120610ddb61400e565b8051906020012014936040519e8f91610df383613e43565b825260208201526040015260608d015260808c015260a08b0152604051806020810110602082016001600160401b0310176103fb57602081016040526000815260c08b01524260e08b01526101008a0152610120890152610140880152610160870152610144356101808701526101a08601526101c08501526101e084015261020083015261022082015260018060a01b038416600052600160205260406000209080518051906001600160401b0382116103fb578190610eb48554613f3e565b601f8111611f77575b50602090601f8311600114611f0b57600092611f00575b50508160011b916000199060031b1c19161782555b60208101518051906001600160401b0382116103fb578190610f0e6001860154613f3e565b601f8111611ecb575b50602090601f8311600114611e5957600092611e4e575b50508160011b916000199060031b1c19161760018301555b60408101518051906001600160401b0382116103fb578190610f6b6002860154613f3e565b601f8111611e19575b50602090601f8311600114611da757600092611d9c575b50508160011b916000199060031b1c19161760028301555b60608101518051906001600160401b0382116103fb578190610fc86003860154613f3e565b601f8111611d67575b50602090601f8311600114611cf557600092611cea575b50508160011b916000199060031b1c19161760038301555b60808101518051906001600160401b0382116103fb5781906110256004860154613f3e565b601f8111611cb5575b50602090601f8311600114611c4357600092611c38575b50508160011b916000199060031b1c19161760048301555b61107c60a08201511515600584019060ff801983541691151516179055565b60c08101518051906001600160401b0382116103fb5781906110a16006860154613f3e565b601f8111611c03575b50602090601f8311600114611b9157600092611b86575b50508160011b916000199060031b1c19161760068301555b60e081015160078301556101008101518051906001600160401b0382116103fb5781906111096008860154613f3e565b601f8111611b51575b50602090601f8311600114611adf57600092611ad4575b50508160011b916000199060031b1c19161760088301555b6101208101518051906001600160401b0382116103fb5781906111676009860154613f3e565b601f8111611a9f575b50602090601f8311600114611a2d57600092611a22575b50508160011b916000199060031b1c19161760098301555b6101408101518051906001600160401b0382116103fb5781906111c5600a860154613f3e565b601f81116119ed575b50602090601f831160011461197b57600092611970575b50508160011b916000199060031b1c191617600a8301555b6101608101518051906001600160401b0382116103fb578190611223600b860154613f3e565b601f811161193b575b50602090601f83116001146118c9576000926118be575b50508160011b916000199060031b1c191617600b8301555b610180810151600c8301556101a08101518051906001600160401b0382116103fb57819061128c600d860154613f3e565b601f8111611889575b50602090601f83116001146118175760009261180c575b50508160011b916000199060031b1c191617600d8301555b6101c08101518051906001600160401b0382116103fb5781906112ea600e860154613f3e565b601f81116117d7575b50602090601f83116001146117655760009261175a575b50508160011b916000199060031b1c191617600e8301555b6101e08101518051906001600160401b0382116103fb578190611348600f860154613f3e565b601f8111611725575b50602090601f83116001146116b3576000926116a8575b50508160011b916000199060031b1c191617600f8301555b6102008101518051906001600160401b0382116103fb576113a46010850154613f3e565b601f8111611673575b50602090601f83116001146115ff57610220939291600091836115f4575b50508160011b916000199060031b1c19161760108401555b0151908151906001600160401b0382116103fb576011829101926114078454613f3e565b601f81116115c2575b50602090601f831160011461155c57600092611551575b50508160011b916000199060031b1c19161790555b60035491680100000000000000008310156103fb5783611538610326926114b07f509c70f523067009f7db7f46db6956d7af8b679323680dc3821a8bad001ac1e19761149188600161152a9a01600355613ef1565b90919082549060031b9160018060a01b03809116831b921b1916179055565b60405160208183516114c58183858801613dfb565b60029082019081520301902080546001600160a01b0319166001600160a01b038516179055604051815160209082906115018183878601613dfb565b81016004815203019020600160ff19825416179055604051958695606087526060870190613e1e565b908582036020870152613e1e565b83810360408501526001600160a01b0390911695613e1e565b015190508780611427565b6000858152602081209350601f198516905b8181106115aa5750908460019594939210611591575b505050811b01905561143c565b015160001960f88460031b161c19169055878080611584565b9293602060018192878601518155019501930161156e565b6115ee90856000526020600020601f850160051c810191602086106103f157601f0160051c019061409e565b88611410565b0151905089806113cb565b906010850160005260206000209160005b601f198516811061165b57509183916001936102209695601f19811610611642575b505050811b0160108401556113e3565b015160001960f88460031b161c19169055898080611632565b91926020600181928685015181550194019201611610565b6116a290601086016000526020600020601f850160051c810191602086106103f157601f0160051c019061409e565b886113ad565b015190508880611368565b9250600f85016000526020600020906000935b601f198416851061170a576001945083601f198116106116f1575b505050811b01600f830155611380565b015160001960f88460031b161c191690558880806116e1565b818101518355602094850194600190930192909101906116c6565b61175490600f87016000526020600020601f850160051c810191602086106103f157601f0160051c019061409e565b89611351565b01519050888061130a565b9250600e85016000526020600020906000935b601f19841685106117bc576001945083601f198116106117a3575b505050811b01600e830155611322565b015160001960f88460031b161c19169055888080611793565b81810151835560209485019460019093019290910190611778565b61180690600e87016000526020600020601f850160051c810191602086106103f157601f0160051c019061409e565b896112f3565b0151905088806112ac565b9250600d85016000526020600020906000935b601f198416851061186e576001945083601f19811610611855575b505050811b01600d8301556112c4565b015160001960f88460031b161c19169055888080611845565b8181015183556020948501946001909301929091019061182a565b6118b890600d87016000526020600020601f850160051c810191602086106103f157601f0160051c019061409e565b89611295565b015190508880611243565b9250600b85016000526020600020906000935b601f1984168510611920576001945083601f19811610611907575b505050811b01600b83015561125b565b015160001960f88460031b161c191690558880806118f7565b818101518355602094850194600190930192909101906118dc565b61196a90600b87016000526020600020601f850160051c810191602086106103f157601f0160051c019061409e565b8961122c565b0151905088806111e5565b9250600a85016000526020600020906000935b601f19841685106119d2576001945083601f198116106119b9575b505050811b01600a8301556111fd565b015160001960f88460031b161c191690558880806119a9565b8181015183556020948501946001909301929091019061198e565b611a1c90600a87016000526020600020601f850160051c810191602086106103f157601f0160051c019061409e565b896111ce565b015190508880611187565b9250600985016000526020600020906000935b601f1984168510611a84576001945083601f19811610611a6b575b505050811b01600983015561119f565b015160001960f88460031b161c19169055888080611a5b565b81810151835560209485019460019093019290910190611a40565b611ace90600987016000526020600020601f850160051c810191602086106103f157601f0160051c019061409e565b89611170565b015190508880611129565b9250600885016000526020600020906000935b601f1984168510611b36576001945083601f19811610611b1d575b505050811b016008830155611141565b015160001960f88460031b161c19169055888080611b0d565b81810151835560209485019460019093019290910190611af2565b611b8090600887016000526020600020601f850160051c810191602086106103f157601f0160051c019061409e565b89611112565b0151905088806110c1565b9250600685016000526020600020906000935b601f1984168510611be8576001945083601f19811610611bcf575b505050811b0160068301556110d9565b015160001960f88460031b161c19169055888080611bbf565b81810151835560209485019460019093019290910190611ba4565b611c3290600687016000526020600020601f850160051c810191602086106103f157601f0160051c019061409e565b896110aa565b015190508880611045565b9250600485016000526020600020906000935b601f1984168510611c9a576001945083601f19811610611c81575b505050811b01600483015561105d565b015160001960f88460031b161c19169055888080611c71565b81810151835560209485019460019093019290910190611c56565b611ce490600487016000526020600020601f850160051c810191602086106103f157601f0160051c019061409e565b8961102e565b015190508880610fe8565b9250600385016000526020600020906000935b601f1984168510611d4c576001945083601f19811610611d33575b505050811b016003830155611000565b015160001960f88460031b161c19169055888080611d23565b81810151835560209485019460019093019290910190611d08565b611d9690600387016000526020600020601f850160051c810191602086106103f157601f0160051c019061409e565b89610fd1565b015190508880610f8b565b9250600285016000526020600020906000935b601f1984168510611dfe576001945083601f19811610611de5575b505050811b016002830155610fa3565b015160001960f88460031b161c19169055888080611dd5565b81810151835560209485019460019093019290910190611dba565b611e4890600287016000526020600020601f850160051c810191602086106103f157601f0160051c019061409e565b89610f74565b015190508880610f2e565b9250600185016000526020600020906000935b601f1984168510611eb0576001945083601f19811610611e97575b505050811b016001830155610f46565b015160001960f88460031b161c19169055888080611e87565b81810151835560209485019460019093019290910190611e6c565b611efa90600187016000526020600020601f850160051c810191602086106103f157601f0160051c019061409e565b89610f17565b015190508880610ed4565b9250846000526020600020906000935b601f1984168510611f5c576001945083601f19811610611f43575b505050811b018255610ee9565b015160001960f88460031b161c19169055888080611f36565b81810151835560209485019460019093019290910190611f1b565b611fa390866000526020600020601f850160051c810191602086106103f157601f0160051c019061409e565b89610ebd565b60405162461bcd60e51b8152602060048201526024808201527f5573657220616c72656164792065786973747320666f722074686973206164646044820152637265737360e01b6064820152608490fd5b6000546001600160a01b031633148015612057575b610d7257606460405162461bcd60e51b815260206004820152602060248201527f4f6e6c792061646d696e2063616e207265676973746572206f666669636572736044820152fd5b5033600052600160205261043861207b600460406000200160405192838092613f78565b6020815191012061208a614031565b602081519101201461200f565b3461011a5760208060031936011261011a576120b1613de5565b9061213360018060a01b038093816000541633148015612392575b6120d5906140f7565b169182600052600180948183526120f3610274604060002054613f3e565b8460005281835261218283610438612118600260406000200160405192838092613f78565b8760005284825261213a604060002060405198898092613f78565b0388613e7a565b60405190805191838181840194612152818388613dfb565b810160028152030190206bffffffffffffffffffffffff60a01b8154169055604051938492839251928391613dfb565b8101600481520301902060ff1981541690556000915b6122a6575b5050612292601184957f89fcfa7c85bf81269953b23469028afbdb9913b80af31b7c931a42009fb252bd956000528084526121e76040600020916121e08361414d565b820161414d565b6121f36002820161414d565b6121ff6003820161414d565b61220b6004820161414d565b6000600582015561221e6006820161414d565b600060078201556122316008820161414d565b61223d6009820161414d565b612249600a820161414d565b612255600b820161414d565b6000600c820155612268600d820161414d565b612274600e820161414d565b612280600f820161414d565b61228c6010820161414d565b0161414d565b610326604051928284938452830190613e1e565b600380548084101561238b5786836122bd86613ef1565b905490851b1c16146122f457505060001982146122de578580920191612198565b634e487b7160e01b600052601160045260246000fd5b95969095600019938185019182116122de576114918461231661232394613ef1565b9054908b1b1c1691613ef1565b8554918215612375577f89fcfa7c85bf81269953b23469028afbdb9913b80af31b7c931a42009fb252bd9661229294601194019161236083613ef1565b9091825491841b1b191690555595945061219d565b634e487b7160e01b600052603160045260246000fd5b505061219d565b5033600052600184526120d56104386123b8600460406000200160405192838092613f78565b8581519101206123c6614031565b8681519101201490506120cc565b3461011a57602036600319011261011a576123ed613de5565b600054906001600160a01b03903382841614801561245e575b61240f906140f7565b16908115612427576001600160a01b03191617600055005b60405162461bcd60e51b815260206004820152600f60248201526e496e76616c6964206164647265737360881b6044820152606490fd5b5033600052600160205261240f610438612485600460406000200160405192838092613f78565b60208151910120612494614031565b60208151910120149050612406565b3461011a57602036600319011261011a576001600160a01b036124c4613de5565b1660005260016020526040600020604051906124df82613e43565b604051806124ed8184613f78565b036124f89082613e7a565b8252604051918261250c8160018501613f78565b036125179084613e7a565b6020810192835260405190816125308160028601613f78565b0361253b9083613e7a565b604081810192835251806125528160038701613f78565b0361255d9082613e7a565b60608201908152604051806125758160048801613f78565b036125809082613e7a565b60808301908152600585015460ff169060a08401911515825260405192838060068901906125ad91613f78565b036125b89085613e7a565b60c0850193845260078701549460e0810195865260405197888060088301906125e091613f78565b036125eb908a613e7a565b61010098898301526040518080600984019061260691613f78565b036126119082613e7a565b6101208301526040518061262881600a8501613f78565b036126339082613e7a565b6101408301526040518061264a81600b8501613f78565b036126559082613e7a565b610160830152600c8101546101808301526040518061267781600d8501613f78565b036126829082613e7a565b6101a08301526040518061269981600e8501613f78565b036126a49082613e7a565b6101c0830152604051806126bb81600f8501613f78565b036126c69082613e7a565b6101e0830152604051806126dd8160108501613f78565b036126e89082613e7a565b6102008301526040518060118193019061270191613f78565b0361270c9082613e7a565b61022082015251975195519051915192511515935194519560405198888a998a52890161273891613e1e565b88810360208a0152610ae391613e1e565b3461011a57602036600319011261011a576001600160a01b0361276a613de5565b166000526001602052602061043861278f600460406000200160405192838092613f78565b81815191012061279d61400e565b82815191012014604051908152f35b3461011a57602036600319011261011a5760043560035481101561011a576127d5602091613ef1565b905460405160039290921b1c6001600160a01b03168152f35b3461011a57602036600319011261011a576001600160a01b0361280f613de5565b1660005260016020526020612828604060002054613f3e565b1515604051908152f35b3461011a5761016036600319011261011a5761284c613de5565b6024356001600160401b03811161011a5761286b903690600401613e9b565b6044356001600160401b03811161011a5761288a903690600401613e9b565b916064356001600160401b03811161011a576128aa903690600401613e9b565b6084356001600160401b03811161011a576128c9903690600401613e9b565b60c4356001600160401b03811161011a576128e8903690600401613e9b565b60e4356001600160401b03811161011a57612907903690600401613e9b565b90610104356001600160401b03811161011a57612928903690600401613e9b565b92610124356001600160401b03811161011a57612949903690600401613e9b565b94610144356001600160401b03811161011a5761296a903690600401613e9b565b9860018060a01b038816600052600160205261298d610274604060002054613f3e565b6000546001600160a01b0316331480156133d1575b80156133bf575b15613354576001600160a01b0388166000908152600160205260409020895190996001600160401b0382116103fb5781908b6129e86008820154613f3e565b601f811161331f575b5050602090601f83116001146132ad576000926132a2575b50508160011b916000199060031b1c19161760088a01555b8051906001600160401b0382116103fb578190612a4160098c0154613f3e565b601f811161326d575b50602090601f83116001146131fb576000926131f0575b50508160011b916000199060031b1c19161760098901555b8051906001600160401b0382116103fb578190612a99600a8b0154613f3e565b601f81116131bb575b50602090601f83116001146131495760009261313e575b50508160011b916000199060031b1c191617600a8801555b8051906001600160401b0382116103fb578190612af1600b8a0154613f3e565b601f8111613109575b50602090601f83116001146130975760009261308c575b50508160011b916000199060031b1c191617600b8701555b60a435600c8701558051906001600160401b0382116103fb578190612b51600d890154613f3e565b601f8111613057575b50602090601f8311600114612fe557600092612fda575b50508160011b916000199060031b1c191617600d8601555b8051906001600160401b0382116103fb578190612ba9600e880154613f3e565b601f8111612fa5575b50602090601f8311600114612f3357600092612f28575b50508160011b916000199060031b1c191617600e8501555b8051906001600160401b0382116103fb578190612c01600f870154613f3e565b601f8111612ef3575b50602090601f8311600114612e8157600092612e76575b50508160011b916000199060031b1c191617600f8401555b805160108401916001600160401b0382116103fb578190612c5a8454613f3e565b601f8111612e44575b50602090601f8311600114612dde57600092612dd3575b50508160011b916000199060031b1c19161790555b6011820183516001600160401b0381116103fb57612cad8254613f3e565b601f8111612da1575b506020601f8211600114612d255790806103269493926000805160206141978339815191529697600092612d1a575b50508160011b916000199060031b1c19161790555b6040519182916020835260018060a01b0316946002602084019101613f78565b015190508780612ce5565b601f198216958360005260206000209660005b818110612d895750966001928492610326979695600080516020614197833981519152999a10612d70575b505050811b019055612cfa565b015160001960f88460031b161c19169055878080612d63565b83830151895560019098019760209384019301612d38565b612dcd90836000526020600020601f840160051c810191602085106103f157601f0160051c019061409e565b85612cb6565b015190508680612c7a565b6000858152602081209350601f198516905b818110612e2c5750908460019594939210612e13575b505050811b019055612c8f565b015160001960f88460031b161c19169055868080612e06565b92936020600181928786015181550195019301612df0565b612e7090856000526020600020601f850160051c810191602086106103f157601f0160051c019061409e565b87612c63565b015190508680612c21565b9250600f86016000526020600020906000935b601f1984168510612ed8576001945083601f19811610612ebf575b505050811b01600f840155612c39565b015160001960f88460031b161c19169055868080612eaf565b81810151835560209485019460019093019290910190612e94565b612f2290600f88016000526020600020601f850160051c810191602086106103f157601f0160051c019061409e565b87612c0a565b015190508780612bc9565b9250600e87016000526020600020906000935b601f1984168510612f8a576001945083601f19811610612f71575b505050811b01600e850155612be1565b015160001960f88460031b161c19169055878080612f61565b81810151835560209485019460019093019290910190612f46565b612fd490600e89016000526020600020601f850160051c810191602086106103f157601f0160051c019061409e565b88612bb2565b015190508880612b71565b9250600d88016000526020600020906000935b601f198416851061303c576001945083601f19811610613023575b505050811b01600d860155612b89565b015160001960f88460031b161c19169055888080613013565b81810151835560209485019460019093019290910190612ff8565b61308690600d8a016000526020600020601f850160051c810191602086106103f157601f0160051c019061409e565b89612b5a565b015190508980612b11565b9250600b89016000526020600020906000935b601f19841685106130ee576001945083601f198116106130d5575b505050811b01600b870155612b29565b015160001960f88460031b161c191690558980806130c5565b818101518355602094850194600190930192909101906130aa565b61313890600b8b016000526020600020601f850160051c810191602086106103f157601f0160051c019061409e565b8a612afa565b015190508a80612ab9565b9250600a8a016000526020600020906000935b601f19841685106131a0576001945083601f19811610613187575b505050811b01600a880155612ad1565b015160001960f88460031b161c191690558a8080613177565b8181015183556020948501946001909301929091019061315c565b6131ea90600a8c016000526020600020601f850160051c810191602086106103f157601f0160051c019061409e565b8b612aa2565b015190508b80612a61565b925060098b016000526020600020906000935b601f1984168510613252576001945083601f19811610613239575b505050811b016009890155612a79565b015160001960f88460031b161c191690558b8080613229565b8181015183556020948501946001909301929091019061320e565b61329c9060098d016000526020600020601f850160051c810191602086106103f157601f0160051c019061409e565b8c612a4a565b015190508c80612a09565b925060088c016000526020600020906000935b601f1984168510613304576001945083601f198116106132eb575b505050811b0160088a0155612a21565b015160001960f88460031b161c191690558c80806132db565b818101518355602094850194600190930192909101906132c0565b600861334d92016000526020600020601f850160051c810191602086106103f157601f0160051c019061409e565b8b8e6129f1565b60405162461bcd60e51b815260206004820152603c60248201527f4f6e6c792061646d696e206f72207468652075736572207468656d73656c766560448201527f732063616e2075706461746520636f6d70616e792064657461696c73000000006064820152608490fd5b50336001600160a01b038916146129a9565b503360005260016020526104386133f5600460406000200160405192838092613f78565b60208151910120613404614031565b60208151910120146129a2565b3461011a57600036600319011261011a57604051806003548083526020809301809160036000527fc2575a0e9e593c00f959f8c92f12db2869c3395a3b0502d05e2516446f71f85b9060005b868282106134bc57868661347382880383613e7a565b604051928392818401908285525180915260408401929160005b82811061349c57505050500390f35b83516001600160a01b03168552869550938101939281019260010161348d565b83546001600160a01b03168552909301926001928301920161345d565b3461011a57602036600319011261011a576001600160a01b036134fa613de5565b166000526001602052602061043861351f600460406000200160405192838092613f78565b81815191012061279d614031565b3461011a57608036600319011261011a57613546613de5565b6001600160401b0360243581811161011a57613566903690600401613e9b565b9160443582811161011a5761357f903690600401613e9b565b9060643583811161011a57613598903690600401613e9b565b60018060a01b03809216938460005260016020938185526135c0610274604060002054613f3e565b6000541633148015613a7c575b8015613a73575b15613a0857856000528084526104386135fa600260406000200160405192838092613f78565b86815186808401918220938951828b019581872003613925575b5050505090506000528084528060406000200187518381116103fb578061363b8354613f3e565b99601f9a8b81116138f7575b5087908b831160011461389457600092613889575b5050600019600383901b1c191690831b1790555b85600052808452600260406000200185518381116103fb576136928254613f3e565b89811161385b575b5080868a82116001146137f9576000916137ee575b50600019600383901b1c191690831b1790555b8560005280845260036040600020019280519283116103fb576136e58454613f3e565b8881116137b6575b50849783116001146137465782916000805160206141978339815191529798839260009461373b575b50501b916000199060031b1c1916179055610326604051928284938452830190613e1e565b015192508980613716565b601f9291921982169784600052856000209160005b8a81106137a1575083600080516020614197833981519152999a10613788575b505050811b019055612292565b015160001960f88460031b161c1916905587808061377b565b8183015184559285019291870191870161375b565b6137df9085600052866000208a80870160051c8201928988106137e5575b0160051c019061409e565b886136ed565b925081926137d4565b90508701518a6136af565b849250601f1982169084600052886000209160005b8a8c83831061384657505050831161382d575b5050811b0190556136c2565b89015160001960f88460031b161c191690558a80613821565b8401518555889690940193928301920161380e565b6138839083600052876000208b80850160051c8201928a86106137e5570160051c019061409e565b8961369a565b015190508a8061365c565b90859350601f1983169185600052896000209260005b8b8282106138e157505084116138c8575b505050811b019055613670565b015160001960f88460031b161c191690558a80806138bb565b83850151865589979095019493840193016138aa565b61391f9085600052896000208d80860160051c8201928c87106137e5570160051c019061409e565b8b613647565b6139ec936139b99261395860ff84878b819761394660405194858094613dfb565b81016004815203019020541615614052565b8c89613997858b6040518281885161397181838d613dfb565b810160048152030190209460ff1995868154169055604051938492839251928391613dfb565b8101600481520301902091825416179055604051938492839251928391613dfb565b81016002815203019020936bffffffffffffffffffffffff60a01b94858154169055604051809381928c51928391613dfb565b8101600281520301902091825416179055878681868180613614565b60405162461bcd60e51b815260048101859052603960248201527f4f6e6c792061646d696e206f72207468652075736572207468656d73656c766560448201527f732063616e2075706461746520757365722064657461696c73000000000000006064820152608490fd5b508533146135d4565b5033600052808452610438613a9e600460406000200160405192838092613f78565b848151910120613aac614031565b858151910120146135cd565b3461011a57602036600319011261011a576001600160a01b03613ad9613de5565b1660005260016020526040600020613af082613e43565b60405180613afe8184613f78565b03613b099082613e7a565b825260405180613b1c8160018501613f78565b03613b279082613e7a565b602083015260405180613b3d8160028501613f78565b03613b489082613e7a565b604083015260405180806003840190613b6091613f78565b03613b6b9082613e7a565b606083015260405180613b818160048501613f78565b03613b8c9082613e7a565b6080830152600581015460ff16151560a083015260405180613bb18160068501613f78565b03613bbc9082613e7a565b60c0830152600781015460e08301526040519182613bdd8160088501613f78565b03613be89084613e7a565b61010081810193845260405180613c028160098701613f78565b03613c0d9082613e7a565b61012091828401918252604051948580600a830190613c2b91613f78565b03613c369087613e7a565b6101409687968787019081526040518080600b860190613c5591613f78565b03613c609082613e7a565b6101608801908152600c84015461018089019081526040519182613c8781600d8901613f78565b03613c929084613e7a565b6101a08a019283526040519384613cac81600e8a01613f78565b03613cb79086613e7a565b6101c08b019485526040519586613cd181600f8b01613f78565b03613cdc9088613e7a565b6101e08c019687526040519788613cf68160108401613f78565b03613d01908a613e7a565b6102008d019889526040519c8d80601181940190613d1e91613f78565b03613d299083613e7a565b61022001525198519051915192519351945195519651986040519d8e9d8e528d01613d5391613e1e565b8c810360208e0152613d6491613e1e565b8b810360408d0152613d7591613e1e565b8a810360608c0152613d8691613e1e565b9060808a015288810360a08a0152613d9d91613e1e565b87810360c0890152613dae91613e1e565b86810360e0880152613dbf91613e1e565b9085820390860152613dd091613e1e565b9083820390840152613de191613e1e565b0390f35b600435906001600160a01b038216820361011a57565b60005b838110613e0e5750506000910152565b8181015183820152602001613dfe565b90602091613e3781518092818552858086019101613dfb565b601f01601f1916010190565b61024081019081106001600160401b038211176103fb57604052565b604081019081106001600160401b038211176103fb57604052565b90601f801991011681019081106001600160401b038211176103fb57604052565b81601f8201121561011a578035906001600160401b0382116103fb5760405192613ecf601f8401601f191660200185613e7a565b8284526020838301011161011a57816000926020809301838601378301015290565b600354811015613f285760036000527fc2575a0e9e593c00f959f8c92f12db2869c3395a3b0502d05e2516446f71f85b0190600090565b634e487b7160e01b600052603260045260246000fd5b90600182811c92168015613f6e575b6020831014613f5857565b634e487b7160e01b600052602260045260246000fd5b91607f1691613f4d565b9060009291805491613f8983613f3e565b918282526001938481169081600014613feb5750600114613fab575b50505050565b90919394506000526020928360002092846000945b838610613fd7575050505001019038808080613fa5565b805485870183015294019385908201613fc0565b9294505050602093945060ff191683830152151560051b01019038808080613fa5565b6040519061401b82613e5f565b600782526637b33334b1b2b960c91b6020830152565b6040519061403e82613e5f565b600582526430b236b4b760d91b6020830152565b1561405957565b60405162461bcd60e51b815260206004820152601760248201527f557365726e616d6520616c7265616479206578697374730000000000000000006044820152606490fd5b8181106140a9575050565b6000815560010161409e565b156140bc57565b60405162461bcd60e51b8152602060048201526013602482015272155cd95c88191bd95cc81b9bdd08195e1a5cdd606a1b6044820152606490fd5b156140fe57565b60405162461bcd60e51b815260206004820152602160248201527f4f6e6c792061646d696e2063616e2063616c6c20746869732066756e6374696f6044820152603760f91b6064820152608490fd5b6141578154613f3e565b9081614161575050565b81601f60009311600114614173575055565b908083918252614192601f60208420940160051c84016001850161409e565b555556fed6136f3cad7c60bfc24bbf1548f39f766ca8bce104bf9adde3deb6237dec51dfa26469706673582212209ffb02addda2e22bcc3c4180d33ac0d49c62bb3b2b9e0f3cdde7ffec78d4394064736f6c63430008130033","opcodes":"CALLVALUE PUSH3 0x17DA JUMPI PUSH1 0x0 DUP1 SLOAD PUSH1 0x1 PUSH1 0x1 PUSH1 0xA0 SHL SUB NOT AND CALLER OR SWAP1 SSTORE PUSH2 0x2C0 PUSH1 0x40 MSTORE PUSH3 0x27 PUSH3 0x17DF JUMP JUMPDEST PUSH1 0x7 DUP2 MSTORE PUSH7 0x61646D696E2D31 PUSH1 0xC8 SHL PUSH1 0x20 DUP3 ADD MSTORE PUSH1 0x80 MSTORE PUSH3 0x48 PUSH3 0x17DF JUMP JUMPDEST PUSH1 0xC DUP2 MSTORE PUSH12 0x29BCB9BA32B69020B236B4B7 PUSH1 0xA1 SHL PUSH1 0x20 DUP3 ADD MSTORE PUSH1 0xA0 MSTORE PUSH3 0x6E PUSH3 0x17DF JUMP JUMPDEST PUSH1 0x5 DUP2 MSTORE PUSH5 0x30B236B4B7 PUSH1 0xD9 SHL PUSH1 0x20 DUP3 ADD MSTORE PUSH1 0xC0 MSTORE PUSH3 0x8D PUSH3 0x17DF JUMP JUMPDEST PUSH1 0x14 DUP2 MSTORE PUSH32 0x61646D696E407472757374636861696E2E636F6D000000000000000000000000 PUSH1 0x20 DUP3 ADD MSTORE PUSH1 0xE0 MSTORE PUSH3 0xC4 PUSH3 0x17DF JUMP JUMPDEST PUSH1 0x5 DUP2 MSTORE PUSH5 0x30B236B4B7 PUSH1 0xD9 SHL PUSH1 0x20 DUP3 ADD MSTORE PUSH2 0x100 MSTORE PUSH1 0x1 PUSH2 0x120 MSTORE PUSH3 0xEA PUSH3 0x17FF JUMP JUMPDEST PUSH1 0x0 DUP2 MSTORE PUSH2 0x140 MSTORE TIMESTAMP PUSH2 0x160 MSTORE PUSH3 0x101 PUSH3 0x17DF JUMP JUMPDEST PUSH1 0xA DUP2 MSTORE PUSH10 0x2A393AB9BA21B430B4B7 PUSH1 0xB1 SHL PUSH1 0x20 DUP3 ADD MSTORE PUSH2 0x180 MSTORE PUSH3 0x126 PUSH3 0x17DF JUMP JUMPDEST PUSH1 0x5 DUP2 MSTORE PUSH5 0x5443303031 PUSH1 0xD8 SHL PUSH1 0x20 DUP3 ADD MSTORE PUSH2 0x1A0 MSTORE PUSH3 0x146 PUSH3 0x17FF JUMP JUMPDEST PUSH1 0x0 DUP2 MSTORE PUSH2 0x1C0 MSTORE PUSH3 0x158 PUSH3 0x17FF JUMP JUMPDEST PUSH1 0x0 DUP2 MSTORE PUSH2 0x1E0 MSTORE PUSH2 0x7E7 PUSH2 0x200 MSTORE PUSH3 0x171 PUSH3 0x17DF JUMP JUMPDEST PUSH1 0xD DUP2 MSTORE PUSH13 0x426C6F636B636861696E204851 PUSH1 0x98 SHL PUSH1 0x20 DUP3 ADD MSTORE PUSH2 0x220 MSTORE PUSH3 0x199 PUSH3 0x17DF JUMP JUMPDEST PUSH1 0xC DUP2 MSTORE PUSH12 0x111958D95B9D1C985B185B99 PUSH1 0xA2 SHL PUSH1 0x20 DUP3 ADD MSTORE PUSH2 0x240 MSTORE PUSH3 0x1C0 PUSH3 0x17DF JUMP JUMPDEST PUSH1 0xB DUP2 MSTORE PUSH11 0x43727970746F2043697479 PUSH1 0xA8 SHL PUSH1 0x20 DUP3 ADD MSTORE PUSH2 0x260 MSTORE PUSH3 0x1E6 PUSH3 0x17DF JUMP JUMPDEST PUSH1 0x6 DUP2 MSTORE PUSH6 0x30303030303 PUSH1 0xD4 SHL PUSH1 0x20 DUP3 ADD MSTORE PUSH2 0x280 MSTORE PUSH3 0x207 PUSH3 0x17FF JUMP JUMPDEST PUSH1 0x0 DUP1 DUP3 MSTORE PUSH2 0x2A0 SWAP2 SWAP1 SWAP2 MSTORE CALLER DUP2 MSTORE PUSH1 0x1 PUSH1 0x20 MSTORE PUSH1 0x40 SWAP1 KECCAK256 PUSH1 0x80 MLOAD DUP1 MLOAD SWAP1 PUSH1 0x1 PUSH1 0x1 PUSH1 0x40 SHL SUB DUP3 GT PUSH3 0xA4B JUMPI DUP3 SLOAD SWAP1 DUP2 PUSH1 0x1 SHR SWAP2 PUSH1 0x1 DUP2 AND ISZERO PUSH3 0x17CF JUMPI JUMPDEST PUSH1 0x1 AND PUSH1 0x20 DUP4 LT EQ PUSH3 0xB2E JUMPI DUP2 PUSH1 0x1F DUP5 SWAP4 GT PUSH3 0x177A JUMPI JUMPDEST POP PUSH1 0x20 SWAP1 PUSH1 0x1F DUP4 GT PUSH1 0x1 EQ PUSH3 0x1709 JUMPI PUSH1 0x0 SWAP3 PUSH3 0x16FD JUMPI JUMPDEST POP POP DUP2 PUSH1 0x1 SHL SWAP2 PUSH1 0x0 NOT SWAP1 PUSH1 0x3 SHL SHR NOT AND OR DUP2 SSTORE JUMPDEST PUSH1 0xA0 MLOAD DUP1 MLOAD SWAP1 PUSH1 0x1 PUSH1 0x1 PUSH1 0x40 SHL SUB DUP3 GT PUSH3 0xA4B JUMPI PUSH1 0x1 DUP4 ADD SLOAD SWAP1 PUSH1 0x1 DUP3 DUP2 SHR SWAP3 AND DUP1 ISZERO PUSH3 0x16F2 JUMPI JUMPDEST PUSH1 0x20 DUP4 LT EQ PUSH3 0xB2E JUMPI DUP2 PUSH1 0x1F DUP5 SWAP4 GT PUSH3 0x169A JUMPI JUMPDEST POP PUSH1 0x20 SWAP1 PUSH1 0x1F DUP4 GT PUSH1 0x1 EQ PUSH3 0x1623 JUMPI PUSH1 0x0 SWAP3 PUSH3 0x1617 JUMPI JUMPDEST POP POP DUP2 PUSH1 0x1 SHL SWAP2 PUSH1 0x0 NOT SWAP1 PUSH1 0x3 SHL SHR NOT AND OR PUSH1 0x1 DUP3 ADD SSTORE JUMPDEST PUSH1 0xC0 MLOAD DUP1 MLOAD SWAP1 PUSH1 0x1 PUSH1 0x1 PUSH1 0x40 SHL SUB DUP3 GT PUSH3 0xA4B JUMPI PUSH1 0x2 DUP4 ADD SLOAD SWAP1 PUSH1 0x1 DUP3 DUP2 SHR SWAP3 AND DUP1 ISZERO PUSH3 0x160C JUMPI JUMPDEST PUSH1 0x20 DUP4 LT EQ PUSH3 0xB2E JUMPI DUP2 PUSH1 0x1F DUP5 SWAP4 GT PUSH3 0x15B4 JUMPI JUMPDEST POP PUSH1 0x20 SWAP1 PUSH1 0x1F DUP4 GT PUSH1 0x1 EQ PUSH3 0x153D JUMPI PUSH1 0x0 SWAP3 PUSH3 0x1531 JUMPI JUMPDEST POP POP DUP2 PUSH1 0x1 SHL SWAP2 PUSH1 0x0 NOT SWAP1 PUSH1 0x3 SHL SHR NOT AND OR PUSH1 0x2 DUP3 ADD SSTORE JUMPDEST PUSH1 0xE0 MLOAD DUP1 MLOAD SWAP1 PUSH1 0x1 PUSH1 0x1 PUSH1 0x40 SHL SUB DUP3 GT PUSH3 0xA4B JUMPI PUSH1 0x3 DUP4 ADD SLOAD SWAP1 PUSH1 0x1 DUP3 DUP2 SHR SWAP3 AND DUP1 ISZERO PUSH3 0x1526 JUMPI JUMPDEST PUSH1 0x20 DUP4 LT EQ PUSH3 0xB2E JUMPI DUP2 PUSH1 0x1F DUP5 SWAP4 GT PUSH3 0x14CE JUMPI JUMPDEST POP PUSH1 0x20 SWAP1 PUSH1 0x1F DUP4 GT PUSH1 0x1 EQ PUSH3 0x1457 JUMPI PUSH1 0x0 SWAP3 PUSH3 0x144B JUMPI JUMPDEST POP POP DUP2 PUSH1 0x1 SHL SWAP2 PUSH1 0x0 NOT SWAP1 PUSH1 0x3 SHL SHR NOT AND OR PUSH1 0x3 DUP3 ADD SSTORE JUMPDEST PUSH2 0x100 MLOAD DUP1 MLOAD SWAP1 PUSH1 0x1 PUSH1 0x1 PUSH1 0x40 SHL SUB DUP3 GT PUSH3 0xA4B JUMPI PUSH1 0x4 DUP4 ADD SLOAD SWAP1 PUSH1 0x1 DUP3 DUP2 SHR SWAP3 AND DUP1 ISZERO PUSH3 0x1440 JUMPI JUMPDEST PUSH1 0x20 DUP4 LT EQ PUSH3 0xB2E JUMPI DUP2 PUSH1 0x1F DUP5 SWAP4 GT PUSH3 0x13E8 JUMPI JUMPDEST POP PUSH1 0x20 SWAP1 PUSH1 0x1F DUP4 GT PUSH1 0x1 EQ PUSH3 0x1371 JUMPI PUSH1 0x0 SWAP3 PUSH3 0x1365 JUMPI JUMPDEST POP POP DUP2 PUSH1 0x1 SHL SWAP2 PUSH1 0x0 NOT SWAP1 PUSH1 0x3 SHL SHR NOT AND OR PUSH1 0x4 DUP3 ADD SSTORE JUMPDEST PUSH2 0x120 MLOAD PUSH1 0x5 DUP3 ADD DUP1 SLOAD PUSH1 0xFF NOT AND SWAP2 ISZERO ISZERO PUSH1 0xFF AND SWAP2 SWAP1 SWAP2 OR SWAP1 SSTORE PUSH2 0x140 MLOAD DUP1 MLOAD SWAP1 PUSH1 0x1 PUSH1 0x1 PUSH1 0x40 SHL SUB DUP3 GT PUSH3 0xA4B JUMPI PUSH1 0x6 DUP4 ADD SLOAD SWAP1 PUSH1 0x1 DUP3 DUP2 SHR SWAP3 AND DUP1 ISZERO PUSH3 0x135A JUMPI JUMPDEST PUSH1 0x20 DUP4 LT EQ PUSH3 0xB2E JUMPI DUP2 PUSH1 0x1F DUP5 SWAP4 GT PUSH3 0x1302 JUMPI JUMPDEST POP PUSH1 0x20 SWAP1 PUSH1 0x1F DUP4 GT PUSH1 0x1 EQ PUSH3 0x128B JUMPI PUSH1 0x0 SWAP3 PUSH3 0x127F JUMPI JUMPDEST POP POP DUP2 PUSH1 0x1 SHL SWAP2 PUSH1 0x0 NOT SWAP1 PUSH1 0x3 SHL SHR NOT AND OR PUSH1 0x6 DUP3 ADD SSTORE JUMPDEST PUSH2 0x160 MLOAD PUSH1 0x7 DUP3 ADD SSTORE PUSH2 0x180 MLOAD DUP1 MLOAD SWAP1 PUSH1 0x1 PUSH1 0x1 PUSH1 0x40 SHL SUB DUP3 GT PUSH3 0xA4B JUMPI PUSH1 0x8 DUP4 ADD SLOAD SWAP1 PUSH1 0x1 DUP3 DUP2 SHR SWAP3 AND DUP1 ISZERO PUSH3 0x1274 JUMPI JUMPDEST PUSH1 0x20 DUP4 LT EQ PUSH3 0xB2E JUMPI DUP2 PUSH1 0x1F DUP5 SWAP4 GT PUSH3 0x121C JUMPI JUMPDEST POP PUSH1 0x20 SWAP1 PUSH1 0x1F DUP4 GT PUSH1 0x1 EQ PUSH3 0x11A5 JUMPI PUSH1 0x0 SWAP3 PUSH3 0x1199 JUMPI JUMPDEST POP POP DUP2 PUSH1 0x1 SHL SWAP2 PUSH1 0x0 NOT SWAP1 PUSH1 0x3 SHL SHR NOT AND OR PUSH1 0x8 DUP3 ADD SSTORE JUMPDEST PUSH2 0x1A0 MLOAD DUP1 MLOAD SWAP1 PUSH1 0x1 PUSH1 0x1 PUSH1 0x40 SHL SUB DUP3 GT PUSH3 0xA4B JUMPI PUSH1 0x9 DUP4 ADD SLOAD SWAP1 PUSH1 0x1 DUP3 DUP2 SHR SWAP3 AND DUP1 ISZERO PUSH3 0x118E JUMPI JUMPDEST PUSH1 0x20 DUP4 LT EQ PUSH3 0xB2E JUMPI DUP2 PUSH1 0x1F DUP5 SWAP4 GT PUSH3 0x1136 JUMPI JUMPDEST POP PUSH1 0x20 SWAP1 PUSH1 0x1F DUP4 GT PUSH1 0x1 EQ PUSH3 0x10BF JUMPI PUSH1 0x0 SWAP3 PUSH3 0x10B3 JUMPI JUMPDEST POP POP DUP2 PUSH1 0x1 SHL SWAP2 PUSH1 0x0 NOT SWAP1 PUSH1 0x3 SHL SHR NOT AND OR PUSH1 0x9 DUP3 ADD SSTORE JUMPDEST PUSH2 0x1C0 MLOAD DUP1 MLOAD SWAP1 PUSH1 0x1 PUSH1 0x1 PUSH1 0x40 SHL SUB DUP3 GT PUSH3 0xA4B JUMPI PUSH1 0xA DUP4 ADD SLOAD SWAP1 PUSH1 0x1 DUP3 DUP2 SHR SWAP3 AND DUP1 ISZERO PUSH3 0x10A8 JUMPI JUMPDEST PUSH1 0x20 DUP4 LT EQ PUSH3 0xB2E JUMPI DUP2 PUSH1 0x1F DUP5 SWAP4 GT PUSH3 0x1050 JUMPI JUMPDEST POP PUSH1 0x20 SWAP1 PUSH1 0x1F DUP4 GT PUSH1 0x1 EQ PUSH3 0xFD9 JUMPI PUSH1 0x0 SWAP3 PUSH3 0xFCD JUMPI JUMPDEST POP POP DUP2 PUSH1 0x1 SHL SWAP2 PUSH1 0x0 NOT SWAP1 PUSH1 0x3 SHL SHR NOT AND OR PUSH1 0xA DUP3 ADD SSTORE JUMPDEST PUSH2 0x1E0 MLOAD DUP1 MLOAD SWAP1 PUSH1 0x1 PUSH1 0x1 PUSH1 0x40 SHL SUB DUP3 GT PUSH3 0xA4B JUMPI PUSH1 0xB DUP4 ADD SLOAD SWAP1 PUSH1 0x1 DUP3 DUP2 SHR SWAP3 AND DUP1 ISZERO PUSH3 0xFC2 JUMPI JUMPDEST PUSH1 0x20 DUP4 LT EQ PUSH3 0xB2E JUMPI DUP2 PUSH1 0x1F DUP5 SWAP4 GT PUSH3 0xF6A JUMPI JUMPDEST POP PUSH1 0x20 SWAP1 PUSH1 0x1F DUP4 GT PUSH1 0x1 EQ PUSH3 0xEF3 JUMPI PUSH1 0x0 SWAP3 PUSH3 0xEE7 JUMPI JUMPDEST POP POP DUP2 PUSH1 0x1 SHL SWAP2 PUSH1 0x0 NOT SWAP1 PUSH1 0x3 SHL SHR NOT AND OR PUSH1 0xB DUP3 ADD SSTORE JUMPDEST PUSH2 0x200 MLOAD PUSH1 0xC DUP3 ADD SSTORE PUSH2 0x220 MLOAD DUP1 MLOAD SWAP1 PUSH1 0x1 PUSH1 0x1 PUSH1 0x40 SHL SUB DUP3 GT PUSH3 0xA4B JUMPI PUSH1 0xD DUP4 ADD SLOAD SWAP1 PUSH1 0x1 DUP3 DUP2 SHR SWAP3 AND DUP1 ISZERO PUSH3 0xEDC JUMPI JUMPDEST PUSH1 0x20 DUP4 LT EQ PUSH3 0xB2E JUMPI DUP2 PUSH1 0x1F DUP5 SWAP4 GT PUSH3 0xE84 JUMPI JUMPDEST POP PUSH1 0x20 SWAP1 PUSH1 0x1F DUP4 GT PUSH1 0x1 EQ PUSH3 0xE0D JUMPI PUSH1 0x0 SWAP3 PUSH3 0xE01 JUMPI JUMPDEST POP POP DUP2 PUSH1 0x1 SHL SWAP2 PUSH1 0x0 NOT SWAP1 PUSH1 0x3 SHL SHR NOT AND OR PUSH1 0xD DUP3 ADD SSTORE JUMPDEST PUSH2 0x240 MLOAD DUP1 MLOAD SWAP1 PUSH1 0x1 PUSH1 0x1 PUSH1 0x40 SHL SUB DUP3 GT PUSH3 0xA4B JUMPI PUSH1 0xE DUP4 ADD SLOAD SWAP1 PUSH1 0x1 DUP3 DUP2 SHR SWAP3 AND DUP1 ISZERO PUSH3 0xDF6 JUMPI JUMPDEST PUSH1 0x20 DUP4 LT EQ PUSH3 0xB2E JUMPI DUP2 PUSH1 0x1F DUP5 SWAP4 GT PUSH3 0xD9E JUMPI JUMPDEST POP PUSH1 0x20 SWAP1 PUSH1 0x1F DUP4 GT PUSH1 0x1 EQ PUSH3 0xD27 JUMPI PUSH1 0x0 SWAP3 PUSH3 0xD1B JUMPI JUMPDEST POP POP DUP2 PUSH1 0x1 SHL SWAP2 PUSH1 0x0 NOT SWAP1 PUSH1 0x3 SHL SHR NOT AND OR PUSH1 0xE DUP3 ADD SSTORE JUMPDEST PUSH2 0x260 MLOAD DUP1 MLOAD SWAP1 PUSH1 0x1 PUSH1 0x1 PUSH1 0x40 SHL SUB DUP3 GT PUSH3 0xA4B JUMPI PUSH1 0xF DUP4 ADD SLOAD SWAP1 PUSH1 0x1 DUP3 DUP2 SHR SWAP3 AND DUP1 ISZERO PUSH3 0xD10 JUMPI JUMPDEST PUSH1 0x20 DUP4 LT EQ PUSH3 0xB2E JUMPI DUP2 PUSH1 0x1F DUP5 SWAP4 GT PUSH3 0xCB8 JUMPI JUMPDEST POP PUSH1 0x20 SWAP1 PUSH1 0x1F DUP4 GT PUSH1 0x1 EQ PUSH3 0xC41 JUMPI PUSH1 0x0 SWAP3 PUSH3 0xC35 JUMPI JUMPDEST POP POP DUP2 PUSH1 0x1 SHL SWAP2 PUSH1 0x0 NOT SWAP1 PUSH1 0x3 SHL SHR NOT AND OR PUSH1 0xF DUP3 ADD SSTORE JUMPDEST PUSH2 0x280 MLOAD DUP1 MLOAD SWAP1 PUSH1 0x1 PUSH1 0x1 PUSH1 0x40 SHL SUB DUP3 GT PUSH3 0xA4B JUMPI PUSH1 0x10 DUP4 ADD SLOAD SWAP1 PUSH1 0x1 DUP3 DUP2 SHR SWAP3 AND DUP1 ISZERO PUSH3 0xC2A JUMPI JUMPDEST PUSH1 0x20 DUP4 LT EQ PUSH3 0xB2E JUMPI DUP2 PUSH1 0x1F DUP5 SWAP4 GT PUSH3 0xBD2 JUMPI JUMPDEST POP PUSH1 0x20 SWAP1 PUSH1 0x1F DUP4 GT PUSH1 0x1 EQ PUSH3 0xB5B JUMPI PUSH1 0x0 SWAP3 PUSH3 0xB4F JUMPI JUMPDEST POP POP DUP2 PUSH1 0x1 SHL SWAP2 PUSH1 0x0 NOT SWAP1 PUSH1 0x3 SHL SHR NOT AND OR PUSH1 0x10 DUP3 ADD SSTORE JUMPDEST PUSH2 0x2A0 MLOAD DUP1 MLOAD SWAP1 PUSH1 0x1 PUSH1 0x1 PUSH1 0x40 SHL SUB DUP3 GT PUSH3 0xA4B JUMPI PUSH1 0x11 DUP4 ADD SLOAD PUSH1 0x1 DUP2 DUP2 SHR SWAP2 AND DUP1 ISZERO PUSH3 0xB44 JUMPI JUMPDEST PUSH1 0x20 DUP3 LT EQ PUSH3 0xB2E JUMPI PUSH1 0x1F DUP2 GT PUSH3 0xAE2 JUMPI JUMPDEST POP PUSH1 0x20 SWAP1 PUSH1 0x1F DUP4 GT PUSH1 0x1 EQ PUSH3 0xA6D JUMPI PUSH1 0x11 SWAP3 SWAP2 PUSH1 0x0 SWAP2 DUP4 PUSH3 0xA61 JUMPI JUMPDEST POP POP DUP2 PUSH1 0x1 SHL SWAP2 PUSH1 0x0 NOT SWAP1 PUSH1 0x3 SHL SHR NOT AND OR SWAP2 ADD SSTORE JUMPDEST PUSH1 0x25 PUSH1 0x40 MLOAD PUSH5 0x30B236B4B7 PUSH1 0xD9 SHL DUP2 MSTORE PUSH1 0x2 PUSH1 0x5 DUP3 ADD MSTORE KECCAK256 CALLER PUSH1 0x1 DUP1 PUSH1 0xA0 SHL SUB NOT DUP3 SLOAD AND OR SWAP1 SSTORE PUSH1 0x25 PUSH1 0x40 MLOAD PUSH5 0x30B236B4B7 PUSH1 0xD9 SHL DUP2 MSTORE PUSH1 0x4 PUSH1 0x5 DUP3 ADD MSTORE KECCAK256 PUSH1 0x1 PUSH1 0xFF NOT DUP3 SLOAD AND OR SWAP1 SSTORE PUSH1 0x3 SLOAD PUSH9 0x10000000000000000 DUP2 LT ISZERO PUSH3 0xA4B JUMPI PUSH1 0x1 DUP2 ADD DUP1 PUSH1 0x3 SSTORE DUP2 LT ISZERO PUSH3 0xA35 JUMPI PUSH1 0x3 PUSH1 0x0 MSTORE PUSH32 0xC2575A0E9E593C00F959F8C92F12DB2869C3395A3B0502D05E2516446F71F85B ADD DUP1 SLOAD PUSH1 0x1 PUSH1 0x1 PUSH1 0xA0 SHL SUB NOT AND CALLER OR SWAP1 SSTORE PUSH1 0x40 MLOAD PUSH1 0x60 DUP1 DUP3 MSTORE PUSH1 0x7 SWAP1 DUP3 ADD MSTORE PUSH7 0x61646D696E2D31 PUSH1 0xC8 SHL PUSH1 0x80 DUP3 ADD MSTORE PUSH1 0xA0 PUSH1 0x20 DUP3 ADD DUP2 SWAP1 MSTORE PUSH1 0x5 SWAP1 DUP3 ADD MSTORE PUSH5 0x30B236B4B7 PUSH1 0xD9 SHL PUSH1 0xC0 DUP3 ADD MSTORE PUSH32 0x509C70F523067009F7DB7F46DB6956D7AF8B679323680DC3821A8BAD001AC1E1 PUSH1 0xE0 DUP3 ADD SWAP2 DUP1 DUP4 SUB PUSH1 0x40 DUP3 ADD MSTORE DUP1 PUSH3 0xA22 CALLER SWAP5 PUSH1 0x40 SWAP1 PUSH1 0x5 DUP2 MSTORE PUSH5 0x30B236B4B7 PUSH1 0xD9 SHL PUSH1 0x20 DUP3 ADD MSTORE ADD SWAP1 JUMP JUMPDEST SUB SWAP1 LOG2 PUSH1 0x40 MLOAD PUSH2 0x41EC SWAP1 DUP2 PUSH3 0x1820 DUP3 CODECOPY RETURN JUMPDEST PUSH4 0x4E487B71 PUSH1 0xE0 SHL PUSH1 0x0 MSTORE PUSH1 0x32 PUSH1 0x4 MSTORE PUSH1 0x24 PUSH1 0x0 REVERT JUMPDEST PUSH4 0x4E487B71 PUSH1 0xE0 SHL PUSH1 0x0 MSTORE PUSH1 0x41 PUSH1 0x4 MSTORE PUSH1 0x24 PUSH1 0x0 REVERT JUMPDEST ADD MLOAD SWAP1 POP CODESIZE DUP1 PUSH3 0x8DD JUMP JUMPDEST SWAP1 PUSH1 0x11 DUP5 ADD PUSH1 0x0 MSTORE PUSH1 0x20 PUSH1 0x0 KECCAK256 SWAP2 PUSH1 0x0 JUMPDEST PUSH1 0x1F NOT DUP6 AND DUP2 LT PUSH3 0xAC9 JUMPI POP SWAP2 DUP4 SWAP2 PUSH1 0x1 SWAP4 PUSH1 0x11 SWAP6 PUSH1 0x1F NOT DUP2 AND LT PUSH3 0xAAF JUMPI JUMPDEST POP POP POP DUP2 SHL ADD SWAP2 ADD SSTORE PUSH3 0x8F3 JUMP JUMPDEST ADD MLOAD PUSH1 0x0 NOT PUSH1 0xF8 DUP5 PUSH1 0x3 SHL AND SHR NOT AND SWAP1 SSTORE CODESIZE DUP1 DUP1 PUSH3 0xAA0 JUMP JUMPDEST SWAP2 SWAP3 PUSH1 0x20 PUSH1 0x1 DUP2 SWAP3 DUP7 DUP6 ADD MLOAD DUP2 SSTORE ADD SWAP5 ADD SWAP3 ADD PUSH3 0xA7E JUMP JUMPDEST PUSH1 0x11 DUP5 ADD PUSH1 0x0 MSTORE PUSH1 0x20 PUSH1 0x0 KECCAK256 PUSH1 0x1F DUP5 ADD PUSH1 0x5 SHR DUP2 ADD PUSH1 0x20 DUP6 LT PUSH3 0xB26 JUMPI JUMPDEST PUSH1 0x1F DUP4 ADD PUSH1 0x5 SHR DUP3 ADD DUP2 LT PUSH3 0xB19 JUMPI POP POP PUSH3 0x8BF JUMP JUMPDEST PUSH1 0x0 DUP2 SSTORE PUSH1 0x1 ADD PUSH3 0xB01 JUMP JUMPDEST POP DUP1 PUSH3 0xB01 JUMP JUMPDEST PUSH4 0x4E487B71 PUSH1 0xE0 SHL PUSH1 0x0 MSTORE PUSH1 0x22 PUSH1 0x4 MSTORE PUSH1 0x24 PUSH1 0x0 REVERT JUMPDEST SWAP1 PUSH1 0x7F AND SWAP1 PUSH3 0x8AB JUMP JUMPDEST ADD MLOAD SWAP1 POP CODESIZE DUP1 PUSH3 0x869 JUMP JUMPDEST SWAP3 POP PUSH1 0x10 DUP5 ADD PUSH1 0x0 MSTORE PUSH1 0x20 PUSH1 0x0 KECCAK256 SWAP1 PUSH1 0x0 SWAP4 JUMPDEST PUSH1 0x1F NOT DUP5 AND DUP6 LT PUSH3 0xBB6 JUMPI PUSH1 0x1 SWAP5 POP DUP4 PUSH1 0x1F NOT DUP2 AND LT PUSH3 0xB9C JUMPI JUMPDEST POP POP POP DUP2 SHL ADD PUSH1 0x10 DUP3 ADD SSTORE PUSH3 0x881 JUMP JUMPDEST ADD MLOAD PUSH1 0x0 NOT PUSH1 0xF8 DUP5 PUSH1 0x3 SHL AND SHR NOT AND SWAP1 SSTORE CODESIZE DUP1 DUP1 PUSH3 0xB8B JUMP JUMPDEST DUP2 DUP2 ADD MLOAD DUP4 SSTORE PUSH1 0x20 SWAP5 DUP6 ADD SWAP5 PUSH1 0x1 SWAP1 SWAP4 ADD SWAP3 SWAP1 SWAP2 ADD SWAP1 PUSH3 0xB6E JUMP JUMPDEST SWAP1 SWAP2 POP PUSH1 0x10 DUP5 ADD PUSH1 0x0 MSTORE PUSH1 0x20 PUSH1 0x0 KECCAK256 PUSH1 0x1F DUP5 ADD PUSH1 0x5 SHR DUP2 ADD PUSH1 0x20 DUP6 LT PUSH3 0xC22 JUMPI JUMPDEST SWAP1 DUP5 SWAP4 SWAP3 SWAP2 JUMPDEST PUSH1 0x1F DUP4 ADD PUSH1 0x5 SHR DUP3 ADD DUP2 LT PUSH3 0xC12 JUMPI POP POP PUSH3 0x850 JUMP JUMPDEST PUSH1 0x0 DUP2 SSTORE DUP6 SWAP5 POP PUSH1 0x1 ADD PUSH3 0xBFA JUMP JUMPDEST POP DUP1 PUSH3 0xBF4 JUMP JUMPDEST SWAP2 PUSH1 0x7F AND SWAP2 PUSH3 0x83A JUMP JUMPDEST ADD MLOAD SWAP1 POP CODESIZE DUP1 PUSH3 0x7F7 JUMP JUMPDEST SWAP3 POP PUSH1 0xF DUP5 ADD PUSH1 0x0 MSTORE PUSH1 0x20 PUSH1 0x0 KECCAK256 SWAP1 PUSH1 0x0 SWAP4 JUMPDEST PUSH1 0x1F NOT DUP5 AND DUP6 LT PUSH3 0xC9C JUMPI PUSH1 0x1 SWAP5 POP DUP4 PUSH1 0x1F NOT DUP2 AND LT PUSH3 0xC82 JUMPI JUMPDEST POP POP POP DUP2 SHL ADD PUSH1 0xF DUP3 ADD SSTORE PUSH3 0x80F JUMP JUMPDEST ADD MLOAD PUSH1 0x0 NOT PUSH1 0xF8 DUP5 PUSH1 0x3 SHL AND SHR NOT AND SWAP1 SSTORE CODESIZE DUP1 DUP1 PUSH3 0xC71 JUMP JUMPDEST DUP2 DUP2 ADD MLOAD DUP4 SSTORE PUSH1 0x20 SWAP5 DUP6 ADD SWAP5 PUSH1 0x1 SWAP1 SWAP4 ADD SWAP3 SWAP1 SWAP2 ADD SWAP1 PUSH3 0xC54 JUMP JUMPDEST SWAP1 SWAP2 POP PUSH1 0xF DUP5 ADD PUSH1 0x0 MSTORE PUSH1 0x20 PUSH1 0x0 KECCAK256 PUSH1 0x1F DUP5 ADD PUSH1 0x5 SHR DUP2 ADD PUSH1 0x20 DUP6 LT PUSH3 0xD08 JUMPI JUMPDEST SWAP1 DUP5 SWAP4 SWAP3 SWAP2 JUMPDEST PUSH1 0x1F DUP4 ADD PUSH1 0x5 SHR DUP3 ADD DUP2 LT PUSH3 0xCF8 JUMPI POP POP PUSH3 0x7DE JUMP JUMPDEST PUSH1 0x0 DUP2 SSTORE DUP6 SWAP5 POP PUSH1 0x1 ADD PUSH3 0xCE0 JUMP JUMPDEST POP DUP1 PUSH3 0xCDA JUMP JUMPDEST SWAP2 PUSH1 0x7F AND SWAP2 PUSH3 0x7C8 JUMP JUMPDEST ADD MLOAD SWAP1 POP CODESIZE DUP1 PUSH3 0x785 JUMP JUMPDEST SWAP3 POP PUSH1 0xE DUP5 ADD PUSH1 0x0 MSTORE PUSH1 0x20 PUSH1 0x0 KECCAK256 SWAP1 PUSH1 0x0 SWAP4 JUMPDEST PUSH1 0x1F NOT DUP5 AND DUP6 LT PUSH3 0xD82 JUMPI PUSH1 0x1 SWAP5 POP DUP4 PUSH1 0x1F NOT DUP2 AND LT PUSH3 0xD68 JUMPI JUMPDEST POP POP POP DUP2 SHL ADD PUSH1 0xE DUP3 ADD SSTORE PUSH3 0x79D JUMP JUMPDEST ADD MLOAD PUSH1 0x0 NOT PUSH1 0xF8 DUP5 PUSH1 0x3 SHL AND SHR NOT AND SWAP1 SSTORE CODESIZE DUP1 DUP1 PUSH3 0xD57 JUMP JUMPDEST DUP2 DUP2 ADD MLOAD DUP4 SSTORE PUSH1 0x20 SWAP5 DUP6 ADD SWAP5 PUSH1 0x1 SWAP1 SWAP4 ADD SWAP3 SWAP1 SWAP2 ADD SWAP1 PUSH3 0xD3A JUMP JUMPDEST SWAP1 SWAP2 POP PUSH1 0xE DUP5 ADD PUSH1 0x0 MSTORE PUSH1 0x20 PUSH1 0x0 KECCAK256 PUSH1 0x1F DUP5 ADD PUSH1 0x5 SHR DUP2 ADD PUSH1 0x20 DUP6 LT PUSH3 0xDEE JUMPI JUMPDEST SWAP1 DUP5 SWAP4 SWAP3 SWAP2 JUMPDEST PUSH1 0x1F DUP4 ADD PUSH1 0x5 SHR DUP3 ADD DUP2 LT PUSH3 0xDDE JUMPI POP POP PUSH3 0x76C JUMP JUMPDEST PUSH1 0x0 DUP2 SSTORE DUP6 SWAP5 POP PUSH1 0x1 ADD PUSH3 0xDC6 JUMP JUMPDEST POP DUP1 PUSH3 0xDC0 JUMP JUMPDEST SWAP2 PUSH1 0x7F AND SWAP2 PUSH3 0x756 JUMP JUMPDEST ADD MLOAD SWAP1 POP CODESIZE DUP1 PUSH3 0x713 JUMP JUMPDEST SWAP3 POP PUSH1 0xD DUP5 ADD PUSH1 0x0 MSTORE PUSH1 0x20 PUSH1 0x0 KECCAK256 SWAP1 PUSH1 0x0 SWAP4 JUMPDEST PUSH1 0x1F NOT DUP5 AND DUP6 LT PUSH3 0xE68 JUMPI PUSH1 0x1 SWAP5 POP DUP4 PUSH1 0x1F NOT DUP2 AND LT PUSH3 0xE4E JUMPI JUMPDEST POP POP POP DUP2 SHL ADD PUSH1 0xD DUP3 ADD SSTORE PUSH3 0x72B JUMP JUMPDEST ADD MLOAD PUSH1 0x0 NOT PUSH1 0xF8 DUP5 PUSH1 0x3 SHL AND SHR NOT AND SWAP1 SSTORE CODESIZE DUP1 DUP1 PUSH3 0xE3D JUMP JUMPDEST DUP2 DUP2 ADD MLOAD DUP4 SSTORE PUSH1 0x20 SWAP5 DUP6 ADD SWAP5 PUSH1 0x1 SWAP1 SWAP4 ADD SWAP3 SWAP1 SWAP2 ADD SWAP1 PUSH3 0xE20 JUMP JUMPDEST SWAP1 SWAP2 POP PUSH1 0xD DUP5 ADD PUSH1 0x0 MSTORE PUSH1 0x20 PUSH1 0x0 KECCAK256 PUSH1 0x1F DUP5 ADD PUSH1 0x5 SHR DUP2 ADD PUSH1 0x20 DUP6 LT PUSH3 0xED4 JUMPI JUMPDEST SWAP1 DUP5 SWAP4 SWAP3 SWAP2 JUMPDEST PUSH1 0x1F DUP4 ADD PUSH1 0x5 SHR DUP3 ADD DUP2 LT PUSH3 0xEC4 JUMPI POP POP PUSH3 0x6FA JUMP JUMPDEST PUSH1 0x0 DUP2 SSTORE DUP6 SWAP5 POP PUSH1 0x1 ADD PUSH3 0xEAC JUMP JUMPDEST POP DUP1 PUSH3 0xEA6 JUMP JUMPDEST SWAP2 PUSH1 0x7F AND SWAP2 PUSH3 0x6E4 JUMP JUMPDEST ADD MLOAD SWAP1 POP CODESIZE DUP1 PUSH3 0x698 JUMP JUMPDEST SWAP3 POP PUSH1 0xB DUP5 ADD PUSH1 0x0 MSTORE PUSH1 0x20 PUSH1 0x0 KECCAK256 SWAP1 PUSH1 0x0 SWAP4 JUMPDEST PUSH1 0x1F NOT DUP5 AND DUP6 LT PUSH3 0xF4E JUMPI PUSH1 0x1 SWAP5 POP DUP4 PUSH1 0x1F NOT DUP2 AND LT PUSH3 0xF34 JUMPI JUMPDEST POP POP POP DUP2 SHL ADD PUSH1 0xB DUP3 ADD SSTORE PUSH3 0x6B0 JUMP JUMPDEST ADD MLOAD PUSH1 0x0 NOT PUSH1 0xF8 DUP5 PUSH1 0x3 SHL AND SHR NOT AND SWAP1 SSTORE CODESIZE DUP1 DUP1 PUSH3 0xF23 JUMP JUMPDEST DUP2 DUP2 ADD MLOAD DUP4 SSTORE PUSH1 0x20 SWAP5 DUP6 ADD SWAP5 PUSH1 0x1 SWAP1 SWAP4 ADD SWAP3 SWAP1 SWAP2 ADD SWAP1 PUSH3 0xF06 JUMP JUMPDEST SWAP1 SWAP2 POP PUSH1 0xB DUP5 ADD PUSH1 0x0 MSTORE PUSH1 0x20 PUSH1 0x0 KECCAK256 PUSH1 0x1F DUP5 ADD PUSH1 0x5 SHR DUP2 ADD PUSH1 0x20 DUP6 LT PUSH3 0xFBA JUMPI JUMPDEST SWAP1 DUP5 SWAP4 SWAP3 SWAP2 JUMPDEST PUSH1 0x1F DUP4 ADD PUSH1 0x5 SHR DUP3 ADD DUP2 LT PUSH3 0xFAA JUMPI POP POP PUSH3 0x67F JUMP JUMPDEST PUSH1 0x0 DUP2 SSTORE DUP6 SWAP5 POP PUSH1 0x1 ADD PUSH3 0xF92 JUMP JUMPDEST POP DUP1 PUSH3 0xF8C JUMP JUMPDEST SWAP2 PUSH1 0x7F AND SWAP2 PUSH3 0x669 JUMP JUMPDEST ADD MLOAD SWAP1 POP CODESIZE DUP1 PUSH3 0x626 JUMP JUMPDEST SWAP3 POP PUSH1 0xA DUP5 ADD PUSH1 0x0 MSTORE PUSH1 0x20 PUSH1 0x0 KECCAK256 SWAP1 PUSH1 0x0 SWAP4 JUMPDEST PUSH1 0x1F NOT DUP5 AND DUP6 LT PUSH3 0x1034 JUMPI PUSH1 0x1 SWAP5 POP DUP4 PUSH1 0x1F NOT DUP2 AND LT PUSH3 0x101A JUMPI JUMPDEST POP POP POP DUP2 SHL ADD PUSH1 0xA DUP3 ADD SSTORE PUSH3 0x63E JUMP JUMPDEST ADD MLOAD PUSH1 0x0 NOT PUSH1 0xF8 DUP5 PUSH1 0x3 SHL AND SHR NOT AND SWAP1 SSTORE CODESIZE DUP1 DUP1 PUSH3 0x1009 JUMP JUMPDEST DUP2 DUP2 ADD MLOAD DUP4 SSTORE PUSH1 0x20 SWAP5 DUP6 ADD SWAP5 PUSH1 0x1 SWAP1 SWAP4 ADD SWAP3 SWAP1 SWAP2 ADD SWAP1 PUSH3 0xFEC JUMP JUMPDEST SWAP1 SWAP2 POP PUSH1 0xA DUP5 ADD PUSH1 0x0 MSTORE PUSH1 0x20 PUSH1 0x0 KECCAK256 PUSH1 0x1F DUP5 ADD PUSH1 0x5 SHR DUP2 ADD PUSH1 0x20 DUP6 LT PUSH3 0x10A0 JUMPI JUMPDEST SWAP1 DUP5 SWAP4 SWAP3 SWAP2 JUMPDEST PUSH1 0x1F DUP4 ADD PUSH1 0x5 SHR DUP3 ADD DUP2 LT PUSH3 0x1090 JUMPI POP POP PUSH3 0x60D JUMP JUMPDEST PUSH1 0x0 DUP2 SSTORE DUP6 SWAP5 POP PUSH1 0x1 ADD PUSH3 0x1078 JUMP JUMPDEST POP DUP1 PUSH3 0x1072 JUMP JUMPDEST SWAP2 PUSH1 0x7F AND SWAP2 PUSH3 0x5F7 JUMP JUMPDEST ADD MLOAD SWAP1 POP CODESIZE DUP1 PUSH3 0x5B4 JUMP JUMPDEST SWAP3 POP PUSH1 0x9 DUP5 ADD PUSH1 0x0 MSTORE PUSH1 0x20 PUSH1 0x0 KECCAK256 SWAP1 PUSH1 0x0 SWAP4 JUMPDEST PUSH1 0x1F NOT DUP5 AND DUP6 LT PUSH3 0x111A JUMPI PUSH1 0x1 SWAP5 POP DUP4 PUSH1 0x1F NOT DUP2 AND LT PUSH3 0x1100 JUMPI JUMPDEST POP POP POP DUP2 SHL ADD PUSH1 0x9 DUP3 ADD SSTORE PUSH3 0x5CC JUMP JUMPDEST ADD MLOAD PUSH1 0x0 NOT PUSH1 0xF8 DUP5 PUSH1 0x3 SHL AND SHR NOT AND SWAP1 SSTORE CODESIZE DUP1 DUP1 PUSH3 0x10EF JUMP JUMPDEST DUP2 DUP2 ADD MLOAD DUP4 SSTORE PUSH1 0x20 SWAP5 DUP6 ADD SWAP5 PUSH1 0x1 SWAP1 SWAP4 ADD SWAP3 SWAP1 SWAP2 ADD SWAP1 PUSH3 0x10D2 JUMP JUMPDEST SWAP1 SWAP2 POP PUSH1 0x9 DUP5 ADD PUSH1 0x0 MSTORE PUSH1 0x20 PUSH1 0x0 KECCAK256 PUSH1 0x1F DUP5 ADD PUSH1 0x5 SHR DUP2 ADD PUSH1 0x20 DUP6 LT PUSH3 0x1186 JUMPI JUMPDEST SWAP1 DUP5 SWAP4 SWAP3 SWAP2 JUMPDEST PUSH1 0x1F DUP4 ADD PUSH1 0x5 SHR DUP3 ADD DUP2 LT PUSH3 0x1176 JUMPI POP POP PUSH3 0x59B JUMP JUMPDEST PUSH1 0x0 DUP2 SSTORE DUP6 SWAP5 POP PUSH1 0x1 ADD PUSH3 0x115E JUMP JUMPDEST POP DUP1 PUSH3 0x1158 JUMP JUMPDEST SWAP2 PUSH1 0x7F AND SWAP2 PUSH3 0x585 JUMP JUMPDEST ADD MLOAD SWAP1 POP CODESIZE DUP1 PUSH3 0x542 JUMP JUMPDEST SWAP3 POP PUSH1 0x8 DUP5 ADD PUSH1 0x0 MSTORE PUSH1 0x20 PUSH1 0x0 KECCAK256 SWAP1 PUSH1 0x0 SWAP4 JUMPDEST PUSH1 0x1F NOT DUP5 AND DUP6 LT PUSH3 0x1200 JUMPI PUSH1 0x1 SWAP5 POP DUP4 PUSH1 0x1F NOT DUP2 AND LT PUSH3 0x11E6 JUMPI JUMPDEST POP POP POP DUP2 SHL ADD PUSH1 0x8 DUP3 ADD SSTORE PUSH3 0x55A JUMP JUMPDEST ADD MLOAD PUSH1 0x0 NOT PUSH1 0xF8 DUP5 PUSH1 0x3 SHL AND SHR NOT AND SWAP1 SSTORE CODESIZE DUP1 DUP1 PUSH3 0x11D5 JUMP JUMPDEST DUP2 DUP2 ADD MLOAD DUP4 SSTORE PUSH1 0x20 SWAP5 DUP6 ADD SWAP5 PUSH1 0x1 SWAP1 SWAP4 ADD SWAP3 SWAP1 SWAP2 ADD SWAP1 PUSH3 0x11B8 JUMP JUMPDEST SWAP1 SWAP2 POP PUSH1 0x8 DUP5 ADD PUSH1 0x0 MSTORE PUSH1 0x20 PUSH1 0x0 KECCAK256 PUSH1 0x1F DUP5 ADD PUSH1 0x5 SHR DUP2 ADD PUSH1 0x20 DUP6 LT PUSH3 0x126C JUMPI JUMPDEST SWAP1 DUP5 SWAP4 SWAP3 SWAP2 JUMPDEST PUSH1 0x1F DUP4 ADD PUSH1 0x5 SHR DUP3 ADD DUP2 LT PUSH3 0x125C JUMPI POP POP PUSH3 0x529 JUMP JUMPDEST PUSH1 0x0 DUP2 SSTORE DUP6 SWAP5 POP PUSH1 0x1 ADD PUSH3 0x1244 JUMP JUMPDEST POP DUP1 PUSH3 0x123E JUMP JUMPDEST SWAP2 PUSH1 0x7F AND SWAP2 PUSH3 0x513 JUMP JUMPDEST ADD MLOAD SWAP1 POP CODESIZE DUP1 PUSH3 0x4C7 JUMP JUMPDEST SWAP3 POP PUSH1 0x6 DUP5 ADD PUSH1 0x0 MSTORE PUSH1 0x20 PUSH1 0x0 KECCAK256 SWAP1 PUSH1 0x0 SWAP4 JUMPDEST PUSH1 0x1F NOT DUP5 AND DUP6 LT PUSH3 0x12E6 JUMPI PUSH1 0x1 SWAP5 POP DUP4 PUSH1 0x1F NOT DUP2 AND LT PUSH3 0x12CC JUMPI JUMPDEST POP POP POP DUP2 SHL ADD PUSH1 0x6 DUP3 ADD SSTORE PUSH3 0x4DF JUMP JUMPDEST ADD MLOAD PUSH1 0x0 NOT PUSH1 0xF8 DUP5 PUSH1 0x3 SHL AND SHR NOT AND SWAP1 SSTORE CODESIZE DUP1 DUP1 PUSH3 0x12BB JUMP JUMPDEST DUP2 DUP2 ADD MLOAD DUP4 SSTORE PUSH1 0x20 SWAP5 DUP6 ADD SWAP5 PUSH1 0x1 SWAP1 SWAP4 ADD SWAP3 SWAP1 SWAP2 ADD SWAP1 PUSH3 0x129E JUMP JUMPDEST SWAP1 SWAP2 POP PUSH1 0x6 DUP5 ADD PUSH1 0x0 MSTORE PUSH1 0x20 PUSH1 0x0 KECCAK256 PUSH1 0x1F DUP5 ADD PUSH1 0x5 SHR DUP2 ADD PUSH1 0x20 DUP6 LT PUSH3 0x1352 JUMPI JUMPDEST SWAP1 DUP5 SWAP4 SWAP3 SWAP2 JUMPDEST PUSH1 0x1F DUP4 ADD PUSH1 0x5 SHR DUP3 ADD DUP2 LT PUSH3 0x1342 JUMPI POP POP PUSH3 0x4AE JUMP JUMPDEST PUSH1 0x0 DUP2 SSTORE DUP6 SWAP5 POP PUSH1 0x1 ADD PUSH3 0x132A JUMP JUMPDEST POP DUP1 PUSH3 0x1324 JUMP JUMPDEST SWAP2 PUSH1 0x7F AND SWAP2 PUSH3 0x498 JUMP JUMPDEST ADD MLOAD SWAP1 POP CODESIZE DUP1 PUSH3 0x43B JUMP JUMPDEST SWAP3 POP PUSH1 0x4 DUP5 ADD PUSH1 0x0 MSTORE PUSH1 0x20 PUSH1 0x0 KECCAK256 SWAP1 PUSH1 0x0 SWAP4 JUMPDEST PUSH1 0x1F NOT DUP5 AND DUP6 LT PUSH3 0x13CC JUMPI PUSH1 0x1 SWAP5 POP DUP4 PUSH1 0x1F NOT DUP2 AND LT PUSH3 0x13B2 JUMPI JUMPDEST POP POP POP DUP2 SHL ADD PUSH1 0x4 DUP3 ADD SSTORE PUSH3 0x453 JUMP JUMPDEST ADD MLOAD PUSH1 0x0 NOT PUSH1 0xF8 DUP5 PUSH1 0x3 SHL AND SHR NOT AND SWAP1 SSTORE CODESIZE DUP1 DUP1 PUSH3 0x13A1 JUMP JUMPDEST DUP2 DUP2 ADD MLOAD DUP4 SSTORE PUSH1 0x20 SWAP5 DUP6 ADD SWAP5 PUSH1 0x1 SWAP1 SWAP4 ADD SWAP3 SWAP1 SWAP2 ADD SWAP1 PUSH3 0x1384 JUMP JUMPDEST SWAP1 SWAP2 POP PUSH1 0x4 DUP5 ADD PUSH1 0x0 MSTORE PUSH1 0x20 PUSH1 0x0 KECCAK256 PUSH1 0x1F DUP5 ADD PUSH1 0x5 SHR DUP2 ADD PUSH1 0x20 DUP6 LT PUSH3 0x1438 JUMPI JUMPDEST SWAP1 DUP5 SWAP4 SWAP3 SWAP2 JUMPDEST PUSH1 0x1F DUP4 ADD PUSH1 0x5 SHR DUP3 ADD DUP2 LT PUSH3 0x1428 JUMPI POP POP PUSH3 0x422 JUMP JUMPDEST PUSH1 0x0 DUP2 SSTORE DUP6 SWAP5 POP PUSH1 0x1 ADD PUSH3 0x1410 JUMP JUMPDEST POP DUP1 PUSH3 0x140A JUMP JUMPDEST SWAP2 PUSH1 0x7F AND SWAP2 PUSH3 0x40C JUMP JUMPDEST ADD MLOAD SWAP1 POP CODESIZE DUP1 PUSH3 0x3C9 JUMP JUMPDEST SWAP3 POP PUSH1 0x3 DUP5 ADD PUSH1 0x0 MSTORE PUSH1 0x20 PUSH1 0x0 KECCAK256 SWAP1 PUSH1 0x0 SWAP4 JUMPDEST PUSH1 0x1F NOT DUP5 AND DUP6 LT PUSH3 0x14B2 JUMPI PUSH1 0x1 SWAP5 POP DUP4 PUSH1 0x1F NOT DUP2 AND LT PUSH3 0x1498 JUMPI JUMPDEST POP POP POP DUP2 SHL ADD PUSH1 0x3 DUP3 ADD SSTORE PUSH3 0x3E1 JUMP JUMPDEST ADD MLOAD PUSH1 0x0 NOT PUSH1 0xF8 DUP5 PUSH1 0x3 SHL AND SHR NOT AND SWAP1 SSTORE CODESIZE DUP1 DUP1 PUSH3 0x1487 JUMP JUMPDEST DUP2 DUP2 ADD MLOAD DUP4 SSTORE PUSH1 0x20 SWAP5 DUP6 ADD SWAP5 PUSH1 0x1 SWAP1 SWAP4 ADD SWAP3 SWAP1 SWAP2 ADD SWAP1 PUSH3 0x146A JUMP JUMPDEST SWAP1 SWAP2 POP PUSH1 0x3 DUP5 ADD PUSH1 0x0 MSTORE PUSH1 0x20 PUSH1 0x0 KECCAK256 PUSH1 0x1F DUP5 ADD PUSH1 0x5 SHR DUP2 ADD PUSH1 0x20 DUP6 LT PUSH3 0x151E JUMPI JUMPDEST SWAP1 DUP5 SWAP4 SWAP3 SWAP2 JUMPDEST PUSH1 0x1F DUP4 ADD PUSH1 0x5 SHR DUP3 ADD DUP2 LT PUSH3 0x150E JUMPI POP POP PUSH3 0x3B0 JUMP JUMPDEST PUSH1 0x0 DUP2 SSTORE DUP6 SWAP5 POP PUSH1 0x1 ADD PUSH3 0x14F6 JUMP JUMPDEST POP DUP1 PUSH3 0x14F0 JUMP JUMPDEST SWAP2 PUSH1 0x7F AND SWAP2 PUSH3 0x39A JUMP JUMPDEST ADD MLOAD SWAP1 POP CODESIZE DUP1 PUSH3 0x358 JUMP JUMPDEST SWAP3 POP PUSH1 0x2 DUP5 ADD PUSH1 0x0 MSTORE PUSH1 0x20 PUSH1 0x0 KECCAK256 SWAP1 PUSH1 0x0 SWAP4 JUMPDEST PUSH1 0x1F NOT DUP5 AND DUP6 LT PUSH3 0x1598 JUMPI PUSH1 0x1 SWAP5 POP DUP4 PUSH1 0x1F NOT DUP2 AND LT PUSH3 0x157E JUMPI JUMPDEST POP POP POP DUP2 SHL ADD PUSH1 0x2 DUP3 ADD SSTORE PUSH3 0x370 JUMP JUMPDEST ADD MLOAD PUSH1 0x0 NOT PUSH1 0xF8 DUP5 PUSH1 0x3 SHL AND SHR NOT AND SWAP1 SSTORE CODESIZE DUP1 DUP1 PUSH3 0x156D JUMP JUMPDEST DUP2 DUP2 ADD MLOAD DUP4 SSTORE PUSH1 0x20 SWAP5 DUP6 ADD SWAP5 PUSH1 0x1 SWAP1 SWAP4 ADD SWAP3 SWAP1 SWAP2 ADD SWAP1 PUSH3 0x1550 JUMP JUMPDEST SWAP1 SWAP2 POP PUSH1 0x2 DUP5 ADD PUSH1 0x0 MSTORE PUSH1 0x20 PUSH1 0x0 KECCAK256 PUSH1 0x1F DUP5 ADD PUSH1 0x5 SHR DUP2 ADD PUSH1 0x20 DUP6 LT PUSH3 0x1604 JUMPI JUMPDEST SWAP1 DUP5 SWAP4 SWAP3 SWAP2 JUMPDEST PUSH1 0x1F DUP4 ADD PUSH1 0x5 SHR DUP3 ADD DUP2 LT PUSH3 0x15F4 JUMPI POP POP PUSH3 0x33F JUMP JUMPDEST PUSH1 0x0 DUP2 SSTORE DUP6 SWAP5 POP PUSH1 0x1 ADD PUSH3 0x15DC JUMP JUMPDEST POP DUP1 PUSH3 0x15D6 JUMP JUMPDEST SWAP2 PUSH1 0x7F AND SWAP2 PUSH3 0x329 JUMP JUMPDEST ADD MLOAD SWAP1 POP CODESIZE DUP1 PUSH3 0x2E7 JUMP JUMPDEST SWAP3 POP PUSH1 0x1 DUP5 ADD PUSH1 0x0 MSTORE PUSH1 0x20 PUSH1 0x0 KECCAK256 SWAP1 PUSH1 0x0 SWAP4 JUMPDEST PUSH1 0x1F NOT DUP5 AND DUP6 LT PUSH3 0x167E JUMPI PUSH1 0x1 SWAP5 POP DUP4 PUSH1 0x1F NOT DUP2 AND LT PUSH3 0x1664 JUMPI JUMPDEST POP POP POP DUP2 SHL ADD PUSH1 0x1 DUP3 ADD SSTORE PUSH3 0x2FF JUMP JUMPDEST ADD MLOAD PUSH1 0x0 NOT PUSH1 0xF8 DUP5 PUSH1 0x3 SHL AND SHR NOT AND SWAP1 SSTORE CODESIZE DUP1 DUP1 PUSH3 0x1653 JUMP JUMPDEST DUP2 DUP2 ADD MLOAD DUP4 SSTORE PUSH1 0x20 SWAP5 DUP6 ADD SWAP5 PUSH1 0x1 SWAP1 SWAP4 ADD SWAP3 SWAP1 SWAP2 ADD SWAP1 PUSH3 0x1636 JUMP JUMPDEST SWAP1 SWAP2 POP PUSH1 0x1 DUP5 ADD PUSH1 0x0 MSTORE PUSH1 0x20 PUSH1 0x0 KECCAK256 PUSH1 0x1F DUP5 ADD PUSH1 0x5 SHR DUP2 ADD PUSH1 0x20 DUP6 LT PUSH3 0x16EA JUMPI JUMPDEST SWAP1 DUP5 SWAP4 SWAP3 SWAP2 JUMPDEST PUSH1 0x1F DUP4 ADD PUSH1 0x5 SHR DUP3 ADD DUP2 LT PUSH3 0x16DA JUMPI POP POP PUSH3 0x2CE JUMP JUMPDEST PUSH1 0x0 DUP2 SSTORE DUP6 SWAP5 POP PUSH1 0x1 ADD PUSH3 0x16C2 JUMP JUMPDEST POP DUP1 PUSH3 0x16BC JUMP JUMPDEST SWAP2 PUSH1 0x7F AND SWAP2 PUSH3 0x2B8 JUMP JUMPDEST ADD MLOAD SWAP1 POP CODESIZE DUP1 PUSH3 0x279 JUMP JUMPDEST SWAP3 POP DUP4 PUSH1 0x0 MSTORE PUSH1 0x20 PUSH1 0x0 KECCAK256 SWAP1 PUSH1 0x0 SWAP4 JUMPDEST PUSH1 0x1F NOT DUP5 AND DUP6 LT PUSH3 0x175E JUMPI PUSH1 0x1 SWAP5 POP DUP4 PUSH1 0x1F NOT DUP2 AND LT PUSH3 0x1744 JUMPI JUMPDEST POP POP POP DUP2 SHL ADD DUP2 SSTORE PUSH3 0x28E JUMP JUMPDEST ADD MLOAD PUSH1 0x0 NOT PUSH1 0xF8 DUP5 PUSH1 0x3 SHL AND SHR NOT AND SWAP1 SSTORE CODESIZE DUP1 DUP1 PUSH3 0x1736 JUMP JUMPDEST DUP2 DUP2 ADD MLOAD DUP4 SSTORE PUSH1 0x20 SWAP5 DUP6 ADD SWAP5 PUSH1 0x1 SWAP1 SWAP4 ADD SWAP3 SWAP1 SWAP2 ADD SWAP1 PUSH3 0x1719 JUMP JUMPDEST SWAP1 SWAP2 POP DUP4 PUSH1 0x0 MSTORE PUSH1 0x20 PUSH1 0x0 KECCAK256 PUSH1 0x1F DUP5 ADD PUSH1 0x5 SHR DUP2 ADD PUSH1 0x20 DUP6 LT PUSH3 0x17C7 JUMPI JUMPDEST SWAP1 DUP5 SWAP4 SWAP3 SWAP2 JUMPDEST PUSH1 0x1F DUP4 ADD PUSH1 0x5 SHR DUP3 ADD DUP2 LT PUSH3 0x17B7 JUMPI POP POP PUSH3 0x260 JUMP JUMPDEST PUSH1 0x0 DUP2 SSTORE DUP6 SWAP5 POP PUSH1 0x1 ADD PUSH3 0x179F JUMP JUMPDEST POP DUP1 PUSH3 0x1799 JUMP JUMPDEST SWAP2 PUSH1 0x7F AND SWAP2 PUSH3 0x247 JUMP JUMPDEST PUSH1 0x0 DUP1 REVERT JUMPDEST PUSH1 0x40 DUP1 MLOAD SWAP2 SWAP1 DUP3 ADD PUSH1 0x1 PUSH1 0x1 PUSH1 0x40 SHL SUB DUP2 GT DUP4 DUP3 LT OR PUSH3 0xA4B JUMPI PUSH1 0x40 MSTORE JUMP JUMPDEST PUSH1 0x40 MLOAD SWAP1 PUSH1 0x20 DUP3 ADD PUSH1 0x1 PUSH1 0x1 PUSH1 0x40 SHL SUB DUP2 GT DUP4 DUP3 LT OR PUSH3 0xA4B JUMPI PUSH1 0x40 MSTORE JUMP INVALID PUSH2 0x120 DUP1 PUSH1 0x40 MSTORE PUSH1 0x4 CALLDATASIZE LT ISZERO PUSH2 0x14 JUMPI PUSH1 0x0 DUP1 REVERT JUMPDEST PUSH1 0x0 CALLDATALOAD PUSH1 0xE0 SHR SWAP1 DUP2 PUSH4 0x558D3E9 EQ PUSH2 0x3AB8 JUMPI POP DUP1 PUSH4 0xDA4578B EQ PUSH2 0x352D JUMPI DUP1 PUSH4 0x24D7806C EQ PUSH2 0x34D9 JUMPI DUP1 PUSH4 0x2F330023 EQ PUSH2 0x3411 JUMPI DUP1 PUSH4 0x37A1BBA2 EQ PUSH2 0x2832 JUMPI DUP1 PUSH4 0x4209FFF1 EQ PUSH2 0x27EE JUMPI DUP1 PUSH4 0x502C9BD5 EQ PUSH2 0x27AC JUMPI DUP1 PUSH4 0x6816442D EQ PUSH2 0x2749 JUMPI DUP1 PUSH4 0x69C212F6 EQ PUSH2 0x24A3 JUMPI DUP1 PUSH4 0x75829DEF EQ PUSH2 0x23D4 JUMPI DUP1 PUSH4 0x98575188 EQ PUSH2 0x2097 JUMPI DUP1 PUSH4 0x9D4D1342 EQ PUSH2 0xB71 JUMPI DUP1 PUSH4 0x9F42AF63 EQ PUSH2 0x80E JUMPI DUP1 PUSH4 0xA87430BA EQ PUSH2 0x47B JUMPI DUP1 PUSH4 0xB5CB15F7 EQ PUSH2 0x45D JUMPI DUP1 PUSH4 0xB979CC2F EQ PUSH2 0x1E8 JUMPI DUP1 PUSH4 0xF309E3F9 EQ PUSH2 0x187 JUMPI DUP1 PUSH4 0xF825F143 EQ PUSH2 0x11F JUMPI PUSH4 0xF851A440 EQ PUSH2 0xF1 JUMPI PUSH1 0x0 DUP1 REVERT JUMPDEST CALLVALUE PUSH2 0x11A JUMPI PUSH1 0x0 CALLDATASIZE PUSH1 0x3 NOT ADD SLT PUSH2 0x11A JUMPI PUSH1 0x0 SLOAD PUSH1 0x40 MLOAD PUSH1 0x1 PUSH1 0x1 PUSH1 0xA0 SHL SUB SWAP1 SWAP2 AND DUP2 MSTORE PUSH1 0x20 SWAP1 RETURN JUMPDEST PUSH1 0x0 DUP1 REVERT JUMPDEST CALLVALUE PUSH2 0x11A JUMPI PUSH1 0x20 CALLDATASIZE PUSH1 0x3 NOT ADD SLT PUSH2 0x11A JUMPI PUSH1 0x4 CALLDATALOAD PUSH1 0x1 PUSH1 0x1 PUSH1 0x40 SHL SUB DUP2 GT PUSH2 0x11A JUMPI PUSH2 0x151 PUSH1 0x20 SWAP2 CALLDATASIZE SWAP1 PUSH1 0x4 ADD PUSH2 0x3E9B JUMP JUMPDEST DUP2 PUSH2 0x165 PUSH1 0x40 MLOAD SWAP3 DUP4 DUP2 MLOAD SWAP4 DUP5 SWAP3 ADD PUSH2 0x3DFB JUMP JUMPDEST PUSH1 0x2 SWAP1 DUP3 ADD SWAP1 DUP2 MSTORE DUP2 SWAP1 SUB DUP3 ADD SWAP1 KECCAK256 SLOAD PUSH1 0x40 MLOAD PUSH1 0x1 PUSH1 0x1 PUSH1 0xA0 SHL SUB SWAP1 SWAP2 AND DUP2 MSTORE RETURN JUMPDEST CALLVALUE PUSH2 0x11A JUMPI PUSH1 0x20 CALLDATASIZE PUSH1 0x3 NOT ADD SLT PUSH2 0x11A JUMPI PUSH1 0x4 CALLDATALOAD PUSH1 0x1 PUSH1 0x1 PUSH1 0x40 SHL SUB DUP2 GT PUSH2 0x11A JUMPI PUSH1 0xFF PUSH2 0x1D2 PUSH1 0x20 PUSH2 0x1BF DUP2 SWAP5 CALLDATASIZE SWAP1 PUSH1 0x4 ADD PUSH2 0x3E9B JUMP JUMPDEST DUP2 PUSH1 0x40 MLOAD SWAP4 DUP3 DUP6 DUP1 SWAP5 MLOAD SWAP4 DUP5 SWAP3 ADD PUSH2 0x3DFB JUMP JUMPDEST DUP2 ADD PUSH1 0x4 DUP2 MSTORE SUB ADD SWAP1 KECCAK256 SLOAD AND PUSH1 0x40 MLOAD SWAP1 ISZERO ISZERO DUP2 MSTORE RETURN JUMPDEST CALLVALUE PUSH2 0x11A JUMPI PUSH1 0x60 CALLDATASIZE PUSH1 0x3 NOT ADD SLT PUSH2 0x11A JUMPI PUSH2 0x201 PUSH2 0x3DE5 JUMP JUMPDEST PUSH1 0x24 CALLDATALOAD DUP1 ISZERO ISZERO SWAP1 DUP2 DUP2 SUB PUSH2 0x11A JUMPI PUSH1 0x1 PUSH1 0x1 PUSH1 0x40 SHL SUB SWAP2 PUSH1 0x44 CALLDATALOAD DUP4 DUP2 GT PUSH2 0x11A JUMPI PUSH2 0x230 SWAP1 CALLDATASIZE SWAP1 PUSH1 0x4 ADD PUSH2 0x3E9B JUMP JUMPDEST PUSH1 0x0 SLOAD SWAP1 SWAP5 PUSH1 0x1 PUSH1 0x1 PUSH1 0xA0 SHL SUB SWAP2 DUP3 AND CALLER EQ DUP1 ISZERO PUSH2 0x411 JUMPI JUMPDEST PUSH2 0x252 SWAP1 PUSH2 0x40F7 JUMP JUMPDEST AND SWAP3 DUP4 PUSH1 0x0 MSTORE PUSH1 0x1 SWAP1 PUSH1 0x6 PUSH1 0x20 SWAP5 DUP4 DUP7 MSTORE PUSH2 0x27B PUSH2 0x274 PUSH1 0x40 PUSH1 0x0 KECCAK256 SLOAD PUSH2 0x3F3E JUMP JUMPDEST ISZERO ISZERO PUSH2 0x40B5 JUMP JUMPDEST DUP7 PUSH1 0x0 MSTORE DUP4 DUP7 MSTORE PUSH2 0x2A0 PUSH1 0x40 PUSH1 0x0 KECCAK256 SWAP2 PUSH1 0x5 DUP4 ADD SWAP1 PUSH1 0xFF DUP1 NOT DUP4 SLOAD AND SWAP2 ISZERO ISZERO AND OR SWAP1 SSTORE JUMP JUMPDEST ADD SWAP2 DUP7 MLOAD SWAP2 DUP3 GT PUSH2 0x3FB JUMPI PUSH2 0x2B5 DUP4 SLOAD PUSH2 0x3F3E JUMP JUMPDEST PUSH1 0x1F DUP2 GT PUSH2 0x3C0 JUMPI JUMPDEST POP DUP5 PUSH1 0x1F DUP4 GT PUSH1 0x1 EQ PUSH2 0x336 JUMPI SWAP2 DUP1 DUP1 PUSH2 0x326 SWAP6 SWAP4 PUSH32 0x925B0343B9085747D26A9125C88206057343A6E2DB8D4FE70CEE25DA0220AAC1 SWAP10 SWAP11 SWAP6 PUSH1 0x0 SWAP4 PUSH2 0x32B JUMPI JUMPDEST POP SHL SWAP2 PUSH1 0x0 NOT SWAP1 PUSH1 0x3 SHL SHR NOT AND OR SWAP1 SSTORE JUMPDEST PUSH1 0x40 DUP1 MLOAD SWAP5 DUP6 SWAP5 DUP6 MSTORE DUP5 ADD MSTORE PUSH1 0x40 DUP4 ADD SWAP1 PUSH2 0x3E1E JUMP JUMPDEST SUB SWAP1 LOG2 STOP JUMPDEST DUP7 ADD MLOAD SWAP3 POP DUP12 PUSH2 0x2FF JUMP JUMPDEST PUSH1 0x1F SWAP3 SWAP2 SWAP3 NOT DUP3 AND SWAP1 DUP5 PUSH1 0x0 MSTORE DUP7 PUSH1 0x0 KECCAK256 SWAP2 PUSH1 0x0 JUMPDEST DUP2 DUP2 LT PUSH2 0x3AB JUMPI POP SWAP2 DUP4 SWAP2 PUSH2 0x326 SWAP7 SWAP5 PUSH32 0x925B0343B9085747D26A9125C88206057343A6E2DB8D4FE70CEE25DA0220AAC1 SWAP11 SWAP12 SWAP7 SWAP5 LT PUSH2 0x392 JUMPI JUMPDEST POP POP DUP2 SHL ADD SWAP1 SSTORE PUSH2 0x310 JUMP JUMPDEST DUP6 ADD MLOAD PUSH1 0x0 NOT PUSH1 0xF8 DUP5 PUSH1 0x3 SHL AND SHR NOT AND SWAP1 SSTORE DUP10 DUP1 PUSH2 0x386 JUMP JUMPDEST DUP11 DUP4 ADD MLOAD DUP5 SSTORE SWAP3 DUP6 ADD SWAP3 SWAP2 DUP9 ADD SWAP2 DUP9 ADD PUSH2 0x34B JUMP JUMPDEST PUSH2 0x3EB SWAP1 DUP5 PUSH1 0x0 MSTORE DUP7 PUSH1 0x0 KECCAK256 PUSH1 0x1F DUP6 ADD PUSH1 0x5 SHR DUP2 ADD SWAP2 DUP9 DUP7 LT PUSH2 0x3F1 JUMPI JUMPDEST PUSH1 0x1F ADD PUSH1 0x5 SHR ADD SWAP1 PUSH2 0x409E JUMP JUMPDEST DUP8 PUSH2 0x2BE JUMP JUMPDEST SWAP1 SWAP2 POP DUP2 SWAP1 PUSH2 0x3DE JUMP JUMPDEST PUSH4 0x4E487B71 PUSH1 0xE0 SHL PUSH1 0x0 MSTORE PUSH1 0x41 PUSH1 0x4 MSTORE PUSH1 0x24 PUSH1 0x0 REVERT JUMPDEST POP CALLER PUSH1 0x0 MSTORE PUSH1 0x1 PUSH1 0x20 MSTORE PUSH2 0x252 PUSH2 0x438 PUSH2 0x43F PUSH1 0x4 PUSH1 0x40 PUSH1 0x0 KECCAK256 ADD PUSH1 0x40 MLOAD SWAP3 DUP4 DUP1 SWAP3 PUSH2 0x3F78 JUMP JUMPDEST SUB DUP3 PUSH2 0x3E7A JUMP JUMPDEST PUSH1 0x20 DUP2 MLOAD SWAP2 ADD KECCAK256 PUSH2 0x44E PUSH2 0x4031 JUMP JUMPDEST PUSH1 0x20 DUP2 MLOAD SWAP2 ADD KECCAK256 EQ SWAP1 POP PUSH2 0x249 JUMP JUMPDEST CALLVALUE PUSH2 0x11A JUMPI PUSH1 0x0 CALLDATASIZE PUSH1 0x3 NOT ADD SLT PUSH2 0x11A JUMPI PUSH1 0x20 PUSH1 0x3 SLOAD PUSH1 0x40 MLOAD SWAP1 DUP2 MSTORE RETURN JUMPDEST CALLVALUE PUSH2 0x11A JUMPI PUSH1 0x20 CALLDATASIZE PUSH1 0x3 NOT ADD SLT PUSH2 0x11A JUMPI PUSH1 0x1 PUSH1 0x1 PUSH1 0xA0 SHL SUB PUSH2 0x49C PUSH2 0x3DE5 JUMP JUMPDEST AND PUSH1 0x0 MSTORE PUSH1 0x1 PUSH1 0x20 MSTORE PUSH1 0x40 PUSH1 0x0 KECCAK256 DUP1 DUP1 PUSH1 0x40 MLOAD DUP1 PUSH2 0x4BA DUP2 DUP5 PUSH2 0x3F78 JUMP JUMPDEST SUB PUSH2 0x4C5 SWAP1 DUP3 PUSH2 0x3E7A JUMP JUMPDEST PUSH1 0x40 MLOAD PUSH1 0xA0 DUP2 SWAP1 MSTORE PUSH2 0x4DA DUP2 PUSH1 0x1 DUP6 ADD PUSH2 0x3F78 JUMP JUMPDEST SUB PUSH1 0xA0 MLOAD SWAP1 PUSH2 0x4E8 SWAP2 PUSH2 0x3E7A JUMP JUMPDEST PUSH1 0x40 MLOAD PUSH1 0x80 DUP2 SWAP1 MSTORE PUSH2 0x4FD DUP2 PUSH1 0x2 DUP6 ADD PUSH2 0x3F78 JUMP JUMPDEST SUB PUSH1 0x80 MLOAD SWAP1 PUSH2 0x50B SWAP2 PUSH2 0x3E7A JUMP JUMPDEST PUSH1 0x40 MLOAD DUP1 PUSH2 0x51C DUP2 PUSH1 0x3 DUP7 ADD PUSH2 0x3F78 JUMP JUMPDEST SUB PUSH2 0x527 SWAP1 DUP3 PUSH2 0x3E7A JUMP JUMPDEST PUSH1 0x40 MLOAD DUP1 PUSH2 0x538 DUP2 PUSH1 0x4 DUP8 ADD PUSH2 0x3F78 JUMP JUMPDEST SUB PUSH2 0x543 SWAP1 DUP3 PUSH2 0x3E7A JUMP JUMPDEST PUSH1 0x5 DUP5 ADD SLOAD PUSH1 0xFF AND PUSH1 0x40 MLOAD DUP1 DUP1 PUSH1 0x6 DUP9 ADD SWAP1 PUSH2 0x55E SWAP2 PUSH2 0x3F78 JUMP JUMPDEST SUB PUSH2 0x569 SWAP1 DUP3 PUSH2 0x3E7A JUMP JUMPDEST PUSH1 0x7 DUP7 ADD SLOAD PUSH1 0x40 MLOAD SWAP2 DUP3 PUSH2 0x580 DUP2 PUSH1 0x8 DUP12 ADD PUSH2 0x3F78 JUMP JUMPDEST SUB PUSH2 0x58B SWAP1 DUP5 PUSH2 0x3E7A JUMP JUMPDEST PUSH1 0x40 MLOAD SWAP4 DUP5 PUSH2 0x59D DUP2 PUSH1 0x9 DUP13 ADD PUSH2 0x3F78 JUMP JUMPDEST SUB PUSH2 0x5A8 SWAP1 DUP7 PUSH2 0x3E7A JUMP JUMPDEST PUSH1 0x40 MLOAD SWAP6 DUP7 PUSH2 0x5BA DUP2 PUSH1 0xA DUP14 ADD PUSH2 0x3F78 JUMP JUMPDEST SUB PUSH2 0x5C5 SWAP1 DUP9 PUSH2 0x3E7A JUMP JUMPDEST PUSH1 0x40 MLOAD SWAP8 DUP9 PUSH2 0x5D7 DUP2 PUSH1 0xB DUP15 ADD PUSH2 0x3F78 JUMP JUMPDEST SUB PUSH2 0x5E2 SWAP1 DUP11 PUSH2 0x3E7A JUMP JUMPDEST PUSH1 0xC DUP12 ADD SLOAD SWAP10 PUSH1 0x40 MLOAD DUP1 PUSH1 0xD DUP2 SWAP15 ADD SWAP1 PUSH2 0x5FB SWAP2 PUSH2 0x3F78 JUMP JUMPDEST SUB PUSH2 0x606 SWAP1 DUP14 PUSH2 0x3E7A JUMP JUMPDEST PUSH1 0x40 MLOAD DUP1 DUP1 SWAP15 PUSH1 0xE DUP3 SWAP2 ADD SWAP1 PUSH2 0x61B SWAP2 PUSH2 0x3F78 JUMP JUMPDEST SUB PUSH2 0x625 SWAP2 PUSH2 0x3E7A JUMP JUMPDEST PUSH1 0x40 MLOAD SWAP14 DUP15 DUP1 PUSH2 0x638 DUP2 PUSH1 0xF DUP6 ADD PUSH2 0x3F78 JUMP JUMPDEST SUB PUSH2 0x642 SWAP2 PUSH2 0x3E7A JUMP JUMPDEST PUSH1 0x40 MLOAD PUSH1 0xC0 DUP2 SWAP1 MSTORE PUSH2 0x657 DUP2 PUSH1 0x10 DUP5 ADD PUSH2 0x3F78 JUMP JUMPDEST SUB PUSH1 0xC0 MLOAD SWAP1 PUSH2 0x665 SWAP2 PUSH2 0x3E7A JUMP JUMPDEST PUSH1 0x40 MLOAD DUP1 SWAP2 DUP2 PUSH1 0xE0 MSTORE PUSH1 0x11 ADD SWAP1 PUSH2 0x67B SWAP2 PUSH2 0x3F78 JUMP JUMPDEST SUB PUSH1 0xE0 MLOAD SWAP1 PUSH2 0x689 SWAP2 PUSH2 0x3E7A JUMP JUMPDEST PUSH1 0x40 MLOAD DUP1 PUSH2 0x100 MSTORE PUSH2 0x240 DUP1 SWAP2 MSTORE PUSH2 0x100 MLOAD ADD PUSH2 0x6A5 SWAP2 PUSH2 0x3E1E JUMP JUMPDEST PUSH2 0x100 MLOAD DUP1 DUP3 SUB SWAP1 PUSH1 0x20 ADD MSTORE PUSH1 0xA0 MLOAD SWAP1 PUSH2 0x6BE SWAP2 PUSH2 0x3E1E JUMP JUMPDEST PUSH2 0x100 MLOAD DUP1 DUP3 SUB SWAP1 PUSH1 0x40 ADD MSTORE PUSH1 0x80 MLOAD SWAP1 PUSH2 0x6D7 SWAP2 PUSH2 0x3E1E JUMP JUMPDEST PUSH2 0x100 MLOAD DUP1 DUP3 SUB SWAP1 PUSH1 0x60 ADD MSTORE PUSH2 0x6EC SWAP2 PUSH2 0x3E1E JUMP JUMPDEST PUSH2 0x100 MLOAD DUP1 DUP3 SUB SWAP1 PUSH1 0x80 ADD MSTORE PUSH2 0x701 SWAP2 PUSH2 0x3E1E JUMP JUMPDEST SWAP1 ISZERO ISZERO PUSH2 0x100 MLOAD PUSH1 0xA0 ADD MSTORE PUSH2 0x100 MLOAD DUP1 DUP3 SUB SWAP1 PUSH1 0xC0 ADD MSTORE PUSH2 0x721 SWAP2 PUSH2 0x3E1E JUMP JUMPDEST SWAP1 PUSH2 0x100 MLOAD PUSH1 0xE0 ADD MSTORE PUSH2 0x100 MLOAD DUP1 DUP3 SUB SWAP1 PUSH2 0x100 ADD MSTORE PUSH2 0x740 SWAP2 PUSH2 0x3E1E JUMP JUMPDEST PUSH2 0x100 MLOAD DUP1 DUP3 SUB SWAP1 PUSH2 0x120 ADD MSTORE PUSH2 0x756 SWAP2 PUSH2 0x3E1E JUMP JUMPDEST PUSH2 0x100 MLOAD DUP1 DUP3 SUB SWAP1 PUSH2 0x140 ADD MSTORE PUSH2 0x76C SWAP2 PUSH2 0x3E1E JUMP JUMPDEST PUSH2 0x100 MLOAD DUP1 DUP3 SUB SWAP1 PUSH2 0x160 ADD MSTORE PUSH2 0x782 SWAP2 PUSH2 0x3E1E JUMP JUMPDEST SWAP1 PUSH2 0x100 MLOAD PUSH2 0x180 ADD MSTORE PUSH2 0x100 MLOAD DUP1 DUP3 SUB SWAP1 PUSH2 0x1A0 ADD MSTORE PUSH2 0x7A2 SWAP2 PUSH2 0x3E1E JUMP JUMPDEST PUSH2 0x100 MLOAD DUP1 DUP3 SUB SWAP1 PUSH2 0x1C0 ADD MSTORE PUSH2 0x7B8 SWAP2 PUSH2 0x3E1E JUMP JUMPDEST PUSH2 0x100 MLOAD DUP1 DUP3 SUB SWAP1 PUSH2 0x1E0 ADD MSTORE PUSH2 0x7CE SWAP2 PUSH2 0x3E1E JUMP JUMPDEST PUSH2 0x100 MLOAD DUP1 DUP3 SUB SWAP1 PUSH2 0x200 ADD MSTORE PUSH1 0xC0 MLOAD SWAP1 PUSH2 0x7E8 SWAP2 PUSH2 0x3E1E JUMP JUMPDEST PUSH2 0x100 MLOAD DUP1 DUP3 SUB SWAP1 PUSH2 0x220 ADD MSTORE PUSH2 0x100 MLOAD SWAP1 PUSH1 0xE0 MLOAD SWAP1 PUSH2 0x807 SWAP2 PUSH2 0x3E1E JUMP JUMPDEST SUB PUSH2 0x100 MLOAD RETURN JUMPDEST CALLVALUE PUSH2 0x11A JUMPI PUSH1 0x20 DUP1 PUSH1 0x3 NOT CALLDATASIZE ADD SLT PUSH2 0x11A JUMPI PUSH1 0x4 CALLDATALOAD PUSH1 0x1 PUSH1 0x1 PUSH1 0x40 SHL SUB DUP2 GT PUSH2 0x11A JUMPI PUSH2 0x83F SWAP1 CALLDATASIZE SWAP1 PUSH1 0x4 ADD PUSH2 0x3E9B JUMP JUMPDEST DUP2 PUSH2 0x853 PUSH1 0x40 MLOAD SWAP3 DUP4 DUP2 MLOAD SWAP4 DUP5 SWAP3 ADD PUSH2 0x3DFB JUMP JUMPDEST PUSH1 0x2 SWAP1 DUP3 ADD SWAP1 DUP2 MSTORE DUP2 SWAP1 SUB DUP3 ADD SWAP1 KECCAK256 SLOAD PUSH1 0x1 PUSH1 0x1 PUSH1 0xA0 SHL SUB AND DUP1 ISZERO PUSH2 0xB37 JUMPI DUP1 PUSH1 0x0 MSTORE PUSH1 0x1 DUP3 MSTORE PUSH1 0x40 PUSH1 0x0 KECCAK256 PUSH1 0x40 MLOAD PUSH2 0x88B DUP2 PUSH2 0x3E43 JUMP JUMPDEST PUSH1 0x40 MLOAD DUP1 PUSH2 0x899 DUP2 DUP6 PUSH2 0x3F78 JUMP JUMPDEST SUB PUSH2 0x8A4 SWAP1 DUP3 PUSH2 0x3E7A JUMP JUMPDEST DUP2 MSTORE PUSH1 0x40 MLOAD DUP1 PUSH2 0x8B7 DUP2 PUSH1 0x1 DUP7 ADD PUSH2 0x3F78 JUMP JUMPDEST SUB PUSH2 0x8C2 SWAP1 DUP3 PUSH2 0x3E7A JUMP JUMPDEST DUP2 DUP6 ADD SWAP1 DUP2 MSTORE PUSH1 0x40 MLOAD DUP1 PUSH2 0x8D9 DUP2 PUSH1 0x2 DUP8 ADD PUSH2 0x3F78 JUMP JUMPDEST SUB PUSH2 0x8E4 SWAP1 DUP3 PUSH2 0x3E7A JUMP JUMPDEST PUSH1 0x40 DUP4 ADD MSTORE PUSH1 0x40 MLOAD DUP1 DUP1 PUSH1 0x3 DUP7 ADD SWAP1 PUSH2 0x8FC SWAP2 PUSH2 0x3F78 JUMP JUMPDEST SUB PUSH2 0x907 SWAP1 DUP3 PUSH2 0x3E7A JUMP JUMPDEST PUSH1 0x60 DUP4 ADD SWAP1 DUP2 MSTORE PUSH1 0x40 MLOAD DUP1 PUSH2 0x91F DUP2 PUSH1 0x4 DUP9 ADD PUSH2 0x3F78 JUMP JUMPDEST SUB PUSH2 0x92A SWAP1 DUP3 PUSH2 0x3E7A JUMP JUMPDEST PUSH1 0x80 DUP5 ADD SWAP1 DUP2 MSTORE PUSH1 0x5 DUP6 ADD SLOAD PUSH1 0xFF AND SWAP2 PUSH1 0xA0 DUP6 ADD SWAP3 ISZERO ISZERO DUP4 MSTORE PUSH1 0x40 MLOAD SWAP4 DUP5 DUP1 PUSH1 0x6 DUP10 ADD SWAP1 PUSH2 0x957 SWAP2 PUSH2 0x3F78 JUMP JUMPDEST SUB PUSH2 0x962 SWAP1 DUP7 PUSH2 0x3E7A JUMP JUMPDEST PUSH1 0xC0 DUP7 ADD SWAP5 DUP6 MSTORE PUSH1 0x7 DUP8 ADD SLOAD SWAP6 PUSH1 0xE0 DUP2 ADD SWAP7 DUP8 MSTORE PUSH1 0x40 MLOAD SWAP8 DUP9 DUP1 PUSH1 0x8 DUP4 ADD SWAP1 PUSH2 0x98A SWAP2 PUSH2 0x3F78 JUMP JUMPDEST SUB PUSH2 0x995 SWAP1 DUP11 PUSH2 0x3E7A JUMP JUMPDEST PUSH2 0x100 SWAP9 DUP10 DUP4 ADD MSTORE PUSH1 0x40 MLOAD DUP1 DUP1 PUSH1 0x9 DUP5 ADD SWAP1 PUSH2 0x9B0 SWAP2 PUSH2 0x3F78 JUMP JUMPDEST SUB PUSH2 0x9BB SWAP1 DUP3 PUSH2 0x3E7A JUMP JUMPDEST PUSH2 0x120 DUP4 ADD MSTORE PUSH1 0x40 MLOAD DUP1 PUSH2 0x9D2 DUP2 PUSH1 0xA DUP6 ADD PUSH2 0x3F78 JUMP JUMPDEST SUB PUSH2 0x9DD SWAP1 DUP3 PUSH2 0x3E7A JUMP JUMPDEST PUSH2 0x140 DUP4 ADD MSTORE PUSH1 0x40 MLOAD DUP1 PUSH2 0x9F4 DUP2 PUSH1 0xB DUP6 ADD PUSH2 0x3F78 JUMP JUMPDEST SUB PUSH2 0x9FF SWAP1 DUP3 PUSH2 0x3E7A JUMP JUMPDEST PUSH2 0x160 DUP4 ADD MSTORE PUSH1 0xC DUP2 ADD SLOAD PUSH2 0x180 DUP4 ADD MSTORE PUSH1 0x40 MLOAD DUP1 PUSH2 0xA21 DUP2 PUSH1 0xD DUP6 ADD PUSH2 0x3F78 JUMP JUMPDEST SUB PUSH2 0xA2C SWAP1 DUP3 PUSH2 0x3E7A JUMP JUMPDEST PUSH2 0x1A0 DUP4 ADD MSTORE PUSH1 0x40 MLOAD DUP1 PUSH2 0xA43 DUP2 PUSH1 0xE DUP6 ADD PUSH2 0x3F78 JUMP JUMPDEST SUB PUSH2 0xA4E SWAP1 DUP3 PUSH2 0x3E7A JUMP JUMPDEST PUSH2 0x1C0 DUP4 ADD MSTORE PUSH1 0x40 MLOAD DUP1 PUSH2 0xA65 DUP2 PUSH1 0xF DUP6 ADD PUSH2 0x3F78 JUMP JUMPDEST SUB PUSH2 0xA70 SWAP1 DUP3 PUSH2 0x3E7A JUMP JUMPDEST PUSH2 0x1E0 DUP4 ADD MSTORE PUSH1 0x40 MLOAD DUP1 PUSH2 0xA87 DUP2 PUSH1 0x10 DUP6 ADD PUSH2 0x3F78 JUMP JUMPDEST SUB PUSH2 0xA92 SWAP1 DUP3 PUSH2 0x3E7A JUMP JUMPDEST PUSH2 0x200 DUP4 ADD MSTORE PUSH1 0x40 MLOAD DUP1 PUSH1 0x11 DUP2 SWAP4 ADD SWAP1 PUSH2 0xAAB SWAP2 PUSH2 0x3F78 JUMP JUMPDEST SUB PUSH2 0xAB6 SWAP1 DUP3 PUSH2 0x3E7A JUMP JUMPDEST PUSH2 0x220 DUP3 ADD MSTORE MLOAD SWAP1 MLOAD SWAP2 MLOAD SWAP3 MLOAD SWAP4 MLOAD ISZERO ISZERO SWAP5 MLOAD SWAP6 MLOAD SWAP7 DUP1 PUSH1 0x40 MLOAD SWAP11 DUP12 SWAP11 DUP12 MSTORE DUP11 ADD MSTORE DUP9 ADD PUSH2 0xAE3 SWAP2 PUSH2 0x3E1E JUMP JUMPDEST DUP8 DUP2 SUB PUSH1 0x40 DUP10 ADD MSTORE PUSH2 0xAF4 SWAP2 PUSH2 0x3E1E JUMP JUMPDEST DUP7 DUP2 SUB PUSH1 0x60 DUP9 ADD MSTORE PUSH2 0xB05 SWAP2 PUSH2 0x3E1E JUMP JUMPDEST DUP6 DUP2 SUB PUSH1 0x80 DUP8 ADD MSTORE PUSH2 0xB16 SWAP2 PUSH2 0x3E1E JUMP JUMPDEST SWAP1 PUSH1 0xA0 DUP6 ADD MSTORE DUP4 DUP2 SUB PUSH1 0xC0 DUP6 ADD MSTORE PUSH2 0xB2D SWAP2 PUSH2 0x3E1E JUMP JUMPDEST SWAP1 PUSH1 0xE0 DUP4 ADD MSTORE SUB SWAP1 RETURN JUMPDEST PUSH1 0x40 MLOAD PUSH3 0x461BCD PUSH1 0xE5 SHL DUP2 MSTORE PUSH1 0x4 DUP2 ADD DUP4 SWAP1 MSTORE PUSH1 0x12 PUSH1 0x24 DUP3 ADD MSTORE PUSH18 0x155CD95C9B985B59481B9BDD08199BDD5B99 PUSH1 0x72 SHL PUSH1 0x44 DUP3 ADD MSTORE PUSH1 0x64 SWAP1 REVERT JUMPDEST CALLVALUE PUSH2 0x11A JUMPI PUSH2 0x200 CALLDATASIZE PUSH1 0x3 NOT ADD SLT PUSH2 0x11A JUMPI PUSH2 0xB8B PUSH2 0x3DE5 JUMP JUMPDEST PUSH1 0x24 CALLDATALOAD PUSH1 0x1 PUSH1 0x1 PUSH1 0x40 SHL SUB DUP2 GT PUSH2 0x11A JUMPI PUSH2 0xBAA SWAP1 CALLDATASIZE SWAP1 PUSH1 0x4 ADD PUSH2 0x3E9B JUMP JUMPDEST SWAP1 PUSH1 0x44 CALLDATALOAD PUSH1 0x1 PUSH1 0x1 PUSH1 0x40 SHL SUB DUP2 GT PUSH2 0x11A JUMPI PUSH2 0xBCA SWAP1 CALLDATASIZE SWAP1 PUSH1 0x4 ADD PUSH2 0x3E9B JUMP JUMPDEST SWAP2 PUSH1 0x64 CALLDATALOAD PUSH1 0x1 PUSH1 0x1 PUSH1 0x40 SHL SUB DUP2 GT PUSH2 0x11A JUMPI PUSH2 0xBEA SWAP1 CALLDATASIZE SWAP1 PUSH1 0x4 ADD PUSH2 0x3E9B JUMP JUMPDEST SWAP1 PUSH1 0x84 CALLDATALOAD PUSH1 0x1 PUSH1 0x1 PUSH1 0x40 SHL SUB DUP2 GT PUSH2 0x11A JUMPI PUSH2 0xC0A SWAP1 CALLDATASIZE SWAP1 PUSH1 0x4 ADD PUSH2 0x3E9B JUMP JUMPDEST SWAP4 PUSH1 0xA4 CALLDATALOAD PUSH1 0x1 PUSH1 0x1 PUSH1 0x40 SHL SUB DUP2 GT PUSH2 0x11A JUMPI PUSH2 0xC2A SWAP1 CALLDATASIZE SWAP1 PUSH1 0x4 ADD PUSH2 0x3E9B JUMP JUMPDEST SWAP5 PUSH1 0xC4 CALLDATALOAD PUSH1 0x1 PUSH1 0x1 PUSH1 0x40 SHL SUB DUP2 GT PUSH2 0x11A JUMPI PUSH2 0xC4A SWAP1 CALLDATASIZE SWAP1 PUSH1 0x4 ADD PUSH2 0x3E9B JUMP JUMPDEST PUSH1 0xE4 CALLDATALOAD PUSH1 0x1 PUSH1 0x1 PUSH1 0x40 SHL SUB DUP2 GT PUSH2 0x11A JUMPI PUSH2 0xC69 SWAP1 CALLDATASIZE SWAP1 PUSH1 0x4 ADD PUSH2 0x3E9B JUMP JUMPDEST PUSH2 0x104 CALLDATALOAD PUSH1 0x1 PUSH1 0x1 PUSH1 0x40 SHL SUB DUP2 GT PUSH2 0x11A JUMPI PUSH2 0xC89 SWAP1 CALLDATASIZE SWAP1 PUSH1 0x4 ADD PUSH2 0x3E9B JUMP JUMPDEST PUSH1 0x1 PUSH1 0x1 PUSH1 0x40 SHL SUB PUSH2 0x124 CALLDATALOAD GT PUSH2 0x11A JUMPI PUSH2 0xCAA CALLDATASIZE PUSH2 0x124 CALLDATALOAD PUSH1 0x4 ADD PUSH2 0x3E9B JUMP JUMPDEST PUSH1 0x1 PUSH1 0x1 PUSH1 0x40 SHL SUB PUSH2 0x164 CALLDATALOAD GT PUSH2 0x11A JUMPI PUSH2 0xCCB CALLDATASIZE PUSH2 0x164 CALLDATALOAD PUSH1 0x4 ADD PUSH2 0x3E9B JUMP JUMPDEST SWAP1 PUSH1 0x1 PUSH1 0x1 PUSH1 0x40 SHL SUB PUSH2 0x184 CALLDATALOAD GT PUSH2 0x11A JUMPI PUSH2 0xCED CALLDATASIZE PUSH2 0x184 CALLDATALOAD PUSH1 0x4 ADD PUSH2 0x3E9B JUMP JUMPDEST SWAP3 PUSH1 0x1 PUSH1 0x1 PUSH1 0x40 SHL SUB PUSH2 0x1A4 CALLDATALOAD GT PUSH2 0x11A JUMPI PUSH2 0xD0F CALLDATASIZE PUSH2 0x1A4 CALLDATALOAD PUSH1 0x4 ADD PUSH2 0x3E9B JUMP JUMPDEST SWAP5 PUSH1 0x1 PUSH1 0x1 PUSH1 0x40 SHL SUB PUSH2 0x1C4 CALLDATALOAD GT PUSH2 0x11A JUMPI PUSH2 0xD31 CALLDATASIZE PUSH2 0x1C4 CALLDATALOAD PUSH1 0x4 ADD PUSH2 0x3E9B JUMP JUMPDEST SWAP7 PUSH1 0x1 PUSH1 0x1 PUSH1 0x40 SHL SUB PUSH2 0x1E4 CALLDATALOAD GT PUSH2 0x11A JUMPI DUP14 SWAP9 PUSH2 0xD55 CALLDATASIZE PUSH2 0x1E4 CALLDATALOAD PUSH1 0x4 ADD PUSH2 0x3E9B JUMP JUMPDEST SWAP10 PUSH1 0x20 DUP2 MLOAD SWAP2 ADD KECCAK256 PUSH2 0xD65 PUSH2 0x400E JUMP JUMPDEST PUSH1 0x20 DUP2 MLOAD SWAP2 ADD KECCAK256 EQ PUSH2 0x1FFA JUMPI JUMPDEST PUSH1 0x1 PUSH1 0x1 PUSH1 0xA0 SHL SUB DUP15 AND PUSH1 0x0 SWAP1 DUP2 MSTORE PUSH1 0x1 PUSH1 0x20 MSTORE PUSH1 0x40 SWAP1 KECCAK256 SLOAD PUSH2 0xD94 SWAP1 PUSH2 0x3F3E JUMP JUMPDEST PUSH2 0x1FA9 JUMPI DUP15 DUP13 SWAP2 DUP15 PUSH1 0x40 MLOAD DUP1 DUP3 MLOAD DUP2 DUP2 PUSH1 0x20 DUP7 ADD SWAP2 PUSH2 0xDB2 SWAP3 PUSH2 0x3DFB JUMP JUMPDEST DUP2 ADD PUSH1 0x4 DUP2 MSTORE SUB PUSH1 0x20 ADD SWAP1 KECCAK256 SLOAD PUSH1 0xFF AND ISZERO PUSH2 0xDCC SWAP1 PUSH2 0x4052 JUMP JUMPDEST DUP3 MLOAD PUSH1 0x20 DUP5 ADD KECCAK256 PUSH2 0xDDB PUSH2 0x400E JUMP JUMPDEST DUP1 MLOAD SWAP1 PUSH1 0x20 ADD KECCAK256 EQ SWAP4 PUSH1 0x40 MLOAD SWAP15 DUP16 SWAP2 PUSH2 0xDF3 DUP4 PUSH2 0x3E43 JUMP JUMPDEST DUP3 MSTORE PUSH1 0x20 DUP3 ADD MSTORE PUSH1 0x40 ADD MSTORE PUSH1 0x60 DUP14 ADD MSTORE PUSH1 0x80 DUP13 ADD MSTORE PUSH1 0xA0 DUP12 ADD MSTORE PUSH1 0x40 MLOAD DUP1 PUSH1 0x20 DUP2 ADD LT PUSH1 0x20 DUP3 ADD PUSH1 0x1 PUSH1 0x1 PUSH1 0x40 SHL SUB LT OR PUSH2 0x3FB JUMPI PUSH1 0x20 DUP2 ADD PUSH1 0x40 MSTORE PUSH1 0x0 DUP2 MSTORE PUSH1 0xC0 DUP12 ADD MSTORE TIMESTAMP PUSH1 0xE0 DUP12 ADD MSTORE PUSH2 0x100 DUP11 ADD MSTORE PUSH2 0x120 DUP10 ADD MSTORE PUSH2 0x140 DUP9 ADD MSTORE PUSH2 0x160 DUP8 ADD MSTORE PUSH2 0x144 CALLDATALOAD PUSH2 0x180 DUP8 ADD MSTORE PUSH2 0x1A0 DUP7 ADD MSTORE PUSH2 0x1C0 DUP6 ADD MSTORE PUSH2 0x1E0 DUP5 ADD MSTORE PUSH2 0x200 DUP4 ADD MSTORE PUSH2 0x220 DUP3 ADD MSTORE PUSH1 0x1 DUP1 PUSH1 0xA0 SHL SUB DUP5 AND PUSH1 0x0 MSTORE PUSH1 0x1 PUSH1 0x20 MSTORE PUSH1 0x40 PUSH1 0x0 KECCAK256 SWAP1 DUP1 MLOAD DUP1 MLOAD SWAP1 PUSH1 0x1 PUSH1 0x1 PUSH1 0x40 SHL SUB DUP3 GT PUSH2 0x3FB JUMPI DUP2 SWAP1 PUSH2 0xEB4 DUP6 SLOAD PUSH2 0x3F3E JUMP JUMPDEST PUSH1 0x1F DUP2 GT PUSH2 0x1F77 JUMPI JUMPDEST POP PUSH1 0x20 SWAP1 PUSH1 0x1F DUP4 GT PUSH1 0x1 EQ PUSH2 0x1F0B JUMPI PUSH1 0x0 SWAP3 PUSH2 0x1F00 JUMPI JUMPDEST POP POP DUP2 PUSH1 0x1 SHL SWAP2 PUSH1 0x0 NOT SWAP1 PUSH1 0x3 SHL SHR NOT AND OR DUP3 SSTORE JUMPDEST PUSH1 0x20 DUP2 ADD MLOAD DUP1 MLOAD SWAP1 PUSH1 0x1 PUSH1 0x1 PUSH1 0x40 SHL SUB DUP3 GT PUSH2 0x3FB JUMPI DUP2 SWAP1 PUSH2 0xF0E PUSH1 0x1 DUP7 ADD SLOAD PUSH2 0x3F3E JUMP JUMPDEST PUSH1 0x1F DUP2 GT PUSH2 0x1ECB JUMPI JUMPDEST POP PUSH1 0x20 SWAP1 PUSH1 0x1F DUP4 GT PUSH1 0x1 EQ PUSH2 0x1E59 JUMPI PUSH1 0x0 SWAP3 PUSH2 0x1E4E JUMPI JUMPDEST POP POP DUP2 PUSH1 0x1 SHL SWAP2 PUSH1 0x0 NOT SWAP1 PUSH1 0x3 SHL SHR NOT AND OR PUSH1 0x1 DUP4 ADD SSTORE JUMPDEST PUSH1 0x40 DUP2 ADD MLOAD DUP1 MLOAD SWAP1 PUSH1 0x1 PUSH1 0x1 PUSH1 0x40 SHL SUB DUP3 GT PUSH2 0x3FB JUMPI DUP2 SWAP1 PUSH2 0xF6B PUSH1 0x2 DUP7 ADD SLOAD PUSH2 0x3F3E JUMP JUMPDEST PUSH1 0x1F DUP2 GT PUSH2 0x1E19 JUMPI JUMPDEST POP PUSH1 0x20 SWAP1 PUSH1 0x1F DUP4 GT PUSH1 0x1 EQ PUSH2 0x1DA7 JUMPI PUSH1 0x0 SWAP3 PUSH2 0x1D9C JUMPI JUMPDEST POP POP DUP2 PUSH1 0x1 SHL SWAP2 PUSH1 0x0 NOT SWAP1 PUSH1 0x3 SHL SHR NOT AND OR PUSH1 0x2 DUP4 ADD SSTORE JUMPDEST PUSH1 0x60 DUP2 ADD MLOAD DUP1 MLOAD SWAP1 PUSH1 0x1 PUSH1 0x1 PUSH1 0x40 SHL SUB DUP3 GT PUSH2 0x3FB JUMPI DUP2 SWAP1 PUSH2 0xFC8 PUSH1 0x3 DUP7 ADD SLOAD PUSH2 0x3F3E JUMP JUMPDEST PUSH1 0x1F DUP2 GT PUSH2 0x1D67 JUMPI JUMPDEST POP PUSH1 0x20 SWAP1 PUSH1 0x1F DUP4 GT PUSH1 0x1 EQ PUSH2 0x1CF5 JUMPI PUSH1 0x0 SWAP3 PUSH2 0x1CEA JUMPI JUMPDEST POP POP DUP2 PUSH1 0x1 SHL SWAP2 PUSH1 0x0 NOT SWAP1 PUSH1 0x3 SHL SHR NOT AND OR PUSH1 0x3 DUP4 ADD SSTORE JUMPDEST PUSH1 0x80 DUP2 ADD MLOAD DUP1 MLOAD SWAP1 PUSH1 0x1 PUSH1 0x1 PUSH1 0x40 SHL SUB DUP3 GT PUSH2 0x3FB JUMPI DUP2 SWAP1 PUSH2 0x1025 PUSH1 0x4 DUP7 ADD SLOAD PUSH2 0x3F3E JUMP JUMPDEST PUSH1 0x1F DUP2 GT PUSH2 0x1CB5 JUMPI JUMPDEST POP PUSH1 0x20 SWAP1 PUSH1 0x1F DUP4 GT PUSH1 0x1 EQ PUSH2 0x1C43 JUMPI PUSH1 0x0 SWAP3 PUSH2 0x1C38 JUMPI JUMPDEST POP POP DUP2 PUSH1 0x1 SHL SWAP2 PUSH1 0x0 NOT SWAP1 PUSH1 0x3 SHL SHR NOT AND OR PUSH1 0x4 DUP4 ADD SSTORE JUMPDEST PUSH2 0x107C PUSH1 0xA0 DUP3 ADD MLOAD ISZERO ISZERO PUSH1 0x5 DUP5 ADD SWAP1 PUSH1 0xFF DUP1 NOT DUP4 SLOAD AND SWAP2 ISZERO ISZERO AND OR SWAP1 SSTORE JUMP JUMPDEST PUSH1 0xC0 DUP2 ADD MLOAD DUP1 MLOAD SWAP1 PUSH1 0x1 PUSH1 0x1 PUSH1 0x40 SHL SUB DUP3 GT PUSH2 0x3FB JUMPI DUP2 SWAP1 PUSH2 0x10A1 PUSH1 0x6 DUP7 ADD SLOAD PUSH2 0x3F3E JUMP JUMPDEST PUSH1 0x1F DUP2 GT PUSH2 0x1C03 JUMPI JUMPDEST POP PUSH1 0x20 SWAP1 PUSH1 0x1F DUP4 GT PUSH1 0x1 EQ PUSH2 0x1B91 JUMPI PUSH1 0x0 SWAP3 PUSH2 0x1B86 JUMPI JUMPDEST POP POP DUP2 PUSH1 0x1 SHL SWAP2 PUSH1 0x0 NOT SWAP1 PUSH1 0x3 SHL SHR NOT AND OR PUSH1 0x6 DUP4 ADD SSTORE JUMPDEST PUSH1 0xE0 DUP2 ADD MLOAD PUSH1 0x7 DUP4 ADD SSTORE PUSH2 0x100 DUP2 ADD MLOAD DUP1 MLOAD SWAP1 PUSH1 0x1 PUSH1 0x1 PUSH1 0x40 SHL SUB DUP3 GT PUSH2 0x3FB JUMPI DUP2 SWAP1 PUSH2 0x1109 PUSH1 0x8 DUP7 ADD SLOAD PUSH2 0x3F3E JUMP JUMPDEST PUSH1 0x1F DUP2 GT PUSH2 0x1B51 JUMPI JUMPDEST POP PUSH1 0x20 SWAP1 PUSH1 0x1F DUP4 GT PUSH1 0x1 EQ PUSH2 0x1ADF JUMPI PUSH1 0x0 SWAP3 PUSH2 0x1AD4 JUMPI JUMPDEST POP POP DUP2 PUSH1 0x1 SHL SWAP2 PUSH1 0x0 NOT SWAP1 PUSH1 0x3 SHL SHR NOT AND OR PUSH1 0x8 DUP4 ADD SSTORE JUMPDEST PUSH2 0x120 DUP2 ADD MLOAD DUP1 MLOAD SWAP1 PUSH1 0x1 PUSH1 0x1 PUSH1 0x40 SHL SUB DUP3 GT PUSH2 0x3FB JUMPI DUP2 SWAP1 PUSH2 0x1167 PUSH1 0x9 DUP7 ADD SLOAD PUSH2 0x3F3E JUMP JUMPDEST PUSH1 0x1F DUP2 GT PUSH2 0x1A9F JUMPI JUMPDEST POP PUSH1 0x20 SWAP1 PUSH1 0x1F DUP4 GT PUSH1 0x1 EQ PUSH2 0x1A2D JUMPI PUSH1 0x0 SWAP3 PUSH2 0x1A22 JUMPI JUMPDEST POP POP DUP2 PUSH1 0x1 SHL SWAP2 PUSH1 0x0 NOT SWAP1 PUSH1 0x3 SHL SHR NOT AND OR PUSH1 0x9 DUP4 ADD SSTORE JUMPDEST PUSH2 0x140 DUP2 ADD MLOAD DUP1 MLOAD SWAP1 PUSH1 0x1 PUSH1 0x1 PUSH1 0x40 SHL SUB DUP3 GT PUSH2 0x3FB JUMPI DUP2 SWAP1 PUSH2 0x11C5 PUSH1 0xA DUP7 ADD SLOAD PUSH2 0x3F3E JUMP JUMPDEST PUSH1 0x1F DUP2 GT PUSH2 0x19ED JUMPI JUMPDEST POP PUSH1 0x20 SWAP1 PUSH1 0x1F DUP4 GT PUSH1 0x1 EQ PUSH2 0x197B JUMPI PUSH1 0x0 SWAP3 PUSH2 0x1970 JUMPI JUMPDEST POP POP DUP2 PUSH1 0x1 SHL SWAP2 PUSH1 0x0 NOT SWAP1 PUSH1 0x3 SHL SHR NOT AND OR PUSH1 0xA DUP4 ADD SSTORE JUMPDEST PUSH2 0x160 DUP2 ADD MLOAD DUP1 MLOAD SWAP1 PUSH1 0x1 PUSH1 0x1 PUSH1 0x40 SHL SUB DUP3 GT PUSH2 0x3FB JUMPI DUP2 SWAP1 PUSH2 0x1223 PUSH1 0xB DUP7 ADD SLOAD PUSH2 0x3F3E JUMP JUMPDEST PUSH1 0x1F DUP2 GT PUSH2 0x193B JUMPI JUMPDEST POP PUSH1 0x20 SWAP1 PUSH1 0x1F DUP4 GT PUSH1 0x1 EQ PUSH2 0x18C9 JUMPI PUSH1 0x0 SWAP3 PUSH2 0x18BE JUMPI JUMPDEST POP POP DUP2 PUSH1 0x1 SHL SWAP2 PUSH1 0x0 NOT SWAP1 PUSH1 0x3 SHL SHR NOT AND OR PUSH1 0xB DUP4 ADD SSTORE JUMPDEST PUSH2 0x180 DUP2 ADD MLOAD PUSH1 0xC DUP4 ADD SSTORE PUSH2 0x1A0 DUP2 ADD MLOAD DUP1 MLOAD SWAP1 PUSH1 0x1 PUSH1 0x1 PUSH1 0x40 SHL SUB DUP3 GT PUSH2 0x3FB JUMPI DUP2 SWAP1 PUSH2 0x128C PUSH1 0xD DUP7 ADD SLOAD PUSH2 0x3F3E JUMP JUMPDEST PUSH1 0x1F DUP2 GT PUSH2 0x1889 JUMPI JUMPDEST POP PUSH1 0x20 SWAP1 PUSH1 0x1F DUP4 GT PUSH1 0x1 EQ PUSH2 0x1817 JUMPI PUSH1 0x0 SWAP3 PUSH2 0x180C JUMPI JUMPDEST POP POP DUP2 PUSH1 0x1 SHL SWAP2 PUSH1 0x0 NOT SWAP1 PUSH1 0x3 SHL SHR NOT AND OR PUSH1 0xD DUP4 ADD SSTORE JUMPDEST PUSH2 0x1C0 DUP2 ADD MLOAD DUP1 MLOAD SWAP1 PUSH1 0x1 PUSH1 0x1 PUSH1 0x40 SHL SUB DUP3 GT PUSH2 0x3FB JUMPI DUP2 SWAP1 PUSH2 0x12EA PUSH1 0xE DUP7 ADD SLOAD PUSH2 0x3F3E JUMP JUMPDEST PUSH1 0x1F DUP2 GT PUSH2 0x17D7 JUMPI JUMPDEST POP PUSH1 0x20 SWAP1 PUSH1 0x1F DUP4 GT PUSH1 0x1 EQ PUSH2 0x1765 JUMPI PUSH1 0x0 SWAP3 PUSH2 0x175A JUMPI JUMPDEST POP POP DUP2 PUSH1 0x1 SHL SWAP2 PUSH1 0x0 NOT SWAP1 PUSH1 0x3 SHL SHR NOT AND OR PUSH1 0xE DUP4 ADD SSTORE JUMPDEST PUSH2 0x1E0 DUP2 ADD MLOAD DUP1 MLOAD SWAP1 PUSH1 0x1 PUSH1 0x1 PUSH1 0x40 SHL SUB DUP3 GT PUSH2 0x3FB JUMPI DUP2 SWAP1 PUSH2 0x1348 PUSH1 0xF DUP7 ADD SLOAD PUSH2 0x3F3E JUMP JUMPDEST PUSH1 0x1F DUP2 GT PUSH2 0x1725 JUMPI JUMPDEST POP PUSH1 0x20 SWAP1 PUSH1 0x1F DUP4 GT PUSH1 0x1 EQ PUSH2 0x16B3 JUMPI PUSH1 0x0 SWAP3 PUSH2 0x16A8 JUMPI JUMPDEST POP POP DUP2 PUSH1 0x1 SHL SWAP2 PUSH1 0x0 NOT SWAP1 PUSH1 0x3 SHL SHR NOT AND OR PUSH1 0xF DUP4 ADD SSTORE JUMPDEST PUSH2 0x200 DUP2 ADD MLOAD DUP1 MLOAD SWAP1 PUSH1 0x1 PUSH1 0x1 PUSH1 0x40 SHL SUB DUP3 GT PUSH2 0x3FB JUMPI PUSH2 0x13A4 PUSH1 0x10 DUP6 ADD SLOAD PUSH2 0x3F3E JUMP JUMPDEST PUSH1 0x1F DUP2 GT PUSH2 0x1673 JUMPI JUMPDEST POP PUSH1 0x20 SWAP1 PUSH1 0x1F DUP4 GT PUSH1 0x1 EQ PUSH2 0x15FF JUMPI PUSH2 0x220 SWAP4 SWAP3 SWAP2 PUSH1 0x0 SWAP2 DUP4 PUSH2 0x15F4 JUMPI JUMPDEST POP POP DUP2 PUSH1 0x1 SHL SWAP2 PUSH1 0x0 NOT SWAP1 PUSH1 0x3 SHL SHR NOT AND OR PUSH1 0x10 DUP5 ADD SSTORE JUMPDEST ADD MLOAD SWAP1 DUP2 MLOAD SWAP1 PUSH1 0x1 PUSH1 0x1 PUSH1 0x40 SHL SUB DUP3 GT PUSH2 0x3FB JUMPI PUSH1 0x11 DUP3 SWAP2 ADD SWAP3 PUSH2 0x1407 DUP5 SLOAD PUSH2 0x3F3E JUMP JUMPDEST PUSH1 0x1F DUP2 GT PUSH2 0x15C2 JUMPI JUMPDEST POP PUSH1 0x20 SWAP1 PUSH1 0x1F DUP4 GT PUSH1 0x1 EQ PUSH2 0x155C JUMPI PUSH1 0x0 SWAP3 PUSH2 0x1551 JUMPI JUMPDEST POP POP DUP2 PUSH1 0x1 SHL SWAP2 PUSH1 0x0 NOT SWAP1 PUSH1 0x3 SHL SHR NOT AND OR SWAP1 SSTORE JUMPDEST PUSH1 0x3 SLOAD SWAP2 PUSH9 0x10000000000000000 DUP4 LT ISZERO PUSH2 0x3FB JUMPI DUP4 PUSH2 0x1538 PUSH2 0x326 SWAP3 PUSH2 0x14B0 PUSH32 0x509C70F523067009F7DB7F46DB6956D7AF8B679323680DC3821A8BAD001AC1E1 SWAP8 PUSH2 0x1491 DUP9 PUSH1 0x1 PUSH2 0x152A SWAP11 ADD PUSH1 0x3 SSTORE PUSH2 0x3EF1 JUMP JUMPDEST SWAP1 SWAP2 SWAP1 DUP3 SLOAD SWAP1 PUSH1 0x3 SHL SWAP2 PUSH1 0x1 DUP1 PUSH1 0xA0 SHL SUB DUP1 SWAP2 AND DUP4 SHL SWAP3 SHL NOT AND OR SWAP1 SSTORE JUMP JUMPDEST PUSH1 0x40 MLOAD PUSH1 0x20 DUP2 DUP4 MLOAD PUSH2 0x14C5 DUP2 DUP4 DUP6 DUP9 ADD PUSH2 0x3DFB JUMP JUMPDEST PUSH1 0x2 SWAP1 DUP3 ADD SWAP1 DUP2 MSTORE SUB ADD SWAP1 KECCAK256 DUP1 SLOAD PUSH1 0x1 PUSH1 0x1 PUSH1 0xA0 SHL SUB NOT AND PUSH1 0x1 PUSH1 0x1 PUSH1 0xA0 SHL SUB DUP6 AND OR SWAP1 SSTORE PUSH1 0x40 MLOAD DUP2 MLOAD PUSH1 0x20 SWAP1 DUP3 SWAP1 PUSH2 0x1501 DUP2 DUP4 DUP8 DUP7 ADD PUSH2 0x3DFB JUMP JUMPDEST DUP2 ADD PUSH1 0x4 DUP2 MSTORE SUB ADD SWAP1 KECCAK256 PUSH1 0x1 PUSH1 0xFF NOT DUP3 SLOAD AND OR SWAP1 SSTORE PUSH1 0x40 MLOAD SWAP6 DUP7 SWAP6 PUSH1 0x60 DUP8 MSTORE PUSH1 0x60 DUP8 ADD SWAP1 PUSH2 0x3E1E JUMP JUMPDEST SWAP1 DUP6 DUP3 SUB PUSH1 0x20 DUP8 ADD MSTORE PUSH2 0x3E1E JUMP JUMPDEST DUP4 DUP2 SUB PUSH1 0x40 DUP6 ADD MSTORE PUSH1 0x1 PUSH1 0x1 PUSH1 0xA0 SHL SUB SWAP1 SWAP2 AND SWAP6 PUSH2 0x3E1E JUMP JUMPDEST ADD MLOAD SWAP1 POP DUP8 DUP1 PUSH2 0x1427 JUMP JUMPDEST PUSH1 0x0 DUP6 DUP2 MSTORE PUSH1 0x20 DUP2 KECCAK256 SWAP4 POP PUSH1 0x1F NOT DUP6 AND SWAP1 JUMPDEST DUP2 DUP2 LT PUSH2 0x15AA JUMPI POP SWAP1 DUP5 PUSH1 0x1 SWAP6 SWAP5 SWAP4 SWAP3 LT PUSH2 0x1591 JUMPI JUMPDEST POP POP POP DUP2 SHL ADD SWAP1 SSTORE PUSH2 0x143C JUMP JUMPDEST ADD MLOAD PUSH1 0x0 NOT PUSH1 0xF8 DUP5 PUSH1 0x3 SHL AND SHR NOT AND SWAP1 SSTORE DUP8 DUP1 DUP1 PUSH2 0x1584 JUMP JUMPDEST SWAP3 SWAP4 PUSH1 0x20 PUSH1 0x1 DUP2 SWAP3 DUP8 DUP7 ADD MLOAD DUP2 SSTORE ADD SWAP6 ADD SWAP4 ADD PUSH2 0x156E JUMP JUMPDEST PUSH2 0x15EE SWAP1 DUP6 PUSH1 0x0 MSTORE PUSH1 0x20 PUSH1 0x0 KECCAK256 PUSH1 0x1F DUP6 ADD PUSH1 0x5 SHR DUP2 ADD SWAP2 PUSH1 0x20 DUP7 LT PUSH2 0x3F1 JUMPI PUSH1 0x1F ADD PUSH1 0x5 SHR ADD SWAP1 PUSH2 0x409E JUMP JUMPDEST DUP9 PUSH2 0x1410 JUMP JUMPDEST ADD MLOAD SWAP1 POP DUP10 DUP1 PUSH2 0x13CB JUMP JUMPDEST SWAP1 PUSH1 0x10 DUP6 ADD PUSH1 0x0 MSTORE PUSH1 0x20 PUSH1 0x0 KECCAK256 SWAP2 PUSH1 0x0 JUMPDEST PUSH1 0x1F NOT DUP6 AND DUP2 LT PUSH2 0x165B JUMPI POP SWAP2 DUP4 SWAP2 PUSH1 0x1 SWAP4 PUSH2 0x220 SWAP7 SWAP6 PUSH1 0x1F NOT DUP2 AND LT PUSH2 0x1642 JUMPI JUMPDEST POP POP POP DUP2 SHL ADD PUSH1 0x10 DUP5 ADD SSTORE PUSH2 0x13E3 JUMP JUMPDEST ADD MLOAD PUSH1 0x0 NOT PUSH1 0xF8 DUP5 PUSH1 0x3 SHL AND SHR NOT AND SWAP1 SSTORE DUP10 DUP1 DUP1 PUSH2 0x1632 JUMP JUMPDEST SWAP2 SWAP3 PUSH1 0x20 PUSH1 0x1 DUP2 SWAP3 DUP7 DUP6 ADD MLOAD DUP2 SSTORE ADD SWAP5 ADD SWAP3 ADD PUSH2 0x1610 JUMP JUMPDEST PUSH2 0x16A2 SWAP1 PUSH1 0x10 DUP7 ADD PUSH1 0x0 MSTORE PUSH1 0x20 PUSH1 0x0 KECCAK256 PUSH1 0x1F DUP6 ADD PUSH1 0x5 SHR DUP2 ADD SWAP2 PUSH1 0x20 DUP7 LT PUSH2 0x3F1 JUMPI PUSH1 0x1F ADD PUSH1 0x5 SHR ADD SWAP1 PUSH2 0x409E JUMP JUMPDEST DUP9 PUSH2 0x13AD JUMP JUMPDEST ADD MLOAD SWAP1 POP DUP9 DUP1 PUSH2 0x1368 JUMP JUMPDEST SWAP3 POP PUSH1 0xF DUP6 ADD PUSH1 0x0 MSTORE PUSH1 0x20 PUSH1 0x0 KECCAK256 SWAP1 PUSH1 0x0 SWAP4 JUMPDEST PUSH1 0x1F NOT DUP5 AND DUP6 LT PUSH2 0x170A JUMPI PUSH1 0x1 SWAP5 POP DUP4 PUSH1 0x1F NOT DUP2 AND LT PUSH2 0x16F1 JUMPI JUMPDEST POP POP POP DUP2 SHL ADD PUSH1 0xF DUP4 ADD SSTORE PUSH2 0x1380 JUMP JUMPDEST ADD MLOAD PUSH1 0x0 NOT PUSH1 0xF8 DUP5 PUSH1 0x3 SHL AND SHR NOT AND SWAP1 SSTORE DUP9 DUP1 DUP1 PUSH2 0x16E1 JUMP JUMPDEST DUP2 DUP2 ADD MLOAD DUP4 SSTORE PUSH1 0x20 SWAP5 DUP6 ADD SWAP5 PUSH1 0x1 SWAP1 SWAP4 ADD SWAP3 SWAP1 SWAP2 ADD SWAP1 PUSH2 0x16C6 JUMP JUMPDEST PUSH2 0x1754 SWAP1 PUSH1 0xF DUP8 ADD PUSH1 0x0 MSTORE PUSH1 0x20 PUSH1 0x0 KECCAK256 PUSH1 0x1F DUP6 ADD PUSH1 0x5 SHR DUP2 ADD SWAP2 PUSH1 0x20 DUP7 LT PUSH2 0x3F1 JUMPI PUSH1 0x1F ADD PUSH1 0x5 SHR ADD SWAP1 PUSH2 0x409E JUMP JUMPDEST DUP10 PUSH2 0x1351 JUMP JUMPDEST ADD MLOAD SWAP1 POP DUP9 DUP1 PUSH2 0x130A JUMP JUMPDEST SWAP3 POP PUSH1 0xE DUP6 ADD PUSH1 0x0 MSTORE PUSH1 0x20 PUSH1 0x0 KECCAK256 SWAP1 PUSH1 0x0 SWAP4 JUMPDEST PUSH1 0x1F NOT DUP5 AND DUP6 LT PUSH2 0x17BC JUMPI PUSH1 0x1 SWAP5 POP DUP4 PUSH1 0x1F NOT DUP2 AND LT PUSH2 0x17A3 JUMPI JUMPDEST POP POP POP DUP2 SHL ADD PUSH1 0xE DUP4 ADD SSTORE PUSH2 0x1322 JUMP JUMPDEST ADD MLOAD PUSH1 0x0 NOT PUSH1 0xF8 DUP5 PUSH1 0x3 SHL AND SHR NOT AND SWAP1 SSTORE DUP9 DUP1 DUP1 PUSH2 0x1793 JUMP JUMPDEST DUP2 DUP2 ADD MLOAD DUP4 SSTORE PUSH1 0x20 SWAP5 DUP6 ADD SWAP5 PUSH1 0x1 SWAP1 SWAP4 ADD SWAP3 SWAP1 SWAP2 ADD SWAP1 PUSH2 0x1778 JUMP JUMPDEST PUSH2 0x1806 SWAP1 PUSH1 0xE DUP8 ADD PUSH1 0x0 MSTORE PUSH1 0x20 PUSH1 0x0 KECCAK256 PUSH1 0x1F DUP6 ADD PUSH1 0x5 SHR DUP2 ADD SWAP2 PUSH1 0x20 DUP7 LT PUSH2 0x3F1 JUMPI PUSH1 0x1F ADD PUSH1 0x5 SHR ADD SWAP1 PUSH2 0x409E JUMP JUMPDEST DUP10 PUSH2 0x12F3 JUMP JUMPDEST ADD MLOAD SWAP1 POP DUP9 DUP1 PUSH2 0x12AC JUMP JUMPDEST SWAP3 POP PUSH1 0xD DUP6 ADD PUSH1 0x0 MSTORE PUSH1 0x20 PUSH1 0x0 KECCAK256 SWAP1 PUSH1 0x0 SWAP4 JUMPDEST PUSH1 0x1F NOT DUP5 AND DUP6 LT PUSH2 0x186E JUMPI PUSH1 0x1 SWAP5 POP DUP4 PUSH1 0x1F NOT DUP2 AND LT PUSH2 0x1855 JUMPI JUMPDEST POP POP POP DUP2 SHL ADD PUSH1 0xD DUP4 ADD SSTORE PUSH2 0x12C4 JUMP JUMPDEST ADD MLOAD PUSH1 0x0 NOT PUSH1 0xF8 DUP5 PUSH1 0x3 SHL AND SHR NOT AND SWAP1 SSTORE DUP9 DUP1 DUP1 PUSH2 0x1845 JUMP JUMPDEST DUP2 DUP2 ADD MLOAD DUP4 SSTORE PUSH1 0x20 SWAP5 DUP6 ADD SWAP5 PUSH1 0x1 SWAP1 SWAP4 ADD SWAP3 SWAP1 SWAP2 ADD SWAP1 PUSH2 0x182A JUMP JUMPDEST PUSH2 0x18B8 SWAP1 PUSH1 0xD DUP8 ADD PUSH1 0x0 MSTORE PUSH1 0x20 PUSH1 0x0 KECCAK256 PUSH1 0x1F DUP6 ADD PUSH1 0x5 SHR DUP2 ADD SWAP2 PUSH1 0x20 DUP7 LT PUSH2 0x3F1 JUMPI PUSH1 0x1F ADD PUSH1 0x5 SHR ADD SWAP1 PUSH2 0x409E JUMP JUMPDEST DUP10 PUSH2 0x1295 JUMP JUMPDEST ADD MLOAD SWAP1 POP DUP9 DUP1 PUSH2 0x1243 JUMP JUMPDEST SWAP3 POP PUSH1 0xB DUP6 ADD PUSH1 0x0 MSTORE PUSH1 0x20 PUSH1 0x0 KECCAK256 SWAP1 PUSH1 0x0 SWAP4 JUMPDEST PUSH1 0x1F NOT DUP5 AND DUP6 LT PUSH2 0x1920 JUMPI PUSH1 0x1 SWAP5 POP DUP4 PUSH1 0x1F NOT DUP2 AND LT PUSH2 0x1907 JUMPI JUMPDEST POP POP POP DUP2 SHL ADD PUSH1 0xB DUP4 ADD SSTORE PUSH2 0x125B JUMP JUMPDEST ADD MLOAD PUSH1 0x0 NOT PUSH1 0xF8 DUP5 PUSH1 0x3 SHL AND SHR NOT AND SWAP1 SSTORE DUP9 DUP1 DUP1 PUSH2 0x18F7 JUMP JUMPDEST DUP2 DUP2 ADD MLOAD DUP4 SSTORE PUSH1 0x20 SWAP5 DUP6 ADD SWAP5 PUSH1 0x1 SWAP1 SWAP4 ADD SWAP3 SWAP1 SWAP2 ADD SWAP1 PUSH2 0x18DC JUMP JUMPDEST PUSH2 0x196A SWAP1 PUSH1 0xB DUP8 ADD PUSH1 0x0 MSTORE PUSH1 0x20 PUSH1 0x0 KECCAK256 PUSH1 0x1F DUP6 ADD PUSH1 0x5 SHR DUP2 ADD SWAP2 PUSH1 0x20 DUP7 LT PUSH2 0x3F1 JUMPI PUSH1 0x1F ADD PUSH1 0x5 SHR ADD SWAP1 PUSH2 0x409E JUMP JUMPDEST DUP10 PUSH2 0x122C JUMP JUMPDEST ADD MLOAD SWAP1 POP DUP9 DUP1 PUSH2 0x11E5 JUMP JUMPDEST SWAP3 POP PUSH1 0xA DUP6 ADD PUSH1 0x0 MSTORE PUSH1 0x20 PUSH1 0x0 KECCAK256 SWAP1 PUSH1 0x0 SWAP4 JUMPDEST PUSH1 0x1F NOT DUP5 AND DUP6 LT PUSH2 0x19D2 JUMPI PUSH1 0x1 SWAP5 POP DUP4 PUSH1 0x1F NOT DUP2 AND LT PUSH2 0x19B9 JUMPI JUMPDEST POP POP POP DUP2 SHL ADD PUSH1 0xA DUP4 ADD SSTORE PUSH2 0x11FD JUMP JUMPDEST ADD MLOAD PUSH1 0x0 NOT PUSH1 0xF8 DUP5 PUSH1 0x3 SHL AND SHR NOT AND SWAP1 SSTORE DUP9 DUP1 DUP1 PUSH2 0x19A9 JUMP JUMPDEST DUP2 DUP2 ADD MLOAD DUP4 SSTORE PUSH1 0x20 SWAP5 DUP6 ADD SWAP5 PUSH1 0x1 SWAP1 SWAP4 ADD SWAP3 SWAP1 SWAP2 ADD SWAP1 PUSH2 0x198E JUMP JUMPDEST PUSH2 0x1A1C SWAP1 PUSH1 0xA DUP8 ADD PUSH1 0x0 MSTORE PUSH1 0x20 PUSH1 0x0 KECCAK256 PUSH1 0x1F DUP6 ADD PUSH1 0x5 SHR DUP2 ADD SWAP2 PUSH1 0x20 DUP7 LT PUSH2 0x3F1 JUMPI PUSH1 0x1F ADD PUSH1 0x5 SHR ADD SWAP1 PUSH2 0x409E JUMP JUMPDEST DUP10 PUSH2 0x11CE JUMP JUMPDEST ADD MLOAD SWAP1 POP DUP9 DUP1 PUSH2 0x1187 JUMP JUMPDEST SWAP3 POP PUSH1 0x9 DUP6 ADD PUSH1 0x0 MSTORE PUSH1 0x20 PUSH1 0x0 KECCAK256 SWAP1 PUSH1 0x0 SWAP4 JUMPDEST PUSH1 0x1F NOT DUP5 AND DUP6 LT PUSH2 0x1A84 JUMPI PUSH1 0x1 SWAP5 POP DUP4 PUSH1 0x1F NOT DUP2 AND LT PUSH2 0x1A6B JUMPI JUMPDEST POP POP POP DUP2 SHL ADD PUSH1 0x9 DUP4 ADD SSTORE PUSH2 0x119F JUMP JUMPDEST ADD MLOAD PUSH1 0x0 NOT PUSH1 0xF8 DUP5 PUSH1 0x3 SHL AND SHR NOT AND SWAP1 SSTORE DUP9 DUP1 DUP1 PUSH2 0x1A5B JUMP JUMPDEST DUP2 DUP2 ADD MLOAD DUP4 SSTORE PUSH1 0x20 SWAP5 DUP6 ADD SWAP5 PUSH1 0x1 SWAP1 SWAP4 ADD SWAP3 SWAP1 SWAP2 ADD SWAP1 PUSH2 0x1A40 JUMP JUMPDEST PUSH2 0x1ACE SWAP1 PUSH1 0x9 DUP8 ADD PUSH1 0x0 MSTORE PUSH1 0x20 PUSH1 0x0 KECCAK256 PUSH1 0x1F DUP6 ADD PUSH1 0x5 SHR DUP2 ADD SWAP2 PUSH1 0x20 DUP7 LT PUSH2 0x3F1 JUMPI PUSH1 0x1F ADD PUSH1 0x5 SHR ADD SWAP1 PUSH2 0x409E JUMP JUMPDEST DUP10 PUSH2 0x1170 JUMP JUMPDEST ADD MLOAD SWAP1 POP DUP9 DUP1 PUSH2 0x1129 JUMP JUMPDEST SWAP3 POP PUSH1 0x8 DUP6 ADD PUSH1 0x0 MSTORE PUSH1 0x20 PUSH1 0x0 KECCAK256 SWAP1 PUSH1 0x0 SWAP4 JUMPDEST PUSH1 0x1F NOT DUP5 AND DUP6 LT PUSH2 0x1B36 JUMPI PUSH1 0x1 SWAP5 POP DUP4 PUSH1 0x1F NOT DUP2 AND LT PUSH2 0x1B1D JUMPI JUMPDEST POP POP POP DUP2 SHL ADD PUSH1 0x8 DUP4 ADD SSTORE PUSH2 0x1141 JUMP JUMPDEST ADD MLOAD PUSH1 0x0 NOT PUSH1 0xF8 DUP5 PUSH1 0x3 SHL AND SHR NOT AND SWAP1 SSTORE DUP9 DUP1 DUP1 PUSH2 0x1B0D JUMP JUMPDEST DUP2 DUP2 ADD MLOAD DUP4 SSTORE PUSH1 0x20 SWAP5 DUP6 ADD SWAP5 PUSH1 0x1 SWAP1 SWAP4 ADD SWAP3 SWAP1 SWAP2 ADD SWAP1 PUSH2 0x1AF2 JUMP JUMPDEST PUSH2 0x1B80 SWAP1 PUSH1 0x8 DUP8 ADD PUSH1 0x0 MSTORE PUSH1 0x20 PUSH1 0x0 KECCAK256 PUSH1 0x1F DUP6 ADD PUSH1 0x5 SHR DUP2 ADD SWAP2 PUSH1 0x20 DUP7 LT PUSH2 0x3F1 JUMPI PUSH1 0x1F ADD PUSH1 0x5 SHR ADD SWAP1 PUSH2 0x409E JUMP JUMPDEST DUP10 PUSH2 0x1112 JUMP JUMPDEST ADD MLOAD SWAP1 POP DUP9 DUP1 PUSH2 0x10C1 JUMP JUMPDEST SWAP3 POP PUSH1 0x6 DUP6 ADD PUSH1 0x0 MSTORE PUSH1 0x20 PUSH1 0x0 KECCAK256 SWAP1 PUSH1 0x0 SWAP4 JUMPDEST PUSH1 0x1F NOT DUP5 AND DUP6 LT PUSH2 0x1BE8 JUMPI PUSH1 0x1 SWAP5 POP DUP4 PUSH1 0x1F NOT DUP2 AND LT PUSH2 0x1BCF JUMPI JUMPDEST POP POP POP DUP2 SHL ADD PUSH1 0x6 DUP4 ADD SSTORE PUSH2 0x10D9 JUMP JUMPDEST ADD MLOAD PUSH1 0x0 NOT PUSH1 0xF8 DUP5 PUSH1 0x3 SHL AND SHR NOT AND SWAP1 SSTORE DUP9 DUP1 DUP1 PUSH2 0x1BBF JUMP JUMPDEST DUP2 DUP2 ADD MLOAD DUP4 SSTORE PUSH1 0x20 SWAP5 DUP6 ADD SWAP5 PUSH1 0x1 SWAP1 SWAP4 ADD SWAP3 SWAP1 SWAP2 ADD SWAP1 PUSH2 0x1BA4 JUMP JUMPDEST PUSH2 0x1C32 SWAP1 PUSH1 0x6 DUP8 ADD PUSH1 0x0 MSTORE PUSH1 0x20 PUSH1 0x0 KECCAK256 PUSH1 0x1F DUP6 ADD PUSH1 0x5 SHR DUP2 ADD SWAP2 PUSH1 0x20 DUP7 LT PUSH2 0x3F1 JUMPI PUSH1 0x1F ADD PUSH1 0x5 SHR ADD SWAP1 PUSH2 0x409E JUMP JUMPDEST DUP10 PUSH2 0x10AA JUMP JUMPDEST ADD MLOAD SWAP1 POP DUP9 DUP1 PUSH2 0x1045 JUMP JUMPDEST SWAP3 POP PUSH1 0x4 DUP6 ADD PUSH1 0x0 MSTORE PUSH1 0x20 PUSH1 0x0 KECCAK256 SWAP1 PUSH1 0x0 SWAP4 JUMPDEST PUSH1 0x1F NOT DUP5 AND DUP6 LT PUSH2 0x1C9A JUMPI PUSH1 0x1 SWAP5 POP DUP4 PUSH1 0x1F NOT DUP2 AND LT PUSH2 0x1C81 JUMPI JUMPDEST POP POP POP DUP2 SHL ADD PUSH1 0x4 DUP4 ADD SSTORE PUSH2 0x105D JUMP JUMPDEST ADD MLOAD PUSH1 0x0 NOT PUSH1 0xF8 DUP5 PUSH1 0x3 SHL AND SHR NOT AND SWAP1 SSTORE DUP9 DUP1 DUP1 PUSH2 0x1C71 JUMP JUMPDEST DUP2 DUP2 ADD MLOAD DUP4 SSTORE PUSH1 0x20 SWAP5 DUP6 ADD SWAP5 PUSH1 0x1 SWAP1 SWAP4 ADD SWAP3 SWAP1 SWAP2 ADD SWAP1 PUSH2 0x1C56 JUMP JUMPDEST PUSH2 0x1CE4 SWAP1 PUSH1 0x4 DUP8 ADD PUSH1 0x0 MSTORE PUSH1 0x20 PUSH1 0x0 KECCAK256 PUSH1 0x1F DUP6 ADD PUSH1 0x5 SHR DUP2 ADD SWAP2 PUSH1 0x20 DUP7 LT PUSH2 0x3F1 JUMPI PUSH1 0x1F ADD PUSH1 0x5 SHR ADD SWAP1 PUSH2 0x409E JUMP JUMPDEST DUP10 PUSH2 0x102E JUMP JUMPDEST ADD MLOAD SWAP1 POP DUP9 DUP1 PUSH2 0xFE8 JUMP JUMPDEST SWAP3 POP PUSH1 0x3 DUP6 ADD PUSH1 0x0 MSTORE PUSH1 0x20 PUSH1 0x0 KECCAK256 SWAP1 PUSH1 0x0 SWAP4 JUMPDEST PUSH1 0x1F NOT DUP5 AND DUP6 LT PUSH2 0x1D4C JUMPI PUSH1 0x1 SWAP5 POP DUP4 PUSH1 0x1F NOT DUP2 AND LT PUSH2 0x1D33 JUMPI JUMPDEST POP POP POP DUP2 SHL ADD PUSH1 0x3 DUP4 ADD SSTORE PUSH2 0x1000 JUMP JUMPDEST ADD MLOAD PUSH1 0x0 NOT PUSH1 0xF8 DUP5 PUSH1 0x3 SHL AND SHR NOT AND SWAP1 SSTORE DUP9 DUP1 DUP1 PUSH2 0x1D23 JUMP JUMPDEST DUP2 DUP2 ADD MLOAD DUP4 SSTORE PUSH1 0x20 SWAP5 DUP6 ADD SWAP5 PUSH1 0x1 SWAP1 SWAP4 ADD SWAP3 SWAP1 SWAP2 ADD SWAP1 PUSH2 0x1D08 JUMP JUMPDEST PUSH2 0x1D96 SWAP1 PUSH1 0x3 DUP8 ADD PUSH1 0x0 MSTORE PUSH1 0x20 PUSH1 0x0 KECCAK256 PUSH1 0x1F DUP6 ADD PUSH1 0x5 SHR DUP2 ADD SWAP2 PUSH1 0x20 DUP7 LT PUSH2 0x3F1 JUMPI PUSH1 0x1F ADD PUSH1 0x5 SHR ADD SWAP1 PUSH2 0x409E JUMP JUMPDEST DUP10 PUSH2 0xFD1 JUMP JUMPDEST ADD MLOAD SWAP1 POP DUP9 DUP1 PUSH2 0xF8B JUMP JUMPDEST SWAP3 POP PUSH1 0x2 DUP6 ADD PUSH1 0x0 MSTORE PUSH1 0x20 PUSH1 0x0 KECCAK256 SWAP1 PUSH1 0x0 SWAP4 JUMPDEST PUSH1 0x1F NOT DUP5 AND DUP6 LT PUSH2 0x1DFE JUMPI PUSH1 0x1 SWAP5 POP DUP4 PUSH1 0x1F NOT DUP2 AND LT PUSH2 0x1DE5 JUMPI JUMPDEST POP POP POP DUP2 SHL ADD PUSH1 0x2 DUP4 ADD SSTORE PUSH2 0xFA3 JUMP JUMPDEST ADD MLOAD PUSH1 0x0 NOT PUSH1 0xF8 DUP5 PUSH1 0x3 SHL AND SHR NOT AND SWAP1 SSTORE DUP9 DUP1 DUP1 PUSH2 0x1DD5 JUMP JUMPDEST DUP2 DUP2 ADD MLOAD DUP4 SSTORE PUSH1 0x20 SWAP5 DUP6 ADD SWAP5 PUSH1 0x1 SWAP1 SWAP4 ADD SWAP3 SWAP1 SWAP2 ADD SWAP1 PUSH2 0x1DBA JUMP JUMPDEST PUSH2 0x1E48 SWAP1 PUSH1 0x2 DUP8 ADD PUSH1 0x0 MSTORE PUSH1 0x20 PUSH1 0x0 KECCAK256 PUSH1 0x1F DUP6 ADD PUSH1 0x5 SHR DUP2 ADD SWAP2 PUSH1 0x20 DUP7 LT PUSH2 0x3F1 JUMPI PUSH1 0x1F ADD PUSH1 0x5 SHR ADD SWAP1 PUSH2 0x409E JUMP JUMPDEST DUP10 PUSH2 0xF74 JUMP JUMPDEST ADD MLOAD SWAP1 POP DUP9 DUP1 PUSH2 0xF2E JUMP JUMPDEST SWAP3 POP PUSH1 0x1 DUP6 ADD PUSH1 0x0 MSTORE PUSH1 0x20 PUSH1 0x0 KECCAK256 SWAP1 PUSH1 0x0 SWAP4 JUMPDEST PUSH1 0x1F NOT DUP5 AND DUP6 LT PUSH2 0x1EB0 JUMPI PUSH1 0x1 SWAP5 POP DUP4 PUSH1 0x1F NOT DUP2 AND LT PUSH2 0x1E97 JUMPI JUMPDEST POP POP POP DUP2 SHL ADD PUSH1 0x1 DUP4 ADD SSTORE PUSH2 0xF46 JUMP JUMPDEST ADD MLOAD PUSH1 0x0 NOT PUSH1 0xF8 DUP5 PUSH1 0x3 SHL AND SHR NOT AND SWAP1 SSTORE DUP9 DUP1 DUP1 PUSH2 0x1E87 JUMP JUMPDEST DUP2 DUP2 ADD MLOAD DUP4 SSTORE PUSH1 0x20 SWAP5 DUP6 ADD SWAP5 PUSH1 0x1 SWAP1 SWAP4 ADD SWAP3 SWAP1 SWAP2 ADD SWAP1 PUSH2 0x1E6C JUMP JUMPDEST PUSH2 0x1EFA SWAP1 PUSH1 0x1 DUP8 ADD PUSH1 0x0 MSTORE PUSH1 0x20 PUSH1 0x0 KECCAK256 PUSH1 0x1F DUP6 ADD PUSH1 0x5 SHR DUP2 ADD SWAP2 PUSH1 0x20 DUP7 LT PUSH2 0x3F1 JUMPI PUSH1 0x1F ADD PUSH1 0x5 SHR ADD SWAP1 PUSH2 0x409E JUMP JUMPDEST DUP10 PUSH2 0xF17 JUMP JUMPDEST ADD MLOAD SWAP1 POP DUP9 DUP1 PUSH2 0xED4 JUMP JUMPDEST SWAP3 POP DUP5 PUSH1 0x0 MSTORE PUSH1 0x20 PUSH1 0x0 KECCAK256 SWAP1 PUSH1 0x0 SWAP4 JUMPDEST PUSH1 0x1F NOT DUP5 AND DUP6 LT PUSH2 0x1F5C JUMPI PUSH1 0x1 SWAP5 POP DUP4 PUSH1 0x1F NOT DUP2 AND LT PUSH2 0x1F43 JUMPI JUMPDEST POP POP POP DUP2 SHL ADD DUP3 SSTORE PUSH2 0xEE9 JUMP JUMPDEST ADD MLOAD PUSH1 0x0 NOT PUSH1 0xF8 DUP5 PUSH1 0x3 SHL AND SHR NOT AND SWAP1 SSTORE DUP9 DUP1 DUP1 PUSH2 0x1F36 JUMP JUMPDEST DUP2 DUP2 ADD MLOAD DUP4 SSTORE PUSH1 0x20 SWAP5 DUP6 ADD SWAP5 PUSH1 0x1 SWAP1 SWAP4 ADD SWAP3 SWAP1 SWAP2 ADD SWAP1 PUSH2 0x1F1B JUMP JUMPDEST PUSH2 0x1FA3 SWAP1 DUP7 PUSH1 0x0 MSTORE PUSH1 0x20 PUSH1 0x0 KECCAK256 PUSH1 0x1F DUP6 ADD PUSH1 0x5 SHR DUP2 ADD SWAP2 PUSH1 0x20 DUP7 LT PUSH2 0x3F1 JUMPI PUSH1 0x1F ADD PUSH1 0x5 SHR ADD SWAP1 PUSH2 0x409E JUMP JUMPDEST DUP10 PUSH2 0xEBD JUMP JUMPDEST PUSH1 0x40 MLOAD PUSH3 0x461BCD PUSH1 0xE5 SHL DUP2 MSTORE PUSH1 0x20 PUSH1 0x4 DUP3 ADD MSTORE PUSH1 0x24 DUP1 DUP3 ADD MSTORE PUSH32 0x5573657220616C72656164792065786973747320666F72207468697320616464 PUSH1 0x44 DUP3 ADD MSTORE PUSH4 0x72657373 PUSH1 0xE0 SHL PUSH1 0x64 DUP3 ADD MSTORE PUSH1 0x84 SWAP1 REVERT JUMPDEST PUSH1 0x0 SLOAD PUSH1 0x1 PUSH1 0x1 PUSH1 0xA0 SHL SUB AND CALLER EQ DUP1 ISZERO PUSH2 0x2057 JUMPI JUMPDEST PUSH2 0xD72 JUMPI PUSH1 0x64 PUSH1 0x40 MLOAD PUSH3 0x461BCD PUSH1 0xE5 SHL DUP2 MSTORE PUSH1 0x20 PUSH1 0x4 DUP3 ADD MSTORE PUSH1 0x20 PUSH1 0x24 DUP3 ADD MSTORE PUSH32 0x4F6E6C792061646D696E2063616E207265676973746572206F66666963657273 PUSH1 0x44 DUP3 ADD MSTORE REVERT JUMPDEST POP CALLER PUSH1 0x0 MSTORE PUSH1 0x1 PUSH1 0x20 MSTORE PUSH2 0x438 PUSH2 0x207B PUSH1 0x4 PUSH1 0x40 PUSH1 0x0 KECCAK256 ADD PUSH1 0x40 MLOAD SWAP3 DUP4 DUP1 SWAP3 PUSH2 0x3F78 JUMP JUMPDEST PUSH1 0x20 DUP2 MLOAD SWAP2 ADD KECCAK256 PUSH2 0x208A PUSH2 0x4031 JUMP JUMPDEST PUSH1 0x20 DUP2 MLOAD SWAP2 ADD KECCAK256 EQ PUSH2 0x200F JUMP JUMPDEST CALLVALUE PUSH2 0x11A JUMPI PUSH1 0x20 DUP1 PUSH1 0x3 NOT CALLDATASIZE ADD SLT PUSH2 0x11A JUMPI PUSH2 0x20B1 PUSH2 0x3DE5 JUMP JUMPDEST SWAP1 PUSH2 0x2133 PUSH1 0x1 DUP1 PUSH1 0xA0 SHL SUB DUP1 SWAP4 DUP2 PUSH1 0x0 SLOAD AND CALLER EQ DUP1 ISZERO PUSH2 0x2392 JUMPI JUMPDEST PUSH2 0x20D5 SWAP1 PUSH2 0x40F7 JUMP JUMPDEST AND SWAP2 DUP3 PUSH1 0x0 MSTORE PUSH1 0x1 DUP1 SWAP5 DUP2 DUP4 MSTORE PUSH2 0x20F3 PUSH2 0x274 PUSH1 0x40 PUSH1 0x0 KECCAK256 SLOAD PUSH2 0x3F3E JUMP JUMPDEST DUP5 PUSH1 0x0 MSTORE DUP2 DUP4 MSTORE PUSH2 0x2182 DUP4 PUSH2 0x438 PUSH2 0x2118 PUSH1 0x2 PUSH1 0x40 PUSH1 0x0 KECCAK256 ADD PUSH1 0x40 MLOAD SWAP3 DUP4 DUP1 SWAP3 PUSH2 0x3F78 JUMP JUMPDEST DUP8 PUSH1 0x0 MSTORE DUP5 DUP3 MSTORE PUSH2 0x213A PUSH1 0x40 PUSH1 0x0 KECCAK256 PUSH1 0x40 MLOAD SWAP9 DUP10 DUP1 SWAP3 PUSH2 0x3F78 JUMP JUMPDEST SUB DUP9 PUSH2 0x3E7A JUMP JUMPDEST PUSH1 0x40 MLOAD SWAP1 DUP1 MLOAD SWAP2 DUP4 DUP2 DUP2 DUP5 ADD SWAP5 PUSH2 0x2152 DUP2 DUP4 DUP9 PUSH2 0x3DFB JUMP JUMPDEST DUP2 ADD PUSH1 0x2 DUP2 MSTORE SUB ADD SWAP1 KECCAK256 PUSH12 0xFFFFFFFFFFFFFFFFFFFFFFFF PUSH1 0xA0 SHL DUP2 SLOAD AND SWAP1 SSTORE PUSH1 0x40 MLOAD SWAP4 DUP5 SWAP3 DUP4 SWAP3 MLOAD SWAP3 DUP4 SWAP2 PUSH2 0x3DFB JUMP JUMPDEST DUP2 ADD PUSH1 0x4 DUP2 MSTORE SUB ADD SWAP1 KECCAK256 PUSH1 0xFF NOT DUP2 SLOAD AND SWAP1 SSTORE PUSH1 0x0 SWAP2 JUMPDEST PUSH2 0x22A6 JUMPI JUMPDEST POP POP PUSH2 0x2292 PUSH1 0x11 DUP5 SWAP6 PUSH32 0x89FCFA7C85BF81269953B23469028AFBDB9913B80AF31B7C931A42009FB252BD SWAP6 PUSH1 0x0 MSTORE DUP1 DUP5 MSTORE PUSH2 0x21E7 PUSH1 0x40 PUSH1 0x0 KECCAK256 SWAP2 PUSH2 0x21E0 DUP4 PUSH2 0x414D JUMP JUMPDEST DUP3 ADD PUSH2 0x414D JUMP JUMPDEST PUSH2 0x21F3 PUSH1 0x2 DUP3 ADD PUSH2 0x414D JUMP JUMPDEST PUSH2 0x21FF PUSH1 0x3 DUP3 ADD PUSH2 0x414D JUMP JUMPDEST PUSH2 0x220B PUSH1 0x4 DUP3 ADD PUSH2 0x414D JUMP JUMPDEST PUSH1 0x0 PUSH1 0x5 DUP3 ADD SSTORE PUSH2 0x221E PUSH1 0x6 DUP3 ADD PUSH2 0x414D JUMP JUMPDEST PUSH1 0x0 PUSH1 0x7 DUP3 ADD SSTORE PUSH2 0x2231 PUSH1 0x8 DUP3 ADD PUSH2 0x414D JUMP JUMPDEST PUSH2 0x223D PUSH1 0x9 DUP3 ADD PUSH2 0x414D JUMP JUMPDEST PUSH2 0x2249 PUSH1 0xA DUP3 ADD PUSH2 0x414D JUMP JUMPDEST PUSH2 0x2255 PUSH1 0xB DUP3 ADD PUSH2 0x414D JUMP JUMPDEST PUSH1 0x0 PUSH1 0xC DUP3 ADD SSTORE PUSH2 0x2268 PUSH1 0xD DUP3 ADD PUSH2 0x414D JUMP JUMPDEST PUSH2 0x2274 PUSH1 0xE DUP3 ADD PUSH2 0x414D JUMP JUMPDEST PUSH2 0x2280 PUSH1 0xF DUP3 ADD PUSH2 0x414D JUMP JUMPDEST PUSH2 0x228C PUSH1 0x10 DUP3 ADD PUSH2 0x414D JUMP JUMPDEST ADD PUSH2 0x414D JUMP JUMPDEST PUSH2 0x326 PUSH1 0x40 MLOAD SWAP3 DUP3 DUP5 SWAP4 DUP5 MSTORE DUP4 ADD SWAP1 PUSH2 0x3E1E JUMP JUMPDEST PUSH1 0x3 DUP1 SLOAD DUP1 DUP5 LT ISZERO PUSH2 0x238B JUMPI DUP7 DUP4 PUSH2 0x22BD DUP7 PUSH2 0x3EF1 JUMP JUMPDEST SWAP1 SLOAD SWAP1 DUP6 SHL SHR AND EQ PUSH2 0x22F4 JUMPI POP POP PUSH1 0x0 NOT DUP3 EQ PUSH2 0x22DE JUMPI DUP6 DUP1 SWAP3 ADD SWAP2 PUSH2 0x2198 JUMP JUMPDEST PUSH4 0x4E487B71 PUSH1 0xE0 SHL PUSH1 0x0 MSTORE PUSH1 0x11 PUSH1 0x4 MSTORE PUSH1 0x24 PUSH1 0x0 REVERT JUMPDEST SWAP6 SWAP7 SWAP1 SWAP6 PUSH1 0x0 NOT SWAP4 DUP2 DUP6 ADD SWAP2 DUP3 GT PUSH2 0x22DE JUMPI PUSH2 0x1491 DUP5 PUSH2 0x2316 PUSH2 0x2323 SWAP5 PUSH2 0x3EF1 JUMP JUMPDEST SWAP1 SLOAD SWAP1 DUP12 SHL SHR AND SWAP2 PUSH2 0x3EF1 JUMP JUMPDEST DUP6 SLOAD SWAP2 DUP3 ISZERO PUSH2 0x2375 JUMPI PUSH32 0x89FCFA7C85BF81269953B23469028AFBDB9913B80AF31B7C931A42009FB252BD SWAP7 PUSH2 0x2292 SWAP5 PUSH1 0x11 SWAP5 ADD SWAP2 PUSH2 0x2360 DUP4 PUSH2 0x3EF1 JUMP JUMPDEST SWAP1 SWAP2 DUP3 SLOAD SWAP2 DUP5 SHL SHL NOT AND SWAP1 SSTORE SSTORE SWAP6 SWAP5 POP PUSH2 0x219D JUMP JUMPDEST PUSH4 0x4E487B71 PUSH1 0xE0 SHL PUSH1 0x0 MSTORE PUSH1 0x31 PUSH1 0x4 MSTORE PUSH1 0x24 PUSH1 0x0 REVERT JUMPDEST POP POP PUSH2 0x219D JUMP JUMPDEST POP CALLER PUSH1 0x0 MSTORE PUSH1 0x1 DUP5 MSTORE PUSH2 0x20D5 PUSH2 0x438 PUSH2 0x23B8 PUSH1 0x4 PUSH1 0x40 PUSH1 0x0 KECCAK256 ADD PUSH1 0x40 MLOAD SWAP3 DUP4 DUP1 SWAP3 PUSH2 0x3F78 JUMP JUMPDEST DUP6 DUP2 MLOAD SWAP2 ADD KECCAK256 PUSH2 0x23C6 PUSH2 0x4031 JUMP JUMPDEST DUP7 DUP2 MLOAD SWAP2 ADD KECCAK256 EQ SWAP1 POP PUSH2 0x20CC JUMP JUMPDEST CALLVALUE PUSH2 0x11A JUMPI PUSH1 0x20 CALLDATASIZE PUSH1 0x3 NOT ADD SLT PUSH2 0x11A JUMPI PUSH2 0x23ED PUSH2 0x3DE5 JUMP JUMPDEST PUSH1 0x0 SLOAD SWAP1 PUSH1 0x1 PUSH1 0x1 PUSH1 0xA0 SHL SUB SWAP1 CALLER DUP3 DUP5 AND EQ DUP1 ISZERO PUSH2 0x245E JUMPI JUMPDEST PUSH2 0x240F SWAP1 PUSH2 0x40F7 JUMP JUMPDEST AND SWAP1 DUP2 ISZERO PUSH2 0x2427 JUMPI PUSH1 0x1 PUSH1 0x1 PUSH1 0xA0 SHL SUB NOT AND OR PUSH1 0x0 SSTORE STOP JUMPDEST PUSH1 0x40 MLOAD PUSH3 0x461BCD PUSH1 0xE5 SHL DUP2 MSTORE PUSH1 0x20 PUSH1 0x4 DUP3 ADD MSTORE PUSH1 0xF PUSH1 0x24 DUP3 ADD MSTORE PUSH15 0x496E76616C69642061646472657373 PUSH1 0x88 SHL PUSH1 0x44 DUP3 ADD MSTORE PUSH1 0x64 SWAP1 REVERT JUMPDEST POP CALLER PUSH1 0x0 MSTORE PUSH1 0x1 PUSH1 0x20 MSTORE PUSH2 0x240F PUSH2 0x438 PUSH2 0x2485 PUSH1 0x4 PUSH1 0x40 PUSH1 0x0 KECCAK256 ADD PUSH1 0x40 MLOAD SWAP3 DUP4 DUP1 SWAP3 PUSH2 0x3F78 JUMP JUMPDEST PUSH1 0x20 DUP2 MLOAD SWAP2 ADD KECCAK256 PUSH2 0x2494 PUSH2 0x4031 JUMP JUMPDEST PUSH1 0x20 DUP2 MLOAD SWAP2 ADD KECCAK256 EQ SWAP1 POP PUSH2 0x2406 JUMP JUMPDEST CALLVALUE PUSH2 0x11A JUMPI PUSH1 0x20 CALLDATASIZE PUSH1 0x3 NOT ADD SLT PUSH2 0x11A JUMPI PUSH1 0x1 PUSH1 0x1 PUSH1 0xA0 SHL SUB PUSH2 0x24C4 PUSH2 0x3DE5 JUMP JUMPDEST AND PUSH1 0x0 MSTORE PUSH1 0x1 PUSH1 0x20 MSTORE PUSH1 0x40 PUSH1 0x0 KECCAK256 PUSH1 0x40 MLOAD SWAP1 PUSH2 0x24DF DUP3 PUSH2 0x3E43 JUMP JUMPDEST PUSH1 0x40 MLOAD DUP1 PUSH2 0x24ED DUP2 DUP5 PUSH2 0x3F78 JUMP JUMPDEST SUB PUSH2 0x24F8 SWAP1 DUP3 PUSH2 0x3E7A JUMP JUMPDEST DUP3 MSTORE PUSH1 0x40 MLOAD SWAP2 DUP3 PUSH2 0x250C DUP2 PUSH1 0x1 DUP6 ADD PUSH2 0x3F78 JUMP JUMPDEST SUB PUSH2 0x2517 SWAP1 DUP5 PUSH2 0x3E7A JUMP JUMPDEST PUSH1 0x20 DUP2 ADD SWAP3 DUP4 MSTORE PUSH1 0x40 MLOAD SWAP1 DUP2 PUSH2 0x2530 DUP2 PUSH1 0x2 DUP7 ADD PUSH2 0x3F78 JUMP JUMPDEST SUB PUSH2 0x253B SWAP1 DUP4 PUSH2 0x3E7A JUMP JUMPDEST PUSH1 0x40 DUP2 DUP2 ADD SWAP3 DUP4 MSTORE MLOAD DUP1 PUSH2 0x2552 DUP2 PUSH1 0x3 DUP8 ADD PUSH2 0x3F78 JUMP JUMPDEST SUB PUSH2 0x255D SWAP1 DUP3 PUSH2 0x3E7A JUMP JUMPDEST PUSH1 0x60 DUP3 ADD SWAP1 DUP2 MSTORE PUSH1 0x40 MLOAD DUP1 PUSH2 0x2575 DUP2 PUSH1 0x4 DUP9 ADD PUSH2 0x3F78 JUMP JUMPDEST SUB PUSH2 0x2580 SWAP1 DUP3 PUSH2 0x3E7A JUMP JUMPDEST PUSH1 0x80 DUP4 ADD SWAP1 DUP2 MSTORE PUSH1 0x5 DUP6 ADD SLOAD PUSH1 0xFF AND SWAP1 PUSH1 0xA0 DUP5 ADD SWAP2 ISZERO ISZERO DUP3 MSTORE PUSH1 0x40 MLOAD SWAP3 DUP4 DUP1 PUSH1 0x6 DUP10 ADD SWAP1 PUSH2 0x25AD SWAP2 PUSH2 0x3F78 JUMP JUMPDEST SUB PUSH2 0x25B8 SWAP1 DUP6 PUSH2 0x3E7A JUMP JUMPDEST PUSH1 0xC0 DUP6 ADD SWAP4 DUP5 MSTORE PUSH1 0x7 DUP8 ADD SLOAD SWAP5 PUSH1 0xE0 DUP2 ADD SWAP6 DUP7 MSTORE PUSH1 0x40 MLOAD SWAP8 DUP9 DUP1 PUSH1 0x8 DUP4 ADD SWAP1 PUSH2 0x25E0 SWAP2 PUSH2 0x3F78 JUMP JUMPDEST SUB PUSH2 0x25EB SWAP1 DUP11 PUSH2 0x3E7A JUMP JUMPDEST PUSH2 0x100 SWAP9 DUP10 DUP4 ADD MSTORE PUSH1 0x40 MLOAD DUP1 DUP1 PUSH1 0x9 DUP5 ADD SWAP1 PUSH2 0x2606 SWAP2 PUSH2 0x3F78 JUMP JUMPDEST SUB PUSH2 0x2611 SWAP1 DUP3 PUSH2 0x3E7A JUMP JUMPDEST PUSH2 0x120 DUP4 ADD MSTORE PUSH1 0x40 MLOAD DUP1 PUSH2 0x2628 DUP2 PUSH1 0xA DUP6 ADD PUSH2 0x3F78 JUMP JUMPDEST SUB PUSH2 0x2633 SWAP1 DUP3 PUSH2 0x3E7A JUMP JUMPDEST PUSH2 0x140 DUP4 ADD MSTORE PUSH1 0x40 MLOAD DUP1 PUSH2 0x264A DUP2 PUSH1 0xB DUP6 ADD PUSH2 0x3F78 JUMP JUMPDEST SUB PUSH2 0x2655 SWAP1 DUP3 PUSH2 0x3E7A JUMP JUMPDEST PUSH2 0x160 DUP4 ADD MSTORE PUSH1 0xC DUP2 ADD SLOAD PUSH2 0x180 DUP4 ADD MSTORE PUSH1 0x40 MLOAD DUP1 PUSH2 0x2677 DUP2 PUSH1 0xD DUP6 ADD PUSH2 0x3F78 JUMP JUMPDEST SUB PUSH2 0x2682 SWAP1 DUP3 PUSH2 0x3E7A JUMP JUMPDEST PUSH2 0x1A0 DUP4 ADD MSTORE PUSH1 0x40 MLOAD DUP1 PUSH2 0x2699 DUP2 PUSH1 0xE DUP6 ADD PUSH2 0x3F78 JUMP JUMPDEST SUB PUSH2 0x26A4 SWAP1 DUP3 PUSH2 0x3E7A JUMP JUMPDEST PUSH2 0x1C0 DUP4 ADD MSTORE PUSH1 0x40 MLOAD DUP1 PUSH2 0x26BB DUP2 PUSH1 0xF DUP6 ADD PUSH2 0x3F78 JUMP JUMPDEST SUB PUSH2 0x26C6 SWAP1 DUP3 PUSH2 0x3E7A JUMP JUMPDEST PUSH2 0x1E0 DUP4 ADD MSTORE PUSH1 0x40 MLOAD DUP1 PUSH2 0x26DD DUP2 PUSH1 0x10 DUP6 ADD PUSH2 0x3F78 JUMP JUMPDEST SUB PUSH2 0x26E8 SWAP1 DUP3 PUSH2 0x3E7A JUMP JUMPDEST PUSH2 0x200 DUP4 ADD MSTORE PUSH1 0x40 MLOAD DUP1 PUSH1 0x11 DUP2 SWAP4 ADD SWAP1 PUSH2 0x2701 SWAP2 PUSH2 0x3F78 JUMP JUMPDEST SUB PUSH2 0x270C SWAP1 DUP3 PUSH2 0x3E7A JUMP JUMPDEST PUSH2 0x220 DUP3 ADD MSTORE MLOAD SWAP8 MLOAD SWAP6 MLOAD SWAP1 MLOAD SWAP2 MLOAD SWAP3 MLOAD ISZERO ISZERO SWAP4 MLOAD SWAP5 MLOAD SWAP6 PUSH1 0x40 MLOAD SWAP9 DUP9 DUP11 SWAP10 DUP11 MSTORE DUP10 ADD PUSH2 0x2738 SWAP2 PUSH2 0x3E1E JUMP JUMPDEST DUP9 DUP2 SUB PUSH1 0x20 DUP11 ADD MSTORE PUSH2 0xAE3 SWAP2 PUSH2 0x3E1E JUMP JUMPDEST CALLVALUE PUSH2 0x11A JUMPI PUSH1 0x20 CALLDATASIZE PUSH1 0x3 NOT ADD SLT PUSH2 0x11A JUMPI PUSH1 0x1 PUSH1 0x1 PUSH1 0xA0 SHL SUB PUSH2 0x276A PUSH2 0x3DE5 JUMP JUMPDEST AND PUSH1 0x0 MSTORE PUSH1 0x1 PUSH1 0x20 MSTORE PUSH1 0x20 PUSH2 0x438 PUSH2 0x278F PUSH1 0x4 PUSH1 0x40 PUSH1 0x0 KECCAK256 ADD PUSH1 0x40 MLOAD SWAP3 DUP4 DUP1 SWAP3 PUSH2 0x3F78 JUMP JUMPDEST DUP2 DUP2 MLOAD SWAP2 ADD KECCAK256 PUSH2 0x279D PUSH2 0x400E JUMP JUMPDEST DUP3 DUP2 MLOAD SWAP2 ADD KECCAK256 EQ PUSH1 0x40 MLOAD SWAP1 DUP2 MSTORE RETURN JUMPDEST CALLVALUE PUSH2 0x11A JUMPI PUSH1 0x20 CALLDATASIZE PUSH1 0x3 NOT ADD SLT PUSH2 0x11A JUMPI PUSH1 0x4 CALLDATALOAD PUSH1 0x3 SLOAD DUP2 LT ISZERO PUSH2 0x11A JUMPI PUSH2 0x27D5 PUSH1 0x20 SWAP2 PUSH2 0x3EF1 JUMP JUMPDEST SWAP1 SLOAD PUSH1 0x40 MLOAD PUSH1 0x3 SWAP3 SWAP1 SWAP3 SHL SHR PUSH1 0x1 PUSH1 0x1 PUSH1 0xA0 SHL SUB AND DUP2 MSTORE RETURN JUMPDEST CALLVALUE PUSH2 0x11A JUMPI PUSH1 0x20 CALLDATASIZE PUSH1 0x3 NOT ADD SLT PUSH2 0x11A JUMPI PUSH1 0x1 PUSH1 0x1 PUSH1 0xA0 SHL SUB PUSH2 0x280F PUSH2 0x3DE5 JUMP JUMPDEST AND PUSH1 0x0 MSTORE PUSH1 0x1 PUSH1 0x20 MSTORE PUSH1 0x20 PUSH2 0x2828 PUSH1 0x40 PUSH1 0x0 KECCAK256 SLOAD PUSH2 0x3F3E JUMP JUMPDEST ISZERO ISZERO PUSH1 0x40 MLOAD SWAP1 DUP2 MSTORE RETURN JUMPDEST CALLVALUE PUSH2 0x11A JUMPI PUSH2 0x160 CALLDATASIZE PUSH1 0x3 NOT ADD SLT PUSH2 0x11A JUMPI PUSH2 0x284C PUSH2 0x3DE5 JUMP JUMPDEST PUSH1 0x24 CALLDATALOAD PUSH1 0x1 PUSH1 0x1 PUSH1 0x40 SHL SUB DUP2 GT PUSH2 0x11A JUMPI PUSH2 0x286B SWAP1 CALLDATASIZE SWAP1 PUSH1 0x4 ADD PUSH2 0x3E9B JUMP JUMPDEST PUSH1 0x44 CALLDATALOAD PUSH1 0x1 PUSH1 0x1 PUSH1 0x40 SHL SUB DUP2 GT PUSH2 0x11A JUMPI PUSH2 0x288A SWAP1 CALLDATASIZE SWAP1 PUSH1 0x4 ADD PUSH2 0x3E9B JUMP JUMPDEST SWAP2 PUSH1 0x64 CALLDATALOAD PUSH1 0x1 PUSH1 0x1 PUSH1 0x40 SHL SUB DUP2 GT PUSH2 0x11A JUMPI PUSH2 0x28AA SWAP1 CALLDATASIZE SWAP1 PUSH1 0x4 ADD PUSH2 0x3E9B JUMP JUMPDEST PUSH1 0x84 CALLDATALOAD PUSH1 0x1 PUSH1 0x1 PUSH1 0x40 SHL SUB DUP2 GT PUSH2 0x11A JUMPI PUSH2 0x28C9 SWAP1 CALLDATASIZE SWAP1 PUSH1 0x4 ADD PUSH2 0x3E9B JUMP JUMPDEST PUSH1 0xC4 CALLDATALOAD PUSH1 0x1 PUSH1 0x1 PUSH1 0x40 SHL SUB DUP2 GT PUSH2 0x11A JUMPI PUSH2 0x28E8 SWAP1 CALLDATASIZE SWAP1 PUSH1 0x4 ADD PUSH2 0x3E9B JUMP JUMPDEST PUSH1 0xE4 CALLDATALOAD PUSH1 0x1 PUSH1 0x1 PUSH1 0x40 SHL SUB DUP2 GT PUSH2 0x11A JUMPI PUSH2 0x2907 SWAP1 CALLDATASIZE SWAP1 PUSH1 0x4 ADD PUSH2 0x3E9B JUMP JUMPDEST SWAP1 PUSH2 0x104 CALLDATALOAD PUSH1 0x1 PUSH1 0x1 PUSH1 0x40 SHL SUB DUP2 GT PUSH2 0x11A JUMPI PUSH2 0x2928 SWAP1 CALLDATASIZE SWAP1 PUSH1 0x4 ADD PUSH2 0x3E9B JUMP JUMPDEST SWAP3 PUSH2 0x124 CALLDATALOAD PUSH1 0x1 PUSH1 0x1 PUSH1 0x40 SHL SUB DUP2 GT PUSH2 0x11A JUMPI PUSH2 0x2949 SWAP1 CALLDATASIZE SWAP1 PUSH1 0x4 ADD PUSH2 0x3E9B JUMP JUMPDEST SWAP5 PUSH2 0x144 CALLDATALOAD PUSH1 0x1 PUSH1 0x1 PUSH1 0x40 SHL SUB DUP2 GT PUSH2 0x11A JUMPI PUSH2 0x296A SWAP1 CALLDATASIZE SWAP1 PUSH1 0x4 ADD PUSH2 0x3E9B JUMP JUMPDEST SWAP9 PUSH1 0x1 DUP1 PUSH1 0xA0 SHL SUB DUP9 AND PUSH1 0x0 MSTORE PUSH1 0x1 PUSH1 0x20 MSTORE PUSH2 0x298D PUSH2 0x274 PUSH1 0x40 PUSH1 0x0 KECCAK256 SLOAD PUSH2 0x3F3E JUMP JUMPDEST PUSH1 0x0 SLOAD PUSH1 0x1 PUSH1 0x1 PUSH1 0xA0 SHL SUB AND CALLER EQ DUP1 ISZERO PUSH2 0x33D1 JUMPI JUMPDEST DUP1 ISZERO PUSH2 0x33BF JUMPI JUMPDEST ISZERO PUSH2 0x3354 JUMPI PUSH1 0x1 PUSH1 0x1 PUSH1 0xA0 SHL SUB DUP9 AND PUSH1 0x0 SWAP1 DUP2 MSTORE PUSH1 0x1 PUSH1 0x20 MSTORE PUSH1 0x40 SWAP1 KECCAK256 DUP10 MLOAD SWAP1 SWAP10 PUSH1 0x1 PUSH1 0x1 PUSH1 0x40 SHL SUB DUP3 GT PUSH2 0x3FB JUMPI DUP2 SWAP1 DUP12 PUSH2 0x29E8 PUSH1 0x8 DUP3 ADD SLOAD PUSH2 0x3F3E JUMP JUMPDEST PUSH1 0x1F DUP2 GT PUSH2 0x331F JUMPI JUMPDEST POP POP PUSH1 0x20 SWAP1 PUSH1 0x1F DUP4 GT PUSH1 0x1 EQ PUSH2 0x32AD JUMPI PUSH1 0x0 SWAP3 PUSH2 0x32A2 JUMPI JUMPDEST POP POP DUP2 PUSH1 0x1 SHL SWAP2 PUSH1 0x0 NOT SWAP1 PUSH1 0x3 SHL SHR NOT AND OR PUSH1 0x8 DUP11 ADD SSTORE JUMPDEST DUP1 MLOAD SWAP1 PUSH1 0x1 PUSH1 0x1 PUSH1 0x40 SHL SUB DUP3 GT PUSH2 0x3FB JUMPI DUP2 SWAP1 PUSH2 0x2A41 PUSH1 0x9 DUP13 ADD SLOAD PUSH2 0x3F3E JUMP JUMPDEST PUSH1 0x1F DUP2 GT PUSH2 0x326D JUMPI JUMPDEST POP PUSH1 0x20 SWAP1 PUSH1 0x1F DUP4 GT PUSH1 0x1 EQ PUSH2 0x31FB JUMPI PUSH1 0x0 SWAP3 PUSH2 0x31F0 JUMPI JUMPDEST POP POP DUP2 PUSH1 0x1 SHL SWAP2 PUSH1 0x0 NOT SWAP1 PUSH1 0x3 SHL SHR NOT AND OR PUSH1 0x9 DUP10 ADD SSTORE JUMPDEST DUP1 MLOAD SWAP1 PUSH1 0x1 PUSH1 0x1 PUSH1 0x40 SHL SUB DUP3 GT PUSH2 0x3FB JUMPI DUP2 SWAP1 PUSH2 0x2A99 PUSH1 0xA DUP12 ADD SLOAD PUSH2 0x3F3E JUMP JUMPDEST PUSH1 0x1F DUP2 GT PUSH2 0x31BB JUMPI JUMPDEST POP PUSH1 0x20 SWAP1 PUSH1 0x1F DUP4 GT PUSH1 0x1 EQ PUSH2 0x3149 JUMPI PUSH1 0x0 SWAP3 PUSH2 0x313E JUMPI JUMPDEST POP POP DUP2 PUSH1 0x1 SHL SWAP2 PUSH1 0x0 NOT SWAP1 PUSH1 0x3 SHL SHR NOT AND OR PUSH1 0xA DUP9 ADD SSTORE JUMPDEST DUP1 MLOAD SWAP1 PUSH1 0x1 PUSH1 0x1 PUSH1 0x40 SHL SUB DUP3 GT PUSH2 0x3FB JUMPI DUP2 SWAP1 PUSH2 0x2AF1 PUSH1 0xB DUP11 ADD SLOAD PUSH2 0x3F3E JUMP JUMPDEST PUSH1 0x1F DUP2 GT PUSH2 0x3109 JUMPI JUMPDEST POP PUSH1 0x20 SWAP1 PUSH1 0x1F DUP4 GT PUSH1 0x1 EQ PUSH2 0x3097 JUMPI PUSH1 0x0 SWAP3 PUSH2 0x308C JUMPI JUMPDEST POP POP DUP2 PUSH1 0x1 SHL SWAP2 PUSH1 0x0 NOT SWAP1 PUSH1 0x3 SHL SHR NOT AND OR PUSH1 0xB DUP8 ADD SSTORE JUMPDEST PUSH1 0xA4 CALLDATALOAD PUSH1 0xC DUP8 ADD SSTORE DUP1 MLOAD SWAP1 PUSH1 0x1 PUSH1 0x1 PUSH1 0x40 SHL SUB DUP3 GT PUSH2 0x3FB JUMPI DUP2 SWAP1 PUSH2 0x2B51 PUSH1 0xD DUP10 ADD SLOAD PUSH2 0x3F3E JUMP JUMPDEST PUSH1 0x1F DUP2 GT PUSH2 0x3057 JUMPI JUMPDEST POP PUSH1 0x20 SWAP1 PUSH1 0x1F DUP4 GT PUSH1 0x1 EQ PUSH2 0x2FE5 JUMPI PUSH1 0x0 SWAP3 PUSH2 0x2FDA JUMPI JUMPDEST POP POP DUP2 PUSH1 0x1 SHL SWAP2 PUSH1 0x0 NOT SWAP1 PUSH1 0x3 SHL SHR NOT AND OR PUSH1 0xD DUP7 ADD SSTORE JUMPDEST DUP1 MLOAD SWAP1 PUSH1 0x1 PUSH1 0x1 PUSH1 0x40 SHL SUB DUP3 GT PUSH2 0x3FB JUMPI DUP2 SWAP1 PUSH2 0x2BA9 PUSH1 0xE DUP9 ADD SLOAD PUSH2 0x3F3E JUMP JUMPDEST PUSH1 0x1F DUP2 GT PUSH2 0x2FA5 JUMPI JUMPDEST POP PUSH1 0x20 SWAP1 PUSH1 0x1F DUP4 GT PUSH1 0x1 EQ PUSH2 0x2F33 JUMPI PUSH1 0x0 SWAP3 PUSH2 0x2F28 JUMPI JUMPDEST POP POP DUP2 PUSH1 0x1 SHL SWAP2 PUSH1 0x0 NOT SWAP1 PUSH1 0x3 SHL SHR NOT AND OR PUSH1 0xE DUP6 ADD SSTORE JUMPDEST DUP1 MLOAD SWAP1 PUSH1 0x1 PUSH1 0x1 PUSH1 0x40 SHL SUB DUP3 GT PUSH2 0x3FB JUMPI DUP2 SWAP1 PUSH2 0x2C01 PUSH1 0xF DUP8 ADD SLOAD PUSH2 0x3F3E JUMP JUMPDEST PUSH1 0x1F DUP2 GT PUSH2 0x2EF3 JUMPI JUMPDEST POP PUSH1 0x20 SWAP1 PUSH1 0x1F DUP4 GT PUSH1 0x1 EQ PUSH2 0x2E81 JUMPI PUSH1 0x0 SWAP3 PUSH2 0x2E76 JUMPI JUMPDEST POP POP DUP2 PUSH1 0x1 SHL SWAP2 PUSH1 0x0 NOT SWAP1 PUSH1 0x3 SHL SHR NOT AND OR PUSH1 0xF DUP5 ADD SSTORE JUMPDEST DUP1 MLOAD PUSH1 0x10 DUP5 ADD SWAP2 PUSH1 0x1 PUSH1 0x1 PUSH1 0x40 SHL SUB DUP3 GT PUSH2 0x3FB JUMPI DUP2 SWAP1 PUSH2 0x2C5A DUP5 SLOAD PUSH2 0x3F3E JUMP JUMPDEST PUSH1 0x1F DUP2 GT PUSH2 0x2E44 JUMPI JUMPDEST POP PUSH1 0x20 SWAP1 PUSH1 0x1F DUP4 GT PUSH1 0x1 EQ PUSH2 0x2DDE JUMPI PUSH1 0x0 SWAP3 PUSH2 0x2DD3 JUMPI JUMPDEST POP POP DUP2 PUSH1 0x1 SHL SWAP2 PUSH1 0x0 NOT SWAP1 PUSH1 0x3 SHL SHR NOT AND OR SWAP1 SSTORE JUMPDEST PUSH1 0x11 DUP3 ADD DUP4 MLOAD PUSH1 0x1 PUSH1 0x1 PUSH1 0x40 SHL SUB DUP2 GT PUSH2 0x3FB JUMPI PUSH2 0x2CAD DUP3 SLOAD PUSH2 0x3F3E JUMP JUMPDEST PUSH1 0x1F DUP2 GT PUSH2 0x2DA1 JUMPI JUMPDEST POP PUSH1 0x20 PUSH1 0x1F DUP3 GT PUSH1 0x1 EQ PUSH2 0x2D25 JUMPI SWAP1 DUP1 PUSH2 0x326 SWAP5 SWAP4 SWAP3 PUSH1 0x0 DUP1 MLOAD PUSH1 0x20 PUSH2 0x4197 DUP4 CODECOPY DUP2 MLOAD SWAP2 MSTORE SWAP7 SWAP8 PUSH1 0x0 SWAP3 PUSH2 0x2D1A JUMPI JUMPDEST POP POP DUP2 PUSH1 0x1 SHL SWAP2 PUSH1 0x0 NOT SWAP1 PUSH1 0x3 SHL SHR NOT AND OR SWAP1 SSTORE JUMPDEST PUSH1 0x40 MLOAD SWAP2 DUP3 SWAP2 PUSH1 0x20 DUP4 MSTORE PUSH1 0x1 DUP1 PUSH1 0xA0 SHL SUB AND SWAP5 PUSH1 0x2 PUSH1 0x20 DUP5 ADD SWAP2 ADD PUSH2 0x3F78 JUMP JUMPDEST ADD MLOAD SWAP1 POP DUP8 DUP1 PUSH2 0x2CE5 JUMP JUMPDEST PUSH1 0x1F NOT DUP3 AND SWAP6 DUP4 PUSH1 0x0 MSTORE PUSH1 0x20 PUSH1 0x0 KECCAK256 SWAP7 PUSH1 0x0 JUMPDEST DUP2 DUP2 LT PUSH2 0x2D89 JUMPI POP SWAP7 PUSH1 0x1 SWAP3 DUP5 SWAP3 PUSH2 0x326 SWAP8 SWAP7 SWAP6 PUSH1 0x0 DUP1 MLOAD PUSH1 0x20 PUSH2 0x4197 DUP4 CODECOPY DUP2 MLOAD SWAP2 MSTORE SWAP10 SWAP11 LT PUSH2 0x2D70 JUMPI JUMPDEST POP POP POP DUP2 SHL ADD SWAP1 SSTORE PUSH2 0x2CFA JUMP JUMPDEST ADD MLOAD PUSH1 0x0 NOT PUSH1 0xF8 DUP5 PUSH1 0x3 SHL AND SHR NOT AND SWAP1 SSTORE DUP8 DUP1 DUP1 PUSH2 0x2D63 JUMP JUMPDEST DUP4 DUP4 ADD MLOAD DUP10 SSTORE PUSH1 0x1 SWAP1 SWAP9 ADD SWAP8 PUSH1 0x20 SWAP4 DUP5 ADD SWAP4 ADD PUSH2 0x2D38 JUMP JUMPDEST PUSH2 0x2DCD SWAP1 DUP4 PUSH1 0x0 MSTORE PUSH1 0x20 PUSH1 0x0 KECCAK256 PUSH1 0x1F DUP5 ADD PUSH1 0x5 SHR DUP2 ADD SWAP2 PUSH1 0x20 DUP6 LT PUSH2 0x3F1 JUMPI PUSH1 0x1F ADD PUSH1 0x5 SHR ADD SWAP1 PUSH2 0x409E JUMP JUMPDEST DUP6 PUSH2 0x2CB6 JUMP JUMPDEST ADD MLOAD SWAP1 POP DUP7 DUP1 PUSH2 0x2C7A JUMP JUMPDEST PUSH1 0x0 DUP6 DUP2 MSTORE PUSH1 0x20 DUP2 KECCAK256 SWAP4 POP PUSH1 0x1F NOT DUP6 AND SWAP1 JUMPDEST DUP2 DUP2 LT PUSH2 0x2E2C JUMPI POP SWAP1 DUP5 PUSH1 0x1 SWAP6 SWAP5 SWAP4 SWAP3 LT PUSH2 0x2E13 JUMPI JUMPDEST POP POP POP DUP2 SHL ADD SWAP1 SSTORE PUSH2 0x2C8F JUMP JUMPDEST ADD MLOAD PUSH1 0x0 NOT PUSH1 0xF8 DUP5 PUSH1 0x3 SHL AND SHR NOT AND SWAP1 SSTORE DUP7 DUP1 DUP1 PUSH2 0x2E06 JUMP JUMPDEST SWAP3 SWAP4 PUSH1 0x20 PUSH1 0x1 DUP2 SWAP3 DUP8 DUP7 ADD MLOAD DUP2 SSTORE ADD SWAP6 ADD SWAP4 ADD PUSH2 0x2DF0 JUMP JUMPDEST PUSH2 0x2E70 SWAP1 DUP6 PUSH1 0x0 MSTORE PUSH1 0x20 PUSH1 0x0 KECCAK256 PUSH1 0x1F DUP6 ADD PUSH1 0x5 SHR DUP2 ADD SWAP2 PUSH1 0x20 DUP7 LT PUSH2 0x3F1 JUMPI PUSH1 0x1F ADD PUSH1 0x5 SHR ADD SWAP1 PUSH2 0x409E JUMP JUMPDEST DUP8 PUSH2 0x2C63 JUMP JUMPDEST ADD MLOAD SWAP1 POP DUP7 DUP1 PUSH2 0x2C21 JUMP JUMPDEST SWAP3 POP PUSH1 0xF DUP7 ADD PUSH1 0x0 MSTORE PUSH1 0x20 PUSH1 0x0 KECCAK256 SWAP1 PUSH1 0x0 SWAP4 JUMPDEST PUSH1 0x1F NOT DUP5 AND DUP6 LT PUSH2 0x2ED8 JUMPI PUSH1 0x1 SWAP5 POP DUP4 PUSH1 0x1F NOT DUP2 AND LT PUSH2 0x2EBF JUMPI JUMPDEST POP POP POP DUP2 SHL ADD PUSH1 0xF DUP5 ADD SSTORE PUSH2 0x2C39 JUMP JUMPDEST ADD MLOAD PUSH1 0x0 NOT PUSH1 0xF8 DUP5 PUSH1 0x3 SHL AND SHR NOT AND SWAP1 SSTORE DUP7 DUP1 DUP1 PUSH2 0x2EAF JUMP JUMPDEST DUP2 DUP2 ADD MLOAD DUP4 SSTORE PUSH1 0x20 SWAP5 DUP6 ADD SWAP5 PUSH1 0x1 SWAP1 SWAP4 ADD SWAP3 SWAP1 SWAP2 ADD SWAP1 PUSH2 0x2E94 JUMP JUMPDEST PUSH2 0x2F22 SWAP1 PUSH1 0xF DUP9 ADD PUSH1 0x0 MSTORE PUSH1 0x20 PUSH1 0x0 KECCAK256 PUSH1 0x1F DUP6 ADD PUSH1 0x5 SHR DUP2 ADD SWAP2 PUSH1 0x20 DUP7 LT PUSH2 0x3F1 JUMPI PUSH1 0x1F ADD PUSH1 0x5 SHR ADD SWAP1 PUSH2 0x409E JUMP JUMPDEST DUP8 PUSH2 0x2C0A JUMP JUMPDEST ADD MLOAD SWAP1 POP DUP8 DUP1 PUSH2 0x2BC9 JUMP JUMPDEST SWAP3 POP PUSH1 0xE DUP8 ADD PUSH1 0x0 MSTORE PUSH1 0x20 PUSH1 0x0 KECCAK256 SWAP1 PUSH1 0x0 SWAP4 JUMPDEST PUSH1 0x1F NOT DUP5 AND DUP6 LT PUSH2 0x2F8A JUMPI PUSH1 0x1 SWAP5 POP DUP4 PUSH1 0x1F NOT DUP2 AND LT PUSH2 0x2F71 JUMPI JUMPDEST POP POP POP DUP2 SHL ADD PUSH1 0xE DUP6 ADD SSTORE PUSH2 0x2BE1 JUMP JUMPDEST ADD MLOAD PUSH1 0x0 NOT PUSH1 0xF8 DUP5 PUSH1 0x3 SHL AND SHR NOT AND SWAP1 SSTORE DUP8 DUP1 DUP1 PUSH2 0x2F61 JUMP JUMPDEST DUP2 DUP2 ADD MLOAD DUP4 SSTORE PUSH1 0x20 SWAP5 DUP6 ADD SWAP5 PUSH1 0x1 SWAP1 SWAP4 ADD SWAP3 SWAP1 SWAP2 ADD SWAP1 PUSH2 0x2F46 JUMP JUMPDEST PUSH2 0x2FD4 SWAP1 PUSH1 0xE DUP10 ADD PUSH1 0x0 MSTORE PUSH1 0x20 PUSH1 0x0 KECCAK256 PUSH1 0x1F DUP6 ADD PUSH1 0x5 SHR DUP2 ADD SWAP2 PUSH1 0x20 DUP7 LT PUSH2 0x3F1 JUMPI PUSH1 0x1F ADD PUSH1 0x5 SHR ADD SWAP1 PUSH2 0x409E JUMP JUMPDEST DUP9 PUSH2 0x2BB2 JUMP JUMPDEST ADD MLOAD SWAP1 POP DUP9 DUP1 PUSH2 0x2B71 JUMP JUMPDEST SWAP3 POP PUSH1 0xD DUP9 ADD PUSH1 0x0 MSTORE PUSH1 0x20 PUSH1 0x0 KECCAK256 SWAP1 PUSH1 0x0 SWAP4 JUMPDEST PUSH1 0x1F NOT DUP5 AND DUP6 LT PUSH2 0x303C JUMPI PUSH1 0x1 SWAP5 POP DUP4 PUSH1 0x1F NOT DUP2 AND LT PUSH2 0x3023 JUMPI JUMPDEST POP POP POP DUP2 SHL ADD PUSH1 0xD DUP7 ADD SSTORE PUSH2 0x2B89 JUMP JUMPDEST ADD MLOAD PUSH1 0x0 NOT PUSH1 0xF8 DUP5 PUSH1 0x3 SHL AND SHR NOT AND SWAP1 SSTORE DUP9 DUP1 DUP1 PUSH2 0x3013 JUMP JUMPDEST DUP2 DUP2 ADD MLOAD DUP4 SSTORE PUSH1 0x20 SWAP5 DUP6 ADD SWAP5 PUSH1 0x1 SWAP1 SWAP4 ADD SWAP3 SWAP1 SWAP2 ADD SWAP1 PUSH2 0x2FF8 JUMP JUMPDEST PUSH2 0x3086 SWAP1 PUSH1 0xD DUP11 ADD PUSH1 0x0 MSTORE PUSH1 0x20 PUSH1 0x0 KECCAK256 PUSH1 0x1F DUP6 ADD PUSH1 0x5 SHR DUP2 ADD SWAP2 PUSH1 0x20 DUP7 LT PUSH2 0x3F1 JUMPI PUSH1 0x1F ADD PUSH1 0x5 SHR ADD SWAP1 PUSH2 0x409E JUMP JUMPDEST DUP10 PUSH2 0x2B5A JUMP JUMPDEST ADD MLOAD SWAP1 POP DUP10 DUP1 PUSH2 0x2B11 JUMP JUMPDEST SWAP3 POP PUSH1 0xB DUP10 ADD PUSH1 0x0 MSTORE PUSH1 0x20 PUSH1 0x0 KECCAK256 SWAP1 PUSH1 0x0 SWAP4 JUMPDEST PUSH1 0x1F NOT DUP5 AND DUP6 LT PUSH2 0x30EE JUMPI PUSH1 0x1 SWAP5 POP DUP4 PUSH1 0x1F NOT DUP2 AND LT PUSH2 0x30D5 JUMPI JUMPDEST POP POP POP DUP2 SHL ADD PUSH1 0xB DUP8 ADD SSTORE PUSH2 0x2B29 JUMP JUMPDEST ADD MLOAD PUSH1 0x0 NOT PUSH1 0xF8 DUP5 PUSH1 0x3 SHL AND SHR NOT AND SWAP1 SSTORE DUP10 DUP1 DUP1 PUSH2 0x30C5 JUMP JUMPDEST DUP2 DUP2 ADD MLOAD DUP4 SSTORE PUSH1 0x20 SWAP5 DUP6 ADD SWAP5 PUSH1 0x1 SWAP1 SWAP4 ADD SWAP3 SWAP1 SWAP2 ADD SWAP1 PUSH2 0x30AA JUMP JUMPDEST PUSH2 0x3138 SWAP1 PUSH1 0xB DUP12 ADD PUSH1 0x0 MSTORE PUSH1 0x20 PUSH1 0x0 KECCAK256 PUSH1 0x1F DUP6 ADD PUSH1 0x5 SHR DUP2 ADD SWAP2 PUSH1 0x20 DUP7 LT PUSH2 0x3F1 JUMPI PUSH1 0x1F ADD PUSH1 0x5 SHR ADD SWAP1 PUSH2 0x409E JUMP JUMPDEST DUP11 PUSH2 0x2AFA JUMP JUMPDEST ADD MLOAD SWAP1 POP DUP11 DUP1 PUSH2 0x2AB9 JUMP JUMPDEST SWAP3 POP PUSH1 0xA DUP11 ADD PUSH1 0x0 MSTORE PUSH1 0x20 PUSH1 0x0 KECCAK256 SWAP1 PUSH1 0x0 SWAP4 JUMPDEST PUSH1 0x1F NOT DUP5 AND DUP6 LT PUSH2 0x31A0 JUMPI PUSH1 0x1 SWAP5 POP DUP4 PUSH1 0x1F NOT DUP2 AND LT PUSH2 0x3187 JUMPI JUMPDEST POP POP POP DUP2 SHL ADD PUSH1 0xA DUP9 ADD SSTORE PUSH2 0x2AD1 JUMP JUMPDEST ADD MLOAD PUSH1 0x0 NOT PUSH1 0xF8 DUP5 PUSH1 0x3 SHL AND SHR NOT AND SWAP1 SSTORE DUP11 DUP1 DUP1 PUSH2 0x3177 JUMP JUMPDEST DUP2 DUP2 ADD MLOAD DUP4 SSTORE PUSH1 0x20 SWAP5 DUP6 ADD SWAP5 PUSH1 0x1 SWAP1 SWAP4 ADD SWAP3 SWAP1 SWAP2 ADD SWAP1 PUSH2 0x315C JUMP JUMPDEST PUSH2 0x31EA SWAP1 PUSH1 0xA DUP13 ADD PUSH1 0x0 MSTORE PUSH1 0x20 PUSH1 0x0 KECCAK256 PUSH1 0x1F DUP6 ADD PUSH1 0x5 SHR DUP2 ADD SWAP2 PUSH1 0x20 DUP7 LT PUSH2 0x3F1 JUMPI PUSH1 0x1F ADD PUSH1 0x5 SHR ADD SWAP1 PUSH2 0x409E JUMP JUMPDEST DUP12 PUSH2 0x2AA2 JUMP JUMPDEST ADD MLOAD SWAP1 POP DUP12 DUP1 PUSH2 0x2A61 JUMP JUMPDEST SWAP3 POP PUSH1 0x9 DUP12 ADD PUSH1 0x0 MSTORE PUSH1 0x20 PUSH1 0x0 KECCAK256 SWAP1 PUSH1 0x0 SWAP4 JUMPDEST PUSH1 0x1F NOT DUP5 AND DUP6 LT PUSH2 0x3252 JUMPI PUSH1 0x1 SWAP5 POP DUP4 PUSH1 0x1F NOT DUP2 AND LT PUSH2 0x3239 JUMPI JUMPDEST POP POP POP DUP2 SHL ADD PUSH1 0x9 DUP10 ADD SSTORE PUSH2 0x2A79 JUMP JUMPDEST ADD MLOAD PUSH1 0x0 NOT PUSH1 0xF8 DUP5 PUSH1 0x3 SHL AND SHR NOT AND SWAP1 SSTORE DUP12 DUP1 DUP1 PUSH2 0x3229 JUMP JUMPDEST DUP2 DUP2 ADD MLOAD DUP4 SSTORE PUSH1 0x20 SWAP5 DUP6 ADD SWAP5 PUSH1 0x1 SWAP1 SWAP4 ADD SWAP3 SWAP1 SWAP2 ADD SWAP1 PUSH2 0x320E JUMP JUMPDEST PUSH2 0x329C SWAP1 PUSH1 0x9 DUP14 ADD PUSH1 0x0 MSTORE PUSH1 0x20 PUSH1 0x0 KECCAK256 PUSH1 0x1F DUP6 ADD PUSH1 0x5 SHR DUP2 ADD SWAP2 PUSH1 0x20 DUP7 LT PUSH2 0x3F1 JUMPI PUSH1 0x1F ADD PUSH1 0x5 SHR ADD SWAP1 PUSH2 0x409E JUMP JUMPDEST DUP13 PUSH2 0x2A4A JUMP JUMPDEST ADD MLOAD SWAP1 POP DUP13 DUP1 PUSH2 0x2A09 JUMP JUMPDEST SWAP3 POP PUSH1 0x8 DUP13 ADD PUSH1 0x0 MSTORE PUSH1 0x20 PUSH1 0x0 KECCAK256 SWAP1 PUSH1 0x0 SWAP4 JUMPDEST PUSH1 0x1F NOT DUP5 AND DUP6 LT PUSH2 0x3304 JUMPI PUSH1 0x1 SWAP5 POP DUP4 PUSH1 0x1F NOT DUP2 AND LT PUSH2 0x32EB JUMPI JUMPDEST POP POP POP DUP2 SHL ADD PUSH1 0x8 DUP11 ADD SSTORE PUSH2 0x2A21 JUMP JUMPDEST ADD MLOAD PUSH1 0x0 NOT PUSH1 0xF8 DUP5 PUSH1 0x3 SHL AND SHR NOT AND SWAP1 SSTORE DUP13 DUP1 DUP1 PUSH2 0x32DB JUMP JUMPDEST DUP2 DUP2 ADD MLOAD DUP4 SSTORE PUSH1 0x20 SWAP5 DUP6 ADD SWAP5 PUSH1 0x1 SWAP1 SWAP4 ADD SWAP3 SWAP1 SWAP2 ADD SWAP1 PUSH2 0x32C0 JUMP JUMPDEST PUSH1 0x8 PUSH2 0x334D SWAP3 ADD PUSH1 0x0 MSTORE PUSH1 0x20 PUSH1 0x0 KECCAK256 PUSH1 0x1F DUP6 ADD PUSH1 0x5 SHR DUP2 ADD SWAP2 PUSH1 0x20 DUP7 LT PUSH2 0x3F1 JUMPI PUSH1 0x1F ADD PUSH1 0x5 SHR ADD SWAP1 PUSH2 0x409E JUMP JUMPDEST DUP12 DUP15 PUSH2 0x29F1 JUMP JUMPDEST PUSH1 0x40 MLOAD PUSH3 0x461BCD PUSH1 0xE5 SHL DUP2 MSTORE PUSH1 0x20 PUSH1 0x4 DUP3 ADD MSTORE PUSH1 0x3C PUSH1 0x24 DUP3 ADD MSTORE PUSH32 0x4F6E6C792061646D696E206F72207468652075736572207468656D73656C7665 PUSH1 0x44 DUP3 ADD MSTORE PUSH32 0x732063616E2075706461746520636F6D70616E792064657461696C7300000000 PUSH1 0x64 DUP3 ADD MSTORE PUSH1 0x84 SWAP1 REVERT JUMPDEST POP CALLER PUSH1 0x1 PUSH1 0x1 PUSH1 0xA0 SHL SUB DUP10 AND EQ PUSH2 0x29A9 JUMP JUMPDEST POP CALLER PUSH1 0x0 MSTORE PUSH1 0x1 PUSH1 0x20 MSTORE PUSH2 0x438 PUSH2 0x33F5 PUSH1 0x4 PUSH1 0x40 PUSH1 0x0 KECCAK256 ADD PUSH1 0x40 MLOAD SWAP3 DUP4 DUP1 SWAP3 PUSH2 0x3F78 JUMP JUMPDEST PUSH1 0x20 DUP2 MLOAD SWAP2 ADD KECCAK256 PUSH2 0x3404 PUSH2 0x4031 JUMP JUMPDEST PUSH1 0x20 DUP2 MLOAD SWAP2 ADD KECCAK256 EQ PUSH2 0x29A2 JUMP JUMPDEST CALLVALUE PUSH2 0x11A JUMPI PUSH1 0x0 CALLDATASIZE PUSH1 0x3 NOT ADD SLT PUSH2 0x11A JUMPI PUSH1 0x40 MLOAD DUP1 PUSH1 0x3 SLOAD DUP1 DUP4 MSTORE PUSH1 0x20 DUP1 SWAP4 ADD DUP1 SWAP2 PUSH1 0x3 PUSH1 0x0 MSTORE PUSH32 0xC2575A0E9E593C00F959F8C92F12DB2869C3395A3B0502D05E2516446F71F85B SWAP1 PUSH1 0x0 JUMPDEST DUP7 DUP3 DUP3 LT PUSH2 0x34BC JUMPI DUP7 DUP7 PUSH2 0x3473 DUP3 DUP9 SUB DUP4 PUSH2 0x3E7A JUMP JUMPDEST PUSH1 0x40 MLOAD SWAP3 DUP4 SWAP3 DUP2 DUP5 ADD SWAP1 DUP3 DUP6 MSTORE MLOAD DUP1 SWAP2 MSTORE PUSH1 0x40 DUP5 ADD SWAP3 SWAP2 PUSH1 0x0 JUMPDEST DUP3 DUP2 LT PUSH2 0x349C JUMPI POP POP POP POP SUB SWAP1 RETURN JUMPDEST DUP4 MLOAD PUSH1 0x1 PUSH1 0x1 PUSH1 0xA0 SHL SUB AND DUP6 MSTORE DUP7 SWAP6 POP SWAP4 DUP2 ADD SWAP4 SWAP3 DUP2 ADD SWAP3 PUSH1 0x1 ADD PUSH2 0x348D JUMP JUMPDEST DUP4 SLOAD PUSH1 0x1 PUSH1 0x1 PUSH1 0xA0 SHL SUB AND DUP6 MSTORE SWAP1 SWAP4 ADD SWAP3 PUSH1 0x1 SWAP3 DUP4 ADD SWAP3 ADD PUSH2 0x345D JUMP JUMPDEST CALLVALUE PUSH2 0x11A JUMPI PUSH1 0x20 CALLDATASIZE PUSH1 0x3 NOT ADD SLT PUSH2 0x11A JUMPI PUSH1 0x1 PUSH1 0x1 PUSH1 0xA0 SHL SUB PUSH2 0x34FA PUSH2 0x3DE5 JUMP JUMPDEST AND PUSH1 0x0 MSTORE PUSH1 0x1 PUSH1 0x20 MSTORE PUSH1 0x20 PUSH2 0x438 PUSH2 0x351F PUSH1 0x4 PUSH1 0x40 PUSH1 0x0 KECCAK256 ADD PUSH1 0x40 MLOAD SWAP3 DUP4 DUP1 SWAP3 PUSH2 0x3F78 JUMP JUMPDEST DUP2 DUP2 MLOAD SWAP2 ADD KECCAK256 PUSH2 0x279D PUSH2 0x4031 JUMP JUMPDEST CALLVALUE PUSH2 0x11A JUMPI PUSH1 0x80 CALLDATASIZE PUSH1 0x3 NOT ADD SLT PUSH2 0x11A JUMPI PUSH2 0x3546 PUSH2 0x3DE5 JUMP JUMPDEST PUSH1 0x1 PUSH1 0x1 PUSH1 0x40 SHL SUB PUSH1 0x24 CALLDATALOAD DUP2 DUP2 GT PUSH2 0x11A JUMPI PUSH2 0x3566 SWAP1 CALLDATASIZE SWAP1 PUSH1 0x4 ADD PUSH2 0x3E9B JUMP JUMPDEST SWAP2 PUSH1 0x44 CALLDATALOAD DUP3 DUP2 GT PUSH2 0x11A JUMPI PUSH2 0x357F SWAP1 CALLDATASIZE SWAP1 PUSH1 0x4 ADD PUSH2 0x3E9B JUMP JUMPDEST SWAP1 PUSH1 0x64 CALLDATALOAD DUP4 DUP2 GT PUSH2 0x11A JUMPI PUSH2 0x3598 SWAP1 CALLDATASIZE SWAP1 PUSH1 0x4 ADD PUSH2 0x3E9B JUMP JUMPDEST PUSH1 0x1 DUP1 PUSH1 0xA0 SHL SUB DUP1 SWAP3 AND SWAP4 DUP5 PUSH1 0x0 MSTORE PUSH1 0x1 PUSH1 0x20 SWAP4 DUP2 DUP6 MSTORE PUSH2 0x35C0 PUSH2 0x274 PUSH1 0x40 PUSH1 0x0 KECCAK256 SLOAD PUSH2 0x3F3E JUMP JUMPDEST PUSH1 0x0 SLOAD AND CALLER EQ DUP1 ISZERO PUSH2 0x3A7C JUMPI JUMPDEST DUP1 ISZERO PUSH2 0x3A73 JUMPI JUMPDEST ISZERO PUSH2 0x3A08 JUMPI DUP6 PUSH1 0x0 MSTORE DUP1 DUP5 MSTORE PUSH2 0x438 PUSH2 0x35FA PUSH1 0x2 PUSH1 0x40 PUSH1 0x0 KECCAK256 ADD PUSH1 0x40 MLOAD SWAP3 DUP4 DUP1 SWAP3 PUSH2 0x3F78 JUMP JUMPDEST DUP7 DUP2 MLOAD DUP7 DUP1 DUP5 ADD SWAP2 DUP3 KECCAK256 SWAP4 DUP10 MLOAD DUP3 DUP12 ADD SWAP6 DUP2 DUP8 KECCAK256 SUB PUSH2 0x3925 JUMPI JUMPDEST POP POP POP POP SWAP1 POP PUSH1 0x0 MSTORE DUP1 DUP5 MSTORE DUP1 PUSH1 0x40 PUSH1 0x0 KECCAK256 ADD DUP8 MLOAD DUP4 DUP2 GT PUSH2 0x3FB JUMPI DUP1 PUSH2 0x363B DUP4 SLOAD PUSH2 0x3F3E JUMP JUMPDEST SWAP10 PUSH1 0x1F SWAP11 DUP12 DUP2 GT PUSH2 0x38F7 JUMPI JUMPDEST POP DUP8 SWAP1 DUP12 DUP4 GT PUSH1 0x1 EQ PUSH2 0x3894 JUMPI PUSH1 0x0 SWAP3 PUSH2 0x3889 JUMPI JUMPDEST POP POP PUSH1 0x0 NOT PUSH1 0x3 DUP4 SWAP1 SHL SHR NOT AND SWAP1 DUP4 SHL OR SWAP1 SSTORE JUMPDEST DUP6 PUSH1 0x0 MSTORE DUP1 DUP5 MSTORE PUSH1 0x2 PUSH1 0x40 PUSH1 0x0 KECCAK256 ADD DUP6 MLOAD DUP4 DUP2 GT PUSH2 0x3FB JUMPI PUSH2 0x3692 DUP3 SLOAD PUSH2 0x3F3E JUMP JUMPDEST DUP10 DUP2 GT PUSH2 0x385B JUMPI JUMPDEST POP DUP1 DUP7 DUP11 DUP3 GT PUSH1 0x1 EQ PUSH2 0x37F9 JUMPI PUSH1 0x0 SWAP2 PUSH2 0x37EE JUMPI JUMPDEST POP PUSH1 0x0 NOT PUSH1 0x3 DUP4 SWAP1 SHL SHR NOT AND SWAP1 DUP4 SHL OR SWAP1 SSTORE JUMPDEST DUP6 PUSH1 0x0 MSTORE DUP1 DUP5 MSTORE PUSH1 0x3 PUSH1 0x40 PUSH1 0x0 KECCAK256 ADD SWAP3 DUP1 MLOAD SWAP3 DUP4 GT PUSH2 0x3FB JUMPI PUSH2 0x36E5 DUP5 SLOAD PUSH2 0x3F3E JUMP JUMPDEST DUP9 DUP2 GT PUSH2 0x37B6 JUMPI JUMPDEST POP DUP5 SWAP8 DUP4 GT PUSH1 0x1 EQ PUSH2 0x3746 JUMPI DUP3 SWAP2 PUSH1 0x0 DUP1 MLOAD PUSH1 0x20 PUSH2 0x4197 DUP4 CODECOPY DUP2 MLOAD SWAP2 MSTORE SWAP8 SWAP9 DUP4 SWAP3 PUSH1 0x0 SWAP5 PUSH2 0x373B JUMPI JUMPDEST POP POP SHL SWAP2 PUSH1 0x0 NOT SWAP1 PUSH1 0x3 SHL SHR NOT AND OR SWAP1 SSTORE PUSH2 0x326 PUSH1 0x40 MLOAD SWAP3 DUP3 DUP5 SWAP4 DUP5 MSTORE DUP4 ADD SWAP1 PUSH2 0x3E1E JUMP JUMPDEST ADD MLOAD SWAP3 POP DUP10 DUP1 PUSH2 0x3716 JUMP JUMPDEST PUSH1 0x1F SWAP3 SWAP2 SWAP3 NOT DUP3 AND SWAP8 DUP5 PUSH1 0x0 MSTORE DUP6 PUSH1 0x0 KECCAK256 SWAP2 PUSH1 0x0 JUMPDEST DUP11 DUP2 LT PUSH2 0x37A1 JUMPI POP DUP4 PUSH1 0x0 DUP1 MLOAD PUSH1 0x20 PUSH2 0x4197 DUP4 CODECOPY DUP2 MLOAD SWAP2 MSTORE SWAP10 SWAP11 LT PUSH2 0x3788 JUMPI JUMPDEST POP POP POP DUP2 SHL ADD SWAP1 SSTORE PUSH2 0x2292 JUMP JUMPDEST ADD MLOAD PUSH1 0x0 NOT PUSH1 0xF8 DUP5 PUSH1 0x3 SHL AND SHR NOT AND SWAP1 SSTORE DUP8 DUP1 DUP1 PUSH2 0x377B JUMP JUMPDEST DUP2 DUP4 ADD MLOAD DUP5 SSTORE SWAP3 DUP6 ADD SWAP3 SWAP2 DUP8 ADD SWAP2 DUP8 ADD PUSH2 0x375B JUMP JUMPDEST PUSH2 0x37DF SWAP1 DUP6 PUSH1 0x0 MSTORE DUP7 PUSH1 0x0 KECCAK256 DUP11 DUP1 DUP8 ADD PUSH1 0x5 SHR DUP3 ADD SWAP3 DUP10 DUP9 LT PUSH2 0x37E5 JUMPI JUMPDEST ADD PUSH1 0x5 SHR ADD SWAP1 PUSH2 0x409E JUMP JUMPDEST DUP9 PUSH2 0x36ED JUMP JUMPDEST SWAP3 POP DUP2 SWAP3 PUSH2 0x37D4 JUMP JUMPDEST SWAP1 POP DUP8 ADD MLOAD DUP11 PUSH2 0x36AF JUMP JUMPDEST DUP5 SWAP3 POP PUSH1 0x1F NOT DUP3 AND SWAP1 DUP5 PUSH1 0x0 MSTORE DUP9 PUSH1 0x0 KECCAK256 SWAP2 PUSH1 0x0 JUMPDEST DUP11 DUP13 DUP4 DUP4 LT PUSH2 0x3846 JUMPI POP POP POP DUP4 GT PUSH2 0x382D JUMPI JUMPDEST POP POP DUP2 SHL ADD SWAP1 SSTORE PUSH2 0x36C2 JUMP JUMPDEST DUP10 ADD MLOAD PUSH1 0x0 NOT PUSH1 0xF8 DUP5 PUSH1 0x3 SHL AND SHR NOT AND SWAP1 SSTORE DUP11 DUP1 PUSH2 0x3821 JUMP JUMPDEST DUP5 ADD MLOAD DUP6 SSTORE DUP9 SWAP7 SWAP1 SWAP5 ADD SWAP4 SWAP3 DUP4 ADD SWAP3 ADD PUSH2 0x380E JUMP JUMPDEST PUSH2 0x3883 SWAP1 DUP4 PUSH1 0x0 MSTORE DUP8 PUSH1 0x0 KECCAK256 DUP12 DUP1 DUP6 ADD PUSH1 0x5 SHR DUP3 ADD SWAP3 DUP11 DUP7 LT PUSH2 0x37E5 JUMPI ADD PUSH1 0x5 SHR ADD SWAP1 PUSH2 0x409E JUMP JUMPDEST DUP10 PUSH2 0x369A JUMP JUMPDEST ADD MLOAD SWAP1 POP DUP11 DUP1 PUSH2 0x365C JUMP JUMPDEST SWAP1 DUP6 SWAP4 POP PUSH1 0x1F NOT DUP4 AND SWAP2 DUP6 PUSH1 0x0 MSTORE DUP10 PUSH1 0x0 KECCAK256 SWAP3 PUSH1 0x0 JUMPDEST DUP12 DUP3 DUP3 LT PUSH2 0x38E1 JUMPI POP POP DUP5 GT PUSH2 0x38C8 JUMPI JUMPDEST POP POP POP DUP2 SHL ADD SWAP1 SSTORE PUSH2 0x3670 JUMP JUMPDEST ADD MLOAD PUSH1 0x0 NOT PUSH1 0xF8 DUP5 PUSH1 0x3 SHL AND SHR NOT AND SWAP1 SSTORE DUP11 DUP1 DUP1 PUSH2 0x38BB JUMP JUMPDEST DUP4 DUP6 ADD MLOAD DUP7 SSTORE DUP10 SWAP8 SWAP1 SWAP6 ADD SWAP5 SWAP4 DUP5 ADD SWAP4 ADD PUSH2 0x38AA JUMP JUMPDEST PUSH2 0x391F SWAP1 DUP6 PUSH1 0x0 MSTORE DUP10 PUSH1 0x0 KECCAK256 DUP14 DUP1 DUP7 ADD PUSH1 0x5 SHR DUP3 ADD SWAP3 DUP13 DUP8 LT PUSH2 0x37E5 JUMPI ADD PUSH1 0x5 SHR ADD SWAP1 PUSH2 0x409E JUMP JUMPDEST DUP12 PUSH2 0x3647 JUMP JUMPDEST PUSH2 0x39EC SWAP4 PUSH2 0x39B9 SWAP3 PUSH2 0x3958 PUSH1 0xFF DUP5 DUP8 DUP12 DUP2 SWAP8 PUSH2 0x3946 PUSH1 0x40 MLOAD SWAP5 DUP6 DUP1 SWAP5 PUSH2 0x3DFB JUMP JUMPDEST DUP2 ADD PUSH1 0x4 DUP2 MSTORE SUB ADD SWAP1 KECCAK256 SLOAD AND ISZERO PUSH2 0x4052 JUMP JUMPDEST DUP13 DUP10 PUSH2 0x3997 DUP6 DUP12 PUSH1 0x40 MLOAD DUP3 DUP2 DUP9 MLOAD PUSH2 0x3971 DUP2 DUP4 DUP14 PUSH2 0x3DFB JUMP JUMPDEST DUP2 ADD PUSH1 0x4 DUP2 MSTORE SUB ADD SWAP1 KECCAK256 SWAP5 PUSH1 0xFF NOT SWAP6 DUP7 DUP2 SLOAD AND SWAP1 SSTORE PUSH1 0x40 MLOAD SWAP4 DUP5 SWAP3 DUP4 SWAP3 MLOAD SWAP3 DUP4 SWAP2 PUSH2 0x3DFB JUMP JUMPDEST DUP2 ADD PUSH1 0x4 DUP2 MSTORE SUB ADD SWAP1 KECCAK256 SWAP2 DUP3 SLOAD AND OR SWAP1 SSTORE PUSH1 0x40 MLOAD SWAP4 DUP5 SWAP3 DUP4 SWAP3 MLOAD SWAP3 DUP4 SWAP2 PUSH2 0x3DFB JUMP JUMPDEST DUP2 ADD PUSH1 0x2 DUP2 MSTORE SUB ADD SWAP1 KECCAK256 SWAP4 PUSH12 0xFFFFFFFFFFFFFFFFFFFFFFFF PUSH1 0xA0 SHL SWAP5 DUP6 DUP2 SLOAD AND SWAP1 SSTORE PUSH1 0x40 MLOAD DUP1 SWAP4 DUP2 SWAP3 DUP13 MLOAD SWAP3 DUP4 SWAP2 PUSH2 0x3DFB JUMP JUMPDEST DUP2 ADD PUSH1 0x2 DUP2 MSTORE SUB ADD SWAP1 KECCAK256 SWAP2 DUP3 SLOAD AND OR SWAP1 SSTORE DUP8 DUP7 DUP2 DUP7 DUP2 DUP1 PUSH2 0x3614 JUMP JUMPDEST PUSH1 0x40 MLOAD PUSH3 0x461BCD PUSH1 0xE5 SHL DUP2 MSTORE PUSH1 0x4 DUP2 ADD DUP6 SWAP1 MSTORE PUSH1 0x39 PUSH1 0x24 DUP3 ADD MSTORE PUSH32 0x4F6E6C792061646D696E206F72207468652075736572207468656D73656C7665 PUSH1 0x44 DUP3 ADD MSTORE PUSH32 0x732063616E2075706461746520757365722064657461696C7300000000000000 PUSH1 0x64 DUP3 ADD MSTORE PUSH1 0x84 SWAP1 REVERT JUMPDEST POP DUP6 CALLER EQ PUSH2 0x35D4 JUMP JUMPDEST POP CALLER PUSH1 0x0 MSTORE DUP1 DUP5 MSTORE PUSH2 0x438 PUSH2 0x3A9E PUSH1 0x4 PUSH1 0x40 PUSH1 0x0 KECCAK256 ADD PUSH1 0x40 MLOAD SWAP3 DUP4 DUP1 SWAP3 PUSH2 0x3F78 JUMP JUMPDEST DUP5 DUP2 MLOAD SWAP2 ADD KECCAK256 PUSH2 0x3AAC PUSH2 0x4031 JUMP JUMPDEST DUP6 DUP2 MLOAD SWAP2 ADD KECCAK256 EQ PUSH2 0x35CD JUMP JUMPDEST CALLVALUE PUSH2 0x11A JUMPI PUSH1 0x20 CALLDATASIZE PUSH1 0x3 NOT ADD SLT PUSH2 0x11A JUMPI PUSH1 0x1 PUSH1 0x1 PUSH1 0xA0 SHL SUB PUSH2 0x3AD9 PUSH2 0x3DE5 JUMP JUMPDEST AND PUSH1 0x0 MSTORE PUSH1 0x1 PUSH1 0x20 MSTORE PUSH1 0x40 PUSH1 0x0 KECCAK256 PUSH2 0x3AF0 DUP3 PUSH2 0x3E43 JUMP JUMPDEST PUSH1 0x40 MLOAD DUP1 PUSH2 0x3AFE DUP2 DUP5 PUSH2 0x3F78 JUMP JUMPDEST SUB PUSH2 0x3B09 SWAP1 DUP3 PUSH2 0x3E7A JUMP JUMPDEST DUP3 MSTORE PUSH1 0x40 MLOAD DUP1 PUSH2 0x3B1C DUP2 PUSH1 0x1 DUP6 ADD PUSH2 0x3F78 JUMP JUMPDEST SUB PUSH2 0x3B27 SWAP1 DUP3 PUSH2 0x3E7A JUMP JUMPDEST PUSH1 0x20 DUP4 ADD MSTORE PUSH1 0x40 MLOAD DUP1 PUSH2 0x3B3D DUP2 PUSH1 0x2 DUP6 ADD PUSH2 0x3F78 JUMP JUMPDEST SUB PUSH2 0x3B48 SWAP1 DUP3 PUSH2 0x3E7A JUMP JUMPDEST PUSH1 0x40 DUP4 ADD MSTORE PUSH1 0x40 MLOAD DUP1 DUP1 PUSH1 0x3 DUP5 ADD SWAP1 PUSH2 0x3B60 SWAP2 PUSH2 0x3F78 JUMP JUMPDEST SUB PUSH2 0x3B6B SWAP1 DUP3 PUSH2 0x3E7A JUMP JUMPDEST PUSH1 0x60 DUP4 ADD MSTORE PUSH1 0x40 MLOAD DUP1 PUSH2 0x3B81 DUP2 PUSH1 0x4 DUP6 ADD PUSH2 0x3F78 JUMP JUMPDEST SUB PUSH2 0x3B8C SWAP1 DUP3 PUSH2 0x3E7A JUMP JUMPDEST PUSH1 0x80 DUP4 ADD MSTORE PUSH1 0x5 DUP2 ADD SLOAD PUSH1 0xFF AND ISZERO ISZERO PUSH1 0xA0 DUP4 ADD MSTORE PUSH1 0x40 MLOAD DUP1 PUSH2 0x3BB1 DUP2 PUSH1 0x6 DUP6 ADD PUSH2 0x3F78 JUMP JUMPDEST SUB PUSH2 0x3BBC SWAP1 DUP3 PUSH2 0x3E7A JUMP JUMPDEST PUSH1 0xC0 DUP4 ADD MSTORE PUSH1 0x7 DUP2 ADD SLOAD PUSH1 0xE0 DUP4 ADD MSTORE PUSH1 0x40 MLOAD SWAP2 DUP3 PUSH2 0x3BDD DUP2 PUSH1 0x8 DUP6 ADD PUSH2 0x3F78 JUMP JUMPDEST SUB PUSH2 0x3BE8 SWAP1 DUP5 PUSH2 0x3E7A JUMP JUMPDEST PUSH2 0x100 DUP2 DUP2 ADD SWAP4 DUP5 MSTORE PUSH1 0x40 MLOAD DUP1 PUSH2 0x3C02 DUP2 PUSH1 0x9 DUP8 ADD PUSH2 0x3F78 JUMP JUMPDEST SUB PUSH2 0x3C0D SWAP1 DUP3 PUSH2 0x3E7A JUMP JUMPDEST PUSH2 0x120 SWAP2 DUP3 DUP5 ADD SWAP2 DUP3 MSTORE PUSH1 0x40 MLOAD SWAP5 DUP6 DUP1 PUSH1 0xA DUP4 ADD SWAP1 PUSH2 0x3C2B SWAP2 PUSH2 0x3F78 JUMP JUMPDEST SUB PUSH2 0x3C36 SWAP1 DUP8 PUSH2 0x3E7A JUMP JUMPDEST PUSH2 0x140 SWAP7 DUP8 SWAP7 DUP8 DUP8 ADD SWAP1 DUP2 MSTORE PUSH1 0x40 MLOAD DUP1 DUP1 PUSH1 0xB DUP7 ADD SWAP1 PUSH2 0x3C55 SWAP2 PUSH2 0x3F78 JUMP JUMPDEST SUB PUSH2 0x3C60 SWAP1 DUP3 PUSH2 0x3E7A JUMP JUMPDEST PUSH2 0x160 DUP9 ADD SWAP1 DUP2 MSTORE PUSH1 0xC DUP5 ADD SLOAD PUSH2 0x180 DUP10 ADD SWAP1 DUP2 MSTORE PUSH1 0x40 MLOAD SWAP2 DUP3 PUSH2 0x3C87 DUP2 PUSH1 0xD DUP10 ADD PUSH2 0x3F78 JUMP JUMPDEST SUB PUSH2 0x3C92 SWAP1 DUP5 PUSH2 0x3E7A JUMP JUMPDEST PUSH2 0x1A0 DUP11 ADD SWAP3 DUP4 MSTORE PUSH1 0x40 MLOAD SWAP4 DUP5 PUSH2 0x3CAC DUP2 PUSH1 0xE DUP11 ADD PUSH2 0x3F78 JUMP JUMPDEST SUB PUSH2 0x3CB7 SWAP1 DUP7 PUSH2 0x3E7A JUMP JUMPDEST PUSH2 0x1C0 DUP12 ADD SWAP5 DUP6 MSTORE PUSH1 0x40 MLOAD SWAP6 DUP7 PUSH2 0x3CD1 DUP2 PUSH1 0xF DUP12 ADD PUSH2 0x3F78 JUMP JUMPDEST SUB PUSH2 0x3CDC SWAP1 DUP9 PUSH2 0x3E7A JUMP JUMPDEST PUSH2 0x1E0 DUP13 ADD SWAP7 DUP8 MSTORE PUSH1 0x40 MLOAD SWAP8 DUP9 PUSH2 0x3CF6 DUP2 PUSH1 0x10 DUP5 ADD PUSH2 0x3F78 JUMP JUMPDEST SUB PUSH2 0x3D01 SWAP1 DUP11 PUSH2 0x3E7A JUMP JUMPDEST PUSH2 0x200 DUP14 ADD SWAP9 DUP10 MSTORE PUSH1 0x40 MLOAD SWAP13 DUP14 DUP1 PUSH1 0x11 DUP2 SWAP5 ADD SWAP1 PUSH2 0x3D1E SWAP2 PUSH2 0x3F78 JUMP JUMPDEST SUB PUSH2 0x3D29 SWAP1 DUP4 PUSH2 0x3E7A JUMP JUMPDEST PUSH2 0x220 ADD MSTORE MLOAD SWAP9 MLOAD SWAP1 MLOAD SWAP2 MLOAD SWAP3 MLOAD SWAP4 MLOAD SWAP5 MLOAD SWAP6 MLOAD SWAP7 MLOAD SWAP9 PUSH1 0x40 MLOAD SWAP14 DUP15 SWAP14 DUP15 MSTORE DUP14 ADD PUSH2 0x3D53 SWAP2 PUSH2 0x3E1E JUMP JUMPDEST DUP13 DUP2 SUB PUSH1 0x20 DUP15 ADD MSTORE PUSH2 0x3D64 SWAP2 PUSH2 0x3E1E JUMP JUMPDEST DUP12 DUP2 SUB PUSH1 0x40 DUP14 ADD MSTORE PUSH2 0x3D75 SWAP2 PUSH2 0x3E1E JUMP JUMPDEST DUP11 DUP2 SUB PUSH1 0x60 DUP13 ADD MSTORE PUSH2 0x3D86 SWAP2 PUSH2 0x3E1E JUMP JUMPDEST SWAP1 PUSH1 0x80 DUP11 ADD MSTORE DUP9 DUP2 SUB PUSH1 0xA0 DUP11 ADD MSTORE PUSH2 0x3D9D SWAP2 PUSH2 0x3E1E JUMP JUMPDEST DUP8 DUP2 SUB PUSH1 0xC0 DUP10 ADD MSTORE PUSH2 0x3DAE SWAP2 PUSH2 0x3E1E JUMP JUMPDEST DUP7 DUP2 SUB PUSH1 0xE0 DUP9 ADD MSTORE PUSH2 0x3DBF SWAP2 PUSH2 0x3E1E JUMP JUMPDEST SWAP1 DUP6 DUP3 SUB SWAP1 DUP7 ADD MSTORE PUSH2 0x3DD0 SWAP2 PUSH2 0x3E1E JUMP JUMPDEST SWAP1 DUP4 DUP3 SUB SWAP1 DUP5 ADD MSTORE PUSH2 0x3DE1 SWAP2 PUSH2 0x3E1E JUMP JUMPDEST SUB SWAP1 RETURN JUMPDEST PUSH1 0x4 CALLDATALOAD SWAP1 PUSH1 0x1 PUSH1 0x1 PUSH1 0xA0 SHL SUB DUP3 AND DUP3 SUB PUSH2 0x11A JUMPI JUMP JUMPDEST PUSH1 0x0 JUMPDEST DUP4 DUP2 LT PUSH2 0x3E0E JUMPI POP POP PUSH1 0x0 SWAP2 ADD MSTORE JUMP JUMPDEST DUP2 DUP2 ADD MLOAD DUP4 DUP3 ADD MSTORE PUSH1 0x20 ADD PUSH2 0x3DFE JUMP JUMPDEST SWAP1 PUSH1 0x20 SWAP2 PUSH2 0x3E37 DUP2 MLOAD DUP1 SWAP3 DUP2 DUP6 MSTORE DUP6 DUP1 DUP7 ADD SWAP2 ADD PUSH2 0x3DFB JUMP JUMPDEST PUSH1 0x1F ADD PUSH1 0x1F NOT AND ADD ADD SWAP1 JUMP JUMPDEST PUSH2 0x240 DUP2 ADD SWAP1 DUP2 LT PUSH1 0x1 PUSH1 0x1 PUSH1 0x40 SHL SUB DUP3 GT OR PUSH2 0x3FB JUMPI PUSH1 0x40 MSTORE JUMP JUMPDEST PUSH1 0x40 DUP2 ADD SWAP1 DUP2 LT PUSH1 0x1 PUSH1 0x1 PUSH1 0x40 SHL SUB DUP3 GT OR PUSH2 0x3FB JUMPI PUSH1 0x40 MSTORE JUMP JUMPDEST SWAP1 PUSH1 0x1F DUP1 NOT SWAP2 ADD AND DUP2 ADD SWAP1 DUP2 LT PUSH1 0x1 PUSH1 0x1 PUSH1 0x40 SHL SUB DUP3 GT OR PUSH2 0x3FB JUMPI PUSH1 0x40 MSTORE JUMP JUMPDEST DUP2 PUSH1 0x1F DUP3 ADD SLT ISZERO PUSH2 0x11A JUMPI DUP1 CALLDATALOAD SWAP1 PUSH1 0x1 PUSH1 0x1 PUSH1 0x40 SHL SUB DUP3 GT PUSH2 0x3FB JUMPI PUSH1 0x40 MLOAD SWAP3 PUSH2 0x3ECF PUSH1 0x1F DUP5 ADD PUSH1 0x1F NOT AND PUSH1 0x20 ADD DUP6 PUSH2 0x3E7A JUMP JUMPDEST DUP3 DUP5 MSTORE PUSH1 0x20 DUP4 DUP4 ADD ADD GT PUSH2 0x11A JUMPI DUP2 PUSH1 0x0 SWAP3 PUSH1 0x20 DUP1 SWAP4 ADD DUP4 DUP7 ADD CALLDATACOPY DUP4 ADD ADD MSTORE SWAP1 JUMP JUMPDEST PUSH1 0x3 SLOAD DUP2 LT ISZERO PUSH2 0x3F28 JUMPI PUSH1 0x3 PUSH1 0x0 MSTORE PUSH32 0xC2575A0E9E593C00F959F8C92F12DB2869C3395A3B0502D05E2516446F71F85B ADD SWAP1 PUSH1 0x0 SWAP1 JUMP JUMPDEST PUSH4 0x4E487B71 PUSH1 0xE0 SHL PUSH1 0x0 MSTORE PUSH1 0x32 PUSH1 0x4 MSTORE PUSH1 0x24 PUSH1 0x0 REVERT JUMPDEST SWAP1 PUSH1 0x1 DUP3 DUP2 SHR SWAP3 AND DUP1 ISZERO PUSH2 0x3F6E JUMPI JUMPDEST PUSH1 0x20 DUP4 LT EQ PUSH2 0x3F58 JUMPI JUMP JUMPDEST PUSH4 0x4E487B71 PUSH1 0xE0 SHL PUSH1 0x0 MSTORE PUSH1 0x22 PUSH1 0x4 MSTORE PUSH1 0x24 PUSH1 0x0 REVERT JUMPDEST SWAP2 PUSH1 0x7F AND SWAP2 PUSH2 0x3F4D JUMP JUMPDEST SWAP1 PUSH1 0x0 SWAP3 SWAP2 DUP1 SLOAD SWAP2 PUSH2 0x3F89 DUP4 PUSH2 0x3F3E JUMP JUMPDEST SWAP2 DUP3 DUP3 MSTORE PUSH1 0x1 SWAP4 DUP5 DUP2 AND SWAP1 DUP2 PUSH1 0x0 EQ PUSH2 0x3FEB JUMPI POP PUSH1 0x1 EQ PUSH2 0x3FAB JUMPI JUMPDEST POP POP POP POP JUMP JUMPDEST SWAP1 SWAP2 SWAP4 SWAP5 POP PUSH1 0x0 MSTORE PUSH1 0x20 SWAP3 DUP4 PUSH1 0x0 KECCAK256 SWAP3 DUP5 PUSH1 0x0 SWAP5 JUMPDEST DUP4 DUP7 LT PUSH2 0x3FD7 JUMPI POP POP POP POP ADD ADD SWAP1 CODESIZE DUP1 DUP1 DUP1 PUSH2 0x3FA5 JUMP JUMPDEST DUP1 SLOAD DUP6 DUP8 ADD DUP4 ADD MSTORE SWAP5 ADD SWAP4 DUP6 SWAP1 DUP3 ADD PUSH2 0x3FC0 JUMP JUMPDEST SWAP3 SWAP5 POP POP POP PUSH1 0x20 SWAP4 SWAP5 POP PUSH1 0xFF NOT AND DUP4 DUP4 ADD MSTORE ISZERO ISZERO PUSH1 0x5 SHL ADD ADD SWAP1 CODESIZE DUP1 DUP1 DUP1 PUSH2 0x3FA5 JUMP JUMPDEST PUSH1 0x40 MLOAD SWAP1 PUSH2 0x401B DUP3 PUSH2 0x3E5F JUMP JUMPDEST PUSH1 0x7 DUP3 MSTORE PUSH7 0x37B33334B1B2B9 PUSH1 0xC9 SHL PUSH1 0x20 DUP4 ADD MSTORE JUMP JUMPDEST PUSH1 0x40 MLOAD SWAP1 PUSH2 0x403E DUP3 PUSH2 0x3E5F JUMP JUMPDEST PUSH1 0x5 DUP3 MSTORE PUSH5 0x30B236B4B7 PUSH1 0xD9 SHL PUSH1 0x20 DUP4 ADD MSTORE JUMP JUMPDEST ISZERO PUSH2 0x4059 JUMPI JUMP JUMPDEST PUSH1 0x40 MLOAD PUSH3 0x461BCD PUSH1 0xE5 SHL DUP2 MSTORE PUSH1 0x20 PUSH1 0x4 DUP3 ADD MSTORE PUSH1 0x17 PUSH1 0x24 DUP3 ADD MSTORE PUSH32 0x557365726E616D6520616C726561647920657869737473000000000000000000 PUSH1 0x44 DUP3 ADD MSTORE PUSH1 0x64 SWAP1 REVERT JUMPDEST DUP2 DUP2 LT PUSH2 0x40A9 JUMPI POP POP JUMP JUMPDEST PUSH1 0x0 DUP2 SSTORE PUSH1 0x1 ADD PUSH2 0x409E JUMP JUMPDEST ISZERO PUSH2 0x40BC JUMPI JUMP JUMPDEST PUSH1 0x40 MLOAD PUSH3 0x461BCD PUSH1 0xE5 SHL DUP2 MSTORE PUSH1 0x20 PUSH1 0x4 DUP3 ADD MSTORE PUSH1 0x13 PUSH1 0x24 DUP3 ADD MSTORE PUSH19 0x155CD95C88191BD95CC81B9BDD08195E1A5CDD PUSH1 0x6A SHL PUSH1 0x44 DUP3 ADD MSTORE PUSH1 0x64 SWAP1 REVERT JUMPDEST ISZERO PUSH2 0x40FE JUMPI JUMP JUMPDEST PUSH1 0x40 MLOAD PUSH3 0x461BCD PUSH1 0xE5 SHL DUP2 MSTORE PUSH1 0x20 PUSH1 0x4 DUP3 ADD MSTORE PUSH1 0x21 PUSH1 0x24 DUP3 ADD MSTORE PUSH32 0x4F6E6C792061646D696E2063616E2063616C6C20746869732066756E6374696F PUSH1 0x44 DUP3 ADD MSTORE PUSH1 0x37 PUSH1 0xF9 SHL PUSH1 0x64 DUP3 ADD MSTORE PUSH1 0x84 SWAP1 REVERT JUMPDEST PUSH2 0x4157 DUP2 SLOAD PUSH2 0x3F3E JUMP JUMPDEST SWAP1 DUP2 PUSH2 0x4161 JUMPI POP POP JUMP JUMPDEST DUP2 PUSH1 0x1F PUSH1 0x0 SWAP4 GT PUSH1 0x1 EQ PUSH2 0x4173 JUMPI POP SSTORE JUMP JUMPDEST SWAP1 DUP1 DUP4 SWAP2 DUP3 MSTORE PUSH2 0x4192 PUSH1 0x1F PUSH1 0x20 DUP5 KECCAK256 SWAP5 ADD PUSH1 0x5 SHR DUP5 ADD PUSH1 0x1 DUP6 ADD PUSH2 0x409E JUMP JUMPDEST SSTORE SSTORE JUMP INVALID 0xD6 SGT PUSH16 0x3CAD7C60BFC24BBF1548F39F766CA8BC 0xE1 DIV 0xBF SWAP11 0xDD 0xE3 0xDE 0xB6 0x23 PUSH30 0xEC51DFA26469706673582212209FFB02ADDDA2E22BCC3C4180D33AC0D49C PUSH3 0xBB3B2B SWAP15 0xF EXTCODECOPY 0xDD 0xE7 SELFDESTRUCT 0xEC PUSH25 0xD4394064736F6C634300081300330000000000000000000000 "},"deployedBytecode":{"immutableReferences":{},"linkReferences":{},"object":"61012080604052600436101561001457600080fd5b60003560e01c9081630558d3e914613ab8575080630da4578b1461352d57806324d7806c146134d95780632f3300231461341157806337a1bba2146128325780634209fff1146127ee578063502c9bd5146127ac5780636816442d1461274957806369c212f6146124a357806375829def146123d457806398575188146120975780639d4d134214610b715780639f42af631461080e578063a87430ba1461047b578063b5cb15f71461045d578063b979cc2f146101e8578063f309e3f914610187578063f825f1431461011f5763f851a440146100f157600080fd5b3461011a57600036600319011261011a576000546040516001600160a01b039091168152602090f35b600080fd5b3461011a57602036600319011261011a576004356001600160401b03811161011a576101516020913690600401613e9b565b816101656040519283815193849201613dfb565b600290820190815281900382019020546040516001600160a01b039091168152f35b3461011a57602036600319011261011a576004356001600160401b03811161011a5760ff6101d260206101bf81943690600401613e9b565b8160405193828580945193849201613dfb565b8101600481520301902054166040519015158152f35b3461011a57606036600319011261011a57610201613de5565b6024358015159081810361011a576001600160401b039160443583811161011a57610230903690600401613e9b565b60005490946001600160a01b0391821633148015610411575b610252906140f7565b169283600052600190600660209483865261027b610274604060002054613f3e565b15156140b5565b866000528386526102a0604060002091600583019060ff801983541691151516179055565b019186519182116103fb576102b58354613f3e565b601f81116103c0575b5084601f83116001146103365791808061032695937f925b0343b9085747d26a9125c88206057343a6e2db8d4fe70cee25da0220aac1999a9560009361032b575b501b916000199060031b1c19161790555b6040805194859485528401526040830190613e1e565b0390a2005b86015192508b6102ff565b601f9291921982169084600052866000209160005b8181106103ab575091839161032696947f925b0343b9085747d26a9125c88206057343a6e2db8d4fe70cee25da0220aac19a9b969410610392575b5050811b019055610310565b85015160001960f88460031b161c191690558980610386565b8a83015184559285019291880191880161034b565b6103eb908460005286600020601f850160051c8101918886106103f1575b601f0160051c019061409e565b876102be565b90915081906103de565b634e487b7160e01b600052604160045260246000fd5b5033600052600160205261025261043861043f600460406000200160405192838092613f78565b0382613e7a565b6020815191012061044e614031565b60208151910120149050610249565b3461011a57600036600319011261011a576020600354604051908152f35b3461011a57602036600319011261011a576001600160a01b0361049c613de5565b16600052600160205260406000208080604051806104ba8184613f78565b036104c59082613e7a565b60405160a08190526104da8160018501613f78565b0360a051906104e891613e7a565b60405160808190526104fd8160028501613f78565b036080519061050b91613e7a565b6040518061051c8160038601613f78565b036105279082613e7a565b604051806105388160048701613f78565b036105439082613e7a565b600584015460ff166040518080600688019061055e91613f78565b036105699082613e7a565b600786015460405191826105808160088b01613f78565b0361058b9084613e7a565b604051938461059d8160098c01613f78565b036105a89086613e7a565b60405195866105ba81600a8d01613f78565b036105c59088613e7a565b60405197886105d781600b8e01613f78565b036105e2908a613e7a565b600c8b01549960405180600d819e01906105fb91613f78565b03610606908d613e7a565b60405180809e600e8291019061061b91613f78565b0361062591613e7a565b6040519d8e8061063881600f8501613f78565b0361064291613e7a565b60405160c08190526106578160108401613f78565b0360c0519061066591613e7a565b60405180918160e0526011019061067b91613f78565b0360e0519061068991613e7a565b604051806101005261024080915261010051016106a591613e1e565b61010051808203906020015260a051906106be91613e1e565b610100518082039060400152608051906106d791613e1e565b6101005180820390606001526106ec91613e1e565b61010051808203906080015261070191613e1e565b9015156101005160a00152610100518082039060c0015261072191613e1e565b906101005160e001526101005180820390610100015261074091613e1e565b6101005180820390610120015261075691613e1e565b6101005180820390610140015261076c91613e1e565b6101005180820390610160015261078291613e1e565b9061010051610180015261010051808203906101a001526107a291613e1e565b61010051808203906101c001526107b891613e1e565b61010051808203906101e001526107ce91613e1e565b6101005180820390610200015260c051906107e891613e1e565b61010051808203906102200152610100519060e0519061080791613e1e565b0361010051f35b3461011a5760208060031936011261011a576004356001600160401b03811161011a5761083f903690600401613e9b565b816108536040519283815193849201613dfb565b600290820190815281900382019020546001600160a01b03168015610b37578060005260018252604060002060405161088b81613e43565b604051806108998185613f78565b036108a49082613e7a565b8152604051806108b78160018601613f78565b036108c29082613e7a565b818501908152604051806108d98160028701613f78565b036108e49082613e7a565b6040830152604051808060038601906108fc91613f78565b036109079082613e7a565b606083019081526040518061091f8160048801613f78565b0361092a9082613e7a565b60808401908152600585015460ff169160a085019215158352604051938480600689019061095791613f78565b036109629086613e7a565b60c0860194855260078701549560e08101968752604051978880600883019061098a91613f78565b03610995908a613e7a565b6101009889830152604051808060098401906109b091613f78565b036109bb9082613e7a565b610120830152604051806109d281600a8501613f78565b036109dd9082613e7a565b610140830152604051806109f481600b8501613f78565b036109ff9082613e7a565b610160830152600c81015461018083015260405180610a2181600d8501613f78565b03610a2c9082613e7a565b6101a083015260405180610a4381600e8501613f78565b03610a4e9082613e7a565b6101c083015260405180610a6581600f8501613f78565b03610a709082613e7a565b6101e083015260405180610a878160108501613f78565b03610a929082613e7a565b61020083015260405180601181930190610aab91613f78565b03610ab69082613e7a565b61022082015251905191519251935115159451955196806040519a8b9a8b528a01528801610ae391613e1e565b8781036040890152610af491613e1e565b8681036060880152610b0591613e1e565b8581036080870152610b1691613e1e565b9060a085015283810360c0850152610b2d91613e1e565b9060e08301520390f35b60405162461bcd60e51b8152600481018390526012602482015271155cd95c9b985b59481b9bdd08199bdd5b9960721b6044820152606490fd5b3461011a5761020036600319011261011a57610b8b613de5565b6024356001600160401b03811161011a57610baa903690600401613e9b565b906044356001600160401b03811161011a57610bca903690600401613e9b565b916064356001600160401b03811161011a57610bea903690600401613e9b565b906084356001600160401b03811161011a57610c0a903690600401613e9b565b9360a4356001600160401b03811161011a57610c2a903690600401613e9b565b9460c4356001600160401b03811161011a57610c4a903690600401613e9b565b60e4356001600160401b03811161011a57610c69903690600401613e9b565b610104356001600160401b03811161011a57610c89903690600401613e9b565b6001600160401b03610124351161011a57610caa3661012435600401613e9b565b6001600160401b03610164351161011a57610ccb3661016435600401613e9b565b906001600160401b03610184351161011a57610ced3661018435600401613e9b565b926001600160401b036101a4351161011a57610d0f366101a435600401613e9b565b946001600160401b036101c4351161011a57610d31366101c435600401613e9b565b966001600160401b036101e4351161011a578d98610d55366101e435600401613e9b565b9960208151910120610d6561400e565b6020815191012014611ffa575b6001600160a01b038e16600090815260016020526040902054610d9490613f3e565b611fa9578e8c918e60405180825181816020860191610db292613dfb565b8101600481520360200190205460ff1615610dcc90614052565b82516020840120610ddb61400e565b8051906020012014936040519e8f91610df383613e43565b825260208201526040015260608d015260808c015260a08b0152604051806020810110602082016001600160401b0310176103fb57602081016040526000815260c08b01524260e08b01526101008a0152610120890152610140880152610160870152610144356101808701526101a08601526101c08501526101e084015261020083015261022082015260018060a01b038416600052600160205260406000209080518051906001600160401b0382116103fb578190610eb48554613f3e565b601f8111611f77575b50602090601f8311600114611f0b57600092611f00575b50508160011b916000199060031b1c19161782555b60208101518051906001600160401b0382116103fb578190610f0e6001860154613f3e565b601f8111611ecb575b50602090601f8311600114611e5957600092611e4e575b50508160011b916000199060031b1c19161760018301555b60408101518051906001600160401b0382116103fb578190610f6b6002860154613f3e565b601f8111611e19575b50602090601f8311600114611da757600092611d9c575b50508160011b916000199060031b1c19161760028301555b60608101518051906001600160401b0382116103fb578190610fc86003860154613f3e565b601f8111611d67575b50602090601f8311600114611cf557600092611cea575b50508160011b916000199060031b1c19161760038301555b60808101518051906001600160401b0382116103fb5781906110256004860154613f3e565b601f8111611cb5575b50602090601f8311600114611c4357600092611c38575b50508160011b916000199060031b1c19161760048301555b61107c60a08201511515600584019060ff801983541691151516179055565b60c08101518051906001600160401b0382116103fb5781906110a16006860154613f3e565b601f8111611c03575b50602090601f8311600114611b9157600092611b86575b50508160011b916000199060031b1c19161760068301555b60e081015160078301556101008101518051906001600160401b0382116103fb5781906111096008860154613f3e565b601f8111611b51575b50602090601f8311600114611adf57600092611ad4575b50508160011b916000199060031b1c19161760088301555b6101208101518051906001600160401b0382116103fb5781906111676009860154613f3e565b601f8111611a9f575b50602090601f8311600114611a2d57600092611a22575b50508160011b916000199060031b1c19161760098301555b6101408101518051906001600160401b0382116103fb5781906111c5600a860154613f3e565b601f81116119ed575b50602090601f831160011461197b57600092611970575b50508160011b916000199060031b1c191617600a8301555b6101608101518051906001600160401b0382116103fb578190611223600b860154613f3e565b601f811161193b575b50602090601f83116001146118c9576000926118be575b50508160011b916000199060031b1c191617600b8301555b610180810151600c8301556101a08101518051906001600160401b0382116103fb57819061128c600d860154613f3e565b601f8111611889575b50602090601f83116001146118175760009261180c575b50508160011b916000199060031b1c191617600d8301555b6101c08101518051906001600160401b0382116103fb5781906112ea600e860154613f3e565b601f81116117d7575b50602090601f83116001146117655760009261175a575b50508160011b916000199060031b1c191617600e8301555b6101e08101518051906001600160401b0382116103fb578190611348600f860154613f3e565b601f8111611725575b50602090601f83116001146116b3576000926116a8575b50508160011b916000199060031b1c191617600f8301555b6102008101518051906001600160401b0382116103fb576113a46010850154613f3e565b601f8111611673575b50602090601f83116001146115ff57610220939291600091836115f4575b50508160011b916000199060031b1c19161760108401555b0151908151906001600160401b0382116103fb576011829101926114078454613f3e565b601f81116115c2575b50602090601f831160011461155c57600092611551575b50508160011b916000199060031b1c19161790555b60035491680100000000000000008310156103fb5783611538610326926114b07f509c70f523067009f7db7f46db6956d7af8b679323680dc3821a8bad001ac1e19761149188600161152a9a01600355613ef1565b90919082549060031b9160018060a01b03809116831b921b1916179055565b60405160208183516114c58183858801613dfb565b60029082019081520301902080546001600160a01b0319166001600160a01b038516179055604051815160209082906115018183878601613dfb565b81016004815203019020600160ff19825416179055604051958695606087526060870190613e1e565b908582036020870152613e1e565b83810360408501526001600160a01b0390911695613e1e565b015190508780611427565b6000858152602081209350601f198516905b8181106115aa5750908460019594939210611591575b505050811b01905561143c565b015160001960f88460031b161c19169055878080611584565b9293602060018192878601518155019501930161156e565b6115ee90856000526020600020601f850160051c810191602086106103f157601f0160051c019061409e565b88611410565b0151905089806113cb565b906010850160005260206000209160005b601f198516811061165b57509183916001936102209695601f19811610611642575b505050811b0160108401556113e3565b015160001960f88460031b161c19169055898080611632565b91926020600181928685015181550194019201611610565b6116a290601086016000526020600020601f850160051c810191602086106103f157601f0160051c019061409e565b886113ad565b015190508880611368565b9250600f85016000526020600020906000935b601f198416851061170a576001945083601f198116106116f1575b505050811b01600f830155611380565b015160001960f88460031b161c191690558880806116e1565b818101518355602094850194600190930192909101906116c6565b61175490600f87016000526020600020601f850160051c810191602086106103f157601f0160051c019061409e565b89611351565b01519050888061130a565b9250600e85016000526020600020906000935b601f19841685106117bc576001945083601f198116106117a3575b505050811b01600e830155611322565b015160001960f88460031b161c19169055888080611793565b81810151835560209485019460019093019290910190611778565b61180690600e87016000526020600020601f850160051c810191602086106103f157601f0160051c019061409e565b896112f3565b0151905088806112ac565b9250600d85016000526020600020906000935b601f198416851061186e576001945083601f19811610611855575b505050811b01600d8301556112c4565b015160001960f88460031b161c19169055888080611845565b8181015183556020948501946001909301929091019061182a565b6118b890600d87016000526020600020601f850160051c810191602086106103f157601f0160051c019061409e565b89611295565b015190508880611243565b9250600b85016000526020600020906000935b601f1984168510611920576001945083601f19811610611907575b505050811b01600b83015561125b565b015160001960f88460031b161c191690558880806118f7565b818101518355602094850194600190930192909101906118dc565b61196a90600b87016000526020600020601f850160051c810191602086106103f157601f0160051c019061409e565b8961122c565b0151905088806111e5565b9250600a85016000526020600020906000935b601f19841685106119d2576001945083601f198116106119b9575b505050811b01600a8301556111fd565b015160001960f88460031b161c191690558880806119a9565b8181015183556020948501946001909301929091019061198e565b611a1c90600a87016000526020600020601f850160051c810191602086106103f157601f0160051c019061409e565b896111ce565b015190508880611187565b9250600985016000526020600020906000935b601f1984168510611a84576001945083601f19811610611a6b575b505050811b01600983015561119f565b015160001960f88460031b161c19169055888080611a5b565b81810151835560209485019460019093019290910190611a40565b611ace90600987016000526020600020601f850160051c810191602086106103f157601f0160051c019061409e565b89611170565b015190508880611129565b9250600885016000526020600020906000935b601f1984168510611b36576001945083601f19811610611b1d575b505050811b016008830155611141565b015160001960f88460031b161c19169055888080611b0d565b81810151835560209485019460019093019290910190611af2565b611b8090600887016000526020600020601f850160051c810191602086106103f157601f0160051c019061409e565b89611112565b0151905088806110c1565b9250600685016000526020600020906000935b601f1984168510611be8576001945083601f19811610611bcf575b505050811b0160068301556110d9565b015160001960f88460031b161c19169055888080611bbf565b81810151835560209485019460019093019290910190611ba4565b611c3290600687016000526020600020601f850160051c810191602086106103f157601f0160051c019061409e565b896110aa565b015190508880611045565b9250600485016000526020600020906000935b601f1984168510611c9a576001945083601f19811610611c81575b505050811b01600483015561105d565b015160001960f88460031b161c19169055888080611c71565b81810151835560209485019460019093019290910190611c56565b611ce490600487016000526020600020601f850160051c810191602086106103f157601f0160051c019061409e565b8961102e565b015190508880610fe8565b9250600385016000526020600020906000935b601f1984168510611d4c576001945083601f19811610611d33575b505050811b016003830155611000565b015160001960f88460031b161c19169055888080611d23565b81810151835560209485019460019093019290910190611d08565b611d9690600387016000526020600020601f850160051c810191602086106103f157601f0160051c019061409e565b89610fd1565b015190508880610f8b565b9250600285016000526020600020906000935b601f1984168510611dfe576001945083601f19811610611de5575b505050811b016002830155610fa3565b015160001960f88460031b161c19169055888080611dd5565b81810151835560209485019460019093019290910190611dba565b611e4890600287016000526020600020601f850160051c810191602086106103f157601f0160051c019061409e565b89610f74565b015190508880610f2e565b9250600185016000526020600020906000935b601f1984168510611eb0576001945083601f19811610611e97575b505050811b016001830155610f46565b015160001960f88460031b161c19169055888080611e87565b81810151835560209485019460019093019290910190611e6c565b611efa90600187016000526020600020601f850160051c810191602086106103f157601f0160051c019061409e565b89610f17565b015190508880610ed4565b9250846000526020600020906000935b601f1984168510611f5c576001945083601f19811610611f43575b505050811b018255610ee9565b015160001960f88460031b161c19169055888080611f36565b81810151835560209485019460019093019290910190611f1b565b611fa390866000526020600020601f850160051c810191602086106103f157601f0160051c019061409e565b89610ebd565b60405162461bcd60e51b8152602060048201526024808201527f5573657220616c72656164792065786973747320666f722074686973206164646044820152637265737360e01b6064820152608490fd5b6000546001600160a01b031633148015612057575b610d7257606460405162461bcd60e51b815260206004820152602060248201527f4f6e6c792061646d696e2063616e207265676973746572206f666669636572736044820152fd5b5033600052600160205261043861207b600460406000200160405192838092613f78565b6020815191012061208a614031565b602081519101201461200f565b3461011a5760208060031936011261011a576120b1613de5565b9061213360018060a01b038093816000541633148015612392575b6120d5906140f7565b169182600052600180948183526120f3610274604060002054613f3e565b8460005281835261218283610438612118600260406000200160405192838092613f78565b8760005284825261213a604060002060405198898092613f78565b0388613e7a565b60405190805191838181840194612152818388613dfb565b810160028152030190206bffffffffffffffffffffffff60a01b8154169055604051938492839251928391613dfb565b8101600481520301902060ff1981541690556000915b6122a6575b5050612292601184957f89fcfa7c85bf81269953b23469028afbdb9913b80af31b7c931a42009fb252bd956000528084526121e76040600020916121e08361414d565b820161414d565b6121f36002820161414d565b6121ff6003820161414d565b61220b6004820161414d565b6000600582015561221e6006820161414d565b600060078201556122316008820161414d565b61223d6009820161414d565b612249600a820161414d565b612255600b820161414d565b6000600c820155612268600d820161414d565b612274600e820161414d565b612280600f820161414d565b61228c6010820161414d565b0161414d565b610326604051928284938452830190613e1e565b600380548084101561238b5786836122bd86613ef1565b905490851b1c16146122f457505060001982146122de578580920191612198565b634e487b7160e01b600052601160045260246000fd5b95969095600019938185019182116122de576114918461231661232394613ef1565b9054908b1b1c1691613ef1565b8554918215612375577f89fcfa7c85bf81269953b23469028afbdb9913b80af31b7c931a42009fb252bd9661229294601194019161236083613ef1565b9091825491841b1b191690555595945061219d565b634e487b7160e01b600052603160045260246000fd5b505061219d565b5033600052600184526120d56104386123b8600460406000200160405192838092613f78565b8581519101206123c6614031565b8681519101201490506120cc565b3461011a57602036600319011261011a576123ed613de5565b600054906001600160a01b03903382841614801561245e575b61240f906140f7565b16908115612427576001600160a01b03191617600055005b60405162461bcd60e51b815260206004820152600f60248201526e496e76616c6964206164647265737360881b6044820152606490fd5b5033600052600160205261240f610438612485600460406000200160405192838092613f78565b60208151910120612494614031565b60208151910120149050612406565b3461011a57602036600319011261011a576001600160a01b036124c4613de5565b1660005260016020526040600020604051906124df82613e43565b604051806124ed8184613f78565b036124f89082613e7a565b8252604051918261250c8160018501613f78565b036125179084613e7a565b6020810192835260405190816125308160028601613f78565b0361253b9083613e7a565b604081810192835251806125528160038701613f78565b0361255d9082613e7a565b60608201908152604051806125758160048801613f78565b036125809082613e7a565b60808301908152600585015460ff169060a08401911515825260405192838060068901906125ad91613f78565b036125b89085613e7a565b60c0850193845260078701549460e0810195865260405197888060088301906125e091613f78565b036125eb908a613e7a565b61010098898301526040518080600984019061260691613f78565b036126119082613e7a565b6101208301526040518061262881600a8501613f78565b036126339082613e7a565b6101408301526040518061264a81600b8501613f78565b036126559082613e7a565b610160830152600c8101546101808301526040518061267781600d8501613f78565b036126829082613e7a565b6101a08301526040518061269981600e8501613f78565b036126a49082613e7a565b6101c0830152604051806126bb81600f8501613f78565b036126c69082613e7a565b6101e0830152604051806126dd8160108501613f78565b036126e89082613e7a565b6102008301526040518060118193019061270191613f78565b0361270c9082613e7a565b61022082015251975195519051915192511515935194519560405198888a998a52890161273891613e1e565b88810360208a0152610ae391613e1e565b3461011a57602036600319011261011a576001600160a01b0361276a613de5565b166000526001602052602061043861278f600460406000200160405192838092613f78565b81815191012061279d61400e565b82815191012014604051908152f35b3461011a57602036600319011261011a5760043560035481101561011a576127d5602091613ef1565b905460405160039290921b1c6001600160a01b03168152f35b3461011a57602036600319011261011a576001600160a01b0361280f613de5565b1660005260016020526020612828604060002054613f3e565b1515604051908152f35b3461011a5761016036600319011261011a5761284c613de5565b6024356001600160401b03811161011a5761286b903690600401613e9b565b6044356001600160401b03811161011a5761288a903690600401613e9b565b916064356001600160401b03811161011a576128aa903690600401613e9b565b6084356001600160401b03811161011a576128c9903690600401613e9b565b60c4356001600160401b03811161011a576128e8903690600401613e9b565b60e4356001600160401b03811161011a57612907903690600401613e9b565b90610104356001600160401b03811161011a57612928903690600401613e9b565b92610124356001600160401b03811161011a57612949903690600401613e9b565b94610144356001600160401b03811161011a5761296a903690600401613e9b565b9860018060a01b038816600052600160205261298d610274604060002054613f3e565b6000546001600160a01b0316331480156133d1575b80156133bf575b15613354576001600160a01b0388166000908152600160205260409020895190996001600160401b0382116103fb5781908b6129e86008820154613f3e565b601f811161331f575b5050602090601f83116001146132ad576000926132a2575b50508160011b916000199060031b1c19161760088a01555b8051906001600160401b0382116103fb578190612a4160098c0154613f3e565b601f811161326d575b50602090601f83116001146131fb576000926131f0575b50508160011b916000199060031b1c19161760098901555b8051906001600160401b0382116103fb578190612a99600a8b0154613f3e565b601f81116131bb575b50602090601f83116001146131495760009261313e575b50508160011b916000199060031b1c191617600a8801555b8051906001600160401b0382116103fb578190612af1600b8a0154613f3e565b601f8111613109575b50602090601f83116001146130975760009261308c575b50508160011b916000199060031b1c191617600b8701555b60a435600c8701558051906001600160401b0382116103fb578190612b51600d890154613f3e565b601f8111613057575b50602090601f8311600114612fe557600092612fda575b50508160011b916000199060031b1c191617600d8601555b8051906001600160401b0382116103fb578190612ba9600e880154613f3e565b601f8111612fa5575b50602090601f8311600114612f3357600092612f28575b50508160011b916000199060031b1c191617600e8501555b8051906001600160401b0382116103fb578190612c01600f870154613f3e565b601f8111612ef3575b50602090601f8311600114612e8157600092612e76575b50508160011b916000199060031b1c191617600f8401555b805160108401916001600160401b0382116103fb578190612c5a8454613f3e565b601f8111612e44575b50602090601f8311600114612dde57600092612dd3575b50508160011b916000199060031b1c19161790555b6011820183516001600160401b0381116103fb57612cad8254613f3e565b601f8111612da1575b506020601f8211600114612d255790806103269493926000805160206141978339815191529697600092612d1a575b50508160011b916000199060031b1c19161790555b6040519182916020835260018060a01b0316946002602084019101613f78565b015190508780612ce5565b601f198216958360005260206000209660005b818110612d895750966001928492610326979695600080516020614197833981519152999a10612d70575b505050811b019055612cfa565b015160001960f88460031b161c19169055878080612d63565b83830151895560019098019760209384019301612d38565b612dcd90836000526020600020601f840160051c810191602085106103f157601f0160051c019061409e565b85612cb6565b015190508680612c7a565b6000858152602081209350601f198516905b818110612e2c5750908460019594939210612e13575b505050811b019055612c8f565b015160001960f88460031b161c19169055868080612e06565b92936020600181928786015181550195019301612df0565b612e7090856000526020600020601f850160051c810191602086106103f157601f0160051c019061409e565b87612c63565b015190508680612c21565b9250600f86016000526020600020906000935b601f1984168510612ed8576001945083601f19811610612ebf575b505050811b01600f840155612c39565b015160001960f88460031b161c19169055868080612eaf565b81810151835560209485019460019093019290910190612e94565b612f2290600f88016000526020600020601f850160051c810191602086106103f157601f0160051c019061409e565b87612c0a565b015190508780612bc9565b9250600e87016000526020600020906000935b601f1984168510612f8a576001945083601f19811610612f71575b505050811b01600e850155612be1565b015160001960f88460031b161c19169055878080612f61565b81810151835560209485019460019093019290910190612f46565b612fd490600e89016000526020600020601f850160051c810191602086106103f157601f0160051c019061409e565b88612bb2565b015190508880612b71565b9250600d88016000526020600020906000935b601f198416851061303c576001945083601f19811610613023575b505050811b01600d860155612b89565b015160001960f88460031b161c19169055888080613013565b81810151835560209485019460019093019290910190612ff8565b61308690600d8a016000526020600020601f850160051c810191602086106103f157601f0160051c019061409e565b89612b5a565b015190508980612b11565b9250600b89016000526020600020906000935b601f19841685106130ee576001945083601f198116106130d5575b505050811b01600b870155612b29565b015160001960f88460031b161c191690558980806130c5565b818101518355602094850194600190930192909101906130aa565b61313890600b8b016000526020600020601f850160051c810191602086106103f157601f0160051c019061409e565b8a612afa565b015190508a80612ab9565b9250600a8a016000526020600020906000935b601f19841685106131a0576001945083601f19811610613187575b505050811b01600a880155612ad1565b015160001960f88460031b161c191690558a8080613177565b8181015183556020948501946001909301929091019061315c565b6131ea90600a8c016000526020600020601f850160051c810191602086106103f157601f0160051c019061409e565b8b612aa2565b015190508b80612a61565b925060098b016000526020600020906000935b601f1984168510613252576001945083601f19811610613239575b505050811b016009890155612a79565b015160001960f88460031b161c191690558b8080613229565b8181015183556020948501946001909301929091019061320e565b61329c9060098d016000526020600020601f850160051c810191602086106103f157601f0160051c019061409e565b8c612a4a565b015190508c80612a09565b925060088c016000526020600020906000935b601f1984168510613304576001945083601f198116106132eb575b505050811b0160088a0155612a21565b015160001960f88460031b161c191690558c80806132db565b818101518355602094850194600190930192909101906132c0565b600861334d92016000526020600020601f850160051c810191602086106103f157601f0160051c019061409e565b8b8e6129f1565b60405162461bcd60e51b815260206004820152603c60248201527f4f6e6c792061646d696e206f72207468652075736572207468656d73656c766560448201527f732063616e2075706461746520636f6d70616e792064657461696c73000000006064820152608490fd5b50336001600160a01b038916146129a9565b503360005260016020526104386133f5600460406000200160405192838092613f78565b60208151910120613404614031565b60208151910120146129a2565b3461011a57600036600319011261011a57604051806003548083526020809301809160036000527fc2575a0e9e593c00f959f8c92f12db2869c3395a3b0502d05e2516446f71f85b9060005b868282106134bc57868661347382880383613e7a565b604051928392818401908285525180915260408401929160005b82811061349c57505050500390f35b83516001600160a01b03168552869550938101939281019260010161348d565b83546001600160a01b03168552909301926001928301920161345d565b3461011a57602036600319011261011a576001600160a01b036134fa613de5565b166000526001602052602061043861351f600460406000200160405192838092613f78565b81815191012061279d614031565b3461011a57608036600319011261011a57613546613de5565b6001600160401b0360243581811161011a57613566903690600401613e9b565b9160443582811161011a5761357f903690600401613e9b565b9060643583811161011a57613598903690600401613e9b565b60018060a01b03809216938460005260016020938185526135c0610274604060002054613f3e565b6000541633148015613a7c575b8015613a73575b15613a0857856000528084526104386135fa600260406000200160405192838092613f78565b86815186808401918220938951828b019581872003613925575b5050505090506000528084528060406000200187518381116103fb578061363b8354613f3e565b99601f9a8b81116138f7575b5087908b831160011461389457600092613889575b5050600019600383901b1c191690831b1790555b85600052808452600260406000200185518381116103fb576136928254613f3e565b89811161385b575b5080868a82116001146137f9576000916137ee575b50600019600383901b1c191690831b1790555b8560005280845260036040600020019280519283116103fb576136e58454613f3e565b8881116137b6575b50849783116001146137465782916000805160206141978339815191529798839260009461373b575b50501b916000199060031b1c1916179055610326604051928284938452830190613e1e565b015192508980613716565b601f9291921982169784600052856000209160005b8a81106137a1575083600080516020614197833981519152999a10613788575b505050811b019055612292565b015160001960f88460031b161c1916905587808061377b565b8183015184559285019291870191870161375b565b6137df9085600052866000208a80870160051c8201928988106137e5575b0160051c019061409e565b886136ed565b925081926137d4565b90508701518a6136af565b849250601f1982169084600052886000209160005b8a8c83831061384657505050831161382d575b5050811b0190556136c2565b89015160001960f88460031b161c191690558a80613821565b8401518555889690940193928301920161380e565b6138839083600052876000208b80850160051c8201928a86106137e5570160051c019061409e565b8961369a565b015190508a8061365c565b90859350601f1983169185600052896000209260005b8b8282106138e157505084116138c8575b505050811b019055613670565b015160001960f88460031b161c191690558a80806138bb565b83850151865589979095019493840193016138aa565b61391f9085600052896000208d80860160051c8201928c87106137e5570160051c019061409e565b8b613647565b6139ec936139b99261395860ff84878b819761394660405194858094613dfb565b81016004815203019020541615614052565b8c89613997858b6040518281885161397181838d613dfb565b810160048152030190209460ff1995868154169055604051938492839251928391613dfb565b8101600481520301902091825416179055604051938492839251928391613dfb565b81016002815203019020936bffffffffffffffffffffffff60a01b94858154169055604051809381928c51928391613dfb565b8101600281520301902091825416179055878681868180613614565b60405162461bcd60e51b815260048101859052603960248201527f4f6e6c792061646d696e206f72207468652075736572207468656d73656c766560448201527f732063616e2075706461746520757365722064657461696c73000000000000006064820152608490fd5b508533146135d4565b5033600052808452610438613a9e600460406000200160405192838092613f78565b848151910120613aac614031565b858151910120146135cd565b3461011a57602036600319011261011a576001600160a01b03613ad9613de5565b1660005260016020526040600020613af082613e43565b60405180613afe8184613f78565b03613b099082613e7a565b825260405180613b1c8160018501613f78565b03613b279082613e7a565b602083015260405180613b3d8160028501613f78565b03613b489082613e7a565b604083015260405180806003840190613b6091613f78565b03613b6b9082613e7a565b606083015260405180613b818160048501613f78565b03613b8c9082613e7a565b6080830152600581015460ff16151560a083015260405180613bb18160068501613f78565b03613bbc9082613e7a565b60c0830152600781015460e08301526040519182613bdd8160088501613f78565b03613be89084613e7a565b61010081810193845260405180613c028160098701613f78565b03613c0d9082613e7a565b61012091828401918252604051948580600a830190613c2b91613f78565b03613c369087613e7a565b6101409687968787019081526040518080600b860190613c5591613f78565b03613c609082613e7a565b6101608801908152600c84015461018089019081526040519182613c8781600d8901613f78565b03613c929084613e7a565b6101a08a019283526040519384613cac81600e8a01613f78565b03613cb79086613e7a565b6101c08b019485526040519586613cd181600f8b01613f78565b03613cdc9088613e7a565b6101e08c019687526040519788613cf68160108401613f78565b03613d01908a613e7a565b6102008d019889526040519c8d80601181940190613d1e91613f78565b03613d299083613e7a565b61022001525198519051915192519351945195519651986040519d8e9d8e528d01613d5391613e1e565b8c810360208e0152613d6491613e1e565b8b810360408d0152613d7591613e1e565b8a810360608c0152613d8691613e1e565b9060808a015288810360a08a0152613d9d91613e1e565b87810360c0890152613dae91613e1e565b86810360e0880152613dbf91613e1e565b9085820390860152613dd091613e1e565b9083820390840152613de191613e1e565b0390f35b600435906001600160a01b038216820361011a57565b60005b838110613e0e5750506000910152565b8181015183820152602001613dfe565b90602091613e3781518092818552858086019101613dfb565b601f01601f1916010190565b61024081019081106001600160401b038211176103fb57604052565b604081019081106001600160401b038211176103fb57604052565b90601f801991011681019081106001600160401b038211176103fb57604052565b81601f8201121561011a578035906001600160401b0382116103fb5760405192613ecf601f8401601f191660200185613e7a565b8284526020838301011161011a57816000926020809301838601378301015290565b600354811015613f285760036000527fc2575a0e9e593c00f959f8c92f12db2869c3395a3b0502d05e2516446f71f85b0190600090565b634e487b7160e01b600052603260045260246000fd5b90600182811c92168015613f6e575b6020831014613f5857565b634e487b7160e01b600052602260045260246000fd5b91607f1691613f4d565b9060009291805491613f8983613f3e565b918282526001938481169081600014613feb5750600114613fab575b50505050565b90919394506000526020928360002092846000945b838610613fd7575050505001019038808080613fa5565b805485870183015294019385908201613fc0565b9294505050602093945060ff191683830152151560051b01019038808080613fa5565b6040519061401b82613e5f565b600782526637b33334b1b2b960c91b6020830152565b6040519061403e82613e5f565b600582526430b236b4b760d91b6020830152565b1561405957565b60405162461bcd60e51b815260206004820152601760248201527f557365726e616d6520616c7265616479206578697374730000000000000000006044820152606490fd5b8181106140a9575050565b6000815560010161409e565b156140bc57565b60405162461bcd60e51b8152602060048201526013602482015272155cd95c88191bd95cc81b9bdd08195e1a5cdd606a1b6044820152606490fd5b156140fe57565b60405162461bcd60e51b815260206004820152602160248201527f4f6e6c792061646d696e2063616e2063616c6c20746869732066756e6374696f6044820152603760f91b6064820152608490fd5b6141578154613f3e565b9081614161575050565b81601f60009311600114614173575055565b908083918252614192601f60208420940160051c84016001850161409e565b555556fed6136f3cad7c60bfc24bbf1548f39f766ca8bce104bf9adde3deb6237dec51dfa26469706673582212209ffb02addda2e22bcc3c4180d33ac0d49c62bb3b2b9e0f3cdde7ffec78d4394064736f6c63430008130033","opcodes":"PUSH2 0x120 DUP1 PUSH1 0x40 MSTORE PUSH1 0x4 CALLDATASIZE LT ISZERO PUSH2 0x14 JUMPI PUSH1 0x0 DUP1 REVERT JUMPDEST PUSH1 0x0 CALLDATALOAD PUSH1 0xE0 SHR SWAP1 DUP2 PUSH4 0x558D3E9 EQ PUSH2 0x3AB8 JUMPI POP DUP1 PUSH4 0xDA4578B EQ PUSH2 0x352D JUMPI DUP1 PUSH4 0x24D7806C EQ PUSH2 0x34D9 JUMPI DUP1 PUSH4 0x2F330023 EQ PUSH2 0x3411 JUMPI DUP1 PUSH4 0x37A1BBA2 EQ PUSH2 0x2832 JUMPI DUP1 PUSH4 0x4209FFF1 EQ PUSH2 0x27EE JUMPI DUP1 PUSH4 0x502C9BD5 EQ PUSH2 0x27AC JUMPI DUP1 PUSH4 0x6816442D EQ PUSH2 0x2749 JUMPI DUP1 PUSH4 0x69C212F6 EQ PUSH2 0x24A3 JUMPI DUP1 PUSH4 0x75829DEF EQ PUSH2 0x23D4 JUMPI DUP1 PUSH4 0x98575188 EQ PUSH2 0x2097 JUMPI DUP1 PUSH4 0x9D4D1342 EQ PUSH2 0xB71 JUMPI DUP1 PUSH4 0x9F42AF63 EQ PUSH2 0x80E JUMPI DUP1 PUSH4 0xA87430BA EQ PUSH2 0x47B JUMPI DUP1 PUSH4 0xB5CB15F7 EQ PUSH2 0x45D JUMPI DUP1 PUSH4 0xB979CC2F EQ PUSH2 0x1E8 JUMPI DUP1 PUSH4 0xF309E3F9 EQ PUSH2 0x187 JUMPI DUP1 PUSH4 0xF825F143 EQ PUSH2 0x11F JUMPI PUSH4 0xF851A440 EQ PUSH2 0xF1 JUMPI PUSH1 0x0 DUP1 REVERT JUMPDEST CALLVALUE PUSH2 0x11A JUMPI PUSH1 0x0 CALLDATASIZE PUSH1 0x3 NOT ADD SLT PUSH2 0x11A JUMPI PUSH1 0x0 SLOAD PUSH1 0x40 MLOAD PUSH1 0x1 PUSH1 0x1 PUSH1 0xA0 SHL SUB SWAP1 SWAP2 AND DUP2 MSTORE PUSH1 0x20 SWAP1 RETURN JUMPDEST PUSH1 0x0 DUP1 REVERT JUMPDEST CALLVALUE PUSH2 0x11A JUMPI PUSH1 0x20 CALLDATASIZE PUSH1 0x3 NOT ADD SLT PUSH2 0x11A JUMPI PUSH1 0x4 CALLDATALOAD PUSH1 0x1 PUSH1 0x1 PUSH1 0x40 SHL SUB DUP2 GT PUSH2 0x11A JUMPI PUSH2 0x151 PUSH1 0x20 SWAP2 CALLDATASIZE SWAP1 PUSH1 0x4 ADD PUSH2 0x3E9B JUMP JUMPDEST DUP2 PUSH2 0x165 PUSH1 0x40 MLOAD SWAP3 DUP4 DUP2 MLOAD SWAP4 DUP5 SWAP3 ADD PUSH2 0x3DFB JUMP JUMPDEST PUSH1 0x2 SWAP1 DUP3 ADD SWAP1 DUP2 MSTORE DUP2 SWAP1 SUB DUP3 ADD SWAP1 KECCAK256 SLOAD PUSH1 0x40 MLOAD PUSH1 0x1 PUSH1 0x1 PUSH1 0xA0 SHL SUB SWAP1 SWAP2 AND DUP2 MSTORE RETURN JUMPDEST CALLVALUE PUSH2 0x11A JUMPI PUSH1 0x20 CALLDATASIZE PUSH1 0x3 NOT ADD SLT PUSH2 0x11A JUMPI PUSH1 0x4 CALLDATALOAD PUSH1 0x1 PUSH1 0x1 PUSH1 0x40 SHL SUB DUP2 GT PUSH2 0x11A JUMPI PUSH1 0xFF PUSH2 0x1D2 PUSH1 0x20 PUSH2 0x1BF DUP2 SWAP5 CALLDATASIZE SWAP1 PUSH1 0x4 ADD PUSH2 0x3E9B JUMP JUMPDEST DUP2 PUSH1 0x40 MLOAD SWAP4 DUP3 DUP6 DUP1 SWAP5 MLOAD SWAP4 DUP5 SWAP3 ADD PUSH2 0x3DFB JUMP JUMPDEST DUP2 ADD PUSH1 0x4 DUP2 MSTORE SUB ADD SWAP1 KECCAK256 SLOAD AND PUSH1 0x40 MLOAD SWAP1 ISZERO ISZERO DUP2 MSTORE RETURN JUMPDEST CALLVALUE PUSH2 0x11A JUMPI PUSH1 0x60 CALLDATASIZE PUSH1 0x3 NOT ADD SLT PUSH2 0x11A JUMPI PUSH2 0x201 PUSH2 0x3DE5 JUMP JUMPDEST PUSH1 0x24 CALLDATALOAD DUP1 ISZERO ISZERO SWAP1 DUP2 DUP2 SUB PUSH2 0x11A JUMPI PUSH1 0x1 PUSH1 0x1 PUSH1 0x40 SHL SUB SWAP2 PUSH1 0x44 CALLDATALOAD DUP4 DUP2 GT PUSH2 0x11A JUMPI PUSH2 0x230 SWAP1 CALLDATASIZE SWAP1 PUSH1 0x4 ADD PUSH2 0x3E9B JUMP JUMPDEST PUSH1 0x0 SLOAD SWAP1 SWAP5 PUSH1 0x1 PUSH1 0x1 PUSH1 0xA0 SHL SUB SWAP2 DUP3 AND CALLER EQ DUP1 ISZERO PUSH2 0x411 JUMPI JUMPDEST PUSH2 0x252 SWAP1 PUSH2 0x40F7 JUMP JUMPDEST AND SWAP3 DUP4 PUSH1 0x0 MSTORE PUSH1 0x1 SWAP1 PUSH1 0x6 PUSH1 0x20 SWAP5 DUP4 DUP7 MSTORE PUSH2 0x27B PUSH2 0x274 PUSH1 0x40 PUSH1 0x0 KECCAK256 SLOAD PUSH2 0x3F3E JUMP JUMPDEST ISZERO ISZERO PUSH2 0x40B5 JUMP JUMPDEST DUP7 PUSH1 0x0 MSTORE DUP4 DUP7 MSTORE PUSH2 0x2A0 PUSH1 0x40 PUSH1 0x0 KECCAK256 SWAP2 PUSH1 0x5 DUP4 ADD SWAP1 PUSH1 0xFF DUP1 NOT DUP4 SLOAD AND SWAP2 ISZERO ISZERO AND OR SWAP1 SSTORE JUMP JUMPDEST ADD SWAP2 DUP7 MLOAD SWAP2 DUP3 GT PUSH2 0x3FB JUMPI PUSH2 0x2B5 DUP4 SLOAD PUSH2 0x3F3E JUMP JUMPDEST PUSH1 0x1F DUP2 GT PUSH2 0x3C0 JUMPI JUMPDEST POP DUP5 PUSH1 0x1F DUP4 GT PUSH1 0x1 EQ PUSH2 0x336 JUMPI SWAP2 DUP1 DUP1 PUSH2 0x326 SWAP6 SWAP4 PUSH32 0x925B0343B9085747D26A9125C88206057343A6E2DB8D4FE70CEE25DA0220AAC1 SWAP10 SWAP11 SWAP6 PUSH1 0x0 SWAP4 PUSH2 0x32B JUMPI JUMPDEST POP SHL SWAP2 PUSH1 0x0 NOT SWAP1 PUSH1 0x3 SHL SHR NOT AND OR SWAP1 SSTORE JUMPDEST PUSH1 0x40 DUP1 MLOAD SWAP5 DUP6 SWAP5 DUP6 MSTORE DUP5 ADD MSTORE PUSH1 0x40 DUP4 ADD SWAP1 PUSH2 0x3E1E JUMP JUMPDEST SUB SWAP1 LOG2 STOP JUMPDEST DUP7 ADD MLOAD SWAP3 POP DUP12 PUSH2 0x2FF JUMP JUMPDEST PUSH1 0x1F SWAP3 SWAP2 SWAP3 NOT DUP3 AND SWAP1 DUP5 PUSH1 0x0 MSTORE DUP7 PUSH1 0x0 KECCAK256 SWAP2 PUSH1 0x0 JUMPDEST DUP2 DUP2 LT PUSH2 0x3AB JUMPI POP SWAP2 DUP4 SWAP2 PUSH2 0x326 SWAP7 SWAP5 PUSH32 0x925B0343B9085747D26A9125C88206057343A6E2DB8D4FE70CEE25DA0220AAC1 SWAP11 SWAP12 SWAP7 SWAP5 LT PUSH2 0x392 JUMPI JUMPDEST POP POP DUP2 SHL ADD SWAP1 SSTORE PUSH2 0x310 JUMP JUMPDEST DUP6 ADD MLOAD PUSH1 0x0 NOT PUSH1 0xF8 DUP5 PUSH1 0x3 SHL AND SHR NOT AND SWAP1 SSTORE DUP10 DUP1 PUSH2 0x386 JUMP JUMPDEST DUP11 DUP4 ADD MLOAD DUP5 SSTORE SWAP3 DUP6 ADD SWAP3 SWAP2 DUP9 ADD SWAP2 DUP9 ADD PUSH2 0x34B JUMP JUMPDEST PUSH2 0x3EB SWAP1 DUP5 PUSH1 0x0 MSTORE DUP7 PUSH1 0x0 KECCAK256 PUSH1 0x1F DUP6 ADD PUSH1 0x5 SHR DUP2 ADD SWAP2 DUP9 DUP7 LT PUSH2 0x3F1 JUMPI JUMPDEST PUSH1 0x1F ADD PUSH1 0x5 SHR ADD SWAP1 PUSH2 0x409E JUMP JUMPDEST DUP8 PUSH2 0x2BE JUMP JUMPDEST SWAP1 SWAP2 POP DUP2 SWAP1 PUSH2 0x3DE JUMP JUMPDEST PUSH4 0x4E487B71 PUSH1 0xE0 SHL PUSH1 0x0 MSTORE PUSH1 0x41 PUSH1 0x4 MSTORE PUSH1 0x24 PUSH1 0x0 REVERT JUMPDEST POP CALLER PUSH1 0x0 MSTORE PUSH1 0x1 PUSH1 0x20 MSTORE PUSH2 0x252 PUSH2 0x438 PUSH2 0x43F PUSH1 0x4 PUSH1 0x40 PUSH1 0x0 KECCAK256 ADD PUSH1 0x40 MLOAD SWAP3 DUP4 DUP1 SWAP3 PUSH2 0x3F78 JUMP JUMPDEST SUB DUP3 PUSH2 0x3E7A JUMP JUMPDEST PUSH1 0x20 DUP2 MLOAD SWAP2 ADD KECCAK256 PUSH2 0x44E PUSH2 0x4031 JUMP JUMPDEST PUSH1 0x20 DUP2 MLOAD SWAP2 ADD KECCAK256 EQ SWAP1 POP PUSH2 0x249 JUMP JUMPDEST CALLVALUE PUSH2 0x11A JUMPI PUSH1 0x0 CALLDATASIZE PUSH1 0x3 NOT ADD SLT PUSH2 0x11A JUMPI PUSH1 0x20 PUSH1 0x3 SLOAD PUSH1 0x40 MLOAD SWAP1 DUP2 MSTORE RETURN JUMPDEST CALLVALUE PUSH2 0x11A JUMPI PUSH1 0x20 CALLDATASIZE PUSH1 0x3 NOT ADD SLT PUSH2 0x11A JUMPI PUSH1 0x1 PUSH1 0x1 PUSH1 0xA0 SHL SUB PUSH2 0x49C PUSH2 0x3DE5 JUMP JUMPDEST AND PUSH1 0x0 MSTORE PUSH1 0x1 PUSH1 0x20 MSTORE PUSH1 0x40 PUSH1 0x0 KECCAK256 DUP1 DUP1 PUSH1 0x40 MLOAD DUP1 PUSH2 0x4BA DUP2 DUP5 PUSH2 0x3F78 JUMP JUMPDEST SUB PUSH2 0x4C5 SWAP1 DUP3 PUSH2 0x3E7A JUMP JUMPDEST PUSH1 0x40 MLOAD PUSH1 0xA0 DUP2 SWAP1 MSTORE PUSH2 0x4DA DUP2 PUSH1 0x1 DUP6 ADD PUSH2 0x3F78 JUMP JUMPDEST SUB PUSH1 0xA0 MLOAD SWAP1 PUSH2 0x4E8 SWAP2 PUSH2 0x3E7A JUMP JUMPDEST PUSH1 0x40 MLOAD PUSH1 0x80 DUP2 SWAP1 MSTORE PUSH2 0x4FD DUP2 PUSH1 0x2 DUP6 ADD PUSH2 0x3F78 JUMP JUMPDEST SUB PUSH1 0x80 MLOAD SWAP1 PUSH2 0x50B SWAP2 PUSH2 0x3E7A JUMP JUMPDEST PUSH1 0x40 MLOAD DUP1 PUSH2 0x51C DUP2 PUSH1 0x3 DUP7 ADD PUSH2 0x3F78 JUMP JUMPDEST SUB PUSH2 0x527 SWAP1 DUP3 PUSH2 0x3E7A JUMP JUMPDEST PUSH1 0x40 MLOAD DUP1 PUSH2 0x538 DUP2 PUSH1 0x4 DUP8 ADD PUSH2 0x3F78 JUMP JUMPDEST SUB PUSH2 0x543 SWAP1 DUP3 PUSH2 0x3E7A JUMP JUMPDEST PUSH1 0x5 DUP5 ADD SLOAD PUSH1 0xFF AND PUSH1 0x40 MLOAD DUP1 DUP1 PUSH1 0x6 DUP9 ADD SWAP1 PUSH2 0x55E SWAP2 PUSH2 0x3F78 JUMP JUMPDEST SUB PUSH2 0x569 SWAP1 DUP3 PUSH2 0x3E7A JUMP JUMPDEST PUSH1 0x7 DUP7 ADD SLOAD PUSH1 0x40 MLOAD SWAP2 DUP3 PUSH2 0x580 DUP2 PUSH1 0x8 DUP12 ADD PUSH2 0x3F78 JUMP JUMPDEST SUB PUSH2 0x58B SWAP1 DUP5 PUSH2 0x3E7A JUMP JUMPDEST PUSH1 0x40 MLOAD SWAP4 DUP5 PUSH2 0x59D DUP2 PUSH1 0x9 DUP13 ADD PUSH2 0x3F78 JUMP JUMPDEST SUB PUSH2 0x5A8 SWAP1 DUP7 PUSH2 0x3E7A JUMP JUMPDEST PUSH1 0x40 MLOAD SWAP6 DUP7 PUSH2 0x5BA DUP2 PUSH1 0xA DUP14 ADD PUSH2 0x3F78 JUMP JUMPDEST SUB PUSH2 0x5C5 SWAP1 DUP9 PUSH2 0x3E7A JUMP JUMPDEST PUSH1 0x40 MLOAD SWAP8 DUP9 PUSH2 0x5D7 DUP2 PUSH1 0xB DUP15 ADD PUSH2 0x3F78 JUMP JUMPDEST SUB PUSH2 0x5E2 SWAP1 DUP11 PUSH2 0x3E7A JUMP JUMPDEST PUSH1 0xC DUP12 ADD SLOAD SWAP10 PUSH1 0x40 MLOAD DUP1 PUSH1 0xD DUP2 SWAP15 ADD SWAP1 PUSH2 0x5FB SWAP2 PUSH2 0x3F78 JUMP JUMPDEST SUB PUSH2 0x606 SWAP1 DUP14 PUSH2 0x3E7A JUMP JUMPDEST PUSH1 0x40 MLOAD DUP1 DUP1 SWAP15 PUSH1 0xE DUP3 SWAP2 ADD SWAP1 PUSH2 0x61B SWAP2 PUSH2 0x3F78 JUMP JUMPDEST SUB PUSH2 0x625 SWAP2 PUSH2 0x3E7A JUMP JUMPDEST PUSH1 0x40 MLOAD SWAP14 DUP15 DUP1 PUSH2 0x638 DUP2 PUSH1 0xF DUP6 ADD PUSH2 0x3F78 JUMP JUMPDEST SUB PUSH2 0x642 SWAP2 PUSH2 0x3E7A JUMP JUMPDEST PUSH1 0x40 MLOAD PUSH1 0xC0 DUP2 SWAP1 MSTORE PUSH2 0x657 DUP2 PUSH1 0x10 DUP5 ADD PUSH2 0x3F78 JUMP JUMPDEST SUB PUSH1 0xC0 MLOAD SWAP1 PUSH2 0x665 SWAP2 PUSH2 0x3E7A JUMP JUMPDEST PUSH1 0x40 MLOAD DUP1 SWAP2 DUP2 PUSH1 0xE0 MSTORE PUSH1 0x11 ADD SWAP1 PUSH2 0x67B SWAP2 PUSH2 0x3F78 JUMP JUMPDEST SUB PUSH1 0xE0 MLOAD SWAP1 PUSH2 0x689 SWAP2 PUSH2 0x3E7A JUMP JUMPDEST PUSH1 0x40 MLOAD DUP1 PUSH2 0x100 MSTORE PUSH2 0x240 DUP1 SWAP2 MSTORE PUSH2 0x100 MLOAD ADD PUSH2 0x6A5 SWAP2 PUSH2 0x3E1E JUMP JUMPDEST PUSH2 0x100 MLOAD DUP1 DUP3 SUB SWAP1 PUSH1 0x20 ADD MSTORE PUSH1 0xA0 MLOAD SWAP1 PUSH2 0x6BE SWAP2 PUSH2 0x3E1E JUMP JUMPDEST PUSH2 0x100 MLOAD DUP1 DUP3 SUB SWAP1 PUSH1 0x40 ADD MSTORE PUSH1 0x80 MLOAD SWAP1 PUSH2 0x6D7 SWAP2 PUSH2 0x3E1E JUMP JUMPDEST PUSH2 0x100 MLOAD DUP1 DUP3 SUB SWAP1 PUSH1 0x60 ADD MSTORE PUSH2 0x6EC SWAP2 PUSH2 0x3E1E JUMP JUMPDEST PUSH2 0x100 MLOAD DUP1 DUP3 SUB SWAP1 PUSH1 0x80 ADD MSTORE PUSH2 0x701 SWAP2 PUSH2 0x3E1E JUMP JUMPDEST SWAP1 ISZERO ISZERO PUSH2 0x100 MLOAD PUSH1 0xA0 ADD MSTORE PUSH2 0x100 MLOAD DUP1 DUP3 SUB SWAP1 PUSH1 0xC0 ADD MSTORE PUSH2 0x721 SWAP2 PUSH2 0x3E1E JUMP JUMPDEST SWAP1 PUSH2 0x100 MLOAD PUSH1 0xE0 ADD MSTORE PUSH2 0x100 MLOAD DUP1 DUP3 SUB SWAP1 PUSH2 0x100 ADD MSTORE PUSH2 0x740 SWAP2 PUSH2 0x3E1E JUMP JUMPDEST PUSH2 0x100 MLOAD DUP1 DUP3 SUB SWAP1 PUSH2 0x120 ADD MSTORE PUSH2 0x756 SWAP2 PUSH2 0x3E1E JUMP JUMPDEST PUSH2 0x100 MLOAD DUP1 DUP3 SUB SWAP1 PUSH2 0x140 ADD MSTORE PUSH2 0x76C SWAP2 PUSH2 0x3E1E JUMP JUMPDEST PUSH2 0x100 MLOAD DUP1 DUP3 SUB SWAP1 PUSH2 0x160 ADD MSTORE PUSH2 0x782 SWAP2 PUSH2 0x3E1E JUMP JUMPDEST SWAP1 PUSH2 0x100 MLOAD PUSH2 0x180 ADD MSTORE PUSH2 0x100 MLOAD DUP1 DUP3 SUB SWAP1 PUSH2 0x1A0 ADD MSTORE PUSH2 0x7A2 SWAP2 PUSH2 0x3E1E JUMP JUMPDEST PUSH2 0x100 MLOAD DUP1 DUP3 SUB SWAP1 PUSH2 0x1C0 ADD MSTORE PUSH2 0x7B8 SWAP2 PUSH2 0x3E1E JUMP JUMPDEST PUSH2 0x100 MLOAD DUP1 DUP3 SUB SWAP1 PUSH2 0x1E0 ADD MSTORE PUSH2 0x7CE SWAP2 PUSH2 0x3E1E JUMP JUMPDEST PUSH2 0x100 MLOAD DUP1 DUP3 SUB SWAP1 PUSH2 0x200 ADD MSTORE PUSH1 0xC0 MLOAD SWAP1 PUSH2 0x7E8 SWAP2 PUSH2 0x3E1E JUMP JUMPDEST PUSH2 0x100 MLOAD DUP1 DUP3 SUB SWAP1 PUSH2 0x220 ADD MSTORE PUSH2 0x100 MLOAD SWAP1 PUSH1 0xE0 MLOAD SWAP1 PUSH2 0x807 SWAP2 PUSH2 0x3E1E JUMP JUMPDEST SUB PUSH2 0x100 MLOAD RETURN JUMPDEST CALLVALUE PUSH2 0x11A JUMPI PUSH1 0x20 DUP1 PUSH1 0x3 NOT CALLDATASIZE ADD SLT PUSH2 0x11A JUMPI PUSH1 0x4 CALLDATALOAD PUSH1 0x1 PUSH1 0x1 PUSH1 0x40 SHL SUB DUP2 GT PUSH2 0x11A JUMPI PUSH2 0x83F SWAP1 CALLDATASIZE SWAP1 PUSH1 0x4 ADD PUSH2 0x3E9B JUMP JUMPDEST DUP2 PUSH2 0x853 PUSH1 0x40 MLOAD SWAP3 DUP4 DUP2 MLOAD SWAP4 DUP5 SWAP3 ADD PUSH2 0x3DFB JUMP JUMPDEST PUSH1 0x2 SWAP1 DUP3 ADD SWAP1 DUP2 MSTORE DUP2 SWAP1 SUB DUP3 ADD SWAP1 KECCAK256 SLOAD PUSH1 0x1 PUSH1 0x1 PUSH1 0xA0 SHL SUB AND DUP1 ISZERO PUSH2 0xB37 JUMPI DUP1 PUSH1 0x0 MSTORE PUSH1 0x1 DUP3 MSTORE PUSH1 0x40 PUSH1 0x0 KECCAK256 PUSH1 0x40 MLOAD PUSH2 0x88B DUP2 PUSH2 0x3E43 JUMP JUMPDEST PUSH1 0x40 MLOAD DUP1 PUSH2 0x899 DUP2 DUP6 PUSH2 0x3F78 JUMP JUMPDEST SUB PUSH2 0x8A4 SWAP1 DUP3 PUSH2 0x3E7A JUMP JUMPDEST DUP2 MSTORE PUSH1 0x40 MLOAD DUP1 PUSH2 0x8B7 DUP2 PUSH1 0x1 DUP7 ADD PUSH2 0x3F78 JUMP JUMPDEST SUB PUSH2 0x8C2 SWAP1 DUP3 PUSH2 0x3E7A JUMP JUMPDEST DUP2 DUP6 ADD SWAP1 DUP2 MSTORE PUSH1 0x40 MLOAD DUP1 PUSH2 0x8D9 DUP2 PUSH1 0x2 DUP8 ADD PUSH2 0x3F78 JUMP JUMPDEST SUB PUSH2 0x8E4 SWAP1 DUP3 PUSH2 0x3E7A JUMP JUMPDEST PUSH1 0x40 DUP4 ADD MSTORE PUSH1 0x40 MLOAD DUP1 DUP1 PUSH1 0x3 DUP7 ADD SWAP1 PUSH2 0x8FC SWAP2 PUSH2 0x3F78 JUMP JUMPDEST SUB PUSH2 0x907 SWAP1 DUP3 PUSH2 0x3E7A JUMP JUMPDEST PUSH1 0x60 DUP4 ADD SWAP1 DUP2 MSTORE PUSH1 0x40 MLOAD DUP1 PUSH2 0x91F DUP2 PUSH1 0x4 DUP9 ADD PUSH2 0x3F78 JUMP JUMPDEST SUB PUSH2 0x92A SWAP1 DUP3 PUSH2 0x3E7A JUMP JUMPDEST PUSH1 0x80 DUP5 ADD SWAP1 DUP2 MSTORE PUSH1 0x5 DUP6 ADD SLOAD PUSH1 0xFF AND SWAP2 PUSH1 0xA0 DUP6 ADD SWAP3 ISZERO ISZERO DUP4 MSTORE PUSH1 0x40 MLOAD SWAP4 DUP5 DUP1 PUSH1 0x6 DUP10 ADD SWAP1 PUSH2 0x957 SWAP2 PUSH2 0x3F78 JUMP JUMPDEST SUB PUSH2 0x962 SWAP1 DUP7 PUSH2 0x3E7A JUMP JUMPDEST PUSH1 0xC0 DUP7 ADD SWAP5 DUP6 MSTORE PUSH1 0x7 DUP8 ADD SLOAD SWAP6 PUSH1 0xE0 DUP2 ADD SWAP7 DUP8 MSTORE PUSH1 0x40 MLOAD SWAP8 DUP9 DUP1 PUSH1 0x8 DUP4 ADD SWAP1 PUSH2 0x98A SWAP2 PUSH2 0x3F78 JUMP JUMPDEST SUB PUSH2 0x995 SWAP1 DUP11 PUSH2 0x3E7A JUMP JUMPDEST PUSH2 0x100 SWAP9 DUP10 DUP4 ADD MSTORE PUSH1 0x40 MLOAD DUP1 DUP1 PUSH1 0x9 DUP5 ADD SWAP1 PUSH2 0x9B0 SWAP2 PUSH2 0x3F78 JUMP JUMPDEST SUB PUSH2 0x9BB SWAP1 DUP3 PUSH2 0x3E7A JUMP JUMPDEST PUSH2 0x120 DUP4 ADD MSTORE PUSH1 0x40 MLOAD DUP1 PUSH2 0x9D2 DUP2 PUSH1 0xA DUP6 ADD PUSH2 0x3F78 JUMP JUMPDEST SUB PUSH2 0x9DD SWAP1 DUP3 PUSH2 0x3E7A JUMP JUMPDEST PUSH2 0x140 DUP4 ADD MSTORE PUSH1 0x40 MLOAD DUP1 PUSH2 0x9F4 DUP2 PUSH1 0xB DUP6 ADD PUSH2 0x3F78 JUMP JUMPDEST SUB PUSH2 0x9FF SWAP1 DUP3 PUSH2 0x3E7A JUMP JUMPDEST PUSH2 0x160 DUP4 ADD MSTORE PUSH1 0xC DUP2 ADD SLOAD PUSH2 0x180 DUP4 ADD MSTORE PUSH1 0x40 MLOAD DUP1 PUSH2 0xA21 DUP2 PUSH1 0xD DUP6 ADD PUSH2 0x3F78 JUMP JUMPDEST SUB PUSH2 0xA2C SWAP1 DUP3 PUSH2 0x3E7A JUMP JUMPDEST PUSH2 0x1A0 DUP4 ADD MSTORE PUSH1 0x40 MLOAD DUP1 PUSH2 0xA43 DUP2 PUSH1 0xE DUP6 ADD PUSH2 0x3F78 JUMP JUMPDEST SUB PUSH2 0xA4E SWAP1 DUP3 PUSH2 0x3E7A JUMP JUMPDEST PUSH2 0x1C0 DUP4 ADD MSTORE PUSH1 0x40 MLOAD DUP1 PUSH2 0xA65 DUP2 PUSH1 0xF DUP6 ADD PUSH2 0x3F78 JUMP JUMPDEST SUB PUSH2 0xA70 SWAP1 DUP3 PUSH2 0x3E7A JUMP JUMPDEST PUSH2 0x1E0 DUP4 ADD MSTORE PUSH1 0x40 MLOAD DUP1 PUSH2 0xA87 DUP2 PUSH1 0x10 DUP6 ADD PUSH2 0x3F78 JUMP JUMPDEST SUB PUSH2 0xA92 SWAP1 DUP3 PUSH2 0x3E7A JUMP JUMPDEST PUSH2 0x200 DUP4 ADD MSTORE PUSH1 0x40 MLOAD DUP1 PUSH1 0x11 DUP2 SWAP4 ADD SWAP1 PUSH2 0xAAB SWAP2 PUSH2 0x3F78 JUMP JUMPDEST SUB PUSH2 0xAB6 SWAP1 DUP3 PUSH2 0x3E7A JUMP JUMPDEST PUSH2 0x220 DUP3 ADD MSTORE MLOAD SWAP1 MLOAD SWAP2 MLOAD SWAP3 MLOAD SWAP4 MLOAD ISZERO ISZERO SWAP5 MLOAD SWAP6 MLOAD SWAP7 DUP1 PUSH1 0x40 MLOAD SWAP11 DUP12 SWAP11 DUP12 MSTORE DUP11 ADD MSTORE DUP9 ADD PUSH2 0xAE3 SWAP2 PUSH2 0x3E1E JUMP JUMPDEST DUP8 DUP2 SUB PUSH1 0x40 DUP10 ADD MSTORE PUSH2 0xAF4 SWAP2 PUSH2 0x3E1E JUMP JUMPDEST DUP7 DUP2 SUB PUSH1 0x60 DUP9 ADD MSTORE PUSH2 0xB05 SWAP2 PUSH2 0x3E1E JUMP JUMPDEST DUP6 DUP2 SUB PUSH1 0x80 DUP8 ADD MSTORE PUSH2 0xB16 SWAP2 PUSH2 0x3E1E JUMP JUMPDEST SWAP1 PUSH1 0xA0 DUP6 ADD MSTORE DUP4 DUP2 SUB PUSH1 0xC0 DUP6 ADD MSTORE PUSH2 0xB2D SWAP2 PUSH2 0x3E1E JUMP JUMPDEST SWAP1 PUSH1 0xE0 DUP4 ADD MSTORE SUB SWAP1 RETURN JUMPDEST PUSH1 0x40 MLOAD PUSH3 0x461BCD PUSH1 0xE5 SHL DUP2 MSTORE PUSH1 0x4 DUP2 ADD DUP4 SWAP1 MSTORE PUSH1 0x12 PUSH1 0x24 DUP3 ADD MSTORE PUSH18 0x155CD95C9B985B59481B9BDD08199BDD5B99 PUSH1 0x72 SHL PUSH1 0x44 DUP3 ADD MSTORE PUSH1 0x64 SWAP1 REVERT JUMPDEST CALLVALUE PUSH2 0x11A JUMPI PUSH2 0x200 CALLDATASIZE PUSH1 0x3 NOT ADD SLT PUSH2 0x11A JUMPI PUSH2 0xB8B PUSH2 0x3DE5 JUMP JUMPDEST PUSH1 0x24 CALLDATALOAD PUSH1 0x1 PUSH1 0x1 PUSH1 0x40 SHL SUB DUP2 GT PUSH2 0x11A JUMPI PUSH2 0xBAA SWAP1 CALLDATASIZE SWAP1 PUSH1 0x4 ADD PUSH2 0x3E9B JUMP JUMPDEST SWAP1 PUSH1 0x44 CALLDATALOAD PUSH1 0x1 PUSH1 0x1 PUSH1 0x40 SHL SUB DUP2 GT PUSH2 0x11A JUMPI PUSH2 0xBCA SWAP1 CALLDATASIZE SWAP1 PUSH1 0x4 ADD PUSH2 0x3E9B JUMP JUMPDEST SWAP2 PUSH1 0x64 CALLDATALOAD PUSH1 0x1 PUSH1 0x1 PUSH1 0x40 SHL SUB DUP2 GT PUSH2 0x11A JUMPI PUSH2 0xBEA SWAP1 CALLDATASIZE SWAP1 PUSH1 0x4 ADD PUSH2 0x3E9B JUMP JUMPDEST SWAP1 PUSH1 0x84 CALLDATALOAD PUSH1 0x1 PUSH1 0x1 PUSH1 0x40 SHL SUB DUP2 GT PUSH2 0x11A JUMPI PUSH2 0xC0A SWAP1 CALLDATASIZE SWAP1 PUSH1 0x4 ADD PUSH2 0x3E9B JUMP JUMPDEST SWAP4 PUSH1 0xA4 CALLDATALOAD PUSH1 0x1 PUSH1 0x1 PUSH1 0x40 SHL SUB DUP2 GT PUSH2 0x11A JUMPI PUSH2 0xC2A SWAP1 CALLDATASIZE SWAP1 PUSH1 0x4 ADD PUSH2 0x3E9B JUMP JUMPDEST SWAP5 PUSH1 0xC4 CALLDATALOAD PUSH1 0x1 PUSH1 0x1 PUSH1 0x40 SHL SUB DUP2 GT PUSH2 0x11A JUMPI PUSH2 0xC4A SWAP1 CALLDATASIZE SWAP1 PUSH1 0x4 ADD PUSH2 0x3E9B JUMP JUMPDEST PUSH1 0xE4 CALLDATALOAD PUSH1 0x1 PUSH1 0x1 PUSH1 0x40 SHL SUB DUP2 GT PUSH2 0x11A JUMPI PUSH2 0xC69 SWAP1 CALLDATASIZE SWAP1 PUSH1 0x4 ADD PUSH2 0x3E9B JUMP JUMPDEST PUSH2 0x104 CALLDATALOAD PUSH1 0x1 PUSH1 0x1 PUSH1 0x40 SHL SUB DUP2 GT PUSH2 0x11A JUMPI PUSH2 0xC89 SWAP1 CALLDATASIZE SWAP1 PUSH1 0x4 ADD PUSH2 0x3E9B JUMP JUMPDEST PUSH1 0x1 PUSH1 0x1 PUSH1 0x40 SHL SUB PUSH2 0x124 CALLDATALOAD GT PUSH2 0x11A JUMPI PUSH2 0xCAA CALLDATASIZE PUSH2 0x124 CALLDATALOAD PUSH1 0x4 ADD PUSH2 0x3E9B JUMP JUMPDEST PUSH1 0x1 PUSH1 0x1 PUSH1 0x40 SHL SUB PUSH2 0x164 CALLDATALOAD GT PUSH2 0x11A JUMPI PUSH2 0xCCB CALLDATASIZE PUSH2 0x164 CALLDATALOAD PUSH1 0x4 ADD PUSH2 0x3E9B JUMP JUMPDEST SWAP1 PUSH1 0x1 PUSH1 0x1 PUSH1 0x40 SHL SUB PUSH2 0x184 CALLDATALOAD GT PUSH2 0x11A JUMPI PUSH2 0xCED CALLDATASIZE PUSH2 0x184 CALLDATALOAD PUSH1 0x4 ADD PUSH2 0x3E9B JUMP JUMPDEST SWAP3 PUSH1 0x1 PUSH1 0x1 PUSH1 0x40 SHL SUB PUSH2 0x1A4 CALLDATALOAD GT PUSH2 0x11A JUMPI PUSH2 0xD0F CALLDATASIZE PUSH2 0x1A4 CALLDATALOAD PUSH1 0x4 ADD PUSH2 0x3E9B JUMP JUMPDEST SWAP5 PUSH1 0x1 PUSH1 0x1 PUSH1 0x40 SHL SUB PUSH2 0x1C4 CALLDATALOAD GT PUSH2 0x11A JUMPI PUSH2 0xD31 CALLDATASIZE PUSH2 0x1C4 CALLDATALOAD PUSH1 0x4 ADD PUSH2 0x3E9B JUMP JUMPDEST SWAP7 PUSH1 0x1 PUSH1 0x1 PUSH1 0x40 SHL SUB PUSH2 0x1E4 CALLDATALOAD GT PUSH2 0x11A JUMPI DUP14 SWAP9 PUSH2 0xD55 CALLDATASIZE PUSH2 0x1E4 CALLDATALOAD PUSH1 0x4 ADD PUSH2 0x3E9B JUMP JUMPDEST SWAP10 PUSH1 0x20 DUP2 MLOAD SWAP2 ADD KECCAK256 PUSH2 0xD65 PUSH2 0x400E JUMP JUMPDEST PUSH1 0x20 DUP2 MLOAD SWAP2 ADD KECCAK256 EQ PUSH2 0x1FFA JUMPI JUMPDEST PUSH1 0x1 PUSH1 0x1 PUSH1 0xA0 SHL SUB DUP15 AND PUSH1 0x0 SWAP1 DUP2 MSTORE PUSH1 0x1 PUSH1 0x20 MSTORE PUSH1 0x40 SWAP1 KECCAK256 SLOAD PUSH2 0xD94 SWAP1 PUSH2 0x3F3E JUMP JUMPDEST PUSH2 0x1FA9 JUMPI DUP15 DUP13 SWAP2 DUP15 PUSH1 0x40 MLOAD DUP1 DUP3 MLOAD DUP2 DUP2 PUSH1 0x20 DUP7 ADD SWAP2 PUSH2 0xDB2 SWAP3 PUSH2 0x3DFB JUMP JUMPDEST DUP2 ADD PUSH1 0x4 DUP2 MSTORE SUB PUSH1 0x20 ADD SWAP1 KECCAK256 SLOAD PUSH1 0xFF AND ISZERO PUSH2 0xDCC SWAP1 PUSH2 0x4052 JUMP JUMPDEST DUP3 MLOAD PUSH1 0x20 DUP5 ADD KECCAK256 PUSH2 0xDDB PUSH2 0x400E JUMP JUMPDEST DUP1 MLOAD SWAP1 PUSH1 0x20 ADD KECCAK256 EQ SWAP4 PUSH1 0x40 MLOAD SWAP15 DUP16 SWAP2 PUSH2 0xDF3 DUP4 PUSH2 0x3E43 JUMP JUMPDEST DUP3 MSTORE PUSH1 0x20 DUP3 ADD MSTORE PUSH1 0x40 ADD MSTORE PUSH1 0x60 DUP14 ADD MSTORE PUSH1 0x80 DUP13 ADD MSTORE PUSH1 0xA0 DUP12 ADD MSTORE PUSH1 0x40 MLOAD DUP1 PUSH1 0x20 DUP2 ADD LT PUSH1 0x20 DUP3 ADD PUSH1 0x1 PUSH1 0x1 PUSH1 0x40 SHL SUB LT OR PUSH2 0x3FB JUMPI PUSH1 0x20 DUP2 ADD PUSH1 0x40 MSTORE PUSH1 0x0 DUP2 MSTORE PUSH1 0xC0 DUP12 ADD MSTORE TIMESTAMP PUSH1 0xE0 DUP12 ADD MSTORE PUSH2 0x100 DUP11 ADD MSTORE PUSH2 0x120 DUP10 ADD MSTORE PUSH2 0x140 DUP9 ADD MSTORE PUSH2 0x160 DUP8 ADD MSTORE PUSH2 0x144 CALLDATALOAD PUSH2 0x180 DUP8 ADD MSTORE PUSH2 0x1A0 DUP7 ADD MSTORE PUSH2 0x1C0 DUP6 ADD MSTORE PUSH2 0x1E0 DUP5 ADD MSTORE PUSH2 0x200 DUP4 ADD MSTORE PUSH2 0x220 DUP3 ADD MSTORE PUSH1 0x1 DUP1 PUSH1 0xA0 SHL SUB DUP5 AND PUSH1 0x0 MSTORE PUSH1 0x1 PUSH1 0x20 MSTORE PUSH1 0x40 PUSH1 0x0 KECCAK256 SWAP1 DUP1 MLOAD DUP1 MLOAD SWAP1 PUSH1 0x1 PUSH1 0x1 PUSH1 0x40 SHL SUB DUP3 GT PUSH2 0x3FB JUMPI DUP2 SWAP1 PUSH2 0xEB4 DUP6 SLOAD PUSH2 0x3F3E JUMP JUMPDEST PUSH1 0x1F DUP2 GT PUSH2 0x1F77 JUMPI JUMPDEST POP PUSH1 0x20 SWAP1 PUSH1 0x1F DUP4 GT PUSH1 0x1 EQ PUSH2 0x1F0B JUMPI PUSH1 0x0 SWAP3 PUSH2 0x1F00 JUMPI JUMPDEST POP POP DUP2 PUSH1 0x1 SHL SWAP2 PUSH1 0x0 NOT SWAP1 PUSH1 0x3 SHL SHR NOT AND OR DUP3 SSTORE JUMPDEST PUSH1 0x20 DUP2 ADD MLOAD DUP1 MLOAD SWAP1 PUSH1 0x1 PUSH1 0x1 PUSH1 0x40 SHL SUB DUP3 GT PUSH2 0x3FB JUMPI DUP2 SWAP1 PUSH2 0xF0E PUSH1 0x1 DUP7 ADD SLOAD PUSH2 0x3F3E JUMP JUMPDEST PUSH1 0x1F DUP2 GT PUSH2 0x1ECB JUMPI JUMPDEST POP PUSH1 0x20 SWAP1 PUSH1 0x1F DUP4 GT PUSH1 0x1 EQ PUSH2 0x1E59 JUMPI PUSH1 0x0 SWAP3 PUSH2 0x1E4E JUMPI JUMPDEST POP POP DUP2 PUSH1 0x1 SHL SWAP2 PUSH1 0x0 NOT SWAP1 PUSH1 0x3 SHL SHR NOT AND OR PUSH1 0x1 DUP4 ADD SSTORE JUMPDEST PUSH1 0x40 DUP2 ADD MLOAD DUP1 MLOAD SWAP1 PUSH1 0x1 PUSH1 0x1 PUSH1 0x40 SHL SUB DUP3 GT PUSH2 0x3FB JUMPI DUP2 SWAP1 PUSH2 0xF6B PUSH1 0x2 DUP7 ADD SLOAD PUSH2 0x3F3E JUMP JUMPDEST PUSH1 0x1F DUP2 GT PUSH2 0x1E19 JUMPI JUMPDEST POP PUSH1 0x20 SWAP1 PUSH1 0x1F DUP4 GT PUSH1 0x1 EQ PUSH2 0x1DA7 JUMPI PUSH1 0x0 SWAP3 PUSH2 0x1D9C JUMPI JUMPDEST POP POP DUP2 PUSH1 0x1 SHL SWAP2 PUSH1 0x0 NOT SWAP1 PUSH1 0x3 SHL SHR NOT AND OR PUSH1 0x2 DUP4 ADD SSTORE JUMPDEST PUSH1 0x60 DUP2 ADD MLOAD DUP1 MLOAD SWAP1 PUSH1 0x1 PUSH1 0x1 PUSH1 0x40 SHL SUB DUP3 GT PUSH2 0x3FB JUMPI DUP2 SWAP1 PUSH2 0xFC8 PUSH1 0x3 DUP7 ADD SLOAD PUSH2 0x3F3E JUMP JUMPDEST PUSH1 0x1F DUP2 GT PUSH2 0x1D67 JUMPI JUMPDEST POP PUSH1 0x20 SWAP1 PUSH1 0x1F DUP4 GT PUSH1 0x1 EQ PUSH2 0x1CF5 JUMPI PUSH1 0x0 SWAP3 PUSH2 0x1CEA JUMPI JUMPDEST POP POP DUP2 PUSH1 0x1 SHL SWAP2 PUSH1 0x0 NOT SWAP1 PUSH1 0x3 SHL SHR NOT AND OR PUSH1 0x3 DUP4 ADD SSTORE JUMPDEST PUSH1 0x80 DUP2 ADD MLOAD DUP1 MLOAD SWAP1 PUSH1 0x1 PUSH1 0x1 PUSH1 0x40 SHL SUB DUP3 GT PUSH2 0x3FB JUMPI DUP2 SWAP1 PUSH2 0x1025 PUSH1 0x4 DUP7 ADD SLOAD PUSH2 0x3F3E JUMP JUMPDEST PUSH1 0x1F DUP2 GT PUSH2 0x1CB5 JUMPI JUMPDEST POP PUSH1 0x20 SWAP1 PUSH1 0x1F DUP4 GT PUSH1 0x1 EQ PUSH2 0x1C43 JUMPI PUSH1 0x0 SWAP3 PUSH2 0x1C38 JUMPI JUMPDEST POP POP DUP2 PUSH1 0x1 SHL SWAP2 PUSH1 0x0 NOT SWAP1 PUSH1 0x3 SHL SHR NOT AND OR PUSH1 0x4 DUP4 ADD SSTORE JUMPDEST PUSH2 0x107C PUSH1 0xA0 DUP3 ADD MLOAD ISZERO ISZERO PUSH1 0x5 DUP5 ADD SWAP1 PUSH1 0xFF DUP1 NOT DUP4 SLOAD AND SWAP2 ISZERO ISZERO AND OR SWAP1 SSTORE JUMP JUMPDEST PUSH1 0xC0 DUP2 ADD MLOAD DUP1 MLOAD SWAP1 PUSH1 0x1 PUSH1 0x1 PUSH1 0x40 SHL SUB DUP3 GT PUSH2 0x3FB JUMPI DUP2 SWAP1 PUSH2 0x10A1 PUSH1 0x6 DUP7 ADD SLOAD PUSH2 0x3F3E JUMP JUMPDEST PUSH1 0x1F DUP2 GT PUSH2 0x1C03 JUMPI JUMPDEST POP PUSH1 0x20 SWAP1 PUSH1 0x1F DUP4 GT PUSH1 0x1 EQ PUSH2 0x1B91 JUMPI PUSH1 0x0 SWAP3 PUSH2 0x1B86 JUMPI JUMPDEST POP POP DUP2 PUSH1 0x1 SHL SWAP2 PUSH1 0x0 NOT SWAP1 PUSH1 0x3 SHL SHR NOT AND OR PUSH1 0x6 DUP4 ADD SSTORE JUMPDEST PUSH1 0xE0 DUP2 ADD MLOAD PUSH1 0x7 DUP4 ADD SSTORE PUSH2 0x100 DUP2 ADD MLOAD DUP1 MLOAD SWAP1 PUSH1 0x1 PUSH1 0x1 PUSH1 0x40 SHL SUB DUP3 GT PUSH2 0x3FB JUMPI DUP2 SWAP1 PUSH2 0x1109 PUSH1 0x8 DUP7 ADD SLOAD PUSH2 0x3F3E JUMP JUMPDEST PUSH1 0x1F DUP2 GT PUSH2 0x1B51 JUMPI JUMPDEST POP PUSH1 0x20 SWAP1 PUSH1 0x1F DUP4 GT PUSH1 0x1 EQ PUSH2 0x1ADF JUMPI PUSH1 0x0 SWAP3 PUSH2 0x1AD4 JUMPI JUMPDEST POP POP DUP2 PUSH1 0x1 SHL SWAP2 PUSH1 0x0 NOT SWAP1 PUSH1 0x3 SHL SHR NOT AND OR PUSH1 0x8 DUP4 ADD SSTORE JUMPDEST PUSH2 0x120 DUP2 ADD MLOAD DUP1 MLOAD SWAP1 PUSH1 0x1 PUSH1 0x1 PUSH1 0x40 SHL SUB DUP3 GT PUSH2 0x3FB JUMPI DUP2 SWAP1 PUSH2 0x1167 PUSH1 0x9 DUP7 ADD SLOAD PUSH2 0x3F3E JUMP JUMPDEST PUSH1 0x1F DUP2 GT PUSH2 0x1A9F JUMPI JUMPDEST POP PUSH1 0x20 SWAP1 PUSH1 0x1F DUP4 GT PUSH1 0x1 EQ PUSH2 0x1A2D JUMPI PUSH1 0x0 SWAP3 PUSH2 0x1A22 JUMPI JUMPDEST POP POP DUP2 PUSH1 0x1 SHL SWAP2 PUSH1 0x0 NOT SWAP1 PUSH1 0x3 SHL SHR NOT AND OR PUSH1 0x9 DUP4 ADD SSTORE JUMPDEST PUSH2 0x140 DUP2 ADD MLOAD DUP1 MLOAD SWAP1 PUSH1 0x1 PUSH1 0x1 PUSH1 0x40 SHL SUB DUP3 GT PUSH2 0x3FB JUMPI DUP2 SWAP1 PUSH2 0x11C5 PUSH1 0xA DUP7 ADD SLOAD PUSH2 0x3F3E JUMP JUMPDEST PUSH1 0x1F DUP2 GT PUSH2 0x19ED JUMPI JUMPDEST POP PUSH1 0x20 SWAP1 PUSH1 0x1F DUP4 GT PUSH1 0x1 EQ PUSH2 0x197B JUMPI PUSH1 0x0 SWAP3 PUSH2 0x1970 JUMPI JUMPDEST POP POP DUP2 PUSH1 0x1 SHL SWAP2 PUSH1 0x0 NOT SWAP1 PUSH1 0x3 SHL SHR NOT AND OR PUSH1 0xA DUP4 ADD SSTORE JUMPDEST PUSH2 0x160 DUP2 ADD MLOAD DUP1 MLOAD SWAP1 PUSH1 0x1 PUSH1 0x1 PUSH1 0x40 SHL SUB DUP3 GT PUSH2 0x3FB JUMPI DUP2 SWAP1 PUSH2 0x1223 PUSH1 0xB DUP7 ADD SLOAD PUSH2 0x3F3E JUMP JUMPDEST PUSH1 0x1F DUP2 GT PUSH2 0x193B JUMPI JUMPDEST POP PUSH1 0x20 SWAP1 PUSH1 0x1F DUP4 GT PUSH1 0x1 EQ PUSH2 0x18C9 JUMPI PUSH1 0x0 SWAP3 PUSH2 0x18BE JUMPI JUMPDEST POP POP DUP2 PUSH1 0x1 SHL SWAP2 PUSH1 0x0 NOT SWAP1 PUSH1 0x3 SHL SHR NOT AND OR PUSH1 0xB DUP4 ADD SSTORE JUMPDEST PUSH2 0x180 DUP2 ADD MLOAD PUSH1 0xC DUP4 ADD SSTORE PUSH2 0x1A0 DUP2 ADD MLOAD DUP1 MLOAD SWAP1 PUSH1 0x1 PUSH1 0x1 PUSH1 0x40 SHL SUB DUP3 GT PUSH2 0x3FB JUMPI DUP2 SWAP1 PUSH2 0x128C PUSH1 0xD DUP7 ADD SLOAD PUSH2 0x3F3E JUMP JUMPDEST PUSH1 0x1F DUP2 GT PUSH2 0x1889 JUMPI JUMPDEST POP PUSH1 0x20 SWAP1 PUSH1 0x1F DUP4 GT PUSH1 0x1 EQ PUSH2 0x1817 JUMPI PUSH1 0x0 SWAP3 PUSH2 0x180C JUMPI JUMPDEST POP POP DUP2 PUSH1 0x1 SHL SWAP2 PUSH1 0x0 NOT SWAP1 PUSH1 0x3 SHL SHR NOT AND OR PUSH1 0xD DUP4 ADD SSTORE JUMPDEST PUSH2 0x1C0 DUP2 ADD MLOAD DUP1 MLOAD SWAP1 PUSH1 0x1 PUSH1 0x1 PUSH1 0x40 SHL SUB DUP3 GT PUSH2 0x3FB JUMPI DUP2 SWAP1 PUSH2 0x12EA PUSH1 0xE DUP7 ADD SLOAD PUSH2 0x3F3E JUMP JUMPDEST PUSH1 0x1F DUP2 GT PUSH2 0x17D7 JUMPI JUMPDEST POP PUSH1 0x20 SWAP1 PUSH1 0x1F DUP4 GT PUSH1 0x1 EQ PUSH2 0x1765 JUMPI PUSH1 0x0 SWAP3 PUSH2 0x175A JUMPI JUMPDEST POP POP DUP2 PUSH1 0x1 SHL SWAP2 PUSH1 0x0 NOT SWAP1 PUSH1 0x3 SHL SHR NOT AND OR PUSH1 0xE DUP4 ADD SSTORE JUMPDEST PUSH2 0x1E0 DUP2 ADD MLOAD DUP1 MLOAD SWAP1 PUSH1 0x1 PUSH1 0x1 PUSH1 0x40 SHL SUB DUP3 GT PUSH2 0x3FB JUMPI DUP2 SWAP1 PUSH2 0x1348 PUSH1 0xF DUP7 ADD SLOAD PUSH2 0x3F3E JUMP JUMPDEST PUSH1 0x1F DUP2 GT PUSH2 0x1725 JUMPI JUMPDEST POP PUSH1 0x20 SWAP1 PUSH1 0x1F DUP4 GT PUSH1 0x1 EQ PUSH2 0x16B3 JUMPI PUSH1 0x0 SWAP3 PUSH2 0x16A8 JUMPI JUMPDEST POP POP DUP2 PUSH1 0x1 SHL SWAP2 PUSH1 0x0 NOT SWAP1 PUSH1 0x3 SHL SHR NOT AND OR PUSH1 0xF DUP4 ADD SSTORE JUMPDEST PUSH2 0x200 DUP2 ADD MLOAD DUP1 MLOAD SWAP1 PUSH1 0x1 PUSH1 0x1 PUSH1 0x40 SHL SUB DUP3 GT PUSH2 0x3FB JUMPI PUSH2 0x13A4 PUSH1 0x10 DUP6 ADD SLOAD PUSH2 0x3F3E JUMP JUMPDEST PUSH1 0x1F DUP2 GT PUSH2 0x1673 JUMPI JUMPDEST POP PUSH1 0x20 SWAP1 PUSH1 0x1F DUP4 GT PUSH1 0x1 EQ PUSH2 0x15FF JUMPI PUSH2 0x220 SWAP4 SWAP3 SWAP2 PUSH1 0x0 SWAP2 DUP4 PUSH2 0x15F4 JUMPI JUMPDEST POP POP DUP2 PUSH1 0x1 SHL SWAP2 PUSH1 0x0 NOT SWAP1 PUSH1 0x3 SHL SHR NOT AND OR PUSH1 0x10 DUP5 ADD SSTORE JUMPDEST ADD MLOAD SWAP1 DUP2 MLOAD SWAP1 PUSH1 0x1 PUSH1 0x1 PUSH1 0x40 SHL SUB DUP3 GT PUSH2 0x3FB JUMPI PUSH1 0x11 DUP3 SWAP2 ADD SWAP3 PUSH2 0x1407 DUP5 SLOAD PUSH2 0x3F3E JUMP JUMPDEST PUSH1 0x1F DUP2 GT PUSH2 0x15C2 JUMPI JUMPDEST POP PUSH1 0x20 SWAP1 PUSH1 0x1F DUP4 GT PUSH1 0x1 EQ PUSH2 0x155C JUMPI PUSH1 0x0 SWAP3 PUSH2 0x1551 JUMPI JUMPDEST POP POP DUP2 PUSH1 0x1 SHL SWAP2 PUSH1 0x0 NOT SWAP1 PUSH1 0x3 SHL SHR NOT AND OR SWAP1 SSTORE JUMPDEST PUSH1 0x3 SLOAD SWAP2 PUSH9 0x10000000000000000 DUP4 LT ISZERO PUSH2 0x3FB JUMPI DUP4 PUSH2 0x1538 PUSH2 0x326 SWAP3 PUSH2 0x14B0 PUSH32 0x509C70F523067009F7DB7F46DB6956D7AF8B679323680DC3821A8BAD001AC1E1 SWAP8 PUSH2 0x1491 DUP9 PUSH1 0x1 PUSH2 0x152A SWAP11 ADD PUSH1 0x3 SSTORE PUSH2 0x3EF1 JUMP JUMPDEST SWAP1 SWAP2 SWAP1 DUP3 SLOAD SWAP1 PUSH1 0x3 SHL SWAP2 PUSH1 0x1 DUP1 PUSH1 0xA0 SHL SUB DUP1 SWAP2 AND DUP4 SHL SWAP3 SHL NOT AND OR SWAP1 SSTORE JUMP JUMPDEST PUSH1 0x40 MLOAD PUSH1 0x20 DUP2 DUP4 MLOAD PUSH2 0x14C5 DUP2 DUP4 DUP6 DUP9 ADD PUSH2 0x3DFB JUMP JUMPDEST PUSH1 0x2 SWAP1 DUP3 ADD SWAP1 DUP2 MSTORE SUB ADD SWAP1 KECCAK256 DUP1 SLOAD PUSH1 0x1 PUSH1 0x1 PUSH1 0xA0 SHL SUB NOT AND PUSH1 0x1 PUSH1 0x1 PUSH1 0xA0 SHL SUB DUP6 AND OR SWAP1 SSTORE PUSH1 0x40 MLOAD DUP2 MLOAD PUSH1 0x20 SWAP1 DUP3 SWAP1 PUSH2 0x1501 DUP2 DUP4 DUP8 DUP7 ADD PUSH2 0x3DFB JUMP JUMPDEST DUP2 ADD PUSH1 0x4 DUP2 MSTORE SUB ADD SWAP1 KECCAK256 PUSH1 0x1 PUSH1 0xFF NOT DUP3 SLOAD AND OR SWAP1 SSTORE PUSH1 0x40 MLOAD SWAP6 DUP7 SWAP6 PUSH1 0x60 DUP8 MSTORE PUSH1 0x60 DUP8 ADD SWAP1 PUSH2 0x3E1E JUMP JUMPDEST SWAP1 DUP6 DUP3 SUB PUSH1 0x20 DUP8 ADD MSTORE PUSH2 0x3E1E JUMP JUMPDEST DUP4 DUP2 SUB PUSH1 0x40 DUP6 ADD MSTORE PUSH1 0x1 PUSH1 0x1 PUSH1 0xA0 SHL SUB SWAP1 SWAP2 AND SWAP6 PUSH2 0x3E1E JUMP JUMPDEST ADD MLOAD SWAP1 POP DUP8 DUP1 PUSH2 0x1427 JUMP JUMPDEST PUSH1 0x0 DUP6 DUP2 MSTORE PUSH1 0x20 DUP2 KECCAK256 SWAP4 POP PUSH1 0x1F NOT DUP6 AND SWAP1 JUMPDEST DUP2 DUP2 LT PUSH2 0x15AA JUMPI POP SWAP1 DUP5 PUSH1 0x1 SWAP6 SWAP5 SWAP4 SWAP3 LT PUSH2 0x1591 JUMPI JUMPDEST POP POP POP DUP2 SHL ADD SWAP1 SSTORE PUSH2 0x143C JUMP JUMPDEST ADD MLOAD PUSH1 0x0 NOT PUSH1 0xF8 DUP5 PUSH1 0x3 SHL AND SHR NOT AND SWAP1 SSTORE DUP8 DUP1 DUP1 PUSH2 0x1584 JUMP JUMPDEST SWAP3 SWAP4 PUSH1 0x20 PUSH1 0x1 DUP2 SWAP3 DUP8 DUP7 ADD MLOAD DUP2 SSTORE ADD SWAP6 ADD SWAP4 ADD PUSH2 0x156E JUMP JUMPDEST PUSH2 0x15EE SWAP1 DUP6 PUSH1 0x0 MSTORE PUSH1 0x20 PUSH1 0x0 KECCAK256 PUSH1 0x1F DUP6 ADD PUSH1 0x5 SHR DUP2 ADD SWAP2 PUSH1 0x20 DUP7 LT PUSH2 0x3F1 JUMPI PUSH1 0x1F ADD PUSH1 0x5 SHR ADD SWAP1 PUSH2 0x409E JUMP JUMPDEST DUP9 PUSH2 0x1410 JUMP JUMPDEST ADD MLOAD SWAP1 POP DUP10 DUP1 PUSH2 0x13CB JUMP JUMPDEST SWAP1 PUSH1 0x10 DUP6 ADD PUSH1 0x0 MSTORE PUSH1 0x20 PUSH1 0x0 KECCAK256 SWAP2 PUSH1 0x0 JUMPDEST PUSH1 0x1F NOT DUP6 AND DUP2 LT PUSH2 0x165B JUMPI POP SWAP2 DUP4 SWAP2 PUSH1 0x1 SWAP4 PUSH2 0x220 SWAP7 SWAP6 PUSH1 0x1F NOT DUP2 AND LT PUSH2 0x1642 JUMPI JUMPDEST POP POP POP DUP2 SHL ADD PUSH1 0x10 DUP5 ADD SSTORE PUSH2 0x13E3 JUMP JUMPDEST ADD MLOAD PUSH1 0x0 NOT PUSH1 0xF8 DUP5 PUSH1 0x3 SHL AND SHR NOT AND SWAP1 SSTORE DUP10 DUP1 DUP1 PUSH2 0x1632 JUMP JUMPDEST SWAP2 SWAP3 PUSH1 0x20 PUSH1 0x1 DUP2 SWAP3 DUP7 DUP6 ADD MLOAD DUP2 SSTORE ADD SWAP5 ADD SWAP3 ADD PUSH2 0x1610 JUMP JUMPDEST PUSH2 0x16A2 SWAP1 PUSH1 0x10 DUP7 ADD PUSH1 0x0 MSTORE PUSH1 0x20 PUSH1 0x0 KECCAK256 PUSH1 0x1F DUP6 ADD PUSH1 0x5 SHR DUP2 ADD SWAP2 PUSH1 0x20 DUP7 LT PUSH2 0x3F1 JUMPI PUSH1 0x1F ADD PUSH1 0x5 SHR ADD SWAP1 PUSH2 0x409E JUMP JUMPDEST DUP9 PUSH2 0x13AD JUMP JUMPDEST ADD MLOAD SWAP1 POP DUP9 DUP1 PUSH2 0x1368 JUMP JUMPDEST SWAP3 POP PUSH1 0xF DUP6 ADD PUSH1 0x0 MSTORE PUSH1 0x20 PUSH1 0x0 KECCAK256 SWAP1 PUSH1 0x0 SWAP4 JUMPDEST PUSH1 0x1F NOT DUP5 AND DUP6 LT PUSH2 0x170A JUMPI PUSH1 0x1 SWAP5 POP DUP4 PUSH1 0x1F NOT DUP2 AND LT PUSH2 0x16F1 JUMPI JUMPDEST POP POP POP DUP2 SHL ADD PUSH1 0xF DUP4 ADD SSTORE PUSH2 0x1380 JUMP JUMPDEST ADD MLOAD PUSH1 0x0 NOT PUSH1 0xF8 DUP5 PUSH1 0x3 SHL AND SHR NOT AND SWAP1 SSTORE DUP9 DUP1 DUP1 PUSH2 0x16E1 JUMP JUMPDEST DUP2 DUP2 ADD MLOAD DUP4 SSTORE PUSH1 0x20 SWAP5 DUP6 ADD SWAP5 PUSH1 0x1 SWAP1 SWAP4 ADD SWAP3 SWAP1 SWAP2 ADD SWAP1 PUSH2 0x16C6 JUMP JUMPDEST PUSH2 0x1754 SWAP1 PUSH1 0xF DUP8 ADD PUSH1 0x0 MSTORE PUSH1 0x20 PUSH1 0x0 KECCAK256 PUSH1 0x1F DUP6 ADD PUSH1 0x5 SHR DUP2 ADD SWAP2 PUSH1 0x20 DUP7 LT PUSH2 0x3F1 JUMPI PUSH1 0x1F ADD PUSH1 0x5 SHR ADD SWAP1 PUSH2 0x409E JUMP JUMPDEST DUP10 PUSH2 0x1351 JUMP JUMPDEST ADD MLOAD SWAP1 POP DUP9 DUP1 PUSH2 0x130A JUMP JUMPDEST SWAP3 POP PUSH1 0xE DUP6 ADD PUSH1 0x0 MSTORE PUSH1 0x20 PUSH1 0x0 KECCAK256 SWAP1 PUSH1 0x0 SWAP4 JUMPDEST PUSH1 0x1F NOT DUP5 AND DUP6 LT PUSH2 0x17BC JUMPI PUSH1 0x1 SWAP5 POP DUP4 PUSH1 0x1F NOT DUP2 AND LT PUSH2 0x17A3 JUMPI JUMPDEST POP POP POP DUP2 SHL ADD PUSH1 0xE DUP4 ADD SSTORE PUSH2 0x1322 JUMP JUMPDEST ADD MLOAD PUSH1 0x0 NOT PUSH1 0xF8 DUP5 PUSH1 0x3 SHL AND SHR NOT AND SWAP1 SSTORE DUP9 DUP1 DUP1 PUSH2 0x1793 JUMP JUMPDEST DUP2 DUP2 ADD MLOAD DUP4 SSTORE PUSH1 0x20 SWAP5 DUP6 ADD SWAP5 PUSH1 0x1 SWAP1 SWAP4 ADD SWAP3 SWAP1 SWAP2 ADD SWAP1 PUSH2 0x1778 JUMP JUMPDEST PUSH2 0x1806 SWAP1 PUSH1 0xE DUP8 ADD PUSH1 0x0 MSTORE PUSH1 0x20 PUSH1 0x0 KECCAK256 PUSH1 0x1F DUP6 ADD PUSH1 0x5 SHR DUP2 ADD SWAP2 PUSH1 0x20 DUP7 LT PUSH2 0x3F1 JUMPI PUSH1 0x1F ADD PUSH1 0x5 SHR ADD SWAP1 PUSH2 0x409E JUMP JUMPDEST DUP10 PUSH2 0x12F3 JUMP JUMPDEST ADD MLOAD SWAP1 POP DUP9 DUP1 PUSH2 0x12AC JUMP JUMPDEST SWAP3 POP PUSH1 0xD DUP6 ADD PUSH1 0x0 MSTORE PUSH1 0x20 PUSH1 0x0 KECCAK256 SWAP1 PUSH1 0x0 SWAP4 JUMPDEST PUSH1 0x1F NOT DUP5 AND DUP6 LT PUSH2 0x186E JUMPI PUSH1 0x1 SWAP5 POP DUP4 PUSH1 0x1F NOT DUP2 AND LT PUSH2 0x1855 JUMPI JUMPDEST POP POP POP DUP2 SHL ADD PUSH1 0xD DUP4 ADD SSTORE PUSH2 0x12C4 JUMP JUMPDEST ADD MLOAD PUSH1 0x0 NOT PUSH1 0xF8 DUP5 PUSH1 0x3 SHL AND SHR NOT AND SWAP1 SSTORE DUP9 DUP1 DUP1 PUSH2 0x1845 JUMP JUMPDEST DUP2 DUP2 ADD MLOAD DUP4 SSTORE PUSH1 0x20 SWAP5 DUP6 ADD SWAP5 PUSH1 0x1 SWAP1 SWAP4 ADD SWAP3 SWAP1 SWAP2 ADD SWAP1 PUSH2 0x182A JUMP JUMPDEST PUSH2 0x18B8 SWAP1 PUSH1 0xD DUP8 ADD PUSH1 0x0 MSTORE PUSH1 0x20 PUSH1 0x0 KECCAK256 PUSH1 0x1F DUP6 ADD PUSH1 0x5 SHR DUP2 ADD SWAP2 PUSH1 0x20 DUP7 LT PUSH2 0x3F1 JUMPI PUSH1 0x1F ADD PUSH1 0x5 SHR ADD SWAP1 PUSH2 0x409E JUMP JUMPDEST DUP10 PUSH2 0x1295 JUMP JUMPDEST ADD MLOAD SWAP1 POP DUP9 DUP1 PUSH2 0x1243 JUMP JUMPDEST SWAP3 POP PUSH1 0xB DUP6 ADD PUSH1 0x0 MSTORE PUSH1 0x20 PUSH1 0x0 KECCAK256 SWAP1 PUSH1 0x0 SWAP4 JUMPDEST PUSH1 0x1F NOT DUP5 AND DUP6 LT PUSH2 0x1920 JUMPI PUSH1 0x1 SWAP5 POP DUP4 PUSH1 0x1F NOT DUP2 AND LT PUSH2 0x1907 JUMPI JUMPDEST POP POP POP DUP2 SHL ADD PUSH1 0xB DUP4 ADD SSTORE PUSH2 0x125B JUMP JUMPDEST ADD MLOAD PUSH1 0x0 NOT PUSH1 0xF8 DUP5 PUSH1 0x3 SHL AND SHR NOT AND SWAP1 SSTORE DUP9 DUP1 DUP1 PUSH2 0x18F7 JUMP JUMPDEST DUP2 DUP2 ADD MLOAD DUP4 SSTORE PUSH1 0x20 SWAP5 DUP6 ADD SWAP5 PUSH1 0x1 SWAP1 SWAP4 ADD SWAP3 SWAP1 SWAP2 ADD SWAP1 PUSH2 0x18DC JUMP JUMPDEST PUSH2 0x196A SWAP1 PUSH1 0xB DUP8 ADD PUSH1 0x0 MSTORE PUSH1 0x20 PUSH1 0x0 KECCAK256 PUSH1 0x1F DUP6 ADD PUSH1 0x5 SHR DUP2 ADD SWAP2 PUSH1 0x20 DUP7 LT PUSH2 0x3F1 JUMPI PUSH1 0x1F ADD PUSH1 0x5 SHR ADD SWAP1 PUSH2 0x409E JUMP JUMPDEST DUP10 PUSH2 0x122C JUMP JUMPDEST ADD MLOAD SWAP1 POP DUP9 DUP1 PUSH2 0x11E5 JUMP JUMPDEST SWAP3 POP PUSH1 0xA DUP6 ADD PUSH1 0x0 MSTORE PUSH1 0x20 PUSH1 0x0 KECCAK256 SWAP1 PUSH1 0x0 SWAP4 JUMPDEST PUSH1 0x1F NOT DUP5 AND DUP6 LT PUSH2 0x19D2 JUMPI PUSH1 0x1 SWAP5 POP DUP4 PUSH1 0x1F NOT DUP2 AND LT PUSH2 0x19B9 JUMPI JUMPDEST POP POP POP DUP2 SHL ADD PUSH1 0xA DUP4 ADD SSTORE PUSH2 0x11FD JUMP JUMPDEST ADD MLOAD PUSH1 0x0 NOT PUSH1 0xF8 DUP5 PUSH1 0x3 SHL AND SHR NOT AND SWAP1 SSTORE DUP9 DUP1 DUP1 PUSH2 0x19A9 JUMP JUMPDEST DUP2 DUP2 ADD MLOAD DUP4 SSTORE PUSH1 0x20 SWAP5 DUP6 ADD SWAP5 PUSH1 0x1 SWAP1 SWAP4 ADD SWAP3 SWAP1 SWAP2 ADD SWAP1 PUSH2 0x198E JUMP JUMPDEST PUSH2 0x1A1C SWAP1 PUSH1 0xA DUP8 ADD PUSH1 0x0 MSTORE PUSH1 0x20 PUSH1 0x0 KECCAK256 PUSH1 0x1F DUP6 ADD PUSH1 0x5 SHR DUP2 ADD SWAP2 PUSH1 0x20 DUP7 LT PUSH2 0x3F1 JUMPI PUSH1 0x1F ADD PUSH1 0x5 SHR ADD SWAP1 PUSH2 0x409E JUMP JUMPDEST DUP10 PUSH2 0x11CE JUMP JUMPDEST ADD MLOAD SWAP1 POP DUP9 DUP1 PUSH2 0x1187 JUMP JUMPDEST SWAP3 POP PUSH1 0x9 DUP6 ADD PUSH1 0x0 MSTORE PUSH1 0x20 PUSH1 0x0 KECCAK256 SWAP1 PUSH1 0x0 SWAP4 JUMPDEST PUSH1 0x1F NOT DUP5 AND DUP6 LT PUSH2 0x1A84 JUMPI PUSH1 0x1 SWAP5 POP DUP4 PUSH1 0x1F NOT DUP2 AND LT PUSH2 0x1A6B JUMPI JUMPDEST POP POP POP DUP2 SHL ADD PUSH1 0x9 DUP4 ADD SSTORE PUSH2 0x119F JUMP JUMPDEST ADD MLOAD PUSH1 0x0 NOT PUSH1 0xF8 DUP5 PUSH1 0x3 SHL AND SHR NOT AND SWAP1 SSTORE DUP9 DUP1 DUP1 PUSH2 0x1A5B JUMP JUMPDEST DUP2 DUP2 ADD MLOAD DUP4 SSTORE PUSH1 0x20 SWAP5 DUP6 ADD SWAP5 PUSH1 0x1 SWAP1 SWAP4 ADD SWAP3 SWAP1 SWAP2 ADD SWAP1 PUSH2 0x1A40 JUMP JUMPDEST PUSH2 0x1ACE SWAP1 PUSH1 0x9 DUP8 ADD PUSH1 0x0 MSTORE PUSH1 0x20 PUSH1 0x0 KECCAK256 PUSH1 0x1F DUP6 ADD PUSH1 0x5 SHR DUP2 ADD SWAP2 PUSH1 0x20 DUP7 LT PUSH2 0x3F1 JUMPI PUSH1 0x1F ADD PUSH1 0x5 SHR ADD SWAP1 PUSH2 0x409E JUMP JUMPDEST DUP10 PUSH2 0x1170 JUMP JUMPDEST ADD MLOAD SWAP1 POP DUP9 DUP1 PUSH2 0x1129 JUMP JUMPDEST SWAP3 POP PUSH1 0x8 DUP6 ADD PUSH1 0x0 MSTORE PUSH1 0x20 PUSH1 0x0 KECCAK256 SWAP1 PUSH1 0x0 SWAP4 JUMPDEST PUSH1 0x1F NOT DUP5 AND DUP6 LT PUSH2 0x1B36 JUMPI PUSH1 0x1 SWAP5 POP DUP4 PUSH1 0x1F NOT DUP2 AND LT PUSH2 0x1B1D JUMPI JUMPDEST POP POP POP DUP2 SHL ADD PUSH1 0x8 DUP4 ADD SSTORE PUSH2 0x1141 JUMP JUMPDEST ADD MLOAD PUSH1 0x0 NOT PUSH1 0xF8 DUP5 PUSH1 0x3 SHL AND SHR NOT AND SWAP1 SSTORE DUP9 DUP1 DUP1 PUSH2 0x1B0D JUMP JUMPDEST DUP2 DUP2 ADD MLOAD DUP4 SSTORE PUSH1 0x20 SWAP5 DUP6 ADD SWAP5 PUSH1 0x1 SWAP1 SWAP4 ADD SWAP3 SWAP1 SWAP2 ADD SWAP1 PUSH2 0x1AF2 JUMP JUMPDEST PUSH2 0x1B80 SWAP1 PUSH1 0x8 DUP8 ADD PUSH1 0x0 MSTORE PUSH1 0x20 PUSH1 0x0 KECCAK256 PUSH1 0x1F DUP6 ADD PUSH1 0x5 SHR DUP2 ADD SWAP2 PUSH1 0x20 DUP7 LT PUSH2 0x3F1 JUMPI PUSH1 0x1F ADD PUSH1 0x5 SHR ADD SWAP1 PUSH2 0x409E JUMP JUMPDEST DUP10 PUSH2 0x1112 JUMP JUMPDEST ADD MLOAD SWAP1 POP DUP9 DUP1 PUSH2 0x10C1 JUMP JUMPDEST SWAP3 POP PUSH1 0x6 DUP6 ADD PUSH1 0x0 MSTORE PUSH1 0x20 PUSH1 0x0 KECCAK256 SWAP1 PUSH1 0x0 SWAP4 JUMPDEST PUSH1 0x1F NOT DUP5 AND DUP6 LT PUSH2 0x1BE8 JUMPI PUSH1 0x1 SWAP5 POP DUP4 PUSH1 0x1F NOT DUP2 AND LT PUSH2 0x1BCF JUMPI JUMPDEST POP POP POP DUP2 SHL ADD PUSH1 0x6 DUP4 ADD SSTORE PUSH2 0x10D9 JUMP JUMPDEST ADD MLOAD PUSH1 0x0 NOT PUSH1 0xF8 DUP5 PUSH1 0x3 SHL AND SHR NOT AND SWAP1 SSTORE DUP9 DUP1 DUP1 PUSH2 0x1BBF JUMP JUMPDEST DUP2 DUP2 ADD MLOAD DUP4 SSTORE PUSH1 0x20 SWAP5 DUP6 ADD SWAP5 PUSH1 0x1 SWAP1 SWAP4 ADD SWAP3 SWAP1 SWAP2 ADD SWAP1 PUSH2 0x1BA4 JUMP JUMPDEST PUSH2 0x1C32 SWAP1 PUSH1 0x6 DUP8 ADD PUSH1 0x0 MSTORE PUSH1 0x20 PUSH1 0x0 KECCAK256 PUSH1 0x1F DUP6 ADD PUSH1 0x5 SHR DUP2 ADD SWAP2 PUSH1 0x20 DUP7 LT PUSH2 0x3F1 JUMPI PUSH1 0x1F ADD PUSH1 0x5 SHR ADD SWAP1 PUSH2 0x409E JUMP JUMPDEST DUP10 PUSH2 0x10AA JUMP JUMPDEST ADD MLOAD SWAP1 POP DUP9 DUP1 PUSH2 0x1045 JUMP JUMPDEST SWAP3 POP PUSH1 0x4 DUP6 ADD PUSH1 0x0 MSTORE PUSH1 0x20 PUSH1 0x0 KECCAK256 SWAP1 PUSH1 0x0 SWAP4 JUMPDEST PUSH1 0x1F NOT DUP5 AND DUP6 LT PUSH2 0x1C9A JUMPI PUSH1 0x1 SWAP5 POP DUP4 PUSH1 0x1F NOT DUP2 AND LT PUSH2 0x1C81 JUMPI JUMPDEST POP POP POP DUP2 SHL ADD PUSH1 0x4 DUP4 ADD SSTORE PUSH2 0x105D JUMP JUMPDEST ADD MLOAD PUSH1 0x0 NOT PUSH1 0xF8 DUP5 PUSH1 0x3 SHL AND SHR NOT AND SWAP1 SSTORE DUP9 DUP1 DUP1 PUSH2 0x1C71 JUMP JUMPDEST DUP2 DUP2 ADD MLOAD DUP4 SSTORE PUSH1 0x20 SWAP5 DUP6 ADD SWAP5 PUSH1 0x1 SWAP1 SWAP4 ADD SWAP3 SWAP1 SWAP2 ADD SWAP1 PUSH2 0x1C56 JUMP JUMPDEST PUSH2 0x1CE4 SWAP1 PUSH1 0x4 DUP8 ADD PUSH1 0x0 MSTORE PUSH1 0x20 PUSH1 0x0 KECCAK256 PUSH1 0x1F DUP6 ADD PUSH1 0x5 SHR DUP2 ADD SWAP2 PUSH1 0x20 DUP7 LT PUSH2 0x3F1 JUMPI PUSH1 0x1F ADD PUSH1 0x5 SHR ADD SWAP1 PUSH2 0x409E JUMP JUMPDEST DUP10 PUSH2 0x102E JUMP JUMPDEST ADD MLOAD SWAP1 POP DUP9 DUP1 PUSH2 0xFE8 JUMP JUMPDEST SWAP3 POP PUSH1 0x3 DUP6 ADD PUSH1 0x0 MSTORE PUSH1 0x20 PUSH1 0x0 KECCAK256 SWAP1 PUSH1 0x0 SWAP4 JUMPDEST PUSH1 0x1F NOT DUP5 AND DUP6 LT PUSH2 0x1D4C JUMPI PUSH1 0x1 SWAP5 POP DUP4 PUSH1 0x1F NOT DUP2 AND LT PUSH2 0x1D33 JUMPI JUMPDEST POP POP POP DUP2 SHL ADD PUSH1 0x3 DUP4 ADD SSTORE PUSH2 0x1000 JUMP JUMPDEST ADD MLOAD PUSH1 0x0 NOT PUSH1 0xF8 DUP5 PUSH1 0x3 SHL AND SHR NOT AND SWAP1 SSTORE DUP9 DUP1 DUP1 PUSH2 0x1D23 JUMP JUMPDEST DUP2 DUP2 ADD MLOAD DUP4 SSTORE PUSH1 0x20 SWAP5 DUP6 ADD SWAP5 PUSH1 0x1 SWAP1 SWAP4 ADD SWAP3 SWAP1 SWAP2 ADD SWAP1 PUSH2 0x1D08 JUMP JUMPDEST PUSH2 0x1D96 SWAP1 PUSH1 0x3 DUP8 ADD PUSH1 0x0 MSTORE PUSH1 0x20 PUSH1 0x0 KECCAK256 PUSH1 0x1F DUP6 ADD PUSH1 0x5 SHR DUP2 ADD SWAP2 PUSH1 0x20 DUP7 LT PUSH2 0x3F1 JUMPI PUSH1 0x1F ADD PUSH1 0x5 SHR ADD SWAP1 PUSH2 0x409E JUMP JUMPDEST DUP10 PUSH2 0xFD1 JUMP JUMPDEST ADD MLOAD SWAP1 POP DUP9 DUP1 PUSH2 0xF8B JUMP JUMPDEST SWAP3 POP PUSH1 0x2 DUP6 ADD PUSH1 0x0 MSTORE PUSH1 0x20 PUSH1 0x0 KECCAK256 SWAP1 PUSH1 0x0 SWAP4 JUMPDEST PUSH1 0x1F NOT DUP5 AND DUP6 LT PUSH2 0x1DFE JUMPI PUSH1 0x1 SWAP5 POP DUP4 PUSH1 0x1F NOT DUP2 AND LT PUSH2 0x1DE5 JUMPI JUMPDEST POP POP POP DUP2 SHL ADD PUSH1 0x2 DUP4 ADD SSTORE PUSH2 0xFA3 JUMP JUMPDEST ADD MLOAD PUSH1 0x0 NOT PUSH1 0xF8 DUP5 PUSH1 0x3 SHL AND SHR NOT AND SWAP1 SSTORE DUP9 DUP1 DUP1 PUSH2 0x1DD5 JUMP JUMPDEST DUP2 DUP2 ADD MLOAD DUP4 SSTORE PUSH1 0x20 SWAP5 DUP6 ADD SWAP5 PUSH1 0x1 SWAP1 SWAP4 ADD SWAP3 SWAP1 SWAP2 ADD SWAP1 PUSH2 0x1DBA JUMP JUMPDEST PUSH2 0x1E48 SWAP1 PUSH1 0x2 DUP8 ADD PUSH1 0x0 MSTORE PUSH1 0x20 PUSH1 0x0 KECCAK256 PUSH1 0x1F DUP6 ADD PUSH1 0x5 SHR DUP2 ADD SWAP2 PUSH1 0x20 DUP7 LT PUSH2 0x3F1 JUMPI PUSH1 0x1F ADD PUSH1 0x5 SHR ADD SWAP1 PUSH2 0x409E JUMP JUMPDEST DUP10 PUSH2 0xF74 JUMP JUMPDEST ADD MLOAD SWAP1 POP DUP9 DUP1 PUSH2 0xF2E JUMP JUMPDEST SWAP3 POP PUSH1 0x1 DUP6 ADD PUSH1 0x0 MSTORE PUSH1 0x20 PUSH1 0x0 KECCAK256 SWAP1 PUSH1 0x0 SWAP4 JUMPDEST PUSH1 0x1F NOT DUP5 AND DUP6 LT PUSH2 0x1EB0 JUMPI PUSH1 0x1 SWAP5 POP DUP4 PUSH1 0x1F NOT DUP2 AND LT PUSH2 0x1E97 JUMPI JUMPDEST POP POP POP DUP2 SHL ADD PUSH1 0x1 DUP4 ADD SSTORE PUSH2 0xF46 JUMP JUMPDEST ADD MLOAD PUSH1 0x0 NOT PUSH1 0xF8 DUP5 PUSH1 0x3 SHL AND SHR NOT AND SWAP1 SSTORE DUP9 DUP1 DUP1 PUSH2 0x1E87 JUMP JUMPDEST DUP2 DUP2 ADD MLOAD DUP4 SSTORE PUSH1 0x20 SWAP5 DUP6 ADD SWAP5 PUSH1 0x1 SWAP1 SWAP4 ADD SWAP3 SWAP1 SWAP2 ADD SWAP1 PUSH2 0x1E6C JUMP JUMPDEST PUSH2 0x1EFA SWAP1 PUSH1 0x1 DUP8 ADD PUSH1 0x0 MSTORE PUSH1 0x20 PUSH1 0x0 KECCAK256 PUSH1 0x1F DUP6 ADD PUSH1 0x5 SHR DUP2 ADD SWAP2 PUSH1 0x20 DUP7 LT PUSH2 0x3F1 JUMPI PUSH1 0x1F ADD PUSH1 0x5 SHR ADD SWAP1 PUSH2 0x409E JUMP JUMPDEST DUP10 PUSH2 0xF17 JUMP JUMPDEST ADD MLOAD SWAP1 POP DUP9 DUP1 PUSH2 0xED4 JUMP JUMPDEST SWAP3 POP DUP5 PUSH1 0x0 MSTORE PUSH1 0x20 PUSH1 0x0 KECCAK256 SWAP1 PUSH1 0x0 SWAP4 JUMPDEST PUSH1 0x1F NOT DUP5 AND DUP6 LT PUSH2 0x1F5C JUMPI PUSH1 0x1 SWAP5 POP DUP4 PUSH1 0x1F NOT DUP2 AND LT PUSH2 0x1F43 JUMPI JUMPDEST POP POP POP DUP2 SHL ADD DUP3 SSTORE PUSH2 0xEE9 JUMP JUMPDEST ADD MLOAD PUSH1 0x0 NOT PUSH1 0xF8 DUP5 PUSH1 0x3 SHL AND SHR NOT AND SWAP1 SSTORE DUP9 DUP1 DUP1 PUSH2 0x1F36 JUMP JUMPDEST DUP2 DUP2 ADD MLOAD DUP4 SSTORE PUSH1 0x20 SWAP5 DUP6 ADD SWAP5 PUSH1 0x1 SWAP1 SWAP4 ADD SWAP3 SWAP1 SWAP2 ADD SWAP1 PUSH2 0x1F1B JUMP JUMPDEST PUSH2 0x1FA3 SWAP1 DUP7 PUSH1 0x0 MSTORE PUSH1 0x20 PUSH1 0x0 KECCAK256 PUSH1 0x1F DUP6 ADD PUSH1 0x5 SHR DUP2 ADD SWAP2 PUSH1 0x20 DUP7 LT PUSH2 0x3F1 JUMPI PUSH1 0x1F ADD PUSH1 0x5 SHR ADD SWAP1 PUSH2 0x409E JUMP JUMPDEST DUP10 PUSH2 0xEBD JUMP JUMPDEST PUSH1 0x40 MLOAD PUSH3 0x461BCD PUSH1 0xE5 SHL DUP2 MSTORE PUSH1 0x20 PUSH1 0x4 DUP3 ADD MSTORE PUSH1 0x24 DUP1 DUP3 ADD MSTORE PUSH32 0x5573657220616C72656164792065786973747320666F72207468697320616464 PUSH1 0x44 DUP3 ADD MSTORE PUSH4 0x72657373 PUSH1 0xE0 SHL PUSH1 0x64 DUP3 ADD MSTORE PUSH1 0x84 SWAP1 REVERT JUMPDEST PUSH1 0x0 SLOAD PUSH1 0x1 PUSH1 0x1 PUSH1 0xA0 SHL SUB AND CALLER EQ DUP1 ISZERO PUSH2 0x2057 JUMPI JUMPDEST PUSH2 0xD72 JUMPI PUSH1 0x64 PUSH1 0x40 MLOAD PUSH3 0x461BCD PUSH1 0xE5 SHL DUP2 MSTORE PUSH1 0x20 PUSH1 0x4 DUP3 ADD MSTORE PUSH1 0x20 PUSH1 0x24 DUP3 ADD MSTORE PUSH32 0x4F6E6C792061646D696E2063616E207265676973746572206F66666963657273 PUSH1 0x44 DUP3 ADD MSTORE REVERT JUMPDEST POP CALLER PUSH1 0x0 MSTORE PUSH1 0x1 PUSH1 0x20 MSTORE PUSH2 0x438 PUSH2 0x207B PUSH1 0x4 PUSH1 0x40 PUSH1 0x0 KECCAK256 ADD PUSH1 0x40 MLOAD SWAP3 DUP4 DUP1 SWAP3 PUSH2 0x3F78 JUMP JUMPDEST PUSH1 0x20 DUP2 MLOAD SWAP2 ADD KECCAK256 PUSH2 0x208A PUSH2 0x4031 JUMP JUMPDEST PUSH1 0x20 DUP2 MLOAD SWAP2 ADD KECCAK256 EQ PUSH2 0x200F JUMP JUMPDEST CALLVALUE PUSH2 0x11A JUMPI PUSH1 0x20 DUP1 PUSH1 0x3 NOT CALLDATASIZE ADD SLT PUSH2 0x11A JUMPI PUSH2 0x20B1 PUSH2 0x3DE5 JUMP JUMPDEST SWAP1 PUSH2 0x2133 PUSH1 0x1 DUP1 PUSH1 0xA0 SHL SUB DUP1 SWAP4 DUP2 PUSH1 0x0 SLOAD AND CALLER EQ DUP1 ISZERO PUSH2 0x2392 JUMPI JUMPDEST PUSH2 0x20D5 SWAP1 PUSH2 0x40F7 JUMP JUMPDEST AND SWAP2 DUP3 PUSH1 0x0 MSTORE PUSH1 0x1 DUP1 SWAP5 DUP2 DUP4 MSTORE PUSH2 0x20F3 PUSH2 0x274 PUSH1 0x40 PUSH1 0x0 KECCAK256 SLOAD PUSH2 0x3F3E JUMP JUMPDEST DUP5 PUSH1 0x0 MSTORE DUP2 DUP4 MSTORE PUSH2 0x2182 DUP4 PUSH2 0x438 PUSH2 0x2118 PUSH1 0x2 PUSH1 0x40 PUSH1 0x0 KECCAK256 ADD PUSH1 0x40 MLOAD SWAP3 DUP4 DUP1 SWAP3 PUSH2 0x3F78 JUMP JUMPDEST DUP8 PUSH1 0x0 MSTORE DUP5 DUP3 MSTORE PUSH2 0x213A PUSH1 0x40 PUSH1 0x0 KECCAK256 PUSH1 0x40 MLOAD SWAP9 DUP10 DUP1 SWAP3 PUSH2 0x3F78 JUMP JUMPDEST SUB DUP9 PUSH2 0x3E7A JUMP JUMPDEST PUSH1 0x40 MLOAD SWAP1 DUP1 MLOAD SWAP2 DUP4 DUP2 DUP2 DUP5 ADD SWAP5 PUSH2 0x2152 DUP2 DUP4 DUP9 PUSH2 0x3DFB JUMP JUMPDEST DUP2 ADD PUSH1 0x2 DUP2 MSTORE SUB ADD SWAP1 KECCAK256 PUSH12 0xFFFFFFFFFFFFFFFFFFFFFFFF PUSH1 0xA0 SHL DUP2 SLOAD AND SWAP1 SSTORE PUSH1 0x40 MLOAD SWAP4 DUP5 SWAP3 DUP4 SWAP3 MLOAD SWAP3 DUP4 SWAP2 PUSH2 0x3DFB JUMP JUMPDEST DUP2 ADD PUSH1 0x4 DUP2 MSTORE SUB ADD SWAP1 KECCAK256 PUSH1 0xFF NOT DUP2 SLOAD AND SWAP1 SSTORE PUSH1 0x0 SWAP2 JUMPDEST PUSH2 0x22A6 JUMPI JUMPDEST POP POP PUSH2 0x2292 PUSH1 0x11 DUP5 SWAP6 PUSH32 0x89FCFA7C85BF81269953B23469028AFBDB9913B80AF31B7C931A42009FB252BD SWAP6 PUSH1 0x0 MSTORE DUP1 DUP5 MSTORE PUSH2 0x21E7 PUSH1 0x40 PUSH1 0x0 KECCAK256 SWAP2 PUSH2 0x21E0 DUP4 PUSH2 0x414D JUMP JUMPDEST DUP3 ADD PUSH2 0x414D JUMP JUMPDEST PUSH2 0x21F3 PUSH1 0x2 DUP3 ADD PUSH2 0x414D JUMP JUMPDEST PUSH2 0x21FF PUSH1 0x3 DUP3 ADD PUSH2 0x414D JUMP JUMPDEST PUSH2 0x220B PUSH1 0x4 DUP3 ADD PUSH2 0x414D JUMP JUMPDEST PUSH1 0x0 PUSH1 0x5 DUP3 ADD SSTORE PUSH2 0x221E PUSH1 0x6 DUP3 ADD PUSH2 0x414D JUMP JUMPDEST PUSH1 0x0 PUSH1 0x7 DUP3 ADD SSTORE PUSH2 0x2231 PUSH1 0x8 DUP3 ADD PUSH2 0x414D JUMP JUMPDEST PUSH2 0x223D PUSH1 0x9 DUP3 ADD PUSH2 0x414D JUMP JUMPDEST PUSH2 0x2249 PUSH1 0xA DUP3 ADD PUSH2 0x414D JUMP JUMPDEST PUSH2 0x2255 PUSH1 0xB DUP3 ADD PUSH2 0x414D JUMP JUMPDEST PUSH1 0x0 PUSH1 0xC DUP3 ADD SSTORE PUSH2 0x2268 PUSH1 0xD DUP3 ADD PUSH2 0x414D JUMP JUMPDEST PUSH2 0x2274 PUSH1 0xE DUP3 ADD PUSH2 0x414D JUMP JUMPDEST PUSH2 0x2280 PUSH1 0xF DUP3 ADD PUSH2 0x414D JUMP JUMPDEST PUSH2 0x228C PUSH1 0x10 DUP3 ADD PUSH2 0x414D JUMP JUMPDEST ADD PUSH2 0x414D JUMP JUMPDEST PUSH2 0x326 PUSH1 0x40 MLOAD SWAP3 DUP3 DUP5 SWAP4 DUP5 MSTORE DUP4 ADD SWAP1 PUSH2 0x3E1E JUMP JUMPDEST PUSH1 0x3 DUP1 SLOAD DUP1 DUP5 LT ISZERO PUSH2 0x238B JUMPI DUP7 DUP4 PUSH2 0x22BD DUP7 PUSH2 0x3EF1 JUMP JUMPDEST SWAP1 SLOAD SWAP1 DUP6 SHL SHR AND EQ PUSH2 0x22F4 JUMPI POP POP PUSH1 0x0 NOT DUP3 EQ PUSH2 0x22DE JUMPI DUP6 DUP1 SWAP3 ADD SWAP2 PUSH2 0x2198 JUMP JUMPDEST PUSH4 0x4E487B71 PUSH1 0xE0 SHL PUSH1 0x0 MSTORE PUSH1 0x11 PUSH1 0x4 MSTORE PUSH1 0x24 PUSH1 0x0 REVERT JUMPDEST SWAP6 SWAP7 SWAP1 SWAP6 PUSH1 0x0 NOT SWAP4 DUP2 DUP6 ADD SWAP2 DUP3 GT PUSH2 0x22DE JUMPI PUSH2 0x1491 DUP5 PUSH2 0x2316 PUSH2 0x2323 SWAP5 PUSH2 0x3EF1 JUMP JUMPDEST SWAP1 SLOAD SWAP1 DUP12 SHL SHR AND SWAP2 PUSH2 0x3EF1 JUMP JUMPDEST DUP6 SLOAD SWAP2 DUP3 ISZERO PUSH2 0x2375 JUMPI PUSH32 0x89FCFA7C85BF81269953B23469028AFBDB9913B80AF31B7C931A42009FB252BD SWAP7 PUSH2 0x2292 SWAP5 PUSH1 0x11 SWAP5 ADD SWAP2 PUSH2 0x2360 DUP4 PUSH2 0x3EF1 JUMP JUMPDEST SWAP1 SWAP2 DUP3 SLOAD SWAP2 DUP5 SHL SHL NOT AND SWAP1 SSTORE SSTORE SWAP6 SWAP5 POP PUSH2 0x219D JUMP JUMPDEST PUSH4 0x4E487B71 PUSH1 0xE0 SHL PUSH1 0x0 MSTORE PUSH1 0x31 PUSH1 0x4 MSTORE PUSH1 0x24 PUSH1 0x0 REVERT JUMPDEST POP POP PUSH2 0x219D JUMP JUMPDEST POP CALLER PUSH1 0x0 MSTORE PUSH1 0x1 DUP5 MSTORE PUSH2 0x20D5 PUSH2 0x438 PUSH2 0x23B8 PUSH1 0x4 PUSH1 0x40 PUSH1 0x0 KECCAK256 ADD PUSH1 0x40 MLOAD SWAP3 DUP4 DUP1 SWAP3 PUSH2 0x3F78 JUMP JUMPDEST DUP6 DUP2 MLOAD SWAP2 ADD KECCAK256 PUSH2 0x23C6 PUSH2 0x4031 JUMP JUMPDEST DUP7 DUP2 MLOAD SWAP2 ADD KECCAK256 EQ SWAP1 POP PUSH2 0x20CC JUMP JUMPDEST CALLVALUE PUSH2 0x11A JUMPI PUSH1 0x20 CALLDATASIZE PUSH1 0x3 NOT ADD SLT PUSH2 0x11A JUMPI PUSH2 0x23ED PUSH2 0x3DE5 JUMP JUMPDEST PUSH1 0x0 SLOAD SWAP1 PUSH1 0x1 PUSH1 0x1 PUSH1 0xA0 SHL SUB SWAP1 CALLER DUP3 DUP5 AND EQ DUP1 ISZERO PUSH2 0x245E JUMPI JUMPDEST PUSH2 0x240F SWAP1 PUSH2 0x40F7 JUMP JUMPDEST AND SWAP1 DUP2 ISZERO PUSH2 0x2427 JUMPI PUSH1 0x1 PUSH1 0x1 PUSH1 0xA0 SHL SUB NOT AND OR PUSH1 0x0 SSTORE STOP JUMPDEST PUSH1 0x40 MLOAD PUSH3 0x461BCD PUSH1 0xE5 SHL DUP2 MSTORE PUSH1 0x20 PUSH1 0x4 DUP3 ADD MSTORE PUSH1 0xF PUSH1 0x24 DUP3 ADD MSTORE PUSH15 0x496E76616C69642061646472657373 PUSH1 0x88 SHL PUSH1 0x44 DUP3 ADD MSTORE PUSH1 0x64 SWAP1 REVERT JUMPDEST POP CALLER PUSH1 0x0 MSTORE PUSH1 0x1 PUSH1 0x20 MSTORE PUSH2 0x240F PUSH2 0x438 PUSH2 0x2485 PUSH1 0x4 PUSH1 0x40 PUSH1 0x0 KECCAK256 ADD PUSH1 0x40 MLOAD SWAP3 DUP4 DUP1 SWAP3 PUSH2 0x3F78 JUMP JUMPDEST PUSH1 0x20 DUP2 MLOAD SWAP2 ADD KECCAK256 PUSH2 0x2494 PUSH2 0x4031 JUMP JUMPDEST PUSH1 0x20 DUP2 MLOAD SWAP2 ADD KECCAK256 EQ SWAP1 POP PUSH2 0x2406 JUMP JUMPDEST CALLVALUE PUSH2 0x11A JUMPI PUSH1 0x20 CALLDATASIZE PUSH1 0x3 NOT ADD SLT PUSH2 0x11A JUMPI PUSH1 0x1 PUSH1 0x1 PUSH1 0xA0 SHL SUB PUSH2 0x24C4 PUSH2 0x3DE5 JUMP JUMPDEST AND PUSH1 0x0 MSTORE PUSH1 0x1 PUSH1 0x20 MSTORE PUSH1 0x40 PUSH1 0x0 KECCAK256 PUSH1 0x40 MLOAD SWAP1 PUSH2 0x24DF DUP3 PUSH2 0x3E43 JUMP JUMPDEST PUSH1 0x40 MLOAD DUP1 PUSH2 0x24ED DUP2 DUP5 PUSH2 0x3F78 JUMP JUMPDEST SUB PUSH2 0x24F8 SWAP1 DUP3 PUSH2 0x3E7A JUMP JUMPDEST DUP3 MSTORE PUSH1 0x40 MLOAD SWAP2 DUP3 PUSH2 0x250C DUP2 PUSH1 0x1 DUP6 ADD PUSH2 0x3F78 JUMP JUMPDEST SUB PUSH2 0x2517 SWAP1 DUP5 PUSH2 0x3E7A JUMP JUMPDEST PUSH1 0x20 DUP2 ADD SWAP3 DUP4 MSTORE PUSH1 0x40 MLOAD SWAP1 DUP2 PUSH2 0x2530 DUP2 PUSH1 0x2 DUP7 ADD PUSH2 0x3F78 JUMP JUMPDEST SUB PUSH2 0x253B SWAP1 DUP4 PUSH2 0x3E7A JUMP JUMPDEST PUSH1 0x40 DUP2 DUP2 ADD SWAP3 DUP4 MSTORE MLOAD DUP1 PUSH2 0x2552 DUP2 PUSH1 0x3 DUP8 ADD PUSH2 0x3F78 JUMP JUMPDEST SUB PUSH2 0x255D SWAP1 DUP3 PUSH2 0x3E7A JUMP JUMPDEST PUSH1 0x60 DUP3 ADD SWAP1 DUP2 MSTORE PUSH1 0x40 MLOAD DUP1 PUSH2 0x2575 DUP2 PUSH1 0x4 DUP9 ADD PUSH2 0x3F78 JUMP JUMPDEST SUB PUSH2 0x2580 SWAP1 DUP3 PUSH2 0x3E7A JUMP JUMPDEST PUSH1 0x80 DUP4 ADD SWAP1 DUP2 MSTORE PUSH1 0x5 DUP6 ADD SLOAD PUSH1 0xFF AND SWAP1 PUSH1 0xA0 DUP5 ADD SWAP2 ISZERO ISZERO DUP3 MSTORE PUSH1 0x40 MLOAD SWAP3 DUP4 DUP1 PUSH1 0x6 DUP10 ADD SWAP1 PUSH2 0x25AD SWAP2 PUSH2 0x3F78 JUMP JUMPDEST SUB PUSH2 0x25B8 SWAP1 DUP6 PUSH2 0x3E7A JUMP JUMPDEST PUSH1 0xC0 DUP6 ADD SWAP4 DUP5 MSTORE PUSH1 0x7 DUP8 ADD SLOAD SWAP5 PUSH1 0xE0 DUP2 ADD SWAP6 DUP7 MSTORE PUSH1 0x40 MLOAD SWAP8 DUP9 DUP1 PUSH1 0x8 DUP4 ADD SWAP1 PUSH2 0x25E0 SWAP2 PUSH2 0x3F78 JUMP JUMPDEST SUB PUSH2 0x25EB SWAP1 DUP11 PUSH2 0x3E7A JUMP JUMPDEST PUSH2 0x100 SWAP9 DUP10 DUP4 ADD MSTORE PUSH1 0x40 MLOAD DUP1 DUP1 PUSH1 0x9 DUP5 ADD SWAP1 PUSH2 0x2606 SWAP2 PUSH2 0x3F78 JUMP JUMPDEST SUB PUSH2 0x2611 SWAP1 DUP3 PUSH2 0x3E7A JUMP JUMPDEST PUSH2 0x120 DUP4 ADD MSTORE PUSH1 0x40 MLOAD DUP1 PUSH2 0x2628 DUP2 PUSH1 0xA DUP6 ADD PUSH2 0x3F78 JUMP JUMPDEST SUB PUSH2 0x2633 SWAP1 DUP3 PUSH2 0x3E7A JUMP JUMPDEST PUSH2 0x140 DUP4 ADD MSTORE PUSH1 0x40 MLOAD DUP1 PUSH2 0x264A DUP2 PUSH1 0xB DUP6 ADD PUSH2 0x3F78 JUMP JUMPDEST SUB PUSH2 0x2655 SWAP1 DUP3 PUSH2 0x3E7A JUMP JUMPDEST PUSH2 0x160 DUP4 ADD MSTORE PUSH1 0xC DUP2 ADD SLOAD PUSH2 0x180 DUP4 ADD MSTORE PUSH1 0x40 MLOAD DUP1 PUSH2 0x2677 DUP2 PUSH1 0xD DUP6 ADD PUSH2 0x3F78 JUMP JUMPDEST SUB PUSH2 0x2682 SWAP1 DUP3 PUSH2 0x3E7A JUMP JUMPDEST PUSH2 0x1A0 DUP4 ADD MSTORE PUSH1 0x40 MLOAD DUP1 PUSH2 0x2699 DUP2 PUSH1 0xE DUP6 ADD PUSH2 0x3F78 JUMP JUMPDEST SUB PUSH2 0x26A4 SWAP1 DUP3 PUSH2 0x3E7A JUMP JUMPDEST PUSH2 0x1C0 DUP4 ADD MSTORE PUSH1 0x40 MLOAD DUP1 PUSH2 0x26BB DUP2 PUSH1 0xF DUP6 ADD PUSH2 0x3F78 JUMP JUMPDEST SUB PUSH2 0x26C6 SWAP1 DUP3 PUSH2 0x3E7A JUMP JUMPDEST PUSH2 0x1E0 DUP4 ADD MSTORE PUSH1 0x40 MLOAD DUP1 PUSH2 0x26DD DUP2 PUSH1 0x10 DUP6 ADD PUSH2 0x3F78 JUMP JUMPDEST SUB PUSH2 0x26E8 SWAP1 DUP3 PUSH2 0x3E7A JUMP JUMPDEST PUSH2 0x200 DUP4 ADD MSTORE PUSH1 0x40 MLOAD DUP1 PUSH1 0x11 DUP2 SWAP4 ADD SWAP1 PUSH2 0x2701 SWAP2 PUSH2 0x3F78 JUMP JUMPDEST SUB PUSH2 0x270C SWAP1 DUP3 PUSH2 0x3E7A JUMP JUMPDEST PUSH2 0x220 DUP3 ADD MSTORE MLOAD SWAP8 MLOAD SWAP6 MLOAD SWAP1 MLOAD SWAP2 MLOAD SWAP3 MLOAD ISZERO ISZERO SWAP4 MLOAD SWAP5 MLOAD SWAP6 PUSH1 0x40 MLOAD SWAP9 DUP9 DUP11 SWAP10 DUP11 MSTORE DUP10 ADD PUSH2 0x2738 SWAP2 PUSH2 0x3E1E JUMP JUMPDEST DUP9 DUP2 SUB PUSH1 0x20 DUP11 ADD MSTORE PUSH2 0xAE3 SWAP2 PUSH2 0x3E1E JUMP JUMPDEST CALLVALUE PUSH2 0x11A JUMPI PUSH1 0x20 CALLDATASIZE PUSH1 0x3 NOT ADD SLT PUSH2 0x11A JUMPI PUSH1 0x1 PUSH1 0x1 PUSH1 0xA0 SHL SUB PUSH2 0x276A PUSH2 0x3DE5 JUMP JUMPDEST AND PUSH1 0x0 MSTORE PUSH1 0x1 PUSH1 0x20 MSTORE PUSH1 0x20 PUSH2 0x438 PUSH2 0x278F PUSH1 0x4 PUSH1 0x40 PUSH1 0x0 KECCAK256 ADD PUSH1 0x40 MLOAD SWAP3 DUP4 DUP1 SWAP3 PUSH2 0x3F78 JUMP JUMPDEST DUP2 DUP2 MLOAD SWAP2 ADD KECCAK256 PUSH2 0x279D PUSH2 0x400E JUMP JUMPDEST DUP3 DUP2 MLOAD SWAP2 ADD KECCAK256 EQ PUSH1 0x40 MLOAD SWAP1 DUP2 MSTORE RETURN JUMPDEST CALLVALUE PUSH2 0x11A JUMPI PUSH1 0x20 CALLDATASIZE PUSH1 0x3 NOT ADD SLT PUSH2 0x11A JUMPI PUSH1 0x4 CALLDATALOAD PUSH1 0x3 SLOAD DUP2 LT ISZERO PUSH2 0x11A JUMPI PUSH2 0x27D5 PUSH1 0x20 SWAP2 PUSH2 0x3EF1 JUMP JUMPDEST SWAP1 SLOAD PUSH1 0x40 MLOAD PUSH1 0x3 SWAP3 SWAP1 SWAP3 SHL SHR PUSH1 0x1 PUSH1 0x1 PUSH1 0xA0 SHL SUB AND DUP2 MSTORE RETURN JUMPDEST CALLVALUE PUSH2 0x11A JUMPI PUSH1 0x20 CALLDATASIZE PUSH1 0x3 NOT ADD SLT PUSH2 0x11A JUMPI PUSH1 0x1 PUSH1 0x1 PUSH1 0xA0 SHL SUB PUSH2 0x280F PUSH2 0x3DE5 JUMP JUMPDEST AND PUSH1 0x0 MSTORE PUSH1 0x1 PUSH1 0x20 MSTORE PUSH1 0x20 PUSH2 0x2828 PUSH1 0x40 PUSH1 0x0 KECCAK256 SLOAD PUSH2 0x3F3E JUMP JUMPDEST ISZERO ISZERO PUSH1 0x40 MLOAD SWAP1 DUP2 MSTORE RETURN JUMPDEST CALLVALUE PUSH2 0x11A JUMPI PUSH2 0x160 CALLDATASIZE PUSH1 0x3 NOT ADD SLT PUSH2 0x11A JUMPI PUSH2 0x284C PUSH2 0x3DE5 JUMP JUMPDEST PUSH1 0x24 CALLDATALOAD PUSH1 0x1 PUSH1 0x1 PUSH1 0x40 SHL SUB DUP2 GT PUSH2 0x11A JUMPI PUSH2 0x286B SWAP1 CALLDATASIZE SWAP1 PUSH1 0x4 ADD PUSH2 0x3E9B JUMP JUMPDEST PUSH1 0x44 CALLDATALOAD PUSH1 0x1 PUSH1 0x1 PUSH1 0x40 SHL SUB DUP2 GT PUSH2 0x11A JUMPI PUSH2 0x288A SWAP1 CALLDATASIZE SWAP1 PUSH1 0x4 ADD PUSH2 0x3E9B JUMP JUMPDEST SWAP2 PUSH1 0x64 CALLDATALOAD PUSH1 0x1 PUSH1 0x1 PUSH1 0x40 SHL SUB DUP2 GT PUSH2 0x11A JUMPI PUSH2 0x28AA SWAP1 CALLDATASIZE SWAP1 PUSH1 0x4 ADD PUSH2 0x3E9B JUMP JUMPDEST PUSH1 0x84 CALLDATALOAD PUSH1 0x1 PUSH1 0x1 PUSH1 0x40 SHL SUB DUP2 GT PUSH2 0x11A JUMPI PUSH2 0x28C9 SWAP1 CALLDATASIZE SWAP1 PUSH1 0x4 ADD PUSH2 0x3E9B JUMP JUMPDEST PUSH1 0xC4 CALLDATALOAD PUSH1 0x1 PUSH1 0x1 PUSH1 0x40 SHL SUB DUP2 GT PUSH2 0x11A JUMPI PUSH2 0x28E8 SWAP1 CALLDATASIZE SWAP1 PUSH1 0x4 ADD PUSH2 0x3E9B JUMP JUMPDEST PUSH1 0xE4 CALLDATALOAD PUSH1 0x1 PUSH1 0x1 PUSH1 0x40 SHL SUB DUP2 GT PUSH2 0x11A JUMPI PUSH2 0x2907 SWAP1 CALLDATASIZE SWAP1 PUSH1 0x4 ADD PUSH2 0x3E9B JUMP JUMPDEST SWAP1 PUSH2 0x104 CALLDATALOAD PUSH1 0x1 PUSH1 0x1 PUSH1 0x40 SHL SUB DUP2 GT PUSH2 0x11A JUMPI PUSH2 0x2928 SWAP1 CALLDATASIZE SWAP1 PUSH1 0x4 ADD PUSH2 0x3E9B JUMP JUMPDEST SWAP3 PUSH2 0x124 CALLDATALOAD PUSH1 0x1 PUSH1 0x1 PUSH1 0x40 SHL SUB DUP2 GT PUSH2 0x11A JUMPI PUSH2 0x2949 SWAP1 CALLDATASIZE SWAP1 PUSH1 0x4 ADD PUSH2 0x3E9B JUMP JUMPDEST SWAP5 PUSH2 0x144 CALLDATALOAD PUSH1 0x1 PUSH1 0x1 PUSH1 0x40 SHL SUB DUP2 GT PUSH2 0x11A JUMPI PUSH2 0x296A SWAP1 CALLDATASIZE SWAP1 PUSH1 0x4 ADD PUSH2 0x3E9B JUMP JUMPDEST SWAP9 PUSH1 0x1 DUP1 PUSH1 0xA0 SHL SUB DUP9 AND PUSH1 0x0 MSTORE PUSH1 0x1 PUSH1 0x20 MSTORE PUSH2 0x298D PUSH2 0x274 PUSH1 0x40 PUSH1 0x0 KECCAK256 SLOAD PUSH2 0x3F3E JUMP JUMPDEST PUSH1 0x0 SLOAD PUSH1 0x1 PUSH1 0x1 PUSH1 0xA0 SHL SUB AND CALLER EQ DUP1 ISZERO PUSH2 0x33D1 JUMPI JUMPDEST DUP1 ISZERO PUSH2 0x33BF JUMPI JUMPDEST ISZERO PUSH2 0x3354 JUMPI PUSH1 0x1 PUSH1 0x1 PUSH1 0xA0 SHL SUB DUP9 AND PUSH1 0x0 SWAP1 DUP2 MSTORE PUSH1 0x1 PUSH1 0x20 MSTORE PUSH1 0x40 SWAP1 KECCAK256 DUP10 MLOAD SWAP1 SWAP10 PUSH1 0x1 PUSH1 0x1 PUSH1 0x40 SHL SUB DUP3 GT PUSH2 0x3FB JUMPI DUP2 SWAP1 DUP12 PUSH2 0x29E8 PUSH1 0x8 DUP3 ADD SLOAD PUSH2 0x3F3E JUMP JUMPDEST PUSH1 0x1F DUP2 GT PUSH2 0x331F JUMPI JUMPDEST POP POP PUSH1 0x20 SWAP1 PUSH1 0x1F DUP4 GT PUSH1 0x1 EQ PUSH2 0x32AD JUMPI PUSH1 0x0 SWAP3 PUSH2 0x32A2 JUMPI JUMPDEST POP POP DUP2 PUSH1 0x1 SHL SWAP2 PUSH1 0x0 NOT SWAP1 PUSH1 0x3 SHL SHR NOT AND OR PUSH1 0x8 DUP11 ADD SSTORE JUMPDEST DUP1 MLOAD SWAP1 PUSH1 0x1 PUSH1 0x1 PUSH1 0x40 SHL SUB DUP3 GT PUSH2 0x3FB JUMPI DUP2 SWAP1 PUSH2 0x2A41 PUSH1 0x9 DUP13 ADD SLOAD PUSH2 0x3F3E JUMP JUMPDEST PUSH1 0x1F DUP2 GT PUSH2 0x326D JUMPI JUMPDEST POP PUSH1 0x20 SWAP1 PUSH1 0x1F DUP4 GT PUSH1 0x1 EQ PUSH2 0x31FB JUMPI PUSH1 0x0 SWAP3 PUSH2 0x31F0 JUMPI JUMPDEST POP POP DUP2 PUSH1 0x1 SHL SWAP2 PUSH1 0x0 NOT SWAP1 PUSH1 0x3 SHL SHR NOT AND OR PUSH1 0x9 DUP10 ADD SSTORE JUMPDEST DUP1 MLOAD SWAP1 PUSH1 0x1 PUSH1 0x1 PUSH1 0x40 SHL SUB DUP3 GT PUSH2 0x3FB JUMPI DUP2 SWAP1 PUSH2 0x2A99 PUSH1 0xA DUP12 ADD SLOAD PUSH2 0x3F3E JUMP JUMPDEST PUSH1 0x1F DUP2 GT PUSH2 0x31BB JUMPI JUMPDEST POP PUSH1 0x20 SWAP1 PUSH1 0x1F DUP4 GT PUSH1 0x1 EQ PUSH2 0x3149 JUMPI PUSH1 0x0 SWAP3 PUSH2 0x313E JUMPI JUMPDEST POP POP DUP2 PUSH1 0x1 SHL SWAP2 PUSH1 0x0 NOT SWAP1 PUSH1 0x3 SHL SHR NOT AND OR PUSH1 0xA DUP9 ADD SSTORE JUMPDEST DUP1 MLOAD SWAP1 PUSH1 0x1 PUSH1 0x1 PUSH1 0x40 SHL SUB DUP3 GT PUSH2 0x3FB JUMPI DUP2 SWAP1 PUSH2 0x2AF1 PUSH1 0xB DUP11 ADD SLOAD PUSH2 0x3F3E JUMP JUMPDEST PUSH1 0x1F DUP2 GT PUSH2 0x3109 JUMPI JUMPDEST POP PUSH1 0x20 SWAP1 PUSH1 0x1F DUP4 GT PUSH1 0x1 EQ PUSH2 0x3097 JUMPI PUSH1 0x0 SWAP3 PUSH2 0x308C JUMPI JUMPDEST POP POP DUP2 PUSH1 0x1 SHL SWAP2 PUSH1 0x0 NOT SWAP1 PUSH1 0x3 SHL SHR NOT AND OR PUSH1 0xB DUP8 ADD SSTORE JUMPDEST PUSH1 0xA4 CALLDATALOAD PUSH1 0xC DUP8 ADD SSTORE DUP1 MLOAD SWAP1 PUSH1 0x1 PUSH1 0x1 PUSH1 0x40 SHL SUB DUP3 GT PUSH2 0x3FB JUMPI DUP2 SWAP1 PUSH2 0x2B51 PUSH1 0xD DUP10 ADD SLOAD PUSH2 0x3F3E JUMP JUMPDEST PUSH1 0x1F DUP2 GT PUSH2 0x3057 JUMPI JUMPDEST POP PUSH1 0x20 SWAP1 PUSH1 0x1F DUP4 GT PUSH1 0x1 EQ PUSH2 0x2FE5 JUMPI PUSH1 0x0 SWAP3 PUSH2 0x2FDA JUMPI JUMPDEST POP POP DUP2 PUSH1 0x1 SHL SWAP2 PUSH1 0x0 NOT SWAP1 PUSH1 0x3 SHL SHR NOT AND OR PUSH1 0xD DUP7 ADD SSTORE JUMPDEST DUP1 MLOAD SWAP1 PUSH1 0x1 PUSH1 0x1 PUSH1 0x40 SHL SUB DUP3 GT PUSH2 0x3FB JUMPI DUP2 SWAP1 PUSH2 0x2BA9 PUSH1 0xE DUP9 ADD SLOAD PUSH2 0x3F3E JUMP JUMPDEST PUSH1 0x1F DUP2 GT PUSH2 0x2FA5 JUMPI JUMPDEST POP PUSH1 0x20 SWAP1 PUSH1 0x1F DUP4 GT PUSH1 0x1 EQ PUSH2 0x2F33 JUMPI PUSH1 0x0 SWAP3 PUSH2 0x2F28 JUMPI JUMPDEST POP POP DUP2 PUSH1 0x1 SHL SWAP2 PUSH1 0x0 NOT SWAP1 PUSH1 0x3 SHL SHR NOT AND OR PUSH1 0xE DUP6 ADD SSTORE JUMPDEST DUP1 MLOAD SWAP1 PUSH1 0x1 PUSH1 0x1 PUSH1 0x40 SHL SUB DUP3 GT PUSH2 0x3FB JUMPI DUP2 SWAP1 PUSH2 0x2C01 PUSH1 0xF DUP8 ADD SLOAD PUSH2 0x3F3E JUMP JUMPDEST PUSH1 0x1F DUP2 GT PUSH2 0x2EF3 JUMPI JUMPDEST POP PUSH1 0x20 SWAP1 PUSH1 0x1F DUP4 GT PUSH1 0x1 EQ PUSH2 0x2E81 JUMPI PUSH1 0x0 SWAP3 PUSH2 0x2E76 JUMPI JUMPDEST POP POP DUP2 PUSH1 0x1 SHL SWAP2 PUSH1 0x0 NOT SWAP1 PUSH1 0x3 SHL SHR NOT AND OR PUSH1 0xF DUP5 ADD SSTORE JUMPDEST DUP1 MLOAD PUSH1 0x10 DUP5 ADD SWAP2 PUSH1 0x1 PUSH1 0x1 PUSH1 0x40 SHL SUB DUP3 GT PUSH2 0x3FB JUMPI DUP2 SWAP1 PUSH2 0x2C5A DUP5 SLOAD PUSH2 0x3F3E JUMP JUMPDEST PUSH1 0x1F DUP2 GT PUSH2 0x2E44 JUMPI JUMPDEST POP PUSH1 0x20 SWAP1 PUSH1 0x1F DUP4 GT PUSH1 0x1 EQ PUSH2 0x2DDE JUMPI PUSH1 0x0 SWAP3 PUSH2 0x2DD3 JUMPI JUMPDEST POP POP DUP2 PUSH1 0x1 SHL SWAP2 PUSH1 0x0 NOT SWAP1 PUSH1 0x3 SHL SHR NOT AND OR SWAP1 SSTORE JUMPDEST PUSH1 0x11 DUP3 ADD DUP4 MLOAD PUSH1 0x1 PUSH1 0x1 PUSH1 0x40 SHL SUB DUP2 GT PUSH2 0x3FB JUMPI PUSH2 0x2CAD DUP3 SLOAD PUSH2 0x3F3E JUMP JUMPDEST PUSH1 0x1F DUP2 GT PUSH2 0x2DA1 JUMPI JUMPDEST POP PUSH1 0x20 PUSH1 0x1F DUP3 GT PUSH1 0x1 EQ PUSH2 0x2D25 JUMPI SWAP1 DUP1 PUSH2 0x326 SWAP5 SWAP4 SWAP3 PUSH1 0x0 DUP1 MLOAD PUSH1 0x20 PUSH2 0x4197 DUP4 CODECOPY DUP2 MLOAD SWAP2 MSTORE SWAP7 SWAP8 PUSH1 0x0 SWAP3 PUSH2 0x2D1A JUMPI JUMPDEST POP POP DUP2 PUSH1 0x1 SHL SWAP2 PUSH1 0x0 NOT SWAP1 PUSH1 0x3 SHL SHR NOT AND OR SWAP1 SSTORE JUMPDEST PUSH1 0x40 MLOAD SWAP2 DUP3 SWAP2 PUSH1 0x20 DUP4 MSTORE PUSH1 0x1 DUP1 PUSH1 0xA0 SHL SUB AND SWAP5 PUSH1 0x2 PUSH1 0x20 DUP5 ADD SWAP2 ADD PUSH2 0x3F78 JUMP JUMPDEST ADD MLOAD SWAP1 POP DUP8 DUP1 PUSH2 0x2CE5 JUMP JUMPDEST PUSH1 0x1F NOT DUP3 AND SWAP6 DUP4 PUSH1 0x0 MSTORE PUSH1 0x20 PUSH1 0x0 KECCAK256 SWAP7 PUSH1 0x0 JUMPDEST DUP2 DUP2 LT PUSH2 0x2D89 JUMPI POP SWAP7 PUSH1 0x1 SWAP3 DUP5 SWAP3 PUSH2 0x326 SWAP8 SWAP7 SWAP6 PUSH1 0x0 DUP1 MLOAD PUSH1 0x20 PUSH2 0x4197 DUP4 CODECOPY DUP2 MLOAD SWAP2 MSTORE SWAP10 SWAP11 LT PUSH2 0x2D70 JUMPI JUMPDEST POP POP POP DUP2 SHL ADD SWAP1 SSTORE PUSH2 0x2CFA JUMP JUMPDEST ADD MLOAD PUSH1 0x0 NOT PUSH1 0xF8 DUP5 PUSH1 0x3 SHL AND SHR NOT AND SWAP1 SSTORE DUP8 DUP1 DUP1 PUSH2 0x2D63 JUMP JUMPDEST DUP4 DUP4 ADD MLOAD DUP10 SSTORE PUSH1 0x1 SWAP1 SWAP9 ADD SWAP8 PUSH1 0x20 SWAP4 DUP5 ADD SWAP4 ADD PUSH2 0x2D38 JUMP JUMPDEST PUSH2 0x2DCD SWAP1 DUP4 PUSH1 0x0 MSTORE PUSH1 0x20 PUSH1 0x0 KECCAK256 PUSH1 0x1F DUP5 ADD PUSH1 0x5 SHR DUP2 ADD SWAP2 PUSH1 0x20 DUP6 LT PUSH2 0x3F1 JUMPI PUSH1 0x1F ADD PUSH1 0x5 SHR ADD SWAP1 PUSH2 0x409E JUMP JUMPDEST DUP6 PUSH2 0x2CB6 JUMP JUMPDEST ADD MLOAD SWAP1 POP DUP7 DUP1 PUSH2 0x2C7A JUMP JUMPDEST PUSH1 0x0 DUP6 DUP2 MSTORE PUSH1 0x20 DUP2 KECCAK256 SWAP4 POP PUSH1 0x1F NOT DUP6 AND SWAP1 JUMPDEST DUP2 DUP2 LT PUSH2 0x2E2C JUMPI POP SWAP1 DUP5 PUSH1 0x1 SWAP6 SWAP5 SWAP4 SWAP3 LT PUSH2 0x2E13 JUMPI JUMPDEST POP POP POP DUP2 SHL ADD SWAP1 SSTORE PUSH2 0x2C8F JUMP JUMPDEST ADD MLOAD PUSH1 0x0 NOT PUSH1 0xF8 DUP5 PUSH1 0x3 SHL AND SHR NOT AND SWAP1 SSTORE DUP7 DUP1 DUP1 PUSH2 0x2E06 JUMP JUMPDEST SWAP3 SWAP4 PUSH1 0x20 PUSH1 0x1 DUP2 SWAP3 DUP8 DUP7 ADD MLOAD DUP2 SSTORE ADD SWAP6 ADD SWAP4 ADD PUSH2 0x2DF0 JUMP JUMPDEST PUSH2 0x2E70 SWAP1 DUP6 PUSH1 0x0 MSTORE PUSH1 0x20 PUSH1 0x0 KECCAK256 PUSH1 0x1F DUP6 ADD PUSH1 0x5 SHR DUP2 ADD SWAP2 PUSH1 0x20 DUP7 LT PUSH2 0x3F1 JUMPI PUSH1 0x1F ADD PUSH1 0x5 SHR ADD SWAP1 PUSH2 0x409E JUMP JUMPDEST DUP8 PUSH2 0x2C63 JUMP JUMPDEST ADD MLOAD SWAP1 POP DUP7 DUP1 PUSH2 0x2C21 JUMP JUMPDEST SWAP3 POP PUSH1 0xF DUP7 ADD PUSH1 0x0 MSTORE PUSH1 0x20 PUSH1 0x0 KECCAK256 SWAP1 PUSH1 0x0 SWAP4 JUMPDEST PUSH1 0x1F NOT DUP5 AND DUP6 LT PUSH2 0x2ED8 JUMPI PUSH1 0x1 SWAP5 POP DUP4 PUSH1 0x1F NOT DUP2 AND LT PUSH2 0x2EBF JUMPI JUMPDEST POP POP POP DUP2 SHL ADD PUSH1 0xF DUP5 ADD SSTORE PUSH2 0x2C39 JUMP JUMPDEST ADD MLOAD PUSH1 0x0 NOT PUSH1 0xF8 DUP5 PUSH1 0x3 SHL AND SHR NOT AND SWAP1 SSTORE DUP7 DUP1 DUP1 PUSH2 0x2EAF JUMP JUMPDEST DUP2 DUP2 ADD MLOAD DUP4 SSTORE PUSH1 0x20 SWAP5 DUP6 ADD SWAP5 PUSH1 0x1 SWAP1 SWAP4 ADD SWAP3 SWAP1 SWAP2 ADD SWAP1 PUSH2 0x2E94 JUMP JUMPDEST PUSH2 0x2F22 SWAP1 PUSH1 0xF DUP9 ADD PUSH1 0x0 MSTORE PUSH1 0x20 PUSH1 0x0 KECCAK256 PUSH1 0x1F DUP6 ADD PUSH1 0x5 SHR DUP2 ADD SWAP2 PUSH1 0x20 DUP7 LT PUSH2 0x3F1 JUMPI PUSH1 0x1F ADD PUSH1 0x5 SHR ADD SWAP1 PUSH2 0x409E JUMP JUMPDEST DUP8 PUSH2 0x2C0A JUMP JUMPDEST ADD MLOAD SWAP1 POP DUP8 DUP1 PUSH2 0x2BC9 JUMP JUMPDEST SWAP3 POP PUSH1 0xE DUP8 ADD PUSH1 0x0 MSTORE PUSH1 0x20 PUSH1 0x0 KECCAK256 SWAP1 PUSH1 0x0 SWAP4 JUMPDEST PUSH1 0x1F NOT DUP5 AND DUP6 LT PUSH2 0x2F8A JUMPI PUSH1 0x1 SWAP5 POP DUP4 PUSH1 0x1F NOT DUP2 AND LT PUSH2 0x2F71 JUMPI JUMPDEST POP POP POP DUP2 SHL ADD PUSH1 0xE DUP6 ADD SSTORE PUSH2 0x2BE1 JUMP JUMPDEST ADD MLOAD PUSH1 0x0 NOT PUSH1 0xF8 DUP5 PUSH1 0x3 SHL AND SHR NOT AND SWAP1 SSTORE DUP8 DUP1 DUP1 PUSH2 0x2F61 JUMP JUMPDEST DUP2 DUP2 ADD MLOAD DUP4 SSTORE PUSH1 0x20 SWAP5 DUP6 ADD SWAP5 PUSH1 0x1 SWAP1 SWAP4 ADD SWAP3 SWAP1 SWAP2 ADD SWAP1 PUSH2 0x2F46 JUMP JUMPDEST PUSH2 0x2FD4 SWAP1 PUSH1 0xE DUP10 ADD PUSH1 0x0 MSTORE PUSH1 0x20 PUSH1 0x0 KECCAK256 PUSH1 0x1F DUP6 ADD PUSH1 0x5 SHR DUP2 ADD SWAP2 PUSH1 0x20 DUP7 LT PUSH2 0x3F1 JUMPI PUSH1 0x1F ADD PUSH1 0x5 SHR ADD SWAP1 PUSH2 0x409E JUMP JUMPDEST DUP9 PUSH2 0x2BB2 JUMP JUMPDEST ADD MLOAD SWAP1 POP DUP9 DUP1 PUSH2 0x2B71 JUMP JUMPDEST SWAP3 POP PUSH1 0xD DUP9 ADD PUSH1 0x0 MSTORE PUSH1 0x20 PUSH1 0x0 KECCAK256 SWAP1 PUSH1 0x0 SWAP4 JUMPDEST PUSH1 0x1F NOT DUP5 AND DUP6 LT PUSH2 0x303C JUMPI PUSH1 0x1 SWAP5 POP DUP4 PUSH1 0x1F NOT DUP2 AND LT PUSH2 0x3023 JUMPI JUMPDEST POP POP POP DUP2 SHL ADD PUSH1 0xD DUP7 ADD SSTORE PUSH2 0x2B89 JUMP JUMPDEST ADD MLOAD PUSH1 0x0 NOT PUSH1 0xF8 DUP5 PUSH1 0x3 SHL AND SHR NOT AND SWAP1 SSTORE DUP9 DUP1 DUP1 PUSH2 0x3013 JUMP JUMPDEST DUP2 DUP2 ADD MLOAD DUP4 SSTORE PUSH1 0x20 SWAP5 DUP6 ADD SWAP5 PUSH1 0x1 SWAP1 SWAP4 ADD SWAP3 SWAP1 SWAP2 ADD SWAP1 PUSH2 0x2FF8 JUMP JUMPDEST PUSH2 0x3086 SWAP1 PUSH1 0xD DUP11 ADD PUSH1 0x0 MSTORE PUSH1 0x20 PUSH1 0x0 KECCAK256 PUSH1 0x1F DUP6 ADD PUSH1 0x5 SHR DUP2 ADD SWAP2 PUSH1 0x20 DUP7 LT PUSH2 0x3F1 JUMPI PUSH1 0x1F ADD PUSH1 0x5 SHR ADD SWAP1 PUSH2 0x409E JUMP JUMPDEST DUP10 PUSH2 0x2B5A JUMP JUMPDEST ADD MLOAD SWAP1 POP DUP10 DUP1 PUSH2 0x2B11 JUMP JUMPDEST SWAP3 POP PUSH1 0xB DUP10 ADD PUSH1 0x0 MSTORE PUSH1 0x20 PUSH1 0x0 KECCAK256 SWAP1 PUSH1 0x0 SWAP4 JUMPDEST PUSH1 0x1F NOT DUP5 AND DUP6 LT PUSH2 0x30EE JUMPI PUSH1 0x1 SWAP5 POP DUP4 PUSH1 0x1F NOT DUP2 AND LT PUSH2 0x30D5 JUMPI JUMPDEST POP POP POP DUP2 SHL ADD PUSH1 0xB DUP8 ADD SSTORE PUSH2 0x2B29 JUMP JUMPDEST ADD MLOAD PUSH1 0x0 NOT PUSH1 0xF8 DUP5 PUSH1 0x3 SHL AND SHR NOT AND SWAP1 SSTORE DUP10 DUP1 DUP1 PUSH2 0x30C5 JUMP JUMPDEST DUP2 DUP2 ADD MLOAD DUP4 SSTORE PUSH1 0x20 SWAP5 DUP6 ADD SWAP5 PUSH1 0x1 SWAP1 SWAP4 ADD SWAP3 SWAP1 SWAP2 ADD SWAP1 PUSH2 0x30AA JUMP JUMPDEST PUSH2 0x3138 SWAP1 PUSH1 0xB DUP12 ADD PUSH1 0x0 MSTORE PUSH1 0x20 PUSH1 0x0 KECCAK256 PUSH1 0x1F DUP6 ADD PUSH1 0x5 SHR DUP2 ADD SWAP2 PUSH1 0x20 DUP7 LT PUSH2 0x3F1 JUMPI PUSH1 0x1F ADD PUSH1 0x5 SHR ADD SWAP1 PUSH2 0x409E JUMP JUMPDEST DUP11 PUSH2 0x2AFA JUMP JUMPDEST ADD MLOAD SWAP1 POP DUP11 DUP1 PUSH2 0x2AB9 JUMP JUMPDEST SWAP3 POP PUSH1 0xA DUP11 ADD PUSH1 0x0 MSTORE PUSH1 0x20 PUSH1 0x0 KECCAK256 SWAP1 PUSH1 0x0 SWAP4 JUMPDEST PUSH1 0x1F NOT DUP5 AND DUP6 LT PUSH2 0x31A0 JUMPI PUSH1 0x1 SWAP5 POP DUP4 PUSH1 0x1F NOT DUP2 AND LT PUSH2 0x3187 JUMPI JUMPDEST POP POP POP DUP2 SHL ADD PUSH1 0xA DUP9 ADD SSTORE PUSH2 0x2AD1 JUMP JUMPDEST ADD MLOAD PUSH1 0x0 NOT PUSH1 0xF8 DUP5 PUSH1 0x3 SHL AND SHR NOT AND SWAP1 SSTORE DUP11 DUP1 DUP1 PUSH2 0x3177 JUMP JUMPDEST DUP2 DUP2 ADD MLOAD DUP4 SSTORE PUSH1 0x20 SWAP5 DUP6 ADD SWAP5 PUSH1 0x1 SWAP1 SWAP4 ADD SWAP3 SWAP1 SWAP2 ADD SWAP1 PUSH2 0x315C JUMP JUMPDEST PUSH2 0x31EA SWAP1 PUSH1 0xA DUP13 ADD PUSH1 0x0 MSTORE PUSH1 0x20 PUSH1 0x0 KECCAK256 PUSH1 0x1F DUP6 ADD PUSH1 0x5 SHR DUP2 ADD SWAP2 PUSH1 0x20 DUP7 LT PUSH2 0x3F1 JUMPI PUSH1 0x1F ADD PUSH1 0x5 SHR ADD SWAP1 PUSH2 0x409E JUMP JUMPDEST DUP12 PUSH2 0x2AA2 JUMP JUMPDEST ADD MLOAD SWAP1 POP DUP12 DUP1 PUSH2 0x2A61 JUMP JUMPDEST SWAP3 POP PUSH1 0x9 DUP12 ADD PUSH1 0x0 MSTORE PUSH1 0x20 PUSH1 0x0 KECCAK256 SWAP1 PUSH1 0x0 SWAP4 JUMPDEST PUSH1 0x1F NOT DUP5 AND DUP6 LT PUSH2 0x3252 JUMPI PUSH1 0x1 SWAP5 POP DUP4 PUSH1 0x1F NOT DUP2 AND LT PUSH2 0x3239 JUMPI JUMPDEST POP POP POP DUP2 SHL ADD PUSH1 0x9 DUP10 ADD SSTORE PUSH2 0x2A79 JUMP JUMPDEST ADD MLOAD PUSH1 0x0 NOT PUSH1 0xF8 DUP5 PUSH1 0x3 SHL AND SHR NOT AND SWAP1 SSTORE DUP12 DUP1 DUP1 PUSH2 0x3229 JUMP JUMPDEST DUP2 DUP2 ADD MLOAD DUP4 SSTORE PUSH1 0x20 SWAP5 DUP6 ADD SWAP5 PUSH1 0x1 SWAP1 SWAP4 ADD SWAP3 SWAP1 SWAP2 ADD SWAP1 PUSH2 0x320E JUMP JUMPDEST PUSH2 0x329C SWAP1 PUSH1 0x9 DUP14 ADD PUSH1 0x0 MSTORE PUSH1 0x20 PUSH1 0x0 KECCAK256 PUSH1 0x1F DUP6 ADD PUSH1 0x5 SHR DUP2 ADD SWAP2 PUSH1 0x20 DUP7 LT PUSH2 0x3F1 JUMPI PUSH1 0x1F ADD PUSH1 0x5 SHR ADD SWAP1 PUSH2 0x409E JUMP JUMPDEST DUP13 PUSH2 0x2A4A JUMP JUMPDEST ADD MLOAD SWAP1 POP DUP13 DUP1 PUSH2 0x2A09 JUMP JUMPDEST SWAP3 POP PUSH1 0x8 DUP13 ADD PUSH1 0x0 MSTORE PUSH1 0x20 PUSH1 0x0 KECCAK256 SWAP1 PUSH1 0x0 SWAP4 JUMPDEST PUSH1 0x1F NOT DUP5 AND DUP6 LT PUSH2 0x3304 JUMPI PUSH1 0x1 SWAP5 POP DUP4 PUSH1 0x1F NOT DUP2 AND LT PUSH2 0x32EB JUMPI JUMPDEST POP POP POP DUP2 SHL ADD PUSH1 0x8 DUP11 ADD SSTORE PUSH2 0x2A21 JUMP JUMPDEST ADD MLOAD PUSH1 0x0 NOT PUSH1 0xF8 DUP5 PUSH1 0x3 SHL AND SHR NOT AND SWAP1 SSTORE DUP13 DUP1 DUP1 PUSH2 0x32DB JUMP JUMPDEST DUP2 DUP2 ADD MLOAD DUP4 SSTORE PUSH1 0x20 SWAP5 DUP6 ADD SWAP5 PUSH1 0x1 SWAP1 SWAP4 ADD SWAP3 SWAP1 SWAP2 ADD SWAP1 PUSH2 0x32C0 JUMP JUMPDEST PUSH1 0x8 PUSH2 0x334D SWAP3 ADD PUSH1 0x0 MSTORE PUSH1 0x20 PUSH1 0x0 KECCAK256 PUSH1 0x1F DUP6 ADD PUSH1 0x5 SHR DUP2 ADD SWAP2 PUSH1 0x20 DUP7 LT PUSH2 0x3F1 JUMPI PUSH1 0x1F ADD PUSH1 0x5 SHR ADD SWAP1 PUSH2 0x409E JUMP JUMPDEST DUP12 DUP15 PUSH2 0x29F1 JUMP JUMPDEST PUSH1 0x40 MLOAD PUSH3 0x461BCD PUSH1 0xE5 SHL DUP2 MSTORE PUSH1 0x20 PUSH1 0x4 DUP3 ADD MSTORE PUSH1 0x3C PUSH1 0x24 DUP3 ADD MSTORE PUSH32 0x4F6E6C792061646D696E206F72207468652075736572207468656D73656C7665 PUSH1 0x44 DUP3 ADD MSTORE PUSH32 0x732063616E2075706461746520636F6D70616E792064657461696C7300000000 PUSH1 0x64 DUP3 ADD MSTORE PUSH1 0x84 SWAP1 REVERT JUMPDEST POP CALLER PUSH1 0x1 PUSH1 0x1 PUSH1 0xA0 SHL SUB DUP10 AND EQ PUSH2 0x29A9 JUMP JUMPDEST POP CALLER PUSH1 0x0 MSTORE PUSH1 0x1 PUSH1 0x20 MSTORE PUSH2 0x438 PUSH2 0x33F5 PUSH1 0x4 PUSH1 0x40 PUSH1 0x0 KECCAK256 ADD PUSH1 0x40 MLOAD SWAP3 DUP4 DUP1 SWAP3 PUSH2 0x3F78 JUMP JUMPDEST PUSH1 0x20 DUP2 MLOAD SWAP2 ADD KECCAK256 PUSH2 0x3404 PUSH2 0x4031 JUMP JUMPDEST PUSH1 0x20 DUP2 MLOAD SWAP2 ADD KECCAK256 EQ PUSH2 0x29A2 JUMP JUMPDEST CALLVALUE PUSH2 0x11A JUMPI PUSH1 0x0 CALLDATASIZE PUSH1 0x3 NOT ADD SLT PUSH2 0x11A JUMPI PUSH1 0x40 MLOAD DUP1 PUSH1 0x3 SLOAD DUP1 DUP4 MSTORE PUSH1 0x20 DUP1 SWAP4 ADD DUP1 SWAP2 PUSH1 0x3 PUSH1 0x0 MSTORE PUSH32 0xC2575A0E9E593C00F959F8C92F12DB2869C3395A3B0502D05E2516446F71F85B SWAP1 PUSH1 0x0 JUMPDEST DUP7 DUP3 DUP3 LT PUSH2 0x34BC JUMPI DUP7 DUP7 PUSH2 0x3473 DUP3 DUP9 SUB DUP4 PUSH2 0x3E7A JUMP JUMPDEST PUSH1 0x40 MLOAD SWAP3 DUP4 SWAP3 DUP2 DUP5 ADD SWAP1 DUP3 DUP6 MSTORE MLOAD DUP1 SWAP2 MSTORE PUSH1 0x40 DUP5 ADD SWAP3 SWAP2 PUSH1 0x0 JUMPDEST DUP3 DUP2 LT PUSH2 0x349C JUMPI POP POP POP POP SUB SWAP1 RETURN JUMPDEST DUP4 MLOAD PUSH1 0x1 PUSH1 0x1 PUSH1 0xA0 SHL SUB AND DUP6 MSTORE DUP7 SWAP6 POP SWAP4 DUP2 ADD SWAP4 SWAP3 DUP2 ADD SWAP3 PUSH1 0x1 ADD PUSH2 0x348D JUMP JUMPDEST DUP4 SLOAD PUSH1 0x1 PUSH1 0x1 PUSH1 0xA0 SHL SUB AND DUP6 MSTORE SWAP1 SWAP4 ADD SWAP3 PUSH1 0x1 SWAP3 DUP4 ADD SWAP3 ADD PUSH2 0x345D JUMP JUMPDEST CALLVALUE PUSH2 0x11A JUMPI PUSH1 0x20 CALLDATASIZE PUSH1 0x3 NOT ADD SLT PUSH2 0x11A JUMPI PUSH1 0x1 PUSH1 0x1 PUSH1 0xA0 SHL SUB PUSH2 0x34FA PUSH2 0x3DE5 JUMP JUMPDEST AND PUSH1 0x0 MSTORE PUSH1 0x1 PUSH1 0x20 MSTORE PUSH1 0x20 PUSH2 0x438 PUSH2 0x351F PUSH1 0x4 PUSH1 0x40 PUSH1 0x0 KECCAK256 ADD PUSH1 0x40 MLOAD SWAP3 DUP4 DUP1 SWAP3 PUSH2 0x3F78 JUMP JUMPDEST DUP2 DUP2 MLOAD SWAP2 ADD KECCAK256 PUSH2 0x279D PUSH2 0x4031 JUMP JUMPDEST CALLVALUE PUSH2 0x11A JUMPI PUSH1 0x80 CALLDATASIZE PUSH1 0x3 NOT ADD SLT PUSH2 0x11A JUMPI PUSH2 0x3546 PUSH2 0x3DE5 JUMP JUMPDEST PUSH1 0x1 PUSH1 0x1 PUSH1 0x40 SHL SUB PUSH1 0x24 CALLDATALOAD DUP2 DUP2 GT PUSH2 0x11A JUMPI PUSH2 0x3566 SWAP1 CALLDATASIZE SWAP1 PUSH1 0x4 ADD PUSH2 0x3E9B JUMP JUMPDEST SWAP2 PUSH1 0x44 CALLDATALOAD DUP3 DUP2 GT PUSH2 0x11A JUMPI PUSH2 0x357F SWAP1 CALLDATASIZE SWAP1 PUSH1 0x4 ADD PUSH2 0x3E9B JUMP JUMPDEST SWAP1 PUSH1 0x64 CALLDATALOAD DUP4 DUP2 GT PUSH2 0x11A JUMPI PUSH2 0x3598 SWAP1 CALLDATASIZE SWAP1 PUSH1 0x4 ADD PUSH2 0x3E9B JUMP JUMPDEST PUSH1 0x1 DUP1 PUSH1 0xA0 SHL SUB DUP1 SWAP3 AND SWAP4 DUP5 PUSH1 0x0 MSTORE PUSH1 0x1 PUSH1 0x20 SWAP4 DUP2 DUP6 MSTORE PUSH2 0x35C0 PUSH2 0x274 PUSH1 0x40 PUSH1 0x0 KECCAK256 SLOAD PUSH2 0x3F3E JUMP JUMPDEST PUSH1 0x0 SLOAD AND CALLER EQ DUP1 ISZERO PUSH2 0x3A7C JUMPI JUMPDEST DUP1 ISZERO PUSH2 0x3A73 JUMPI JUMPDEST ISZERO PUSH2 0x3A08 JUMPI DUP6 PUSH1 0x0 MSTORE DUP1 DUP5 MSTORE PUSH2 0x438 PUSH2 0x35FA PUSH1 0x2 PUSH1 0x40 PUSH1 0x0 KECCAK256 ADD PUSH1 0x40 MLOAD SWAP3 DUP4 DUP1 SWAP3 PUSH2 0x3F78 JUMP JUMPDEST DUP7 DUP2 MLOAD DUP7 DUP1 DUP5 ADD SWAP2 DUP3 KECCAK256 SWAP4 DUP10 MLOAD DUP3 DUP12 ADD SWAP6 DUP2 DUP8 KECCAK256 SUB PUSH2 0x3925 JUMPI JUMPDEST POP POP POP POP SWAP1 POP PUSH1 0x0 MSTORE DUP1 DUP5 MSTORE DUP1 PUSH1 0x40 PUSH1 0x0 KECCAK256 ADD DUP8 MLOAD DUP4 DUP2 GT PUSH2 0x3FB JUMPI DUP1 PUSH2 0x363B DUP4 SLOAD PUSH2 0x3F3E JUMP JUMPDEST SWAP10 PUSH1 0x1F SWAP11 DUP12 DUP2 GT PUSH2 0x38F7 JUMPI JUMPDEST POP DUP8 SWAP1 DUP12 DUP4 GT PUSH1 0x1 EQ PUSH2 0x3894 JUMPI PUSH1 0x0 SWAP3 PUSH2 0x3889 JUMPI JUMPDEST POP POP PUSH1 0x0 NOT PUSH1 0x3 DUP4 SWAP1 SHL SHR NOT AND SWAP1 DUP4 SHL OR SWAP1 SSTORE JUMPDEST DUP6 PUSH1 0x0 MSTORE DUP1 DUP5 MSTORE PUSH1 0x2 PUSH1 0x40 PUSH1 0x0 KECCAK256 ADD DUP6 MLOAD DUP4 DUP2 GT PUSH2 0x3FB JUMPI PUSH2 0x3692 DUP3 SLOAD PUSH2 0x3F3E JUMP JUMPDEST DUP10 DUP2 GT PUSH2 0x385B JUMPI JUMPDEST POP DUP1 DUP7 DUP11 DUP3 GT PUSH1 0x1 EQ PUSH2 0x37F9 JUMPI PUSH1 0x0 SWAP2 PUSH2 0x37EE JUMPI JUMPDEST POP PUSH1 0x0 NOT PUSH1 0x3 DUP4 SWAP1 SHL SHR NOT AND SWAP1 DUP4 SHL OR SWAP1 SSTORE JUMPDEST DUP6 PUSH1 0x0 MSTORE DUP1 DUP5 MSTORE PUSH1 0x3 PUSH1 0x40 PUSH1 0x0 KECCAK256 ADD SWAP3 DUP1 MLOAD SWAP3 DUP4 GT PUSH2 0x3FB JUMPI PUSH2 0x36E5 DUP5 SLOAD PUSH2 0x3F3E JUMP JUMPDEST DUP9 DUP2 GT PUSH2 0x37B6 JUMPI JUMPDEST POP DUP5 SWAP8 DUP4 GT PUSH1 0x1 EQ PUSH2 0x3746 JUMPI DUP3 SWAP2 PUSH1 0x0 DUP1 MLOAD PUSH1 0x20 PUSH2 0x4197 DUP4 CODECOPY DUP2 MLOAD SWAP2 MSTORE SWAP8 SWAP9 DUP4 SWAP3 PUSH1 0x0 SWAP5 PUSH2 0x373B JUMPI JUMPDEST POP POP SHL SWAP2 PUSH1 0x0 NOT SWAP1 PUSH1 0x3 SHL SHR NOT AND OR SWAP1 SSTORE PUSH2 0x326 PUSH1 0x40 MLOAD SWAP3 DUP3 DUP5 SWAP4 DUP5 MSTORE DUP4 ADD SWAP1 PUSH2 0x3E1E JUMP JUMPDEST ADD MLOAD SWAP3 POP DUP10 DUP1 PUSH2 0x3716 JUMP JUMPDEST PUSH1 0x1F SWAP3 SWAP2 SWAP3 NOT DUP3 AND SWAP8 DUP5 PUSH1 0x0 MSTORE DUP6 PUSH1 0x0 KECCAK256 SWAP2 PUSH1 0x0 JUMPDEST DUP11 DUP2 LT PUSH2 0x37A1 JUMPI POP DUP4 PUSH1 0x0 DUP1 MLOAD PUSH1 0x20 PUSH2 0x4197 DUP4 CODECOPY DUP2 MLOAD SWAP2 MSTORE SWAP10 SWAP11 LT PUSH2 0x3788 JUMPI JUMPDEST POP POP POP DUP2 SHL ADD SWAP1 SSTORE PUSH2 0x2292 JUMP JUMPDEST ADD MLOAD PUSH1 0x0 NOT PUSH1 0xF8 DUP5 PUSH1 0x3 SHL AND SHR NOT AND SWAP1 SSTORE DUP8 DUP1 DUP1 PUSH2 0x377B JUMP JUMPDEST DUP2 DUP4 ADD MLOAD DUP5 SSTORE SWAP3 DUP6 ADD SWAP3 SWAP2 DUP8 ADD SWAP2 DUP8 ADD PUSH2 0x375B JUMP JUMPDEST PUSH2 0x37DF SWAP1 DUP6 PUSH1 0x0 MSTORE DUP7 PUSH1 0x0 KECCAK256 DUP11 DUP1 DUP8 ADD PUSH1 0x5 SHR DUP3 ADD SWAP3 DUP10 DUP9 LT PUSH2 0x37E5 JUMPI JUMPDEST ADD PUSH1 0x5 SHR ADD SWAP1 PUSH2 0x409E JUMP JUMPDEST DUP9 PUSH2 0x36ED JUMP JUMPDEST SWAP3 POP DUP2 SWAP3 PUSH2 0x37D4 JUMP JUMPDEST SWAP1 POP DUP8 ADD MLOAD DUP11 PUSH2 0x36AF JUMP JUMPDEST DUP5 SWAP3 POP PUSH1 0x1F NOT DUP3 AND SWAP1 DUP5 PUSH1 0x0 MSTORE DUP9 PUSH1 0x0 KECCAK256 SWAP2 PUSH1 0x0 JUMPDEST DUP11 DUP13 DUP4 DUP4 LT PUSH2 0x3846 JUMPI POP POP POP DUP4 GT PUSH2 0x382D JUMPI JUMPDEST POP POP DUP2 SHL ADD SWAP1 SSTORE PUSH2 0x36C2 JUMP JUMPDEST DUP10 ADD MLOAD PUSH1 0x0 NOT PUSH1 0xF8 DUP5 PUSH1 0x3 SHL AND SHR NOT AND SWAP1 SSTORE DUP11 DUP1 PUSH2 0x3821 JUMP JUMPDEST DUP5 ADD MLOAD DUP6 SSTORE DUP9 SWAP7 SWAP1 SWAP5 ADD SWAP4 SWAP3 DUP4 ADD SWAP3 ADD PUSH2 0x380E JUMP JUMPDEST PUSH2 0x3883 SWAP1 DUP4 PUSH1 0x0 MSTORE DUP8 PUSH1 0x0 KECCAK256 DUP12 DUP1 DUP6 ADD PUSH1 0x5 SHR DUP3 ADD SWAP3 DUP11 DUP7 LT PUSH2 0x37E5 JUMPI ADD PUSH1 0x5 SHR ADD SWAP1 PUSH2 0x409E JUMP JUMPDEST DUP10 PUSH2 0x369A JUMP JUMPDEST ADD MLOAD SWAP1 POP DUP11 DUP1 PUSH2 0x365C JUMP JUMPDEST SWAP1 DUP6 SWAP4 POP PUSH1 0x1F NOT DUP4 AND SWAP2 DUP6 PUSH1 0x0 MSTORE DUP10 PUSH1 0x0 KECCAK256 SWAP3 PUSH1 0x0 JUMPDEST DUP12 DUP3 DUP3 LT PUSH2 0x38E1 JUMPI POP POP DUP5 GT PUSH2 0x38C8 JUMPI JUMPDEST POP POP POP DUP2 SHL ADD SWAP1 SSTORE PUSH2 0x3670 JUMP JUMPDEST ADD MLOAD PUSH1 0x0 NOT PUSH1 0xF8 DUP5 PUSH1 0x3 SHL AND SHR NOT AND SWAP1 SSTORE DUP11 DUP1 DUP1 PUSH2 0x38BB JUMP JUMPDEST DUP4 DUP6 ADD MLOAD DUP7 SSTORE DUP10 SWAP8 SWAP1 SWAP6 ADD SWAP5 SWAP4 DUP5 ADD SWAP4 ADD PUSH2 0x38AA JUMP JUMPDEST PUSH2 0x391F SWAP1 DUP6 PUSH1 0x0 MSTORE DUP10 PUSH1 0x0 KECCAK256 DUP14 DUP1 DUP7 ADD PUSH1 0x5 SHR DUP3 ADD SWAP3 DUP13 DUP8 LT PUSH2 0x37E5 JUMPI ADD PUSH1 0x5 SHR ADD SWAP1 PUSH2 0x409E JUMP JUMPDEST DUP12 PUSH2 0x3647 JUMP JUMPDEST PUSH2 0x39EC SWAP4 PUSH2 0x39B9 SWAP3 PUSH2 0x3958 PUSH1 0xFF DUP5 DUP8 DUP12 DUP2 SWAP8 PUSH2 0x3946 PUSH1 0x40 MLOAD SWAP5 DUP6 DUP1 SWAP5 PUSH2 0x3DFB JUMP JUMPDEST DUP2 ADD PUSH1 0x4 DUP2 MSTORE SUB ADD SWAP1 KECCAK256 SLOAD AND ISZERO PUSH2 0x4052 JUMP JUMPDEST DUP13 DUP10 PUSH2 0x3997 DUP6 DUP12 PUSH1 0x40 MLOAD DUP3 DUP2 DUP9 MLOAD PUSH2 0x3971 DUP2 DUP4 DUP14 PUSH2 0x3DFB JUMP JUMPDEST DUP2 ADD PUSH1 0x4 DUP2 MSTORE SUB ADD SWAP1 KECCAK256 SWAP5 PUSH1 0xFF NOT SWAP6 DUP7 DUP2 SLOAD AND SWAP1 SSTORE PUSH1 0x40 MLOAD SWAP4 DUP5 SWAP3 DUP4 SWAP3 MLOAD SWAP3 DUP4 SWAP2 PUSH2 0x3DFB JUMP JUMPDEST DUP2 ADD PUSH1 0x4 DUP2 MSTORE SUB ADD SWAP1 KECCAK256 SWAP2 DUP3 SLOAD AND OR SWAP1 SSTORE PUSH1 0x40 MLOAD SWAP4 DUP5 SWAP3 DUP4 SWAP3 MLOAD SWAP3 DUP4 SWAP2 PUSH2 0x3DFB JUMP JUMPDEST DUP2 ADD PUSH1 0x2 DUP2 MSTORE SUB ADD SWAP1 KECCAK256 SWAP4 PUSH12 0xFFFFFFFFFFFFFFFFFFFFFFFF PUSH1 0xA0 SHL SWAP5 DUP6 DUP2 SLOAD AND SWAP1 SSTORE PUSH1 0x40 MLOAD DUP1 SWAP4 DUP2 SWAP3 DUP13 MLOAD SWAP3 DUP4 SWAP2 PUSH2 0x3DFB JUMP JUMPDEST DUP2 ADD PUSH1 0x2 DUP2 MSTORE SUB ADD SWAP1 KECCAK256 SWAP2 DUP3 SLOAD AND OR SWAP1 SSTORE DUP8 DUP7 DUP2 DUP7 DUP2 DUP1 PUSH2 0x3614 JUMP JUMPDEST PUSH1 0x40 MLOAD PUSH3 0x461BCD PUSH1 0xE5 SHL DUP2 MSTORE PUSH1 0x4 DUP2 ADD DUP6 SWAP1 MSTORE PUSH1 0x39 PUSH1 0x24 DUP3 ADD MSTORE PUSH32 0x4F6E6C792061646D696E206F72207468652075736572207468656D73656C7665 PUSH1 0x44 DUP3 ADD MSTORE PUSH32 0x732063616E2075706461746520757365722064657461696C7300000000000000 PUSH1 0x64 DUP3 ADD MSTORE PUSH1 0x84 SWAP1 REVERT JUMPDEST POP DUP6 CALLER EQ PUSH2 0x35D4 JUMP JUMPDEST POP CALLER PUSH1 0x0 MSTORE DUP1 DUP5 MSTORE PUSH2 0x438 PUSH2 0x3A9E PUSH1 0x4 PUSH1 0x40 PUSH1 0x0 KECCAK256 ADD PUSH1 0x40 MLOAD SWAP3 DUP4 DUP1 SWAP3 PUSH2 0x3F78 JUMP JUMPDEST DUP5 DUP2 MLOAD SWAP2 ADD KECCAK256 PUSH2 0x3AAC PUSH2 0x4031 JUMP JUMPDEST DUP6 DUP2 MLOAD SWAP2 ADD KECCAK256 EQ PUSH2 0x35CD JUMP JUMPDEST CALLVALUE PUSH2 0x11A JUMPI PUSH1 0x20 CALLDATASIZE PUSH1 0x3 NOT ADD SLT PUSH2 0x11A JUMPI PUSH1 0x1 PUSH1 0x1 PUSH1 0xA0 SHL SUB PUSH2 0x3AD9 PUSH2 0x3DE5 JUMP JUMPDEST AND PUSH1 0x0 MSTORE PUSH1 0x1 PUSH1 0x20 MSTORE PUSH1 0x40 PUSH1 0x0 KECCAK256 PUSH2 0x3AF0 DUP3 PUSH2 0x3E43 JUMP JUMPDEST PUSH1 0x40 MLOAD DUP1 PUSH2 0x3AFE DUP2 DUP5 PUSH2 0x3F78 JUMP JUMPDEST SUB PUSH2 0x3B09 SWAP1 DUP3 PUSH2 0x3E7A JUMP JUMPDEST DUP3 MSTORE PUSH1 0x40 MLOAD DUP1 PUSH2 0x3B1C DUP2 PUSH1 0x1 DUP6 ADD PUSH2 0x3F78 JUMP JUMPDEST SUB PUSH2 0x3B27 SWAP1 DUP3 PUSH2 0x3E7A JUMP JUMPDEST PUSH1 0x20 DUP4 ADD MSTORE PUSH1 0x40 MLOAD DUP1 PUSH2 0x3B3D DUP2 PUSH1 0x2 DUP6 ADD PUSH2 0x3F78 JUMP JUMPDEST SUB PUSH2 0x3B48 SWAP1 DUP3 PUSH2 0x3E7A JUMP JUMPDEST PUSH1 0x40 DUP4 ADD MSTORE PUSH1 0x40 MLOAD DUP1 DUP1 PUSH1 0x3 DUP5 ADD SWAP1 PUSH2 0x3B60 SWAP2 PUSH2 0x3F78 JUMP JUMPDEST SUB PUSH2 0x3B6B SWAP1 DUP3 PUSH2 0x3E7A JUMP JUMPDEST PUSH1 0x60 DUP4 ADD MSTORE PUSH1 0x40 MLOAD DUP1 PUSH2 0x3B81 DUP2 PUSH1 0x4 DUP6 ADD PUSH2 0x3F78 JUMP JUMPDEST SUB PUSH2 0x3B8C SWAP1 DUP3 PUSH2 0x3E7A JUMP JUMPDEST PUSH1 0x80 DUP4 ADD MSTORE PUSH1 0x5 DUP2 ADD SLOAD PUSH1 0xFF AND ISZERO ISZERO PUSH1 0xA0 DUP4 ADD MSTORE PUSH1 0x40 MLOAD DUP1 PUSH2 0x3BB1 DUP2 PUSH1 0x6 DUP6 ADD PUSH2 0x3F78 JUMP JUMPDEST SUB PUSH2 0x3BBC SWAP1 DUP3 PUSH2 0x3E7A JUMP JUMPDEST PUSH1 0xC0 DUP4 ADD MSTORE PUSH1 0x7 DUP2 ADD SLOAD PUSH1 0xE0 DUP4 ADD MSTORE PUSH1 0x40 MLOAD SWAP2 DUP3 PUSH2 0x3BDD DUP2 PUSH1 0x8 DUP6 ADD PUSH2 0x3F78 JUMP JUMPDEST SUB PUSH2 0x3BE8 SWAP1 DUP5 PUSH2 0x3E7A JUMP JUMPDEST PUSH2 0x100 DUP2 DUP2 ADD SWAP4 DUP5 MSTORE PUSH1 0x40 MLOAD DUP1 PUSH2 0x3C02 DUP2 PUSH1 0x9 DUP8 ADD PUSH2 0x3F78 JUMP JUMPDEST SUB PUSH2 0x3C0D SWAP1 DUP3 PUSH2 0x3E7A JUMP JUMPDEST PUSH2 0x120 SWAP2 DUP3 DUP5 ADD SWAP2 DUP3 MSTORE PUSH1 0x40 MLOAD SWAP5 DUP6 DUP1 PUSH1 0xA DUP4 ADD SWAP1 PUSH2 0x3C2B SWAP2 PUSH2 0x3F78 JUMP JUMPDEST SUB PUSH2 0x3C36 SWAP1 DUP8 PUSH2 0x3E7A JUMP JUMPDEST PUSH2 0x140 SWAP7 DUP8 SWAP7 DUP8 DUP8 ADD SWAP1 DUP2 MSTORE PUSH1 0x40 MLOAD DUP1 DUP1 PUSH1 0xB DUP7 ADD SWAP1 PUSH2 0x3C55 SWAP2 PUSH2 0x3F78 JUMP JUMPDEST SUB PUSH2 0x3C60 SWAP1 DUP3 PUSH2 0x3E7A JUMP JUMPDEST PUSH2 0x160 DUP9 ADD SWAP1 DUP2 MSTORE PUSH1 0xC DUP5 ADD SLOAD PUSH2 0x180 DUP10 ADD SWAP1 DUP2 MSTORE PUSH1 0x40 MLOAD SWAP2 DUP3 PUSH2 0x3C87 DUP2 PUSH1 0xD DUP10 ADD PUSH2 0x3F78 JUMP JUMPDEST SUB PUSH2 0x3C92 SWAP1 DUP5 PUSH2 0x3E7A JUMP JUMPDEST PUSH2 0x1A0 DUP11 ADD SWAP3 DUP4 MSTORE PUSH1 0x40 MLOAD SWAP4 DUP5 PUSH2 0x3CAC DUP2 PUSH1 0xE DUP11 ADD PUSH2 0x3F78 JUMP JUMPDEST SUB PUSH2 0x3CB7 SWAP1 DUP7 PUSH2 0x3E7A JUMP JUMPDEST PUSH2 0x1C0 DUP12 ADD SWAP5 DUP6 MSTORE PUSH1 0x40 MLOAD SWAP6 DUP7 PUSH2 0x3CD1 DUP2 PUSH1 0xF DUP12 ADD PUSH2 0x3F78 JUMP JUMPDEST SUB PUSH2 0x3CDC SWAP1 DUP9 PUSH2 0x3E7A JUMP JUMPDEST PUSH2 0x1E0 DUP13 ADD SWAP7 DUP8 MSTORE PUSH1 0x40 MLOAD SWAP8 DUP9 PUSH2 0x3CF6 DUP2 PUSH1 0x10 DUP5 ADD PUSH2 0x3F78 JUMP JUMPDEST SUB PUSH2 0x3D01 SWAP1 DUP11 PUSH2 0x3E7A JUMP JUMPDEST PUSH2 0x200 DUP14 ADD SWAP9 DUP10 MSTORE PUSH1 0x40 MLOAD SWAP13 DUP14 DUP1 PUSH1 0x11 DUP2 SWAP5 ADD SWAP1 PUSH2 0x3D1E SWAP2 PUSH2 0x3F78 JUMP JUMPDEST SUB PUSH2 0x3D29 SWAP1 DUP4 PUSH2 0x3E7A JUMP JUMPDEST PUSH2 0x220 ADD MSTORE MLOAD SWAP9 MLOAD SWAP1 MLOAD SWAP2 MLOAD SWAP3 MLOAD SWAP4 MLOAD SWAP5 MLOAD SWAP6 MLOAD SWAP7 MLOAD SWAP9 PUSH1 0x40 MLOAD SWAP14 DUP15 SWAP14 DUP15 MSTORE DUP14 ADD PUSH2 0x3D53 SWAP2 PUSH2 0x3E1E JUMP JUMPDEST DUP13 DUP2 SUB PUSH1 0x20 DUP15 ADD MSTORE PUSH2 0x3D64 SWAP2 PUSH2 0x3E1E JUMP JUMPDEST DUP12 DUP2 SUB PUSH1 0x40 DUP14 ADD MSTORE PUSH2 0x3D75 SWAP2 PUSH2 0x3E1E JUMP JUMPDEST DUP11 DUP2 SUB PUSH1 0x60 DUP13 ADD MSTORE PUSH2 0x3D86 SWAP2 PUSH2 0x3E1E JUMP JUMPDEST SWAP1 PUSH1 0x80 DUP11 ADD MSTORE DUP9 DUP2 SUB PUSH1 0xA0 DUP11 ADD MSTORE PUSH2 0x3D9D SWAP2 PUSH2 0x3E1E JUMP JUMPDEST DUP8 DUP2 SUB PUSH1 0xC0 DUP10 ADD MSTORE PUSH2 0x3DAE SWAP2 PUSH2 0x3E1E JUMP JUMPDEST DUP7 DUP2 SUB PUSH1 0xE0 DUP9 ADD MSTORE PUSH2 0x3DBF SWAP2 PUSH2 0x3E1E JUMP JUMPDEST SWAP1 DUP6 DUP3 SUB SWAP1 DUP7 ADD MSTORE PUSH2 0x3DD0 SWAP2 PUSH2 0x3E1E JUMP JUMPDEST SWAP1 DUP4 DUP3 SUB SWAP1 DUP5 ADD MSTORE PUSH2 0x3DE1 SWAP2 PUSH2 0x3E1E JUMP JUMPDEST SUB SWAP1 RETURN JUMPDEST PUSH1 0x4 CALLDATALOAD SWAP1 PUSH1 0x1 PUSH1 0x1 PUSH1 0xA0 SHL SUB DUP3 AND DUP3 SUB PUSH2 0x11A JUMPI JUMP JUMPDEST PUSH1 0x0 JUMPDEST DUP4 DUP2 LT PUSH2 0x3E0E JUMPI POP POP PUSH1 0x0 SWAP2 ADD MSTORE JUMP JUMPDEST DUP2 DUP2 ADD MLOAD DUP4 DUP3 ADD MSTORE PUSH1 0x20 ADD PUSH2 0x3DFE JUMP JUMPDEST SWAP1 PUSH1 0x20 SWAP2 PUSH2 0x3E37 DUP2 MLOAD DUP1 SWAP3 DUP2 DUP6 MSTORE DUP6 DUP1 DUP7 ADD SWAP2 ADD PUSH2 0x3DFB JUMP JUMPDEST PUSH1 0x1F ADD PUSH1 0x1F NOT AND ADD ADD SWAP1 JUMP JUMPDEST PUSH2 0x240 DUP2 ADD SWAP1 DUP2 LT PUSH1 0x1 PUSH1 0x1 PUSH1 0x40 SHL SUB DUP3 GT OR PUSH2 0x3FB JUMPI PUSH1 0x40 MSTORE JUMP JUMPDEST PUSH1 0x40 DUP2 ADD SWAP1 DUP2 LT PUSH1 0x1 PUSH1 0x1 PUSH1 0x40 SHL SUB DUP3 GT OR PUSH2 0x3FB JUMPI PUSH1 0x40 MSTORE JUMP JUMPDEST SWAP1 PUSH1 0x1F DUP1 NOT SWAP2 ADD AND DUP2 ADD SWAP1 DUP2 LT PUSH1 0x1 PUSH1 0x1 PUSH1 0x40 SHL SUB DUP3 GT OR PUSH2 0x3FB JUMPI PUSH1 0x40 MSTORE JUMP JUMPDEST DUP2 PUSH1 0x1F DUP3 ADD SLT ISZERO PUSH2 0x11A JUMPI DUP1 CALLDATALOAD SWAP1 PUSH1 0x1 PUSH1 0x1 PUSH1 0x40 SHL SUB DUP3 GT PUSH2 0x3FB JUMPI PUSH1 0x40 MLOAD SWAP3 PUSH2 0x3ECF PUSH1 0x1F DUP5 ADD PUSH1 0x1F NOT AND PUSH1 0x20 ADD DUP6 PUSH2 0x3E7A JUMP JUMPDEST DUP3 DUP5 MSTORE PUSH1 0x20 DUP4 DUP4 ADD ADD GT PUSH2 0x11A JUMPI DUP2 PUSH1 0x0 SWAP3 PUSH1 0x20 DUP1 SWAP4 ADD DUP4 DUP7 ADD CALLDATACOPY DUP4 ADD ADD MSTORE SWAP1 JUMP JUMPDEST PUSH1 0x3 SLOAD DUP2 LT ISZERO PUSH2 0x3F28 JUMPI PUSH1 0x3 PUSH1 0x0 MSTORE PUSH32 0xC2575A0E9E593C00F959F8C92F12DB2869C3395A3B0502D05E2516446F71F85B ADD SWAP1 PUSH1 0x0 SWAP1 JUMP JUMPDEST PUSH4 0x4E487B71 PUSH1 0xE0 SHL PUSH1 0x0 MSTORE PUSH1 0x32 PUSH1 0x4 MSTORE PUSH1 0x24 PUSH1 0x0 REVERT JUMPDEST SWAP1 PUSH1 0x1 DUP3 DUP2 SHR SWAP3 AND DUP1 ISZERO PUSH2 0x3F6E JUMPI JUMPDEST PUSH1 0x20 DUP4 LT EQ PUSH2 0x3F58 JUMPI JUMP JUMPDEST PUSH4 0x4E487B71 PUSH1 0xE0 SHL PUSH1 0x0 MSTORE PUSH1 0x22 PUSH1 0x4 MSTORE PUSH1 0x24 PUSH1 0x0 REVERT JUMPDEST SWAP2 PUSH1 0x7F AND SWAP2 PUSH2 0x3F4D JUMP JUMPDEST SWAP1 PUSH1 0x0 SWAP3 SWAP2 DUP1 SLOAD SWAP2 PUSH2 0x3F89 DUP4 PUSH2 0x3F3E JUMP JUMPDEST SWAP2 DUP3 DUP3 MSTORE PUSH1 0x1 SWAP4 DUP5 DUP2 AND SWAP1 DUP2 PUSH1 0x0 EQ PUSH2 0x3FEB JUMPI POP PUSH1 0x1 EQ PUSH2 0x3FAB JUMPI JUMPDEST POP POP POP POP JUMP JUMPDEST SWAP1 SWAP2 SWAP4 SWAP5 POP PUSH1 0x0 MSTORE PUSH1 0x20 SWAP3 DUP4 PUSH1 0x0 KECCAK256 SWAP3 DUP5 PUSH1 0x0 SWAP5 JUMPDEST DUP4 DUP7 LT PUSH2 0x3FD7 JUMPI POP POP POP POP ADD ADD SWAP1 CODESIZE DUP1 DUP1 DUP1 PUSH2 0x3FA5 JUMP JUMPDEST DUP1 SLOAD DUP6 DUP8 ADD DUP4 ADD MSTORE SWAP5 ADD SWAP4 DUP6 SWAP1 DUP3 ADD PUSH2 0x3FC0 JUMP JUMPDEST SWAP3 SWAP5 POP POP POP PUSH1 0x20 SWAP4 SWAP5 POP PUSH1 0xFF NOT AND DUP4 DUP4 ADD MSTORE ISZERO ISZERO PUSH1 0x5 SHL ADD ADD SWAP1 CODESIZE DUP1 DUP1 DUP1 PUSH2 0x3FA5 JUMP JUMPDEST PUSH1 0x40 MLOAD SWAP1 PUSH2 0x401B DUP3 PUSH2 0x3E5F JUMP JUMPDEST PUSH1 0x7 DUP3 MSTORE PUSH7 0x37B33334B1B2B9 PUSH1 0xC9 SHL PUSH1 0x20 DUP4 ADD MSTORE JUMP JUMPDEST PUSH1 0x40 MLOAD SWAP1 PUSH2 0x403E DUP3 PUSH2 0x3E5F JUMP JUMPDEST PUSH1 0x5 DUP3 MSTORE PUSH5 0x30B236B4B7 PUSH1 0xD9 SHL PUSH1 0x20 DUP4 ADD MSTORE JUMP JUMPDEST ISZERO PUSH2 0x4059 JUMPI JUMP JUMPDEST PUSH1 0x40 MLOAD PUSH3 0x461BCD PUSH1 0xE5 SHL DUP2 MSTORE PUSH1 0x20 PUSH1 0x4 DUP3 ADD MSTORE PUSH1 0x17 PUSH1 0x24 DUP3 ADD MSTORE PUSH32 0x557365726E616D6520616C726561647920657869737473000000000000000000 PUSH1 0x44 DUP3 ADD MSTORE PUSH1 0x64 SWAP1 REVERT JUMPDEST DUP2 DUP2 LT PUSH2 0x40A9 JUMPI POP POP JUMP JUMPDEST PUSH1 0x0 DUP2 SSTORE PUSH1 0x1 ADD PUSH2 0x409E JUMP JUMPDEST ISZERO PUSH2 0x40BC JUMPI JUMP JUMPDEST PUSH1 0x40 MLOAD PUSH3 0x461BCD PUSH1 0xE5 SHL DUP2 MSTORE PUSH1 0x20 PUSH1 0x4 DUP3 ADD MSTORE PUSH1 0x13 PUSH1 0x24 DUP3 ADD MSTORE PUSH19 0x155CD95C88191BD95CC81B9BDD08195E1A5CDD PUSH1 0x6A SHL PUSH1 0x44 DUP3 ADD MSTORE PUSH1 0x64 SWAP1 REVERT JUMPDEST ISZERO PUSH2 0x40FE JUMPI JUMP JUMPDEST PUSH1 0x40 MLOAD PUSH3 0x461BCD PUSH1 0xE5 SHL DUP2 MSTORE PUSH1 0x20 PUSH1 0x4 DUP3 ADD MSTORE PUSH1 0x21 PUSH1 0x24 DUP3 ADD MSTORE PUSH32 0x4F6E6C792061646D696E2063616E2063616C6C20746869732066756E6374696F PUSH1 0x44 DUP3 ADD MSTORE PUSH1 0x37 PUSH1 0xF9 SHL PUSH1 0x64 DUP3 ADD MSTORE PUSH1 0x84 SWAP1 REVERT JUMPDEST PUSH2 0x4157 DUP2 SLOAD PUSH2 0x3F3E JUMP JUMPDEST SWAP1 DUP2 PUSH2 0x4161 JUMPI POP POP JUMP JUMPDEST DUP2 PUSH1 0x1F PUSH1 0x0 SWAP4 GT PUSH1 0x1 EQ PUSH2 0x4173 JUMPI POP SSTORE JUMP JUMPDEST SWAP1 DUP1 DUP4 SWAP2 DUP3 MSTORE PUSH2 0x4192 PUSH1 0x1F PUSH1 0x20 DUP5 KECCAK256 SWAP5 ADD PUSH1 0x5 SHR DUP5 ADD PUSH1 0x1 DUP6 ADD PUSH2 0x409E JUMP JUMPDEST SSTORE SSTORE JUMP INVALID 0xD6 SGT PUSH16 0x3CAD7C60BFC24BBF1548F39F766CA8BC 0xE1 DIV 0xBF SWAP11 0xDD 0xE3 0xDE 0xB6 0x23 PUSH30 0xEC51DFA26469706673582212209FFB02ADDDA2E22BCC3C4180D33AC0D49C PUSH3 0xBB3B2B SWAP15 0xF EXTCODECOPY 0xDD 0xE7 SELFDESTRUCT 0xEC PUSH25 0xD4394064736F6C634300081300330000000000000000000000 "},"methodIdentifiers":{"admin()":"f851a440","getAllUserAddresses()":"2f330023","getCompanyDetails(address)":"0558d3e9","getUserByAddress(address)":"69c212f6","getUserByUsername(string)":"9f42af63","getUserCount()":"b5cb15f7","isAdmin(address)":"24d7806c","isOfficer(address)":"6816442d","isUser(address)":"4209fff1","registerUser(address,string,string,string,string,string,string,string,string,string,uint256,string,string,string,string,string)":"9d4d1342","removeUser(address)":"98575188","setUserApproval(address,bool,string)":"b979cc2f","transferAdmin(address)":"75829def","updateCompanyDetails(address,string,string,string,string,uint256,string,string,string,string,string)":"37a1bba2","updateUser(address,string,string,string)":"0da4578b","userAddresses(uint256)":"502c9bd5","usernameExists(string)":"f309e3f9","usernameToAddress(string)":"f825f143","users(address)":"a87430ba"}}}}}