{"contracts/Tender.sol":{"Tender":{"abi":[{"anonymous":false,"inputs":[{"indexed":true,"internalType":"uint256","name":"tenderId","type":"uint256"},{"indexed":true,"internalType":"address","name":"bidder","type":"address"},{"indexed":false,"internalType":"uint256","name":"amount","type":"uint256"}],"name":"BidPlaced","type":"event"},{"anonymous":false,"inputs":[{"indexed":true,"internalType":"uint256","name":"tenderId","type":"uint256"},{"indexed":true,"internalType":"address","name":"winner","type":"address"}],"name":"TenderAwarded","type":"event"},{"anonymous":false,"inputs":[{"indexed":true,"internalType":"uint256","name":"tenderId","type":"uint256"}],"name":"TenderCompleted","type":"event"},{"anonymous":false,"inputs":[{"indexed":true,"internalType":"uint256","name":"tenderId","type":"uint256"},{"indexed":true,"internalType":"address","name":"creator","type":"address"},{"indexed":false,"internalType":"string","name":"title","type":"string"},{"indexed":false,"internalType":"uint256","name":"budget","type":"uint256"}],"name":"TenderCreated","type":"event"},{"inputs":[{"internalType":"uint256","name":"_tenderId","type":"uint256"},{"internalType":"address","name":"_winner","type":"address"}],"name":"awardTender","outputs":[],"stateMutability":"nonpayable","type":"function"},{"inputs":[{"internalType":"uint256","name":"","type":"uint256"},{"internalType":"uint256","name":"","type":"uint256"}],"name":"bids","outputs":[{"internalType":"address","name":"bidder","type":"address"},{"internalType":"uint256","name":"amount","type":"uint256"},{"internalType":"string","name":"proposal","type":"string"}],"stateMutability":"view","type":"function"},{"inputs":[{"internalType":"uint256","name":"_tenderId","type":"uint256"}],"name":"completeTender","outputs":[],"stateMutability":"nonpayable","type":"function"},{"inputs":[{"internalType":"string","name":"_title","type":"string"},{"internalType":"string","name":"_description","type":"string"},{"internalType":"uint256","name":"_budget","type":"uint256"},{"internalType":"uint256","name":"_deadline","type":"uint256"}],"name":"createTender","outputs":[{"internalType":"uint256","name":"","type":"uint256"}],"stateMutability":"nonpayable","type":"function"},{"inputs":[{"internalType":"uint256","name":"_tenderId","type":"uint256"},{"internalType":"uint256","name":"_bidIndex","type":"uint256"}],"name":"getBid","outputs":[{"internalType":"address","name":"bidder","type":"address"},{"internalType":"uint256","name":"amount","type":"uint256"},{"internalType":"string","name":"proposal","type":"string"}],"stateMutability":"view","type":"function"},{"inputs":[{"internalType":"uint256","name":"_tenderId","type":"uint256"}],"name":"getBidsCount","outputs":[{"internalType":"uint256","name":"","type":"uint256"}],"stateMutability":"view","type":"function"},{"inputs":[{"internalType":"uint256","name":"_tenderId","type":"uint256"}],"name":"getTender","outputs":[{"internalType":"uint256","name":"id","type":"uint256"},{"internalType":"address","name":"creator","type":"address"},{"internalType":"string","name":"title","type":"string"},{"internalType":"string","name":"description","type":"string"},{"internalType":"uint256","name":"budget","type":"uint256"},{"internalType":"uint256","name":"deadline","type":"uint256"},{"internalType":"bool","name":"isActive","type":"bool"},{"internalType":"address","name":"winner","type":"address"},{"internalType":"bool","name":"completed","type":"bool"}],"stateMutability":"view","type":"function"},{"inputs":[{"internalType":"uint256","name":"_tenderId","type":"uint256"},{"internalType":"uint256","name":"_amount","type":"uint256"},{"internalType":"string","name":"_proposal","type":"string"}],"name":"placeBid","outputs":[],"stateMutability":"nonpayable","type":"function"},{"inputs":[],"name":"tenderCount","outputs":[{"internalType":"uint256","name":"","type":"uint256"}],"stateMutability":"view","type":"function"},{"inputs":[{"internalType":"uint256","name":"","type":"uint256"}],"name":"tenders","outputs":[{"internalType":"uint256","name":"id","type":"uint256"},{"internalType":"address","name":"creator","type":"address"},{"internalType":"string","name":"title","type":"string"},{"internalType":"string","name":"description","type":"string"},{"internalType":"uint256","name":"budget","type":"uint256"},{"internalType":"uint256","name":"deadline","type":"uint256"},{"internalType":"bool","name":"isActive","type":"bool"},{"internalType":"address","name":"winner","type":"address"},{"internalType":"bool","name":"completed","type":"bool"}],"stateMutability":"view","type":"function"}],"evm":{"bytecode":{"linkReferences":{},"object":"608080604052346100165761101d908161001c8239f35b600080fdfe6080604052600436101561001257600080fd5b60003560e01c80630585c25e14610bc15780631f05877614610ba35780634008f9c014610b6a57806344739b52146107b6578063465e1def1461073957806357577b8314610632578063582c7ffd146105a65780637b3c4baa14610548578063a941ca751461045a5763d927ee881461008a57600080fd5b346104555760803660031901126104555760043567ffffffffffffffff8111610455576100bb903690600401610d0e565b60243567ffffffffffffffff8111610455576100db903690600401610d0e565b426064351115610410576002549060001982146103fa576001820160025581600052600060205260406000209082825560018201336bffffffffffffffffffffffff60a01b825416179055835167ffffffffffffffff8111610325576101446002840154610d65565b601f81116103b3575b50806020601f82116001146103465760009161033b575b508160011b916000199060031b1c19161760028301555b805167ffffffffffffffff811161032557600383019061019b8254610d65565b601f81116102df575b509484916020968794601f8211600114610255577fcd5369f0f60e8f290627282c19ef53a610648f4fea79719dbde417d4d3afafe99495829160009261024a575b50508160011b916000199060031b1c19161790555b604435600485018190556064356005860155600694909401805460ff60ff60a81b0119166001179055604080518181529161023791830190610c49565b93868201528033940390a3604051908152f35b0151905038806101e5565b8260005288600020906000601f198416905b8181106102c55750968392916001947fcd5369f0f60e8f290627282c19ef53a610648f4fea79719dbde417d4d3afafe99899106102ac575b505050811b0190556101fa565b015160001960f88460031b161c1916905538808061029f565b828901518455978b01978a97506001909301928b01610267565b826000526020600020601f830160051c81016020841061031e575b601f90920160051c01905b81811061031257506101a4565b60008155600101610305565b50806102fa565b634e487b7160e01b600052604160045260246000fd5b905085015138610164565b91506002840160005260206000206000925b601f198316841061039b576001935082601f19811610610382575b5050811b01600283015561017b565b87015160001960f88460031b161c191690553880610373565b87810151825560209384019360019092019101610358565b600284016000526020600020601f830160051c8101602084106103f3575b601f830160051c820181106103e757505061014d565b600081556001016103d1565b50806103d1565b634e487b7160e01b600052601160045260246000fd5b60405162461bcd60e51b815260206004820152601e60248201527f446561646c696e65206d75737420626520696e207468652066757475726500006044820152606490fd5b600080fd5b34610455576040366003190112610455576024356001600160a01b038181169160043591838203610455576104b0906104966002548510610eb4565b836000526000602052600160406000200154163314610f3b565b8160005260006020526104cd60ff60066040600020015416610ef8565b8160005260006020526104ee60ff60066040600020015460a81c1615610f9b565b600082815260208190526040812060060180546001600160a81b03191660089390931b610100600160a81b0316929092179091557fd969df3c951de8da574eec871eb99b2b9d3960346486fde20dd12922ac1ba1df9080a3005b346104555761055636610e45565b90600052600160205260406000209081548110156104555761057791610e82565b5060018060a01b038154166105a2610596600260018501549401610d9f565b60405193849384610e5b565b0390f35b34610455576105b436610e45565b6105c16002548310610eb4565b8160005260016020526040600020548110156105ed576105779160005260016020526040600020610e82565b60405162461bcd60e51b815260206004820152601760248201527f42696420696e646578206f7574206f6620626f756e64730000000000000000006044820152606490fd5b346104555760208060031936011261045557600435906106556002548310610eb4565b816000526000815261067860018060a01b03600160406000200154163314610f3b565b816000526000815260ff600660406000200154166106f5576000908282528181526106b060ff600660408520015460a81c1615610f9b565b8282525260406000908120600601805460ff60a81b1916600160a81b1790557fa6a28ecaf31489fb7e6b0bd68865f10994dff8f80b59991d73f483d4684e935e9080a2005b6064906040519062461bcd60e51b82526004820152601c60248201527f54656e646572206d7573742062652061776172646564206669727374000000006044820152fd5b3461045557602036600319011261045557600435600052600060205260406000208054906105a260018060a01b03806001840154169261077b60028201610d9f565b9461078860038301610d9f565b916004810154600660058301549201549360405198899860ff808860a81c16988860081c169716958a610c89565b34610455576060366003190112610455576024803560043567ffffffffffffffff604435818111610455576107ef903690600401610d0e565b6107fc6002548410610eb4565b826000526020916000835261081b60ff60066040600020015416610ef8565b8360005260008352600560406000200154421015610b265783600052600083526004604060002001548511610ae2576000848152808452604090206001908101546001600160a01b039081163314610a8f5785600052818552604060002090604051916060830183811086821117610a7a576040523383528683019089825260408401968752805468010000000000000000811015610a65576108c2918682018155610e82565b929092610a505760029351166bffffffffffffffffffffffff60a01b8354161782555183820155019251968751928311610a3c57506109018354610d65565b601f81116109f3575b508396601f83116001146109705782917f0e54eff26401bf69b81b26f60bd85ef47f5d85275c1d268d84f68d6897431c479697988392600094610965575b50501b916000199060031b1c19161790555b6040519384523393a3005b015192508980610948565b601f9291921982169784600052856000209160005b8a81106109de5750837f0e54eff26401bf69b81b26f60bd85ef47f5d85275c1d268d84f68d6897431c4798999a106109c5575b505050811b01905561095a565b015160001960f88460031b161c191690558780806109b8565b81830151845592850192918701918701610985565b8360005284600020601f840160051c810191868510610a32575b601f0160051c019082905b828110610a2657505061090a565b60008155018290610a18565b9091508190610a0d565b634e487b7160e01b60009081526041600452fd5b8a634e487b7160e01b60005260006004526000fd5b8b634e487b7160e01b60005260416004526000fd5b8a634e487b7160e01b60005260416004526000fd5b60405162461bcd60e51b8152600481018690526026818a01527f43726561746f722063616e6e6f7420626964206f6e207468656972206f776e206044820152653a32b73232b960d11b6064820152608490fd5b60405162461bcd60e51b8152600481018490526019818801527f42696420616d6f756e74206578636565647320627564676574000000000000006044820152606490fd5b60405162461bcd60e51b815260048101849052601a818801527f54656e64657220646561646c696e6520686173207061737365640000000000006044820152606490fd5b3461045557602036600319011261045557600435610b8b6002548210610eb4565b60005260016020526020604060002054604051908152f35b34610455576000366003190112610455576020600254604051908152f35b3461045557602036600319011261045557600435610be26002548210610eb4565b6000526000602052604060002080546105a260018060a01b0380600185015416926004850154906005860154600687015492610c2c6003610c2560028b01610d9f565b9901610d9f565b60405198899860ff808860a81c16988860081c169716958a610c89565b919082519283825260005b848110610c75575050826000602080949584010152601f8019910116010190565b602081830181015184830182015201610c54565b9793610cbf6101009894610ccd939c9b9894979c8b5260018060a01b0380981660208c01526101208060408d01528b0190610c49565b9089820360608b0152610c49565b98608088015260a0870152151560c08601521660e08401521515910152565b90601f8019910116810190811067ffffffffffffffff82111761032557604052565b81601f820112156104555780359067ffffffffffffffff82116103255760405192610d43601f8401601f191660200185610cec565b8284526020838301011161045557816000926020809301838601378301015290565b90600182811c92168015610d95575b6020831014610d7f57565b634e487b7160e01b600052602260045260246000fd5b91607f1691610d74565b9060405191826000825492610db384610d65565b908184526001948581169081600014610e225750600114610ddf575b5050610ddd92500383610cec565b565b9093915060005260209081600020936000915b818310610e0a575050610ddd93508201013880610dcf565b85548884018501529485019487945091830191610df2565b915050610ddd94506020925060ff191682840152151560051b8201013880610dcf565b6040906003190112610455576004359060243590565b610e7f939260609260018060a01b0316825260208201528160408201520190610c49565b90565b8054821015610e9e576000526003602060002091020190600090565b634e487b7160e01b600052603260045260246000fd5b15610ebb57565b60405162461bcd60e51b815260206004820152601560248201527415195b99195c88191bd95cc81b9bdd08195e1a5cdd605a1b6044820152606490fd5b15610eff57565b60405162461bcd60e51b815260206004820152601460248201527354656e646572206973206e6f742061637469766560601b6044820152606490fd5b15610f4257565b60405162461bcd60e51b815260206004820152602b60248201527f4f6e6c792074656e6465722063726561746f722063616e20706572666f726d2060448201526a3a3434b99030b1ba34b7b760a91b6064820152608490fd5b15610fa257565b60405162461bcd60e51b815260206004820152601b60248201527f54656e64657220697320616c726561647920636f6d706c6574656400000000006044820152606490fdfea2646970667358221220043da3369145f5d7ddd9798bb1bd1c533189e15f9bf3234cfd021a446d8195d064736f6c63430008110033","opcodes":"PUSH1 0x80 DUP1 PUSH1 0x40 MSTORE CALLVALUE PUSH2 0x16 JUMPI PUSH2 0x101D SWAP1 DUP2 PUSH2 0x1C DUP3 CODECOPY RETURN JUMPDEST PUSH1 0x0 DUP1 REVERT INVALID PUSH1 0x80 PUSH1 0x40 MSTORE PUSH1 0x4 CALLDATASIZE LT ISZERO PUSH2 0x12 JUMPI PUSH1 0x0 DUP1 REVERT JUMPDEST PUSH1 0x0 CALLDATALOAD PUSH1 0xE0 SHR DUP1 PUSH4 0x585C25E EQ PUSH2 0xBC1 JUMPI DUP1 PUSH4 0x1F058776 EQ PUSH2 0xBA3 JUMPI DUP1 PUSH4 0x4008F9C0 EQ PUSH2 0xB6A JUMPI DUP1 PUSH4 0x44739B52 EQ PUSH2 0x7B6 JUMPI DUP1 PUSH4 0x465E1DEF EQ PUSH2 0x739 JUMPI DUP1 PUSH4 0x57577B83 EQ PUSH2 0x632 JUMPI DUP1 PUSH4 0x582C7FFD EQ PUSH2 0x5A6 JUMPI DUP1 PUSH4 0x7B3C4BAA EQ PUSH2 0x548 JUMPI DUP1 PUSH4 0xA941CA75 EQ PUSH2 0x45A JUMPI PUSH4 0xD927EE88 EQ PUSH2 0x8A JUMPI PUSH1 0x0 DUP1 REVERT JUMPDEST CALLVALUE PUSH2 0x455 JUMPI PUSH1 0x80 CALLDATASIZE PUSH1 0x3 NOT ADD SLT PUSH2 0x455 JUMPI PUSH1 0x4 CALLDATALOAD PUSH8 0xFFFFFFFFFFFFFFFF DUP2 GT PUSH2 0x455 JUMPI PUSH2 0xBB SWAP1 CALLDATASIZE SWAP1 PUSH1 0x4 ADD PUSH2 0xD0E JUMP JUMPDEST PUSH1 0x24 CALLDATALOAD PUSH8 0xFFFFFFFFFFFFFFFF DUP2 GT PUSH2 0x455 JUMPI PUSH2 0xDB SWAP1 CALLDATASIZE SWAP1 PUSH1 0x4 ADD PUSH2 0xD0E JUMP JUMPDEST TIMESTAMP PUSH1 0x64 CALLDATALOAD GT ISZERO PUSH2 0x410 JUMPI PUSH1 0x2 SLOAD SWAP1 PUSH1 0x0 NOT DUP3 EQ PUSH2 0x3FA JUMPI PUSH1 0x1 DUP3 ADD PUSH1 0x2 SSTORE DUP2 PUSH1 0x0 MSTORE PUSH1 0x0 PUSH1 0x20 MSTORE PUSH1 0x40 PUSH1 0x0 KECCAK256 SWAP1 DUP3 DUP3 SSTORE PUSH1 0x1 DUP3 ADD CALLER PUSH12 0xFFFFFFFFFFFFFFFFFFFFFFFF PUSH1 0xA0 SHL DUP3 SLOAD AND OR SWAP1 SSTORE DUP4 MLOAD PUSH8 0xFFFFFFFFFFFFFFFF DUP2 GT PUSH2 0x325 JUMPI PUSH2 0x144 PUSH1 0x2 DUP5 ADD SLOAD PUSH2 0xD65 JUMP JUMPDEST PUSH1 0x1F DUP2 GT PUSH2 0x3B3 JUMPI JUMPDEST POP DUP1 PUSH1 0x20 PUSH1 0x1F DUP3 GT PUSH1 0x1 EQ PUSH2 0x346 JUMPI PUSH1 0x0 SWAP2 PUSH2 0x33B JUMPI JUMPDEST POP DUP2 PUSH1 0x1 SHL SWAP2 PUSH1 0x0 NOT SWAP1 PUSH1 0x3 SHL SHR NOT AND OR PUSH1 0x2 DUP4 ADD SSTORE JUMPDEST DUP1 MLOAD PUSH8 0xFFFFFFFFFFFFFFFF DUP2 GT PUSH2 0x325 JUMPI PUSH1 0x3 DUP4 ADD SWAP1 PUSH2 0x19B DUP3 SLOAD PUSH2 0xD65 JUMP JUMPDEST PUSH1 0x1F DUP2 GT PUSH2 0x2DF JUMPI JUMPDEST POP SWAP5 DUP5 SWAP2 PUSH1 0x20 SWAP7 DUP8 SWAP5 PUSH1 0x1F DUP3 GT PUSH1 0x1 EQ PUSH2 0x255 JUMPI PUSH32 0xCD5369F0F60E8F290627282C19EF53A610648F4FEA79719DBDE417D4D3AFAFE9 SWAP5 SWAP6 DUP3 SWAP2 PUSH1 0x0 SWAP3 PUSH2 0x24A JUMPI JUMPDEST POP POP DUP2 PUSH1 0x1 SHL SWAP2 PUSH1 0x0 NOT SWAP1 PUSH1 0x3 SHL SHR NOT AND OR SWAP1 SSTORE JUMPDEST PUSH1 0x44 CALLDATALOAD PUSH1 0x4 DUP6 ADD DUP2 SWAP1 SSTORE PUSH1 0x64 CALLDATALOAD PUSH1 0x5 DUP7 ADD SSTORE PUSH1 0x6 SWAP5 SWAP1 SWAP5 ADD DUP1 SLOAD PUSH1 0xFF PUSH1 0xFF PUSH1 0xA8 SHL ADD NOT AND PUSH1 0x1 OR SWAP1 SSTORE PUSH1 0x40 DUP1 MLOAD DUP2 DUP2 MSTORE SWAP2 PUSH2 0x237 SWAP2 DUP4 ADD SWAP1 PUSH2 0xC49 JUMP JUMPDEST SWAP4 DUP7 DUP3 ADD MSTORE DUP1 CALLER SWAP5 SUB SWAP1 LOG3 PUSH1 0x40 MLOAD SWAP1 DUP2 MSTORE RETURN JUMPDEST ADD MLOAD SWAP1 POP CODESIZE DUP1 PUSH2 0x1E5 JUMP JUMPDEST DUP3 PUSH1 0x0 MSTORE DUP9 PUSH1 0x0 KECCAK256 SWAP1 PUSH1 0x0 PUSH1 0x1F NOT DUP5 AND SWAP1 JUMPDEST DUP2 DUP2 LT PUSH2 0x2C5 JUMPI POP SWAP7 DUP4 SWAP3 SWAP2 PUSH1 0x1 SWAP5 PUSH32 0xCD5369F0F60E8F290627282C19EF53A610648F4FEA79719DBDE417D4D3AFAFE9 SWAP9 SWAP10 LT PUSH2 0x2AC JUMPI JUMPDEST POP POP POP DUP2 SHL ADD SWAP1 SSTORE PUSH2 0x1FA JUMP JUMPDEST ADD MLOAD PUSH1 0x0 NOT PUSH1 0xF8 DUP5 PUSH1 0x3 SHL AND SHR NOT AND SWAP1 SSTORE CODESIZE DUP1 DUP1 PUSH2 0x29F JUMP JUMPDEST DUP3 DUP10 ADD MLOAD DUP5 SSTORE SWAP8 DUP12 ADD SWAP8 DUP11 SWAP8 POP PUSH1 0x1 SWAP1 SWAP4 ADD SWAP3 DUP12 ADD PUSH2 0x267 JUMP JUMPDEST DUP3 PUSH1 0x0 MSTORE PUSH1 0x20 PUSH1 0x0 KECCAK256 PUSH1 0x1F DUP4 ADD PUSH1 0x5 SHR DUP2 ADD PUSH1 0x20 DUP5 LT PUSH2 0x31E JUMPI JUMPDEST PUSH1 0x1F SWAP1 SWAP3 ADD PUSH1 0x5 SHR ADD SWAP1 JUMPDEST DUP2 DUP2 LT PUSH2 0x312 JUMPI POP PUSH2 0x1A4 JUMP JUMPDEST PUSH1 0x0 DUP2 SSTORE PUSH1 0x1 ADD PUSH2 0x305 JUMP JUMPDEST POP DUP1 PUSH2 0x2FA JUMP JUMPDEST PUSH4 0x4E487B71 PUSH1 0xE0 SHL PUSH1 0x0 MSTORE PUSH1 0x41 PUSH1 0x4 MSTORE PUSH1 0x24 PUSH1 0x0 REVERT JUMPDEST SWAP1 POP DUP6 ADD MLOAD CODESIZE PUSH2 0x164 JUMP JUMPDEST SWAP2 POP PUSH1 0x2 DUP5 ADD PUSH1 0x0 MSTORE PUSH1 0x20 PUSH1 0x0 KECCAK256 PUSH1 0x0 SWAP3 JUMPDEST PUSH1 0x1F NOT DUP4 AND DUP5 LT PUSH2 0x39B JUMPI PUSH1 0x1 SWAP4 POP DUP3 PUSH1 0x1F NOT DUP2 AND LT PUSH2 0x382 JUMPI JUMPDEST POP POP DUP2 SHL ADD PUSH1 0x2 DUP4 ADD SSTORE PUSH2 0x17B JUMP JUMPDEST DUP8 ADD MLOAD PUSH1 0x0 NOT PUSH1 0xF8 DUP5 PUSH1 0x3 SHL AND SHR NOT AND SWAP1 SSTORE CODESIZE DUP1 PUSH2 0x373 JUMP JUMPDEST DUP8 DUP2 ADD MLOAD DUP3 SSTORE PUSH1 0x20 SWAP4 DUP5 ADD SWAP4 PUSH1 0x1 SWAP1 SWAP3 ADD SWAP2 ADD PUSH2 0x358 JUMP JUMPDEST PUSH1 0x2 DUP5 ADD PUSH1 0x0 MSTORE PUSH1 0x20 PUSH1 0x0 KECCAK256 PUSH1 0x1F DUP4 ADD PUSH1 0x5 SHR DUP2 ADD PUSH1 0x20 DUP5 LT PUSH2 0x3F3 JUMPI JUMPDEST PUSH1 0x1F DUP4 ADD PUSH1 0x5 SHR DUP3 ADD DUP2 LT PUSH2 0x3E7 JUMPI POP POP PUSH2 0x14D JUMP JUMPDEST PUSH1 0x0 DUP2 SSTORE PUSH1 0x1 ADD PUSH2 0x3D1 JUMP JUMPDEST POP DUP1 PUSH2 0x3D1 JUMP JUMPDEST PUSH4 0x4E487B71 PUSH1 0xE0 SHL PUSH1 0x0 MSTORE PUSH1 0x11 PUSH1 0x4 MSTORE PUSH1 0x24 PUSH1 0x0 REVERT JUMPDEST PUSH1 0x40 MLOAD PUSH3 0x461BCD PUSH1 0xE5 SHL DUP2 MSTORE PUSH1 0x20 PUSH1 0x4 DUP3 ADD MSTORE PUSH1 0x1E PUSH1 0x24 DUP3 ADD MSTORE PUSH32 0x446561646C696E65206D75737420626520696E20746865206675747572650000 PUSH1 0x44 DUP3 ADD MSTORE PUSH1 0x64 SWAP1 REVERT JUMPDEST PUSH1 0x0 DUP1 REVERT JUMPDEST CALLVALUE PUSH2 0x455 JUMPI PUSH1 0x40 CALLDATASIZE PUSH1 0x3 NOT ADD SLT PUSH2 0x455 JUMPI PUSH1 0x24 CALLDATALOAD PUSH1 0x1 PUSH1 0x1 PUSH1 0xA0 SHL SUB DUP2 DUP2 AND SWAP2 PUSH1 0x4 CALLDATALOAD SWAP2 DUP4 DUP3 SUB PUSH2 0x455 JUMPI PUSH2 0x4B0 SWAP1 PUSH2 0x496 PUSH1 0x2 SLOAD DUP6 LT PUSH2 0xEB4 JUMP JUMPDEST DUP4 PUSH1 0x0 MSTORE PUSH1 0x0 PUSH1 0x20 MSTORE PUSH1 0x1 PUSH1 0x40 PUSH1 0x0 KECCAK256 ADD SLOAD AND CALLER EQ PUSH2 0xF3B JUMP JUMPDEST DUP2 PUSH1 0x0 MSTORE PUSH1 0x0 PUSH1 0x20 MSTORE PUSH2 0x4CD PUSH1 0xFF PUSH1 0x6 PUSH1 0x40 PUSH1 0x0 KECCAK256 ADD SLOAD AND PUSH2 0xEF8 JUMP JUMPDEST DUP2 PUSH1 0x0 MSTORE PUSH1 0x0 PUSH1 0x20 MSTORE PUSH2 0x4EE PUSH1 0xFF PUSH1 0x6 PUSH1 0x40 PUSH1 0x0 KECCAK256 ADD SLOAD PUSH1 0xA8 SHR AND ISZERO PUSH2 0xF9B JUMP JUMPDEST PUSH1 0x0 DUP3 DUP2 MSTORE PUSH1 0x20 DUP2 SWAP1 MSTORE PUSH1 0x40 DUP2 KECCAK256 PUSH1 0x6 ADD DUP1 SLOAD PUSH1 0x1 PUSH1 0x1 PUSH1 0xA8 SHL SUB NOT AND PUSH1 0x8 SWAP4 SWAP1 SWAP4 SHL PUSH2 0x100 PUSH1 0x1 PUSH1 0xA8 SHL SUB AND SWAP3 SWAP1 SWAP3 OR SWAP1 SWAP2 SSTORE PUSH32 0xD969DF3C951DE8DA574EEC871EB99B2B9D3960346486FDE20DD12922AC1BA1DF SWAP1 DUP1 LOG3 STOP JUMPDEST CALLVALUE PUSH2 0x455 JUMPI PUSH2 0x556 CALLDATASIZE PUSH2 0xE45 JUMP JUMPDEST SWAP1 PUSH1 0x0 MSTORE PUSH1 0x1 PUSH1 0x20 MSTORE PUSH1 0x40 PUSH1 0x0 KECCAK256 SWAP1 DUP2 SLOAD DUP2 LT ISZERO PUSH2 0x455 JUMPI PUSH2 0x577 SWAP2 PUSH2 0xE82 JUMP JUMPDEST POP PUSH1 0x1 DUP1 PUSH1 0xA0 SHL SUB DUP2 SLOAD AND PUSH2 0x5A2 PUSH2 0x596 PUSH1 0x2 PUSH1 0x1 DUP6 ADD SLOAD SWAP5 ADD PUSH2 0xD9F JUMP JUMPDEST PUSH1 0x40 MLOAD SWAP4 DUP5 SWAP4 DUP5 PUSH2 0xE5B JUMP JUMPDEST SUB SWAP1 RETURN JUMPDEST CALLVALUE PUSH2 0x455 JUMPI PUSH2 0x5B4 CALLDATASIZE PUSH2 0xE45 JUMP JUMPDEST PUSH2 0x5C1 PUSH1 0x2 SLOAD DUP4 LT PUSH2 0xEB4 JUMP JUMPDEST DUP2 PUSH1 0x0 MSTORE PUSH1 0x1 PUSH1 0x20 MSTORE PUSH1 0x40 PUSH1 0x0 KECCAK256 SLOAD DUP2 LT ISZERO PUSH2 0x5ED JUMPI PUSH2 0x577 SWAP2 PUSH1 0x0 MSTORE PUSH1 0x1 PUSH1 0x20 MSTORE PUSH1 0x40 PUSH1 0x0 KECCAK256 PUSH2 0xE82 JUMP JUMPDEST PUSH1 0x40 MLOAD PUSH3 0x461BCD PUSH1 0xE5 SHL DUP2 MSTORE PUSH1 0x20 PUSH1 0x4 DUP3 ADD MSTORE PUSH1 0x17 PUSH1 0x24 DUP3 ADD MSTORE PUSH32 0x42696420696E646578206F7574206F6620626F756E6473000000000000000000 PUSH1 0x44 DUP3 ADD MSTORE PUSH1 0x64 SWAP1 REVERT JUMPDEST CALLVALUE PUSH2 0x455 JUMPI PUSH1 0x20 DUP1 PUSH1 0x3 NOT CALLDATASIZE ADD SLT PUSH2 0x455 JUMPI PUSH1 0x4 CALLDATALOAD SWAP1 PUSH2 0x655 PUSH1 0x2 SLOAD DUP4 LT PUSH2 0xEB4 JUMP JUMPDEST DUP2 PUSH1 0x0 MSTORE PUSH1 0x0 DUP2 MSTORE PUSH2 0x678 PUSH1 0x1 DUP1 PUSH1 0xA0 SHL SUB PUSH1 0x1 PUSH1 0x40 PUSH1 0x0 KECCAK256 ADD SLOAD AND CALLER EQ PUSH2 0xF3B JUMP JUMPDEST DUP2 PUSH1 0x0 MSTORE PUSH1 0x0 DUP2 MSTORE PUSH1 0xFF PUSH1 0x6 PUSH1 0x40 PUSH1 0x0 KECCAK256 ADD SLOAD AND PUSH2 0x6F5 JUMPI PUSH1 0x0 SWAP1 DUP3 DUP3 MSTORE DUP2 DUP2 MSTORE PUSH2 0x6B0 PUSH1 0xFF PUSH1 0x6 PUSH1 0x40 DUP6 KECCAK256 ADD SLOAD PUSH1 0xA8 SHR AND ISZERO PUSH2 0xF9B JUMP JUMPDEST DUP3 DUP3 MSTORE MSTORE PUSH1 0x40 PUSH1 0x0 SWAP1 DUP2 KECCAK256 PUSH1 0x6 ADD DUP1 SLOAD PUSH1 0xFF PUSH1 0xA8 SHL NOT AND PUSH1 0x1 PUSH1 0xA8 SHL OR SWAP1 SSTORE PUSH32 0xA6A28ECAF31489FB7E6B0BD68865F10994DFF8F80B59991D73F483D4684E935E SWAP1 DUP1 LOG2 STOP JUMPDEST PUSH1 0x64 SWAP1 PUSH1 0x40 MLOAD SWAP1 PUSH3 0x461BCD PUSH1 0xE5 SHL DUP3 MSTORE PUSH1 0x4 DUP3 ADD MSTORE PUSH1 0x1C PUSH1 0x24 DUP3 ADD MSTORE PUSH32 0x54656E646572206D757374206265206177617264656420666972737400000000 PUSH1 0x44 DUP3 ADD MSTORE REVERT JUMPDEST CALLVALUE PUSH2 0x455 JUMPI PUSH1 0x20 CALLDATASIZE PUSH1 0x3 NOT ADD SLT PUSH2 0x455 JUMPI PUSH1 0x4 CALLDATALOAD PUSH1 0x0 MSTORE PUSH1 0x0 PUSH1 0x20 MSTORE PUSH1 0x40 PUSH1 0x0 KECCAK256 DUP1 SLOAD SWAP1 PUSH2 0x5A2 PUSH1 0x1 DUP1 PUSH1 0xA0 SHL SUB DUP1 PUSH1 0x1 DUP5 ADD SLOAD AND SWAP3 PUSH2 0x77B PUSH1 0x2 DUP3 ADD PUSH2 0xD9F JUMP JUMPDEST SWAP5 PUSH2 0x788 PUSH1 0x3 DUP4 ADD PUSH2 0xD9F JUMP JUMPDEST SWAP2 PUSH1 0x4 DUP2 ADD SLOAD PUSH1 0x6 PUSH1 0x5 DUP4 ADD SLOAD SWAP3 ADD SLOAD SWAP4 PUSH1 0x40 MLOAD SWAP9 DUP10 SWAP9 PUSH1 0xFF DUP1 DUP9 PUSH1 0xA8 SHR AND SWAP9 DUP9 PUSH1 0x8 SHR AND SWAP8 AND SWAP6 DUP11 PUSH2 0xC89 JUMP JUMPDEST CALLVALUE PUSH2 0x455 JUMPI PUSH1 0x60 CALLDATASIZE PUSH1 0x3 NOT ADD SLT PUSH2 0x455 JUMPI PUSH1 0x24 DUP1 CALLDATALOAD PUSH1 0x4 CALLDATALOAD PUSH8 0xFFFFFFFFFFFFFFFF PUSH1 0x44 CALLDATALOAD DUP2 DUP2 GT PUSH2 0x455 JUMPI PUSH2 0x7EF SWAP1 CALLDATASIZE SWAP1 PUSH1 0x4 ADD PUSH2 0xD0E JUMP JUMPDEST PUSH2 0x7FC PUSH1 0x2 SLOAD DUP5 LT PUSH2 0xEB4 JUMP JUMPDEST DUP3 PUSH1 0x0 MSTORE PUSH1 0x20 SWAP2 PUSH1 0x0 DUP4 MSTORE PUSH2 0x81B PUSH1 0xFF PUSH1 0x6 PUSH1 0x40 PUSH1 0x0 KECCAK256 ADD SLOAD AND PUSH2 0xEF8 JUMP JUMPDEST DUP4 PUSH1 0x0 MSTORE PUSH1 0x0 DUP4 MSTORE PUSH1 0x5 PUSH1 0x40 PUSH1 0x0 KECCAK256 ADD SLOAD TIMESTAMP LT ISZERO PUSH2 0xB26 JUMPI DUP4 PUSH1 0x0 MSTORE PUSH1 0x0 DUP4 MSTORE PUSH1 0x4 PUSH1 0x40 PUSH1 0x0 KECCAK256 ADD SLOAD DUP6 GT PUSH2 0xAE2 JUMPI PUSH1 0x0 DUP5 DUP2 MSTORE DUP1 DUP5 MSTORE PUSH1 0x40 SWAP1 KECCAK256 PUSH1 0x1 SWAP1 DUP2 ADD SLOAD PUSH1 0x1 PUSH1 0x1 PUSH1 0xA0 SHL SUB SWAP1 DUP2 AND CALLER EQ PUSH2 0xA8F JUMPI DUP6 PUSH1 0x0 MSTORE DUP2 DUP6 MSTORE PUSH1 0x40 PUSH1 0x0 KECCAK256 SWAP1 PUSH1 0x40 MLOAD SWAP2 PUSH1 0x60 DUP4 ADD DUP4 DUP2 LT DUP7 DUP3 GT OR PUSH2 0xA7A JUMPI PUSH1 0x40 MSTORE CALLER DUP4 MSTORE DUP7 DUP4 ADD SWAP1 DUP10 DUP3 MSTORE PUSH1 0x40 DUP5 ADD SWAP7 DUP8 MSTORE DUP1 SLOAD PUSH9 0x10000000000000000 DUP2 LT ISZERO PUSH2 0xA65 JUMPI PUSH2 0x8C2 SWAP2 DUP7 DUP3 ADD DUP2 SSTORE PUSH2 0xE82 JUMP JUMPDEST SWAP3 SWAP1 SWAP3 PUSH2 0xA50 JUMPI PUSH1 0x2 SWAP4 MLOAD AND PUSH12 0xFFFFFFFFFFFFFFFFFFFFFFFF PUSH1 0xA0 SHL DUP4 SLOAD AND OR DUP3 SSTORE MLOAD DUP4 DUP3 ADD SSTORE ADD SWAP3 MLOAD SWAP7 DUP8 MLOAD SWAP3 DUP4 GT PUSH2 0xA3C JUMPI POP PUSH2 0x901 DUP4 SLOAD PUSH2 0xD65 JUMP JUMPDEST PUSH1 0x1F DUP2 GT PUSH2 0x9F3 JUMPI JUMPDEST POP DUP4 SWAP7 PUSH1 0x1F DUP4 GT PUSH1 0x1 EQ PUSH2 0x970 JUMPI DUP3 SWAP2 PUSH32 0xE54EFF26401BF69B81B26F60BD85EF47F5D85275C1D268D84F68D6897431C47 SWAP7 SWAP8 SWAP9 DUP4 SWAP3 PUSH1 0x0 SWAP5 PUSH2 0x965 JUMPI JUMPDEST POP POP SHL SWAP2 PUSH1 0x0 NOT SWAP1 PUSH1 0x3 SHL SHR NOT AND OR SWAP1 SSTORE JUMPDEST PUSH1 0x40 MLOAD SWAP4 DUP5 MSTORE CALLER SWAP4 LOG3 STOP JUMPDEST ADD MLOAD SWAP3 POP DUP10 DUP1 PUSH2 0x948 JUMP JUMPDEST PUSH1 0x1F SWAP3 SWAP2 SWAP3 NOT DUP3 AND SWAP8 DUP5 PUSH1 0x0 MSTORE DUP6 PUSH1 0x0 KECCAK256 SWAP2 PUSH1 0x0 JUMPDEST DUP11 DUP2 LT PUSH2 0x9DE JUMPI POP DUP4 PUSH32 0xE54EFF26401BF69B81B26F60BD85EF47F5D85275C1D268D84F68D6897431C47 SWAP9 SWAP10 SWAP11 LT PUSH2 0x9C5 JUMPI JUMPDEST POP POP POP DUP2 SHL ADD SWAP1 SSTORE PUSH2 0x95A JUMP JUMPDEST ADD MLOAD PUSH1 0x0 NOT PUSH1 0xF8 DUP5 PUSH1 0x3 SHL AND SHR NOT AND SWAP1 SSTORE DUP8 DUP1 DUP1 PUSH2 0x9B8 JUMP JUMPDEST DUP2 DUP4 ADD MLOAD DUP5 SSTORE SWAP3 DUP6 ADD SWAP3 SWAP2 DUP8 ADD SWAP2 DUP8 ADD PUSH2 0x985 JUMP JUMPDEST DUP4 PUSH1 0x0 MSTORE DUP5 PUSH1 0x0 KECCAK256 PUSH1 0x1F DUP5 ADD PUSH1 0x5 SHR DUP2 ADD SWAP2 DUP7 DUP6 LT PUSH2 0xA32 JUMPI JUMPDEST PUSH1 0x1F ADD PUSH1 0x5 SHR ADD SWAP1 DUP3 SWAP1 JUMPDEST DUP3 DUP2 LT PUSH2 0xA26 JUMPI POP POP PUSH2 0x90A JUMP JUMPDEST PUSH1 0x0 DUP2 SSTORE ADD DUP3 SWAP1 PUSH2 0xA18 JUMP JUMPDEST SWAP1 SWAP2 POP DUP2 SWAP1 PUSH2 0xA0D JUMP JUMPDEST PUSH4 0x4E487B71 PUSH1 0xE0 SHL PUSH1 0x0 SWAP1 DUP2 MSTORE PUSH1 0x41 PUSH1 0x4 MSTORE REVERT JUMPDEST DUP11 PUSH4 0x4E487B71 PUSH1 0xE0 SHL PUSH1 0x0 MSTORE PUSH1 0x0 PUSH1 0x4 MSTORE PUSH1 0x0 REVERT JUMPDEST DUP12 PUSH4 0x4E487B71 PUSH1 0xE0 SHL PUSH1 0x0 MSTORE PUSH1 0x41 PUSH1 0x4 MSTORE PUSH1 0x0 REVERT JUMPDEST DUP11 PUSH4 0x4E487B71 PUSH1 0xE0 SHL PUSH1 0x0 MSTORE PUSH1 0x41 PUSH1 0x4 MSTORE PUSH1 0x0 REVERT JUMPDEST PUSH1 0x40 MLOAD PUSH3 0x461BCD PUSH1 0xE5 SHL DUP2 MSTORE PUSH1 0x4 DUP2 ADD DUP7 SWAP1 MSTORE PUSH1 0x26 DUP2 DUP11 ADD MSTORE PUSH32 0x43726561746F722063616E6E6F7420626964206F6E207468656972206F776E20 PUSH1 0x44 DUP3 ADD MSTORE PUSH6 0x3A32B73232B9 PUSH1 0xD1 SHL PUSH1 0x64 DUP3 ADD MSTORE PUSH1 0x84 SWAP1 REVERT JUMPDEST PUSH1 0x40 MLOAD PUSH3 0x461BCD PUSH1 0xE5 SHL DUP2 MSTORE PUSH1 0x4 DUP2 ADD DUP5 SWAP1 MSTORE PUSH1 0x19 DUP2 DUP9 ADD MSTORE PUSH32 0x42696420616D6F756E7420657863656564732062756467657400000000000000 PUSH1 0x44 DUP3 ADD MSTORE PUSH1 0x64 SWAP1 REVERT JUMPDEST PUSH1 0x40 MLOAD PUSH3 0x461BCD PUSH1 0xE5 SHL DUP2 MSTORE PUSH1 0x4 DUP2 ADD DUP5 SWAP1 MSTORE PUSH1 0x1A DUP2 DUP9 ADD MSTORE PUSH32 0x54656E64657220646561646C696E652068617320706173736564000000000000 PUSH1 0x44 DUP3 ADD MSTORE PUSH1 0x64 SWAP1 REVERT JUMPDEST CALLVALUE PUSH2 0x455 JUMPI PUSH1 0x20 CALLDATASIZE PUSH1 0x3 NOT ADD SLT PUSH2 0x455 JUMPI PUSH1 0x4 CALLDATALOAD PUSH2 0xB8B PUSH1 0x2 SLOAD DUP3 LT PUSH2 0xEB4 JUMP JUMPDEST PUSH1 0x0 MSTORE PUSH1 0x1 PUSH1 0x20 MSTORE PUSH1 0x20 PUSH1 0x40 PUSH1 0x0 KECCAK256 SLOAD PUSH1 0x40 MLOAD SWAP1 DUP2 MSTORE RETURN JUMPDEST CALLVALUE PUSH2 0x455 JUMPI PUSH1 0x0 CALLDATASIZE PUSH1 0x3 NOT ADD SLT PUSH2 0x455 JUMPI PUSH1 0x20 PUSH1 0x2 SLOAD PUSH1 0x40 MLOAD SWAP1 DUP2 MSTORE RETURN JUMPDEST CALLVALUE PUSH2 0x455 JUMPI PUSH1 0x20 CALLDATASIZE PUSH1 0x3 NOT ADD SLT PUSH2 0x455 JUMPI PUSH1 0x4 CALLDATALOAD PUSH2 0xBE2 PUSH1 0x2 SLOAD DUP3 LT PUSH2 0xEB4 JUMP JUMPDEST PUSH1 0x0 MSTORE PUSH1 0x0 PUSH1 0x20 MSTORE PUSH1 0x40 PUSH1 0x0 KECCAK256 DUP1 SLOAD PUSH2 0x5A2 PUSH1 0x1 DUP1 PUSH1 0xA0 SHL SUB DUP1 PUSH1 0x1 DUP6 ADD SLOAD AND SWAP3 PUSH1 0x4 DUP6 ADD SLOAD SWAP1 PUSH1 0x5 DUP7 ADD SLOAD PUSH1 0x6 DUP8 ADD SLOAD SWAP3 PUSH2 0xC2C PUSH1 0x3 PUSH2 0xC25 PUSH1 0x2 DUP12 ADD PUSH2 0xD9F JUMP JUMPDEST SWAP10 ADD PUSH2 0xD9F JUMP JUMPDEST PUSH1 0x40 MLOAD SWAP9 DUP10 SWAP9 PUSH1 0xFF DUP1 DUP9 PUSH1 0xA8 SHR AND SWAP9 DUP9 PUSH1 0x8 SHR AND SWAP8 AND SWAP6 DUP11 PUSH2 0xC89 JUMP JUMPDEST SWAP2 SWAP1 DUP3 MLOAD SWAP3 DUP4 DUP3 MSTORE PUSH1 0x0 JUMPDEST DUP5 DUP2 LT PUSH2 0xC75 JUMPI POP POP DUP3 PUSH1 0x0 PUSH1 0x20 DUP1 SWAP5 SWAP6 DUP5 ADD ADD MSTORE PUSH1 0x1F DUP1 NOT SWAP2 ADD AND ADD ADD SWAP1 JUMP JUMPDEST PUSH1 0x20 DUP2 DUP4 ADD DUP2 ADD MLOAD DUP5 DUP4 ADD DUP3 ADD MSTORE ADD PUSH2 0xC54 JUMP JUMPDEST SWAP8 SWAP4 PUSH2 0xCBF PUSH2 0x100 SWAP9 SWAP5 PUSH2 0xCCD SWAP4 SWAP13 SWAP12 SWAP9 SWAP5 SWAP8 SWAP13 DUP12 MSTORE PUSH1 0x1 DUP1 PUSH1 0xA0 SHL SUB DUP1 SWAP9 AND PUSH1 0x20 DUP13 ADD MSTORE PUSH2 0x120 DUP1 PUSH1 0x40 DUP14 ADD MSTORE DUP12 ADD SWAP1 PUSH2 0xC49 JUMP JUMPDEST SWAP1 DUP10 DUP3 SUB PUSH1 0x60 DUP12 ADD MSTORE PUSH2 0xC49 JUMP JUMPDEST SWAP9 PUSH1 0x80 DUP9 ADD MSTORE PUSH1 0xA0 DUP8 ADD MSTORE ISZERO ISZERO PUSH1 0xC0 DUP7 ADD MSTORE AND PUSH1 0xE0 DUP5 ADD MSTORE ISZERO ISZERO SWAP2 ADD MSTORE JUMP JUMPDEST SWAP1 PUSH1 0x1F DUP1 NOT SWAP2 ADD AND DUP2 ADD SWAP1 DUP2 LT PUSH8 0xFFFFFFFFFFFFFFFF DUP3 GT OR PUSH2 0x325 JUMPI PUSH1 0x40 MSTORE JUMP JUMPDEST DUP2 PUSH1 0x1F DUP3 ADD SLT ISZERO PUSH2 0x455 JUMPI DUP1 CALLDATALOAD SWAP1 PUSH8 0xFFFFFFFFFFFFFFFF DUP3 GT PUSH2 0x325 JUMPI PUSH1 0x40 MLOAD SWAP3 PUSH2 0xD43 PUSH1 0x1F DUP5 ADD PUSH1 0x1F NOT AND PUSH1 0x20 ADD DUP6 PUSH2 0xCEC JUMP JUMPDEST DUP3 DUP5 MSTORE PUSH1 0x20 DUP4 DUP4 ADD ADD GT PUSH2 0x455 JUMPI DUP2 PUSH1 0x0 SWAP3 PUSH1 0x20 DUP1 SWAP4 ADD DUP4 DUP7 ADD CALLDATACOPY DUP4 ADD ADD MSTORE SWAP1 JUMP JUMPDEST SWAP1 PUSH1 0x1 DUP3 DUP2 SHR SWAP3 AND DUP1 ISZERO PUSH2 0xD95 JUMPI JUMPDEST PUSH1 0x20 DUP4 LT EQ PUSH2 0xD7F JUMPI JUMP JUMPDEST PUSH4 0x4E487B71 PUSH1 0xE0 SHL PUSH1 0x0 MSTORE PUSH1 0x22 PUSH1 0x4 MSTORE PUSH1 0x24 PUSH1 0x0 REVERT JUMPDEST SWAP2 PUSH1 0x7F AND SWAP2 PUSH2 0xD74 JUMP JUMPDEST SWAP1 PUSH1 0x40 MLOAD SWAP2 DUP3 PUSH1 0x0 DUP3 SLOAD SWAP3 PUSH2 0xDB3 DUP5 PUSH2 0xD65 JUMP JUMPDEST SWAP1 DUP2 DUP5 MSTORE PUSH1 0x1 SWAP5 DUP6 DUP2 AND SWAP1 DUP2 PUSH1 0x0 EQ PUSH2 0xE22 JUMPI POP PUSH1 0x1 EQ PUSH2 0xDDF JUMPI JUMPDEST POP POP PUSH2 0xDDD SWAP3 POP SUB DUP4 PUSH2 0xCEC JUMP JUMPDEST JUMP JUMPDEST SWAP1 SWAP4 SWAP2 POP PUSH1 0x0 MSTORE PUSH1 0x20 SWAP1 DUP2 PUSH1 0x0 KECCAK256 SWAP4 PUSH1 0x0 SWAP2 JUMPDEST DUP2 DUP4 LT PUSH2 0xE0A JUMPI POP POP PUSH2 0xDDD SWAP4 POP DUP3 ADD ADD CODESIZE DUP1 PUSH2 0xDCF JUMP JUMPDEST DUP6 SLOAD DUP9 DUP5 ADD DUP6 ADD MSTORE SWAP5 DUP6 ADD SWAP5 DUP8 SWAP5 POP SWAP2 DUP4 ADD SWAP2 PUSH2 0xDF2 JUMP JUMPDEST SWAP2 POP POP PUSH2 0xDDD SWAP5 POP PUSH1 0x20 SWAP3 POP PUSH1 0xFF NOT AND DUP3 DUP5 ADD MSTORE ISZERO ISZERO PUSH1 0x5 SHL DUP3 ADD ADD CODESIZE DUP1 PUSH2 0xDCF JUMP JUMPDEST PUSH1 0x40 SWAP1 PUSH1 0x3 NOT ADD SLT PUSH2 0x455 JUMPI PUSH1 0x4 CALLDATALOAD SWAP1 PUSH1 0x24 CALLDATALOAD SWAP1 JUMP JUMPDEST PUSH2 0xE7F SWAP4 SWAP3 PUSH1 0x60 SWAP3 PUSH1 0x1 DUP1 PUSH1 0xA0 SHL SUB AND DUP3 MSTORE PUSH1 0x20 DUP3 ADD MSTORE DUP2 PUSH1 0x40 DUP3 ADD MSTORE ADD SWAP1 PUSH2 0xC49 JUMP JUMPDEST SWAP1 JUMP JUMPDEST DUP1 SLOAD DUP3 LT ISZERO PUSH2 0xE9E JUMPI PUSH1 0x0 MSTORE PUSH1 0x3 PUSH1 0x20 PUSH1 0x0 KECCAK256 SWAP2 MUL ADD SWAP1 PUSH1 0x0 SWAP1 JUMP JUMPDEST PUSH4 0x4E487B71 PUSH1 0xE0 SHL PUSH1 0x0 MSTORE PUSH1 0x32 PUSH1 0x4 MSTORE PUSH1 0x24 PUSH1 0x0 REVERT JUMPDEST ISZERO PUSH2 0xEBB JUMPI JUMP JUMPDEST PUSH1 0x40 MLOAD PUSH3 0x461BCD PUSH1 0xE5 SHL DUP2 MSTORE PUSH1 0x20 PUSH1 0x4 DUP3 ADD MSTORE PUSH1 0x15 PUSH1 0x24 DUP3 ADD MSTORE PUSH21 0x15195B99195C88191BD95CC81B9BDD08195E1A5CDD PUSH1 0x5A SHL PUSH1 0x44 DUP3 ADD MSTORE PUSH1 0x64 SWAP1 REVERT JUMPDEST ISZERO PUSH2 0xEFF JUMPI JUMP JUMPDEST PUSH1 0x40 MLOAD PUSH3 0x461BCD PUSH1 0xE5 SHL DUP2 MSTORE PUSH1 0x20 PUSH1 0x4 DUP3 ADD MSTORE PUSH1 0x14 PUSH1 0x24 DUP3 ADD MSTORE PUSH20 0x54656E646572206973206E6F7420616374697665 PUSH1 0x60 SHL PUSH1 0x44 DUP3 ADD MSTORE PUSH1 0x64 SWAP1 REVERT JUMPDEST ISZERO PUSH2 0xF42 JUMPI JUMP JUMPDEST PUSH1 0x40 MLOAD PUSH3 0x461BCD PUSH1 0xE5 SHL DUP2 MSTORE PUSH1 0x20 PUSH1 0x4 DUP3 ADD MSTORE PUSH1 0x2B PUSH1 0x24 DUP3 ADD MSTORE PUSH32 0x4F6E6C792074656E6465722063726561746F722063616E20706572666F726D20 PUSH1 0x44 DUP3 ADD MSTORE PUSH11 0x3A3434B99030B1BA34B7B7 PUSH1 0xA9 SHL PUSH1 0x64 DUP3 ADD MSTORE PUSH1 0x84 SWAP1 REVERT JUMPDEST ISZERO PUSH2 0xFA2 JUMPI JUMP JUMPDEST PUSH1 0x40 MLOAD PUSH3 0x461BCD PUSH1 0xE5 SHL DUP2 MSTORE PUSH1 0x20 PUSH1 0x4 DUP3 ADD MSTORE PUSH1 0x1B PUSH1 0x24 DUP3 ADD MSTORE PUSH32 0x54656E64657220697320616C726561647920636F6D706C657465640000000000 PUSH1 0x44 DUP3 ADD MSTORE PUSH1 0x64 SWAP1 REVERT INVALID LOG2 PUSH5 0x6970667358 0x22 SLT KECCAK256 DIV RETURNDATASIZE LOG3 CALLDATASIZE SWAP2 GASLIMIT CREATE2 0xD7 0xDD 0xD9 PUSH26 0x8BB1BD1C533189E15F9BF3234CFD021A446D8195D064736F6C63 NUMBER STOP ADDMOD GT STOP CALLER "},"methodIdentifiers":{"awardTender(uint256,address)":"a941ca75","bids(uint256,uint256)":"7b3c4baa","completeTender(uint256)":"57577b83","createTender(string,string,uint256,uint256)":"d927ee88","getBid(uint256,uint256)":"582c7ffd","getBidsCount(uint256)":"4008f9c0","getTender(uint256)":"0585c25e","placeBid(uint256,uint256,string)":"44739b52","tenderCount()":"1f058776","tenders(uint256)":"465e1def"}}}}}