{"contracts/TenderManager.sol":{"TenderManager":{"abi":[{"inputs":[],"stateMutability":"nonpayable","type":"constructor"},{"anonymous":false,"inputs":[{"indexed":true,"internalType":"address","name":"admin","type":"address"},{"indexed":true,"internalType":"address","name":"addedBy","type":"address"}],"name":"AdminAdded","type":"event"},{"anonymous":false,"inputs":[{"indexed":true,"internalType":"address","name":"admin","type":"address"},{"indexed":true,"internalType":"address","name":"removedBy","type":"address"}],"name":"AdminRemoved","type":"event"},{"anonymous":false,"inputs":[{"indexed":true,"internalType":"uint256","name":"tenderId","type":"uint256"},{"indexed":true,"internalType":"uint256","name":"bidId","type":"uint256"},{"indexed":false,"internalType":"uint8","name":"status","type":"uint8"}],"name":"BidStatusUpdated","type":"event"},{"anonymous":false,"inputs":[{"indexed":true,"internalType":"uint256","name":"tenderId","type":"uint256"},{"indexed":true,"internalType":"uint256","name":"bidId","type":"uint256"},{"indexed":true,"internalType":"address","name":"bidder","type":"address"},{"indexed":false,"internalType":"uint256","name":"amount","type":"uint256"},{"indexed":false,"internalType":"string","name":"proposal","type":"string"}],"name":"BidSubmitted","type":"event"},{"anonymous":false,"inputs":[{"indexed":true,"internalType":"uint256","name":"tenderId","type":"uint256"},{"indexed":true,"internalType":"address","name":"owner","type":"address"}],"name":"TenderCancelled","type":"event"},{"anonymous":false,"inputs":[{"indexed":true,"internalType":"uint256","name":"tenderId","type":"uint256"},{"indexed":true,"internalType":"uint256","name":"winningBidId","type":"uint256"},{"indexed":true,"internalType":"address","name":"winner","type":"address"}],"name":"TenderClosed","type":"event"},{"anonymous":false,"inputs":[{"indexed":true,"internalType":"uint256","name":"tenderId","type":"uint256"},{"indexed":true,"internalType":"address","name":"owner","type":"address"},{"indexed":false,"internalType":"string","name":"title","type":"string"},{"indexed":false,"internalType":"uint256","name":"deadline","type":"uint256"},{"indexed":false,"internalType":"bool","name":"isPrivate","type":"bool"},{"indexed":false,"internalType":"bytes32","name":"documentHash","type":"bytes32"}],"name":"TenderCreated","type":"event"},{"anonymous":false,"inputs":[{"indexed":true,"internalType":"uint256","name":"tenderId","type":"uint256"},{"indexed":true,"internalType":"address","name":"admin","type":"address"}],"name":"TenderDeleted","type":"event"},{"anonymous":false,"inputs":[{"indexed":true,"internalType":"uint256","name":"tenderId","type":"uint256"},{"indexed":true,"internalType":"address","name":"vendor","type":"address"},{"indexed":true,"internalType":"address","name":"approvedBy","type":"address"}],"name":"VendorApproved","type":"event"},{"anonymous":false,"inputs":[{"indexed":true,"internalType":"uint256","name":"tenderId","type":"uint256"},{"indexed":true,"internalType":"address","name":"vendor","type":"address"},{"indexed":true,"internalType":"address","name":"revokedBy","type":"address"}],"name":"VendorRevoked","type":"event"},{"anonymous":false,"inputs":[{"indexed":true,"internalType":"address","name":"vendor","type":"address"},{"indexed":false,"internalType":"uint256","name":"timestamp","type":"uint256"}],"name":"VendorVerified","type":"event"},{"inputs":[{"internalType":"address","name":"_admin","type":"address"}],"name":"addAdmin","outputs":[],"stateMutability":"nonpayable","type":"function"},{"inputs":[{"internalType":"uint256","name":"_tenderId","type":"uint256"},{"internalType":"address","name":"_vendor","type":"address"}],"name":"approveVendor","outputs":[],"stateMutability":"nonpayable","type":"function"},{"inputs":[{"internalType":"uint256","name":"","type":"uint256"},{"internalType":"uint256","name":"","type":"uint256"}],"name":"bidStatuses","outputs":[{"internalType":"enum TenderManager.BidStatus","name":"","type":"uint8"}],"stateMutability":"view","type":"function"},{"inputs":[{"internalType":"uint256","name":"_tenderId","type":"uint256"},{"internalType":"address[]","name":"_vendors","type":"address[]"}],"name":"bulkApproveVendors","outputs":[],"stateMutability":"nonpayable","type":"function"},{"inputs":[{"internalType":"uint256","name":"_tenderId","type":"uint256"}],"name":"cancelTender","outputs":[],"stateMutability":"nonpayable","type":"function"},{"inputs":[{"internalType":"uint256","name":"_tenderId","type":"uint256"},{"internalType":"uint256","name":"_winningBidId","type":"uint256"}],"name":"closeTender","outputs":[],"stateMutability":"nonpayable","type":"function"},{"inputs":[{"internalType":"string","name":"_title","type":"string"},{"internalType":"string","name":"_description","type":"string"},{"internalType":"uint256","name":"_deadline","type":"uint256"},{"internalType":"uint256","name":"_minBid","type":"uint256"},{"internalType":"bytes32","name":"_documentHash","type":"bytes32"},{"internalType":"bool","name":"_isPrivate","type":"bool"},{"internalType":"address[]","name":"_allowedBidders","type":"address[]"}],"name":"createTender","outputs":[{"internalType":"uint256","name":"","type":"uint256"}],"stateMutability":"nonpayable","type":"function"},{"inputs":[{"internalType":"uint256","name":"_tenderId","type":"uint256"}],"name":"deleteTender","outputs":[],"stateMutability":"nonpayable","type":"function"},{"inputs":[{"internalType":"uint256","name":"_offset","type":"uint256"},{"internalType":"uint256","name":"_limit","type":"uint256"}],"name":"getAllTenders","outputs":[{"internalType":"uint256[]","name":"ids","type":"uint256[]"},{"internalType":"string[]","name":"titles","type":"string[]"},{"internalType":"address[]","name":"owners","type":"address[]"},{"internalType":"enum TenderManager.TenderStatus[]","name":"statuses","type":"uint8[]"},{"internalType":"uint256[]","name":"deadlines","type":"uint256[]"},{"internalType":"uint256[]","name":"minBids","type":"uint256[]"},{"internalType":"uint256[]","name":"totalBids","type":"uint256[]"}],"stateMutability":"view","type":"function"},{"inputs":[{"internalType":"uint256","name":"_tenderId","type":"uint256"}],"name":"getApprovedVendors","outputs":[{"internalType":"address[]","name":"","type":"address[]"}],"stateMutability":"view","type":"function"},{"inputs":[{"internalType":"uint256","name":"_tenderId","type":"uint256"},{"internalType":"uint256","name":"_bidId","type":"uint256"}],"name":"getBidStatus","outputs":[{"internalType":"uint8","name":"","type":"uint8"}],"stateMutability":"view","type":"function"},{"inputs":[{"internalType":"uint256","name":"_tenderId","type":"uint256"}],"name":"getTender","outputs":[{"internalType":"string","name":"title","type":"string"},{"internalType":"string","name":"description","type":"string"},{"internalType":"uint256","name":"deadline","type":"uint256"},{"internalType":"uint256","name":"minBid","type":"uint256"},{"internalType":"address","name":"ownerAddress","type":"address"},{"internalType":"enum TenderManager.TenderStatus","name":"status","type":"uint8"},{"internalType":"uint256","name":"winningBidId","type":"uint256"},{"internalType":"uint256","name":"createdAt","type":"uint256"},{"internalType":"bytes32","name":"documentHash","type":"bytes32"},{"internalType":"bool","name":"isPrivate","type":"bool"},{"internalType":"uint256","name":"totalBids","type":"uint256"}],"stateMutability":"view","type":"function"},{"inputs":[{"internalType":"uint256","name":"_tenderId","type":"uint256"},{"internalType":"uint256","name":"_offset","type":"uint256"},{"internalType":"uint256","name":"_limit","type":"uint256"}],"name":"getTenderBids","outputs":[{"internalType":"uint256[]","name":"ids","type":"uint256[]"},{"internalType":"address[]","name":"bidders","type":"address[]"},{"internalType":"uint256[]","name":"amounts","type":"uint256[]"},{"internalType":"uint256[]","name":"timestamps","type":"uint256[]"},{"internalType":"string[]","name":"proposals","type":"string[]"}],"stateMutability":"view","type":"function"},{"inputs":[{"internalType":"uint256","name":"_tenderId","type":"uint256"}],"name":"getTenderBidsCount","outputs":[{"internalType":"uint256","name":"","type":"uint256"}],"stateMutability":"view","type":"function"},{"inputs":[],"name":"getTenderCount","outputs":[{"internalType":"uint256","name":"","type":"uint256"}],"stateMutability":"view","type":"function"},{"inputs":[{"internalType":"address","name":"_admin","type":"address"}],"name":"removeAdmin","outputs":[],"stateMutability":"nonpayable","type":"function"},{"inputs":[{"internalType":"uint256","name":"_tenderId","type":"uint256"},{"internalType":"address","name":"_vendor","type":"address"}],"name":"revokeVendor","outputs":[],"stateMutability":"nonpayable","type":"function"},{"inputs":[{"internalType":"address","name":"_vendor","type":"address"}],"name":"revokeVendor","outputs":[],"stateMutability":"nonpayable","type":"function"},{"inputs":[{"internalType":"uint256","name":"_tenderId","type":"uint256"},{"internalType":"uint256","name":"_amount","type":"uint256"},{"internalType":"string","name":"_proposal","type":"string"}],"name":"submitBid","outputs":[],"stateMutability":"nonpayable","type":"function"},{"inputs":[{"internalType":"address","name":"_vendor","type":"address"}],"name":"verifyVendor","outputs":[],"stateMutability":"nonpayable","type":"function"}],"evm":{"bytecode":{"linkReferences":{},"object":"60808060405234610038576000805560006001553360005260076020526040600020600160ff19825416179055612aca908161003e8239f35b600080fdfe6080604052600436101561001257600080fd5b60003560e01c806302dc6ea6146121925780630585c25e1461209c57806314c60bdd14611b255780631785f53c14611a105780633a74e0701461190257806348b610991461166d5780634f778658146115515780635850b3831461153357806361461112146114fa57806364bdf013146113615780636b4023f4146112715780636cb6081d146110dd5780637048027514610fc457806373b82c3c14610f85578063a686f23914610d60578063ac21a2bb14610b00578063b2693af114610ac1578063c789e605146109f1578063d8bdfeb9146101b35763fe47c584146100f857600080fd5b346101ae576020806003193601126101ae5760043561011a60005482106126bd565b806000526002825261013660ff600960406000200154166128cc565b60005260028152600a60406000200190604051808383829554938481520190600052836000209260005b8582821061018f5750505061017792500383612471565b61018b6040519282849384528301906125cd565b0390f35b85546001600160a01b0316845260019586019588955093019201610160565b600080fd5b346101ae5760e03660031901126101ae576004356001600160401b0381116101ae576101e3903690600401612492565b6024356001600160401b0381116101ae57610202903690600401612492565b9060a43580151581036101ae5760c4356001600160401b0381116101ae5761022e90369060040161252b565b918051156109b45783511561096f57604491428335111561092b5762015180610258428535612701565b106108e7576276a70061026c428535612701565b1161089857606480351561084a57816106f4575b6000549461028d8661270e565b60005582156106cd57905b6040519661018088018881106001600160401b03821117610548576040528688528460208901526040880152843560608801523560808701523360a0870152600060c0870152600060e0870152426101008701526084356101208701528115156101408701526101608601528360005260026020526040600020948051865560208101518051906001600160401b03821161054857819061033c60018a0154612779565b601f8111610698575b50602090601f83116001146106265760009261061b575b50508160011b916000199060031b1c19161760018701555b60408101518051906001600160401b03821161054857819061039960028a0154612779565b601f81116105db575b50602090601f83116001146105695760009261055e575b50508160011b916000199060031b1c19161760028701555b6060810151600387015560808101516004870155610160600a600588019760018060a01b03988960a08601511681549060c087015161040f81612451565b61041881612451565b60ff60a01b9060a01b16916affffffffffffffffffffff60a81b161717905560e084015160068201556101008401516007820155610120840151600882015560098101610140850151151560ff8019835416911617905501910151908151916001600160401b03831161054857600160401b831161054857602090825484845580851061052b575b500190600052602060002060005b8381106105155760208888817f5ab909ec11bdab9532c0b336851ae13ac1fcc22d8d97402bb827f904a92bafd58a8a6104f260405192608084526080840190612411565b9435878301521515604082015260843560608201528033940390a3604051908152f35b60019060208a85511694019381840155016104ae565b6105429084600052858460002091820191016127b3565b896104a0565b634e487b7160e01b600052604160045260246000fd5b0151905088806103b9565b9250600289016000526020600020906000935b601f19841685106105c0576001945083601f198116106105a7575b505050811b0160028701556103d1565b015160001960f88460031b161c19169055888080610597565b8181015183556020948501946001909301929091019061057c565b61060b9060028b016000526020600020601f850160051c81019160208610610611575b601f0160051c01906127b3565b896103a2565b90915081906105fe565b01519050888061035c565b9250600189016000526020600020906000935b601f198416851061067d576001945083601f19811610610664575b505050811b016001870155610374565b015160001960f88460031b161c19169055888080610654565b81810151835560209485019460019093019290910190610639565b6106c79060018b016000526020600020601f850160051c8101916020861061061157601f0160051c01906127b3565b89610345565b50604051602081018181106001600160401b03821117610548576040526000815290610298565b9293918295919551156107f65760148351116107b35760005b83518110156107a7576001600160a01b03610728828661271d565b511660005260206005815260ff6040600020541615610750575061074b9061270e565b61070d565b6084906b666965642076656e646f727360a01b877f416c6c20616c6c6f7765642062696464657273206d75737420626520766572698a6040519462461bcd60e51b86526004860152602c6024860152840152820152fd5b50919392949094610280565b60405162461bcd60e51b815260206004820152601860248201527f546f6f206d616e7920616c6c6f77656420626964646572730000000000000000818701528490fd5b60405162461bcd60e51b815260206004820152602860248201527f507269766174652074656e646572206d757374206861766520616c6c6f7765648187015267206269646465727360c01b81860152608490fd5b8361020360f41b6084927f4d696e696d756d20626964206d7573742062652067726561746572207468616e6040519362461bcd60e51b85526020600486015260226024860152840152820152fd5b60405162461bcd60e51b815260206004820152602260248201527f4d6178696d756d2074656e646572206475726174696f6e2069732039302064618185015261797360f01b6064820152608490fd5b60405162461bcd60e51b815260206004820181905260248201527f4d696e696d756d2074656e646572206475726174696f6e20697320312064617981850152606490fd5b60405162461bcd60e51b815260206004820152601e60248201527f446561646c696e65206d75737420626520696e2074686520667574757265000081850152606490fd5b60405162461bcd60e51b815260206004820152601b60248201527f4465736372697074696f6e2063616e6e6f7420626520656d70747900000000006044820152606490fd5b60405162461bcd60e51b81526020600482015260156024820152745469746c652063616e6e6f7420626520656d70747960581b6044820152606490fd5b346101ae576020806003193601126101ae57610a0b6124e8565b3360005260078252610a2460ff60406000205416612666565b6001600160a01b0316600081815260058352604090205490919060ff1615610a87577f2ca953176aa01b668d419905dc4e16224fcfb9d4c49e1324e6dcb797d5d1f90d908260005260058152604060002060ff19815416905560405160008152a2005b6064906040519062461bcd60e51b82526004820152601360248201527215995b991bdc881b9bdd081d995c9a599a5959606a1b6044820152fd5b346101ae57610acf366123fb565b906000526008602052604060002090600052602052602060ff6040600020541660405190610afc81612451565b8152f35b346101ae5760403660031901126101ae57600435610b1c6124fe565b610b2960005483106126bd565b8160005260206002815260018060a01b0390816005604060002001541633148015610d49575b15610cf6578360009392935260028152610b7360ff600960406000200154166128cc565b8360005260028152600a604060002001926000938160009416935b815480821015610ceb57839086610ba5848661295c565b939054600394851b1c1614610bc4575050610bbf9061270e565b610b8e565b959650939491929160001991828201918211610cd557610bf984610beb610c1d948861295c565b905490891b1c16918661295c565b90919082549060031b9160018060a01b039283811b93849216901b16911916179055565b82548015610cbf570192610c31848461295c565b81939154921b1b191690555560015b15610c6f575033917fb4f7ddae4323f1ba582d7972c8789c0dc5a4a71cbd2687e1c3337413c8e6e109600080a4005b6084906040519062461bcd60e51b82526004820152602360248201527f56656e646f72206e6f7420617070726f76656420666f7220746869732074656e6044820152623232b960e91b6064820152fd5b634e487b7160e01b600052603160045260246000fd5b634e487b7160e01b600052601160045260246000fd5b505050509091610c40565b6084906040519062461bcd60e51b82526004820152602660248201527f4f6e6c79206f776e6572206f722061646d696e2063616e207265766f6b652076604482015265656e646f727360d01b6064820152fd5b50336000526007815260ff60406000205416610b4f565b346101ae57610d6e366123fb565b90610d798282612a3d565b600054809111610f71575b50610d8e82612747565b90610d9883612a4a565b92610da281612747565b93610dac82612514565b610db96040519182612471565b828152610dc583612514565b6020828101979091601f1901368937610ddd85612747565b93610de786612747565b95610df181612747565b9760005b828110610eaf5750505082939291610e2c610e3a92610e1f6040519b60e08d5260e08d0190612599565b908b8203868d015261260a565b9089820360408b01526125cd565b918783036060890152519182815201969160005b828110610e8d57878061018b89610e7f8a610e718f8c8782036080890152612599565b9085820360a0870152612599565b9083820360c0850152612599565b9091929782806001928b51610ea181612451565b815201990193929101610e4e565b80610ebd610f6c9284612a3d565b806000526002885260048d604060002090610eda8583549261271d565b52610ee760018201612999565b610ef1858a61271d565b52610efc848961271d565b50600581015460ff906001600160a01b038116610f19878d61271d565b5260a01c16610f28858d61271d565b610f3182612451565b526003810154610f41858e61271d565b520154610f4e838d61271d565b5260005260048752604060002054610f66828d61271d565b5261270e565b610df5565b81925090610f7e91612701565b9082610d84565b346101ae57610f93366123fb565b906000526008602052604060002090600052602052602060ff60406000205416610fbc81612451565b604051908152f35b346101ae576020806003193601126101ae57610fde6124e8565b3360005260078252610ff760ff60406000205416612666565b6001600160a01b03169081156110a157816000526007815260ff6040600020541661105d5760079082600052526040600020600160ff1982541617905533907fbf3f493c772c8c283fd124432c2d0f539ab343faa04258fe88e52912d36b102b600080a3005b6064906040519062461bcd60e51b82526004820152601b60248201527f4164647265737320697320616c726561647920616e2061646d696e00000000006044820152fd5b6064906040519062461bcd60e51b825260048201526015602482015274496e76616c69642061646d696e206164647265737360581b6044820152fd5b346101ae5760603660031901126101ae57600435602435906044359161110660005483106126bd565b8160005260209160048352604060002054806111228685612a3d565b1161125d575b5061113284612747565b9261113c85612747565b61114586612747565b9561114f81612747565b9361115982612a4a565b9560005b8381106111c5575061118e8861018b896111b78a6111a98f61119b8d8d6040519a8b9a60a08c5260a08c0190612599565b918a8303908b01526125cd565b908782036040890152612599565b908582036060870152612599565b90838203608085015261260a565b8061123d60058b8d611226858c6111f56111e26112589a8c612a3d565b8c6000526003809352604060002061280d565b50946112038387549261271d565b5260028501546001600160a01b031661121c838f61271d565b528401549261271d565b526004810154611236858d61271d565b5201612999565b611247828b61271d565b52611252818a61271d565b5061270e565b61115d565b61126a9194508290612701565b9284611128565b346101ae5760203660031901126101ae5760043533600052600760205261129f60ff60406000205416612666565b6112ac60005482106126bd565b80600052600260205260ff60056040600020015460a01c166112cd81612451565b61131c576000818152600260205260408120600501805460ff60a01b1916600160a11b1790553391907f87db840ff4c837529bffbe56c147e42c89ba5bb9867ece76bf0e9c43dfdc45539080a3005b60405162461bcd60e51b815260206004820152601e60248201527f43616e206f6e6c792064656c657465206163746976652074656e6465727300006044820152606490fd5b346101ae5760403660031901126101ae5760043561137d6124fe565b61138a60005483106126bd565b816000526020906002825260018060a01b03918260056040600020015416331480156114e2575b6113ba90612870565b83600052600281526113d660ff600960406000200154166128cc565b82821692836000526005825260ff604060002054161561149d578460005260028252600a604060002001604051918284835491828152019260005284600020916000905b82821061148457898961145b8a60028b6114496114438d61143d818f0382612471565b85612829565b15612910565b8560005252600a604060002001612974565b33917fde33c585cfb5b14cbcd6cc7190ab5323942d7214e2b178c9cc95d23cb210c3ba600080a4005b835481168552938601936001938401939091019061141a565b60405162461bcd60e51b815260048101839052601d60248201527f56656e646f72206d7573742062652076657269666965642066697273740000006044820152606490fd5b5033600090815260078252604090205460ff166113b1565b346101ae5760203660031901126101ae5760043561151b60005482106126bd565b60005260046020526020604060002054604051908152f35b346101ae5760003660031901126101ae576020600054604051908152f35b346101ae576020806003193601126101ae5761156b6124e8565b336000526007825261158460ff60406000205416612666565b6001600160a01b031690811561163057816000526005815260ff604060002054166115ec577f2ca953176aa01b668d419905dc4e16224fcfb9d4c49e1324e6dcb797d5d1f90d9082600052600581526040600020600160ff19825416179055604051428152a2005b6064906040519062461bcd60e51b82526004820152601760248201527f56656e646f7220616c72656164792076657269666965640000000000000000006044820152fd5b6064906040519062461bcd60e51b825260048201526016602482015275496e76616c69642076656e646f72206164647265737360501b6044820152fd5b346101ae5760403660031901126101ae576024356001600160401b0381116101ae5761169d90369060040161252b565b6116ac600054600435106126bd565b600435600052600260205260018060a01b0360056040600020015416331480156118e9575b6116da90612870565b60043560005260026020526116f960ff600960406000200154166128cc565b8051156118ac57601481511161185b5760005b8151811015611859576001600160a01b03611727828461271d565b511680600052600560205260ff6040600020541615611809576004356000526002602052600a6040600020016040519081602082549182815201916000526020600020906000905b8082106117e757505050611443826117916117e2969594611797940382612471565b83612829565b60043560005260026020526117b381600a604060002001612974565b33906004357fde33c585cfb5b14cbcd6cc7190ab5323942d7214e2b178c9cc95d23cb210c3ba600080a461270e565b61170c565b82546001600160a01b031684526020909301926001928301929091019061176f565b60405162461bcd60e51b815260206004820152602260248201527f416c6c2076656e646f7273206d757374206265207665726966696564206669726044820152611cdd60f21b6064820152608490fd5b005b60405162461bcd60e51b815260206004820152602360248201527f546f6f206d616e792076656e646f727320746f20617070726f7665206174206f6044820152626e636560e81b6064820152608490fd5b60405162461bcd60e51b81526020600482015260156024820152744e6f2076656e646f727320746f20617070726f766560581b6044820152606490fd5b503360009081526007602052604090205460ff166116d1565b346101ae5760203660031901126101ae5760043561192360005482106126bd565b6000818152600260205260409020600501546001600160a01b031633036119b95780600052600260205261196e60ff60056040600020015460a01c1661196881612451565b156127ca565b6000818152600260205260408120600501805460ff60a01b1916600160a11b1790553391907f116bcf29f123d8a1761e1b9bebbc345a1f08879dafde27b887a89e6e0b7af0199080a3005b60405162461bcd60e51b815260206004820152602960248201527f4f6e6c792074656e646572206f776e65722063616e20706572666f726d20746860448201526834b99030b1ba34b7b760b91b6064820152608490fd5b346101ae576020806003193601126101ae57611a2a6124e8565b3360005260078252611a4360ff60406000205416612666565b6001600160a01b031690338214611aec57816000526007815260ff6040600020541615611aa8576007908260005252604060002060ff19815416905533907fdb9d5d31320daf5bc7181d565b6da4d12e30f0f4d5aa324a992426c14a1d19ce600080a3005b6064906040519062461bcd60e51b82526004820152601760248201527f41646472657373206973206e6f7420616e2061646d696e0000000000000000006044820152fd5b6064906040519062461bcd60e51b82526004820152601260248201527121b0b73737ba103932b6b7bb329039b2b63360711b6044820152fd5b346101ae5760603660031901126101ae576001600160401b036044600435602480359083358581116101ae57611b5f903690600401612492565b94611b6d60005485106126bd565b83600052600290602092828452611b9560ff60056040600020015460a01c1661196881612451565b8560005282845260036040600020015442101561205a5785600052828452600460406000200154851061201857600086815283855260409020600501546001600160a01b03979088163314611fd6578660005260068552604060002033600052855260ff60406000205416611f85578660005283855260ff60096040600020015416158015611f25575b15611ece5750600192835497611c348961270e565b855587600052600486526040600020611c4d815461270e565b905587600052600386526040600020906040519260c0840184811087821117611eb957908c9695949392916040528b8452888401918b8352604085019133835260608601938c8552608087019542875260a088019a8b52805490600160401b821015611ea45790611cc2918d8201815561280d565b979097611e8f5790600597969594939291518755518b87015585019151166bffffffffffffffffffffffff60a01b825416179055516003830155516004820155019251908151928311611e7b5750611d1a8354612779565b601f8111611e4b575b508490601f8311600114611dc05791807fcfe407e98f349ad37514e1f908d19f08a2cd86855b90e505fb3c58ab5a68f2039796949260409694600092611db5575b5050600019600383901b1c191690831b1790555b856000526006825282600020336000528252826000209060ff19825416179055815192835282015280611db033966040830190612411565b0390a4005b015190508b80611d64565b90601f1983169184600052866000209260005b818110611e365750928694919260409793837fcfe407e98f349ad37514e1f908d19f08a2cd86855b90e505fb3c58ab5a68f2039b9a989610611e1d575b505050811b019055611d78565b015160001960f88460031b161c191690558b8080611e10565b82840151855593870193928801928801611dd3565b611e75908460005286600020601f850160051c81019188861061061157601f0160051c01906127b3565b89611d23565b634e487b7160e01b60009081526041600452fd5b88634e487b7160e01b60005260006004526000fd5b89634e487b7160e01b60005260416004526000fd5b85634e487b7160e01b60005260416004526000fd5b7f41646472657373206e6f7420616c6c6f77656420746f20626964206f6e2070728591602c6084946040519462461bcd60e51b865260048601528401528201526b34bb30ba32903a32b73232b960a11b6064820152fd5b50600a6040600020016040519081878254918281520191600052876000209060005b898d838310611f7057505050505090611f6581611f6b930382612471565b33612829565b611c1f565b84541685529093019260019283019201611f47565b7f416464726573732068617320616c726561647920626964206f6e207468697320859160266084946040519462461bcd60e51b86526004860152840152820152653a32b73232b960d11b6064820152fd5b7f4f776e65722063616e6e6f7420626964206f6e206f776e2074656e64657200008591601e6064946040519462461bcd60e51b86526004860152840152820152fd5b837f42696420616d6f756e742069732062656c6f77206d696e696d756d000000000088601b6064946040519462461bcd60e51b86526004860152840152820152fd5b837f54656e64657220646561646c696e65206861732070617373656400000000000088601a6064946040519462461bcd60e51b86526004860152840152820152fd5b346101ae5760203660031901126101ae576004356120bd60005482106126bd565b600052600260205261213960406000206003810154816004810154600582015460ff8160a01c16600684015460078501549160088601549360ff600988015416956004602052612147612124600261211d60016040600020549c01612999565b9c01612999565b6040519c8d9c8d610160908181520190612411565b8c810360208e015290612411565b60408b019990995260608a01526001600160a01b0316608089015261216b81612451565b60a088015260c087015260e086015261010085015215156101208401526101408301520390f35b346101ae576121a0366123fb565b6121ad60005483106126bd565b6000828152600260208181526040909220600501546001600160a01b039390841633036123ab5784600052600483526040600020541561236657846000526004835260406000205481101561232b57846000526003835261221281604060002061280d565b5060008681528385526040812060058101805460ff60a01b1916600160a01b1790556006018390559094905b86600052600485526040600020548110156122fc576122d7908381036122dc57876000526008865260406000208160005286526040600020600160ff198254161790555b8760005260088652604060002081600052865280887f4aa7738a92af9e45957404446628f5f9128894b91e659d5d6862155a135cc4fd8860ff604060002054166122cb81612451565b604051908152a361270e565b61223e565b6008865260406000818120838252885220805460ff191686179055612282565b50925092015416917f1d55e6e90839a2fda24badf424840911b1a64f510bb58ace92b0f12ba1851a35600080a4005b60405162461bcd60e51b8152600481018490526013602482015272125b9d985b1a59081dda5b9b9a5b99c8189a59606a1b6044820152606490fd5b60405162461bcd60e51b815260048101849052601d60248201527f4e6f206269647320746f2073656c6563742077696e6e65722066726f6d0000006044820152606490fd5b60405162461bcd60e51b815260048101849052602260248201527f4f6e6c792074656e646572206f776e65722063616e20636c6f73652074656e6460448201526132b960f11b6064820152608490fd5b60409060031901126101ae576004359060243590565b919082519283825260005b84811061243d575050826000602080949584010152601f8019910116010190565b60208183018101518483018201520161241c565b6003111561245b57565b634e487b7160e01b600052602160045260246000fd5b90601f801991011681019081106001600160401b0382111761054857604052565b81601f820112156101ae578035906001600160401b03821161054857604051926124c6601f8401601f191660200185612471565b828452602083830101116101ae57816000926020809301838601378301015290565b600435906001600160a01b03821682036101ae57565b602435906001600160a01b03821682036101ae57565b6001600160401b0381116105485760051b60200190565b81601f820112156101ae5780359161254283612514565b926125506040519485612471565b808452602092838086019260051b8201019283116101ae578301905b82821061257a575050505090565b81356001600160a01b03811681036101ae57815290830190830161256c565b90815180825260208080930193019160005b8281106125b9575050505090565b8351855293810193928101926001016125ab565b90815180825260208080930193019160005b8281106125ed575050505090565b83516001600160a01b0316855293810193928101926001016125df565b908082519081815260208091019281808460051b8301019501936000915b8483106126385750505050505090565b9091929394958480612656600193601f198682030187528a51612411565b9801930193019194939290612628565b1561266d57565b60405162461bcd60e51b815260206004820152602260248201527f4f6e6c792061646d696e2063616e20706572666f726d2074686973206163746960448201526137b760f11b6064820152608490fd5b156126c457565b60405162461bcd60e51b815260206004820152601560248201527415195b99195c88191bd95cc81b9bdd08195e1a5cdd605a1b6044820152606490fd5b91908203918211610cd557565b6000198114610cd55760010190565b80518210156127315760209160051b010190565b634e487b7160e01b600052603260045260246000fd5b9061275182612514565b61275e6040519182612471565b828152809261276f601f1991612514565b0190602036910137565b90600182811c921680156127a9575b602083101461279357565b634e487b7160e01b600052602260045260246000fd5b91607f1691612788565b8181106127be575050565b600081556001016127b3565b156127d157565b60405162461bcd60e51b815260206004820152601460248201527354656e646572206973206e6f742061637469766560601b6044820152606490fd5b8054821015612731576000526006602060002091020190600090565b60005b8251811015612868576001600160a01b0380612848838661271d565b5116908316146128605761285b9061270e565b61282c565b505050600190565b505050600090565b1561287757565b60405162461bcd60e51b815260206004820152602760248201527f4f6e6c79206f776e6572206f722061646d696e2063616e20617070726f76652060448201526676656e646f727360c81b6064820152608490fd5b156128d357565b60405162461bcd60e51b815260206004820152601560248201527454656e646572206973206e6f74207072697661746560581b6044820152606490fd5b1561291757565b60405162461bcd60e51b815260206004820152601760248201527f56656e646f7220616c726561647920617070726f7665640000000000000000006044820152606490fd5b80548210156127315760005260206000200190600090565b90815491600160401b8310156105485782610bf99160016129979501815561295c565b565b90604051918260008254926129ad84612779565b908184526001948581169081600014612a1a57506001146129d7575b505061299792500383612471565b9093915060005260209081600020936000915b818310612a02575050612997935082010138806129c9565b855488840185015294850194879450918301916129ea565b91505061299794506020925060ff191682840152151560051b82010138806129c9565b91908201809211610cd557565b90612a5482612514565b612a616040519182612471565b8281528092612a72601f1991612514565b019060005b828110612a8357505050565b806060602080938501015201612a7756fea26469706673582212209bc9071c8d5cd2c4191c6db181e2d7467cee1ad3430ea01ba84390b0fca7b3d964736f6c63430008110033","opcodes":"PUSH1 0x80 DUP1 PUSH1 0x40 MSTORE CALLVALUE PUSH2 0x38 JUMPI PUSH1 0x0 DUP1 SSTORE PUSH1 0x0 PUSH1 0x1 SSTORE CALLER PUSH1 0x0 MSTORE PUSH1 0x7 PUSH1 0x20 MSTORE PUSH1 0x40 PUSH1 0x0 KECCAK256 PUSH1 0x1 PUSH1 0xFF NOT DUP3 SLOAD AND OR SWAP1 SSTORE PUSH2 0x2ACA SWAP1 DUP2 PUSH2 0x3E DUP3 CODECOPY RETURN JUMPDEST PUSH1 0x0 DUP1 REVERT INVALID PUSH1 0x80 PUSH1 0x40 MSTORE PUSH1 0x4 CALLDATASIZE LT ISZERO PUSH2 0x12 JUMPI PUSH1 0x0 DUP1 REVERT JUMPDEST PUSH1 0x0 CALLDATALOAD PUSH1 0xE0 SHR DUP1 PUSH4 0x2DC6EA6 EQ PUSH2 0x2192 JUMPI DUP1 PUSH4 0x585C25E EQ PUSH2 0x209C JUMPI DUP1 PUSH4 0x14C60BDD EQ PUSH2 0x1B25 JUMPI DUP1 PUSH4 0x1785F53C EQ PUSH2 0x1A10 JUMPI DUP1 PUSH4 0x3A74E070 EQ PUSH2 0x1902 JUMPI DUP1 PUSH4 0x48B61099 EQ PUSH2 0x166D JUMPI DUP1 PUSH4 0x4F778658 EQ PUSH2 0x1551 JUMPI DUP1 PUSH4 0x5850B383 EQ PUSH2 0x1533 JUMPI DUP1 PUSH4 0x61461112 EQ PUSH2 0x14FA JUMPI DUP1 PUSH4 0x64BDF013 EQ PUSH2 0x1361 JUMPI DUP1 PUSH4 0x6B4023F4 EQ PUSH2 0x1271 JUMPI DUP1 PUSH4 0x6CB6081D EQ PUSH2 0x10DD JUMPI DUP1 PUSH4 0x70480275 EQ PUSH2 0xFC4 JUMPI DUP1 PUSH4 0x73B82C3C EQ PUSH2 0xF85 JUMPI DUP1 PUSH4 0xA686F239 EQ PUSH2 0xD60 JUMPI DUP1 PUSH4 0xAC21A2BB EQ PUSH2 0xB00 JUMPI DUP1 PUSH4 0xB2693AF1 EQ PUSH2 0xAC1 JUMPI DUP1 PUSH4 0xC789E605 EQ PUSH2 0x9F1 JUMPI DUP1 PUSH4 0xD8BDFEB9 EQ PUSH2 0x1B3 JUMPI PUSH4 0xFE47C584 EQ PUSH2 0xF8 JUMPI PUSH1 0x0 DUP1 REVERT JUMPDEST CALLVALUE PUSH2 0x1AE JUMPI PUSH1 0x20 DUP1 PUSH1 0x3 NOT CALLDATASIZE ADD SLT PUSH2 0x1AE JUMPI PUSH1 0x4 CALLDATALOAD PUSH2 0x11A PUSH1 0x0 SLOAD DUP3 LT PUSH2 0x26BD JUMP JUMPDEST DUP1 PUSH1 0x0 MSTORE PUSH1 0x2 DUP3 MSTORE PUSH2 0x136 PUSH1 0xFF PUSH1 0x9 PUSH1 0x40 PUSH1 0x0 KECCAK256 ADD SLOAD AND PUSH2 0x28CC JUMP JUMPDEST PUSH1 0x0 MSTORE PUSH1 0x2 DUP2 MSTORE PUSH1 0xA PUSH1 0x40 PUSH1 0x0 KECCAK256 ADD SWAP1 PUSH1 0x40 MLOAD DUP1 DUP4 DUP4 DUP3 SWAP6 SLOAD SWAP4 DUP5 DUP2 MSTORE ADD SWAP1 PUSH1 0x0 MSTORE DUP4 PUSH1 0x0 KECCAK256 SWAP3 PUSH1 0x0 JUMPDEST DUP6 DUP3 DUP3 LT PUSH2 0x18F JUMPI POP POP POP PUSH2 0x177 SWAP3 POP SUB DUP4 PUSH2 0x2471 JUMP JUMPDEST PUSH2 0x18B PUSH1 0x40 MLOAD SWAP3 DUP3 DUP5 SWAP4 DUP5 MSTORE DUP4 ADD SWAP1 PUSH2 0x25CD JUMP JUMPDEST SUB SWAP1 RETURN JUMPDEST DUP6 SLOAD PUSH1 0x1 PUSH1 0x1 PUSH1 0xA0 SHL SUB AND DUP5 MSTORE PUSH1 0x1 SWAP6 DUP7 ADD SWAP6 DUP9 SWAP6 POP SWAP4 ADD SWAP3 ADD PUSH2 0x160 JUMP JUMPDEST PUSH1 0x0 DUP1 REVERT JUMPDEST CALLVALUE PUSH2 0x1AE JUMPI PUSH1 0xE0 CALLDATASIZE PUSH1 0x3 NOT ADD SLT PUSH2 0x1AE JUMPI PUSH1 0x4 CALLDATALOAD PUSH1 0x1 PUSH1 0x1 PUSH1 0x40 SHL SUB DUP2 GT PUSH2 0x1AE JUMPI PUSH2 0x1E3 SWAP1 CALLDATASIZE SWAP1 PUSH1 0x4 ADD PUSH2 0x2492 JUMP JUMPDEST PUSH1 0x24 CALLDATALOAD PUSH1 0x1 PUSH1 0x1 PUSH1 0x40 SHL SUB DUP2 GT PUSH2 0x1AE JUMPI PUSH2 0x202 SWAP1 CALLDATASIZE SWAP1 PUSH1 0x4 ADD PUSH2 0x2492 JUMP JUMPDEST SWAP1 PUSH1 0xA4 CALLDATALOAD DUP1 ISZERO ISZERO DUP2 SUB PUSH2 0x1AE JUMPI PUSH1 0xC4 CALLDATALOAD PUSH1 0x1 PUSH1 0x1 PUSH1 0x40 SHL SUB DUP2 GT PUSH2 0x1AE JUMPI PUSH2 0x22E SWAP1 CALLDATASIZE SWAP1 PUSH1 0x4 ADD PUSH2 0x252B JUMP JUMPDEST SWAP2 DUP1 MLOAD ISZERO PUSH2 0x9B4 JUMPI DUP4 MLOAD ISZERO PUSH2 0x96F JUMPI PUSH1 0x44 SWAP2 TIMESTAMP DUP4 CALLDATALOAD GT ISZERO PUSH2 0x92B JUMPI PUSH3 0x15180 PUSH2 0x258 TIMESTAMP DUP6 CALLDATALOAD PUSH2 0x2701 JUMP JUMPDEST LT PUSH2 0x8E7 JUMPI PUSH3 0x76A700 PUSH2 0x26C TIMESTAMP DUP6 CALLDATALOAD PUSH2 0x2701 JUMP JUMPDEST GT PUSH2 0x898 JUMPI PUSH1 0x64 DUP1 CALLDATALOAD ISZERO PUSH2 0x84A JUMPI DUP2 PUSH2 0x6F4 JUMPI JUMPDEST PUSH1 0x0 SLOAD SWAP5 PUSH2 0x28D DUP7 PUSH2 0x270E JUMP JUMPDEST PUSH1 0x0 SSTORE DUP3 ISZERO PUSH2 0x6CD JUMPI SWAP1 JUMPDEST PUSH1 0x40 MLOAD SWAP7 PUSH2 0x180 DUP9 ADD DUP9 DUP2 LT PUSH1 0x1 PUSH1 0x1 PUSH1 0x40 SHL SUB DUP3 GT OR PUSH2 0x548 JUMPI PUSH1 0x40 MSTORE DUP7 DUP9 MSTORE DUP5 PUSH1 0x20 DUP10 ADD MSTORE PUSH1 0x40 DUP9 ADD MSTORE DUP5 CALLDATALOAD PUSH1 0x60 DUP9 ADD MSTORE CALLDATALOAD PUSH1 0x80 DUP8 ADD MSTORE CALLER PUSH1 0xA0 DUP8 ADD MSTORE PUSH1 0x0 PUSH1 0xC0 DUP8 ADD MSTORE PUSH1 0x0 PUSH1 0xE0 DUP8 ADD MSTORE TIMESTAMP PUSH2 0x100 DUP8 ADD MSTORE PUSH1 0x84 CALLDATALOAD PUSH2 0x120 DUP8 ADD MSTORE DUP2 ISZERO ISZERO PUSH2 0x140 DUP8 ADD MSTORE PUSH2 0x160 DUP7 ADD MSTORE DUP4 PUSH1 0x0 MSTORE PUSH1 0x2 PUSH1 0x20 MSTORE PUSH1 0x40 PUSH1 0x0 KECCAK256 SWAP5 DUP1 MLOAD DUP7 SSTORE PUSH1 0x20 DUP2 ADD MLOAD DUP1 MLOAD SWAP1 PUSH1 0x1 PUSH1 0x1 PUSH1 0x40 SHL SUB DUP3 GT PUSH2 0x548 JUMPI DUP2 SWAP1 PUSH2 0x33C PUSH1 0x1 DUP11 ADD SLOAD PUSH2 0x2779 JUMP JUMPDEST PUSH1 0x1F DUP2 GT PUSH2 0x698 JUMPI JUMPDEST POP PUSH1 0x20 SWAP1 PUSH1 0x1F DUP4 GT PUSH1 0x1 EQ PUSH2 0x626 JUMPI PUSH1 0x0 SWAP3 PUSH2 0x61B JUMPI JUMPDEST POP POP DUP2 PUSH1 0x1 SHL SWAP2 PUSH1 0x0 NOT SWAP1 PUSH1 0x3 SHL SHR NOT AND OR PUSH1 0x1 DUP8 ADD SSTORE JUMPDEST PUSH1 0x40 DUP2 ADD MLOAD DUP1 MLOAD SWAP1 PUSH1 0x1 PUSH1 0x1 PUSH1 0x40 SHL SUB DUP3 GT PUSH2 0x548 JUMPI DUP2 SWAP1 PUSH2 0x399 PUSH1 0x2 DUP11 ADD SLOAD PUSH2 0x2779 JUMP JUMPDEST PUSH1 0x1F DUP2 GT PUSH2 0x5DB JUMPI JUMPDEST POP PUSH1 0x20 SWAP1 PUSH1 0x1F DUP4 GT PUSH1 0x1 EQ PUSH2 0x569 JUMPI PUSH1 0x0 SWAP3 PUSH2 0x55E JUMPI JUMPDEST POP POP DUP2 PUSH1 0x1 SHL SWAP2 PUSH1 0x0 NOT SWAP1 PUSH1 0x3 SHL SHR NOT AND OR PUSH1 0x2 DUP8 ADD SSTORE JUMPDEST PUSH1 0x60 DUP2 ADD MLOAD PUSH1 0x3 DUP8 ADD SSTORE PUSH1 0x80 DUP2 ADD MLOAD PUSH1 0x4 DUP8 ADD SSTORE PUSH2 0x160 PUSH1 0xA PUSH1 0x5 DUP9 ADD SWAP8 PUSH1 0x1 DUP1 PUSH1 0xA0 SHL SUB SWAP9 DUP10 PUSH1 0xA0 DUP7 ADD MLOAD AND DUP2 SLOAD SWAP1 PUSH1 0xC0 DUP8 ADD MLOAD PUSH2 0x40F DUP2 PUSH2 0x2451 JUMP JUMPDEST PUSH2 0x418 DUP2 PUSH2 0x2451 JUMP JUMPDEST PUSH1 0xFF PUSH1 0xA0 SHL SWAP1 PUSH1 0xA0 SHL AND SWAP2 PUSH11 0xFFFFFFFFFFFFFFFFFFFFFF PUSH1 0xA8 SHL AND OR OR SWAP1 SSTORE PUSH1 0xE0 DUP5 ADD MLOAD PUSH1 0x6 DUP3 ADD SSTORE PUSH2 0x100 DUP5 ADD MLOAD PUSH1 0x7 DUP3 ADD SSTORE PUSH2 0x120 DUP5 ADD MLOAD PUSH1 0x8 DUP3 ADD SSTORE PUSH1 0x9 DUP2 ADD PUSH2 0x140 DUP6 ADD MLOAD ISZERO ISZERO PUSH1 0xFF DUP1 NOT DUP4 SLOAD AND SWAP2 AND OR SWAP1 SSTORE ADD SWAP2 ADD MLOAD SWAP1 DUP2 MLOAD SWAP2 PUSH1 0x1 PUSH1 0x1 PUSH1 0x40 SHL SUB DUP4 GT PUSH2 0x548 JUMPI PUSH1 0x1 PUSH1 0x40 SHL DUP4 GT PUSH2 0x548 JUMPI PUSH1 0x20 SWAP1 DUP3 SLOAD DUP5 DUP5 SSTORE DUP1 DUP6 LT PUSH2 0x52B JUMPI JUMPDEST POP ADD SWAP1 PUSH1 0x0 MSTORE PUSH1 0x20 PUSH1 0x0 KECCAK256 PUSH1 0x0 JUMPDEST DUP4 DUP2 LT PUSH2 0x515 JUMPI PUSH1 0x20 DUP9 DUP9 DUP2 PUSH32 0x5AB909EC11BDAB9532C0B336851AE13AC1FCC22D8D97402BB827F904A92BAFD5 DUP11 DUP11 PUSH2 0x4F2 PUSH1 0x40 MLOAD SWAP3 PUSH1 0x80 DUP5 MSTORE PUSH1 0x80 DUP5 ADD SWAP1 PUSH2 0x2411 JUMP JUMPDEST SWAP5 CALLDATALOAD DUP8 DUP4 ADD MSTORE ISZERO ISZERO PUSH1 0x40 DUP3 ADD MSTORE PUSH1 0x84 CALLDATALOAD PUSH1 0x60 DUP3 ADD MSTORE DUP1 CALLER SWAP5 SUB SWAP1 LOG3 PUSH1 0x40 MLOAD SWAP1 DUP2 MSTORE RETURN JUMPDEST PUSH1 0x1 SWAP1 PUSH1 0x20 DUP11 DUP6 MLOAD AND SWAP5 ADD SWAP4 DUP2 DUP5 ADD SSTORE ADD PUSH2 0x4AE JUMP JUMPDEST PUSH2 0x542 SWAP1 DUP5 PUSH1 0x0 MSTORE DUP6 DUP5 PUSH1 0x0 KECCAK256 SWAP2 DUP3 ADD SWAP2 ADD PUSH2 0x27B3 JUMP JUMPDEST DUP10 PUSH2 0x4A0 JUMP JUMPDEST PUSH4 0x4E487B71 PUSH1 0xE0 SHL PUSH1 0x0 MSTORE PUSH1 0x41 PUSH1 0x4 MSTORE PUSH1 0x24 PUSH1 0x0 REVERT JUMPDEST ADD MLOAD SWAP1 POP DUP9 DUP1 PUSH2 0x3B9 JUMP JUMPDEST SWAP3 POP PUSH1 0x2 DUP10 ADD PUSH1 0x0 MSTORE PUSH1 0x20 PUSH1 0x0 KECCAK256 SWAP1 PUSH1 0x0 SWAP4 JUMPDEST PUSH1 0x1F NOT DUP5 AND DUP6 LT PUSH2 0x5C0 JUMPI PUSH1 0x1 SWAP5 POP DUP4 PUSH1 0x1F NOT DUP2 AND LT PUSH2 0x5A7 JUMPI JUMPDEST POP POP POP DUP2 SHL ADD PUSH1 0x2 DUP8 ADD SSTORE PUSH2 0x3D1 JUMP JUMPDEST ADD MLOAD PUSH1 0x0 NOT PUSH1 0xF8 DUP5 PUSH1 0x3 SHL AND SHR NOT AND SWAP1 SSTORE DUP9 DUP1 DUP1 PUSH2 0x597 JUMP JUMPDEST DUP2 DUP2 ADD MLOAD DUP4 SSTORE PUSH1 0x20 SWAP5 DUP6 ADD SWAP5 PUSH1 0x1 SWAP1 SWAP4 ADD SWAP3 SWAP1 SWAP2 ADD SWAP1 PUSH2 0x57C JUMP JUMPDEST PUSH2 0x60B SWAP1 PUSH1 0x2 DUP12 ADD PUSH1 0x0 MSTORE PUSH1 0x20 PUSH1 0x0 KECCAK256 PUSH1 0x1F DUP6 ADD PUSH1 0x5 SHR DUP2 ADD SWAP2 PUSH1 0x20 DUP7 LT PUSH2 0x611 JUMPI JUMPDEST PUSH1 0x1F ADD PUSH1 0x5 SHR ADD SWAP1 PUSH2 0x27B3 JUMP JUMPDEST DUP10 PUSH2 0x3A2 JUMP JUMPDEST SWAP1 SWAP2 POP DUP2 SWAP1 PUSH2 0x5FE JUMP JUMPDEST ADD MLOAD SWAP1 POP DUP9 DUP1 PUSH2 0x35C JUMP JUMPDEST SWAP3 POP PUSH1 0x1 DUP10 ADD PUSH1 0x0 MSTORE PUSH1 0x20 PUSH1 0x0 KECCAK256 SWAP1 PUSH1 0x0 SWAP4 JUMPDEST PUSH1 0x1F NOT DUP5 AND DUP6 LT PUSH2 0x67D JUMPI PUSH1 0x1 SWAP5 POP DUP4 PUSH1 0x1F NOT DUP2 AND LT PUSH2 0x664 JUMPI JUMPDEST POP POP POP DUP2 SHL ADD PUSH1 0x1 DUP8 ADD SSTORE PUSH2 0x374 JUMP JUMPDEST ADD MLOAD PUSH1 0x0 NOT PUSH1 0xF8 DUP5 PUSH1 0x3 SHL AND SHR NOT AND SWAP1 SSTORE DUP9 DUP1 DUP1 PUSH2 0x654 JUMP JUMPDEST DUP2 DUP2 ADD MLOAD DUP4 SSTORE PUSH1 0x20 SWAP5 DUP6 ADD SWAP5 PUSH1 0x1 SWAP1 SWAP4 ADD SWAP3 SWAP1 SWAP2 ADD SWAP1 PUSH2 0x639 JUMP JUMPDEST PUSH2 0x6C7 SWAP1 PUSH1 0x1 DUP12 ADD PUSH1 0x0 MSTORE PUSH1 0x20 PUSH1 0x0 KECCAK256 PUSH1 0x1F DUP6 ADD PUSH1 0x5 SHR DUP2 ADD SWAP2 PUSH1 0x20 DUP7 LT PUSH2 0x611 JUMPI PUSH1 0x1F ADD PUSH1 0x5 SHR ADD SWAP1 PUSH2 0x27B3 JUMP JUMPDEST DUP10 PUSH2 0x345 JUMP JUMPDEST POP PUSH1 0x40 MLOAD PUSH1 0x20 DUP2 ADD DUP2 DUP2 LT PUSH1 0x1 PUSH1 0x1 PUSH1 0x40 SHL SUB DUP3 GT OR PUSH2 0x548 JUMPI PUSH1 0x40 MSTORE PUSH1 0x0 DUP2 MSTORE SWAP1 PUSH2 0x298 JUMP JUMPDEST SWAP3 SWAP4 SWAP2 DUP3 SWAP6 SWAP2 SWAP6 MLOAD ISZERO PUSH2 0x7F6 JUMPI PUSH1 0x14 DUP4 MLOAD GT PUSH2 0x7B3 JUMPI PUSH1 0x0 JUMPDEST DUP4 MLOAD DUP2 LT ISZERO PUSH2 0x7A7 JUMPI PUSH1 0x1 PUSH1 0x1 PUSH1 0xA0 SHL SUB PUSH2 0x728 DUP3 DUP7 PUSH2 0x271D JUMP JUMPDEST MLOAD AND PUSH1 0x0 MSTORE PUSH1 0x20 PUSH1 0x5 DUP2 MSTORE PUSH1 0xFF PUSH1 0x40 PUSH1 0x0 KECCAK256 SLOAD AND ISZERO PUSH2 0x750 JUMPI POP PUSH2 0x74B SWAP1 PUSH2 0x270E JUMP JUMPDEST PUSH2 0x70D JUMP JUMPDEST PUSH1 0x84 SWAP1 PUSH12 0x666965642076656E646F7273 PUSH1 0xA0 SHL DUP8 PUSH32 0x416C6C20616C6C6F7765642062696464657273206D7573742062652076657269 DUP11 PUSH1 0x40 MLOAD SWAP5 PUSH3 0x461BCD PUSH1 0xE5 SHL DUP7 MSTORE PUSH1 0x4 DUP7 ADD MSTORE PUSH1 0x2C PUSH1 0x24 DUP7 ADD MSTORE DUP5 ADD MSTORE DUP3 ADD MSTORE REVERT JUMPDEST POP SWAP2 SWAP4 SWAP3 SWAP5 SWAP1 SWAP5 PUSH2 0x280 JUMP JUMPDEST PUSH1 0x40 MLOAD PUSH3 0x461BCD PUSH1 0xE5 SHL DUP2 MSTORE PUSH1 0x20 PUSH1 0x4 DUP3 ADD MSTORE PUSH1 0x18 PUSH1 0x24 DUP3 ADD MSTORE PUSH32 0x546F6F206D616E7920616C6C6F77656420626964646572730000000000000000 DUP2 DUP8 ADD MSTORE DUP5 SWAP1 REVERT JUMPDEST PUSH1 0x40 MLOAD PUSH3 0x461BCD PUSH1 0xE5 SHL DUP2 MSTORE PUSH1 0x20 PUSH1 0x4 DUP3 ADD MSTORE PUSH1 0x28 PUSH1 0x24 DUP3 ADD MSTORE PUSH32 0x507269766174652074656E646572206D757374206861766520616C6C6F776564 DUP2 DUP8 ADD MSTORE PUSH8 0x2062696464657273 PUSH1 0xC0 SHL DUP2 DUP7 ADD MSTORE PUSH1 0x84 SWAP1 REVERT JUMPDEST DUP4 PUSH2 0x203 PUSH1 0xF4 SHL PUSH1 0x84 SWAP3 PUSH32 0x4D696E696D756D20626964206D7573742062652067726561746572207468616E PUSH1 0x40 MLOAD SWAP4 PUSH3 0x461BCD PUSH1 0xE5 SHL DUP6 MSTORE PUSH1 0x20 PUSH1 0x4 DUP7 ADD MSTORE PUSH1 0x22 PUSH1 0x24 DUP7 ADD MSTORE DUP5 ADD MSTORE DUP3 ADD MSTORE REVERT JUMPDEST PUSH1 0x40 MLOAD PUSH3 0x461BCD PUSH1 0xE5 SHL DUP2 MSTORE PUSH1 0x20 PUSH1 0x4 DUP3 ADD MSTORE PUSH1 0x22 PUSH1 0x24 DUP3 ADD MSTORE PUSH32 0x4D6178696D756D2074656E646572206475726174696F6E206973203930206461 DUP2 DUP6 ADD MSTORE PUSH2 0x7973 PUSH1 0xF0 SHL PUSH1 0x64 DUP3 ADD MSTORE PUSH1 0x84 SWAP1 REVERT JUMPDEST PUSH1 0x40 MLOAD PUSH3 0x461BCD PUSH1 0xE5 SHL DUP2 MSTORE PUSH1 0x20 PUSH1 0x4 DUP3 ADD DUP2 SWAP1 MSTORE PUSH1 0x24 DUP3 ADD MSTORE PUSH32 0x4D696E696D756D2074656E646572206475726174696F6E206973203120646179 DUP2 DUP6 ADD MSTORE PUSH1 0x64 SWAP1 REVERT JUMPDEST PUSH1 0x40 MLOAD PUSH3 0x461BCD PUSH1 0xE5 SHL DUP2 MSTORE PUSH1 0x20 PUSH1 0x4 DUP3 ADD MSTORE PUSH1 0x1E PUSH1 0x24 DUP3 ADD MSTORE PUSH32 0x446561646C696E65206D75737420626520696E20746865206675747572650000 DUP2 DUP6 ADD MSTORE PUSH1 0x64 SWAP1 REVERT JUMPDEST PUSH1 0x40 MLOAD PUSH3 0x461BCD PUSH1 0xE5 SHL DUP2 MSTORE PUSH1 0x20 PUSH1 0x4 DUP3 ADD MSTORE PUSH1 0x1B PUSH1 0x24 DUP3 ADD MSTORE PUSH32 0x4465736372697074696F6E2063616E6E6F7420626520656D7074790000000000 PUSH1 0x44 DUP3 ADD MSTORE PUSH1 0x64 SWAP1 REVERT JUMPDEST PUSH1 0x40 MLOAD PUSH3 0x461BCD PUSH1 0xE5 SHL DUP2 MSTORE PUSH1 0x20 PUSH1 0x4 DUP3 ADD MSTORE PUSH1 0x15 PUSH1 0x24 DUP3 ADD MSTORE PUSH21 0x5469746C652063616E6E6F7420626520656D707479 PUSH1 0x58 SHL PUSH1 0x44 DUP3 ADD MSTORE PUSH1 0x64 SWAP1 REVERT JUMPDEST CALLVALUE PUSH2 0x1AE JUMPI PUSH1 0x20 DUP1 PUSH1 0x3 NOT CALLDATASIZE ADD SLT PUSH2 0x1AE JUMPI PUSH2 0xA0B PUSH2 0x24E8 JUMP JUMPDEST CALLER PUSH1 0x0 MSTORE PUSH1 0x7 DUP3 MSTORE PUSH2 0xA24 PUSH1 0xFF PUSH1 0x40 PUSH1 0x0 KECCAK256 SLOAD AND PUSH2 0x2666 JUMP JUMPDEST PUSH1 0x1 PUSH1 0x1 PUSH1 0xA0 SHL SUB AND PUSH1 0x0 DUP2 DUP2 MSTORE PUSH1 0x5 DUP4 MSTORE PUSH1 0x40 SWAP1 KECCAK256 SLOAD SWAP1 SWAP2 SWAP1 PUSH1 0xFF AND ISZERO PUSH2 0xA87 JUMPI PUSH32 0x2CA953176AA01B668D419905DC4E16224FCFB9D4C49E1324E6DCB797D5D1F90D SWAP1 DUP3 PUSH1 0x0 MSTORE PUSH1 0x5 DUP2 MSTORE PUSH1 0x40 PUSH1 0x0 KECCAK256 PUSH1 0xFF NOT DUP2 SLOAD AND SWAP1 SSTORE PUSH1 0x40 MLOAD PUSH1 0x0 DUP2 MSTORE LOG2 STOP JUMPDEST PUSH1 0x64 SWAP1 PUSH1 0x40 MLOAD SWAP1 PUSH3 0x461BCD PUSH1 0xE5 SHL DUP3 MSTORE PUSH1 0x4 DUP3 ADD MSTORE PUSH1 0x13 PUSH1 0x24 DUP3 ADD MSTORE PUSH19 0x15995B991BDC881B9BDD081D995C9A599A5959 PUSH1 0x6A SHL PUSH1 0x44 DUP3 ADD MSTORE REVERT JUMPDEST CALLVALUE PUSH2 0x1AE JUMPI PUSH2 0xACF CALLDATASIZE PUSH2 0x23FB JUMP JUMPDEST SWAP1 PUSH1 0x0 MSTORE PUSH1 0x8 PUSH1 0x20 MSTORE PUSH1 0x40 PUSH1 0x0 KECCAK256 SWAP1 PUSH1 0x0 MSTORE PUSH1 0x20 MSTORE PUSH1 0x20 PUSH1 0xFF PUSH1 0x40 PUSH1 0x0 KECCAK256 SLOAD AND PUSH1 0x40 MLOAD SWAP1 PUSH2 0xAFC DUP2 PUSH2 0x2451 JUMP JUMPDEST DUP2 MSTORE RETURN JUMPDEST CALLVALUE PUSH2 0x1AE JUMPI PUSH1 0x40 CALLDATASIZE PUSH1 0x3 NOT ADD SLT PUSH2 0x1AE JUMPI PUSH1 0x4 CALLDATALOAD PUSH2 0xB1C PUSH2 0x24FE JUMP JUMPDEST PUSH2 0xB29 PUSH1 0x0 SLOAD DUP4 LT PUSH2 0x26BD JUMP JUMPDEST DUP2 PUSH1 0x0 MSTORE PUSH1 0x20 PUSH1 0x2 DUP2 MSTORE PUSH1 0x1 DUP1 PUSH1 0xA0 SHL SUB SWAP1 DUP2 PUSH1 0x5 PUSH1 0x40 PUSH1 0x0 KECCAK256 ADD SLOAD AND CALLER EQ DUP1 ISZERO PUSH2 0xD49 JUMPI JUMPDEST ISZERO PUSH2 0xCF6 JUMPI DUP4 PUSH1 0x0 SWAP4 SWAP3 SWAP4 MSTORE PUSH1 0x2 DUP2 MSTORE PUSH2 0xB73 PUSH1 0xFF PUSH1 0x9 PUSH1 0x40 PUSH1 0x0 KECCAK256 ADD SLOAD AND PUSH2 0x28CC JUMP JUMPDEST DUP4 PUSH1 0x0 MSTORE PUSH1 0x2 DUP2 MSTORE PUSH1 0xA PUSH1 0x40 PUSH1 0x0 KECCAK256 ADD SWAP3 PUSH1 0x0 SWAP4 DUP2 PUSH1 0x0 SWAP5 AND SWAP4 JUMPDEST DUP2 SLOAD DUP1 DUP3 LT ISZERO PUSH2 0xCEB JUMPI DUP4 SWAP1 DUP7 PUSH2 0xBA5 DUP5 DUP7 PUSH2 0x295C JUMP JUMPDEST SWAP4 SWAP1 SLOAD PUSH1 0x3 SWAP5 DUP6 SHL SHR AND EQ PUSH2 0xBC4 JUMPI POP POP PUSH2 0xBBF SWAP1 PUSH2 0x270E JUMP JUMPDEST PUSH2 0xB8E JUMP JUMPDEST SWAP6 SWAP7 POP SWAP4 SWAP5 SWAP2 SWAP3 SWAP2 PUSH1 0x0 NOT SWAP2 DUP3 DUP3 ADD SWAP2 DUP3 GT PUSH2 0xCD5 JUMPI PUSH2 0xBF9 DUP5 PUSH2 0xBEB PUSH2 0xC1D SWAP5 DUP9 PUSH2 0x295C JUMP JUMPDEST SWAP1 SLOAD SWAP1 DUP10 SHL SHR AND SWAP2 DUP7 PUSH2 0x295C JUMP JUMPDEST SWAP1 SWAP2 SWAP1 DUP3 SLOAD SWAP1 PUSH1 0x3 SHL SWAP2 PUSH1 0x1 DUP1 PUSH1 0xA0 SHL SUB SWAP3 DUP4 DUP2 SHL SWAP4 DUP5 SWAP3 AND SWAP1 SHL AND SWAP2 NOT AND OR SWAP1 SSTORE JUMP JUMPDEST DUP3 SLOAD DUP1 ISZERO PUSH2 0xCBF JUMPI ADD SWAP3 PUSH2 0xC31 DUP5 DUP5 PUSH2 0x295C JUMP JUMPDEST DUP2 SWAP4 SWAP2 SLOAD SWAP3 SHL SHL NOT AND SWAP1 SSTORE SSTORE PUSH1 0x1 JUMPDEST ISZERO PUSH2 0xC6F JUMPI POP CALLER SWAP2 PUSH32 0xB4F7DDAE4323F1BA582D7972C8789C0DC5A4A71CBD2687E1C3337413C8E6E109 PUSH1 0x0 DUP1 LOG4 STOP JUMPDEST PUSH1 0x84 SWAP1 PUSH1 0x40 MLOAD SWAP1 PUSH3 0x461BCD PUSH1 0xE5 SHL DUP3 MSTORE PUSH1 0x4 DUP3 ADD MSTORE PUSH1 0x23 PUSH1 0x24 DUP3 ADD MSTORE PUSH32 0x56656E646F72206E6F7420617070726F76656420666F7220746869732074656E PUSH1 0x44 DUP3 ADD MSTORE PUSH3 0x3232B9 PUSH1 0xE9 SHL PUSH1 0x64 DUP3 ADD MSTORE REVERT JUMPDEST PUSH4 0x4E487B71 PUSH1 0xE0 SHL PUSH1 0x0 MSTORE PUSH1 0x31 PUSH1 0x4 MSTORE PUSH1 0x24 PUSH1 0x0 REVERT JUMPDEST PUSH4 0x4E487B71 PUSH1 0xE0 SHL PUSH1 0x0 MSTORE PUSH1 0x11 PUSH1 0x4 MSTORE PUSH1 0x24 PUSH1 0x0 REVERT JUMPDEST POP POP POP POP SWAP1 SWAP2 PUSH2 0xC40 JUMP JUMPDEST PUSH1 0x84 SWAP1 PUSH1 0x40 MLOAD SWAP1 PUSH3 0x461BCD PUSH1 0xE5 SHL DUP3 MSTORE PUSH1 0x4 DUP3 ADD MSTORE PUSH1 0x26 PUSH1 0x24 DUP3 ADD MSTORE PUSH32 0x4F6E6C79206F776E6572206F722061646D696E2063616E207265766F6B652076 PUSH1 0x44 DUP3 ADD MSTORE PUSH6 0x656E646F7273 PUSH1 0xD0 SHL PUSH1 0x64 DUP3 ADD MSTORE REVERT JUMPDEST POP CALLER PUSH1 0x0 MSTORE PUSH1 0x7 DUP2 MSTORE PUSH1 0xFF PUSH1 0x40 PUSH1 0x0 KECCAK256 SLOAD AND PUSH2 0xB4F JUMP JUMPDEST CALLVALUE PUSH2 0x1AE JUMPI PUSH2 0xD6E CALLDATASIZE PUSH2 0x23FB JUMP JUMPDEST SWAP1 PUSH2 0xD79 DUP3 DUP3 PUSH2 0x2A3D JUMP JUMPDEST PUSH1 0x0 SLOAD DUP1 SWAP2 GT PUSH2 0xF71 JUMPI JUMPDEST POP PUSH2 0xD8E DUP3 PUSH2 0x2747 JUMP JUMPDEST SWAP1 PUSH2 0xD98 DUP4 PUSH2 0x2A4A JUMP JUMPDEST SWAP3 PUSH2 0xDA2 DUP2 PUSH2 0x2747 JUMP JUMPDEST SWAP4 PUSH2 0xDAC DUP3 PUSH2 0x2514 JUMP JUMPDEST PUSH2 0xDB9 PUSH1 0x40 MLOAD SWAP2 DUP3 PUSH2 0x2471 JUMP JUMPDEST DUP3 DUP2 MSTORE PUSH2 0xDC5 DUP4 PUSH2 0x2514 JUMP JUMPDEST PUSH1 0x20 DUP3 DUP2 ADD SWAP8 SWAP1 SWAP2 PUSH1 0x1F NOT ADD CALLDATASIZE DUP10 CALLDATACOPY PUSH2 0xDDD DUP6 PUSH2 0x2747 JUMP JUMPDEST SWAP4 PUSH2 0xDE7 DUP7 PUSH2 0x2747 JUMP JUMPDEST SWAP6 PUSH2 0xDF1 DUP2 PUSH2 0x2747 JUMP JUMPDEST SWAP8 PUSH1 0x0 JUMPDEST DUP3 DUP2 LT PUSH2 0xEAF JUMPI POP POP POP DUP3 SWAP4 SWAP3 SWAP2 PUSH2 0xE2C PUSH2 0xE3A SWAP3 PUSH2 0xE1F PUSH1 0x40 MLOAD SWAP12 PUSH1 0xE0 DUP14 MSTORE PUSH1 0xE0 DUP14 ADD SWAP1 PUSH2 0x2599 JUMP JUMPDEST SWAP1 DUP12 DUP3 SUB DUP7 DUP14 ADD MSTORE PUSH2 0x260A JUMP JUMPDEST SWAP1 DUP10 DUP3 SUB PUSH1 0x40 DUP12 ADD MSTORE PUSH2 0x25CD JUMP JUMPDEST SWAP2 DUP8 DUP4 SUB PUSH1 0x60 DUP10 ADD MSTORE MLOAD SWAP2 DUP3 DUP2 MSTORE ADD SWAP7 SWAP2 PUSH1 0x0 JUMPDEST DUP3 DUP2 LT PUSH2 0xE8D JUMPI DUP8 DUP1 PUSH2 0x18B DUP10 PUSH2 0xE7F DUP11 PUSH2 0xE71 DUP16 DUP13 DUP8 DUP3 SUB PUSH1 0x80 DUP10 ADD MSTORE PUSH2 0x2599 JUMP JUMPDEST SWAP1 DUP6 DUP3 SUB PUSH1 0xA0 DUP8 ADD MSTORE PUSH2 0x2599 JUMP JUMPDEST SWAP1 DUP4 DUP3 SUB PUSH1 0xC0 DUP6 ADD MSTORE PUSH2 0x2599 JUMP JUMPDEST SWAP1 SWAP2 SWAP3 SWAP8 DUP3 DUP1 PUSH1 0x1 SWAP3 DUP12 MLOAD PUSH2 0xEA1 DUP2 PUSH2 0x2451 JUMP JUMPDEST DUP2 MSTORE ADD SWAP10 ADD SWAP4 SWAP3 SWAP2 ADD PUSH2 0xE4E JUMP JUMPDEST DUP1 PUSH2 0xEBD PUSH2 0xF6C SWAP3 DUP5 PUSH2 0x2A3D JUMP JUMPDEST DUP1 PUSH1 0x0 MSTORE PUSH1 0x2 DUP9 MSTORE PUSH1 0x4 DUP14 PUSH1 0x40 PUSH1 0x0 KECCAK256 SWAP1 PUSH2 0xEDA DUP6 DUP4 SLOAD SWAP3 PUSH2 0x271D JUMP JUMPDEST MSTORE PUSH2 0xEE7 PUSH1 0x1 DUP3 ADD PUSH2 0x2999 JUMP JUMPDEST PUSH2 0xEF1 DUP6 DUP11 PUSH2 0x271D JUMP JUMPDEST MSTORE PUSH2 0xEFC DUP5 DUP10 PUSH2 0x271D JUMP JUMPDEST POP PUSH1 0x5 DUP2 ADD SLOAD PUSH1 0xFF SWAP1 PUSH1 0x1 PUSH1 0x1 PUSH1 0xA0 SHL SUB DUP2 AND PUSH2 0xF19 DUP8 DUP14 PUSH2 0x271D JUMP JUMPDEST MSTORE PUSH1 0xA0 SHR AND PUSH2 0xF28 DUP6 DUP14 PUSH2 0x271D JUMP JUMPDEST PUSH2 0xF31 DUP3 PUSH2 0x2451 JUMP JUMPDEST MSTORE PUSH1 0x3 DUP2 ADD SLOAD PUSH2 0xF41 DUP6 DUP15 PUSH2 0x271D JUMP JUMPDEST MSTORE ADD SLOAD PUSH2 0xF4E DUP4 DUP14 PUSH2 0x271D JUMP JUMPDEST MSTORE PUSH1 0x0 MSTORE PUSH1 0x4 DUP8 MSTORE PUSH1 0x40 PUSH1 0x0 KECCAK256 SLOAD PUSH2 0xF66 DUP3 DUP14 PUSH2 0x271D JUMP JUMPDEST MSTORE PUSH2 0x270E JUMP JUMPDEST PUSH2 0xDF5 JUMP JUMPDEST DUP2 SWAP3 POP SWAP1 PUSH2 0xF7E SWAP2 PUSH2 0x2701 JUMP JUMPDEST SWAP1 DUP3 PUSH2 0xD84 JUMP JUMPDEST CALLVALUE PUSH2 0x1AE JUMPI PUSH2 0xF93 CALLDATASIZE PUSH2 0x23FB JUMP JUMPDEST SWAP1 PUSH1 0x0 MSTORE PUSH1 0x8 PUSH1 0x20 MSTORE PUSH1 0x40 PUSH1 0x0 KECCAK256 SWAP1 PUSH1 0x0 MSTORE PUSH1 0x20 MSTORE PUSH1 0x20 PUSH1 0xFF PUSH1 0x40 PUSH1 0x0 KECCAK256 SLOAD AND PUSH2 0xFBC DUP2 PUSH2 0x2451 JUMP JUMPDEST PUSH1 0x40 MLOAD SWAP1 DUP2 MSTORE RETURN JUMPDEST CALLVALUE PUSH2 0x1AE JUMPI PUSH1 0x20 DUP1 PUSH1 0x3 NOT CALLDATASIZE ADD SLT PUSH2 0x1AE JUMPI PUSH2 0xFDE PUSH2 0x24E8 JUMP JUMPDEST CALLER PUSH1 0x0 MSTORE PUSH1 0x7 DUP3 MSTORE PUSH2 0xFF7 PUSH1 0xFF PUSH1 0x40 PUSH1 0x0 KECCAK256 SLOAD AND PUSH2 0x2666 JUMP JUMPDEST PUSH1 0x1 PUSH1 0x1 PUSH1 0xA0 SHL SUB AND SWAP1 DUP2 ISZERO PUSH2 0x10A1 JUMPI DUP2 PUSH1 0x0 MSTORE PUSH1 0x7 DUP2 MSTORE PUSH1 0xFF PUSH1 0x40 PUSH1 0x0 KECCAK256 SLOAD AND PUSH2 0x105D JUMPI PUSH1 0x7 SWAP1 DUP3 PUSH1 0x0 MSTORE MSTORE PUSH1 0x40 PUSH1 0x0 KECCAK256 PUSH1 0x1 PUSH1 0xFF NOT DUP3 SLOAD AND OR SWAP1 SSTORE CALLER SWAP1 PUSH32 0xBF3F493C772C8C283FD124432C2D0F539AB343FAA04258FE88E52912D36B102B PUSH1 0x0 DUP1 LOG3 STOP JUMPDEST PUSH1 0x64 SWAP1 PUSH1 0x40 MLOAD SWAP1 PUSH3 0x461BCD PUSH1 0xE5 SHL DUP3 MSTORE PUSH1 0x4 DUP3 ADD MSTORE PUSH1 0x1B PUSH1 0x24 DUP3 ADD MSTORE PUSH32 0x4164647265737320697320616C726561647920616E2061646D696E0000000000 PUSH1 0x44 DUP3 ADD MSTORE REVERT JUMPDEST PUSH1 0x64 SWAP1 PUSH1 0x40 MLOAD SWAP1 PUSH3 0x461BCD PUSH1 0xE5 SHL DUP3 MSTORE PUSH1 0x4 DUP3 ADD MSTORE PUSH1 0x15 PUSH1 0x24 DUP3 ADD MSTORE PUSH21 0x496E76616C69642061646D696E2061646472657373 PUSH1 0x58 SHL PUSH1 0x44 DUP3 ADD MSTORE REVERT JUMPDEST CALLVALUE PUSH2 0x1AE JUMPI PUSH1 0x60 CALLDATASIZE PUSH1 0x3 NOT ADD SLT PUSH2 0x1AE JUMPI PUSH1 0x4 CALLDATALOAD PUSH1 0x24 CALLDATALOAD SWAP1 PUSH1 0x44 CALLDATALOAD SWAP2 PUSH2 0x1106 PUSH1 0x0 SLOAD DUP4 LT PUSH2 0x26BD JUMP JUMPDEST DUP2 PUSH1 0x0 MSTORE PUSH1 0x20 SWAP2 PUSH1 0x4 DUP4 MSTORE PUSH1 0x40 PUSH1 0x0 KECCAK256 SLOAD DUP1 PUSH2 0x1122 DUP7 DUP6 PUSH2 0x2A3D JUMP JUMPDEST GT PUSH2 0x125D JUMPI JUMPDEST POP PUSH2 0x1132 DUP5 PUSH2 0x2747 JUMP JUMPDEST SWAP3 PUSH2 0x113C DUP6 PUSH2 0x2747 JUMP JUMPDEST PUSH2 0x1145 DUP7 PUSH2 0x2747 JUMP JUMPDEST SWAP6 PUSH2 0x114F DUP2 PUSH2 0x2747 JUMP JUMPDEST SWAP4 PUSH2 0x1159 DUP3 PUSH2 0x2A4A JUMP JUMPDEST SWAP6 PUSH1 0x0 JUMPDEST DUP4 DUP2 LT PUSH2 0x11C5 JUMPI POP PUSH2 0x118E DUP9 PUSH2 0x18B DUP10 PUSH2 0x11B7 DUP11 PUSH2 0x11A9 DUP16 PUSH2 0x119B DUP14 DUP14 PUSH1 0x40 MLOAD SWAP11 DUP12 SWAP11 PUSH1 0xA0 DUP13 MSTORE PUSH1 0xA0 DUP13 ADD SWAP1 PUSH2 0x2599 JUMP JUMPDEST SWAP2 DUP11 DUP4 SUB SWAP1 DUP12 ADD MSTORE PUSH2 0x25CD JUMP JUMPDEST SWAP1 DUP8 DUP3 SUB PUSH1 0x40 DUP10 ADD MSTORE PUSH2 0x2599 JUMP JUMPDEST SWAP1 DUP6 DUP3 SUB PUSH1 0x60 DUP8 ADD MSTORE PUSH2 0x2599 JUMP JUMPDEST SWAP1 DUP4 DUP3 SUB PUSH1 0x80 DUP6 ADD MSTORE PUSH2 0x260A JUMP JUMPDEST DUP1 PUSH2 0x123D PUSH1 0x5 DUP12 DUP14 PUSH2 0x1226 DUP6 DUP13 PUSH2 0x11F5 PUSH2 0x11E2 PUSH2 0x1258 SWAP11 DUP13 PUSH2 0x2A3D JUMP JUMPDEST DUP13 PUSH1 0x0 MSTORE PUSH1 0x3 DUP1 SWAP4 MSTORE PUSH1 0x40 PUSH1 0x0 KECCAK256 PUSH2 0x280D JUMP JUMPDEST POP SWAP5 PUSH2 0x1203 DUP4 DUP8 SLOAD SWAP3 PUSH2 0x271D JUMP JUMPDEST MSTORE PUSH1 0x2 DUP6 ADD SLOAD PUSH1 0x1 PUSH1 0x1 PUSH1 0xA0 SHL SUB AND PUSH2 0x121C DUP4 DUP16 PUSH2 0x271D JUMP JUMPDEST MSTORE DUP5 ADD SLOAD SWAP3 PUSH2 0x271D JUMP JUMPDEST MSTORE PUSH1 0x4 DUP2 ADD SLOAD PUSH2 0x1236 DUP6 DUP14 PUSH2 0x271D JUMP JUMPDEST MSTORE ADD PUSH2 0x2999 JUMP JUMPDEST PUSH2 0x1247 DUP3 DUP12 PUSH2 0x271D JUMP JUMPDEST MSTORE PUSH2 0x1252 DUP2 DUP11 PUSH2 0x271D JUMP JUMPDEST POP PUSH2 0x270E JUMP JUMPDEST PUSH2 0x115D JUMP JUMPDEST PUSH2 0x126A SWAP2 SWAP5 POP DUP3 SWAP1 PUSH2 0x2701 JUMP JUMPDEST SWAP3 DUP5 PUSH2 0x1128 JUMP JUMPDEST CALLVALUE PUSH2 0x1AE JUMPI PUSH1 0x20 CALLDATASIZE PUSH1 0x3 NOT ADD SLT PUSH2 0x1AE JUMPI PUSH1 0x4 CALLDATALOAD CALLER PUSH1 0x0 MSTORE PUSH1 0x7 PUSH1 0x20 MSTORE PUSH2 0x129F PUSH1 0xFF PUSH1 0x40 PUSH1 0x0 KECCAK256 SLOAD AND PUSH2 0x2666 JUMP JUMPDEST PUSH2 0x12AC PUSH1 0x0 SLOAD DUP3 LT PUSH2 0x26BD JUMP JUMPDEST DUP1 PUSH1 0x0 MSTORE PUSH1 0x2 PUSH1 0x20 MSTORE PUSH1 0xFF PUSH1 0x5 PUSH1 0x40 PUSH1 0x0 KECCAK256 ADD SLOAD PUSH1 0xA0 SHR AND PUSH2 0x12CD DUP2 PUSH2 0x2451 JUMP JUMPDEST PUSH2 0x131C JUMPI PUSH1 0x0 DUP2 DUP2 MSTORE PUSH1 0x2 PUSH1 0x20 MSTORE PUSH1 0x40 DUP2 KECCAK256 PUSH1 0x5 ADD DUP1 SLOAD PUSH1 0xFF PUSH1 0xA0 SHL NOT AND PUSH1 0x1 PUSH1 0xA1 SHL OR SWAP1 SSTORE CALLER SWAP2 SWAP1 PUSH32 0x87DB840FF4C837529BFFBE56C147E42C89BA5BB9867ECE76BF0E9C43DFDC4553 SWAP1 DUP1 LOG3 STOP JUMPDEST PUSH1 0x40 MLOAD PUSH3 0x461BCD PUSH1 0xE5 SHL DUP2 MSTORE PUSH1 0x20 PUSH1 0x4 DUP3 ADD MSTORE PUSH1 0x1E PUSH1 0x24 DUP3 ADD MSTORE PUSH32 0x43616E206F6E6C792064656C657465206163746976652074656E646572730000 PUSH1 0x44 DUP3 ADD MSTORE PUSH1 0x64 SWAP1 REVERT JUMPDEST CALLVALUE PUSH2 0x1AE JUMPI PUSH1 0x40 CALLDATASIZE PUSH1 0x3 NOT ADD SLT PUSH2 0x1AE JUMPI PUSH1 0x4 CALLDATALOAD PUSH2 0x137D PUSH2 0x24FE JUMP JUMPDEST PUSH2 0x138A PUSH1 0x0 SLOAD DUP4 LT PUSH2 0x26BD JUMP JUMPDEST DUP2 PUSH1 0x0 MSTORE PUSH1 0x20 SWAP1 PUSH1 0x2 DUP3 MSTORE PUSH1 0x1 DUP1 PUSH1 0xA0 SHL SUB SWAP2 DUP3 PUSH1 0x5 PUSH1 0x40 PUSH1 0x0 KECCAK256 ADD SLOAD AND CALLER EQ DUP1 ISZERO PUSH2 0x14E2 JUMPI JUMPDEST PUSH2 0x13BA SWAP1 PUSH2 0x2870 JUMP JUMPDEST DUP4 PUSH1 0x0 MSTORE PUSH1 0x2 DUP2 MSTORE PUSH2 0x13D6 PUSH1 0xFF PUSH1 0x9 PUSH1 0x40 PUSH1 0x0 KECCAK256 ADD SLOAD AND PUSH2 0x28CC JUMP JUMPDEST DUP3 DUP3 AND SWAP3 DUP4 PUSH1 0x0 MSTORE PUSH1 0x5 DUP3 MSTORE PUSH1 0xFF PUSH1 0x40 PUSH1 0x0 KECCAK256 SLOAD AND ISZERO PUSH2 0x149D JUMPI DUP5 PUSH1 0x0 MSTORE PUSH1 0x2 DUP3 MSTORE PUSH1 0xA PUSH1 0x40 PUSH1 0x0 KECCAK256 ADD PUSH1 0x40 MLOAD SWAP2 DUP3 DUP5 DUP4 SLOAD SWAP2 DUP3 DUP2 MSTORE ADD SWAP3 PUSH1 0x0 MSTORE DUP5 PUSH1 0x0 KECCAK256 SWAP2 PUSH1 0x0 SWAP1 JUMPDEST DUP3 DUP3 LT PUSH2 0x1484 JUMPI DUP10 DUP10 PUSH2 0x145B DUP11 PUSH1 0x2 DUP12 PUSH2 0x1449 PUSH2 0x1443 DUP14 PUSH2 0x143D DUP2 DUP16 SUB DUP3 PUSH2 0x2471 JUMP JUMPDEST DUP6 PUSH2 0x2829 JUMP JUMPDEST ISZERO PUSH2 0x2910 JUMP JUMPDEST DUP6 PUSH1 0x0 MSTORE MSTORE PUSH1 0xA PUSH1 0x40 PUSH1 0x0 KECCAK256 ADD PUSH2 0x2974 JUMP JUMPDEST CALLER SWAP2 PUSH32 0xDE33C585CFB5B14CBCD6CC7190AB5323942D7214E2B178C9CC95D23CB210C3BA PUSH1 0x0 DUP1 LOG4 STOP JUMPDEST DUP4 SLOAD DUP2 AND DUP6 MSTORE SWAP4 DUP7 ADD SWAP4 PUSH1 0x1 SWAP4 DUP5 ADD SWAP4 SWAP1 SWAP2 ADD SWAP1 PUSH2 0x141A JUMP JUMPDEST PUSH1 0x40 MLOAD PUSH3 0x461BCD PUSH1 0xE5 SHL DUP2 MSTORE PUSH1 0x4 DUP2 ADD DUP4 SWAP1 MSTORE PUSH1 0x1D PUSH1 0x24 DUP3 ADD MSTORE PUSH32 0x56656E646F72206D757374206265207665726966696564206669727374000000 PUSH1 0x44 DUP3 ADD MSTORE PUSH1 0x64 SWAP1 REVERT JUMPDEST POP CALLER PUSH1 0x0 SWAP1 DUP2 MSTORE PUSH1 0x7 DUP3 MSTORE PUSH1 0x40 SWAP1 KECCAK256 SLOAD PUSH1 0xFF AND PUSH2 0x13B1 JUMP JUMPDEST CALLVALUE PUSH2 0x1AE JUMPI PUSH1 0x20 CALLDATASIZE PUSH1 0x3 NOT ADD SLT PUSH2 0x1AE JUMPI PUSH1 0x4 CALLDATALOAD PUSH2 0x151B PUSH1 0x0 SLOAD DUP3 LT PUSH2 0x26BD JUMP JUMPDEST PUSH1 0x0 MSTORE PUSH1 0x4 PUSH1 0x20 MSTORE PUSH1 0x20 PUSH1 0x40 PUSH1 0x0 KECCAK256 SLOAD PUSH1 0x40 MLOAD SWAP1 DUP2 MSTORE RETURN JUMPDEST CALLVALUE PUSH2 0x1AE JUMPI PUSH1 0x0 CALLDATASIZE PUSH1 0x3 NOT ADD SLT PUSH2 0x1AE JUMPI PUSH1 0x20 PUSH1 0x0 SLOAD PUSH1 0x40 MLOAD SWAP1 DUP2 MSTORE RETURN JUMPDEST CALLVALUE PUSH2 0x1AE JUMPI PUSH1 0x20 DUP1 PUSH1 0x3 NOT CALLDATASIZE ADD SLT PUSH2 0x1AE JUMPI PUSH2 0x156B PUSH2 0x24E8 JUMP JUMPDEST CALLER PUSH1 0x0 MSTORE PUSH1 0x7 DUP3 MSTORE PUSH2 0x1584 PUSH1 0xFF PUSH1 0x40 PUSH1 0x0 KECCAK256 SLOAD AND PUSH2 0x2666 JUMP JUMPDEST PUSH1 0x1 PUSH1 0x1 PUSH1 0xA0 SHL SUB AND SWAP1 DUP2 ISZERO PUSH2 0x1630 JUMPI DUP2 PUSH1 0x0 MSTORE PUSH1 0x5 DUP2 MSTORE PUSH1 0xFF PUSH1 0x40 PUSH1 0x0 KECCAK256 SLOAD AND PUSH2 0x15EC JUMPI PUSH32 0x2CA953176AA01B668D419905DC4E16224FCFB9D4C49E1324E6DCB797D5D1F90D SWAP1 DUP3 PUSH1 0x0 MSTORE PUSH1 0x5 DUP2 MSTORE PUSH1 0x40 PUSH1 0x0 KECCAK256 PUSH1 0x1 PUSH1 0xFF NOT DUP3 SLOAD AND OR SWAP1 SSTORE PUSH1 0x40 MLOAD TIMESTAMP DUP2 MSTORE LOG2 STOP JUMPDEST PUSH1 0x64 SWAP1 PUSH1 0x40 MLOAD SWAP1 PUSH3 0x461BCD PUSH1 0xE5 SHL DUP3 MSTORE PUSH1 0x4 DUP3 ADD MSTORE PUSH1 0x17 PUSH1 0x24 DUP3 ADD MSTORE PUSH32 0x56656E646F7220616C7265616479207665726966696564000000000000000000 PUSH1 0x44 DUP3 ADD MSTORE REVERT JUMPDEST PUSH1 0x64 SWAP1 PUSH1 0x40 MLOAD SWAP1 PUSH3 0x461BCD PUSH1 0xE5 SHL DUP3 MSTORE PUSH1 0x4 DUP3 ADD MSTORE PUSH1 0x16 PUSH1 0x24 DUP3 ADD MSTORE PUSH22 0x496E76616C69642076656E646F722061646472657373 PUSH1 0x50 SHL PUSH1 0x44 DUP3 ADD MSTORE REVERT JUMPDEST CALLVALUE PUSH2 0x1AE JUMPI PUSH1 0x40 CALLDATASIZE PUSH1 0x3 NOT ADD SLT PUSH2 0x1AE JUMPI PUSH1 0x24 CALLDATALOAD PUSH1 0x1 PUSH1 0x1 PUSH1 0x40 SHL SUB DUP2 GT PUSH2 0x1AE JUMPI PUSH2 0x169D SWAP1 CALLDATASIZE SWAP1 PUSH1 0x4 ADD PUSH2 0x252B JUMP JUMPDEST PUSH2 0x16AC PUSH1 0x0 SLOAD PUSH1 0x4 CALLDATALOAD LT PUSH2 0x26BD JUMP JUMPDEST PUSH1 0x4 CALLDATALOAD PUSH1 0x0 MSTORE PUSH1 0x2 PUSH1 0x20 MSTORE PUSH1 0x1 DUP1 PUSH1 0xA0 SHL SUB PUSH1 0x5 PUSH1 0x40 PUSH1 0x0 KECCAK256 ADD SLOAD AND CALLER EQ DUP1 ISZERO PUSH2 0x18E9 JUMPI JUMPDEST PUSH2 0x16DA SWAP1 PUSH2 0x2870 JUMP JUMPDEST PUSH1 0x4 CALLDATALOAD PUSH1 0x0 MSTORE PUSH1 0x2 PUSH1 0x20 MSTORE PUSH2 0x16F9 PUSH1 0xFF PUSH1 0x9 PUSH1 0x40 PUSH1 0x0 KECCAK256 ADD SLOAD AND PUSH2 0x28CC JUMP JUMPDEST DUP1 MLOAD ISZERO PUSH2 0x18AC JUMPI PUSH1 0x14 DUP2 MLOAD GT PUSH2 0x185B JUMPI PUSH1 0x0 JUMPDEST DUP2 MLOAD DUP2 LT ISZERO PUSH2 0x1859 JUMPI PUSH1 0x1 PUSH1 0x1 PUSH1 0xA0 SHL SUB PUSH2 0x1727 DUP3 DUP5 PUSH2 0x271D JUMP JUMPDEST MLOAD AND DUP1 PUSH1 0x0 MSTORE PUSH1 0x5 PUSH1 0x20 MSTORE PUSH1 0xFF PUSH1 0x40 PUSH1 0x0 KECCAK256 SLOAD AND ISZERO PUSH2 0x1809 JUMPI PUSH1 0x4 CALLDATALOAD PUSH1 0x0 MSTORE PUSH1 0x2 PUSH1 0x20 MSTORE PUSH1 0xA PUSH1 0x40 PUSH1 0x0 KECCAK256 ADD PUSH1 0x40 MLOAD SWAP1 DUP2 PUSH1 0x20 DUP3 SLOAD SWAP2 DUP3 DUP2 MSTORE ADD SWAP2 PUSH1 0x0 MSTORE PUSH1 0x20 PUSH1 0x0 KECCAK256 SWAP1 PUSH1 0x0 SWAP1 JUMPDEST DUP1 DUP3 LT PUSH2 0x17E7 JUMPI POP POP POP PUSH2 0x1443 DUP3 PUSH2 0x1791 PUSH2 0x17E2 SWAP7 SWAP6 SWAP5 PUSH2 0x1797 SWAP5 SUB DUP3 PUSH2 0x2471 JUMP JUMPDEST DUP4 PUSH2 0x2829 JUMP JUMPDEST PUSH1 0x4 CALLDATALOAD PUSH1 0x0 MSTORE PUSH1 0x2 PUSH1 0x20 MSTORE PUSH2 0x17B3 DUP2 PUSH1 0xA PUSH1 0x40 PUSH1 0x0 KECCAK256 ADD PUSH2 0x2974 JUMP JUMPDEST CALLER SWAP1 PUSH1 0x4 CALLDATALOAD PUSH32 0xDE33C585CFB5B14CBCD6CC7190AB5323942D7214E2B178C9CC95D23CB210C3BA PUSH1 0x0 DUP1 LOG4 PUSH2 0x270E JUMP JUMPDEST PUSH2 0x170C JUMP JUMPDEST DUP3 SLOAD PUSH1 0x1 PUSH1 0x1 PUSH1 0xA0 SHL SUB AND DUP5 MSTORE PUSH1 0x20 SWAP1 SWAP4 ADD SWAP3 PUSH1 0x1 SWAP3 DUP4 ADD SWAP3 SWAP1 SWAP2 ADD SWAP1 PUSH2 0x176F JUMP JUMPDEST PUSH1 0x40 MLOAD PUSH3 0x461BCD PUSH1 0xE5 SHL DUP2 MSTORE PUSH1 0x20 PUSH1 0x4 DUP3 ADD MSTORE PUSH1 0x22 PUSH1 0x24 DUP3 ADD MSTORE PUSH32 0x416C6C2076656E646F7273206D75737420626520766572696669656420666972 PUSH1 0x44 DUP3 ADD MSTORE PUSH2 0x1CDD PUSH1 0xF2 SHL PUSH1 0x64 DUP3 ADD MSTORE PUSH1 0x84 SWAP1 REVERT JUMPDEST STOP JUMPDEST PUSH1 0x40 MLOAD PUSH3 0x461BCD PUSH1 0xE5 SHL DUP2 MSTORE PUSH1 0x20 PUSH1 0x4 DUP3 ADD MSTORE PUSH1 0x23 PUSH1 0x24 DUP3 ADD MSTORE PUSH32 0x546F6F206D616E792076656E646F727320746F20617070726F7665206174206F PUSH1 0x44 DUP3 ADD MSTORE PUSH3 0x6E6365 PUSH1 0xE8 SHL PUSH1 0x64 DUP3 ADD MSTORE PUSH1 0x84 SWAP1 REVERT JUMPDEST PUSH1 0x40 MLOAD PUSH3 0x461BCD PUSH1 0xE5 SHL DUP2 MSTORE PUSH1 0x20 PUSH1 0x4 DUP3 ADD MSTORE PUSH1 0x15 PUSH1 0x24 DUP3 ADD MSTORE PUSH21 0x4E6F2076656E646F727320746F20617070726F7665 PUSH1 0x58 SHL PUSH1 0x44 DUP3 ADD MSTORE PUSH1 0x64 SWAP1 REVERT JUMPDEST POP CALLER PUSH1 0x0 SWAP1 DUP2 MSTORE PUSH1 0x7 PUSH1 0x20 MSTORE PUSH1 0x40 SWAP1 KECCAK256 SLOAD PUSH1 0xFF AND PUSH2 0x16D1 JUMP JUMPDEST CALLVALUE PUSH2 0x1AE JUMPI PUSH1 0x20 CALLDATASIZE PUSH1 0x3 NOT ADD SLT PUSH2 0x1AE JUMPI PUSH1 0x4 CALLDATALOAD PUSH2 0x1923 PUSH1 0x0 SLOAD DUP3 LT PUSH2 0x26BD JUMP JUMPDEST PUSH1 0x0 DUP2 DUP2 MSTORE PUSH1 0x2 PUSH1 0x20 MSTORE PUSH1 0x40 SWAP1 KECCAK256 PUSH1 0x5 ADD SLOAD PUSH1 0x1 PUSH1 0x1 PUSH1 0xA0 SHL SUB AND CALLER SUB PUSH2 0x19B9 JUMPI DUP1 PUSH1 0x0 MSTORE PUSH1 0x2 PUSH1 0x20 MSTORE PUSH2 0x196E PUSH1 0xFF PUSH1 0x5 PUSH1 0x40 PUSH1 0x0 KECCAK256 ADD SLOAD PUSH1 0xA0 SHR AND PUSH2 0x1968 DUP2 PUSH2 0x2451 JUMP JUMPDEST ISZERO PUSH2 0x27CA JUMP JUMPDEST PUSH1 0x0 DUP2 DUP2 MSTORE PUSH1 0x2 PUSH1 0x20 MSTORE PUSH1 0x40 DUP2 KECCAK256 PUSH1 0x5 ADD DUP1 SLOAD PUSH1 0xFF PUSH1 0xA0 SHL NOT AND PUSH1 0x1 PUSH1 0xA1 SHL OR SWAP1 SSTORE CALLER SWAP2 SWAP1 PUSH32 0x116BCF29F123D8A1761E1B9BEBBC345A1F08879DAFDE27B887A89E6E0B7AF019 SWAP1 DUP1 LOG3 STOP JUMPDEST PUSH1 0x40 MLOAD PUSH3 0x461BCD PUSH1 0xE5 SHL DUP2 MSTORE PUSH1 0x20 PUSH1 0x4 DUP3 ADD MSTORE PUSH1 0x29 PUSH1 0x24 DUP3 ADD MSTORE PUSH32 0x4F6E6C792074656E646572206F776E65722063616E20706572666F726D207468 PUSH1 0x44 DUP3 ADD MSTORE PUSH9 0x34B99030B1BA34B7B7 PUSH1 0xB9 SHL PUSH1 0x64 DUP3 ADD MSTORE PUSH1 0x84 SWAP1 REVERT JUMPDEST CALLVALUE PUSH2 0x1AE JUMPI PUSH1 0x20 DUP1 PUSH1 0x3 NOT CALLDATASIZE ADD SLT PUSH2 0x1AE JUMPI PUSH2 0x1A2A PUSH2 0x24E8 JUMP JUMPDEST CALLER PUSH1 0x0 MSTORE PUSH1 0x7 DUP3 MSTORE PUSH2 0x1A43 PUSH1 0xFF PUSH1 0x40 PUSH1 0x0 KECCAK256 SLOAD AND PUSH2 0x2666 JUMP JUMPDEST PUSH1 0x1 PUSH1 0x1 PUSH1 0xA0 SHL SUB AND SWAP1 CALLER DUP3 EQ PUSH2 0x1AEC JUMPI DUP2 PUSH1 0x0 MSTORE PUSH1 0x7 DUP2 MSTORE PUSH1 0xFF PUSH1 0x40 PUSH1 0x0 KECCAK256 SLOAD AND ISZERO PUSH2 0x1AA8 JUMPI PUSH1 0x7 SWAP1 DUP3 PUSH1 0x0 MSTORE MSTORE PUSH1 0x40 PUSH1 0x0 KECCAK256 PUSH1 0xFF NOT DUP2 SLOAD AND SWAP1 SSTORE CALLER SWAP1 PUSH32 0xDB9D5D31320DAF5BC7181D565B6DA4D12E30F0F4D5AA324A992426C14A1D19CE PUSH1 0x0 DUP1 LOG3 STOP JUMPDEST PUSH1 0x64 SWAP1 PUSH1 0x40 MLOAD SWAP1 PUSH3 0x461BCD PUSH1 0xE5 SHL DUP3 MSTORE PUSH1 0x4 DUP3 ADD MSTORE PUSH1 0x17 PUSH1 0x24 DUP3 ADD MSTORE PUSH32 0x41646472657373206973206E6F7420616E2061646D696E000000000000000000 PUSH1 0x44 DUP3 ADD MSTORE REVERT JUMPDEST PUSH1 0x64 SWAP1 PUSH1 0x40 MLOAD SWAP1 PUSH3 0x461BCD PUSH1 0xE5 SHL DUP3 MSTORE PUSH1 0x4 DUP3 ADD MSTORE PUSH1 0x12 PUSH1 0x24 DUP3 ADD MSTORE PUSH18 0x21B0B73737BA103932B6B7BB329039B2B633 PUSH1 0x71 SHL PUSH1 0x44 DUP3 ADD MSTORE REVERT JUMPDEST CALLVALUE PUSH2 0x1AE JUMPI PUSH1 0x60 CALLDATASIZE PUSH1 0x3 NOT ADD SLT PUSH2 0x1AE JUMPI PUSH1 0x1 PUSH1 0x1 PUSH1 0x40 SHL SUB PUSH1 0x44 PUSH1 0x4 CALLDATALOAD PUSH1 0x24 DUP1 CALLDATALOAD SWAP1 DUP4 CALLDATALOAD DUP6 DUP2 GT PUSH2 0x1AE JUMPI PUSH2 0x1B5F SWAP1 CALLDATASIZE SWAP1 PUSH1 0x4 ADD PUSH2 0x2492 JUMP JUMPDEST SWAP5 PUSH2 0x1B6D PUSH1 0x0 SLOAD DUP6 LT PUSH2 0x26BD JUMP JUMPDEST DUP4 PUSH1 0x0 MSTORE PUSH1 0x2 SWAP1 PUSH1 0x20 SWAP3 DUP3 DUP5 MSTORE PUSH2 0x1B95 PUSH1 0xFF PUSH1 0x5 PUSH1 0x40 PUSH1 0x0 KECCAK256 ADD SLOAD PUSH1 0xA0 SHR AND PUSH2 0x1968 DUP2 PUSH2 0x2451 JUMP JUMPDEST DUP6 PUSH1 0x0 MSTORE DUP3 DUP5 MSTORE PUSH1 0x3 PUSH1 0x40 PUSH1 0x0 KECCAK256 ADD SLOAD TIMESTAMP LT ISZERO PUSH2 0x205A JUMPI DUP6 PUSH1 0x0 MSTORE DUP3 DUP5 MSTORE PUSH1 0x4 PUSH1 0x40 PUSH1 0x0 KECCAK256 ADD SLOAD DUP6 LT PUSH2 0x2018 JUMPI PUSH1 0x0 DUP7 DUP2 MSTORE DUP4 DUP6 MSTORE PUSH1 0x40 SWAP1 KECCAK256 PUSH1 0x5 ADD SLOAD PUSH1 0x1 PUSH1 0x1 PUSH1 0xA0 SHL SUB SWAP8 SWAP1 DUP9 AND CALLER EQ PUSH2 0x1FD6 JUMPI DUP7 PUSH1 0x0 MSTORE PUSH1 0x6 DUP6 MSTORE PUSH1 0x40 PUSH1 0x0 KECCAK256 CALLER PUSH1 0x0 MSTORE DUP6 MSTORE PUSH1 0xFF PUSH1 0x40 PUSH1 0x0 KECCAK256 SLOAD AND PUSH2 0x1F85 JUMPI DUP7 PUSH1 0x0 MSTORE DUP4 DUP6 MSTORE PUSH1 0xFF PUSH1 0x9 PUSH1 0x40 PUSH1 0x0 KECCAK256 ADD SLOAD AND ISZERO DUP1 ISZERO PUSH2 0x1F25 JUMPI JUMPDEST ISZERO PUSH2 0x1ECE JUMPI POP PUSH1 0x1 SWAP3 DUP4 SLOAD SWAP8 PUSH2 0x1C34 DUP10 PUSH2 0x270E JUMP JUMPDEST DUP6 SSTORE DUP8 PUSH1 0x0 MSTORE PUSH1 0x4 DUP7 MSTORE PUSH1 0x40 PUSH1 0x0 KECCAK256 PUSH2 0x1C4D DUP2 SLOAD PUSH2 0x270E JUMP JUMPDEST SWAP1 SSTORE DUP8 PUSH1 0x0 MSTORE PUSH1 0x3 DUP7 MSTORE PUSH1 0x40 PUSH1 0x0 KECCAK256 SWAP1 PUSH1 0x40 MLOAD SWAP3 PUSH1 0xC0 DUP5 ADD DUP5 DUP2 LT DUP8 DUP3 GT OR PUSH2 0x1EB9 JUMPI SWAP1 DUP13 SWAP7 SWAP6 SWAP5 SWAP4 SWAP3 SWAP2 PUSH1 0x40 MSTORE DUP12 DUP5 MSTORE DUP9 DUP5 ADD SWAP2 DUP12 DUP4 MSTORE PUSH1 0x40 DUP6 ADD SWAP2 CALLER DUP4 MSTORE PUSH1 0x60 DUP7 ADD SWAP4 DUP13 DUP6 MSTORE PUSH1 0x80 DUP8 ADD SWAP6 TIMESTAMP DUP8 MSTORE PUSH1 0xA0 DUP9 ADD SWAP11 DUP12 MSTORE DUP1 SLOAD SWAP1 PUSH1 0x1 PUSH1 0x40 SHL DUP3 LT ISZERO PUSH2 0x1EA4 JUMPI SWAP1 PUSH2 0x1CC2 SWAP2 DUP14 DUP3 ADD DUP2 SSTORE PUSH2 0x280D JUMP JUMPDEST SWAP8 SWAP1 SWAP8 PUSH2 0x1E8F JUMPI SWAP1 PUSH1 0x5 SWAP8 SWAP7 SWAP6 SWAP5 SWAP4 SWAP3 SWAP2 MLOAD DUP8 SSTORE MLOAD DUP12 DUP8 ADD SSTORE DUP6 ADD SWAP2 MLOAD AND PUSH12 0xFFFFFFFFFFFFFFFFFFFFFFFF PUSH1 0xA0 SHL DUP3 SLOAD AND OR SWAP1 SSTORE MLOAD PUSH1 0x3 DUP4 ADD SSTORE MLOAD PUSH1 0x4 DUP3 ADD SSTORE ADD SWAP3 MLOAD SWAP1 DUP2 MLOAD SWAP3 DUP4 GT PUSH2 0x1E7B JUMPI POP PUSH2 0x1D1A DUP4 SLOAD PUSH2 0x2779 JUMP JUMPDEST PUSH1 0x1F DUP2 GT PUSH2 0x1E4B JUMPI JUMPDEST POP DUP5 SWAP1 PUSH1 0x1F DUP4 GT PUSH1 0x1 EQ PUSH2 0x1DC0 JUMPI SWAP2 DUP1 PUSH32 0xCFE407E98F349AD37514E1F908D19F08A2CD86855B90E505FB3C58AB5A68F203 SWAP8 SWAP7 SWAP5 SWAP3 PUSH1 0x40 SWAP7 SWAP5 PUSH1 0x0 SWAP3 PUSH2 0x1DB5 JUMPI JUMPDEST POP POP PUSH1 0x0 NOT PUSH1 0x3 DUP4 SWAP1 SHL SHR NOT AND SWAP1 DUP4 SHL OR SWAP1 SSTORE JUMPDEST DUP6 PUSH1 0x0 MSTORE PUSH1 0x6 DUP3 MSTORE DUP3 PUSH1 0x0 KECCAK256 CALLER PUSH1 0x0 MSTORE DUP3 MSTORE DUP3 PUSH1 0x0 KECCAK256 SWAP1 PUSH1 0xFF NOT DUP3 SLOAD AND OR SWAP1 SSTORE DUP2 MLOAD SWAP3 DUP4 MSTORE DUP3 ADD MSTORE DUP1 PUSH2 0x1DB0 CALLER SWAP7 PUSH1 0x40 DUP4 ADD SWAP1 PUSH2 0x2411 JUMP JUMPDEST SUB SWAP1 LOG4 STOP JUMPDEST ADD MLOAD SWAP1 POP DUP12 DUP1 PUSH2 0x1D64 JUMP JUMPDEST SWAP1 PUSH1 0x1F NOT DUP4 AND SWAP2 DUP5 PUSH1 0x0 MSTORE DUP7 PUSH1 0x0 KECCAK256 SWAP3 PUSH1 0x0 JUMPDEST DUP2 DUP2 LT PUSH2 0x1E36 JUMPI POP SWAP3 DUP7 SWAP5 SWAP2 SWAP3 PUSH1 0x40 SWAP8 SWAP4 DUP4 PUSH32 0xCFE407E98F349AD37514E1F908D19F08A2CD86855B90E505FB3C58AB5A68F203 SWAP12 SWAP11 SWAP9 SWAP7 LT PUSH2 0x1E1D JUMPI JUMPDEST POP POP POP DUP2 SHL ADD SWAP1 SSTORE PUSH2 0x1D78 JUMP JUMPDEST ADD MLOAD PUSH1 0x0 NOT PUSH1 0xF8 DUP5 PUSH1 0x3 SHL AND SHR NOT AND SWAP1 SSTORE DUP12 DUP1 DUP1 PUSH2 0x1E10 JUMP JUMPDEST DUP3 DUP5 ADD MLOAD DUP6 SSTORE SWAP4 DUP8 ADD SWAP4 SWAP3 DUP9 ADD SWAP3 DUP9 ADD PUSH2 0x1DD3 JUMP JUMPDEST PUSH2 0x1E75 SWAP1 DUP5 PUSH1 0x0 MSTORE DUP7 PUSH1 0x0 KECCAK256 PUSH1 0x1F DUP6 ADD PUSH1 0x5 SHR DUP2 ADD SWAP2 DUP9 DUP7 LT PUSH2 0x611 JUMPI PUSH1 0x1F ADD PUSH1 0x5 SHR ADD SWAP1 PUSH2 0x27B3 JUMP JUMPDEST DUP10 PUSH2 0x1D23 JUMP JUMPDEST PUSH4 0x4E487B71 PUSH1 0xE0 SHL PUSH1 0x0 SWAP1 DUP2 MSTORE PUSH1 0x41 PUSH1 0x4 MSTORE REVERT JUMPDEST DUP9 PUSH4 0x4E487B71 PUSH1 0xE0 SHL PUSH1 0x0 MSTORE PUSH1 0x0 PUSH1 0x4 MSTORE PUSH1 0x0 REVERT JUMPDEST DUP10 PUSH4 0x4E487B71 PUSH1 0xE0 SHL PUSH1 0x0 MSTORE PUSH1 0x41 PUSH1 0x4 MSTORE PUSH1 0x0 REVERT JUMPDEST DUP6 PUSH4 0x4E487B71 PUSH1 0xE0 SHL PUSH1 0x0 MSTORE PUSH1 0x41 PUSH1 0x4 MSTORE PUSH1 0x0 REVERT JUMPDEST PUSH32 0x41646472657373206E6F7420616C6C6F77656420746F20626964206F6E207072 DUP6 SWAP2 PUSH1 0x2C PUSH1 0x84 SWAP5 PUSH1 0x40 MLOAD SWAP5 PUSH3 0x461BCD PUSH1 0xE5 SHL DUP7 MSTORE PUSH1 0x4 DUP7 ADD MSTORE DUP5 ADD MSTORE DUP3 ADD MSTORE PUSH12 0x34BB30BA32903A32B73232B9 PUSH1 0xA1 SHL PUSH1 0x64 DUP3 ADD MSTORE REVERT JUMPDEST POP PUSH1 0xA PUSH1 0x40 PUSH1 0x0 KECCAK256 ADD PUSH1 0x40 MLOAD SWAP1 DUP2 DUP8 DUP3 SLOAD SWAP2 DUP3 DUP2 MSTORE ADD SWAP2 PUSH1 0x0 MSTORE DUP8 PUSH1 0x0 KECCAK256 SWAP1 PUSH1 0x0 JUMPDEST DUP10 DUP14 DUP4 DUP4 LT PUSH2 0x1F70 JUMPI POP POP POP POP POP SWAP1 PUSH2 0x1F65 DUP2 PUSH2 0x1F6B SWAP4 SUB DUP3 PUSH2 0x2471 JUMP JUMPDEST CALLER PUSH2 0x2829 JUMP JUMPDEST PUSH2 0x1C1F JUMP JUMPDEST DUP5 SLOAD AND DUP6 MSTORE SWAP1 SWAP4 ADD SWAP3 PUSH1 0x1 SWAP3 DUP4 ADD SWAP3 ADD PUSH2 0x1F47 JUMP JUMPDEST PUSH32 0x416464726573732068617320616C726561647920626964206F6E207468697320 DUP6 SWAP2 PUSH1 0x26 PUSH1 0x84 SWAP5 PUSH1 0x40 MLOAD SWAP5 PUSH3 0x461BCD PUSH1 0xE5 SHL DUP7 MSTORE PUSH1 0x4 DUP7 ADD MSTORE DUP5 ADD MSTORE DUP3 ADD MSTORE PUSH6 0x3A32B73232B9 PUSH1 0xD1 SHL PUSH1 0x64 DUP3 ADD MSTORE REVERT JUMPDEST PUSH32 0x4F776E65722063616E6E6F7420626964206F6E206F776E2074656E6465720000 DUP6 SWAP2 PUSH1 0x1E PUSH1 0x64 SWAP5 PUSH1 0x40 MLOAD SWAP5 PUSH3 0x461BCD PUSH1 0xE5 SHL DUP7 MSTORE PUSH1 0x4 DUP7 ADD MSTORE DUP5 ADD MSTORE DUP3 ADD MSTORE REVERT JUMPDEST DUP4 PUSH32 0x42696420616D6F756E742069732062656C6F77206D696E696D756D0000000000 DUP9 PUSH1 0x1B PUSH1 0x64 SWAP5 PUSH1 0x40 MLOAD SWAP5 PUSH3 0x461BCD PUSH1 0xE5 SHL DUP7 MSTORE PUSH1 0x4 DUP7 ADD MSTORE DUP5 ADD MSTORE DUP3 ADD MSTORE REVERT JUMPDEST DUP4 PUSH32 0x54656E64657220646561646C696E652068617320706173736564000000000000 DUP9 PUSH1 0x1A PUSH1 0x64 SWAP5 PUSH1 0x40 MLOAD SWAP5 PUSH3 0x461BCD PUSH1 0xE5 SHL DUP7 MSTORE PUSH1 0x4 DUP7 ADD MSTORE DUP5 ADD MSTORE DUP3 ADD MSTORE REVERT JUMPDEST CALLVALUE PUSH2 0x1AE JUMPI PUSH1 0x20 CALLDATASIZE PUSH1 0x3 NOT ADD SLT PUSH2 0x1AE JUMPI PUSH1 0x4 CALLDATALOAD PUSH2 0x20BD PUSH1 0x0 SLOAD DUP3 LT PUSH2 0x26BD JUMP JUMPDEST PUSH1 0x0 MSTORE PUSH1 0x2 PUSH1 0x20 MSTORE PUSH2 0x2139 PUSH1 0x40 PUSH1 0x0 KECCAK256 PUSH1 0x3 DUP2 ADD SLOAD DUP2 PUSH1 0x4 DUP2 ADD SLOAD PUSH1 0x5 DUP3 ADD SLOAD PUSH1 0xFF DUP2 PUSH1 0xA0 SHR AND PUSH1 0x6 DUP5 ADD SLOAD PUSH1 0x7 DUP6 ADD SLOAD SWAP2 PUSH1 0x8 DUP7 ADD SLOAD SWAP4 PUSH1 0xFF PUSH1 0x9 DUP9 ADD SLOAD AND SWAP6 PUSH1 0x4 PUSH1 0x20 MSTORE PUSH2 0x2147 PUSH2 0x2124 PUSH1 0x2 PUSH2 0x211D PUSH1 0x1 PUSH1 0x40 PUSH1 0x0 KECCAK256 SLOAD SWAP13 ADD PUSH2 0x2999 JUMP JUMPDEST SWAP13 ADD PUSH2 0x2999 JUMP JUMPDEST PUSH1 0x40 MLOAD SWAP13 DUP14 SWAP13 DUP14 PUSH2 0x160 SWAP1 DUP2 DUP2 MSTORE ADD SWAP1 PUSH2 0x2411 JUMP JUMPDEST DUP13 DUP2 SUB PUSH1 0x20 DUP15 ADD MSTORE SWAP1 PUSH2 0x2411 JUMP JUMPDEST PUSH1 0x40 DUP12 ADD SWAP10 SWAP1 SWAP10 MSTORE PUSH1 0x60 DUP11 ADD MSTORE PUSH1 0x1 PUSH1 0x1 PUSH1 0xA0 SHL SUB AND PUSH1 0x80 DUP10 ADD MSTORE PUSH2 0x216B DUP2 PUSH2 0x2451 JUMP JUMPDEST PUSH1 0xA0 DUP9 ADD MSTORE PUSH1 0xC0 DUP8 ADD MSTORE PUSH1 0xE0 DUP7 ADD MSTORE PUSH2 0x100 DUP6 ADD MSTORE ISZERO ISZERO PUSH2 0x120 DUP5 ADD MSTORE PUSH2 0x140 DUP4 ADD MSTORE SUB SWAP1 RETURN JUMPDEST CALLVALUE PUSH2 0x1AE JUMPI PUSH2 0x21A0 CALLDATASIZE PUSH2 0x23FB JUMP JUMPDEST PUSH2 0x21AD PUSH1 0x0 SLOAD DUP4 LT PUSH2 0x26BD JUMP JUMPDEST PUSH1 0x0 DUP3 DUP2 MSTORE PUSH1 0x2 PUSH1 0x20 DUP2 DUP2 MSTORE PUSH1 0x40 SWAP1 SWAP3 KECCAK256 PUSH1 0x5 ADD SLOAD PUSH1 0x1 PUSH1 0x1 PUSH1 0xA0 SHL SUB SWAP4 SWAP1 DUP5 AND CALLER SUB PUSH2 0x23AB JUMPI DUP5 PUSH1 0x0 MSTORE PUSH1 0x4 DUP4 MSTORE PUSH1 0x40 PUSH1 0x0 KECCAK256 SLOAD ISZERO PUSH2 0x2366 JUMPI DUP5 PUSH1 0x0 MSTORE PUSH1 0x4 DUP4 MSTORE PUSH1 0x40 PUSH1 0x0 KECCAK256 SLOAD DUP2 LT ISZERO PUSH2 0x232B JUMPI DUP5 PUSH1 0x0 MSTORE PUSH1 0x3 DUP4 MSTORE PUSH2 0x2212 DUP2 PUSH1 0x40 PUSH1 0x0 KECCAK256 PUSH2 0x280D JUMP JUMPDEST POP PUSH1 0x0 DUP7 DUP2 MSTORE DUP4 DUP6 MSTORE PUSH1 0x40 DUP2 KECCAK256 PUSH1 0x5 DUP2 ADD DUP1 SLOAD PUSH1 0xFF PUSH1 0xA0 SHL NOT AND PUSH1 0x1 PUSH1 0xA0 SHL OR SWAP1 SSTORE PUSH1 0x6 ADD DUP4 SWAP1 SSTORE SWAP1 SWAP5 SWAP1 JUMPDEST DUP7 PUSH1 0x0 MSTORE PUSH1 0x4 DUP6 MSTORE PUSH1 0x40 PUSH1 0x0 KECCAK256 SLOAD DUP2 LT ISZERO PUSH2 0x22FC JUMPI PUSH2 0x22D7 SWAP1 DUP4 DUP2 SUB PUSH2 0x22DC JUMPI DUP8 PUSH1 0x0 MSTORE PUSH1 0x8 DUP7 MSTORE PUSH1 0x40 PUSH1 0x0 KECCAK256 DUP2 PUSH1 0x0 MSTORE DUP7 MSTORE PUSH1 0x40 PUSH1 0x0 KECCAK256 PUSH1 0x1 PUSH1 0xFF NOT DUP3 SLOAD AND OR SWAP1 SSTORE JUMPDEST DUP8 PUSH1 0x0 MSTORE PUSH1 0x8 DUP7 MSTORE PUSH1 0x40 PUSH1 0x0 KECCAK256 DUP2 PUSH1 0x0 MSTORE DUP7 MSTORE DUP1 DUP9 PUSH32 0x4AA7738A92AF9E45957404446628F5F9128894B91E659D5D6862155A135CC4FD DUP9 PUSH1 0xFF PUSH1 0x40 PUSH1 0x0 KECCAK256 SLOAD AND PUSH2 0x22CB DUP2 PUSH2 0x2451 JUMP JUMPDEST PUSH1 0x40 MLOAD SWAP1 DUP2 MSTORE LOG3 PUSH2 0x270E JUMP JUMPDEST PUSH2 0x223E JUMP JUMPDEST PUSH1 0x8 DUP7 MSTORE PUSH1 0x40 PUSH1 0x0 DUP2 DUP2 KECCAK256 DUP4 DUP3 MSTORE DUP9 MSTORE KECCAK256 DUP1 SLOAD PUSH1 0xFF NOT AND DUP7 OR SWAP1 SSTORE PUSH2 0x2282 JUMP JUMPDEST POP SWAP3 POP SWAP3 ADD SLOAD AND SWAP2 PUSH32 0x1D55E6E90839A2FDA24BADF424840911B1A64F510BB58ACE92B0F12BA1851A35 PUSH1 0x0 DUP1 LOG4 STOP JUMPDEST PUSH1 0x40 MLOAD PUSH3 0x461BCD PUSH1 0xE5 SHL DUP2 MSTORE PUSH1 0x4 DUP2 ADD DUP5 SWAP1 MSTORE PUSH1 0x13 PUSH1 0x24 DUP3 ADD MSTORE PUSH19 0x125B9D985B1A59081DDA5B9B9A5B99C8189A59 PUSH1 0x6A SHL PUSH1 0x44 DUP3 ADD MSTORE PUSH1 0x64 SWAP1 REVERT JUMPDEST PUSH1 0x40 MLOAD PUSH3 0x461BCD PUSH1 0xE5 SHL DUP2 MSTORE PUSH1 0x4 DUP2 ADD DUP5 SWAP1 MSTORE PUSH1 0x1D PUSH1 0x24 DUP3 ADD MSTORE PUSH32 0x4E6F206269647320746F2073656C6563742077696E6E65722066726F6D000000 PUSH1 0x44 DUP3 ADD MSTORE PUSH1 0x64 SWAP1 REVERT JUMPDEST PUSH1 0x40 MLOAD PUSH3 0x461BCD PUSH1 0xE5 SHL DUP2 MSTORE PUSH1 0x4 DUP2 ADD DUP5 SWAP1 MSTORE PUSH1 0x22 PUSH1 0x24 DUP3 ADD MSTORE PUSH32 0x4F6E6C792074656E646572206F776E65722063616E20636C6F73652074656E64 PUSH1 0x44 DUP3 ADD MSTORE PUSH2 0x32B9 PUSH1 0xF1 SHL PUSH1 0x64 DUP3 ADD MSTORE PUSH1 0x84 SWAP1 REVERT JUMPDEST PUSH1 0x40 SWAP1 PUSH1 0x3 NOT ADD SLT PUSH2 0x1AE JUMPI PUSH1 0x4 CALLDATALOAD SWAP1 PUSH1 0x24 CALLDATALOAD SWAP1 JUMP JUMPDEST SWAP2 SWAP1 DUP3 MLOAD SWAP3 DUP4 DUP3 MSTORE PUSH1 0x0 JUMPDEST DUP5 DUP2 LT PUSH2 0x243D JUMPI POP POP DUP3 PUSH1 0x0 PUSH1 0x20 DUP1 SWAP5 SWAP6 DUP5 ADD ADD MSTORE PUSH1 0x1F DUP1 NOT SWAP2 ADD AND ADD ADD SWAP1 JUMP JUMPDEST PUSH1 0x20 DUP2 DUP4 ADD DUP2 ADD MLOAD DUP5 DUP4 ADD DUP3 ADD MSTORE ADD PUSH2 0x241C JUMP JUMPDEST PUSH1 0x3 GT ISZERO PUSH2 0x245B JUMPI JUMP JUMPDEST PUSH4 0x4E487B71 PUSH1 0xE0 SHL PUSH1 0x0 MSTORE PUSH1 0x21 PUSH1 0x4 MSTORE PUSH1 0x24 PUSH1 0x0 REVERT JUMPDEST SWAP1 PUSH1 0x1F DUP1 NOT SWAP2 ADD AND DUP2 ADD SWAP1 DUP2 LT PUSH1 0x1 PUSH1 0x1 PUSH1 0x40 SHL SUB DUP3 GT OR PUSH2 0x548 JUMPI PUSH1 0x40 MSTORE JUMP JUMPDEST DUP2 PUSH1 0x1F DUP3 ADD SLT ISZERO PUSH2 0x1AE JUMPI DUP1 CALLDATALOAD SWAP1 PUSH1 0x1 PUSH1 0x1 PUSH1 0x40 SHL SUB DUP3 GT PUSH2 0x548 JUMPI PUSH1 0x40 MLOAD SWAP3 PUSH2 0x24C6 PUSH1 0x1F DUP5 ADD PUSH1 0x1F NOT AND PUSH1 0x20 ADD DUP6 PUSH2 0x2471 JUMP JUMPDEST DUP3 DUP5 MSTORE PUSH1 0x20 DUP4 DUP4 ADD ADD GT PUSH2 0x1AE JUMPI DUP2 PUSH1 0x0 SWAP3 PUSH1 0x20 DUP1 SWAP4 ADD DUP4 DUP7 ADD CALLDATACOPY DUP4 ADD ADD MSTORE SWAP1 JUMP JUMPDEST PUSH1 0x4 CALLDATALOAD SWAP1 PUSH1 0x1 PUSH1 0x1 PUSH1 0xA0 SHL SUB DUP3 AND DUP3 SUB PUSH2 0x1AE JUMPI JUMP JUMPDEST PUSH1 0x24 CALLDATALOAD SWAP1 PUSH1 0x1 PUSH1 0x1 PUSH1 0xA0 SHL SUB DUP3 AND DUP3 SUB PUSH2 0x1AE JUMPI JUMP JUMPDEST PUSH1 0x1 PUSH1 0x1 PUSH1 0x40 SHL SUB DUP2 GT PUSH2 0x548 JUMPI PUSH1 0x5 SHL PUSH1 0x20 ADD SWAP1 JUMP JUMPDEST DUP2 PUSH1 0x1F DUP3 ADD SLT ISZERO PUSH2 0x1AE JUMPI DUP1 CALLDATALOAD SWAP2 PUSH2 0x2542 DUP4 PUSH2 0x2514 JUMP JUMPDEST SWAP3 PUSH2 0x2550 PUSH1 0x40 MLOAD SWAP5 DUP6 PUSH2 0x2471 JUMP JUMPDEST DUP1 DUP5 MSTORE PUSH1 0x20 SWAP3 DUP4 DUP1 DUP7 ADD SWAP3 PUSH1 0x5 SHL DUP3 ADD ADD SWAP3 DUP4 GT PUSH2 0x1AE JUMPI DUP4 ADD SWAP1 JUMPDEST DUP3 DUP3 LT PUSH2 0x257A JUMPI POP POP POP POP SWAP1 JUMP JUMPDEST DUP2 CALLDATALOAD PUSH1 0x1 PUSH1 0x1 PUSH1 0xA0 SHL SUB DUP2 AND DUP2 SUB PUSH2 0x1AE JUMPI DUP2 MSTORE SWAP1 DUP4 ADD SWAP1 DUP4 ADD PUSH2 0x256C JUMP JUMPDEST SWAP1 DUP2 MLOAD DUP1 DUP3 MSTORE PUSH1 0x20 DUP1 DUP1 SWAP4 ADD SWAP4 ADD SWAP2 PUSH1 0x0 JUMPDEST DUP3 DUP2 LT PUSH2 0x25B9 JUMPI POP POP POP POP SWAP1 JUMP JUMPDEST DUP4 MLOAD DUP6 MSTORE SWAP4 DUP2 ADD SWAP4 SWAP3 DUP2 ADD SWAP3 PUSH1 0x1 ADD PUSH2 0x25AB JUMP JUMPDEST SWAP1 DUP2 MLOAD DUP1 DUP3 MSTORE PUSH1 0x20 DUP1 DUP1 SWAP4 ADD SWAP4 ADD SWAP2 PUSH1 0x0 JUMPDEST DUP3 DUP2 LT PUSH2 0x25ED JUMPI POP POP POP POP SWAP1 JUMP JUMPDEST DUP4 MLOAD PUSH1 0x1 PUSH1 0x1 PUSH1 0xA0 SHL SUB AND DUP6 MSTORE SWAP4 DUP2 ADD SWAP4 SWAP3 DUP2 ADD SWAP3 PUSH1 0x1 ADD PUSH2 0x25DF JUMP JUMPDEST SWAP1 DUP1 DUP3 MLOAD SWAP1 DUP2 DUP2 MSTORE PUSH1 0x20 DUP1 SWAP2 ADD SWAP3 DUP2 DUP1 DUP5 PUSH1 0x5 SHL DUP4 ADD ADD SWAP6 ADD SWAP4 PUSH1 0x0 SWAP2 JUMPDEST DUP5 DUP4 LT PUSH2 0x2638 JUMPI POP POP POP POP POP POP SWAP1 JUMP JUMPDEST SWAP1 SWAP2 SWAP3 SWAP4 SWAP5 SWAP6 DUP5 DUP1 PUSH2 0x2656 PUSH1 0x1 SWAP4 PUSH1 0x1F NOT DUP7 DUP3 SUB ADD DUP8 MSTORE DUP11 MLOAD PUSH2 0x2411 JUMP JUMPDEST SWAP9 ADD SWAP4 ADD SWAP4 ADD SWAP2 SWAP5 SWAP4 SWAP3 SWAP1 PUSH2 0x2628 JUMP JUMPDEST ISZERO PUSH2 0x266D JUMPI JUMP JUMPDEST PUSH1 0x40 MLOAD PUSH3 0x461BCD PUSH1 0xE5 SHL DUP2 MSTORE PUSH1 0x20 PUSH1 0x4 DUP3 ADD MSTORE PUSH1 0x22 PUSH1 0x24 DUP3 ADD MSTORE PUSH32 0x4F6E6C792061646D696E2063616E20706572666F726D20746869732061637469 PUSH1 0x44 DUP3 ADD MSTORE PUSH2 0x37B7 PUSH1 0xF1 SHL PUSH1 0x64 DUP3 ADD MSTORE PUSH1 0x84 SWAP1 REVERT JUMPDEST ISZERO PUSH2 0x26C4 JUMPI JUMP JUMPDEST PUSH1 0x40 MLOAD PUSH3 0x461BCD PUSH1 0xE5 SHL DUP2 MSTORE PUSH1 0x20 PUSH1 0x4 DUP3 ADD MSTORE PUSH1 0x15 PUSH1 0x24 DUP3 ADD MSTORE PUSH21 0x15195B99195C88191BD95CC81B9BDD08195E1A5CDD PUSH1 0x5A SHL PUSH1 0x44 DUP3 ADD MSTORE PUSH1 0x64 SWAP1 REVERT JUMPDEST SWAP2 SWAP1 DUP3 SUB SWAP2 DUP3 GT PUSH2 0xCD5 JUMPI JUMP JUMPDEST PUSH1 0x0 NOT DUP2 EQ PUSH2 0xCD5 JUMPI PUSH1 0x1 ADD SWAP1 JUMP JUMPDEST DUP1 MLOAD DUP3 LT ISZERO PUSH2 0x2731 JUMPI PUSH1 0x20 SWAP2 PUSH1 0x5 SHL ADD ADD SWAP1 JUMP JUMPDEST PUSH4 0x4E487B71 PUSH1 0xE0 SHL PUSH1 0x0 MSTORE PUSH1 0x32 PUSH1 0x4 MSTORE PUSH1 0x24 PUSH1 0x0 REVERT JUMPDEST SWAP1 PUSH2 0x2751 DUP3 PUSH2 0x2514 JUMP JUMPDEST PUSH2 0x275E PUSH1 0x40 MLOAD SWAP2 DUP3 PUSH2 0x2471 JUMP JUMPDEST DUP3 DUP2 MSTORE DUP1 SWAP3 PUSH2 0x276F PUSH1 0x1F NOT SWAP2 PUSH2 0x2514 JUMP JUMPDEST ADD SWAP1 PUSH1 0x20 CALLDATASIZE SWAP2 ADD CALLDATACOPY JUMP JUMPDEST SWAP1 PUSH1 0x1 DUP3 DUP2 SHR SWAP3 AND DUP1 ISZERO PUSH2 0x27A9 JUMPI JUMPDEST PUSH1 0x20 DUP4 LT EQ PUSH2 0x2793 JUMPI JUMP JUMPDEST PUSH4 0x4E487B71 PUSH1 0xE0 SHL PUSH1 0x0 MSTORE PUSH1 0x22 PUSH1 0x4 MSTORE PUSH1 0x24 PUSH1 0x0 REVERT JUMPDEST SWAP2 PUSH1 0x7F AND SWAP2 PUSH2 0x2788 JUMP JUMPDEST DUP2 DUP2 LT PUSH2 0x27BE JUMPI POP POP JUMP JUMPDEST PUSH1 0x0 DUP2 SSTORE PUSH1 0x1 ADD PUSH2 0x27B3 JUMP JUMPDEST ISZERO PUSH2 0x27D1 JUMPI JUMP JUMPDEST PUSH1 0x40 MLOAD PUSH3 0x461BCD PUSH1 0xE5 SHL DUP2 MSTORE PUSH1 0x20 PUSH1 0x4 DUP3 ADD MSTORE PUSH1 0x14 PUSH1 0x24 DUP3 ADD MSTORE PUSH20 0x54656E646572206973206E6F7420616374697665 PUSH1 0x60 SHL PUSH1 0x44 DUP3 ADD MSTORE PUSH1 0x64 SWAP1 REVERT JUMPDEST DUP1 SLOAD DUP3 LT ISZERO PUSH2 0x2731 JUMPI PUSH1 0x0 MSTORE PUSH1 0x6 PUSH1 0x20 PUSH1 0x0 KECCAK256 SWAP2 MUL ADD SWAP1 PUSH1 0x0 SWAP1 JUMP JUMPDEST PUSH1 0x0 JUMPDEST DUP3 MLOAD DUP2 LT ISZERO PUSH2 0x2868 JUMPI PUSH1 0x1 PUSH1 0x1 PUSH1 0xA0 SHL SUB DUP1 PUSH2 0x2848 DUP4 DUP7 PUSH2 0x271D JUMP JUMPDEST MLOAD AND SWAP1 DUP4 AND EQ PUSH2 0x2860 JUMPI PUSH2 0x285B SWAP1 PUSH2 0x270E JUMP JUMPDEST PUSH2 0x282C JUMP JUMPDEST POP POP POP PUSH1 0x1 SWAP1 JUMP JUMPDEST POP POP POP PUSH1 0x0 SWAP1 JUMP JUMPDEST ISZERO PUSH2 0x2877 JUMPI JUMP JUMPDEST PUSH1 0x40 MLOAD PUSH3 0x461BCD PUSH1 0xE5 SHL DUP2 MSTORE PUSH1 0x20 PUSH1 0x4 DUP3 ADD MSTORE PUSH1 0x27 PUSH1 0x24 DUP3 ADD MSTORE PUSH32 0x4F6E6C79206F776E6572206F722061646D696E2063616E20617070726F766520 PUSH1 0x44 DUP3 ADD MSTORE PUSH7 0x76656E646F7273 PUSH1 0xC8 SHL PUSH1 0x64 DUP3 ADD MSTORE PUSH1 0x84 SWAP1 REVERT JUMPDEST ISZERO PUSH2 0x28D3 JUMPI JUMP JUMPDEST PUSH1 0x40 MLOAD PUSH3 0x461BCD PUSH1 0xE5 SHL DUP2 MSTORE PUSH1 0x20 PUSH1 0x4 DUP3 ADD MSTORE PUSH1 0x15 PUSH1 0x24 DUP3 ADD MSTORE PUSH21 0x54656E646572206973206E6F742070726976617465 PUSH1 0x58 SHL PUSH1 0x44 DUP3 ADD MSTORE PUSH1 0x64 SWAP1 REVERT JUMPDEST ISZERO PUSH2 0x2917 JUMPI JUMP JUMPDEST PUSH1 0x40 MLOAD PUSH3 0x461BCD PUSH1 0xE5 SHL DUP2 MSTORE PUSH1 0x20 PUSH1 0x4 DUP3 ADD MSTORE PUSH1 0x17 PUSH1 0x24 DUP3 ADD MSTORE PUSH32 0x56656E646F7220616C726561647920617070726F766564000000000000000000 PUSH1 0x44 DUP3 ADD MSTORE PUSH1 0x64 SWAP1 REVERT JUMPDEST DUP1 SLOAD DUP3 LT ISZERO PUSH2 0x2731 JUMPI PUSH1 0x0 MSTORE PUSH1 0x20 PUSH1 0x0 KECCAK256 ADD SWAP1 PUSH1 0x0 SWAP1 JUMP JUMPDEST SWAP1 DUP2 SLOAD SWAP2 PUSH1 0x1 PUSH1 0x40 SHL DUP4 LT ISZERO PUSH2 0x548 JUMPI DUP3 PUSH2 0xBF9 SWAP2 PUSH1 0x1 PUSH2 0x2997 SWAP6 ADD DUP2 SSTORE PUSH2 0x295C JUMP JUMPDEST JUMP JUMPDEST SWAP1 PUSH1 0x40 MLOAD SWAP2 DUP3 PUSH1 0x0 DUP3 SLOAD SWAP3 PUSH2 0x29AD DUP5 PUSH2 0x2779 JUMP JUMPDEST SWAP1 DUP2 DUP5 MSTORE PUSH1 0x1 SWAP5 DUP6 DUP2 AND SWAP1 DUP2 PUSH1 0x0 EQ PUSH2 0x2A1A JUMPI POP PUSH1 0x1 EQ PUSH2 0x29D7 JUMPI JUMPDEST POP POP PUSH2 0x2997 SWAP3 POP SUB DUP4 PUSH2 0x2471 JUMP JUMPDEST SWAP1 SWAP4 SWAP2 POP PUSH1 0x0 MSTORE PUSH1 0x20 SWAP1 DUP2 PUSH1 0x0 KECCAK256 SWAP4 PUSH1 0x0 SWAP2 JUMPDEST DUP2 DUP4 LT PUSH2 0x2A02 JUMPI POP POP PUSH2 0x2997 SWAP4 POP DUP3 ADD ADD CODESIZE DUP1 PUSH2 0x29C9 JUMP JUMPDEST DUP6 SLOAD DUP9 DUP5 ADD DUP6 ADD MSTORE SWAP5 DUP6 ADD SWAP5 DUP8 SWAP5 POP SWAP2 DUP4 ADD SWAP2 PUSH2 0x29EA JUMP JUMPDEST SWAP2 POP POP PUSH2 0x2997 SWAP5 POP PUSH1 0x20 SWAP3 POP PUSH1 0xFF NOT AND DUP3 DUP5 ADD MSTORE ISZERO ISZERO PUSH1 0x5 SHL DUP3 ADD ADD CODESIZE DUP1 PUSH2 0x29C9 JUMP JUMPDEST SWAP2 SWAP1 DUP3 ADD DUP1 SWAP3 GT PUSH2 0xCD5 JUMPI JUMP JUMPDEST SWAP1 PUSH2 0x2A54 DUP3 PUSH2 0x2514 JUMP JUMPDEST PUSH2 0x2A61 PUSH1 0x40 MLOAD SWAP2 DUP3 PUSH2 0x2471 JUMP JUMPDEST DUP3 DUP2 MSTORE DUP1 SWAP3 PUSH2 0x2A72 PUSH1 0x1F NOT SWAP2 PUSH2 0x2514 JUMP JUMPDEST ADD SWAP1 PUSH1 0x0 JUMPDEST DUP3 DUP2 LT PUSH2 0x2A83 JUMPI POP POP POP JUMP JUMPDEST DUP1 PUSH1 0x60 PUSH1 0x20 DUP1 SWAP4 DUP6 ADD ADD MSTORE ADD PUSH2 0x2A77 JUMP INVALID LOG2 PUSH5 0x6970667358 0x22 SLT KECCAK256 SWAP12 0xC9 SMOD SHR DUP14 0x5C 0xD2 0xC4 NOT SHR PUSH14 0xB181E2D7467CEE1AD3430EA01BA8 NUMBER SWAP1 0xB0 0xFC 0xA7 0xB3 0xD9 PUSH5 0x736F6C6343 STOP ADDMOD GT STOP CALLER "},"methodIdentifiers":{"addAdmin(address)":"70480275","approveVendor(uint256,address)":"64bdf013","bidStatuses(uint256,uint256)":"b2693af1","bulkApproveVendors(uint256,address[])":"48b61099","cancelTender(uint256)":"3a74e070","closeTender(uint256,uint256)":"02dc6ea6","createTender(string,string,uint256,uint256,bytes32,bool,address[])":"d8bdfeb9","deleteTender(uint256)":"6b4023f4","getAllTenders(uint256,uint256)":"a686f239","getApprovedVendors(uint256)":"fe47c584","getBidStatus(uint256,uint256)":"73b82c3c","getTender(uint256)":"0585c25e","getTenderBids(uint256,uint256,uint256)":"6cb6081d","getTenderBidsCount(uint256)":"61461112","getTenderCount()":"5850b383","removeAdmin(address)":"1785f53c","revokeVendor(address)":"c789e605","revokeVendor(uint256,address)":"ac21a2bb","submitBid(uint256,uint256,string)":"14c60bdd","verifyVendor(address)":"4f778658"}}}}}