{
  "_format": "hh-sol-artifact-1",
  "contractName": "OfficerManagement",
  "sourceName": "src/contracts/OfficerManagement.sol",
  "abi": [
    {
      "inputs": [],
      "stateMutability": "nonpayable",
      "type": "constructor"
    },
    {
      "anonymous": false,
      "inputs": [
        {
          "indexed": true,
          "internalType": "address",
          "name": "walletAddress",
          "type": "address"
        },
        {
          "indexed": false,
          "internalType": "string",
          "name": "id",
          "type": "string"
        },
        {
          "indexed": false,
          "internalType": "string",
          "name": "name",
          "type": "string"
        },
        {
          "indexed": false,
          "internalType": "string",
          "name": "username",
          "type": "string"
        }
      ],
      "name": "OfficerAdded",
      "type": "event"
    },
    {
      "anonymous": false,
      "inputs": [
        {
          "indexed": true,
          "internalType": "address",
          "name": "walletAddress",
          "type": "address"
        },
        {
          "indexed": false,
          "internalType": "string",
          "name": "id",
          "type": "string"
        }
      ],
      "name": "OfficerRemoved",
      "type": "event"
    },
    {
      "anonymous": false,
      "inputs": [
        {
          "indexed": true,
          "internalType": "address",
          "name": "walletAddress",
          "type": "address"
        },
        {
          "indexed": false,
          "internalType": "bool",
          "name": "isActive",
          "type": "bool"
        }
      ],
      "name": "OfficerStatusChanged",
      "type": "event"
    },
    {
      "anonymous": false,
      "inputs": [
        {
          "indexed": true,
          "internalType": "address",
          "name": "walletAddress",
          "type": "address"
        },
        {
          "indexed": false,
          "internalType": "string",
          "name": "name",
          "type": "string"
        },
        {
          "indexed": false,
          "internalType": "string",
          "name": "username",
          "type": "string"
        }
      ],
      "name": "OfficerUpdated",
      "type": "event"
    },
    {
      "inputs": [
        {
          "internalType": "address",
          "name": "walletAddress",
          "type": "address"
        },
        {
          "internalType": "string",
          "name": "id",
          "type": "string"
        },
        {
          "internalType": "string",
          "name": "name",
          "type": "string"
        },
        {
          "internalType": "string",
          "name": "username",
          "type": "string"
        },
        {
          "internalType": "string",
          "name": "email",
          "type": "string"
        }
      ],
      "name": "addOfficer",
      "outputs": [],
      "stateMutability": "nonpayable",
      "type": "function"
    },
    {
      "inputs": [],
      "name": "admin",
      "outputs": [
        {
          "internalType": "address",
          "name": "",
          "type": "address"
        }
      ],
      "stateMutability": "view",
      "type": "function"
    },
    {
      "inputs": [],
      "name": "getAllOfficerAddresses",
      "outputs": [
        {
          "internalType": "address[]",
          "name": "",
          "type": "address[]"
        }
      ],
      "stateMutability": "view",
      "type": "function"
    },
    {
      "inputs": [
        {
          "internalType": "address",
          "name": "walletAddress",
          "type": "address"
        }
      ],
      "name": "getOfficer",
      "outputs": [
        {
          "internalType": "string",
          "name": "id",
          "type": "string"
        },
        {
          "internalType": "string",
          "name": "name",
          "type": "string"
        },
        {
          "internalType": "string",
          "name": "username",
          "type": "string"
        },
        {
          "internalType": "string",
          "name": "email",
          "type": "string"
        },
        {
          "internalType": "bool",
          "name": "isActive",
          "type": "bool"
        },
        {
          "internalType": "uint256",
          "name": "createdAt",
          "type": "uint256"
        }
      ],
      "stateMutability": "view",
      "type": "function"
    },
    {
      "inputs": [],
      "name": "getOfficerCount",
      "outputs": [
        {
          "internalType": "uint256",
          "name": "",
          "type": "uint256"
        }
      ],
      "stateMutability": "view",
      "type": "function"
    },
    {
      "inputs": [
        {
          "internalType": "address",
          "name": "walletAddress",
          "type": "address"
        }
      ],
      "name": "isOfficer",
      "outputs": [
        {
          "internalType": "bool",
          "name": "",
          "type": "bool"
        }
      ],
      "stateMutability": "view",
      "type": "function"
    },
    {
      "inputs": [
        {
          "internalType": "uint256",
          "name": "",
          "type": "uint256"
        }
      ],
      "name": "officerAddresses",
      "outputs": [
        {
          "internalType": "address",
          "name": "",
          "type": "address"
        }
      ],
      "stateMutability": "view",
      "type": "function"
    },
    {
      "inputs": [
        {
          "internalType": "address",
          "name": "",
          "type": "address"
        }
      ],
      "name": "officers",
      "outputs": [
        {
          "internalType": "string",
          "name": "id",
          "type": "string"
        },
        {
          "internalType": "string",
          "name": "name",
          "type": "string"
        },
        {
          "internalType": "string",
          "name": "username",
          "type": "string"
        },
        {
          "internalType": "string",
          "name": "email",
          "type": "string"
        },
        {
          "internalType": "bool",
          "name": "isActive",
          "type": "bool"
        },
        {
          "internalType": "uint256",
          "name": "createdAt",
          "type": "uint256"
        }
      ],
      "stateMutability": "view",
      "type": "function"
    },
    {
      "inputs": [
        {
          "internalType": "address",
          "name": "walletAddress",
          "type": "address"
        }
      ],
      "name": "removeOfficer",
      "outputs": [],
      "stateMutability": "nonpayable",
      "type": "function"
    },
    {
      "inputs": [
        {
          "internalType": "address",
          "name": "walletAddress",
          "type": "address"
        },
        {
          "internalType": "bool",
          "name": "isActive",
          "type": "bool"
        }
      ],
      "name": "setOfficerStatus",
      "outputs": [],
      "stateMutability": "nonpayable",
      "type": "function"
    },
    {
      "inputs": [
        {
          "internalType": "address",
          "name": "newAdmin",
          "type": "address"
        }
      ],
      "name": "transferAdmin",
      "outputs": [],
      "stateMutability": "nonpayable",
      "type": "function"
    },
    {
      "inputs": [
        {
          "internalType": "address",
          "name": "walletAddress",
          "type": "address"
        },
        {
          "internalType": "string",
          "name": "name",
          "type": "string"
        },
        {
          "internalType": "string",
          "name": "username",
          "type": "string"
        },
        {
          "internalType": "string",
          "name": "email",
          "type": "string"
        }
      ],
      "name": "updateOfficer",
      "outputs": [],
      "stateMutability": "nonpayable",
      "type": "function"
    },
    {
      "inputs": [
        {
          "internalType": "string",
          "name": "",
          "type": "string"
        }
      ],
      "name": "usernameExists",
      "outputs": [
        {
          "internalType": "bool",
          "name": "",
          "type": "bool"
        }
      ],
      "stateMutability": "view",
      "type": "function"
    }
  ],
  "bytecode": "0x6080806040523461002857600080546001600160a01b031916331790556116c1908161002e8239f35b600080fdfe6080604052600436101561001257600080fd5b60003560e01c806304e82d291461128a57806306296328146111c2578063084866dd146111475780631e572c0f146110935780636816442d1461104f578063719a0f8c14610e29578063728576d11461076057806375829def146106de5780639e8d7f541461020b578063bf9cf4cf14610158578063e935a2f51461013a578063f309e3f9146100d95763f851a440146100ab57600080fd5b346100d45760003660031901126100d4576000546040516001600160a01b039091168152602090f35b600080fd5b346100d45760203660031901126100d4576004356001600160401b0381116100d45760ff6101246020610111819436906004016114ee565b816040519382858094519384920161144b565b8101600381520301902054166040519015158152f35b346100d45760003660031901126100d4576020600254604051908152f35b346100d45760403660031901126100d457610171611319565b60243590811515908183036100d4577f8a40ef3e42980aa96509d3e2e04b0c037f32d7251181d8843c0cb9b3378c99df9161020260209260018060a01b03906101bf82600054163314611544565b169485600052600184526101e16101da60406000205461132f565b15156115fd565b856000526001845260046040600020019060ff801983541691151516179055565b604051908152a2005b346100d45760803660031901126100d457610224611319565b6001600160401b036024358181116100d4576102449036906004016114ee565b906044358181116100d45761025d9036906004016114ee565b6064358281116100d4576102759036906004016114ee565b60005490946001600160a01b03916102909083163314611544565b1693846000526001926020938085526102b06101da60406000205461132f565b866000528085526102c760026040600020016113a5565b81815187808401918220938851828a019581872003610658575b505050505050866000528085528060406000200186519083821161050b57610309815461132f565b91601f9283811161062a575b5080888482116001146105c7576000916105bc575b50600019600383901b1c191690841b1790555b876000528186526002604060002001855184811161050b5761035f825461132f565b83811161058e575b50808884821160011461052c57600091610521575b50600019600383901b1c191690841b1790555b87600052818652600360406000200193805193841161050b576103b2855461132f565b8281116104d3575b5086918411600114610442579280807f2ba41e3e50dd5d36d00a4b9bab6324ef9fae734dc40398301b8503405fff600c99979461043297946104259a97600094610437575b50501b916000199060031b1c19161790555b60405194859460408652604086019061146e565b918483039085015261146e565b0390a2005b015192508c806103ff565b90601f9392931983169185600052876000209260005b8181106104be57509261042598959285927f2ba41e3e50dd5d36d00a4b9bab6324ef9fae734dc40398301b8503405fff600c9b99966104329996106104a5575b505050811b019055610411565b015160001960f88460031b161c191690558a8080610498565b82840151855593860193928901928901610458565b6104fc9086600052886000208480880160051c8201928b8910610502575b0160051c01906115e6565b896103ba565b925081926104f1565b634e487b7160e01b600052604160045260246000fd5b90508701518b61037c565b859250601f19821690846000528a6000209160005b8c8c838310610579575050508311610560575b5050811b01905561038f565b89015160001960f88460031b161c191690558b80610554565b84015185558996909401939283019201610541565b6105b69083600052896000208580850160051c8201928c8610610502570160051c01906115e6565b8a610367565b90508901518b61032a565b60008481528a81208794509190601f198416908c8e5b8383106106135750505083116105fa575b5050811b01905561033d565b8b015160001960f88460031b161c191690558b806105ee565b840151855589969094019392830192018c8e6105dd565b6106529083600052896000208580850160051c8201928c8610610502570160051c01906115e6565b8a610315565b6106c29361069c9261068b60ff84878b81976106796040519485809461144b565b8101600381520301902054161561159a565b60405193849283925192839161144b565b810160038152030190209360ff1994858154169055604051809381928b5192839161144b565b81016003815203019020918254161790558781818781806102e1565b346100d45760203660031901126100d4576106f7611319565b600054906001600160a01b03906107113383851614611544565b16908115610729576001600160a01b03191617600055005b60405162461bcd60e51b815260206004820152600f60248201526e496e76616c6964206164647265737360881b6044820152606490fd5b346100d45760a03660031901126100d457610779611319565b6024356001600160401b0381116100d4576107989036906004016114ee565b906044356001600160401b0381116100d4576107b89036906004016114ee565b906064356001600160401b0381116100d4576107d89036906004016114ee565b926084356001600160401b0381116100d4576107f89036906004016114ee565b6000546001600160a01b039491906108139086163314611544565b848416600052600160205261082c60406000205461132f565b610dd45761086060ff6040516020818161084c8c8381519384920161144b565b60038183015281010301902054161561159a565b6040519061086d82611369565b8382528260208301528660408301526060820152600160808201524260a0820152848416600052600160205260406000209080518051906001600160401b03821161050b5781906108be855461132f565b601f8111610da2575b50602090601f8311600114610d3657600092610d2b575b50508160011b916000199060031b1c19161782555b60208101518051906001600160401b03821161050b578190610918600186015461132f565b601f8111610cf6575b50602090601f8311600114610c8457600092610c79575b50508160011b916000199060031b1c19161760018301555b60408101518051906001600160401b03821161050b578190610975600286015461132f565b601f8111610c44575b50602090601f8311600114610bd257600092610bc7575b50508160011b916000199060031b1c19161760028301555b60608101518051906001600160401b03821161050b576109d0600385015461132f565b601f8111610b87575b50602090601f8311600114610b125791806005949260a094600092610b07575b50508160011b916000199060031b1c19161760038501555b610a3060808201511515600486019060ff801983541691151516179055565b0151910155600254926801000000000000000084101561050b577fc5d1941eae357372bc3eacc7d6f759f515b8152b4d592a813c31368e8737e52f94610af761043293610aa984610a8a896001610ae99b016002556112cc565b90919082549060031b9160018060a01b03809116831b921b1916179055565b60405160208181610ac08d8381519384920161144b565b81016003815203019020600160ff1982541617905560405196879660608852606088019061146e565b90868203602088015261146e565b918483036040860152169561146e565b015190508b806109f9565b906003850160005260206000209160005b601f1985168110610b6f5750926005949260019260a09583601f19811610610b56575b505050811b016003850155610a11565b015160001960f88460031b161c191690558b8080610b46565b91926020600181928685015181550194019201610b23565b610bb790600386016000526020600020601f850160051c81019160208610610bbd575b601f0160051c01906115e6565b896109d9565b9091508190610baa565b015190508980610995565b9250600285016000526020600020906000935b601f1984168510610c29576001945083601f19811610610c10575b505050811b0160028301556109ad565b015160001960f88460031b161c19169055898080610c00565b81810151835560209485019460019093019290910190610be5565b610c7390600287016000526020600020601f850160051c81019160208610610bbd57601f0160051c01906115e6565b8a61097e565b015190508980610938565b9250600185016000526020600020906000935b601f1984168510610cdb576001945083601f19811610610cc2575b505050811b016001830155610950565b015160001960f88460031b161c19169055898080610cb2565b81810151835560209485019460019093019290910190610c97565b610d2590600187016000526020600020601f850160051c81019160208610610bbd57601f0160051c01906115e6565b8a610921565b0151905089806108de565b9250846000526020600020906000935b601f1984168510610d87576001945083601f19811610610d6e575b505050811b0182556108f3565b015160001960f88460031b161c19169055898080610d61565b81810151835560209485019460019093019290910190610d46565b610dce90866000526020600020601f850160051c81019160208610610bbd57601f0160051c01906115e6565b8a6108c7565b60405162461bcd60e51b815260206004820152602760248201527f4f66666963657220616c72656164792065786973747320666f722074686973206044820152666164647265737360c81b6064820152608490fd5b346100d4576020806003193601126100d457610e43611319565b6000546001600160a01b03918291610e5e9083163314611544565b169081600052600192838152610e7b6101da60406000205461132f565b826000528381526002610e93816040600020016113a5565b908460005285835285610ea960406000206113a5565b9484610ebe604051958681519384920161144b565b84019385816003968781520301902060ff1981541690556000915b610f57575b50508495610f3b600093610f346005947f814bf979c9f7f89608ec350a486866636ec790bbda23eda1ad00da146cd62ecb998752848852610f2d6040882095610f2687611642565b8601611642565b8401611642565b8201611642565b826004820155015561043260405192828493845283019061146e565b825480831015611049578782610f6c856112cc565b905490881b1c1614610fa257506000198214610f8c578780920191610ed9565b634e487b7160e01b600052601160045260246000fd5b6000989291939497981991828201918211610f8c57610a8a85610fc7610fd4946112cc565b9054908c1b1c16916112cc565b835496871561103357610f34600095600595610f3b947f814bf979c9f7f89608ec350a486866636ec790bbda23eda1ad00da146cd62ecb9b0190611017826112cc565b9091825491871b1b191690558155945050935081979650610ede565b634e487b7160e01b600052603160045260246000fd5b50610ede565b346100d45760203660031901126100d4576001600160a01b03611070611319565b166000526001602052602061108960406000205461132f565b1515604051908152f35b346100d45760203660031901126100d4576001600160a01b036110b4611319565b16600052600160205260406000206040516110ce81611369565b6110d7826113a5565b81526111436110e8600184016113a5565b91602081019283526110fc600285016113a5565b9360408201948552611110600382016113a5565b806060840152600560ff6004840154161515928360808601520154928360a0820152519451955160405196879687611493565b0390f35b346100d45760203660031901126100d4576001600160a01b03611168611319565b166000526001602052604060002061117f816113a5565b61114361118e600184016113a5565b9261119b600282016113a5565b906111a8600382016113a5565b600560ff6004840154169201549260405196879687611493565b346100d45760003660031901126100d457604051806002548083526020809301809160026000527f405787fa12a823e0f2b7631cc41b3ba8828b3321ca811111fa75cd3aa3bb5ace9060005b8682821061126d57868661122482880383611384565b604051928392818401908285525180915260408401929160005b82811061124d57505050500390f35b83516001600160a01b03168552869550938101939281019260010161123e565b83546001600160a01b03168552909301926001928301920161120e565b346100d45760203660031901126100d4576004356002548110156100d4576112b36020916112cc565b905460405160039290921b1c6001600160a01b03168152f35b6002548110156113035760026000527f405787fa12a823e0f2b7631cc41b3ba8828b3321ca811111fa75cd3aa3bb5ace0190600090565b634e487b7160e01b600052603260045260246000fd5b600435906001600160a01b03821682036100d457565b90600182811c9216801561135f575b602083101461134957565b634e487b7160e01b600052602260045260246000fd5b91607f169161133e565b60c081019081106001600160401b0382111761050b57604052565b90601f801991011681019081106001600160401b0382111761050b57604052565b90604051918260008254926113b98461132f565b90818452600194858116908160001461142857506001146113e5575b50506113e392500383611384565b565b9093915060005260209081600020936000915b8183106114105750506113e3935082010138806113d5565b855488840185015294850194879450918301916113f8565b9150506113e394506020925060ff191682840152151560051b82010138806113d5565b60005b83811061145e5750506000910152565b818101518382015260200161144e565b906020916114878151809281855285808601910161144b565b601f01601f1916010190565b926114d4906114c66114e2946114b860a098959b9a999b60c0895260c089019061146e565b90878203602089015261146e565b90858203604087015261146e565b90838203606085015261146e565b94151560808201520152565b81601f820112156100d4578035906001600160401b03821161050b5760405192611522601f8401601f191660200185611384565b828452602083830101116100d457816000926020809301838601378301015290565b1561154b57565b60405162461bcd60e51b815260206004820152602160248201527f4f6e6c792061646d696e2063616e2063616c6c20746869732066756e6374696f6044820152603760f91b6064820152608490fd5b156115a157565b60405162461bcd60e51b815260206004820152601760248201527f557365726e616d6520616c7265616479206578697374730000000000000000006044820152606490fd5b8181106115f1575050565b600081556001016115e6565b1561160457565b60405162461bcd60e51b815260206004820152601660248201527513d9999a58d95c88191bd95cc81b9bdd08195e1a5cdd60521b6044820152606490fd5b61164c815461132f565b9081611656575050565b81601f60009311600114611668575055565b908083918252611687601f60208420940160051c8401600185016115e6565b555556fea26469706673582212202df33272627eedd3c3ff6f81c3b86d5a6479306536fcfceeb1050f673b48678264736f6c63430008130033",
  "linkReferences": {},
  "deployedLinkReferences": {}
}