{
  "_format": "hh-sol-artifact-1",
  "contractName": "TenderManagement",
  "sourceName": "src/contracts/TenderManagement.sol",
  "abi": [
    {
      "inputs": [],
      "stateMutability": "nonpayable",
      "type": "constructor"
    },
    {
      "anonymous": false,
      "inputs": [
        {
          "indexed": false,
          "internalType": "string",
          "name": "bidId",
          "type": "string"
        },
        {
          "indexed": false,
          "internalType": "string",
          "name": "tenderId",
          "type": "string"
        },
        {
          "indexed": false,
          "internalType": "enum TenderManagement.BidStatus",
          "name": "status",
          "type": "uint8"
        }
      ],
      "name": "BidStatusChanged",
      "type": "event"
    },
    {
      "anonymous": false,
      "inputs": [
        {
          "indexed": false,
          "internalType": "string",
          "name": "bidId",
          "type": "string"
        },
        {
          "indexed": false,
          "internalType": "string",
          "name": "tenderId",
          "type": "string"
        },
        {
          "indexed": false,
          "internalType": "address",
          "name": "bidder",
          "type": "address"
        },
        {
          "indexed": false,
          "internalType": "uint256",
          "name": "bidAmount",
          "type": "uint256"
        }
      ],
      "name": "BidSubmitted",
      "type": "event"
    },
    {
      "anonymous": false,
      "inputs": [
        {
          "indexed": false,
          "internalType": "string",
          "name": "tenderId",
          "type": "string"
        },
        {
          "indexed": false,
          "internalType": "string",
          "name": "title",
          "type": "string"
        },
        {
          "indexed": false,
          "internalType": "address",
          "name": "createdBy",
          "type": "address"
        }
      ],
      "name": "TenderCreated",
      "type": "event"
    },
    {
      "anonymous": false,
      "inputs": [
        {
          "indexed": false,
          "internalType": "string",
          "name": "tenderId",
          "type": "string"
        },
        {
          "indexed": false,
          "internalType": "enum TenderManagement.TenderStatus",
          "name": "status",
          "type": "uint8"
        }
      ],
      "name": "TenderStatusChanged",
      "type": "event"
    },
    {
      "anonymous": false,
      "inputs": [
        {
          "indexed": false,
          "internalType": "string",
          "name": "tenderId",
          "type": "string"
        },
        {
          "indexed": false,
          "internalType": "string",
          "name": "title",
          "type": "string"
        },
        {
          "indexed": false,
          "internalType": "enum TenderManagement.TenderStatus",
          "name": "status",
          "type": "uint8"
        }
      ],
      "name": "TenderUpdated",
      "type": "event"
    },
    {
      "inputs": [],
      "name": "admin",
      "outputs": [
        {
          "internalType": "address",
          "name": "",
          "type": "address"
        }
      ],
      "stateMutability": "view",
      "type": "function"
    },
    {
      "inputs": [
        {
          "internalType": "string",
          "name": "",
          "type": "string"
        }
      ],
      "name": "bids",
      "outputs": [
        {
          "internalType": "string",
          "name": "id",
          "type": "string"
        },
        {
          "internalType": "string",
          "name": "tenderId",
          "type": "string"
        },
        {
          "internalType": "address",
          "name": "bidder",
          "type": "address"
        },
        {
          "internalType": "uint256",
          "name": "bidAmount",
          "type": "uint256"
        },
        {
          "internalType": "uint256",
          "name": "submittedAt",
          "type": "uint256"
        },
        {
          "internalType": "enum TenderManagement.BidStatus",
          "name": "status",
          "type": "uint8"
        }
      ],
      "stateMutability": "view",
      "type": "function"
    },
    {
      "inputs": [
        {
          "internalType": "string",
          "name": "bidId",
          "type": "string"
        },
        {
          "internalType": "enum TenderManagement.BidStatus",
          "name": "status",
          "type": "uint8"
        }
      ],
      "name": "changeBidStatus",
      "outputs": [],
      "stateMutability": "nonpayable",
      "type": "function"
    },
    {
      "inputs": [
        {
          "internalType": "string",
          "name": "tenderId",
          "type": "string"
        },
        {
          "internalType": "enum TenderManagement.TenderStatus",
          "name": "status",
          "type": "uint8"
        }
      ],
      "name": "changeTenderStatus",
      "outputs": [],
      "stateMutability": "nonpayable",
      "type": "function"
    },
    {
      "inputs": [
        {
          "internalType": "string",
          "name": "tenderId",
          "type": "string"
        },
        {
          "internalType": "string",
          "name": "title",
          "type": "string"
        },
        {
          "internalType": "string",
          "name": "description",
          "type": "string"
        },
        {
          "internalType": "uint256",
          "name": "estimatedValue",
          "type": "uint256"
        },
        {
          "internalType": "uint256",
          "name": "startDate",
          "type": "uint256"
        },
        {
          "internalType": "uint256",
          "name": "endDate",
          "type": "uint256"
        },
        {
          "internalType": "string",
          "name": "category",
          "type": "string"
        },
        {
          "internalType": "string",
          "name": "department",
          "type": "string"
        },
        {
          "internalType": "string",
          "name": "location",
          "type": "string"
        },
        {
          "internalType": "string[]",
          "name": "documents",
          "type": "string[]"
        }
      ],
      "name": "createTender",
      "outputs": [],
      "stateMutability": "nonpayable",
      "type": "function"
    },
    {
      "inputs": [],
      "name": "getAllTenderIds",
      "outputs": [
        {
          "internalType": "string[]",
          "name": "",
          "type": "string[]"
        }
      ],
      "stateMutability": "view",
      "type": "function"
    },
    {
      "inputs": [
        {
          "internalType": "string",
          "name": "bidId",
          "type": "string"
        }
      ],
      "name": "getBid",
      "outputs": [
        {
          "internalType": "string",
          "name": "id",
          "type": "string"
        },
        {
          "internalType": "string",
          "name": "tenderId",
          "type": "string"
        },
        {
          "internalType": "address",
          "name": "bidder",
          "type": "address"
        },
        {
          "internalType": "uint256",
          "name": "bidAmount",
          "type": "uint256"
        },
        {
          "internalType": "uint256",
          "name": "submittedAt",
          "type": "uint256"
        },
        {
          "internalType": "enum TenderManagement.BidStatus",
          "name": "status",
          "type": "uint8"
        }
      ],
      "stateMutability": "view",
      "type": "function"
    },
    {
      "inputs": [
        {
          "internalType": "string",
          "name": "bidId",
          "type": "string"
        }
      ],
      "name": "getBidDocuments",
      "outputs": [
        {
          "internalType": "string[]",
          "name": "",
          "type": "string[]"
        }
      ],
      "stateMutability": "view",
      "type": "function"
    },
    {
      "inputs": [
        {
          "internalType": "string",
          "name": "tenderId",
          "type": "string"
        }
      ],
      "name": "getTender",
      "outputs": [
        {
          "internalType": "string",
          "name": "id",
          "type": "string"
        },
        {
          "internalType": "string",
          "name": "title",
          "type": "string"
        },
        {
          "internalType": "string",
          "name": "description",
          "type": "string"
        },
        {
          "internalType": "uint256",
          "name": "estimatedValue",
          "type": "uint256"
        },
        {
          "internalType": "uint256",
          "name": "startDate",
          "type": "uint256"
        },
        {
          "internalType": "uint256",
          "name": "endDate",
          "type": "uint256"
        },
        {
          "internalType": "address",
          "name": "createdBy",
          "type": "address"
        },
        {
          "internalType": "enum TenderManagement.TenderStatus",
          "name": "status",
          "type": "uint8"
        },
        {
          "internalType": "uint256",
          "name": "createdAt",
          "type": "uint256"
        },
        {
          "internalType": "string",
          "name": "category",
          "type": "string"
        },
        {
          "internalType": "string",
          "name": "department",
          "type": "string"
        },
        {
          "internalType": "string",
          "name": "location",
          "type": "string"
        }
      ],
      "stateMutability": "view",
      "type": "function"
    },
    {
      "inputs": [
        {
          "internalType": "string",
          "name": "tenderId",
          "type": "string"
        }
      ],
      "name": "getTenderBids",
      "outputs": [
        {
          "internalType": "string[]",
          "name": "",
          "type": "string[]"
        }
      ],
      "stateMutability": "view",
      "type": "function"
    },
    {
      "inputs": [],
      "name": "getTenderCount",
      "outputs": [
        {
          "internalType": "uint256",
          "name": "",
          "type": "uint256"
        }
      ],
      "stateMutability": "view",
      "type": "function"
    },
    {
      "inputs": [
        {
          "internalType": "string",
          "name": "tenderId",
          "type": "string"
        }
      ],
      "name": "getTenderDocuments",
      "outputs": [
        {
          "internalType": "string[]",
          "name": "",
          "type": "string[]"
        }
      ],
      "stateMutability": "view",
      "type": "function"
    },
    {
      "inputs": [
        {
          "internalType": "address",
          "name": "userAddress",
          "type": "address"
        }
      ],
      "name": "getUserBids",
      "outputs": [
        {
          "internalType": "string[]",
          "name": "",
          "type": "string[]"
        }
      ],
      "stateMutability": "view",
      "type": "function"
    },
    {
      "inputs": [
        {
          "internalType": "string",
          "name": "bidId",
          "type": "string"
        },
        {
          "internalType": "string",
          "name": "tenderId",
          "type": "string"
        },
        {
          "internalType": "uint256",
          "name": "bidAmount",
          "type": "uint256"
        },
        {
          "internalType": "string[]",
          "name": "documents",
          "type": "string[]"
        }
      ],
      "name": "submitBid",
      "outputs": [],
      "stateMutability": "nonpayable",
      "type": "function"
    },
    {
      "inputs": [
        {
          "internalType": "string",
          "name": "",
          "type": "string"
        },
        {
          "internalType": "uint256",
          "name": "",
          "type": "uint256"
        }
      ],
      "name": "tenderBids",
      "outputs": [
        {
          "internalType": "string",
          "name": "",
          "type": "string"
        }
      ],
      "stateMutability": "view",
      "type": "function"
    },
    {
      "inputs": [
        {
          "internalType": "uint256",
          "name": "",
          "type": "uint256"
        }
      ],
      "name": "tenderIds",
      "outputs": [
        {
          "internalType": "string",
          "name": "",
          "type": "string"
        }
      ],
      "stateMutability": "view",
      "type": "function"
    },
    {
      "inputs": [
        {
          "internalType": "string",
          "name": "",
          "type": "string"
        }
      ],
      "name": "tenders",
      "outputs": [
        {
          "internalType": "string",
          "name": "id",
          "type": "string"
        },
        {
          "internalType": "string",
          "name": "title",
          "type": "string"
        },
        {
          "internalType": "string",
          "name": "description",
          "type": "string"
        },
        {
          "internalType": "uint256",
          "name": "estimatedValue",
          "type": "uint256"
        },
        {
          "internalType": "uint256",
          "name": "startDate",
          "type": "uint256"
        },
        {
          "internalType": "uint256",
          "name": "endDate",
          "type": "uint256"
        },
        {
          "internalType": "address",
          "name": "createdBy",
          "type": "address"
        },
        {
          "internalType": "enum TenderManagement.TenderStatus",
          "name": "status",
          "type": "uint8"
        },
        {
          "internalType": "uint256",
          "name": "createdAt",
          "type": "uint256"
        },
        {
          "internalType": "string",
          "name": "category",
          "type": "string"
        },
        {
          "internalType": "string",
          "name": "department",
          "type": "string"
        },
        {
          "internalType": "string",
          "name": "location",
          "type": "string"
        }
      ],
      "stateMutability": "view",
      "type": "function"
    },
    {
      "inputs": [
        {
          "internalType": "address",
          "name": "newAdmin",
          "type": "address"
        }
      ],
      "name": "transferAdmin",
      "outputs": [],
      "stateMutability": "nonpayable",
      "type": "function"
    },
    {
      "inputs": [
        {
          "internalType": "string",
          "name": "tenderId",
          "type": "string"
        },
        {
          "internalType": "string",
          "name": "title",
          "type": "string"
        },
        {
          "internalType": "string",
          "name": "description",
          "type": "string"
        },
        {
          "internalType": "uint256",
          "name": "estimatedValue",
          "type": "uint256"
        },
        {
          "internalType": "uint256",
          "name": "startDate",
          "type": "uint256"
        },
        {
          "internalType": "uint256",
          "name": "endDate",
          "type": "uint256"
        },
        {
          "internalType": "string",
          "name": "category",
          "type": "string"
        },
        {
          "internalType": "string",
          "name": "department",
          "type": "string"
        },
        {
          "internalType": "string",
          "name": "location",
          "type": "string"
        },
        {
          "internalType": "string[]",
          "name": "documents",
          "type": "string[]"
        }
      ],
      "name": "updateTender",
      "outputs": [],
      "stateMutability": "nonpayable",
      "type": "function"
    },
    {
      "inputs": [
        {
          "internalType": "address",
          "name": "",
          "type": "address"
        },
        {
          "internalType": "uint256",
          "name": "",
          "type": "uint256"
        }
      ],
      "name": "userBids",
      "outputs": [
        {
          "internalType": "string",
          "name": "",
          "type": "string"
        }
      ],
      "stateMutability": "view",
      "type": "function"
    }
  ],
  "bytecode": "0x6080806040523461002857600080546001600160a01b0319163317905561267c908161002e8239f35b600080fdfe6080604052600436101561001257600080fd5b60003560e01c806301cc650c14611d085780630f9fb38814611cbb578063174f769214611c2c5780632d1faf7c14611be257806333f1f39d1461176957806339c776b614611718578063526f0300146111bc5780635850b3831461119e57806362f058c81461103b5780636759789f1461100157806375829def14610f345780637ebd601914610bbd57806383f668b714610b4757806396ec50c314610ae0578063997b737f14610a1a5780639e27af8714610995578063f7bf8b9e1461058c578063f851a44014610563578063f9853713146104335763fb0998e3146100f857600080fd5b3461042e5761015e6101496101366007602061011336612152565b99899e939b9294996001999e92979698998060a01b036000541633149d8e612263565b8160405193828580945193849201611e26565b6001818301528101030190200154151561247e565b61017760208c8160405193828580945193849201611e26565b810160018152030190209460068601998a54903360018060a01b03831614908115610426575b50156103c9576005999060a01c60ff168a8110156103b35761035e578786610210956101f08f956101e7610207976001600b9f8f906102199f906101e191106122bb565b01612329565b60028c01612329565b60038a015560048901558a88015560088701612329565b60098501612329565b600a8301612329565b0190805192600160401b8411610348578254908484558185106102d4575b50506020019060005260206000206000915b8383106102b7577f5f33dd4ac582710407cc42c7d955eb11c3db69506e9d3b22f38b6e2af8cd652b61029988886102b26102a760ff8b5460a01c1692604051958695606087526060870190611f68565b908582036020870152611f68565b916040840190612086565b0390a1005b60016020826102c883945186612329565b01920192019190610249565b8360005284602060002092830192015b8281106102f15750610237565b806102fe60019254611e61565b8061030b575b50016102e4565b601f908181118414610324575050600081555b38610304565b61033f600092848452602084209201861c8201858301612312565b8183555561031e565b634e487b7160e01b600052604160045260246000fd5b60405162461bcd60e51b815260206004820152602760248201527f43616e206f6e6c79207570646174652074656e6465727320696e2044726166746044820152662073746174757360c81b6064820152608490fd5b634e487b7160e01b600052602160045260246000fd5b60405162461bcd60e51b815260206004820152602f60248201527f4f6e6c79207468652063726561746f72206f722061646d696e2063616e20757060448201526e3230ba32903a3432903a32b73232b960891b6064820152608490fd5b90503861019d565b600080fd5b3461042e57602036600319011261042e576004356001600160401b03811161042e5760206104686104a9923690600401611dd0565b60405190610498600482519385818186019661048581838a611e26565b81016003815203019020015415156124da565b604051938492839251928391611e26565b810160038152030190206040516104bf81611d78565b6104c882611e9b565b81526104d660018301611e9b565b906020810191825260018060a01b0390816002850154169360408201948552600381015492606083019384526004820154926080810193845260ff6005840154169260a082019360048110156103b3578452610534906006016125b1565b60c08201525194519551169251915190519160048310156103b35761055f9360405196879687612224565b0390f35b3461042e57600036600319011261042e576000546040516001600160a01b039091168152602090f35b3461042e57604036600319011261042e576004356001600160401b03811161042e576105bc903690600401611dd0565b6024803560058082101561042e5760018060a01b039283600054163314916105e383612263565b6040519461062b87805161061a60078a6020809c8180970195610607818389611e26565b810160018152030190200154151561247e565b604051809381928c51928391611e26565b81016001815203019020906006820194855491339083161490811561098d575b501561093157600186036107715760a01c60ff168281101561075c5761070d57015442116106b35750916102b28261069660008051602061262783398151915296946106aa9661242d565b604051948594604086526040860190611f68565b92840190612086565b83602e6084926040519262461bcd60e51b845260048401528201527f43616e6e6f74207075626c69736820612074656e64657220746861742068617360448201526d08185b1c9958591e48195b99195960921b6064820152fd5b60405162461bcd60e51b8152600481018790526022818501527f43616e206f6e6c79207075626c6973682066726f6d2044726166742073746174604482015261757360f01b6064820152608490fd5b83634e487b7160e01b60005260216004526000fd5b9050600285036108175760a01c60ff1690811015610802576001036107b35750916102b28261069660008051602061262783398151915296946106aa9661242d565b836084916040519162461bcd60e51b83526004830152808201527f43616e206f6e6c7920636c6f73652066726f6d205075626c69736865642073746044820152636174757360e01b6064820152fd5b50634e487b7160e01b60009081526021600452fd5b600385036108a45760a01c60ff1690811015610802576002036108575750916102b28261069660008051602061262783398151915296946106aa9661242d565b8360216084926040519262461bcd60e51b845260048401528201527f43616e206f6e6c792061776172642066726f6d20436c6f7365642073746174756044820152607360f81b6064820152fd5b600485146108d2575b505050916102b28261069660008051602061262783398151915296946106aa9661242d565b60a01c60ff1690811015610802576003146108ee5780806108ad565b83601f6064926040519262461bcd60e51b845260048401528201527f43616e6e6f742063616e63656c20616e20617761726465642074656e646572006044820152fd5b60405162461bcd60e51b815260048101889052602f818601527f4f6e6c79207468652063726561746f72206f722061646d696e2063616e20636860448201526e616e6765207468652073746174757360881b6064820152608490fd5b90508961064b565b3461042e57602036600319011261042e576004356001600160401b03811161042e5760206101366109ca923690600401611dd0565b810160038152030190206109dd81611e9b565b61055f6109ec60018401611e9b565b9260018060a01b0360028201541690600381015460ff60056004840154930154169260405196879687612224565b3461042e57602036600319011261042e576004356001600160401b03811161042e576020610136610a4f923690600401611dd0565b81016001815203019020610a6281611e9b565b61055f610a7160018401611e9b565b91610a7e60028501611e9b565b93600381015491600482015490600583015490600684015490600785015492610aa960088701611e9b565b94610ac2600a610abb60098a01611e9b565b9801611e9b565b976040519b8c9b60ff8760a01c169660018060a01b0316958d612093565b3461042e57604036600319011261042e57610af961213c565b6001600160a01b0316600090815260056020526040902080546024359081101561042e57610b2d610b339161055f93611e49565b90611f41565b604051918291602083526020830190611f68565b3461042e57602036600319011261042e576004356001600160401b03811161042e57610bb1600b610ba16020610b8461055f953690600401611dd0565b60405190610498600782519385818186019661060781838a611e26565b81016001815203019020016125b1565b60405191829182611f8d565b3461042e57610bcb36612152565b95610bea60018060a09c9a9c9894989795971b03600054163314612263565b600760405160208181610c038d83815193849201611e26565b810160018152030190200154610eef57610c1e8383106122bb565b60405199610c2b8b611d93565b888b528960208c015260408b015260608a0152608089015260a08801523360c0880152600060e0880152426101008801526101208701526101408601526101608501526101808401526040516020818351610c898183858801611e26565b8101600181520301902092610c9f815185612329565b610cb0602082015160018601612329565b610cc1604082015160028601612329565b606081015160038501556080810151600485015560a08101519360059485820155600681019060018060a01b0360c0840151166bffffffffffffffffffffffff60a01b83541617825560e083015190868210156103b357610d27600b926101809461242d565b6101008401516007820155610d4461012085015160088301612329565b610d5661014085015160098301612329565b610d68610160850151600a8301612329565b0191015190815191600160401b9586841161034857825490848455818510610e7b575b50506020019060005260206000206000915b838310610e5e575050505060025492831015610348576001830180600255831015610e4857610e3d610e2f92610e1b837f0540e31cb45c1b4f21657a7522027a48ff2ec55cd0711035075c1f9e8faad5649660026000527f405787fa12a823e0f2b7631cc41b3ba8828b3321ca811111fa75cd3aa3bb5ace01612329565b604051938493606085526060850190611f68565b908382036020850152611f68565b3360408301520390a1005b634e487b7160e01b600052603260045260246000fd5b6001602082610e6f83945186612329565b01920192019190610d9d565b8360005284602060002092830192015b828110610e985750610d8b565b80610ea560019254611e61565b80610eb2575b5001610e8b565b601f908181118414610ecb575050600081555b8a610eab565b610ee6600092848452602084209201861c8201858301612312565b81835555610ec5565b60405162461bcd60e51b815260206004820152601860248201527f54656e64657220494420616c72656164792065786973747300000000000000006044820152606490fd5b3461042e57602036600319011261042e57610f4d61213c565b600054906001600160a01b03908183163303610fb25716908115610f7b576001600160a01b03191617600055005b60405162461bcd60e51b815260206004820152600f60248201526e496e76616c6964206164647265737360881b6044820152606490fd5b60405162461bcd60e51b815260206004820152602160248201527f4f6e6c792061646d696e2063616e2063616c6c20746869732066756e6374696f6044820152603760f91b6064820152608490fd5b3461042e57602036600319011261042e576001600160a01b0361102261213c565b16600052600560205261055f610bb160406000206125b1565b3461042e57602036600319011261042e576004356001600160401b03811161042e576020610b84611070923690600401611dd0565b8101600181520301902060405161108681611d93565b61108f82611e9b565b815261109d60018301611e9b565b90602081019182526110b160028401611e9b565b9260408201938452600381015490606083019182526004810154926080810193845260058201549360a0820194855260068301549060c0830160ff60018060a01b0393848116835260a01c169060e085019160058110156103b3578252600786015497610100860198895261112860088801611e9b565b94610120870195865261113d60098901611e9b565b966101408101978852611166600b611157600a8c01611e9b565b9a61016084019b8c52016125b1565b610180820152519a519b5198519451915192511692519360058510156103b35761055f9951955196519751986040519c8d9c8d612093565b3461042e57600036600319011261042e576020600254604051908152f35b3461042e57604036600319011261042e576004356001600160401b03811161042e576111ec903690600401611dd0565b6024908135600481101561042e576000546004906001600160a01b03908116331461121681612263565b611248604051865161123760209683888095818d0195610485818389611e26565b604051809381928a51928391611e26565b81016003815203019020906001908183019360405160009087875461126c81611e61565b9087811690811561170357506001146116ca575b508183876006955203019020019182549133908316149081156116c2575b501561165f578683036114055750905060ff60058301541660048110156113f05761139b575460a01c60ff1660058110156113865760020361133257600080516020612607833981519152955083926102b29261130661131a97966005611327955b016124c2565b604051968796606088526060880190611f68565b918683039087015261251b565b916040840190612217565b60405162461bcd60e51b8152600481018490526027818801527f54656e646572206d75737420626520636c6f73656420746f2073686f72746c696044820152667374206269647360c81b6064820152608490fd5b86634e487b7160e01b60005260216004526000fd5b60405162461bcd60e51b8152600481018590526028818901527f43616e206f6e6c792073686f72746c6973742066726f6d205375626d69747465604482015267642073746174757360c01b6064820152608490fd5b87634e487b7160e01b60005260216004526000fd5b600287036114b857505060ff6005830154169060048210156113f05781159182156114ae575b50501561145c57600080516020612607833981519152955083926102b29261130661131a9796600561132795611300565b60405162461bcd60e51b8152600481018490526025818801527f496e76616c696420737461747573207472616e736974696f6e20746f2052656a6044820152641958dd195960da1b6064820152608490fd5b149050878061142b565b9091600387146114f0575b505050600080516020612607833981519152955083926102b29261130661131a9796600561132795611300565b60ff600585015416600481101561164a57036115f75760ff8160a01c1660058110156115e257600203611592576000805160206126078339815191529750926113068660056113279561131a9a9998956102b298600360a01b9060ff60a01b19161790556000805160206126278339815191526040516040815280611578604082018961251b565b60038a8301520390a19550505082959697508194506114c3565b60405162461bcd60e51b8152600481018690526023818a01527f54656e646572206d75737420626520636c6f73656420746f206177617264206260448201526269647360e81b6064820152608490fd5b88634e487b7160e01b60005260216004526000fd5b60405162461bcd60e51b8152600481018690526026818a01527f43616e206f6e6c792061776172642066726f6d2053686f72746c69737465642060448201526573746174757360d01b6064820152608490fd5b89634e487b7160e01b60005260216004526000fd5b60405162461bcd60e51b8152600481018790526036818b01527f4f6e6c79207468652074656e6465722063726561746f72206f722061646d696e6044820152752063616e206368616e6765206269642073746174757360501b6064820152608490fd5b90508a61129e565b909192508760005281600020866000915b8383106116ef575050508201919081611280565b8054838701528b94909201918891016116db565b60ff1916845250801515028201925081611280565b3461042e57602036600319011261042e5760043560025481101561042e57610b3361055f9160026000527f405787fa12a823e0f2b7631cc41b3ba8828b3321ca811111fa75cd3aa3bb5ace01611e9b565b3461042e57608036600319011261042e576001600160401b0360043581811161042e5761179a903690600401611dd0565b906024803582811161042e576117b4903690600401611dd0565b6044359260643590811161042e576117d0903690600401612006565b6040518251906020946118056007878701946117ed818688611e26565b8401938881600196878152030190200154151561247e565b6040519360048951958881818d019861181f81838c611e26565b810160038152030190200154611ba6576040518781885161184181838a611e26565b8101868152030190209460ff600687015460a01c169560059687811015611b91578503611b4d5760048101544210611afe578601544211611aba57896040519161188a83611d78565b8183528a8a6118f18186018c81526118e86118d6604089019433865260608a0196875260808a019742895260a08b019960008b5260c08c019c8d52604051938492839251928391611e26565b81016003815203019020975188612329565b51898701612329565b600285019060018060a01b039051166bffffffffffffffffffffffff60a01b82541617905551600384015551600483015551600481101561075c579061193b6006928883016124c2565b019051805192600160401b8411611aa6575087908254848455808510611a28575b500190600052866000206000915b838310611a0d577f589214396aefe501bdb858bb39086111764f18b0ca160c140f42dd4a0009ac916119ef8c8c6119fc8d8d8d6119c7868f856119b891604051809381928951928391611e26565b81016004815203019020612451565b3360005282526119db856040600020612451565b604051958695608087526080870190611f68565b9185830390860152611f68565b9033604084015260608301520390a1005b848982611a1c83945186612329565b0192019201919061196a565b8360005285858460002092830192015b828110611a4657505061195c565b9091929350611a558154611e61565b80611a67575b500190858a9392611a38565b601f908c828211600114611a8357505050600081555b8d611a5b565b600092611a9d91858552842092018c1c8201858301612312565b81835555611a7d565b634e487b7160e01b60009081526041600452fd5b60405162461bcd60e51b8152600481018990526018818501527f54656e6465722062696464696e672068617320656e64656400000000000000006044820152606490fd5b60405162461bcd60e51b8152600481018a90526022818601527f54656e6465722062696464696e6720686173206e6f7420737461727465642079604482015261195d60f21b6064820152608490fd5b60405162461bcd60e51b8152600481018a9052601e818601527f54656e646572206973206e6f74206f70656e20666f722062696464696e6700006044820152606490fd5b84634e487b7160e01b60005260216004526000fd5b60405162461bcd60e51b8152600481018890526015818401527442696420494420616c72656164792065786973747360581b6044820152606490fd5b3461042e57602036600319011261042e576004356001600160401b03811161042e57610bb1611c1d6020610b8461055f943690600401611dd0565b810160048152030190206125b1565b3461042e57600036600319011261042e57600254611c4981611fef565b611c566040519182611daf565b81815260209182820160026000527f405787fa12a823e0f2b7631cc41b3ba8828b3321ca811111fa75cd3aa3bb5ace936000915b838310611c9f576040518061055f8782611f8d565b6001828192611cad89611e9b565b815201960192019194611c8a565b3461042e57602036600319011261042e576004356001600160401b03811161042e57610bb16006611cf8602061046861055f953690600401611dd0565b81016003815203019020016125b1565b3461042e57604036600319011261042e576004356001600160401b03811161042e57611d38903690600401611dd0565b611d546020602435928160405193828580945193849201611e26565b8101600481520301902090815481101561042e57610b2d610b339161055f93611e49565b60e081019081106001600160401b0382111761034857604052565b6101a081019081106001600160401b0382111761034857604052565b90601f801991011681019081106001600160401b0382111761034857604052565b81601f8201121561042e578035906001600160401b0382116103485760405192611e04601f8401601f191660200185611daf565b8284526020838301011161042e57816000926020809301838601378301015290565b60005b838110611e395750506000910152565b8181015183820152602001611e29565b8054821015610e485760005260206000200190600090565b90600182811c92168015611e91575b6020831014611e7b57565b634e487b7160e01b600052602260045260246000fd5b91607f1691611e70565b9060405191826000825492611eaf84611e61565b908184526001948581169081600014611f1e5750600114611edb575b5050611ed992500383611daf565b565b9093915060005260209081600020936000915b818310611f06575050611ed993508201013880611ecb565b85548884018501529485019487945091830191611eee565b915050611ed994506020925060ff191682840152151560051b8201013880611ecb565b90611f5257611f4f90611e9b565b90565b634e487b7160e01b600052600060045260246000fd5b90602091611f8181518092818552858086019101611e26565b601f01601f1916010190565b602080820190808352835180925260408301928160408460051b8301019501936000915b848310611fc15750505050505090565b9091929394958480611fdf600193603f198682030187528a51611f68565b9801930193019194939290611fb1565b6001600160401b0381116103485760051b60200190565b9080601f8301121561042e5781359061201e82611fef565b9261202c6040519485611daf565b828452602092838086019160051b8301019280841161042e57848301915b84831061205a5750505050505090565b82356001600160401b03811161042e57869161207b84848094890101611dd0565b81520192019161204a565b9060058210156103b35752565b9a979195611f4f9c9a9561212d9a9560606120e58f9a976120d78c61210a9a61211e9f996120c990610180808552840190611f68565b916020818403910152611f68565b8c810360408e015290611f68565b99015260808d015260a08c01526001600160a01b031660c08b015260e08a0190612086565b610100880152868203610120880152611f68565b90848203610140860152611f68565b91610160818403910152611f68565b600435906001600160a01b038216820361042e57565b9061014060031983011261042e5760048035926001600160401b039384811161042e5781612181918401611dd0565b9360243581811161042e5782612198918501611dd0565b9360443582811161042e57836121af918601611dd0565b93606435936084359360a4359360c43582811161042e57836121d2918601611dd0565b9360e43583811161042e57846121e9918301611dd0565b936101043584811161042e5781612201918401611dd0565b936101243590811161042e57611f4f9201612006565b9060048210156103b35752565b919361224560a094989795610299611ed9989460c0875260c0870190611f68565b97600180861b03166040840152606083015260808201520190612217565b1561226a57565b60405162461bcd60e51b8152602060048201526024808201527f4f6e6c79206f666669636572732063616e2063616c6c20746869732066756e636044820152633a34b7b760e11b6064820152608490fd5b156122c257565b60405162461bcd60e51b815260206004820152602260248201527f53746172742064617465206d757374206265206265666f726520656e64206461604482015261746560f01b6064820152608490fd5b81811061231d575050565b60008155600101612312565b91909182516001600160401b038111610348576123468254611e61565b601f81116123f0575b50602080601f831160011461238c575081929394600092612381575b50508160011b916000199060031b1c1916179055565b01519050388061236b565b90601f198316958460005282600020926000905b8882106123d8575050836001959697106123bf575b505050811b019055565b015160001960f88460031b161c191690553880806123b5565b806001859682949686015181550195019301906123a0565b61241d90836000526020600020601f840160051c81019160208510612423575b601f0160051c0190612312565b3861234f565b9091508190612410565b9060058110156103b357815460ff60a01b191660a09190911b60ff60a01b16179055565b8054600160401b8110156103485761246e91600182018155611e49565b919091611f5257611ed991612329565b1561248557565b60405162461bcd60e51b815260206004820152601560248201527415195b99195c88191bd95cc81b9bdd08195e1a5cdd605a1b6044820152606490fd5b9060048110156103b35760ff80198354169116179055565b156124e157565b60405162461bcd60e51b8152602060048201526012602482015271109a5908191bd95cc81b9bdd08195e1a5cdd60721b6044820152606490fd5b906000929180549161252c83611e61565b91828252600193848116908160001461258e575060011461254e575b50505050565b90919394506000526020928360002092846000945b83861061257a575050505001019038808080612548565b805485870183015294019385908201612563565b9294505050602093945060ff191683830152151560051b01019038808080612548565b9081546125bd81611fef565b926125cb6040519485611daf565b818452600090815260208082208186015b8484106125ea575050505050565b60018381926125f885611e9b565b8152019201930192906125dc56fe6b65c6d5f7b922b9e476d69513675de9e14194d8d07e3497bd427fd695866177162fce656cd34b1fd506c44ef9fd09e7939a5c94a678a14c6055668cdd8aa38ea2646970667358221220fe4f426255cdc3db6fdc6a9595d84a01a646744bcdf57b2f7274eef0434a260164736f6c63430008130033",
  "linkReferences": {},
  "deployedLinkReferences": {}
}