{
  "_format": "hh-sol-artifact-1",
  "contractName": "AdminManagement",
  "sourceName": "src/contracts/AdminManagement.sol",
  "abi": [
    {
      "inputs": [
        {
          "internalType": "address",
          "name": "initialOwner",
          "type": "address"
        }
      ],
      "stateMutability": "nonpayable",
      "type": "constructor"
    },
    {
      "inputs": [
        {
          "internalType": "address",
          "name": "owner",
          "type": "address"
        }
      ],
      "name": "OwnableInvalidOwner",
      "type": "error"
    },
    {
      "inputs": [
        {
          "internalType": "address",
          "name": "account",
          "type": "address"
        }
      ],
      "name": "OwnableUnauthorizedAccount",
      "type": "error"
    },
    {
      "anonymous": false,
      "inputs": [
        {
          "indexed": true,
          "internalType": "address",
          "name": "officer",
          "type": "address"
        },
        {
          "indexed": false,
          "internalType": "string",
          "name": "name",
          "type": "string"
        }
      ],
      "name": "OfficerAppointed",
      "type": "event"
    },
    {
      "anonymous": false,
      "inputs": [
        {
          "indexed": true,
          "internalType": "address",
          "name": "officer",
          "type": "address"
        },
        {
          "indexed": false,
          "internalType": "bool",
          "name": "canCreate",
          "type": "bool"
        },
        {
          "indexed": false,
          "internalType": "bool",
          "name": "canApprove",
          "type": "bool"
        }
      ],
      "name": "OfficerPermissionsUpdated",
      "type": "event"
    },
    {
      "anonymous": false,
      "inputs": [
        {
          "indexed": true,
          "internalType": "address",
          "name": "officer",
          "type": "address"
        }
      ],
      "name": "OfficerRemoved",
      "type": "event"
    },
    {
      "anonymous": false,
      "inputs": [
        {
          "indexed": true,
          "internalType": "address",
          "name": "previousOwner",
          "type": "address"
        },
        {
          "indexed": true,
          "internalType": "address",
          "name": "newOwner",
          "type": "address"
        }
      ],
      "name": "OwnershipTransferred",
      "type": "event"
    },
    {
      "inputs": [
        {
          "internalType": "address",
          "name": "_officerAddress",
          "type": "address"
        },
        {
          "internalType": "string",
          "name": "_name",
          "type": "string"
        },
        {
          "internalType": "bool",
          "name": "_canCreateTenders",
          "type": "bool"
        },
        {
          "internalType": "bool",
          "name": "_canApproveBids",
          "type": "bool"
        }
      ],
      "name": "appointOfficer",
      "outputs": [],
      "stateMutability": "nonpayable",
      "type": "function"
    },
    {
      "inputs": [],
      "name": "getActiveOfficers",
      "outputs": [
        {
          "internalType": "address[]",
          "name": "",
          "type": "address[]"
        }
      ],
      "stateMutability": "view",
      "type": "function"
    },
    {
      "inputs": [
        {
          "internalType": "address",
          "name": "_officerAddress",
          "type": "address"
        }
      ],
      "name": "getOfficer",
      "outputs": [
        {
          "components": [
            {
              "internalType": "string",
              "name": "name",
              "type": "string"
            },
            {
              "internalType": "bool",
              "name": "canCreateTenders",
              "type": "bool"
            },
            {
              "internalType": "bool",
              "name": "canApproveBids",
              "type": "bool"
            },
            {
              "internalType": "bool",
              "name": "isActive",
              "type": "bool"
            }
          ],
          "internalType": "struct AdminManagement.Officer",
          "name": "",
          "type": "tuple"
        }
      ],
      "stateMutability": "view",
      "type": "function"
    },
    {
      "inputs": [
        {
          "internalType": "uint256",
          "name": "",
          "type": "uint256"
        }
      ],
      "name": "officerList",
      "outputs": [
        {
          "internalType": "address",
          "name": "",
          "type": "address"
        }
      ],
      "stateMutability": "view",
      "type": "function"
    },
    {
      "inputs": [
        {
          "internalType": "address",
          "name": "",
          "type": "address"
        }
      ],
      "name": "officers",
      "outputs": [
        {
          "internalType": "string",
          "name": "name",
          "type": "string"
        },
        {
          "internalType": "bool",
          "name": "canCreateTenders",
          "type": "bool"
        },
        {
          "internalType": "bool",
          "name": "canApproveBids",
          "type": "bool"
        },
        {
          "internalType": "bool",
          "name": "isActive",
          "type": "bool"
        }
      ],
      "stateMutability": "view",
      "type": "function"
    },
    {
      "inputs": [],
      "name": "owner",
      "outputs": [
        {
          "internalType": "address",
          "name": "",
          "type": "address"
        }
      ],
      "stateMutability": "view",
      "type": "function"
    },
    {
      "inputs": [
        {
          "internalType": "address",
          "name": "_officerAddress",
          "type": "address"
        }
      ],
      "name": "removeOfficer",
      "outputs": [],
      "stateMutability": "nonpayable",
      "type": "function"
    },
    {
      "inputs": [],
      "name": "renounceOwnership",
      "outputs": [],
      "stateMutability": "nonpayable",
      "type": "function"
    },
    {
      "inputs": [
        {
          "internalType": "address",
          "name": "newOwner",
          "type": "address"
        }
      ],
      "name": "transferOwnership",
      "outputs": [],
      "stateMutability": "nonpayable",
      "type": "function"
    },
    {
      "inputs": [
        {
          "internalType": "address",
          "name": "_officerAddress",
          "type": "address"
        },
        {
          "internalType": "bool",
          "name": "_canCreateTenders",
          "type": "bool"
        },
        {
          "internalType": "bool",
          "name": "_canApproveBids",
          "type": "bool"
        }
      ],
      "name": "updateOfficerPermissions",
      "outputs": [],
      "stateMutability": "nonpayable",
      "type": "function"
    }
  ],
  "bytecode": "0x6080346100bb57601f610d0a38819003918201601f19168301916001600160401b038311848410176100c0578084926020946040528339810103126100bb57516001600160a01b0390818116908190036100bb5780156100a257600080546001600160a01b03198116831782556040519316907f8be0079c531659141344cd1fd0a4f28419497f9722a3daafe3b4186f6b6457e09080a3610c3390816100d78239f35b604051631e4fbdf760e01b815260006004820152602490fd5b600080fd5b634e487b7160e01b600052604160045260246000fdfe604060808152600436101561001357600080fd5b60003560e01c8063084866dd146109185780631e572c0f1461084c57806334a3537b146104d757806348cace83146104965780634ac52c24146103c2578063715018a614610369578063719a0f8c146102e35780638da5cb5b146102ba578063c10fd6dd1461011d5763f2fde38b1461008b57600080fd5b34610118576020366003190112610118576100a4610995565b6100ac610b4f565b6001600160a01b039081169182156101015750600054826bffffffffffffffffffffffff60a01b821617600055167f8be0079c531659141344cd1fd0a4f28419497f9722a3daafe3b4186f6b6457e0600080a3005b51631e4fbdf760e01b815260006004820152602490fd5b600080fd5b5034610118576000366003190112610118576000906000600254905b81811061025d575061016261014d84610be5565b9361015a84519586610a01565b808552610be5565b6020848101929091601f19013684376000805b8282106101c557505050825193849382850191838652518092528401929160005b8281106101a557505050500390f35b83516001600160a01b031685528695509381019392810192600101610196565b6101d28297959697610b18565b60018060a01b03809254600392831b1c1660005260ff60018088528a600020015460101c16610212575b50509061020890610bc0565b9095949395610175565b61021b84610b18565b9054911b1c168551821015610247578161024091866102089460051b89010152610bc0565b90386101fc565b634e487b7160e01b600052603260045260246000fd5b61026a8194929394610b18565b60018060a01b0391549060031b1c1660005260ff60018060205285600020015460101c166102a5575b61029c90610bc0565b92919092610139565b906102b261029c91610bc0565b919050610293565b50346101185760003660031901126101185760005490516001600160a01b039091168152602090f35b50346101185760203660031901126101185760016102ff610995565b610307610b4f565b818060a01b031691826000528160205261032c60ff8383600020015460101c16610b7b565b82600052816020526000200162ff00001981541690557fc71ac73682f965d639a2f97202d5b162f5ea75f1ef0e933bad7f1db870a4c254600080a2005b3461011857600036600319011261011857610382610b4f565b600080546001600160a01b0319811682556001600160a01b03167f8be0079c531659141344cd1fd0a4f28419497f9722a3daafe3b4186f6b6457e08280a3005b5034610118576060366003190112610118576103dc610995565b60243591821515808403610118577f1409a6573d9c6d90ded7d595beb38d129f18081ae8a1018662713cbc1488041c92610487610417610b09565b8092610421610b4f565b60018060a01b03169687600052600160205261044960ff600188600020015460101c16610b7b565b87600052600160205261046f6001876000200191829060ff801983541691151516179055565b9061ff00825491151560081b169061ff001916179055565b825191825215156020820152a2005b50346101185760203660031901126101185760043590600254821015610118576104c1602092610b18565b905491519160018060a01b039160031b1c168152f35b5034610118576080366003190112610118576104f1610995565b906024359167ffffffffffffffff808411610118573660238501121561011857836004013581811161070757835194610534601f8301601f191660200187610a01565b81865236602483830101116101185781600092602460209301838901378601015261055d610b09565b9060643580151580910361011857610573610b4f565b6001600160a01b038416156108165760018060a01b038416600052600160205260ff600186600020015460101c166107d9578451926105b1846109e5565b86845215156020840152848301526001606083015260018060a01b0383166000526001602052836000209082518051918211610707576105f183546109ab565b601f8111610795575b50602090601f83116001146107285791806060949260019460009261071d575b5050600019600383901b1c191690831b1781555b019161064c60208201511515849060ff801983541691151516179055565b80850151835461ff00191690151560081b61ff00161783550151815462ff0000191690151560101b62ff0000161790556002549068010000000000000000821015610707577f51fadfdef046410e08649e65456ef08f429833c2095cd7092ee0bb0cbf519ded926106c68360016107029501600255610b18565b81549060031b9060018060a01b038516821b9160018060a01b03901b1916179055519182916020835260018060a01b0316946020830190610ac9565b0390a2005b634e487b7160e01b600052604160045260246000fd5b01519050388061061a565b90601f198316918460005260206000209260005b81811061077d57509260019491928593836060989610610764575b505050811b01815561062e565b015160001960f88460031b161c19169055388080610757565b9293602060018192878601518155019501930161073c565b836000526020600020601f840160051c8101602085106107d2575b601f830160051c820181106107c65750506105fa565b600081556001016107b0565b50806107b0565b845162461bcd60e51b81526020600482015260166024820152754f66666963657220616c72656164792065786973747360501b6044820152606490fd5b845162461bcd60e51b815260206004820152600f60248201526e496e76616c6964206164647265737360881b6044820152606490fd5b5034610118576020806003193601126101185760809161086a610995565b600060608351610879816109e5565b81815282868201528285820152015260018060a01b031660005260018252806000209160018251936108aa856109e5565b6108b381610a23565b85520154908084019260ff8316151584526108fc8186019260ff8560081c161515845260ff606088019560101c16151585528251978897828952519188015260a0870190610ac9565b9351151590850152511515606084015251151560808301520390f35b50346101185760203660031901126101185761096f906001600160a01b0361093e610995565b166000526001602052806000209060ff600161095984610a23565b9301548251948594608086526080860190610ac9565b9282821615156020860152828260081c1615159085015260101c16151560608301520390f35b600435906001600160a01b038216820361011857565b90600182811c921680156109db575b60208310146109c557565b634e487b7160e01b600052602260045260246000fd5b91607f16916109ba565b6080810190811067ffffffffffffffff82111761070757604052565b90601f8019910116810190811067ffffffffffffffff82111761070757604052565b9060405191826000825492610a37846109ab565b908184526001948581169081600014610aa65750600114610a63575b5050610a6192500383610a01565b565b9093915060005260209081600020936000915b818310610a8e575050610a6193508201013880610a53565b85548884018501529485019487945091830191610a76565b915050610a6194506020925060ff191682840152151560051b8201013880610a53565b919082519283825260005b848110610af5575050826000602080949584010152601f8019910116010190565b602081830181015184830182015201610ad4565b60443590811515820361011857565b6002548110156102475760026000527f405787fa12a823e0f2b7631cc41b3ba8828b3321ca811111fa75cd3aa3bb5ace0190600090565b6000546001600160a01b03163303610b6357565b60405163118cdaa760e01b8152336004820152602490fd5b15610b8257565b60405162461bcd60e51b815260206004820152601660248201527513d9999a58d95c88191bd95cc81b9bdd08195e1a5cdd60521b6044820152606490fd5b6000198114610bcf5760010190565b634e487b7160e01b600052601160045260246000fd5b67ffffffffffffffff81116107075760051b6020019056fea2646970667358221220498006c5bc7b499fb71a66f0a30ad1af89b2d5bd815e3885b332b6416699e69764736f6c63430008140033",
  "linkReferences": {},
  "deployedLinkReferences": {}
}