{"src/contracts/Database.sol":{"Database":{"abi":[{"inputs":[{"internalType":"address","name":"initialOwner","type":"address"}],"stateMutability":"nonpayable","type":"constructor"},{"inputs":[{"internalType":"address","name":"owner","type":"address"}],"name":"OwnableInvalidOwner","type":"error"},{"inputs":[{"internalType":"address","name":"account","type":"address"}],"name":"OwnableUnauthorizedAccount","type":"error"},{"anonymous":false,"inputs":[{"indexed":true,"internalType":"uint256","name":"tenderId","type":"uint256"},{"indexed":true,"internalType":"address","name":"bidder","type":"address"},{"indexed":false,"internalType":"uint256","name":"amount","type":"uint256"}],"name":"BidSubmitted","type":"event"},{"anonymous":false,"inputs":[{"indexed":true,"internalType":"address","name":"previousOwner","type":"address"},{"indexed":true,"internalType":"address","name":"newOwner","type":"address"}],"name":"OwnershipTransferred","type":"event"},{"anonymous":false,"inputs":[{"indexed":true,"internalType":"uint256","name":"id","type":"uint256"},{"indexed":false,"internalType":"string","name":"title","type":"string"},{"indexed":false,"internalType":"address","name":"officer","type":"address"}],"name":"TenderCreated","type":"event"},{"anonymous":false,"inputs":[{"indexed":true,"internalType":"address","name":"user","type":"address"},{"indexed":false,"internalType":"string","name":"username","type":"string"},{"indexed":false,"internalType":"bool","name":"approved","type":"bool"}],"name":"UserApproved","type":"event"},{"anonymous":false,"inputs":[{"indexed":true,"internalType":"address","name":"user","type":"address"},{"indexed":false,"internalType":"string","name":"username","type":"string"},{"indexed":false,"internalType":"enum Database.UserRole","name":"role","type":"uint8"}],"name":"UserRegistered","type":"event"},{"inputs":[{"internalType":"address","name":"_user","type":"address"},{"internalType":"bool","name":"_approved","type":"bool"},{"internalType":"string","name":"_remark","type":"string"}],"name":"approveUser","outputs":[],"stateMutability":"nonpayable","type":"function"},{"inputs":[{"internalType":"uint256","name":"","type":"uint256"},{"internalType":"uint256","name":"","type":"uint256"}],"name":"bids","outputs":[{"internalType":"uint256","name":"tenderId","type":"uint256"},{"internalType":"address","name":"bidderAddress","type":"address"},{"internalType":"uint256","name":"amount","type":"uint256"},{"internalType":"string","name":"description","type":"string"},{"internalType":"uint256","name":"submittedAt","type":"uint256"}],"stateMutability":"view","type":"function"},{"inputs":[{"internalType":"string","name":"_title","type":"string"},{"internalType":"string","name":"_description","type":"string"},{"internalType":"uint256","name":"_budget","type":"uint256"},{"internalType":"uint256","name":"_deadline","type":"uint256"}],"name":"createTender","outputs":[],"stateMutability":"nonpayable","type":"function"},{"inputs":[],"name":"getActiveTenders","outputs":[{"components":[{"internalType":"uint256","name":"id","type":"uint256"},{"internalType":"string","name":"title","type":"string"},{"internalType":"string","name":"description","type":"string"},{"internalType":"uint256","name":"budget","type":"uint256"},{"internalType":"uint256","name":"deadline","type":"uint256"},{"internalType":"address","name":"officerAddress","type":"address"},{"internalType":"bool","name":"isActive","type":"bool"},{"internalType":"uint256","name":"createdAt","type":"uint256"}],"internalType":"struct Database.Tender[]","name":"","type":"tuple[]"}],"stateMutability":"view","type":"function"},{"inputs":[{"internalType":"uint256","name":"_tenderId","type":"uint256"}],"name":"getBids","outputs":[{"components":[{"internalType":"uint256","name":"tenderId","type":"uint256"},{"internalType":"address","name":"bidderAddress","type":"address"},{"internalType":"uint256","name":"amount","type":"uint256"},{"internalType":"string","name":"description","type":"string"},{"internalType":"uint256","name":"submittedAt","type":"uint256"}],"internalType":"struct Database.Bid[]","name":"","type":"tuple[]"}],"stateMutability":"view","type":"function"},{"inputs":[{"internalType":"uint256","name":"_id","type":"uint256"}],"name":"getTender","outputs":[{"components":[{"internalType":"uint256","name":"id","type":"uint256"},{"internalType":"string","name":"title","type":"string"},{"internalType":"string","name":"description","type":"string"},{"internalType":"uint256","name":"budget","type":"uint256"},{"internalType":"uint256","name":"deadline","type":"uint256"},{"internalType":"address","name":"officerAddress","type":"address"},{"internalType":"bool","name":"isActive","type":"bool"},{"internalType":"uint256","name":"createdAt","type":"uint256"}],"internalType":"struct Database.Tender","name":"","type":"tuple"}],"stateMutability":"view","type":"function"},{"inputs":[{"internalType":"address","name":"_user","type":"address"}],"name":"getUser","outputs":[{"components":[{"internalType":"string","name":"name","type":"string"},{"internalType":"string","name":"username","type":"string"},{"internalType":"string","name":"email","type":"string"},{"internalType":"address","name":"walletAddress","type":"address"},{"internalType":"enum Database.UserRole","name":"role","type":"uint8"},{"internalType":"bool","name":"isApproved","type":"bool"},{"internalType":"string","name":"approvalRemark","type":"string"},{"internalType":"uint256","name":"createdAt","type":"uint256"}],"internalType":"struct Database.User","name":"","type":"tuple"}],"stateMutability":"view","type":"function"},{"inputs":[],"name":"owner","outputs":[{"internalType":"address","name":"","type":"address"}],"stateMutability":"view","type":"function"},{"inputs":[{"internalType":"string","name":"_name","type":"string"},{"internalType":"string","name":"_username","type":"string"},{"internalType":"string","name":"_email","type":"string"},{"internalType":"enum Database.UserRole","name":"_role","type":"uint8"}],"name":"registerUser","outputs":[],"stateMutability":"nonpayable","type":"function"},{"inputs":[],"name":"renounceOwnership","outputs":[],"stateMutability":"nonpayable","type":"function"},{"inputs":[{"internalType":"uint256","name":"_tenderId","type":"uint256"},{"internalType":"uint256","name":"_amount","type":"uint256"},{"internalType":"string","name":"_description","type":"string"}],"name":"submitBid","outputs":[],"stateMutability":"nonpayable","type":"function"},{"inputs":[],"name":"tenderCount","outputs":[{"internalType":"uint256","name":"","type":"uint256"}],"stateMutability":"view","type":"function"},{"inputs":[{"internalType":"uint256","name":"","type":"uint256"}],"name":"tenders","outputs":[{"internalType":"uint256","name":"id","type":"uint256"},{"internalType":"string","name":"title","type":"string"},{"internalType":"string","name":"description","type":"string"},{"internalType":"uint256","name":"budget","type":"uint256"},{"internalType":"uint256","name":"deadline","type":"uint256"},{"internalType":"address","name":"officerAddress","type":"address"},{"internalType":"bool","name":"isActive","type":"bool"},{"internalType":"uint256","name":"createdAt","type":"uint256"}],"stateMutability":"view","type":"function"},{"inputs":[{"internalType":"address","name":"newOwner","type":"address"}],"name":"transferOwnership","outputs":[],"stateMutability":"nonpayable","type":"function"},{"inputs":[{"internalType":"string","name":"","type":"string"}],"name":"usernames","outputs":[{"internalType":"bool","name":"","type":"bool"}],"stateMutability":"view","type":"function"},{"inputs":[{"internalType":"address","name":"","type":"address"}],"name":"users","outputs":[{"internalType":"string","name":"name","type":"string"},{"internalType":"string","name":"username","type":"string"},{"internalType":"string","name":"email","type":"string"},{"internalType":"address","name":"walletAddress","type":"address"},{"internalType":"enum Database.UserRole","name":"role","type":"uint8"},{"internalType":"bool","name":"isApproved","type":"bool"},{"internalType":"string","name":"approvalRemark","type":"string"},{"internalType":"uint256","name":"createdAt","type":"uint256"}],"stateMutability":"view","type":"function"}],"evm":{"bytecode":{"linkReferences":{},"object":"6080346100bb57601f6120a538819003918201601f19168301916001600160401b038311848410176100c0578084926020946040528339810103126100bb57516001600160a01b0390818116908190036100bb5780156100a257600080546001600160a01b03198116831782556040519316907f8be0079c531659141344cd1fd0a4f28419497f9722a3daafe3b4186f6b6457e09080a3611fce90816100d78239f35b604051631e4fbdf760e01b815260006004820152602490fd5b600080fd5b634e487b7160e01b600052604160045260246000fdfe6080604052600436101561001257600080fd5b60003560e01c80630585c25e14611b3f5780630f77141714611425578063131d9a27146112d057806314c60bdd14610f555780631f05877614610f375780632ac6c78514610d365780633a9361bd14610ad6578063465e1def14610a185780636f77926b14610846578063715018a6146107ed5780637b3c4baa1461074e5780638da5cb5b14610725578063a87430ba1461060a578063aaee301f146105a9578063d927ee881461015f5763f2fde38b146100cc57600080fd5b3461015a57602036600319011261015a576100e5611d6b565b6100ed611e90565b6001600160a01b0390811690811561014157600054826bffffffffffffffffffffffff60a01b821617600055167f8be0079c531659141344cd1fd0a4f28419497f9722a3daafe3b4186f6b6457e0600080a3005b604051631e4fbdf760e01b815260006004820152602490fd5b600080fd5b3461015a57608036600319011261015a576004356001600160401b03811161015a5761018f903690600401611d15565b6024356001600160401b03811161015a576101ae903690600401611d15565b9033600052600160205260ff60036040600020015460a01c1660038110156105935760010361054f573360005260016020526101f760ff60036040600020015460a81c16611ec8565b610202600554611f08565b91826005556040519261021484611cbd565b80845260208401918383526040850152604435606085015260643560808501523360a0850152600160c08501524260e0850152600052600360205260406000209083518255519283516001600160401b038111610478576102786001840154611d81565b601f8111610508575b506020601f821160011461049957819293949560009261048e575b50508160011b916000199060031b1c19161760018301555b60408101518051906001600160401b038211610478576102d76002850154611d81565b601f8111610431575b50602090601f83116001146103bc5791806006949260e0946000926103b1575b50508160011b916000199060031b1c19161760028501555b60608101516003850155608081015160048501556005840160018060a01b0360a08301511681549060ff60a01b60c0850151151560a01b16916affffffffffffffffffffff60a81b161717905501519101557f288c2eb47aa865e9daa5c117ccf7af2111afee680cc033a9f537aafdc6b7908a6103a660055492604051918291604083526040830190611c27565b3360208301520390a2005b015190508780610300565b906002850160005260206000209160005b601f19851681106104195750926006949260019260e09583601f19811610610400575b505050811b016002850155610318565b015160001960f88460031b161c191690558780806103f0565b919260206001819286850151815501940192016103cd565b600285016000526020600020601f840160051c810160208510610471575b601f830160051c820181106104655750506102e0565b6000815560010161044f565b508061044f565b634e487b7160e01b600052604160045260246000fd5b01519050858061029c565b6001840160005260206000209060005b601f19841681106104f0575060019394959683601f198116106104d7575b505050811b0160018301556102b4565b015160001960f88460031b161c191690558580806104c7565b9091602060018192858b0151815501930191016104a9565b600184016000526020600020601f830160051c810160208410610548575b601f830160051c8201811061053c575050610281565b60008155600101610526565b5080610526565b606460405162461bcd60e51b815260206004820152602060248201527f4f6e6c79206f666669636572732063616e206372656174652074656e646572736044820152fd5b634e487b7160e01b600052602160045260246000fd5b3461015a57602036600319011261015a576004356001600160401b03811161015a5760ff6105f460206105e181943690600401611d15565b8160405193828580945193849201611c04565b8101600281520301902054166040519015158152f35b3461015a57602036600319011261015a576106cd6001600160a01b038061062f611d6b565b166000526001602052604060002061071b60405192610659846106528186611dbb565b0385611cf4565b6040519261066e846106528160018501611dbb565b60ff60405161068b816106848160028701611dbb565b0382611cf4565b6106e96003840154916106db6005604051966106b5886106ae8160048501611dbb565b0389611cf4565b0154986040519b8c9b8c6101008091528d0190611c27565b908b820360208d0152611c27565b9089820360408b0152611c27565b938116606088015261070360808801838360a01c16611e51565b60a81c16151560a086015284820360c0860152611c27565b9060e08301520390f35b3461015a57600036600319011261015a576000546040516001600160a01b039091168152602090f35b3461015a57604036600319011261015a576024356004356000526004602052604060002090815481101561015a5761078591611e5e565b50805460018060a01b03600183015416916107e36002820154916004604051916107bd836107b68160038501611dbb565b0384611cf4565b01549260405195869586526020860152604085015260a0606085015260a0840190611c27565b9060808301520390f35b3461015a57600036600319011261015a57610806611e90565b600080546001600160a01b0319811682556001600160a01b03167f8be0079c531659141344cd1fd0a4f28419497f9722a3daafe3b4186f6b6457e08280a3005b3461015a5760208060031936011261015a57610860611d6b565b60405161086c81611cbd565b606090818152818482015281604082015281810160009052608081016000905260a08101600090528160c082015260e00160009052600160a01b6001900380921660005260018352604060002092604051926108c784611cbd565b604051806108d58188611dbb565b036108e09082611cf4565b845260405190816108f48160018901611dbb565b036108ff9083611cf4565b84830191825260405195866109178160028401611dbb565b036109229088611cf4565b60408601968752600381015485870192808216845260808801908260a01c60ff1661094d9083611ebc565b60a089019260a81c60ff1615158352604051938480600483019061097091611dbb565b0361097b9086611cf4565b60c08a01948552600501549760e08a019889526040519a8b9a898c5251610100809a8d01526101208c016109ae91611c27565b9751601f198c8a03810160408e0152986109c791611c27565b905191888c830301908c01526109dc91611c27565b94511660808901525160a088016109f291611e51565b51151560c087015251918582030160e0860152610a0e91611c27565b9151908301520390f35b3461015a57602036600319011261015a5760043560005260036020526040600020805460405191610a50836107b68160018501611dbb565b604051610a64816106848160028601611dbb565b60ff6003830154926004810154610aa96006600584015493015494610a9b604051998a998a526101008060208c01528a0190611c27565b9088820360408a0152611c27565b946060870152608086015260018060a01b03811660a086015260a01c16151560c084015260e08301520390f35b3461015a57606036600319011261015a57610aef611d6b565b602435908115159081830361015a576001600160401b039260443584811161015a57610b1f903690600401611d15565b610b27611e90565b60018060a01b0380931694856000526001926020948486526003604060002001541615610cfb5760008781528486526040902060038101805460ff60a81b191692151560a81b60ff60a81b169290921790915560040191805191821161047857610b918354611d81565b601f8111610cb2575b508490601f8311600114610c26579180610c129694927fb81b5bf45193a7a76f3526dad1b835e00d4b4fe251e28deb91b938ad89979568989694600092610c1b575b5050600019600383901b1c191690831b1790555b8560005280825260406000200191604051938493604085526040850190611dbb565b918301520390a2005b015190508980610bdc565b90601f1983169184600052866000209260005b818110610c9d575092869491927fb81b5bf45193a7a76f3526dad1b835e00d4b4fe251e28deb91b938ad8997956899979383610c129a989610610c84575b505050811b019055610bf0565b015160001960f88460031b161c19169055898080610c77565b82840151855593870193928801928801610c39565b8360005285600020601f840160051c810191878510610cf1575b601f0160051c019085905b828110610ce5575050610b9a565b60008155018590610cd7565b9091508190610ccc565b60405162461bcd60e51b8152600481018690526013602482015272155cd95c881b9bdd081c9959da5cdd195c9959606a1b6044820152606490fd5b3461015a57600036600319011261015a576005805460009060015b81811115610ef85750610d6382611f6d565b91610d716040519384611cf4565b808352610d80601f1991611f6d565b0160005b818110610ee1575050600060015b82811115610dfa57505050604051906020808301818452825180915281604082818701971b8601019301916000955b828710610dce5785850386f35b909192938280610dea600193603f198a82030186528851611c4c565b9601920196019592919092610dc1565b8060005260036020908082526040600020908782015460a09060ff81831c169283610e34575b505050505050610e2f90611f08565b610d92565b92600692610e2f97989592610ed5979560405196610e5188611cbd565b8554885260405190610e7182610e6a8160018b01611dbb565b0383611cf4565b880152604051610e88816106848160028a01611dbb565b60408801528401546060870152600484015460808701526001600160a01b031690850152151560c0840152015460e0820152610ec48288611f84565b52610ecf8187611f84565b50611f08565b91908680808080610e20565b602090610eec611f2d565b82828701015201610d84565b80600052600360205260ff846040600020015460a01c16610f22575b610f1d90611f08565b610d51565b91610f2f610f1d91611f08565b929050610f14565b3461015a57600036600319011261015a576020600554604051908152f35b3461015a57606036600319011261015a576001600160401b0360443581811161015a57610f86903690600401611d15565b600435600052600360205260ff60056040600020015460a01c161561129457600435600052600360205260046040600020015442116112565733600052600160205260ff60036040600020015460a01c166003811015610593576002036112115733600052600160205261100760ff60036040600020015460a81c16611ec8565b60043560005260046020526040600020916040519161102583611cd9565b6004358352602083019333855260408401906024358252606085019283524260808601528054680100000000000000008110156104785761106b91600182018155611e5e565b9590956111fb5784518655516001860180546001600160a01b0319166001600160a01b0392909216919091179055516002850155518051918211610478576110b66003850154611d81565b601f81116111b0575b50602090601f831160011461113b57918060049492608094600092611130575b50508160011b916000199060031b1c19161760038501555b0151910155604051602435815233907f177554f051f4aa1f0d0310334854b429baeecdb5a96bc329a26fd0cb7c8a7be3602060043592a3005b0151905086806110df565b906003850160005260206000209160005b601f19851681106111985750926004949260019260809583601f1981161061117f575b505050811b0160038501556110f7565b015160001960f88460031b161c1916905586808061116f565b9192602060018192868501518155019401920161114c565b600385016000526020600020601f840160051c810191602085106111f1575b601f0160051c01905b8181106111e557506110bf565b600081556001016111d8565b90915081906111cf565b634e487b7160e01b600052600060045260246000fd5b60405162461bcd60e51b815260206004820152601c60248201527f4f6e6c7920626964646572732063616e207375626d69742062696473000000006044820152606490fd5b60405162461bcd60e51b815260206004820152601660248201527515195b99195c88191958591b1a5b99481c185cdcd95960521b6044820152606490fd5b60405162461bcd60e51b815260206004820152601460248201527354656e646572206973206e6f742061637469766560601b6044820152606490fd5b3461015a5760208060031936011261015a57600435600052600481526040600020908154916112fe83611f6d565b9261130c6040519485611cf4565b8084528284018092600052836000206000915b8383106113bf5750505050604051918083019381845251809452604083019360408160051b85010192916000955b82871061135a5785850386f35b909192938280600192603f1989820301855287519081518152848060a01b03838301511683820152604082015160408201526113a56060808401519060a08091850152830190611c27565b91608080910151910152960192019601959291909261134d565b6005866001926040999899516113d481611cd9565b85548152848060a01b0385870154168382015260028601546040820152604051611405816106848160038b01611dbb565b60608201526004860154608082015281520192019201919095949561131f565b3461015a57608036600319011261015a576004356001600160401b03811161015a57611455903690600401611d15565b6024356001600160401b03811161015a57611474903690600401611d15565b906044356001600160401b03811161015a57611494903690600401611d15565b6003606435101561015a5760ff60405160208186516114b68183858b01611c04565b810160028152030190205416611afa57336000908152600160205260409020600301546001600160a01b0316611ab557604051916114f383611cbd565b8252826020830152604082015233606082015261151560643560808301611ebc565b600060a08201526040518060208101106001600160401b0360208301111761047857602081016040526000815260c08201524260e082015233600052600160205260406000209080519283516001600160401b038111610478576115798454611d81565b601f8111611a71575b506020601f8211600114611a085781929394956000926119fd575b50508160011b916000199060031b1c19161783555b60208201519283516001600160401b038111610478576115d56001830154611d81565b601f81116119b6575b506020601f821160011461194757819293949560009261193c575b50508160011b916000199060031b1c19161760018201555b60408301519283516001600160401b038111610478576116346002840154611d81565b601f81116118f5575b506020601f821160011461188657819293949560009261187b575b50508160011b916000199060031b1c19161760028301555b6003820160018060a01b0360608301511690805460808401519260038410156105935760a08581015160ff60a81b90151560a81b1660ff60a01b9590911b949094166001600160b01b03199290921660ff60a81b1991909116171791909117905560c08101518051906001600160401b038211610478576116f46004850154611d81565b601f8111611830575b50602090601f83116001146117bd5791806005949260e0946000926117b2575b50508160011b916000199060031b1c19161760048501555b0151910155604051602081835161174f8183858801611c04565b81016002815203019020600160ff198254161790557fc2e5d5da58bd71d1a2d14cdef02a4256d971b728088f8190d067ccfbae3bd73e61179a60405192604084526040840190611c27565b916117aa60208201606435611e51565b8033930390a2005b01519050878061171d565b90601f198316916004860160005260206000209260005b818110611818575092600192859260e09660059896106117ff575b505050811b016004850155611735565b015160001960f88460031b161c191690558780806117ef565b929360206001819287860151815501950193016117d4565b600485016000526020600020601f840160051c81019160208510611871575b601f0160051c01905b81811061186557506116fd565b60008155600101611858565b909150819061184f565b015190508580611658565b6002840160005260206000209060005b601f19841681106118dd575060019394959683601f198116106118c4575b505050811b016002830155611670565b015160001960f88460031b161c191690558580806118b4565b9091602060018192858b015181550193019101611896565b600284016000526020600020601f830160051c810160208410611935575b601f830160051c8201811061192957505061163d565b60008155600101611913565b5080611913565b0151905085806115f9565b6001830160005260206000209060005b601f198416811061199e575060019394959683601f19811610611985575b505050811b016001820155611611565b015160001960f88460031b161c19169055858080611975565b9091602060018192858b015181550193019101611957565b600183016000526020600020601f830160051c8101602084106119f6575b601f830160051c820181106119ea5750506115de565b600081556001016119d4565b50806119d4565b01519050858061159d565b8460005260206000209060005b601f1984168110611a59575060019394959683601f19811610611a40575b505050811b0183556115b2565b015160001960f88460031b161c19169055858080611a33565b9091602060018192858b015181550193019101611a15565b846000526020600020601f830160051c810160208410611aae575b601f830160051c82018110611aa2575050611582565b60008155600101611a8c565b5080611a8c565b60405162461bcd60e51b815260206004820152601760248201527f5573657220616c726561647920726567697374657265640000000000000000006044820152606490fd5b60405162461bcd60e51b815260206004820152601760248201527f557365726e616d6520616c7265616479206578697374730000000000000000006044820152606490fd5b3461015a57602036600319011261015a57611b58611f2d565b506004356000526003602052611c006040600020600660405191611b7b83611cbd565b80548352604051611b93816106848160018601611dbb565b6020840152604051611bac816106848160028601611dbb565b6040840152600381015460608401526004810154608084015260ff600582015460018060a01b03811660a086015260a01c16151560c0840152015460e0820152604051918291602083526020830190611c4c565b0390f35b60005b838110611c175750506000910152565b8181015183820152602001611c07565b90602091611c4081518092818552858086019101611c04565b601f01601f1916010190565b908151815260e080611c82611c706020860151610100806020880152860190611c27565b60408601518582036040870152611c27565b93606081015160608501526080810151608085015260018060a01b0360a08201511660a085015260c0810151151560c0850152015191015290565b61010081019081106001600160401b0382111761047857604052565b60a081019081106001600160401b0382111761047857604052565b90601f801991011681019081106001600160401b0382111761047857604052565b81601f8201121561015a578035906001600160401b0382116104785760405192611d49601f8401601f191660200185611cf4565b8284526020838301011161015a57816000926020809301838601378301015290565b600435906001600160a01b038216820361015a57565b90600182811c92168015611db1575b6020831014611d9b57565b634e487b7160e01b600052602260045260246000fd5b91607f1691611d90565b9060009291805491611dcc83611d81565b918282526001938481169081600014611e2e5750600114611dee575b50505050565b90919394506000526020928360002092846000945b838610611e1a575050505001019038808080611de8565b805485870183015294019385908201611e03565b9294505050602093945060ff191683830152151560051b01019038808080611de8565b9060038210156105935752565b8054821015611e7a576000526005602060002091020190600090565b634e487b7160e01b600052603260045260246000fd5b6000546001600160a01b03163303611ea457565b60405163118cdaa760e01b8152336004820152602490fd5b60038210156105935752565b15611ecf57565b60405162461bcd60e51b8152602060048201526011602482015270155cd95c881b9bdd08185c1c1c9bdd9959607a1b6044820152606490fd5b6000198114611f175760010190565b634e487b7160e01b600052601160045260246000fd5b60405190611f3a82611cbd565b8160e060009182815260606020820152606060408201528260608201528260808201528260a08201528260c08201520152565b6001600160401b0381116104785760051b60200190565b8051821015611e7a5760209160051b01019056fea2646970667358221220c1f517dc84fe76cec91e96c00148b45ddae1595c9d5cf1ca6d78dff50b57eef364736f6c63430008140033","opcodes":"PUSH1 0x80 CALLVALUE PUSH2 0xBB JUMPI PUSH1 0x1F PUSH2 0x20A5 CODESIZE DUP2 SWAP1 SUB SWAP2 DUP3 ADD PUSH1 0x1F NOT AND DUP4 ADD SWAP2 PUSH1 0x1 PUSH1 0x1 PUSH1 0x40 SHL SUB DUP4 GT DUP5 DUP5 LT OR PUSH2 0xC0 JUMPI DUP1 DUP5 SWAP3 PUSH1 0x20 SWAP5 PUSH1 0x40 MSTORE DUP4 CODECOPY DUP2 ADD SUB SLT PUSH2 0xBB JUMPI MLOAD PUSH1 0x1 PUSH1 0x1 PUSH1 0xA0 SHL SUB SWAP1 DUP2 DUP2 AND SWAP1 DUP2 SWAP1 SUB PUSH2 0xBB JUMPI DUP1 ISZERO PUSH2 0xA2 JUMPI PUSH1 0x0 DUP1 SLOAD PUSH1 0x1 PUSH1 0x1 PUSH1 0xA0 SHL SUB NOT DUP2 AND DUP4 OR DUP3 SSTORE PUSH1 0x40 MLOAD SWAP4 AND SWAP1 PUSH32 0x8BE0079C531659141344CD1FD0A4F28419497F9722A3DAAFE3B4186F6B6457E0 SWAP1 DUP1 LOG3 PUSH2 0x1FCE SWAP1 DUP2 PUSH2 0xD7 DUP3 CODECOPY RETURN JUMPDEST PUSH1 0x40 MLOAD PUSH4 0x1E4FBDF7 PUSH1 0xE0 SHL DUP2 MSTORE PUSH1 0x0 PUSH1 0x4 DUP3 ADD MSTORE PUSH1 0x24 SWAP1 REVERT JUMPDEST PUSH1 0x0 DUP1 REVERT JUMPDEST PUSH4 0x4E487B71 PUSH1 0xE0 SHL PUSH1 0x0 MSTORE PUSH1 0x41 PUSH1 0x4 MSTORE PUSH1 0x24 PUSH1 0x0 REVERT INVALID PUSH1 0x80 PUSH1 0x40 MSTORE PUSH1 0x4 CALLDATASIZE LT ISZERO PUSH2 0x12 JUMPI PUSH1 0x0 DUP1 REVERT JUMPDEST PUSH1 0x0 CALLDATALOAD PUSH1 0xE0 SHR DUP1 PUSH4 0x585C25E EQ PUSH2 0x1B3F JUMPI DUP1 PUSH4 0xF771417 EQ PUSH2 0x1425 JUMPI DUP1 PUSH4 0x131D9A27 EQ PUSH2 0x12D0 JUMPI DUP1 PUSH4 0x14C60BDD EQ PUSH2 0xF55 JUMPI DUP1 PUSH4 0x1F058776 EQ PUSH2 0xF37 JUMPI DUP1 PUSH4 0x2AC6C785 EQ PUSH2 0xD36 JUMPI DUP1 PUSH4 0x3A9361BD EQ PUSH2 0xAD6 JUMPI DUP1 PUSH4 0x465E1DEF EQ PUSH2 0xA18 JUMPI DUP1 PUSH4 0x6F77926B EQ PUSH2 0x846 JUMPI DUP1 PUSH4 0x715018A6 EQ PUSH2 0x7ED JUMPI DUP1 PUSH4 0x7B3C4BAA EQ PUSH2 0x74E JUMPI DUP1 PUSH4 0x8DA5CB5B EQ PUSH2 0x725 JUMPI DUP1 PUSH4 0xA87430BA EQ PUSH2 0x60A JUMPI DUP1 PUSH4 0xAAEE301F EQ PUSH2 0x5A9 JUMPI DUP1 PUSH4 0xD927EE88 EQ PUSH2 0x15F JUMPI PUSH4 0xF2FDE38B EQ PUSH2 0xCC JUMPI PUSH1 0x0 DUP1 REVERT JUMPDEST CALLVALUE PUSH2 0x15A JUMPI PUSH1 0x20 CALLDATASIZE PUSH1 0x3 NOT ADD SLT PUSH2 0x15A JUMPI PUSH2 0xE5 PUSH2 0x1D6B JUMP JUMPDEST PUSH2 0xED PUSH2 0x1E90 JUMP JUMPDEST PUSH1 0x1 PUSH1 0x1 PUSH1 0xA0 SHL SUB SWAP1 DUP2 AND SWAP1 DUP2 ISZERO PUSH2 0x141 JUMPI PUSH1 0x0 SLOAD DUP3 PUSH12 0xFFFFFFFFFFFFFFFFFFFFFFFF PUSH1 0xA0 SHL DUP3 AND OR PUSH1 0x0 SSTORE AND PUSH32 0x8BE0079C531659141344CD1FD0A4F28419497F9722A3DAAFE3B4186F6B6457E0 PUSH1 0x0 DUP1 LOG3 STOP JUMPDEST PUSH1 0x40 MLOAD PUSH4 0x1E4FBDF7 PUSH1 0xE0 SHL DUP2 MSTORE PUSH1 0x0 PUSH1 0x4 DUP3 ADD MSTORE PUSH1 0x24 SWAP1 REVERT JUMPDEST PUSH1 0x0 DUP1 REVERT JUMPDEST CALLVALUE PUSH2 0x15A JUMPI PUSH1 0x80 CALLDATASIZE PUSH1 0x3 NOT ADD SLT PUSH2 0x15A JUMPI PUSH1 0x4 CALLDATALOAD PUSH1 0x1 PUSH1 0x1 PUSH1 0x40 SHL SUB DUP2 GT PUSH2 0x15A JUMPI PUSH2 0x18F SWAP1 CALLDATASIZE SWAP1 PUSH1 0x4 ADD PUSH2 0x1D15 JUMP JUMPDEST PUSH1 0x24 CALLDATALOAD PUSH1 0x1 PUSH1 0x1 PUSH1 0x40 SHL SUB DUP2 GT PUSH2 0x15A JUMPI PUSH2 0x1AE SWAP1 CALLDATASIZE SWAP1 PUSH1 0x4 ADD PUSH2 0x1D15 JUMP JUMPDEST SWAP1 CALLER PUSH1 0x0 MSTORE PUSH1 0x1 PUSH1 0x20 MSTORE PUSH1 0xFF PUSH1 0x3 PUSH1 0x40 PUSH1 0x0 KECCAK256 ADD SLOAD PUSH1 0xA0 SHR AND PUSH1 0x3 DUP2 LT ISZERO PUSH2 0x593 JUMPI PUSH1 0x1 SUB PUSH2 0x54F JUMPI CALLER PUSH1 0x0 MSTORE PUSH1 0x1 PUSH1 0x20 MSTORE PUSH2 0x1F7 PUSH1 0xFF PUSH1 0x3 PUSH1 0x40 PUSH1 0x0 KECCAK256 ADD SLOAD PUSH1 0xA8 SHR AND PUSH2 0x1EC8 JUMP JUMPDEST PUSH2 0x202 PUSH1 0x5 SLOAD PUSH2 0x1F08 JUMP JUMPDEST SWAP2 DUP3 PUSH1 0x5 SSTORE PUSH1 0x40 MLOAD SWAP3 PUSH2 0x214 DUP5 PUSH2 0x1CBD JUMP JUMPDEST DUP1 DUP5 MSTORE PUSH1 0x20 DUP5 ADD SWAP2 DUP4 DUP4 MSTORE PUSH1 0x40 DUP6 ADD MSTORE PUSH1 0x44 CALLDATALOAD PUSH1 0x60 DUP6 ADD MSTORE PUSH1 0x64 CALLDATALOAD PUSH1 0x80 DUP6 ADD MSTORE CALLER PUSH1 0xA0 DUP6 ADD MSTORE PUSH1 0x1 PUSH1 0xC0 DUP6 ADD MSTORE TIMESTAMP PUSH1 0xE0 DUP6 ADD MSTORE PUSH1 0x0 MSTORE PUSH1 0x3 PUSH1 0x20 MSTORE PUSH1 0x40 PUSH1 0x0 KECCAK256 SWAP1 DUP4 MLOAD DUP3 SSTORE MLOAD SWAP3 DUP4 MLOAD PUSH1 0x1 PUSH1 0x1 PUSH1 0x40 SHL SUB DUP2 GT PUSH2 0x478 JUMPI PUSH2 0x278 PUSH1 0x1 DUP5 ADD SLOAD PUSH2 0x1D81 JUMP JUMPDEST PUSH1 0x1F DUP2 GT PUSH2 0x508 JUMPI JUMPDEST POP PUSH1 0x20 PUSH1 0x1F DUP3 GT PUSH1 0x1 EQ PUSH2 0x499 JUMPI DUP2 SWAP3 SWAP4 SWAP5 SWAP6 PUSH1 0x0 SWAP3 PUSH2 0x48E JUMPI JUMPDEST POP POP DUP2 PUSH1 0x1 SHL SWAP2 PUSH1 0x0 NOT SWAP1 PUSH1 0x3 SHL SHR NOT AND OR PUSH1 0x1 DUP4 ADD SSTORE JUMPDEST PUSH1 0x40 DUP2 ADD MLOAD DUP1 MLOAD SWAP1 PUSH1 0x1 PUSH1 0x1 PUSH1 0x40 SHL SUB DUP3 GT PUSH2 0x478 JUMPI PUSH2 0x2D7 PUSH1 0x2 DUP6 ADD SLOAD PUSH2 0x1D81 JUMP JUMPDEST PUSH1 0x1F DUP2 GT PUSH2 0x431 JUMPI JUMPDEST POP PUSH1 0x20 SWAP1 PUSH1 0x1F DUP4 GT PUSH1 0x1 EQ PUSH2 0x3BC JUMPI SWAP2 DUP1 PUSH1 0x6 SWAP5 SWAP3 PUSH1 0xE0 SWAP5 PUSH1 0x0 SWAP3 PUSH2 0x3B1 JUMPI JUMPDEST POP POP DUP2 PUSH1 0x1 SHL SWAP2 PUSH1 0x0 NOT SWAP1 PUSH1 0x3 SHL SHR NOT AND OR PUSH1 0x2 DUP6 ADD SSTORE JUMPDEST PUSH1 0x60 DUP2 ADD MLOAD PUSH1 0x3 DUP6 ADD SSTORE PUSH1 0x80 DUP2 ADD MLOAD PUSH1 0x4 DUP6 ADD SSTORE PUSH1 0x5 DUP5 ADD PUSH1 0x1 DUP1 PUSH1 0xA0 SHL SUB PUSH1 0xA0 DUP4 ADD MLOAD AND DUP2 SLOAD SWAP1 PUSH1 0xFF PUSH1 0xA0 SHL PUSH1 0xC0 DUP6 ADD MLOAD ISZERO ISZERO PUSH1 0xA0 SHL AND SWAP2 PUSH11 0xFFFFFFFFFFFFFFFFFFFFFF PUSH1 0xA8 SHL AND OR OR SWAP1 SSTORE ADD MLOAD SWAP2 ADD SSTORE PUSH32 0x288C2EB47AA865E9DAA5C117CCF7AF2111AFEE680CC033A9F537AAFDC6B7908A PUSH2 0x3A6 PUSH1 0x5 SLOAD SWAP3 PUSH1 0x40 MLOAD SWAP2 DUP3 SWAP2 PUSH1 0x40 DUP4 MSTORE PUSH1 0x40 DUP4 ADD SWAP1 PUSH2 0x1C27 JUMP JUMPDEST CALLER PUSH1 0x20 DUP4 ADD MSTORE SUB SWAP1 LOG2 STOP JUMPDEST ADD MLOAD SWAP1 POP DUP8 DUP1 PUSH2 0x300 JUMP JUMPDEST SWAP1 PUSH1 0x2 DUP6 ADD PUSH1 0x0 MSTORE PUSH1 0x20 PUSH1 0x0 KECCAK256 SWAP2 PUSH1 0x0 JUMPDEST PUSH1 0x1F NOT DUP6 AND DUP2 LT PUSH2 0x419 JUMPI POP SWAP3 PUSH1 0x6 SWAP5 SWAP3 PUSH1 0x1 SWAP3 PUSH1 0xE0 SWAP6 DUP4 PUSH1 0x1F NOT DUP2 AND LT PUSH2 0x400 JUMPI JUMPDEST POP POP POP DUP2 SHL ADD PUSH1 0x2 DUP6 ADD SSTORE PUSH2 0x318 JUMP JUMPDEST ADD MLOAD PUSH1 0x0 NOT PUSH1 0xF8 DUP5 PUSH1 0x3 SHL AND SHR NOT AND SWAP1 SSTORE DUP8 DUP1 DUP1 PUSH2 0x3F0 JUMP JUMPDEST SWAP2 SWAP3 PUSH1 0x20 PUSH1 0x1 DUP2 SWAP3 DUP7 DUP6 ADD MLOAD DUP2 SSTORE ADD SWAP5 ADD SWAP3 ADD PUSH2 0x3CD JUMP JUMPDEST PUSH1 0x2 DUP6 ADD PUSH1 0x0 MSTORE PUSH1 0x20 PUSH1 0x0 KECCAK256 PUSH1 0x1F DUP5 ADD PUSH1 0x5 SHR DUP2 ADD PUSH1 0x20 DUP6 LT PUSH2 0x471 JUMPI JUMPDEST PUSH1 0x1F DUP4 ADD PUSH1 0x5 SHR DUP3 ADD DUP2 LT PUSH2 0x465 JUMPI POP POP PUSH2 0x2E0 JUMP JUMPDEST PUSH1 0x0 DUP2 SSTORE PUSH1 0x1 ADD PUSH2 0x44F JUMP JUMPDEST POP DUP1 PUSH2 0x44F JUMP JUMPDEST PUSH4 0x4E487B71 PUSH1 0xE0 SHL PUSH1 0x0 MSTORE PUSH1 0x41 PUSH1 0x4 MSTORE PUSH1 0x24 PUSH1 0x0 REVERT JUMPDEST ADD MLOAD SWAP1 POP DUP6 DUP1 PUSH2 0x29C JUMP JUMPDEST PUSH1 0x1 DUP5 ADD PUSH1 0x0 MSTORE PUSH1 0x20 PUSH1 0x0 KECCAK256 SWAP1 PUSH1 0x0 JUMPDEST PUSH1 0x1F NOT DUP5 AND DUP2 LT PUSH2 0x4F0 JUMPI POP PUSH1 0x1 SWAP4 SWAP5 SWAP6 SWAP7 DUP4 PUSH1 0x1F NOT DUP2 AND LT PUSH2 0x4D7 JUMPI JUMPDEST POP POP POP DUP2 SHL ADD PUSH1 0x1 DUP4 ADD SSTORE PUSH2 0x2B4 JUMP JUMPDEST ADD MLOAD PUSH1 0x0 NOT PUSH1 0xF8 DUP5 PUSH1 0x3 SHL AND SHR NOT AND SWAP1 SSTORE DUP6 DUP1 DUP1 PUSH2 0x4C7 JUMP JUMPDEST SWAP1 SWAP2 PUSH1 0x20 PUSH1 0x1 DUP2 SWAP3 DUP6 DUP12 ADD MLOAD DUP2 SSTORE ADD SWAP4 ADD SWAP2 ADD PUSH2 0x4A9 JUMP JUMPDEST PUSH1 0x1 DUP5 ADD PUSH1 0x0 MSTORE PUSH1 0x20 PUSH1 0x0 KECCAK256 PUSH1 0x1F DUP4 ADD PUSH1 0x5 SHR DUP2 ADD PUSH1 0x20 DUP5 LT PUSH2 0x548 JUMPI JUMPDEST PUSH1 0x1F DUP4 ADD PUSH1 0x5 SHR DUP3 ADD DUP2 LT PUSH2 0x53C JUMPI POP POP PUSH2 0x281 JUMP JUMPDEST PUSH1 0x0 DUP2 SSTORE PUSH1 0x1 ADD PUSH2 0x526 JUMP JUMPDEST POP DUP1 PUSH2 0x526 JUMP JUMPDEST PUSH1 0x64 PUSH1 0x40 MLOAD PUSH3 0x461BCD PUSH1 0xE5 SHL DUP2 MSTORE PUSH1 0x20 PUSH1 0x4 DUP3 ADD MSTORE PUSH1 0x20 PUSH1 0x24 DUP3 ADD MSTORE PUSH32 0x4F6E6C79206F666669636572732063616E206372656174652074656E64657273 PUSH1 0x44 DUP3 ADD MSTORE REVERT JUMPDEST PUSH4 0x4E487B71 PUSH1 0xE0 SHL PUSH1 0x0 MSTORE PUSH1 0x21 PUSH1 0x4 MSTORE PUSH1 0x24 PUSH1 0x0 REVERT JUMPDEST CALLVALUE PUSH2 0x15A JUMPI PUSH1 0x20 CALLDATASIZE PUSH1 0x3 NOT ADD SLT PUSH2 0x15A JUMPI PUSH1 0x4 CALLDATALOAD PUSH1 0x1 PUSH1 0x1 PUSH1 0x40 SHL SUB DUP2 GT PUSH2 0x15A JUMPI PUSH1 0xFF PUSH2 0x5F4 PUSH1 0x20 PUSH2 0x5E1 DUP2 SWAP5 CALLDATASIZE SWAP1 PUSH1 0x4 ADD PUSH2 0x1D15 JUMP JUMPDEST DUP2 PUSH1 0x40 MLOAD SWAP4 DUP3 DUP6 DUP1 SWAP5 MLOAD SWAP4 DUP5 SWAP3 ADD PUSH2 0x1C04 JUMP JUMPDEST DUP2 ADD PUSH1 0x2 DUP2 MSTORE SUB ADD SWAP1 KECCAK256 SLOAD AND PUSH1 0x40 MLOAD SWAP1 ISZERO ISZERO DUP2 MSTORE RETURN JUMPDEST CALLVALUE PUSH2 0x15A JUMPI PUSH1 0x20 CALLDATASIZE PUSH1 0x3 NOT ADD SLT PUSH2 0x15A JUMPI PUSH2 0x6CD PUSH1 0x1 PUSH1 0x1 PUSH1 0xA0 SHL SUB DUP1 PUSH2 0x62F PUSH2 0x1D6B JUMP JUMPDEST AND PUSH1 0x0 MSTORE PUSH1 0x1 PUSH1 0x20 MSTORE PUSH1 0x40 PUSH1 0x0 KECCAK256 PUSH2 0x71B PUSH1 0x40 MLOAD SWAP3 PUSH2 0x659 DUP5 PUSH2 0x652 DUP2 DUP7 PUSH2 0x1DBB JUMP JUMPDEST SUB DUP6 PUSH2 0x1CF4 JUMP JUMPDEST PUSH1 0x40 MLOAD SWAP3 PUSH2 0x66E DUP5 PUSH2 0x652 DUP2 PUSH1 0x1 DUP6 ADD PUSH2 0x1DBB JUMP JUMPDEST PUSH1 0xFF PUSH1 0x40 MLOAD PUSH2 0x68B DUP2 PUSH2 0x684 DUP2 PUSH1 0x2 DUP8 ADD PUSH2 0x1DBB JUMP JUMPDEST SUB DUP3 PUSH2 0x1CF4 JUMP JUMPDEST PUSH2 0x6E9 PUSH1 0x3 DUP5 ADD SLOAD SWAP2 PUSH2 0x6DB PUSH1 0x5 PUSH1 0x40 MLOAD SWAP7 PUSH2 0x6B5 DUP9 PUSH2 0x6AE DUP2 PUSH1 0x4 DUP6 ADD PUSH2 0x1DBB JUMP JUMPDEST SUB DUP10 PUSH2 0x1CF4 JUMP JUMPDEST ADD SLOAD SWAP9 PUSH1 0x40 MLOAD SWAP12 DUP13 SWAP12 DUP13 PUSH2 0x100 DUP1 SWAP2 MSTORE DUP14 ADD SWAP1 PUSH2 0x1C27 JUMP JUMPDEST SWAP1 DUP12 DUP3 SUB PUSH1 0x20 DUP14 ADD MSTORE PUSH2 0x1C27 JUMP JUMPDEST SWAP1 DUP10 DUP3 SUB PUSH1 0x40 DUP12 ADD MSTORE PUSH2 0x1C27 JUMP JUMPDEST SWAP4 DUP2 AND PUSH1 0x60 DUP9 ADD MSTORE PUSH2 0x703 PUSH1 0x80 DUP9 ADD DUP4 DUP4 PUSH1 0xA0 SHR AND PUSH2 0x1E51 JUMP JUMPDEST PUSH1 0xA8 SHR AND ISZERO ISZERO PUSH1 0xA0 DUP7 ADD MSTORE DUP5 DUP3 SUB PUSH1 0xC0 DUP7 ADD MSTORE PUSH2 0x1C27 JUMP JUMPDEST SWAP1 PUSH1 0xE0 DUP4 ADD MSTORE SUB SWAP1 RETURN JUMPDEST CALLVALUE PUSH2 0x15A JUMPI PUSH1 0x0 CALLDATASIZE PUSH1 0x3 NOT ADD SLT PUSH2 0x15A JUMPI PUSH1 0x0 SLOAD PUSH1 0x40 MLOAD PUSH1 0x1 PUSH1 0x1 PUSH1 0xA0 SHL SUB SWAP1 SWAP2 AND DUP2 MSTORE PUSH1 0x20 SWAP1 RETURN JUMPDEST CALLVALUE PUSH2 0x15A JUMPI PUSH1 0x40 CALLDATASIZE PUSH1 0x3 NOT ADD SLT PUSH2 0x15A JUMPI PUSH1 0x24 CALLDATALOAD PUSH1 0x4 CALLDATALOAD PUSH1 0x0 MSTORE PUSH1 0x4 PUSH1 0x20 MSTORE PUSH1 0x40 PUSH1 0x0 KECCAK256 SWAP1 DUP2 SLOAD DUP2 LT ISZERO PUSH2 0x15A JUMPI PUSH2 0x785 SWAP2 PUSH2 0x1E5E JUMP JUMPDEST POP DUP1 SLOAD PUSH1 0x1 DUP1 PUSH1 0xA0 SHL SUB PUSH1 0x1 DUP4 ADD SLOAD AND SWAP2 PUSH2 0x7E3 PUSH1 0x2 DUP3 ADD SLOAD SWAP2 PUSH1 0x4 PUSH1 0x40 MLOAD SWAP2 PUSH2 0x7BD DUP4 PUSH2 0x7B6 DUP2 PUSH1 0x3 DUP6 ADD PUSH2 0x1DBB JUMP JUMPDEST SUB DUP5 PUSH2 0x1CF4 JUMP JUMPDEST ADD SLOAD SWAP3 PUSH1 0x40 MLOAD SWAP6 DUP7 SWAP6 DUP7 MSTORE PUSH1 0x20 DUP7 ADD MSTORE PUSH1 0x40 DUP6 ADD MSTORE PUSH1 0xA0 PUSH1 0x60 DUP6 ADD MSTORE PUSH1 0xA0 DUP5 ADD SWAP1 PUSH2 0x1C27 JUMP JUMPDEST SWAP1 PUSH1 0x80 DUP4 ADD MSTORE SUB SWAP1 RETURN JUMPDEST CALLVALUE PUSH2 0x15A JUMPI PUSH1 0x0 CALLDATASIZE PUSH1 0x3 NOT ADD SLT PUSH2 0x15A JUMPI PUSH2 0x806 PUSH2 0x1E90 JUMP JUMPDEST PUSH1 0x0 DUP1 SLOAD PUSH1 0x1 PUSH1 0x1 PUSH1 0xA0 SHL SUB NOT DUP2 AND DUP3 SSTORE PUSH1 0x1 PUSH1 0x1 PUSH1 0xA0 SHL SUB AND PUSH32 0x8BE0079C531659141344CD1FD0A4F28419497F9722A3DAAFE3B4186F6B6457E0 DUP3 DUP1 LOG3 STOP JUMPDEST CALLVALUE PUSH2 0x15A JUMPI PUSH1 0x20 DUP1 PUSH1 0x3 NOT CALLDATASIZE ADD SLT PUSH2 0x15A JUMPI PUSH2 0x860 PUSH2 0x1D6B JUMP JUMPDEST PUSH1 0x40 MLOAD PUSH2 0x86C DUP2 PUSH2 0x1CBD JUMP JUMPDEST PUSH1 0x60 SWAP1 DUP2 DUP2 MSTORE DUP2 DUP5 DUP3 ADD MSTORE DUP2 PUSH1 0x40 DUP3 ADD MSTORE DUP2 DUP2 ADD PUSH1 0x0 SWAP1 MSTORE PUSH1 0x80 DUP2 ADD PUSH1 0x0 SWAP1 MSTORE PUSH1 0xA0 DUP2 ADD PUSH1 0x0 SWAP1 MSTORE DUP2 PUSH1 0xC0 DUP3 ADD MSTORE PUSH1 0xE0 ADD PUSH1 0x0 SWAP1 MSTORE PUSH1 0x1 PUSH1 0xA0 SHL PUSH1 0x1 SWAP1 SUB DUP1 SWAP3 AND PUSH1 0x0 MSTORE PUSH1 0x1 DUP4 MSTORE PUSH1 0x40 PUSH1 0x0 KECCAK256 SWAP3 PUSH1 0x40 MLOAD SWAP3 PUSH2 0x8C7 DUP5 PUSH2 0x1CBD JUMP JUMPDEST PUSH1 0x40 MLOAD DUP1 PUSH2 0x8D5 DUP2 DUP9 PUSH2 0x1DBB JUMP JUMPDEST SUB PUSH2 0x8E0 SWAP1 DUP3 PUSH2 0x1CF4 JUMP JUMPDEST DUP5 MSTORE PUSH1 0x40 MLOAD SWAP1 DUP2 PUSH2 0x8F4 DUP2 PUSH1 0x1 DUP10 ADD PUSH2 0x1DBB JUMP JUMPDEST SUB PUSH2 0x8FF SWAP1 DUP4 PUSH2 0x1CF4 JUMP JUMPDEST DUP5 DUP4 ADD SWAP2 DUP3 MSTORE PUSH1 0x40 MLOAD SWAP6 DUP7 PUSH2 0x917 DUP2 PUSH1 0x2 DUP5 ADD PUSH2 0x1DBB JUMP JUMPDEST SUB PUSH2 0x922 SWAP1 DUP9 PUSH2 0x1CF4 JUMP JUMPDEST PUSH1 0x40 DUP7 ADD SWAP7 DUP8 MSTORE PUSH1 0x3 DUP2 ADD SLOAD DUP6 DUP8 ADD SWAP3 DUP1 DUP3 AND DUP5 MSTORE PUSH1 0x80 DUP9 ADD SWAP1 DUP3 PUSH1 0xA0 SHR PUSH1 0xFF AND PUSH2 0x94D SWAP1 DUP4 PUSH2 0x1EBC JUMP JUMPDEST PUSH1 0xA0 DUP10 ADD SWAP3 PUSH1 0xA8 SHR PUSH1 0xFF AND ISZERO ISZERO DUP4 MSTORE PUSH1 0x40 MLOAD SWAP4 DUP5 DUP1 PUSH1 0x4 DUP4 ADD SWAP1 PUSH2 0x970 SWAP2 PUSH2 0x1DBB JUMP JUMPDEST SUB PUSH2 0x97B SWAP1 DUP7 PUSH2 0x1CF4 JUMP JUMPDEST PUSH1 0xC0 DUP11 ADD SWAP5 DUP6 MSTORE PUSH1 0x5 ADD SLOAD SWAP8 PUSH1 0xE0 DUP11 ADD SWAP9 DUP10 MSTORE PUSH1 0x40 MLOAD SWAP11 DUP12 SWAP11 DUP10 DUP13 MSTORE MLOAD PUSH2 0x100 DUP1 SWAP11 DUP14 ADD MSTORE PUSH2 0x120 DUP13 ADD PUSH2 0x9AE SWAP2 PUSH2 0x1C27 JUMP JUMPDEST SWAP8 MLOAD PUSH1 0x1F NOT DUP13 DUP11 SUB DUP2 ADD PUSH1 0x40 DUP15 ADD MSTORE SWAP9 PUSH2 0x9C7 SWAP2 PUSH2 0x1C27 JUMP JUMPDEST SWAP1 MLOAD SWAP2 DUP9 DUP13 DUP4 SUB ADD SWAP1 DUP13 ADD MSTORE PUSH2 0x9DC SWAP2 PUSH2 0x1C27 JUMP JUMPDEST SWAP5 MLOAD AND PUSH1 0x80 DUP10 ADD MSTORE MLOAD PUSH1 0xA0 DUP9 ADD PUSH2 0x9F2 SWAP2 PUSH2 0x1E51 JUMP JUMPDEST MLOAD ISZERO ISZERO PUSH1 0xC0 DUP8 ADD MSTORE MLOAD SWAP2 DUP6 DUP3 SUB ADD PUSH1 0xE0 DUP7 ADD MSTORE PUSH2 0xA0E SWAP2 PUSH2 0x1C27 JUMP JUMPDEST SWAP2 MLOAD SWAP1 DUP4 ADD MSTORE SUB SWAP1 RETURN JUMPDEST CALLVALUE PUSH2 0x15A JUMPI PUSH1 0x20 CALLDATASIZE PUSH1 0x3 NOT ADD SLT PUSH2 0x15A JUMPI PUSH1 0x4 CALLDATALOAD PUSH1 0x0 MSTORE PUSH1 0x3 PUSH1 0x20 MSTORE PUSH1 0x40 PUSH1 0x0 KECCAK256 DUP1 SLOAD PUSH1 0x40 MLOAD SWAP2 PUSH2 0xA50 DUP4 PUSH2 0x7B6 DUP2 PUSH1 0x1 DUP6 ADD PUSH2 0x1DBB JUMP JUMPDEST PUSH1 0x40 MLOAD PUSH2 0xA64 DUP2 PUSH2 0x684 DUP2 PUSH1 0x2 DUP7 ADD PUSH2 0x1DBB JUMP JUMPDEST PUSH1 0xFF PUSH1 0x3 DUP4 ADD SLOAD SWAP3 PUSH1 0x4 DUP2 ADD SLOAD PUSH2 0xAA9 PUSH1 0x6 PUSH1 0x5 DUP5 ADD SLOAD SWAP4 ADD SLOAD SWAP5 PUSH2 0xA9B PUSH1 0x40 MLOAD SWAP10 DUP11 SWAP10 DUP11 MSTORE PUSH2 0x100 DUP1 PUSH1 0x20 DUP13 ADD MSTORE DUP11 ADD SWAP1 PUSH2 0x1C27 JUMP JUMPDEST SWAP1 DUP9 DUP3 SUB PUSH1 0x40 DUP11 ADD MSTORE PUSH2 0x1C27 JUMP JUMPDEST SWAP5 PUSH1 0x60 DUP8 ADD MSTORE PUSH1 0x80 DUP7 ADD MSTORE PUSH1 0x1 DUP1 PUSH1 0xA0 SHL SUB DUP2 AND PUSH1 0xA0 DUP7 ADD MSTORE PUSH1 0xA0 SHR AND ISZERO ISZERO PUSH1 0xC0 DUP5 ADD MSTORE PUSH1 0xE0 DUP4 ADD MSTORE SUB SWAP1 RETURN JUMPDEST CALLVALUE PUSH2 0x15A JUMPI PUSH1 0x60 CALLDATASIZE PUSH1 0x3 NOT ADD SLT PUSH2 0x15A JUMPI PUSH2 0xAEF PUSH2 0x1D6B JUMP JUMPDEST PUSH1 0x24 CALLDATALOAD SWAP1 DUP2 ISZERO ISZERO SWAP1 DUP2 DUP4 SUB PUSH2 0x15A JUMPI PUSH1 0x1 PUSH1 0x1 PUSH1 0x40 SHL SUB SWAP3 PUSH1 0x44 CALLDATALOAD DUP5 DUP2 GT PUSH2 0x15A JUMPI PUSH2 0xB1F SWAP1 CALLDATASIZE SWAP1 PUSH1 0x4 ADD PUSH2 0x1D15 JUMP JUMPDEST PUSH2 0xB27 PUSH2 0x1E90 JUMP JUMPDEST PUSH1 0x1 DUP1 PUSH1 0xA0 SHL SUB DUP1 SWAP4 AND SWAP5 DUP6 PUSH1 0x0 MSTORE PUSH1 0x1 SWAP3 PUSH1 0x20 SWAP5 DUP5 DUP7 MSTORE PUSH1 0x3 PUSH1 0x40 PUSH1 0x0 KECCAK256 ADD SLOAD AND ISZERO PUSH2 0xCFB JUMPI PUSH1 0x0 DUP8 DUP2 MSTORE DUP5 DUP7 MSTORE PUSH1 0x40 SWAP1 KECCAK256 PUSH1 0x3 DUP2 ADD DUP1 SLOAD PUSH1 0xFF PUSH1 0xA8 SHL NOT AND SWAP3 ISZERO ISZERO PUSH1 0xA8 SHL PUSH1 0xFF PUSH1 0xA8 SHL AND SWAP3 SWAP1 SWAP3 OR SWAP1 SWAP2 SSTORE PUSH1 0x4 ADD SWAP2 DUP1 MLOAD SWAP2 DUP3 GT PUSH2 0x478 JUMPI PUSH2 0xB91 DUP4 SLOAD PUSH2 0x1D81 JUMP JUMPDEST PUSH1 0x1F DUP2 GT PUSH2 0xCB2 JUMPI JUMPDEST POP DUP5 SWAP1 PUSH1 0x1F DUP4 GT PUSH1 0x1 EQ PUSH2 0xC26 JUMPI SWAP2 DUP1 PUSH2 0xC12 SWAP7 SWAP5 SWAP3 PUSH32 0xB81B5BF45193A7A76F3526DAD1B835E00D4B4FE251E28DEB91B938AD89979568 SWAP9 SWAP7 SWAP5 PUSH1 0x0 SWAP3 PUSH2 0xC1B JUMPI JUMPDEST POP POP PUSH1 0x0 NOT PUSH1 0x3 DUP4 SWAP1 SHL SHR NOT AND SWAP1 DUP4 SHL OR SWAP1 SSTORE JUMPDEST DUP6 PUSH1 0x0 MSTORE DUP1 DUP3 MSTORE PUSH1 0x40 PUSH1 0x0 KECCAK256 ADD SWAP2 PUSH1 0x40 MLOAD SWAP4 DUP5 SWAP4 PUSH1 0x40 DUP6 MSTORE PUSH1 0x40 DUP6 ADD SWAP1 PUSH2 0x1DBB JUMP JUMPDEST SWAP2 DUP4 ADD MSTORE SUB SWAP1 LOG2 STOP JUMPDEST ADD MLOAD SWAP1 POP DUP10 DUP1 PUSH2 0xBDC JUMP JUMPDEST SWAP1 PUSH1 0x1F NOT DUP4 AND SWAP2 DUP5 PUSH1 0x0 MSTORE DUP7 PUSH1 0x0 KECCAK256 SWAP3 PUSH1 0x0 JUMPDEST DUP2 DUP2 LT PUSH2 0xC9D JUMPI POP SWAP3 DUP7 SWAP5 SWAP2 SWAP3 PUSH32 0xB81B5BF45193A7A76F3526DAD1B835E00D4B4FE251E28DEB91B938AD89979568 SWAP10 SWAP8 SWAP4 DUP4 PUSH2 0xC12 SWAP11 SWAP9 SWAP7 LT PUSH2 0xC84 JUMPI JUMPDEST POP POP POP DUP2 SHL ADD SWAP1 SSTORE PUSH2 0xBF0 JUMP JUMPDEST ADD MLOAD PUSH1 0x0 NOT PUSH1 0xF8 DUP5 PUSH1 0x3 SHL AND SHR NOT AND SWAP1 SSTORE DUP10 DUP1 DUP1 PUSH2 0xC77 JUMP JUMPDEST DUP3 DUP5 ADD MLOAD DUP6 SSTORE SWAP4 DUP8 ADD SWAP4 SWAP3 DUP9 ADD SWAP3 DUP9 ADD PUSH2 0xC39 JUMP JUMPDEST DUP4 PUSH1 0x0 MSTORE DUP6 PUSH1 0x0 KECCAK256 PUSH1 0x1F DUP5 ADD PUSH1 0x5 SHR DUP2 ADD SWAP2 DUP8 DUP6 LT PUSH2 0xCF1 JUMPI JUMPDEST PUSH1 0x1F ADD PUSH1 0x5 SHR ADD SWAP1 DUP6 SWAP1 JUMPDEST DUP3 DUP2 LT PUSH2 0xCE5 JUMPI POP POP PUSH2 0xB9A JUMP JUMPDEST PUSH1 0x0 DUP2 SSTORE ADD DUP6 SWAP1 PUSH2 0xCD7 JUMP JUMPDEST SWAP1 SWAP2 POP DUP2 SWAP1 PUSH2 0xCCC JUMP JUMPDEST PUSH1 0x40 MLOAD PUSH3 0x461BCD PUSH1 0xE5 SHL DUP2 MSTORE PUSH1 0x4 DUP2 ADD DUP7 SWAP1 MSTORE PUSH1 0x13 PUSH1 0x24 DUP3 ADD MSTORE PUSH19 0x155CD95C881B9BDD081C9959DA5CDD195C9959 PUSH1 0x6A SHL PUSH1 0x44 DUP3 ADD MSTORE PUSH1 0x64 SWAP1 REVERT JUMPDEST CALLVALUE PUSH2 0x15A JUMPI PUSH1 0x0 CALLDATASIZE PUSH1 0x3 NOT ADD SLT PUSH2 0x15A JUMPI PUSH1 0x5 DUP1 SLOAD PUSH1 0x0 SWAP1 PUSH1 0x1 JUMPDEST DUP2 DUP2 GT ISZERO PUSH2 0xEF8 JUMPI POP PUSH2 0xD63 DUP3 PUSH2 0x1F6D JUMP JUMPDEST SWAP2 PUSH2 0xD71 PUSH1 0x40 MLOAD SWAP4 DUP5 PUSH2 0x1CF4 JUMP JUMPDEST DUP1 DUP4 MSTORE PUSH2 0xD80 PUSH1 0x1F NOT SWAP2 PUSH2 0x1F6D JUMP JUMPDEST ADD PUSH1 0x0 JUMPDEST DUP2 DUP2 LT PUSH2 0xEE1 JUMPI POP POP PUSH1 0x0 PUSH1 0x1 JUMPDEST DUP3 DUP2 GT ISZERO PUSH2 0xDFA JUMPI POP POP POP PUSH1 0x40 MLOAD SWAP1 PUSH1 0x20 DUP1 DUP4 ADD DUP2 DUP5 MSTORE DUP3 MLOAD DUP1 SWAP2 MSTORE DUP2 PUSH1 0x40 DUP3 DUP2 DUP8 ADD SWAP8 SHL DUP7 ADD ADD SWAP4 ADD SWAP2 PUSH1 0x0 SWAP6 JUMPDEST DUP3 DUP8 LT PUSH2 0xDCE JUMPI DUP6 DUP6 SUB DUP7 RETURN JUMPDEST SWAP1 SWAP2 SWAP3 SWAP4 DUP3 DUP1 PUSH2 0xDEA PUSH1 0x1 SWAP4 PUSH1 0x3F NOT DUP11 DUP3 SUB ADD DUP7 MSTORE DUP9 MLOAD PUSH2 0x1C4C JUMP JUMPDEST SWAP7 ADD SWAP3 ADD SWAP7 ADD SWAP6 SWAP3 SWAP2 SWAP1 SWAP3 PUSH2 0xDC1 JUMP JUMPDEST DUP1 PUSH1 0x0 MSTORE PUSH1 0x3 PUSH1 0x20 SWAP1 DUP1 DUP3 MSTORE PUSH1 0x40 PUSH1 0x0 KECCAK256 SWAP1 DUP8 DUP3 ADD SLOAD PUSH1 0xA0 SWAP1 PUSH1 0xFF DUP2 DUP4 SHR AND SWAP3 DUP4 PUSH2 0xE34 JUMPI JUMPDEST POP POP POP POP POP POP PUSH2 0xE2F SWAP1 PUSH2 0x1F08 JUMP JUMPDEST PUSH2 0xD92 JUMP JUMPDEST SWAP3 PUSH1 0x6 SWAP3 PUSH2 0xE2F SWAP8 SWAP9 SWAP6 SWAP3 PUSH2 0xED5 SWAP8 SWAP6 PUSH1 0x40 MLOAD SWAP7 PUSH2 0xE51 DUP9 PUSH2 0x1CBD JUMP JUMPDEST DUP6 SLOAD DUP9 MSTORE PUSH1 0x40 MLOAD SWAP1 PUSH2 0xE71 DUP3 PUSH2 0xE6A DUP2 PUSH1 0x1 DUP12 ADD PUSH2 0x1DBB JUMP JUMPDEST SUB DUP4 PUSH2 0x1CF4 JUMP JUMPDEST DUP9 ADD MSTORE PUSH1 0x40 MLOAD PUSH2 0xE88 DUP2 PUSH2 0x684 DUP2 PUSH1 0x2 DUP11 ADD PUSH2 0x1DBB JUMP JUMPDEST PUSH1 0x40 DUP9 ADD MSTORE DUP5 ADD SLOAD PUSH1 0x60 DUP8 ADD MSTORE PUSH1 0x4 DUP5 ADD SLOAD PUSH1 0x80 DUP8 ADD MSTORE PUSH1 0x1 PUSH1 0x1 PUSH1 0xA0 SHL SUB AND SWAP1 DUP6 ADD MSTORE ISZERO ISZERO PUSH1 0xC0 DUP5 ADD MSTORE ADD SLOAD PUSH1 0xE0 DUP3 ADD MSTORE PUSH2 0xEC4 DUP3 DUP9 PUSH2 0x1F84 JUMP JUMPDEST MSTORE PUSH2 0xECF DUP2 DUP8 PUSH2 0x1F84 JUMP JUMPDEST POP PUSH2 0x1F08 JUMP JUMPDEST SWAP2 SWAP1 DUP7 DUP1 DUP1 DUP1 DUP1 PUSH2 0xE20 JUMP JUMPDEST PUSH1 0x20 SWAP1 PUSH2 0xEEC PUSH2 0x1F2D JUMP JUMPDEST DUP3 DUP3 DUP8 ADD ADD MSTORE ADD PUSH2 0xD84 JUMP JUMPDEST DUP1 PUSH1 0x0 MSTORE PUSH1 0x3 PUSH1 0x20 MSTORE PUSH1 0xFF DUP5 PUSH1 0x40 PUSH1 0x0 KECCAK256 ADD SLOAD PUSH1 0xA0 SHR AND PUSH2 0xF22 JUMPI JUMPDEST PUSH2 0xF1D SWAP1 PUSH2 0x1F08 JUMP JUMPDEST PUSH2 0xD51 JUMP JUMPDEST SWAP2 PUSH2 0xF2F PUSH2 0xF1D SWAP2 PUSH2 0x1F08 JUMP JUMPDEST SWAP3 SWAP1 POP PUSH2 0xF14 JUMP JUMPDEST CALLVALUE PUSH2 0x15A JUMPI PUSH1 0x0 CALLDATASIZE PUSH1 0x3 NOT ADD SLT PUSH2 0x15A JUMPI PUSH1 0x20 PUSH1 0x5 SLOAD PUSH1 0x40 MLOAD SWAP1 DUP2 MSTORE RETURN JUMPDEST CALLVALUE PUSH2 0x15A JUMPI PUSH1 0x60 CALLDATASIZE PUSH1 0x3 NOT ADD SLT PUSH2 0x15A JUMPI PUSH1 0x1 PUSH1 0x1 PUSH1 0x40 SHL SUB PUSH1 0x44 CALLDATALOAD DUP2 DUP2 GT PUSH2 0x15A JUMPI PUSH2 0xF86 SWAP1 CALLDATASIZE SWAP1 PUSH1 0x4 ADD PUSH2 0x1D15 JUMP JUMPDEST PUSH1 0x4 CALLDATALOAD PUSH1 0x0 MSTORE PUSH1 0x3 PUSH1 0x20 MSTORE PUSH1 0xFF PUSH1 0x5 PUSH1 0x40 PUSH1 0x0 KECCAK256 ADD SLOAD PUSH1 0xA0 SHR AND ISZERO PUSH2 0x1294 JUMPI PUSH1 0x4 CALLDATALOAD PUSH1 0x0 MSTORE PUSH1 0x3 PUSH1 0x20 MSTORE PUSH1 0x4 PUSH1 0x40 PUSH1 0x0 KECCAK256 ADD SLOAD TIMESTAMP GT PUSH2 0x1256 JUMPI CALLER PUSH1 0x0 MSTORE PUSH1 0x1 PUSH1 0x20 MSTORE PUSH1 0xFF PUSH1 0x3 PUSH1 0x40 PUSH1 0x0 KECCAK256 ADD SLOAD PUSH1 0xA0 SHR AND PUSH1 0x3 DUP2 LT ISZERO PUSH2 0x593 JUMPI PUSH1 0x2 SUB PUSH2 0x1211 JUMPI CALLER PUSH1 0x0 MSTORE PUSH1 0x1 PUSH1 0x20 MSTORE PUSH2 0x1007 PUSH1 0xFF PUSH1 0x3 PUSH1 0x40 PUSH1 0x0 KECCAK256 ADD SLOAD PUSH1 0xA8 SHR AND PUSH2 0x1EC8 JUMP JUMPDEST PUSH1 0x4 CALLDATALOAD PUSH1 0x0 MSTORE PUSH1 0x4 PUSH1 0x20 MSTORE PUSH1 0x40 PUSH1 0x0 KECCAK256 SWAP2 PUSH1 0x40 MLOAD SWAP2 PUSH2 0x1025 DUP4 PUSH2 0x1CD9 JUMP JUMPDEST PUSH1 0x4 CALLDATALOAD DUP4 MSTORE PUSH1 0x20 DUP4 ADD SWAP4 CALLER DUP6 MSTORE PUSH1 0x40 DUP5 ADD SWAP1 PUSH1 0x24 CALLDATALOAD DUP3 MSTORE PUSH1 0x60 DUP6 ADD SWAP3 DUP4 MSTORE TIMESTAMP PUSH1 0x80 DUP7 ADD MSTORE DUP1 SLOAD PUSH9 0x10000000000000000 DUP2 LT ISZERO PUSH2 0x478 JUMPI PUSH2 0x106B SWAP2 PUSH1 0x1 DUP3 ADD DUP2 SSTORE PUSH2 0x1E5E JUMP JUMPDEST SWAP6 SWAP1 SWAP6 PUSH2 0x11FB JUMPI DUP5 MLOAD DUP7 SSTORE MLOAD PUSH1 0x1 DUP7 ADD DUP1 SLOAD PUSH1 0x1 PUSH1 0x1 PUSH1 0xA0 SHL SUB NOT AND PUSH1 0x1 PUSH1 0x1 PUSH1 0xA0 SHL SUB SWAP3 SWAP1 SWAP3 AND SWAP2 SWAP1 SWAP2 OR SWAP1 SSTORE MLOAD PUSH1 0x2 DUP6 ADD SSTORE MLOAD DUP1 MLOAD SWAP2 DUP3 GT PUSH2 0x478 JUMPI PUSH2 0x10B6 PUSH1 0x3 DUP6 ADD SLOAD PUSH2 0x1D81 JUMP JUMPDEST PUSH1 0x1F DUP2 GT PUSH2 0x11B0 JUMPI JUMPDEST POP PUSH1 0x20 SWAP1 PUSH1 0x1F DUP4 GT PUSH1 0x1 EQ PUSH2 0x113B JUMPI SWAP2 DUP1 PUSH1 0x4 SWAP5 SWAP3 PUSH1 0x80 SWAP5 PUSH1 0x0 SWAP3 PUSH2 0x1130 JUMPI JUMPDEST POP POP DUP2 PUSH1 0x1 SHL SWAP2 PUSH1 0x0 NOT SWAP1 PUSH1 0x3 SHL SHR NOT AND OR PUSH1 0x3 DUP6 ADD SSTORE JUMPDEST ADD MLOAD SWAP2 ADD SSTORE PUSH1 0x40 MLOAD PUSH1 0x24 CALLDATALOAD DUP2 MSTORE CALLER SWAP1 PUSH32 0x177554F051F4AA1F0D0310334854B429BAEECDB5A96BC329A26FD0CB7C8A7BE3 PUSH1 0x20 PUSH1 0x4 CALLDATALOAD SWAP3 LOG3 STOP JUMPDEST ADD MLOAD SWAP1 POP DUP7 DUP1 PUSH2 0x10DF JUMP JUMPDEST SWAP1 PUSH1 0x3 DUP6 ADD PUSH1 0x0 MSTORE PUSH1 0x20 PUSH1 0x0 KECCAK256 SWAP2 PUSH1 0x0 JUMPDEST PUSH1 0x1F NOT DUP6 AND DUP2 LT PUSH2 0x1198 JUMPI POP SWAP3 PUSH1 0x4 SWAP5 SWAP3 PUSH1 0x1 SWAP3 PUSH1 0x80 SWAP6 DUP4 PUSH1 0x1F NOT DUP2 AND LT PUSH2 0x117F JUMPI JUMPDEST POP POP POP DUP2 SHL ADD PUSH1 0x3 DUP6 ADD SSTORE PUSH2 0x10F7 JUMP JUMPDEST ADD MLOAD PUSH1 0x0 NOT PUSH1 0xF8 DUP5 PUSH1 0x3 SHL AND SHR NOT AND SWAP1 SSTORE DUP7 DUP1 DUP1 PUSH2 0x116F JUMP JUMPDEST SWAP2 SWAP3 PUSH1 0x20 PUSH1 0x1 DUP2 SWAP3 DUP7 DUP6 ADD MLOAD DUP2 SSTORE ADD SWAP5 ADD SWAP3 ADD PUSH2 0x114C JUMP JUMPDEST PUSH1 0x3 DUP6 ADD PUSH1 0x0 MSTORE PUSH1 0x20 PUSH1 0x0 KECCAK256 PUSH1 0x1F DUP5 ADD PUSH1 0x5 SHR DUP2 ADD SWAP2 PUSH1 0x20 DUP6 LT PUSH2 0x11F1 JUMPI JUMPDEST PUSH1 0x1F ADD PUSH1 0x5 SHR ADD SWAP1 JUMPDEST DUP2 DUP2 LT PUSH2 0x11E5 JUMPI POP PUSH2 0x10BF JUMP JUMPDEST PUSH1 0x0 DUP2 SSTORE PUSH1 0x1 ADD PUSH2 0x11D8 JUMP JUMPDEST SWAP1 SWAP2 POP DUP2 SWAP1 PUSH2 0x11CF JUMP JUMPDEST PUSH4 0x4E487B71 PUSH1 0xE0 SHL PUSH1 0x0 MSTORE PUSH1 0x0 PUSH1 0x4 MSTORE PUSH1 0x24 PUSH1 0x0 REVERT JUMPDEST PUSH1 0x40 MLOAD PUSH3 0x461BCD PUSH1 0xE5 SHL DUP2 MSTORE PUSH1 0x20 PUSH1 0x4 DUP3 ADD MSTORE PUSH1 0x1C PUSH1 0x24 DUP3 ADD MSTORE PUSH32 0x4F6E6C7920626964646572732063616E207375626D6974206269647300000000 PUSH1 0x44 DUP3 ADD MSTORE PUSH1 0x64 SWAP1 REVERT JUMPDEST PUSH1 0x40 MLOAD PUSH3 0x461BCD PUSH1 0xE5 SHL DUP2 MSTORE PUSH1 0x20 PUSH1 0x4 DUP3 ADD MSTORE PUSH1 0x16 PUSH1 0x24 DUP3 ADD MSTORE PUSH22 0x15195B99195C88191958591B1A5B99481C185CDCD959 PUSH1 0x52 SHL PUSH1 0x44 DUP3 ADD MSTORE PUSH1 0x64 SWAP1 REVERT JUMPDEST PUSH1 0x40 MLOAD PUSH3 0x461BCD PUSH1 0xE5 SHL DUP2 MSTORE PUSH1 0x20 PUSH1 0x4 DUP3 ADD MSTORE PUSH1 0x14 PUSH1 0x24 DUP3 ADD MSTORE PUSH20 0x54656E646572206973206E6F7420616374697665 PUSH1 0x60 SHL PUSH1 0x44 DUP3 ADD MSTORE PUSH1 0x64 SWAP1 REVERT JUMPDEST CALLVALUE PUSH2 0x15A JUMPI PUSH1 0x20 DUP1 PUSH1 0x3 NOT CALLDATASIZE ADD SLT PUSH2 0x15A JUMPI PUSH1 0x4 CALLDATALOAD PUSH1 0x0 MSTORE PUSH1 0x4 DUP2 MSTORE PUSH1 0x40 PUSH1 0x0 KECCAK256 SWAP1 DUP2 SLOAD SWAP2 PUSH2 0x12FE DUP4 PUSH2 0x1F6D JUMP JUMPDEST SWAP3 PUSH2 0x130C PUSH1 0x40 MLOAD SWAP5 DUP6 PUSH2 0x1CF4 JUMP JUMPDEST DUP1 DUP5 MSTORE DUP3 DUP5 ADD DUP1 SWAP3 PUSH1 0x0 MSTORE DUP4 PUSH1 0x0 KECCAK256 PUSH1 0x0 SWAP2 JUMPDEST DUP4 DUP4 LT PUSH2 0x13BF JUMPI POP POP POP POP PUSH1 0x40 MLOAD SWAP2 DUP1 DUP4 ADD SWAP4 DUP2 DUP5 MSTORE MLOAD DUP1 SWAP5 MSTORE PUSH1 0x40 DUP4 ADD SWAP4 PUSH1 0x40 DUP2 PUSH1 0x5 SHL DUP6 ADD ADD SWAP3 SWAP2 PUSH1 0x0 SWAP6 JUMPDEST DUP3 DUP8 LT PUSH2 0x135A JUMPI DUP6 DUP6 SUB DUP7 RETURN JUMPDEST SWAP1 SWAP2 SWAP3 SWAP4 DUP3 DUP1 PUSH1 0x1 SWAP3 PUSH1 0x3F NOT DUP10 DUP3 SUB ADD DUP6 MSTORE DUP8 MLOAD SWAP1 DUP2 MLOAD DUP2 MSTORE DUP5 DUP1 PUSH1 0xA0 SHL SUB DUP4 DUP4 ADD MLOAD AND DUP4 DUP3 ADD MSTORE PUSH1 0x40 DUP3 ADD MLOAD PUSH1 0x40 DUP3 ADD MSTORE PUSH2 0x13A5 PUSH1 0x60 DUP1 DUP5 ADD MLOAD SWAP1 PUSH1 0xA0 DUP1 SWAP2 DUP6 ADD MSTORE DUP4 ADD SWAP1 PUSH2 0x1C27 JUMP JUMPDEST SWAP2 PUSH1 0x80 DUP1 SWAP2 ADD MLOAD SWAP2 ADD MSTORE SWAP7 ADD SWAP3 ADD SWAP7 ADD SWAP6 SWAP3 SWAP2 SWAP1 SWAP3 PUSH2 0x134D JUMP JUMPDEST PUSH1 0x5 DUP7 PUSH1 0x1 SWAP3 PUSH1 0x40 SWAP10 SWAP9 SWAP10 MLOAD PUSH2 0x13D4 DUP2 PUSH2 0x1CD9 JUMP JUMPDEST DUP6 SLOAD DUP2 MSTORE DUP5 DUP1 PUSH1 0xA0 SHL SUB DUP6 DUP8 ADD SLOAD AND DUP4 DUP3 ADD MSTORE PUSH1 0x2 DUP7 ADD SLOAD PUSH1 0x40 DUP3 ADD MSTORE PUSH1 0x40 MLOAD PUSH2 0x1405 DUP2 PUSH2 0x684 DUP2 PUSH1 0x3 DUP12 ADD PUSH2 0x1DBB JUMP JUMPDEST PUSH1 0x60 DUP3 ADD MSTORE PUSH1 0x4 DUP7 ADD SLOAD PUSH1 0x80 DUP3 ADD MSTORE DUP2 MSTORE ADD SWAP3 ADD SWAP3 ADD SWAP2 SWAP1 SWAP6 SWAP5 SWAP6 PUSH2 0x131F JUMP JUMPDEST CALLVALUE PUSH2 0x15A JUMPI PUSH1 0x80 CALLDATASIZE PUSH1 0x3 NOT ADD SLT PUSH2 0x15A JUMPI PUSH1 0x4 CALLDATALOAD PUSH1 0x1 PUSH1 0x1 PUSH1 0x40 SHL SUB DUP2 GT PUSH2 0x15A JUMPI PUSH2 0x1455 SWAP1 CALLDATASIZE SWAP1 PUSH1 0x4 ADD PUSH2 0x1D15 JUMP JUMPDEST PUSH1 0x24 CALLDATALOAD PUSH1 0x1 PUSH1 0x1 PUSH1 0x40 SHL SUB DUP2 GT PUSH2 0x15A JUMPI PUSH2 0x1474 SWAP1 CALLDATASIZE SWAP1 PUSH1 0x4 ADD PUSH2 0x1D15 JUMP JUMPDEST SWAP1 PUSH1 0x44 CALLDATALOAD PUSH1 0x1 PUSH1 0x1 PUSH1 0x40 SHL SUB DUP2 GT PUSH2 0x15A JUMPI PUSH2 0x1494 SWAP1 CALLDATASIZE SWAP1 PUSH1 0x4 ADD PUSH2 0x1D15 JUMP JUMPDEST PUSH1 0x3 PUSH1 0x64 CALLDATALOAD LT ISZERO PUSH2 0x15A JUMPI PUSH1 0xFF PUSH1 0x40 MLOAD PUSH1 0x20 DUP2 DUP7 MLOAD PUSH2 0x14B6 DUP2 DUP4 DUP6 DUP12 ADD PUSH2 0x1C04 JUMP JUMPDEST DUP2 ADD PUSH1 0x2 DUP2 MSTORE SUB ADD SWAP1 KECCAK256 SLOAD AND PUSH2 0x1AFA JUMPI CALLER PUSH1 0x0 SWAP1 DUP2 MSTORE PUSH1 0x1 PUSH1 0x20 MSTORE PUSH1 0x40 SWAP1 KECCAK256 PUSH1 0x3 ADD SLOAD PUSH1 0x1 PUSH1 0x1 PUSH1 0xA0 SHL SUB AND PUSH2 0x1AB5 JUMPI PUSH1 0x40 MLOAD SWAP2 PUSH2 0x14F3 DUP4 PUSH2 0x1CBD JUMP JUMPDEST DUP3 MSTORE DUP3 PUSH1 0x20 DUP4 ADD MSTORE PUSH1 0x40 DUP3 ADD MSTORE CALLER PUSH1 0x60 DUP3 ADD MSTORE PUSH2 0x1515 PUSH1 0x64 CALLDATALOAD PUSH1 0x80 DUP4 ADD PUSH2 0x1EBC JUMP JUMPDEST PUSH1 0x0 PUSH1 0xA0 DUP3 ADD MSTORE PUSH1 0x40 MLOAD DUP1 PUSH1 0x20 DUP2 ADD LT PUSH1 0x1 PUSH1 0x1 PUSH1 0x40 SHL SUB PUSH1 0x20 DUP4 ADD GT OR PUSH2 0x478 JUMPI PUSH1 0x20 DUP2 ADD PUSH1 0x40 MSTORE PUSH1 0x0 DUP2 MSTORE PUSH1 0xC0 DUP3 ADD MSTORE TIMESTAMP PUSH1 0xE0 DUP3 ADD MSTORE CALLER PUSH1 0x0 MSTORE PUSH1 0x1 PUSH1 0x20 MSTORE PUSH1 0x40 PUSH1 0x0 KECCAK256 SWAP1 DUP1 MLOAD SWAP3 DUP4 MLOAD PUSH1 0x1 PUSH1 0x1 PUSH1 0x40 SHL SUB DUP2 GT PUSH2 0x478 JUMPI PUSH2 0x1579 DUP5 SLOAD PUSH2 0x1D81 JUMP JUMPDEST PUSH1 0x1F DUP2 GT PUSH2 0x1A71 JUMPI JUMPDEST POP PUSH1 0x20 PUSH1 0x1F DUP3 GT PUSH1 0x1 EQ PUSH2 0x1A08 JUMPI DUP2 SWAP3 SWAP4 SWAP5 SWAP6 PUSH1 0x0 SWAP3 PUSH2 0x19FD JUMPI JUMPDEST POP POP DUP2 PUSH1 0x1 SHL SWAP2 PUSH1 0x0 NOT SWAP1 PUSH1 0x3 SHL SHR NOT AND OR DUP4 SSTORE JUMPDEST PUSH1 0x20 DUP3 ADD MLOAD SWAP3 DUP4 MLOAD PUSH1 0x1 PUSH1 0x1 PUSH1 0x40 SHL SUB DUP2 GT PUSH2 0x478 JUMPI PUSH2 0x15D5 PUSH1 0x1 DUP4 ADD SLOAD PUSH2 0x1D81 JUMP JUMPDEST PUSH1 0x1F DUP2 GT PUSH2 0x19B6 JUMPI JUMPDEST POP PUSH1 0x20 PUSH1 0x1F DUP3 GT PUSH1 0x1 EQ PUSH2 0x1947 JUMPI DUP2 SWAP3 SWAP4 SWAP5 SWAP6 PUSH1 0x0 SWAP3 PUSH2 0x193C JUMPI JUMPDEST POP POP DUP2 PUSH1 0x1 SHL SWAP2 PUSH1 0x0 NOT SWAP1 PUSH1 0x3 SHL SHR NOT AND OR PUSH1 0x1 DUP3 ADD SSTORE JUMPDEST PUSH1 0x40 DUP4 ADD MLOAD SWAP3 DUP4 MLOAD PUSH1 0x1 PUSH1 0x1 PUSH1 0x40 SHL SUB DUP2 GT PUSH2 0x478 JUMPI PUSH2 0x1634 PUSH1 0x2 DUP5 ADD SLOAD PUSH2 0x1D81 JUMP JUMPDEST PUSH1 0x1F DUP2 GT PUSH2 0x18F5 JUMPI JUMPDEST POP PUSH1 0x20 PUSH1 0x1F DUP3 GT PUSH1 0x1 EQ PUSH2 0x1886 JUMPI DUP2 SWAP3 SWAP4 SWAP5 SWAP6 PUSH1 0x0 SWAP3 PUSH2 0x187B JUMPI JUMPDEST POP POP DUP2 PUSH1 0x1 SHL SWAP2 PUSH1 0x0 NOT SWAP1 PUSH1 0x3 SHL SHR NOT AND OR PUSH1 0x2 DUP4 ADD SSTORE JUMPDEST PUSH1 0x3 DUP3 ADD PUSH1 0x1 DUP1 PUSH1 0xA0 SHL SUB PUSH1 0x60 DUP4 ADD MLOAD AND SWAP1 DUP1 SLOAD PUSH1 0x80 DUP5 ADD MLOAD SWAP3 PUSH1 0x3 DUP5 LT ISZERO PUSH2 0x593 JUMPI PUSH1 0xA0 DUP6 DUP2 ADD MLOAD PUSH1 0xFF PUSH1 0xA8 SHL SWAP1 ISZERO ISZERO PUSH1 0xA8 SHL AND PUSH1 0xFF PUSH1 0xA0 SHL SWAP6 SWAP1 SWAP2 SHL SWAP5 SWAP1 SWAP5 AND PUSH1 0x1 PUSH1 0x1 PUSH1 0xB0 SHL SUB NOT SWAP3 SWAP1 SWAP3 AND PUSH1 0xFF PUSH1 0xA8 SHL NOT SWAP2 SWAP1 SWAP2 AND OR OR SWAP2 SWAP1 SWAP2 OR SWAP1 SSTORE PUSH1 0xC0 DUP2 ADD MLOAD DUP1 MLOAD SWAP1 PUSH1 0x1 PUSH1 0x1 PUSH1 0x40 SHL SUB DUP3 GT PUSH2 0x478 JUMPI PUSH2 0x16F4 PUSH1 0x4 DUP6 ADD SLOAD PUSH2 0x1D81 JUMP JUMPDEST PUSH1 0x1F DUP2 GT PUSH2 0x1830 JUMPI JUMPDEST POP PUSH1 0x20 SWAP1 PUSH1 0x1F DUP4 GT PUSH1 0x1 EQ PUSH2 0x17BD JUMPI SWAP2 DUP1 PUSH1 0x5 SWAP5 SWAP3 PUSH1 0xE0 SWAP5 PUSH1 0x0 SWAP3 PUSH2 0x17B2 JUMPI JUMPDEST POP POP DUP2 PUSH1 0x1 SHL SWAP2 PUSH1 0x0 NOT SWAP1 PUSH1 0x3 SHL SHR NOT AND OR PUSH1 0x4 DUP6 ADD SSTORE JUMPDEST ADD MLOAD SWAP2 ADD SSTORE PUSH1 0x40 MLOAD PUSH1 0x20 DUP2 DUP4 MLOAD PUSH2 0x174F DUP2 DUP4 DUP6 DUP9 ADD PUSH2 0x1C04 JUMP JUMPDEST DUP2 ADD PUSH1 0x2 DUP2 MSTORE SUB ADD SWAP1 KECCAK256 PUSH1 0x1 PUSH1 0xFF NOT DUP3 SLOAD AND OR SWAP1 SSTORE PUSH32 0xC2E5D5DA58BD71D1A2D14CDEF02A4256D971B728088F8190D067CCFBAE3BD73E PUSH2 0x179A PUSH1 0x40 MLOAD SWAP3 PUSH1 0x40 DUP5 MSTORE PUSH1 0x40 DUP5 ADD SWAP1 PUSH2 0x1C27 JUMP JUMPDEST SWAP2 PUSH2 0x17AA PUSH1 0x20 DUP3 ADD PUSH1 0x64 CALLDATALOAD PUSH2 0x1E51 JUMP JUMPDEST DUP1 CALLER SWAP4 SUB SWAP1 LOG2 STOP JUMPDEST ADD MLOAD SWAP1 POP DUP8 DUP1 PUSH2 0x171D JUMP JUMPDEST SWAP1 PUSH1 0x1F NOT DUP4 AND SWAP2 PUSH1 0x4 DUP7 ADD PUSH1 0x0 MSTORE PUSH1 0x20 PUSH1 0x0 KECCAK256 SWAP3 PUSH1 0x0 JUMPDEST DUP2 DUP2 LT PUSH2 0x1818 JUMPI POP SWAP3 PUSH1 0x1 SWAP3 DUP6 SWAP3 PUSH1 0xE0 SWAP7 PUSH1 0x5 SWAP9 SWAP7 LT PUSH2 0x17FF JUMPI JUMPDEST POP POP POP DUP2 SHL ADD PUSH1 0x4 DUP6 ADD SSTORE PUSH2 0x1735 JUMP JUMPDEST ADD MLOAD PUSH1 0x0 NOT PUSH1 0xF8 DUP5 PUSH1 0x3 SHL AND SHR NOT AND SWAP1 SSTORE DUP8 DUP1 DUP1 PUSH2 0x17EF JUMP JUMPDEST SWAP3 SWAP4 PUSH1 0x20 PUSH1 0x1 DUP2 SWAP3 DUP8 DUP7 ADD MLOAD DUP2 SSTORE ADD SWAP6 ADD SWAP4 ADD PUSH2 0x17D4 JUMP JUMPDEST PUSH1 0x4 DUP6 ADD PUSH1 0x0 MSTORE PUSH1 0x20 PUSH1 0x0 KECCAK256 PUSH1 0x1F DUP5 ADD PUSH1 0x5 SHR DUP2 ADD SWAP2 PUSH1 0x20 DUP6 LT PUSH2 0x1871 JUMPI JUMPDEST PUSH1 0x1F ADD PUSH1 0x5 SHR ADD SWAP1 JUMPDEST DUP2 DUP2 LT PUSH2 0x1865 JUMPI POP PUSH2 0x16FD JUMP JUMPDEST PUSH1 0x0 DUP2 SSTORE PUSH1 0x1 ADD PUSH2 0x1858 JUMP JUMPDEST SWAP1 SWAP2 POP DUP2 SWAP1 PUSH2 0x184F JUMP JUMPDEST ADD MLOAD SWAP1 POP DUP6 DUP1 PUSH2 0x1658 JUMP JUMPDEST PUSH1 0x2 DUP5 ADD PUSH1 0x0 MSTORE PUSH1 0x20 PUSH1 0x0 KECCAK256 SWAP1 PUSH1 0x0 JUMPDEST PUSH1 0x1F NOT DUP5 AND DUP2 LT PUSH2 0x18DD JUMPI POP PUSH1 0x1 SWAP4 SWAP5 SWAP6 SWAP7 DUP4 PUSH1 0x1F NOT DUP2 AND LT PUSH2 0x18C4 JUMPI JUMPDEST POP POP POP DUP2 SHL ADD PUSH1 0x2 DUP4 ADD SSTORE PUSH2 0x1670 JUMP JUMPDEST ADD MLOAD PUSH1 0x0 NOT PUSH1 0xF8 DUP5 PUSH1 0x3 SHL AND SHR NOT AND SWAP1 SSTORE DUP6 DUP1 DUP1 PUSH2 0x18B4 JUMP JUMPDEST SWAP1 SWAP2 PUSH1 0x20 PUSH1 0x1 DUP2 SWAP3 DUP6 DUP12 ADD MLOAD DUP2 SSTORE ADD SWAP4 ADD SWAP2 ADD PUSH2 0x1896 JUMP JUMPDEST PUSH1 0x2 DUP5 ADD PUSH1 0x0 MSTORE PUSH1 0x20 PUSH1 0x0 KECCAK256 PUSH1 0x1F DUP4 ADD PUSH1 0x5 SHR DUP2 ADD PUSH1 0x20 DUP5 LT PUSH2 0x1935 JUMPI JUMPDEST PUSH1 0x1F DUP4 ADD PUSH1 0x5 SHR DUP3 ADD DUP2 LT PUSH2 0x1929 JUMPI POP POP PUSH2 0x163D JUMP JUMPDEST PUSH1 0x0 DUP2 SSTORE PUSH1 0x1 ADD PUSH2 0x1913 JUMP JUMPDEST POP DUP1 PUSH2 0x1913 JUMP JUMPDEST ADD MLOAD SWAP1 POP DUP6 DUP1 PUSH2 0x15F9 JUMP JUMPDEST PUSH1 0x1 DUP4 ADD PUSH1 0x0 MSTORE PUSH1 0x20 PUSH1 0x0 KECCAK256 SWAP1 PUSH1 0x0 JUMPDEST PUSH1 0x1F NOT DUP5 AND DUP2 LT PUSH2 0x199E JUMPI POP PUSH1 0x1 SWAP4 SWAP5 SWAP6 SWAP7 DUP4 PUSH1 0x1F NOT DUP2 AND LT PUSH2 0x1985 JUMPI JUMPDEST POP POP POP DUP2 SHL ADD PUSH1 0x1 DUP3 ADD SSTORE PUSH2 0x1611 JUMP JUMPDEST ADD MLOAD PUSH1 0x0 NOT PUSH1 0xF8 DUP5 PUSH1 0x3 SHL AND SHR NOT AND SWAP1 SSTORE DUP6 DUP1 DUP1 PUSH2 0x1975 JUMP JUMPDEST SWAP1 SWAP2 PUSH1 0x20 PUSH1 0x1 DUP2 SWAP3 DUP6 DUP12 ADD MLOAD DUP2 SSTORE ADD SWAP4 ADD SWAP2 ADD PUSH2 0x1957 JUMP JUMPDEST PUSH1 0x1 DUP4 ADD PUSH1 0x0 MSTORE PUSH1 0x20 PUSH1 0x0 KECCAK256 PUSH1 0x1F DUP4 ADD PUSH1 0x5 SHR DUP2 ADD PUSH1 0x20 DUP5 LT PUSH2 0x19F6 JUMPI JUMPDEST PUSH1 0x1F DUP4 ADD PUSH1 0x5 SHR DUP3 ADD DUP2 LT PUSH2 0x19EA JUMPI POP POP PUSH2 0x15DE JUMP JUMPDEST PUSH1 0x0 DUP2 SSTORE PUSH1 0x1 ADD PUSH2 0x19D4 JUMP JUMPDEST POP DUP1 PUSH2 0x19D4 JUMP JUMPDEST ADD MLOAD SWAP1 POP DUP6 DUP1 PUSH2 0x159D JUMP JUMPDEST DUP5 PUSH1 0x0 MSTORE PUSH1 0x20 PUSH1 0x0 KECCAK256 SWAP1 PUSH1 0x0 JUMPDEST PUSH1 0x1F NOT DUP5 AND DUP2 LT PUSH2 0x1A59 JUMPI POP PUSH1 0x1 SWAP4 SWAP5 SWAP6 SWAP7 DUP4 PUSH1 0x1F NOT DUP2 AND LT PUSH2 0x1A40 JUMPI JUMPDEST POP POP POP DUP2 SHL ADD DUP4 SSTORE PUSH2 0x15B2 JUMP JUMPDEST ADD MLOAD PUSH1 0x0 NOT PUSH1 0xF8 DUP5 PUSH1 0x3 SHL AND SHR NOT AND SWAP1 SSTORE DUP6 DUP1 DUP1 PUSH2 0x1A33 JUMP JUMPDEST SWAP1 SWAP2 PUSH1 0x20 PUSH1 0x1 DUP2 SWAP3 DUP6 DUP12 ADD MLOAD DUP2 SSTORE ADD SWAP4 ADD SWAP2 ADD PUSH2 0x1A15 JUMP JUMPDEST DUP5 PUSH1 0x0 MSTORE PUSH1 0x20 PUSH1 0x0 KECCAK256 PUSH1 0x1F DUP4 ADD PUSH1 0x5 SHR DUP2 ADD PUSH1 0x20 DUP5 LT PUSH2 0x1AAE JUMPI JUMPDEST PUSH1 0x1F DUP4 ADD PUSH1 0x5 SHR DUP3 ADD DUP2 LT PUSH2 0x1AA2 JUMPI POP POP PUSH2 0x1582 JUMP JUMPDEST PUSH1 0x0 DUP2 SSTORE PUSH1 0x1 ADD PUSH2 0x1A8C JUMP JUMPDEST POP DUP1 PUSH2 0x1A8C JUMP JUMPDEST PUSH1 0x40 MLOAD PUSH3 0x461BCD PUSH1 0xE5 SHL DUP2 MSTORE PUSH1 0x20 PUSH1 0x4 DUP3 ADD MSTORE PUSH1 0x17 PUSH1 0x24 DUP3 ADD MSTORE PUSH32 0x5573657220616C72656164792072656769737465726564000000000000000000 PUSH1 0x44 DUP3 ADD MSTORE PUSH1 0x64 SWAP1 REVERT JUMPDEST PUSH1 0x40 MLOAD PUSH3 0x461BCD PUSH1 0xE5 SHL DUP2 MSTORE PUSH1 0x20 PUSH1 0x4 DUP3 ADD MSTORE PUSH1 0x17 PUSH1 0x24 DUP3 ADD MSTORE PUSH32 0x557365726E616D6520616C726561647920657869737473000000000000000000 PUSH1 0x44 DUP3 ADD MSTORE PUSH1 0x64 SWAP1 REVERT JUMPDEST CALLVALUE PUSH2 0x15A JUMPI PUSH1 0x20 CALLDATASIZE PUSH1 0x3 NOT ADD SLT PUSH2 0x15A JUMPI PUSH2 0x1B58 PUSH2 0x1F2D JUMP JUMPDEST POP PUSH1 0x4 CALLDATALOAD PUSH1 0x0 MSTORE PUSH1 0x3 PUSH1 0x20 MSTORE PUSH2 0x1C00 PUSH1 0x40 PUSH1 0x0 KECCAK256 PUSH1 0x6 PUSH1 0x40 MLOAD SWAP2 PUSH2 0x1B7B DUP4 PUSH2 0x1CBD JUMP JUMPDEST DUP1 SLOAD DUP4 MSTORE PUSH1 0x40 MLOAD PUSH2 0x1B93 DUP2 PUSH2 0x684 DUP2 PUSH1 0x1 DUP7 ADD PUSH2 0x1DBB JUMP JUMPDEST PUSH1 0x20 DUP5 ADD MSTORE PUSH1 0x40 MLOAD PUSH2 0x1BAC DUP2 PUSH2 0x684 DUP2 PUSH1 0x2 DUP7 ADD PUSH2 0x1DBB JUMP JUMPDEST PUSH1 0x40 DUP5 ADD MSTORE PUSH1 0x3 DUP2 ADD SLOAD PUSH1 0x60 DUP5 ADD MSTORE PUSH1 0x4 DUP2 ADD SLOAD PUSH1 0x80 DUP5 ADD MSTORE PUSH1 0xFF PUSH1 0x5 DUP3 ADD SLOAD PUSH1 0x1 DUP1 PUSH1 0xA0 SHL SUB DUP2 AND PUSH1 0xA0 DUP7 ADD MSTORE PUSH1 0xA0 SHR AND ISZERO ISZERO PUSH1 0xC0 DUP5 ADD MSTORE ADD SLOAD PUSH1 0xE0 DUP3 ADD MSTORE PUSH1 0x40 MLOAD SWAP2 DUP3 SWAP2 PUSH1 0x20 DUP4 MSTORE PUSH1 0x20 DUP4 ADD SWAP1 PUSH2 0x1C4C JUMP JUMPDEST SUB SWAP1 RETURN JUMPDEST PUSH1 0x0 JUMPDEST DUP4 DUP2 LT PUSH2 0x1C17 JUMPI POP POP PUSH1 0x0 SWAP2 ADD MSTORE JUMP JUMPDEST DUP2 DUP2 ADD MLOAD DUP4 DUP3 ADD MSTORE PUSH1 0x20 ADD PUSH2 0x1C07 JUMP JUMPDEST SWAP1 PUSH1 0x20 SWAP2 PUSH2 0x1C40 DUP2 MLOAD DUP1 SWAP3 DUP2 DUP6 MSTORE DUP6 DUP1 DUP7 ADD SWAP2 ADD PUSH2 0x1C04 JUMP JUMPDEST PUSH1 0x1F ADD PUSH1 0x1F NOT AND ADD ADD SWAP1 JUMP JUMPDEST SWAP1 DUP2 MLOAD DUP2 MSTORE PUSH1 0xE0 DUP1 PUSH2 0x1C82 PUSH2 0x1C70 PUSH1 0x20 DUP7 ADD MLOAD PUSH2 0x100 DUP1 PUSH1 0x20 DUP9 ADD MSTORE DUP7 ADD SWAP1 PUSH2 0x1C27 JUMP JUMPDEST PUSH1 0x40 DUP7 ADD MLOAD DUP6 DUP3 SUB PUSH1 0x40 DUP8 ADD MSTORE PUSH2 0x1C27 JUMP JUMPDEST SWAP4 PUSH1 0x60 DUP2 ADD MLOAD PUSH1 0x60 DUP6 ADD MSTORE PUSH1 0x80 DUP2 ADD MLOAD PUSH1 0x80 DUP6 ADD MSTORE PUSH1 0x1 DUP1 PUSH1 0xA0 SHL SUB PUSH1 0xA0 DUP3 ADD MLOAD AND PUSH1 0xA0 DUP6 ADD MSTORE PUSH1 0xC0 DUP2 ADD MLOAD ISZERO ISZERO PUSH1 0xC0 DUP6 ADD MSTORE ADD MLOAD SWAP2 ADD MSTORE SWAP1 JUMP JUMPDEST PUSH2 0x100 DUP2 ADD SWAP1 DUP2 LT PUSH1 0x1 PUSH1 0x1 PUSH1 0x40 SHL SUB DUP3 GT OR PUSH2 0x478 JUMPI PUSH1 0x40 MSTORE JUMP JUMPDEST PUSH1 0xA0 DUP2 ADD SWAP1 DUP2 LT PUSH1 0x1 PUSH1 0x1 PUSH1 0x40 SHL SUB DUP3 GT OR PUSH2 0x478 JUMPI PUSH1 0x40 MSTORE JUMP JUMPDEST SWAP1 PUSH1 0x1F DUP1 NOT SWAP2 ADD AND DUP2 ADD SWAP1 DUP2 LT PUSH1 0x1 PUSH1 0x1 PUSH1 0x40 SHL SUB DUP3 GT OR PUSH2 0x478 JUMPI PUSH1 0x40 MSTORE JUMP JUMPDEST DUP2 PUSH1 0x1F DUP3 ADD SLT ISZERO PUSH2 0x15A JUMPI DUP1 CALLDATALOAD SWAP1 PUSH1 0x1 PUSH1 0x1 PUSH1 0x40 SHL SUB DUP3 GT PUSH2 0x478 JUMPI PUSH1 0x40 MLOAD SWAP3 PUSH2 0x1D49 PUSH1 0x1F DUP5 ADD PUSH1 0x1F NOT AND PUSH1 0x20 ADD DUP6 PUSH2 0x1CF4 JUMP JUMPDEST DUP3 DUP5 MSTORE PUSH1 0x20 DUP4 DUP4 ADD ADD GT PUSH2 0x15A JUMPI DUP2 PUSH1 0x0 SWAP3 PUSH1 0x20 DUP1 SWAP4 ADD DUP4 DUP7 ADD CALLDATACOPY DUP4 ADD ADD MSTORE SWAP1 JUMP JUMPDEST PUSH1 0x4 CALLDATALOAD SWAP1 PUSH1 0x1 PUSH1 0x1 PUSH1 0xA0 SHL SUB DUP3 AND DUP3 SUB PUSH2 0x15A JUMPI JUMP JUMPDEST SWAP1 PUSH1 0x1 DUP3 DUP2 SHR SWAP3 AND DUP1 ISZERO PUSH2 0x1DB1 JUMPI JUMPDEST PUSH1 0x20 DUP4 LT EQ PUSH2 0x1D9B JUMPI JUMP JUMPDEST PUSH4 0x4E487B71 PUSH1 0xE0 SHL PUSH1 0x0 MSTORE PUSH1 0x22 PUSH1 0x4 MSTORE PUSH1 0x24 PUSH1 0x0 REVERT JUMPDEST SWAP2 PUSH1 0x7F AND SWAP2 PUSH2 0x1D90 JUMP JUMPDEST SWAP1 PUSH1 0x0 SWAP3 SWAP2 DUP1 SLOAD SWAP2 PUSH2 0x1DCC DUP4 PUSH2 0x1D81 JUMP JUMPDEST SWAP2 DUP3 DUP3 MSTORE PUSH1 0x1 SWAP4 DUP5 DUP2 AND SWAP1 DUP2 PUSH1 0x0 EQ PUSH2 0x1E2E JUMPI POP PUSH1 0x1 EQ PUSH2 0x1DEE JUMPI JUMPDEST POP POP POP POP JUMP JUMPDEST SWAP1 SWAP2 SWAP4 SWAP5 POP PUSH1 0x0 MSTORE PUSH1 0x20 SWAP3 DUP4 PUSH1 0x0 KECCAK256 SWAP3 DUP5 PUSH1 0x0 SWAP5 JUMPDEST DUP4 DUP7 LT PUSH2 0x1E1A JUMPI POP POP POP POP ADD ADD SWAP1 CODESIZE DUP1 DUP1 DUP1 PUSH2 0x1DE8 JUMP JUMPDEST DUP1 SLOAD DUP6 DUP8 ADD DUP4 ADD MSTORE SWAP5 ADD SWAP4 DUP6 SWAP1 DUP3 ADD PUSH2 0x1E03 JUMP JUMPDEST SWAP3 SWAP5 POP POP POP PUSH1 0x20 SWAP4 SWAP5 POP PUSH1 0xFF NOT AND DUP4 DUP4 ADD MSTORE ISZERO ISZERO PUSH1 0x5 SHL ADD ADD SWAP1 CODESIZE DUP1 DUP1 DUP1 PUSH2 0x1DE8 JUMP JUMPDEST SWAP1 PUSH1 0x3 DUP3 LT ISZERO PUSH2 0x593 JUMPI MSTORE JUMP JUMPDEST DUP1 SLOAD DUP3 LT ISZERO PUSH2 0x1E7A JUMPI PUSH1 0x0 MSTORE PUSH1 0x5 PUSH1 0x20 PUSH1 0x0 KECCAK256 SWAP2 MUL ADD SWAP1 PUSH1 0x0 SWAP1 JUMP JUMPDEST PUSH4 0x4E487B71 PUSH1 0xE0 SHL PUSH1 0x0 MSTORE PUSH1 0x32 PUSH1 0x4 MSTORE PUSH1 0x24 PUSH1 0x0 REVERT JUMPDEST PUSH1 0x0 SLOAD PUSH1 0x1 PUSH1 0x1 PUSH1 0xA0 SHL SUB AND CALLER SUB PUSH2 0x1EA4 JUMPI JUMP JUMPDEST PUSH1 0x40 MLOAD PUSH4 0x118CDAA7 PUSH1 0xE0 SHL DUP2 MSTORE CALLER PUSH1 0x4 DUP3 ADD MSTORE PUSH1 0x24 SWAP1 REVERT JUMPDEST PUSH1 0x3 DUP3 LT ISZERO PUSH2 0x593 JUMPI MSTORE JUMP JUMPDEST ISZERO PUSH2 0x1ECF JUMPI JUMP JUMPDEST PUSH1 0x40 MLOAD PUSH3 0x461BCD PUSH1 0xE5 SHL DUP2 MSTORE PUSH1 0x20 PUSH1 0x4 DUP3 ADD MSTORE PUSH1 0x11 PUSH1 0x24 DUP3 ADD MSTORE PUSH17 0x155CD95C881B9BDD08185C1C1C9BDD9959 PUSH1 0x7A SHL PUSH1 0x44 DUP3 ADD MSTORE PUSH1 0x64 SWAP1 REVERT JUMPDEST PUSH1 0x0 NOT DUP2 EQ PUSH2 0x1F17 JUMPI PUSH1 0x1 ADD SWAP1 JUMP JUMPDEST PUSH4 0x4E487B71 PUSH1 0xE0 SHL PUSH1 0x0 MSTORE PUSH1 0x11 PUSH1 0x4 MSTORE PUSH1 0x24 PUSH1 0x0 REVERT JUMPDEST PUSH1 0x40 MLOAD SWAP1 PUSH2 0x1F3A DUP3 PUSH2 0x1CBD JUMP JUMPDEST DUP2 PUSH1 0xE0 PUSH1 0x0 SWAP2 DUP3 DUP2 MSTORE PUSH1 0x60 PUSH1 0x20 DUP3 ADD MSTORE PUSH1 0x60 PUSH1 0x40 DUP3 ADD MSTORE DUP3 PUSH1 0x60 DUP3 ADD MSTORE DUP3 PUSH1 0x80 DUP3 ADD MSTORE DUP3 PUSH1 0xA0 DUP3 ADD MSTORE DUP3 PUSH1 0xC0 DUP3 ADD MSTORE ADD MSTORE JUMP JUMPDEST PUSH1 0x1 PUSH1 0x1 PUSH1 0x40 SHL SUB DUP2 GT PUSH2 0x478 JUMPI PUSH1 0x5 SHL PUSH1 0x20 ADD SWAP1 JUMP JUMPDEST DUP1 MLOAD DUP3 LT ISZERO PUSH2 0x1E7A JUMPI PUSH1 0x20 SWAP2 PUSH1 0x5 SHL ADD ADD SWAP1 JUMP INVALID LOG2 PUSH5 0x6970667358 0x22 SLT KECCAK256 0xC1 CREATE2 OR 0xDC DUP5 INVALID PUSH23 0xCEC91E96C00148B45DDAE1595C9D5CF1CA6D78DFF50B57 0xEE RETURN PUSH5 0x736F6C6343 STOP ADDMOD EQ STOP CALLER "},"methodIdentifiers":{"approveUser(address,bool,string)":"3a9361bd","bids(uint256,uint256)":"7b3c4baa","createTender(string,string,uint256,uint256)":"d927ee88","getActiveTenders()":"2ac6c785","getBids(uint256)":"131d9a27","getTender(uint256)":"0585c25e","getUser(address)":"6f77926b","owner()":"8da5cb5b","registerUser(string,string,string,uint8)":"0f771417","renounceOwnership()":"715018a6","submitBid(uint256,uint256,string)":"14c60bdd","tenderCount()":"1f058776","tenders(uint256)":"465e1def","transferOwnership(address)":"f2fde38b","usernames(string)":"aaee301f","users(address)":"a87430ba"}}}}}