{"src/contracts/AdminManagement.sol":{"AdminManagement":{"abi":[{"inputs":[{"internalType":"address","name":"initialOwner","type":"address"}],"stateMutability":"nonpayable","type":"constructor"},{"inputs":[{"internalType":"address","name":"owner","type":"address"}],"name":"OwnableInvalidOwner","type":"error"},{"inputs":[{"internalType":"address","name":"account","type":"address"}],"name":"OwnableUnauthorizedAccount","type":"error"},{"anonymous":false,"inputs":[{"indexed":true,"internalType":"address","name":"officer","type":"address"},{"indexed":false,"internalType":"string","name":"name","type":"string"}],"name":"OfficerAppointed","type":"event"},{"anonymous":false,"inputs":[{"indexed":true,"internalType":"address","name":"officer","type":"address"},{"indexed":false,"internalType":"bool","name":"canCreate","type":"bool"},{"indexed":false,"internalType":"bool","name":"canApprove","type":"bool"}],"name":"OfficerPermissionsUpdated","type":"event"},{"anonymous":false,"inputs":[{"indexed":true,"internalType":"address","name":"officer","type":"address"}],"name":"OfficerRemoved","type":"event"},{"anonymous":false,"inputs":[{"indexed":true,"internalType":"address","name":"previousOwner","type":"address"},{"indexed":true,"internalType":"address","name":"newOwner","type":"address"}],"name":"OwnershipTransferred","type":"event"},{"inputs":[{"internalType":"address","name":"_officerAddress","type":"address"},{"internalType":"string","name":"_name","type":"string"},{"internalType":"bool","name":"_canCreateTenders","type":"bool"},{"internalType":"bool","name":"_canApproveBids","type":"bool"}],"name":"appointOfficer","outputs":[],"stateMutability":"nonpayable","type":"function"},{"inputs":[],"name":"getActiveOfficers","outputs":[{"internalType":"address[]","name":"","type":"address[]"}],"stateMutability":"view","type":"function"},{"inputs":[{"internalType":"address","name":"_officerAddress","type":"address"}],"name":"getOfficer","outputs":[{"components":[{"internalType":"string","name":"name","type":"string"},{"internalType":"bool","name":"canCreateTenders","type":"bool"},{"internalType":"bool","name":"canApproveBids","type":"bool"},{"internalType":"bool","name":"isActive","type":"bool"}],"internalType":"struct AdminManagement.Officer","name":"","type":"tuple"}],"stateMutability":"view","type":"function"},{"inputs":[{"internalType":"uint256","name":"","type":"uint256"}],"name":"officerList","outputs":[{"internalType":"address","name":"","type":"address"}],"stateMutability":"view","type":"function"},{"inputs":[{"internalType":"address","name":"","type":"address"}],"name":"officers","outputs":[{"internalType":"string","name":"name","type":"string"},{"internalType":"bool","name":"canCreateTenders","type":"bool"},{"internalType":"bool","name":"canApproveBids","type":"bool"},{"internalType":"bool","name":"isActive","type":"bool"}],"stateMutability":"view","type":"function"},{"inputs":[],"name":"owner","outputs":[{"internalType":"address","name":"","type":"address"}],"stateMutability":"view","type":"function"},{"inputs":[{"internalType":"address","name":"_officerAddress","type":"address"}],"name":"removeOfficer","outputs":[],"stateMutability":"nonpayable","type":"function"},{"inputs":[],"name":"renounceOwnership","outputs":[],"stateMutability":"nonpayable","type":"function"},{"inputs":[{"internalType":"address","name":"newOwner","type":"address"}],"name":"transferOwnership","outputs":[],"stateMutability":"nonpayable","type":"function"},{"inputs":[{"internalType":"address","name":"_officerAddress","type":"address"},{"internalType":"bool","name":"_canCreateTenders","type":"bool"},{"internalType":"bool","name":"_canApproveBids","type":"bool"}],"name":"updateOfficerPermissions","outputs":[],"stateMutability":"nonpayable","type":"function"}],"evm":{"bytecode":{"linkReferences":{},"object":"6080346100bb57601f610d0a38819003918201601f19168301916001600160401b038311848410176100c0578084926020946040528339810103126100bb57516001600160a01b0390818116908190036100bb5780156100a257600080546001600160a01b03198116831782556040519316907f8be0079c531659141344cd1fd0a4f28419497f9722a3daafe3b4186f6b6457e09080a3610c3390816100d78239f35b604051631e4fbdf760e01b815260006004820152602490fd5b600080fd5b634e487b7160e01b600052604160045260246000fdfe604060808152600436101561001357600080fd5b60003560e01c8063084866dd146109185780631e572c0f1461084c57806334a3537b146104d757806348cace83146104965780634ac52c24146103c2578063715018a614610369578063719a0f8c146102e35780638da5cb5b146102ba578063c10fd6dd1461011d5763f2fde38b1461008b57600080fd5b34610118576020366003190112610118576100a4610995565b6100ac610b4f565b6001600160a01b039081169182156101015750600054826bffffffffffffffffffffffff60a01b821617600055167f8be0079c531659141344cd1fd0a4f28419497f9722a3daafe3b4186f6b6457e0600080a3005b51631e4fbdf760e01b815260006004820152602490fd5b600080fd5b5034610118576000366003190112610118576000906000600254905b81811061025d575061016261014d84610be5565b9361015a84519586610a01565b808552610be5565b6020848101929091601f19013684376000805b8282106101c557505050825193849382850191838652518092528401929160005b8281106101a557505050500390f35b83516001600160a01b031685528695509381019392810192600101610196565b6101d28297959697610b18565b60018060a01b03809254600392831b1c1660005260ff60018088528a600020015460101c16610212575b50509061020890610bc0565b9095949395610175565b61021b84610b18565b9054911b1c168551821015610247578161024091866102089460051b89010152610bc0565b90386101fc565b634e487b7160e01b600052603260045260246000fd5b61026a8194929394610b18565b60018060a01b0391549060031b1c1660005260ff60018060205285600020015460101c166102a5575b61029c90610bc0565b92919092610139565b906102b261029c91610bc0565b919050610293565b50346101185760003660031901126101185760005490516001600160a01b039091168152602090f35b50346101185760203660031901126101185760016102ff610995565b610307610b4f565b818060a01b031691826000528160205261032c60ff8383600020015460101c16610b7b565b82600052816020526000200162ff00001981541690557fc71ac73682f965d639a2f97202d5b162f5ea75f1ef0e933bad7f1db870a4c254600080a2005b3461011857600036600319011261011857610382610b4f565b600080546001600160a01b0319811682556001600160a01b03167f8be0079c531659141344cd1fd0a4f28419497f9722a3daafe3b4186f6b6457e08280a3005b5034610118576060366003190112610118576103dc610995565b60243591821515808403610118577f1409a6573d9c6d90ded7d595beb38d129f18081ae8a1018662713cbc1488041c92610487610417610b09565b8092610421610b4f565b60018060a01b03169687600052600160205261044960ff600188600020015460101c16610b7b565b87600052600160205261046f6001876000200191829060ff801983541691151516179055565b9061ff00825491151560081b169061ff001916179055565b825191825215156020820152a2005b50346101185760203660031901126101185760043590600254821015610118576104c1602092610b18565b905491519160018060a01b039160031b1c168152f35b5034610118576080366003190112610118576104f1610995565b906024359167ffffffffffffffff808411610118573660238501121561011857836004013581811161070757835194610534601f8301601f191660200187610a01565b81865236602483830101116101185781600092602460209301838901378601015261055d610b09565b9060643580151580910361011857610573610b4f565b6001600160a01b038416156108165760018060a01b038416600052600160205260ff600186600020015460101c166107d9578451926105b1846109e5565b86845215156020840152848301526001606083015260018060a01b0383166000526001602052836000209082518051918211610707576105f183546109ab565b601f8111610795575b50602090601f83116001146107285791806060949260019460009261071d575b5050600019600383901b1c191690831b1781555b019161064c60208201511515849060ff801983541691151516179055565b80850151835461ff00191690151560081b61ff00161783550151815462ff0000191690151560101b62ff0000161790556002549068010000000000000000821015610707577f51fadfdef046410e08649e65456ef08f429833c2095cd7092ee0bb0cbf519ded926106c68360016107029501600255610b18565b81549060031b9060018060a01b038516821b9160018060a01b03901b1916179055519182916020835260018060a01b0316946020830190610ac9565b0390a2005b634e487b7160e01b600052604160045260246000fd5b01519050388061061a565b90601f198316918460005260206000209260005b81811061077d57509260019491928593836060989610610764575b505050811b01815561062e565b015160001960f88460031b161c19169055388080610757565b9293602060018192878601518155019501930161073c565b836000526020600020601f840160051c8101602085106107d2575b601f830160051c820181106107c65750506105fa565b600081556001016107b0565b50806107b0565b845162461bcd60e51b81526020600482015260166024820152754f66666963657220616c72656164792065786973747360501b6044820152606490fd5b845162461bcd60e51b815260206004820152600f60248201526e496e76616c6964206164647265737360881b6044820152606490fd5b5034610118576020806003193601126101185760809161086a610995565b600060608351610879816109e5565b81815282868201528285820152015260018060a01b031660005260018252806000209160018251936108aa856109e5565b6108b381610a23565b85520154908084019260ff8316151584526108fc8186019260ff8560081c161515845260ff606088019560101c16151585528251978897828952519188015260a0870190610ac9565b9351151590850152511515606084015251151560808301520390f35b50346101185760203660031901126101185761096f906001600160a01b0361093e610995565b166000526001602052806000209060ff600161095984610a23565b9301548251948594608086526080860190610ac9565b9282821615156020860152828260081c1615159085015260101c16151560608301520390f35b600435906001600160a01b038216820361011857565b90600182811c921680156109db575b60208310146109c557565b634e487b7160e01b600052602260045260246000fd5b91607f16916109ba565b6080810190811067ffffffffffffffff82111761070757604052565b90601f8019910116810190811067ffffffffffffffff82111761070757604052565b9060405191826000825492610a37846109ab565b908184526001948581169081600014610aa65750600114610a63575b5050610a6192500383610a01565b565b9093915060005260209081600020936000915b818310610a8e575050610a6193508201013880610a53565b85548884018501529485019487945091830191610a76565b915050610a6194506020925060ff191682840152151560051b8201013880610a53565b919082519283825260005b848110610af5575050826000602080949584010152601f8019910116010190565b602081830181015184830182015201610ad4565b60443590811515820361011857565b6002548110156102475760026000527f405787fa12a823e0f2b7631cc41b3ba8828b3321ca811111fa75cd3aa3bb5ace0190600090565b6000546001600160a01b03163303610b6357565b60405163118cdaa760e01b8152336004820152602490fd5b15610b8257565b60405162461bcd60e51b815260206004820152601660248201527513d9999a58d95c88191bd95cc81b9bdd08195e1a5cdd60521b6044820152606490fd5b6000198114610bcf5760010190565b634e487b7160e01b600052601160045260246000fd5b67ffffffffffffffff81116107075760051b6020019056fea2646970667358221220498006c5bc7b499fb71a66f0a30ad1af89b2d5bd815e3885b332b6416699e69764736f6c63430008140033","opcodes":"PUSH1 0x80 CALLVALUE PUSH2 0xBB JUMPI PUSH1 0x1F PUSH2 0xD0A CODESIZE DUP2 SWAP1 SUB SWAP2 DUP3 ADD PUSH1 0x1F NOT AND DUP4 ADD SWAP2 PUSH1 0x1 PUSH1 0x1 PUSH1 0x40 SHL SUB DUP4 GT DUP5 DUP5 LT OR PUSH2 0xC0 JUMPI DUP1 DUP5 SWAP3 PUSH1 0x20 SWAP5 PUSH1 0x40 MSTORE DUP4 CODECOPY DUP2 ADD SUB SLT PUSH2 0xBB JUMPI MLOAD PUSH1 0x1 PUSH1 0x1 PUSH1 0xA0 SHL SUB SWAP1 DUP2 DUP2 AND SWAP1 DUP2 SWAP1 SUB PUSH2 0xBB JUMPI DUP1 ISZERO PUSH2 0xA2 JUMPI PUSH1 0x0 DUP1 SLOAD PUSH1 0x1 PUSH1 0x1 PUSH1 0xA0 SHL SUB NOT DUP2 AND DUP4 OR DUP3 SSTORE PUSH1 0x40 MLOAD SWAP4 AND SWAP1 PUSH32 0x8BE0079C531659141344CD1FD0A4F28419497F9722A3DAAFE3B4186F6B6457E0 SWAP1 DUP1 LOG3 PUSH2 0xC33 SWAP1 DUP2 PUSH2 0xD7 DUP3 CODECOPY RETURN JUMPDEST PUSH1 0x40 MLOAD PUSH4 0x1E4FBDF7 PUSH1 0xE0 SHL DUP2 MSTORE PUSH1 0x0 PUSH1 0x4 DUP3 ADD MSTORE PUSH1 0x24 SWAP1 REVERT JUMPDEST PUSH1 0x0 DUP1 REVERT JUMPDEST PUSH4 0x4E487B71 PUSH1 0xE0 SHL PUSH1 0x0 MSTORE PUSH1 0x41 PUSH1 0x4 MSTORE PUSH1 0x24 PUSH1 0x0 REVERT INVALID PUSH1 0x40 PUSH1 0x80 DUP2 MSTORE PUSH1 0x4 CALLDATASIZE LT ISZERO PUSH2 0x13 JUMPI PUSH1 0x0 DUP1 REVERT JUMPDEST PUSH1 0x0 CALLDATALOAD PUSH1 0xE0 SHR DUP1 PUSH4 0x84866DD EQ PUSH2 0x918 JUMPI DUP1 PUSH4 0x1E572C0F EQ PUSH2 0x84C JUMPI DUP1 PUSH4 0x34A3537B EQ PUSH2 0x4D7 JUMPI DUP1 PUSH4 0x48CACE83 EQ PUSH2 0x496 JUMPI DUP1 PUSH4 0x4AC52C24 EQ PUSH2 0x3C2 JUMPI DUP1 PUSH4 0x715018A6 EQ PUSH2 0x369 JUMPI DUP1 PUSH4 0x719A0F8C EQ PUSH2 0x2E3 JUMPI DUP1 PUSH4 0x8DA5CB5B EQ PUSH2 0x2BA JUMPI DUP1 PUSH4 0xC10FD6DD EQ PUSH2 0x11D JUMPI PUSH4 0xF2FDE38B EQ PUSH2 0x8B JUMPI PUSH1 0x0 DUP1 REVERT JUMPDEST CALLVALUE PUSH2 0x118 JUMPI PUSH1 0x20 CALLDATASIZE PUSH1 0x3 NOT ADD SLT PUSH2 0x118 JUMPI PUSH2 0xA4 PUSH2 0x995 JUMP JUMPDEST PUSH2 0xAC PUSH2 0xB4F JUMP JUMPDEST PUSH1 0x1 PUSH1 0x1 PUSH1 0xA0 SHL SUB SWAP1 DUP2 AND SWAP2 DUP3 ISZERO PUSH2 0x101 JUMPI POP PUSH1 0x0 SLOAD DUP3 PUSH12 0xFFFFFFFFFFFFFFFFFFFFFFFF PUSH1 0xA0 SHL DUP3 AND OR PUSH1 0x0 SSTORE AND PUSH32 0x8BE0079C531659141344CD1FD0A4F28419497F9722A3DAAFE3B4186F6B6457E0 PUSH1 0x0 DUP1 LOG3 STOP JUMPDEST MLOAD PUSH4 0x1E4FBDF7 PUSH1 0xE0 SHL DUP2 MSTORE PUSH1 0x0 PUSH1 0x4 DUP3 ADD MSTORE PUSH1 0x24 SWAP1 REVERT JUMPDEST PUSH1 0x0 DUP1 REVERT JUMPDEST POP CALLVALUE PUSH2 0x118 JUMPI PUSH1 0x0 CALLDATASIZE PUSH1 0x3 NOT ADD SLT PUSH2 0x118 JUMPI PUSH1 0x0 SWAP1 PUSH1 0x0 PUSH1 0x2 SLOAD SWAP1 JUMPDEST DUP2 DUP2 LT PUSH2 0x25D JUMPI POP PUSH2 0x162 PUSH2 0x14D DUP5 PUSH2 0xBE5 JUMP JUMPDEST SWAP4 PUSH2 0x15A DUP5 MLOAD SWAP6 DUP7 PUSH2 0xA01 JUMP JUMPDEST DUP1 DUP6 MSTORE PUSH2 0xBE5 JUMP JUMPDEST PUSH1 0x20 DUP5 DUP2 ADD SWAP3 SWAP1 SWAP2 PUSH1 0x1F NOT ADD CALLDATASIZE DUP5 CALLDATACOPY PUSH1 0x0 DUP1 JUMPDEST DUP3 DUP3 LT PUSH2 0x1C5 JUMPI POP POP POP DUP3 MLOAD SWAP4 DUP5 SWAP4 DUP3 DUP6 ADD SWAP2 DUP4 DUP7 MSTORE MLOAD DUP1 SWAP3 MSTORE DUP5 ADD SWAP3 SWAP2 PUSH1 0x0 JUMPDEST DUP3 DUP2 LT PUSH2 0x1A5 JUMPI POP POP POP POP SUB SWAP1 RETURN JUMPDEST DUP4 MLOAD PUSH1 0x1 PUSH1 0x1 PUSH1 0xA0 SHL SUB AND DUP6 MSTORE DUP7 SWAP6 POP SWAP4 DUP2 ADD SWAP4 SWAP3 DUP2 ADD SWAP3 PUSH1 0x1 ADD PUSH2 0x196 JUMP JUMPDEST PUSH2 0x1D2 DUP3 SWAP8 SWAP6 SWAP7 SWAP8 PUSH2 0xB18 JUMP JUMPDEST PUSH1 0x1 DUP1 PUSH1 0xA0 SHL SUB DUP1 SWAP3 SLOAD PUSH1 0x3 SWAP3 DUP4 SHL SHR AND PUSH1 0x0 MSTORE PUSH1 0xFF PUSH1 0x1 DUP1 DUP9 MSTORE DUP11 PUSH1 0x0 KECCAK256 ADD SLOAD PUSH1 0x10 SHR AND PUSH2 0x212 JUMPI JUMPDEST POP POP SWAP1 PUSH2 0x208 SWAP1 PUSH2 0xBC0 JUMP JUMPDEST SWAP1 SWAP6 SWAP5 SWAP4 SWAP6 PUSH2 0x175 JUMP JUMPDEST PUSH2 0x21B DUP5 PUSH2 0xB18 JUMP JUMPDEST SWAP1 SLOAD SWAP2 SHL SHR AND DUP6 MLOAD DUP3 LT ISZERO PUSH2 0x247 JUMPI DUP2 PUSH2 0x240 SWAP2 DUP7 PUSH2 0x208 SWAP5 PUSH1 0x5 SHL DUP10 ADD ADD MSTORE PUSH2 0xBC0 JUMP JUMPDEST SWAP1 CODESIZE PUSH2 0x1FC JUMP JUMPDEST PUSH4 0x4E487B71 PUSH1 0xE0 SHL PUSH1 0x0 MSTORE PUSH1 0x32 PUSH1 0x4 MSTORE PUSH1 0x24 PUSH1 0x0 REVERT JUMPDEST PUSH2 0x26A DUP2 SWAP5 SWAP3 SWAP4 SWAP5 PUSH2 0xB18 JUMP JUMPDEST PUSH1 0x1 DUP1 PUSH1 0xA0 SHL SUB SWAP2 SLOAD SWAP1 PUSH1 0x3 SHL SHR AND PUSH1 0x0 MSTORE PUSH1 0xFF PUSH1 0x1 DUP1 PUSH1 0x20 MSTORE DUP6 PUSH1 0x0 KECCAK256 ADD SLOAD PUSH1 0x10 SHR AND PUSH2 0x2A5 JUMPI JUMPDEST PUSH2 0x29C SWAP1 PUSH2 0xBC0 JUMP JUMPDEST SWAP3 SWAP2 SWAP1 SWAP3 PUSH2 0x139 JUMP JUMPDEST SWAP1 PUSH2 0x2B2 PUSH2 0x29C SWAP2 PUSH2 0xBC0 JUMP JUMPDEST SWAP2 SWAP1 POP PUSH2 0x293 JUMP JUMPDEST POP CALLVALUE PUSH2 0x118 JUMPI PUSH1 0x0 CALLDATASIZE PUSH1 0x3 NOT ADD SLT PUSH2 0x118 JUMPI PUSH1 0x0 SLOAD SWAP1 MLOAD PUSH1 0x1 PUSH1 0x1 PUSH1 0xA0 SHL SUB SWAP1 SWAP2 AND DUP2 MSTORE PUSH1 0x20 SWAP1 RETURN JUMPDEST POP CALLVALUE PUSH2 0x118 JUMPI PUSH1 0x20 CALLDATASIZE PUSH1 0x3 NOT ADD SLT PUSH2 0x118 JUMPI PUSH1 0x1 PUSH2 0x2FF PUSH2 0x995 JUMP JUMPDEST PUSH2 0x307 PUSH2 0xB4F JUMP JUMPDEST DUP2 DUP1 PUSH1 0xA0 SHL SUB AND SWAP2 DUP3 PUSH1 0x0 MSTORE DUP2 PUSH1 0x20 MSTORE PUSH2 0x32C PUSH1 0xFF DUP4 DUP4 PUSH1 0x0 KECCAK256 ADD SLOAD PUSH1 0x10 SHR AND PUSH2 0xB7B JUMP JUMPDEST DUP3 PUSH1 0x0 MSTORE DUP2 PUSH1 0x20 MSTORE PUSH1 0x0 KECCAK256 ADD PUSH3 0xFF0000 NOT DUP2 SLOAD AND SWAP1 SSTORE PUSH32 0xC71AC73682F965D639A2F97202D5B162F5EA75F1EF0E933BAD7F1DB870A4C254 PUSH1 0x0 DUP1 LOG2 STOP JUMPDEST CALLVALUE PUSH2 0x118 JUMPI PUSH1 0x0 CALLDATASIZE PUSH1 0x3 NOT ADD SLT PUSH2 0x118 JUMPI PUSH2 0x382 PUSH2 0xB4F JUMP JUMPDEST PUSH1 0x0 DUP1 SLOAD PUSH1 0x1 PUSH1 0x1 PUSH1 0xA0 SHL SUB NOT DUP2 AND DUP3 SSTORE PUSH1 0x1 PUSH1 0x1 PUSH1 0xA0 SHL SUB AND PUSH32 0x8BE0079C531659141344CD1FD0A4F28419497F9722A3DAAFE3B4186F6B6457E0 DUP3 DUP1 LOG3 STOP JUMPDEST POP CALLVALUE PUSH2 0x118 JUMPI PUSH1 0x60 CALLDATASIZE PUSH1 0x3 NOT ADD SLT PUSH2 0x118 JUMPI PUSH2 0x3DC PUSH2 0x995 JUMP JUMPDEST PUSH1 0x24 CALLDATALOAD SWAP2 DUP3 ISZERO ISZERO DUP1 DUP5 SUB PUSH2 0x118 JUMPI PUSH32 0x1409A6573D9C6D90DED7D595BEB38D129F18081AE8A1018662713CBC1488041C SWAP3 PUSH2 0x487 PUSH2 0x417 PUSH2 0xB09 JUMP JUMPDEST DUP1 SWAP3 PUSH2 0x421 PUSH2 0xB4F JUMP JUMPDEST PUSH1 0x1 DUP1 PUSH1 0xA0 SHL SUB AND SWAP7 DUP8 PUSH1 0x0 MSTORE PUSH1 0x1 PUSH1 0x20 MSTORE PUSH2 0x449 PUSH1 0xFF PUSH1 0x1 DUP9 PUSH1 0x0 KECCAK256 ADD SLOAD PUSH1 0x10 SHR AND PUSH2 0xB7B JUMP JUMPDEST DUP8 PUSH1 0x0 MSTORE PUSH1 0x1 PUSH1 0x20 MSTORE PUSH2 0x46F PUSH1 0x1 DUP8 PUSH1 0x0 KECCAK256 ADD SWAP2 DUP3 SWAP1 PUSH1 0xFF DUP1 NOT DUP4 SLOAD AND SWAP2 ISZERO ISZERO AND OR SWAP1 SSTORE JUMP JUMPDEST SWAP1 PUSH2 0xFF00 DUP3 SLOAD SWAP2 ISZERO ISZERO PUSH1 0x8 SHL AND SWAP1 PUSH2 0xFF00 NOT AND OR SWAP1 SSTORE JUMP JUMPDEST DUP3 MLOAD SWAP2 DUP3 MSTORE ISZERO ISZERO PUSH1 0x20 DUP3 ADD MSTORE LOG2 STOP JUMPDEST POP CALLVALUE PUSH2 0x118 JUMPI PUSH1 0x20 CALLDATASIZE PUSH1 0x3 NOT ADD SLT PUSH2 0x118 JUMPI PUSH1 0x4 CALLDATALOAD SWAP1 PUSH1 0x2 SLOAD DUP3 LT ISZERO PUSH2 0x118 JUMPI PUSH2 0x4C1 PUSH1 0x20 SWAP3 PUSH2 0xB18 JUMP JUMPDEST SWAP1 SLOAD SWAP2 MLOAD SWAP2 PUSH1 0x1 DUP1 PUSH1 0xA0 SHL SUB SWAP2 PUSH1 0x3 SHL SHR AND DUP2 MSTORE RETURN JUMPDEST POP CALLVALUE PUSH2 0x118 JUMPI PUSH1 0x80 CALLDATASIZE PUSH1 0x3 NOT ADD SLT PUSH2 0x118 JUMPI PUSH2 0x4F1 PUSH2 0x995 JUMP JUMPDEST SWAP1 PUSH1 0x24 CALLDATALOAD SWAP2 PUSH8 0xFFFFFFFFFFFFFFFF DUP1 DUP5 GT PUSH2 0x118 JUMPI CALLDATASIZE PUSH1 0x23 DUP6 ADD SLT ISZERO PUSH2 0x118 JUMPI DUP4 PUSH1 0x4 ADD CALLDATALOAD DUP2 DUP2 GT PUSH2 0x707 JUMPI DUP4 MLOAD SWAP5 PUSH2 0x534 PUSH1 0x1F DUP4 ADD PUSH1 0x1F NOT AND PUSH1 0x20 ADD DUP8 PUSH2 0xA01 JUMP JUMPDEST DUP2 DUP7 MSTORE CALLDATASIZE PUSH1 0x24 DUP4 DUP4 ADD ADD GT PUSH2 0x118 JUMPI DUP2 PUSH1 0x0 SWAP3 PUSH1 0x24 PUSH1 0x20 SWAP4 ADD DUP4 DUP10 ADD CALLDATACOPY DUP7 ADD ADD MSTORE PUSH2 0x55D PUSH2 0xB09 JUMP JUMPDEST SWAP1 PUSH1 0x64 CALLDATALOAD DUP1 ISZERO ISZERO DUP1 SWAP2 SUB PUSH2 0x118 JUMPI PUSH2 0x573 PUSH2 0xB4F JUMP JUMPDEST PUSH1 0x1 PUSH1 0x1 PUSH1 0xA0 SHL SUB DUP5 AND ISZERO PUSH2 0x816 JUMPI PUSH1 0x1 DUP1 PUSH1 0xA0 SHL SUB DUP5 AND PUSH1 0x0 MSTORE PUSH1 0x1 PUSH1 0x20 MSTORE PUSH1 0xFF PUSH1 0x1 DUP7 PUSH1 0x0 KECCAK256 ADD SLOAD PUSH1 0x10 SHR AND PUSH2 0x7D9 JUMPI DUP5 MLOAD SWAP3 PUSH2 0x5B1 DUP5 PUSH2 0x9E5 JUMP JUMPDEST DUP7 DUP5 MSTORE ISZERO ISZERO PUSH1 0x20 DUP5 ADD MSTORE DUP5 DUP4 ADD MSTORE PUSH1 0x1 PUSH1 0x60 DUP4 ADD MSTORE PUSH1 0x1 DUP1 PUSH1 0xA0 SHL SUB DUP4 AND PUSH1 0x0 MSTORE PUSH1 0x1 PUSH1 0x20 MSTORE DUP4 PUSH1 0x0 KECCAK256 SWAP1 DUP3 MLOAD DUP1 MLOAD SWAP2 DUP3 GT PUSH2 0x707 JUMPI PUSH2 0x5F1 DUP4 SLOAD PUSH2 0x9AB JUMP JUMPDEST PUSH1 0x1F DUP2 GT PUSH2 0x795 JUMPI JUMPDEST POP PUSH1 0x20 SWAP1 PUSH1 0x1F DUP4 GT PUSH1 0x1 EQ PUSH2 0x728 JUMPI SWAP2 DUP1 PUSH1 0x60 SWAP5 SWAP3 PUSH1 0x1 SWAP5 PUSH1 0x0 SWAP3 PUSH2 0x71D JUMPI JUMPDEST POP POP PUSH1 0x0 NOT PUSH1 0x3 DUP4 SWAP1 SHL SHR NOT AND SWAP1 DUP4 SHL OR DUP2 SSTORE JUMPDEST ADD SWAP2 PUSH2 0x64C PUSH1 0x20 DUP3 ADD MLOAD ISZERO ISZERO DUP5 SWAP1 PUSH1 0xFF DUP1 NOT DUP4 SLOAD AND SWAP2 ISZERO ISZERO AND OR SWAP1 SSTORE JUMP JUMPDEST DUP1 DUP6 ADD MLOAD DUP4 SLOAD PUSH2 0xFF00 NOT AND SWAP1 ISZERO ISZERO PUSH1 0x8 SHL PUSH2 0xFF00 AND OR DUP4 SSTORE ADD MLOAD DUP2 SLOAD PUSH3 0xFF0000 NOT AND SWAP1 ISZERO ISZERO PUSH1 0x10 SHL PUSH3 0xFF0000 AND OR SWAP1 SSTORE PUSH1 0x2 SLOAD SWAP1 PUSH9 0x10000000000000000 DUP3 LT ISZERO PUSH2 0x707 JUMPI PUSH32 0x51FADFDEF046410E08649E65456EF08F429833C2095CD7092EE0BB0CBF519DED SWAP3 PUSH2 0x6C6 DUP4 PUSH1 0x1 PUSH2 0x702 SWAP6 ADD PUSH1 0x2 SSTORE PUSH2 0xB18 JUMP JUMPDEST DUP2 SLOAD SWAP1 PUSH1 0x3 SHL SWAP1 PUSH1 0x1 DUP1 PUSH1 0xA0 SHL SUB DUP6 AND DUP3 SHL SWAP2 PUSH1 0x1 DUP1 PUSH1 0xA0 SHL SUB SWAP1 SHL NOT AND OR SWAP1 SSTORE MLOAD SWAP2 DUP3 SWAP2 PUSH1 0x20 DUP4 MSTORE PUSH1 0x1 DUP1 PUSH1 0xA0 SHL SUB AND SWAP5 PUSH1 0x20 DUP4 ADD SWAP1 PUSH2 0xAC9 JUMP JUMPDEST SUB SWAP1 LOG2 STOP JUMPDEST PUSH4 0x4E487B71 PUSH1 0xE0 SHL PUSH1 0x0 MSTORE PUSH1 0x41 PUSH1 0x4 MSTORE PUSH1 0x24 PUSH1 0x0 REVERT JUMPDEST ADD MLOAD SWAP1 POP CODESIZE DUP1 PUSH2 0x61A JUMP JUMPDEST SWAP1 PUSH1 0x1F NOT DUP4 AND SWAP2 DUP5 PUSH1 0x0 MSTORE PUSH1 0x20 PUSH1 0x0 KECCAK256 SWAP3 PUSH1 0x0 JUMPDEST DUP2 DUP2 LT PUSH2 0x77D JUMPI POP SWAP3 PUSH1 0x1 SWAP5 SWAP2 SWAP3 DUP6 SWAP4 DUP4 PUSH1 0x60 SWAP9 SWAP7 LT PUSH2 0x764 JUMPI JUMPDEST POP POP POP DUP2 SHL ADD DUP2 SSTORE PUSH2 0x62E JUMP JUMPDEST ADD MLOAD PUSH1 0x0 NOT PUSH1 0xF8 DUP5 PUSH1 0x3 SHL AND SHR NOT AND SWAP1 SSTORE CODESIZE DUP1 DUP1 PUSH2 0x757 JUMP JUMPDEST SWAP3 SWAP4 PUSH1 0x20 PUSH1 0x1 DUP2 SWAP3 DUP8 DUP7 ADD MLOAD DUP2 SSTORE ADD SWAP6 ADD SWAP4 ADD PUSH2 0x73C JUMP JUMPDEST DUP4 PUSH1 0x0 MSTORE PUSH1 0x20 PUSH1 0x0 KECCAK256 PUSH1 0x1F DUP5 ADD PUSH1 0x5 SHR DUP2 ADD PUSH1 0x20 DUP6 LT PUSH2 0x7D2 JUMPI JUMPDEST PUSH1 0x1F DUP4 ADD PUSH1 0x5 SHR DUP3 ADD DUP2 LT PUSH2 0x7C6 JUMPI POP POP PUSH2 0x5FA JUMP JUMPDEST PUSH1 0x0 DUP2 SSTORE PUSH1 0x1 ADD PUSH2 0x7B0 JUMP JUMPDEST POP DUP1 PUSH2 0x7B0 JUMP JUMPDEST DUP5 MLOAD PUSH3 0x461BCD PUSH1 0xE5 SHL DUP2 MSTORE PUSH1 0x20 PUSH1 0x4 DUP3 ADD MSTORE PUSH1 0x16 PUSH1 0x24 DUP3 ADD MSTORE PUSH22 0x4F66666963657220616C726561647920657869737473 PUSH1 0x50 SHL PUSH1 0x44 DUP3 ADD MSTORE PUSH1 0x64 SWAP1 REVERT JUMPDEST DUP5 MLOAD PUSH3 0x461BCD PUSH1 0xE5 SHL DUP2 MSTORE PUSH1 0x20 PUSH1 0x4 DUP3 ADD MSTORE PUSH1 0xF PUSH1 0x24 DUP3 ADD MSTORE PUSH15 0x496E76616C69642061646472657373 PUSH1 0x88 SHL PUSH1 0x44 DUP3 ADD MSTORE PUSH1 0x64 SWAP1 REVERT JUMPDEST POP CALLVALUE PUSH2 0x118 JUMPI PUSH1 0x20 DUP1 PUSH1 0x3 NOT CALLDATASIZE ADD SLT PUSH2 0x118 JUMPI PUSH1 0x80 SWAP2 PUSH2 0x86A PUSH2 0x995 JUMP JUMPDEST PUSH1 0x0 PUSH1 0x60 DUP4 MLOAD PUSH2 0x879 DUP2 PUSH2 0x9E5 JUMP JUMPDEST DUP2 DUP2 MSTORE DUP3 DUP7 DUP3 ADD MSTORE DUP3 DUP6 DUP3 ADD MSTORE ADD MSTORE PUSH1 0x1 DUP1 PUSH1 0xA0 SHL SUB AND PUSH1 0x0 MSTORE PUSH1 0x1 DUP3 MSTORE DUP1 PUSH1 0x0 KECCAK256 SWAP2 PUSH1 0x1 DUP3 MLOAD SWAP4 PUSH2 0x8AA DUP6 PUSH2 0x9E5 JUMP JUMPDEST PUSH2 0x8B3 DUP2 PUSH2 0xA23 JUMP JUMPDEST DUP6 MSTORE ADD SLOAD SWAP1 DUP1 DUP5 ADD SWAP3 PUSH1 0xFF DUP4 AND ISZERO ISZERO DUP5 MSTORE PUSH2 0x8FC DUP2 DUP7 ADD SWAP3 PUSH1 0xFF DUP6 PUSH1 0x8 SHR AND ISZERO ISZERO DUP5 MSTORE PUSH1 0xFF PUSH1 0x60 DUP9 ADD SWAP6 PUSH1 0x10 SHR AND ISZERO ISZERO DUP6 MSTORE DUP3 MLOAD SWAP8 DUP9 SWAP8 DUP3 DUP10 MSTORE MLOAD SWAP2 DUP9 ADD MSTORE PUSH1 0xA0 DUP8 ADD SWAP1 PUSH2 0xAC9 JUMP JUMPDEST SWAP4 MLOAD ISZERO ISZERO SWAP1 DUP6 ADD MSTORE MLOAD ISZERO ISZERO PUSH1 0x60 DUP5 ADD MSTORE MLOAD ISZERO ISZERO PUSH1 0x80 DUP4 ADD MSTORE SUB SWAP1 RETURN JUMPDEST POP CALLVALUE PUSH2 0x118 JUMPI PUSH1 0x20 CALLDATASIZE PUSH1 0x3 NOT ADD SLT PUSH2 0x118 JUMPI PUSH2 0x96F SWAP1 PUSH1 0x1 PUSH1 0x1 PUSH1 0xA0 SHL SUB PUSH2 0x93E PUSH2 0x995 JUMP JUMPDEST AND PUSH1 0x0 MSTORE PUSH1 0x1 PUSH1 0x20 MSTORE DUP1 PUSH1 0x0 KECCAK256 SWAP1 PUSH1 0xFF PUSH1 0x1 PUSH2 0x959 DUP5 PUSH2 0xA23 JUMP JUMPDEST SWAP4 ADD SLOAD DUP3 MLOAD SWAP5 DUP6 SWAP5 PUSH1 0x80 DUP7 MSTORE PUSH1 0x80 DUP7 ADD SWAP1 PUSH2 0xAC9 JUMP JUMPDEST SWAP3 DUP3 DUP3 AND ISZERO ISZERO PUSH1 0x20 DUP7 ADD MSTORE DUP3 DUP3 PUSH1 0x8 SHR AND ISZERO ISZERO SWAP1 DUP6 ADD MSTORE PUSH1 0x10 SHR AND ISZERO ISZERO PUSH1 0x60 DUP4 ADD MSTORE SUB SWAP1 RETURN JUMPDEST PUSH1 0x4 CALLDATALOAD SWAP1 PUSH1 0x1 PUSH1 0x1 PUSH1 0xA0 SHL SUB DUP3 AND DUP3 SUB PUSH2 0x118 JUMPI JUMP JUMPDEST SWAP1 PUSH1 0x1 DUP3 DUP2 SHR SWAP3 AND DUP1 ISZERO PUSH2 0x9DB JUMPI JUMPDEST PUSH1 0x20 DUP4 LT EQ PUSH2 0x9C5 JUMPI JUMP JUMPDEST PUSH4 0x4E487B71 PUSH1 0xE0 SHL PUSH1 0x0 MSTORE PUSH1 0x22 PUSH1 0x4 MSTORE PUSH1 0x24 PUSH1 0x0 REVERT JUMPDEST SWAP2 PUSH1 0x7F AND SWAP2 PUSH2 0x9BA JUMP JUMPDEST PUSH1 0x80 DUP2 ADD SWAP1 DUP2 LT PUSH8 0xFFFFFFFFFFFFFFFF DUP3 GT OR PUSH2 0x707 JUMPI PUSH1 0x40 MSTORE JUMP JUMPDEST SWAP1 PUSH1 0x1F DUP1 NOT SWAP2 ADD AND DUP2 ADD SWAP1 DUP2 LT PUSH8 0xFFFFFFFFFFFFFFFF DUP3 GT OR PUSH2 0x707 JUMPI PUSH1 0x40 MSTORE JUMP JUMPDEST SWAP1 PUSH1 0x40 MLOAD SWAP2 DUP3 PUSH1 0x0 DUP3 SLOAD SWAP3 PUSH2 0xA37 DUP5 PUSH2 0x9AB JUMP JUMPDEST SWAP1 DUP2 DUP5 MSTORE PUSH1 0x1 SWAP5 DUP6 DUP2 AND SWAP1 DUP2 PUSH1 0x0 EQ PUSH2 0xAA6 JUMPI POP PUSH1 0x1 EQ PUSH2 0xA63 JUMPI JUMPDEST POP POP PUSH2 0xA61 SWAP3 POP SUB DUP4 PUSH2 0xA01 JUMP JUMPDEST JUMP JUMPDEST SWAP1 SWAP4 SWAP2 POP PUSH1 0x0 MSTORE PUSH1 0x20 SWAP1 DUP2 PUSH1 0x0 KECCAK256 SWAP4 PUSH1 0x0 SWAP2 JUMPDEST DUP2 DUP4 LT PUSH2 0xA8E JUMPI POP POP PUSH2 0xA61 SWAP4 POP DUP3 ADD ADD CODESIZE DUP1 PUSH2 0xA53 JUMP JUMPDEST DUP6 SLOAD DUP9 DUP5 ADD DUP6 ADD MSTORE SWAP5 DUP6 ADD SWAP5 DUP8 SWAP5 POP SWAP2 DUP4 ADD SWAP2 PUSH2 0xA76 JUMP JUMPDEST SWAP2 POP POP PUSH2 0xA61 SWAP5 POP PUSH1 0x20 SWAP3 POP PUSH1 0xFF NOT AND DUP3 DUP5 ADD MSTORE ISZERO ISZERO PUSH1 0x5 SHL DUP3 ADD ADD CODESIZE DUP1 PUSH2 0xA53 JUMP JUMPDEST SWAP2 SWAP1 DUP3 MLOAD SWAP3 DUP4 DUP3 MSTORE PUSH1 0x0 JUMPDEST DUP5 DUP2 LT PUSH2 0xAF5 JUMPI POP POP DUP3 PUSH1 0x0 PUSH1 0x20 DUP1 SWAP5 SWAP6 DUP5 ADD ADD MSTORE PUSH1 0x1F DUP1 NOT SWAP2 ADD AND ADD ADD SWAP1 JUMP JUMPDEST PUSH1 0x20 DUP2 DUP4 ADD DUP2 ADD MLOAD DUP5 DUP4 ADD DUP3 ADD MSTORE ADD PUSH2 0xAD4 JUMP JUMPDEST PUSH1 0x44 CALLDATALOAD SWAP1 DUP2 ISZERO ISZERO DUP3 SUB PUSH2 0x118 JUMPI JUMP JUMPDEST PUSH1 0x2 SLOAD DUP2 LT ISZERO PUSH2 0x247 JUMPI PUSH1 0x2 PUSH1 0x0 MSTORE PUSH32 0x405787FA12A823E0F2B7631CC41B3BA8828B3321CA811111FA75CD3AA3BB5ACE ADD SWAP1 PUSH1 0x0 SWAP1 JUMP JUMPDEST PUSH1 0x0 SLOAD PUSH1 0x1 PUSH1 0x1 PUSH1 0xA0 SHL SUB AND CALLER SUB PUSH2 0xB63 JUMPI JUMP JUMPDEST PUSH1 0x40 MLOAD PUSH4 0x118CDAA7 PUSH1 0xE0 SHL DUP2 MSTORE CALLER PUSH1 0x4 DUP3 ADD MSTORE PUSH1 0x24 SWAP1 REVERT JUMPDEST ISZERO PUSH2 0xB82 JUMPI JUMP JUMPDEST PUSH1 0x40 MLOAD PUSH3 0x461BCD PUSH1 0xE5 SHL DUP2 MSTORE PUSH1 0x20 PUSH1 0x4 DUP3 ADD MSTORE PUSH1 0x16 PUSH1 0x24 DUP3 ADD MSTORE PUSH22 0x13D9999A58D95C88191BD95CC81B9BDD08195E1A5CDD PUSH1 0x52 SHL PUSH1 0x44 DUP3 ADD MSTORE PUSH1 0x64 SWAP1 REVERT JUMPDEST PUSH1 0x0 NOT DUP2 EQ PUSH2 0xBCF JUMPI PUSH1 0x1 ADD SWAP1 JUMP JUMPDEST PUSH4 0x4E487B71 PUSH1 0xE0 SHL PUSH1 0x0 MSTORE PUSH1 0x11 PUSH1 0x4 MSTORE PUSH1 0x24 PUSH1 0x0 REVERT JUMPDEST PUSH8 0xFFFFFFFFFFFFFFFF DUP2 GT PUSH2 0x707 JUMPI PUSH1 0x5 SHL PUSH1 0x20 ADD SWAP1 JUMP INVALID LOG2 PUSH5 0x6970667358 0x22 SLT KECCAK256 0x49 DUP1 MOD 0xC5 0xBC PUSH28 0x499FB71A66F0A30AD1AF89B2D5BD815E3885B332B6416699E6976473 PUSH16 0x6C634300081400330000000000000000 "},"methodIdentifiers":{"appointOfficer(address,string,bool,bool)":"34a3537b","getActiveOfficers()":"c10fd6dd","getOfficer(address)":"1e572c0f","officerList(uint256)":"48cace83","officers(address)":"084866dd","owner()":"8da5cb5b","removeOfficer(address)":"719a0f8c","renounceOwnership()":"715018a6","transferOwnership(address)":"f2fde38b","updateOfficerPermissions(address,bool,bool)":"4ac52c24"}}}}}