{"src/contracts/TenderManagement.sol":{"TenderManagement":{"abi":[{"inputs":[],"stateMutability":"nonpayable","type":"constructor"},{"anonymous":false,"inputs":[{"indexed":false,"internalType":"string","name":"bidId","type":"string"},{"indexed":false,"internalType":"string","name":"tenderId","type":"string"},{"indexed":false,"internalType":"enum TenderManagement.BidStatus","name":"status","type":"uint8"}],"name":"BidStatusChanged","type":"event"},{"anonymous":false,"inputs":[{"indexed":false,"internalType":"string","name":"bidId","type":"string"},{"indexed":false,"internalType":"string","name":"tenderId","type":"string"},{"indexed":false,"internalType":"address","name":"bidder","type":"address"},{"indexed":false,"internalType":"uint256","name":"bidAmount","type":"uint256"}],"name":"BidSubmitted","type":"event"},{"anonymous":false,"inputs":[{"indexed":false,"internalType":"string","name":"tenderId","type":"string"},{"indexed":false,"internalType":"string","name":"title","type":"string"},{"indexed":false,"internalType":"address","name":"createdBy","type":"address"}],"name":"TenderCreated","type":"event"},{"anonymous":false,"inputs":[{"indexed":false,"internalType":"string","name":"tenderId","type":"string"},{"indexed":false,"internalType":"enum TenderManagement.TenderStatus","name":"status","type":"uint8"}],"name":"TenderStatusChanged","type":"event"},{"anonymous":false,"inputs":[{"indexed":false,"internalType":"string","name":"tenderId","type":"string"},{"indexed":false,"internalType":"string","name":"title","type":"string"},{"indexed":false,"internalType":"enum TenderManagement.TenderStatus","name":"status","type":"uint8"}],"name":"TenderUpdated","type":"event"},{"inputs":[],"name":"admin","outputs":[{"internalType":"address","name":"","type":"address"}],"stateMutability":"view","type":"function"},{"inputs":[{"internalType":"string","name":"","type":"string"}],"name":"bids","outputs":[{"internalType":"string","name":"id","type":"string"},{"internalType":"string","name":"tenderId","type":"string"},{"internalType":"address","name":"bidder","type":"address"},{"internalType":"uint256","name":"bidAmount","type":"uint256"},{"internalType":"uint256","name":"submittedAt","type":"uint256"},{"internalType":"enum TenderManagement.BidStatus","name":"status","type":"uint8"}],"stateMutability":"view","type":"function"},{"inputs":[{"internalType":"string","name":"bidId","type":"string"},{"internalType":"enum TenderManagement.BidStatus","name":"status","type":"uint8"}],"name":"changeBidStatus","outputs":[],"stateMutability":"nonpayable","type":"function"},{"inputs":[{"internalType":"string","name":"tenderId","type":"string"},{"internalType":"enum TenderManagement.TenderStatus","name":"status","type":"uint8"}],"name":"changeTenderStatus","outputs":[],"stateMutability":"nonpayable","type":"function"},{"inputs":[{"internalType":"string","name":"tenderId","type":"string"},{"internalType":"string","name":"title","type":"string"},{"internalType":"string","name":"description","type":"string"},{"internalType":"uint256","name":"estimatedValue","type":"uint256"},{"internalType":"uint256","name":"startDate","type":"uint256"},{"internalType":"uint256","name":"endDate","type":"uint256"},{"internalType":"string","name":"category","type":"string"},{"internalType":"string","name":"department","type":"string"},{"internalType":"string","name":"location","type":"string"},{"internalType":"string[]","name":"documents","type":"string[]"}],"name":"createTender","outputs":[],"stateMutability":"nonpayable","type":"function"},{"inputs":[],"name":"getAllTenderIds","outputs":[{"internalType":"string[]","name":"","type":"string[]"}],"stateMutability":"view","type":"function"},{"inputs":[{"internalType":"string","name":"bidId","type":"string"}],"name":"getBid","outputs":[{"internalType":"string","name":"id","type":"string"},{"internalType":"string","name":"tenderId","type":"string"},{"internalType":"address","name":"bidder","type":"address"},{"internalType":"uint256","name":"bidAmount","type":"uint256"},{"internalType":"uint256","name":"submittedAt","type":"uint256"},{"internalType":"enum TenderManagement.BidStatus","name":"status","type":"uint8"}],"stateMutability":"view","type":"function"},{"inputs":[{"internalType":"string","name":"bidId","type":"string"}],"name":"getBidDocuments","outputs":[{"internalType":"string[]","name":"","type":"string[]"}],"stateMutability":"view","type":"function"},{"inputs":[{"internalType":"string","name":"tenderId","type":"string"}],"name":"getTender","outputs":[{"internalType":"string","name":"id","type":"string"},{"internalType":"string","name":"title","type":"string"},{"internalType":"string","name":"description","type":"string"},{"internalType":"uint256","name":"estimatedValue","type":"uint256"},{"internalType":"uint256","name":"startDate","type":"uint256"},{"internalType":"uint256","name":"endDate","type":"uint256"},{"internalType":"address","name":"createdBy","type":"address"},{"internalType":"enum TenderManagement.TenderStatus","name":"status","type":"uint8"},{"internalType":"uint256","name":"createdAt","type":"uint256"},{"internalType":"string","name":"category","type":"string"},{"internalType":"string","name":"department","type":"string"},{"internalType":"string","name":"location","type":"string"}],"stateMutability":"view","type":"function"},{"inputs":[{"internalType":"string","name":"tenderId","type":"string"}],"name":"getTenderBids","outputs":[{"internalType":"string[]","name":"","type":"string[]"}],"stateMutability":"view","type":"function"},{"inputs":[],"name":"getTenderCount","outputs":[{"internalType":"uint256","name":"","type":"uint256"}],"stateMutability":"view","type":"function"},{"inputs":[{"internalType":"string","name":"tenderId","type":"string"}],"name":"getTenderDocuments","outputs":[{"internalType":"string[]","name":"","type":"string[]"}],"stateMutability":"view","type":"function"},{"inputs":[{"internalType":"address","name":"userAddress","type":"address"}],"name":"getUserBids","outputs":[{"internalType":"string[]","name":"","type":"string[]"}],"stateMutability":"view","type":"function"},{"inputs":[{"internalType":"string","name":"bidId","type":"string"},{"internalType":"string","name":"tenderId","type":"string"},{"internalType":"uint256","name":"bidAmount","type":"uint256"},{"internalType":"string[]","name":"documents","type":"string[]"}],"name":"submitBid","outputs":[],"stateMutability":"nonpayable","type":"function"},{"inputs":[{"internalType":"string","name":"","type":"string"},{"internalType":"uint256","name":"","type":"uint256"}],"name":"tenderBids","outputs":[{"internalType":"string","name":"","type":"string"}],"stateMutability":"view","type":"function"},{"inputs":[{"internalType":"uint256","name":"","type":"uint256"}],"name":"tenderIds","outputs":[{"internalType":"string","name":"","type":"string"}],"stateMutability":"view","type":"function"},{"inputs":[{"internalType":"string","name":"","type":"string"}],"name":"tenders","outputs":[{"internalType":"string","name":"id","type":"string"},{"internalType":"string","name":"title","type":"string"},{"internalType":"string","name":"description","type":"string"},{"internalType":"uint256","name":"estimatedValue","type":"uint256"},{"internalType":"uint256","name":"startDate","type":"uint256"},{"internalType":"uint256","name":"endDate","type":"uint256"},{"internalType":"address","name":"createdBy","type":"address"},{"internalType":"enum TenderManagement.TenderStatus","name":"status","type":"uint8"},{"internalType":"uint256","name":"createdAt","type":"uint256"},{"internalType":"string","name":"category","type":"string"},{"internalType":"string","name":"department","type":"string"},{"internalType":"string","name":"location","type":"string"}],"stateMutability":"view","type":"function"},{"inputs":[{"internalType":"address","name":"newAdmin","type":"address"}],"name":"transferAdmin","outputs":[],"stateMutability":"nonpayable","type":"function"},{"inputs":[{"internalType":"string","name":"tenderId","type":"string"},{"internalType":"string","name":"title","type":"string"},{"internalType":"string","name":"description","type":"string"},{"internalType":"uint256","name":"estimatedValue","type":"uint256"},{"internalType":"uint256","name":"startDate","type":"uint256"},{"internalType":"uint256","name":"endDate","type":"uint256"},{"internalType":"string","name":"category","type":"string"},{"internalType":"string","name":"department","type":"string"},{"internalType":"string","name":"location","type":"string"},{"internalType":"string[]","name":"documents","type":"string[]"}],"name":"updateTender","outputs":[],"stateMutability":"nonpayable","type":"function"},{"inputs":[{"internalType":"address","name":"","type":"address"},{"internalType":"uint256","name":"","type":"uint256"}],"name":"userBids","outputs":[{"internalType":"string","name":"","type":"string"}],"stateMutability":"view","type":"function"}],"evm":{"bytecode":{"linkReferences":{},"object":"6080806040523461002857600080546001600160a01b0319163317905561267c908161002e8239f35b600080fdfe6080604052600436101561001257600080fd5b60003560e01c806301cc650c14611d085780630f9fb38814611cbb578063174f769214611c2c5780632d1faf7c14611be257806333f1f39d1461176957806339c776b614611718578063526f0300146111bc5780635850b3831461119e57806362f058c81461103b5780636759789f1461100157806375829def14610f345780637ebd601914610bbd57806383f668b714610b4757806396ec50c314610ae0578063997b737f14610a1a5780639e27af8714610995578063f7bf8b9e1461058c578063f851a44014610563578063f9853713146104335763fb0998e3146100f857600080fd5b3461042e5761015e6101496101366007602061011336612152565b99899e939b9294996001999e92979698998060a01b036000541633149d8e612263565b8160405193828580945193849201611e26565b6001818301528101030190200154151561247e565b61017760208c8160405193828580945193849201611e26565b810160018152030190209460068601998a54903360018060a01b03831614908115610426575b50156103c9576005999060a01c60ff168a8110156103b35761035e578786610210956101f08f956101e7610207976001600b9f8f906102199f906101e191106122bb565b01612329565b60028c01612329565b60038a015560048901558a88015560088701612329565b60098501612329565b600a8301612329565b0190805192600160401b8411610348578254908484558185106102d4575b50506020019060005260206000206000915b8383106102b7577f5f33dd4ac582710407cc42c7d955eb11c3db69506e9d3b22f38b6e2af8cd652b61029988886102b26102a760ff8b5460a01c1692604051958695606087526060870190611f68565b908582036020870152611f68565b916040840190612086565b0390a1005b60016020826102c883945186612329565b01920192019190610249565b8360005284602060002092830192015b8281106102f15750610237565b806102fe60019254611e61565b8061030b575b50016102e4565b601f908181118414610324575050600081555b38610304565b61033f600092848452602084209201861c8201858301612312565b8183555561031e565b634e487b7160e01b600052604160045260246000fd5b60405162461bcd60e51b815260206004820152602760248201527f43616e206f6e6c79207570646174652074656e6465727320696e2044726166746044820152662073746174757360c81b6064820152608490fd5b634e487b7160e01b600052602160045260246000fd5b60405162461bcd60e51b815260206004820152602f60248201527f4f6e6c79207468652063726561746f72206f722061646d696e2063616e20757060448201526e3230ba32903a3432903a32b73232b960891b6064820152608490fd5b90503861019d565b600080fd5b3461042e57602036600319011261042e576004356001600160401b03811161042e5760206104686104a9923690600401611dd0565b60405190610498600482519385818186019661048581838a611e26565b81016003815203019020015415156124da565b604051938492839251928391611e26565b810160038152030190206040516104bf81611d78565b6104c882611e9b565b81526104d660018301611e9b565b906020810191825260018060a01b0390816002850154169360408201948552600381015492606083019384526004820154926080810193845260ff6005840154169260a082019360048110156103b3578452610534906006016125b1565b60c08201525194519551169251915190519160048310156103b35761055f9360405196879687612224565b0390f35b3461042e57600036600319011261042e576000546040516001600160a01b039091168152602090f35b3461042e57604036600319011261042e576004356001600160401b03811161042e576105bc903690600401611dd0565b6024803560058082101561042e5760018060a01b039283600054163314916105e383612263565b6040519461062b87805161061a60078a6020809c8180970195610607818389611e26565b810160018152030190200154151561247e565b604051809381928c51928391611e26565b81016001815203019020906006820194855491339083161490811561098d575b501561093157600186036107715760a01c60ff168281101561075c5761070d57015442116106b35750916102b28261069660008051602061262783398151915296946106aa9661242d565b604051948594604086526040860190611f68565b92840190612086565b83602e6084926040519262461bcd60e51b845260048401528201527f43616e6e6f74207075626c69736820612074656e64657220746861742068617360448201526d08185b1c9958591e48195b99195960921b6064820152fd5b60405162461bcd60e51b8152600481018790526022818501527f43616e206f6e6c79207075626c6973682066726f6d2044726166742073746174604482015261757360f01b6064820152608490fd5b83634e487b7160e01b60005260216004526000fd5b9050600285036108175760a01c60ff1690811015610802576001036107b35750916102b28261069660008051602061262783398151915296946106aa9661242d565b836084916040519162461bcd60e51b83526004830152808201527f43616e206f6e6c7920636c6f73652066726f6d205075626c69736865642073746044820152636174757360e01b6064820152fd5b50634e487b7160e01b60009081526021600452fd5b600385036108a45760a01c60ff1690811015610802576002036108575750916102b28261069660008051602061262783398151915296946106aa9661242d565b8360216084926040519262461bcd60e51b845260048401528201527f43616e206f6e6c792061776172642066726f6d20436c6f7365642073746174756044820152607360f81b6064820152fd5b600485146108d2575b505050916102b28261069660008051602061262783398151915296946106aa9661242d565b60a01c60ff1690811015610802576003146108ee5780806108ad565b83601f6064926040519262461bcd60e51b845260048401528201527f43616e6e6f742063616e63656c20616e20617761726465642074656e646572006044820152fd5b60405162461bcd60e51b815260048101889052602f818601527f4f6e6c79207468652063726561746f72206f722061646d696e2063616e20636860448201526e616e6765207468652073746174757360881b6064820152608490fd5b90508961064b565b3461042e57602036600319011261042e576004356001600160401b03811161042e5760206101366109ca923690600401611dd0565b810160038152030190206109dd81611e9b565b61055f6109ec60018401611e9b565b9260018060a01b0360028201541690600381015460ff60056004840154930154169260405196879687612224565b3461042e57602036600319011261042e576004356001600160401b03811161042e576020610136610a4f923690600401611dd0565b81016001815203019020610a6281611e9b565b61055f610a7160018401611e9b565b91610a7e60028501611e9b565b93600381015491600482015490600583015490600684015490600785015492610aa960088701611e9b565b94610ac2600a610abb60098a01611e9b565b9801611e9b565b976040519b8c9b60ff8760a01c169660018060a01b0316958d612093565b3461042e57604036600319011261042e57610af961213c565b6001600160a01b0316600090815260056020526040902080546024359081101561042e57610b2d610b339161055f93611e49565b90611f41565b604051918291602083526020830190611f68565b3461042e57602036600319011261042e576004356001600160401b03811161042e57610bb1600b610ba16020610b8461055f953690600401611dd0565b60405190610498600782519385818186019661060781838a611e26565b81016001815203019020016125b1565b60405191829182611f8d565b3461042e57610bcb36612152565b95610bea60018060a09c9a9c9894989795971b03600054163314612263565b600760405160208181610c038d83815193849201611e26565b810160018152030190200154610eef57610c1e8383106122bb565b60405199610c2b8b611d93565b888b528960208c015260408b015260608a0152608089015260a08801523360c0880152600060e0880152426101008801526101208701526101408601526101608501526101808401526040516020818351610c898183858801611e26565b8101600181520301902092610c9f815185612329565b610cb0602082015160018601612329565b610cc1604082015160028601612329565b606081015160038501556080810151600485015560a08101519360059485820155600681019060018060a01b0360c0840151166bffffffffffffffffffffffff60a01b83541617825560e083015190868210156103b357610d27600b926101809461242d565b6101008401516007820155610d4461012085015160088301612329565b610d5661014085015160098301612329565b610d68610160850151600a8301612329565b0191015190815191600160401b9586841161034857825490848455818510610e7b575b50506020019060005260206000206000915b838310610e5e575050505060025492831015610348576001830180600255831015610e4857610e3d610e2f92610e1b837f0540e31cb45c1b4f21657a7522027a48ff2ec55cd0711035075c1f9e8faad5649660026000527f405787fa12a823e0f2b7631cc41b3ba8828b3321ca811111fa75cd3aa3bb5ace01612329565b604051938493606085526060850190611f68565b908382036020850152611f68565b3360408301520390a1005b634e487b7160e01b600052603260045260246000fd5b6001602082610e6f83945186612329565b01920192019190610d9d565b8360005284602060002092830192015b828110610e985750610d8b565b80610ea560019254611e61565b80610eb2575b5001610e8b565b601f908181118414610ecb575050600081555b8a610eab565b610ee6600092848452602084209201861c8201858301612312565b81835555610ec5565b60405162461bcd60e51b815260206004820152601860248201527f54656e64657220494420616c72656164792065786973747300000000000000006044820152606490fd5b3461042e57602036600319011261042e57610f4d61213c565b600054906001600160a01b03908183163303610fb25716908115610f7b576001600160a01b03191617600055005b60405162461bcd60e51b815260206004820152600f60248201526e496e76616c6964206164647265737360881b6044820152606490fd5b60405162461bcd60e51b815260206004820152602160248201527f4f6e6c792061646d696e2063616e2063616c6c20746869732066756e6374696f6044820152603760f91b6064820152608490fd5b3461042e57602036600319011261042e576001600160a01b0361102261213c565b16600052600560205261055f610bb160406000206125b1565b3461042e57602036600319011261042e576004356001600160401b03811161042e576020610b84611070923690600401611dd0565b8101600181520301902060405161108681611d93565b61108f82611e9b565b815261109d60018301611e9b565b90602081019182526110b160028401611e9b565b9260408201938452600381015490606083019182526004810154926080810193845260058201549360a0820194855260068301549060c0830160ff60018060a01b0393848116835260a01c169060e085019160058110156103b3578252600786015497610100860198895261112860088801611e9b565b94610120870195865261113d60098901611e9b565b966101408101978852611166600b611157600a8c01611e9b565b9a61016084019b8c52016125b1565b610180820152519a519b5198519451915192511692519360058510156103b35761055f9951955196519751986040519c8d9c8d612093565b3461042e57600036600319011261042e576020600254604051908152f35b3461042e57604036600319011261042e576004356001600160401b03811161042e576111ec903690600401611dd0565b6024908135600481101561042e576000546004906001600160a01b03908116331461121681612263565b611248604051865161123760209683888095818d0195610485818389611e26565b604051809381928a51928391611e26565b81016003815203019020906001908183019360405160009087875461126c81611e61565b9087811690811561170357506001146116ca575b508183876006955203019020019182549133908316149081156116c2575b501561165f578683036114055750905060ff60058301541660048110156113f05761139b575460a01c60ff1660058110156113865760020361133257600080516020612607833981519152955083926102b29261130661131a97966005611327955b016124c2565b604051968796606088526060880190611f68565b918683039087015261251b565b916040840190612217565b60405162461bcd60e51b8152600481018490526027818801527f54656e646572206d75737420626520636c6f73656420746f2073686f72746c696044820152667374206269647360c81b6064820152608490fd5b86634e487b7160e01b60005260216004526000fd5b60405162461bcd60e51b8152600481018590526028818901527f43616e206f6e6c792073686f72746c6973742066726f6d205375626d69747465604482015267642073746174757360c01b6064820152608490fd5b87634e487b7160e01b60005260216004526000fd5b600287036114b857505060ff6005830154169060048210156113f05781159182156114ae575b50501561145c57600080516020612607833981519152955083926102b29261130661131a9796600561132795611300565b60405162461bcd60e51b8152600481018490526025818801527f496e76616c696420737461747573207472616e736974696f6e20746f2052656a6044820152641958dd195960da1b6064820152608490fd5b149050878061142b565b9091600387146114f0575b505050600080516020612607833981519152955083926102b29261130661131a9796600561132795611300565b60ff600585015416600481101561164a57036115f75760ff8160a01c1660058110156115e257600203611592576000805160206126078339815191529750926113068660056113279561131a9a9998956102b298600360a01b9060ff60a01b19161790556000805160206126278339815191526040516040815280611578604082018961251b565b60038a8301520390a19550505082959697508194506114c3565b60405162461bcd60e51b8152600481018690526023818a01527f54656e646572206d75737420626520636c6f73656420746f206177617264206260448201526269647360e81b6064820152608490fd5b88634e487b7160e01b60005260216004526000fd5b60405162461bcd60e51b8152600481018690526026818a01527f43616e206f6e6c792061776172642066726f6d2053686f72746c69737465642060448201526573746174757360d01b6064820152608490fd5b89634e487b7160e01b60005260216004526000fd5b60405162461bcd60e51b8152600481018790526036818b01527f4f6e6c79207468652074656e6465722063726561746f72206f722061646d696e6044820152752063616e206368616e6765206269642073746174757360501b6064820152608490fd5b90508a61129e565b909192508760005281600020866000915b8383106116ef575050508201919081611280565b8054838701528b94909201918891016116db565b60ff1916845250801515028201925081611280565b3461042e57602036600319011261042e5760043560025481101561042e57610b3361055f9160026000527f405787fa12a823e0f2b7631cc41b3ba8828b3321ca811111fa75cd3aa3bb5ace01611e9b565b3461042e57608036600319011261042e576001600160401b0360043581811161042e5761179a903690600401611dd0565b906024803582811161042e576117b4903690600401611dd0565b6044359260643590811161042e576117d0903690600401612006565b6040518251906020946118056007878701946117ed818688611e26565b8401938881600196878152030190200154151561247e565b6040519360048951958881818d019861181f81838c611e26565b810160038152030190200154611ba6576040518781885161184181838a611e26565b8101868152030190209460ff600687015460a01c169560059687811015611b91578503611b4d5760048101544210611afe578601544211611aba57896040519161188a83611d78565b8183528a8a6118f18186018c81526118e86118d6604089019433865260608a0196875260808a019742895260a08b019960008b5260c08c019c8d52604051938492839251928391611e26565b81016003815203019020975188612329565b51898701612329565b600285019060018060a01b039051166bffffffffffffffffffffffff60a01b82541617905551600384015551600483015551600481101561075c579061193b6006928883016124c2565b019051805192600160401b8411611aa6575087908254848455808510611a28575b500190600052866000206000915b838310611a0d577f589214396aefe501bdb858bb39086111764f18b0ca160c140f42dd4a0009ac916119ef8c8c6119fc8d8d8d6119c7868f856119b891604051809381928951928391611e26565b81016004815203019020612451565b3360005282526119db856040600020612451565b604051958695608087526080870190611f68565b9185830390860152611f68565b9033604084015260608301520390a1005b848982611a1c83945186612329565b0192019201919061196a565b8360005285858460002092830192015b828110611a4657505061195c565b9091929350611a558154611e61565b80611a67575b500190858a9392611a38565b601f908c828211600114611a8357505050600081555b8d611a5b565b600092611a9d91858552842092018c1c8201858301612312565b81835555611a7d565b634e487b7160e01b60009081526041600452fd5b60405162461bcd60e51b8152600481018990526018818501527f54656e6465722062696464696e672068617320656e64656400000000000000006044820152606490fd5b60405162461bcd60e51b8152600481018a90526022818601527f54656e6465722062696464696e6720686173206e6f7420737461727465642079604482015261195d60f21b6064820152608490fd5b60405162461bcd60e51b8152600481018a9052601e818601527f54656e646572206973206e6f74206f70656e20666f722062696464696e6700006044820152606490fd5b84634e487b7160e01b60005260216004526000fd5b60405162461bcd60e51b8152600481018890526015818401527442696420494420616c72656164792065786973747360581b6044820152606490fd5b3461042e57602036600319011261042e576004356001600160401b03811161042e57610bb1611c1d6020610b8461055f943690600401611dd0565b810160048152030190206125b1565b3461042e57600036600319011261042e57600254611c4981611fef565b611c566040519182611daf565b81815260209182820160026000527f405787fa12a823e0f2b7631cc41b3ba8828b3321ca811111fa75cd3aa3bb5ace936000915b838310611c9f576040518061055f8782611f8d565b6001828192611cad89611e9b565b815201960192019194611c8a565b3461042e57602036600319011261042e576004356001600160401b03811161042e57610bb16006611cf8602061046861055f953690600401611dd0565b81016003815203019020016125b1565b3461042e57604036600319011261042e576004356001600160401b03811161042e57611d38903690600401611dd0565b611d546020602435928160405193828580945193849201611e26565b8101600481520301902090815481101561042e57610b2d610b339161055f93611e49565b60e081019081106001600160401b0382111761034857604052565b6101a081019081106001600160401b0382111761034857604052565b90601f801991011681019081106001600160401b0382111761034857604052565b81601f8201121561042e578035906001600160401b0382116103485760405192611e04601f8401601f191660200185611daf565b8284526020838301011161042e57816000926020809301838601378301015290565b60005b838110611e395750506000910152565b8181015183820152602001611e29565b8054821015610e485760005260206000200190600090565b90600182811c92168015611e91575b6020831014611e7b57565b634e487b7160e01b600052602260045260246000fd5b91607f1691611e70565b9060405191826000825492611eaf84611e61565b908184526001948581169081600014611f1e5750600114611edb575b5050611ed992500383611daf565b565b9093915060005260209081600020936000915b818310611f06575050611ed993508201013880611ecb565b85548884018501529485019487945091830191611eee565b915050611ed994506020925060ff191682840152151560051b8201013880611ecb565b90611f5257611f4f90611e9b565b90565b634e487b7160e01b600052600060045260246000fd5b90602091611f8181518092818552858086019101611e26565b601f01601f1916010190565b602080820190808352835180925260408301928160408460051b8301019501936000915b848310611fc15750505050505090565b9091929394958480611fdf600193603f198682030187528a51611f68565b9801930193019194939290611fb1565b6001600160401b0381116103485760051b60200190565b9080601f8301121561042e5781359061201e82611fef565b9261202c6040519485611daf565b828452602092838086019160051b8301019280841161042e57848301915b84831061205a5750505050505090565b82356001600160401b03811161042e57869161207b84848094890101611dd0565b81520192019161204a565b9060058210156103b35752565b9a979195611f4f9c9a9561212d9a9560606120e58f9a976120d78c61210a9a61211e9f996120c990610180808552840190611f68565b916020818403910152611f68565b8c810360408e015290611f68565b99015260808d015260a08c01526001600160a01b031660c08b015260e08a0190612086565b610100880152868203610120880152611f68565b90848203610140860152611f68565b91610160818403910152611f68565b600435906001600160a01b038216820361042e57565b9061014060031983011261042e5760048035926001600160401b039384811161042e5781612181918401611dd0565b9360243581811161042e5782612198918501611dd0565b9360443582811161042e57836121af918601611dd0565b93606435936084359360a4359360c43582811161042e57836121d2918601611dd0565b9360e43583811161042e57846121e9918301611dd0565b936101043584811161042e5781612201918401611dd0565b936101243590811161042e57611f4f9201612006565b9060048210156103b35752565b919361224560a094989795610299611ed9989460c0875260c0870190611f68565b97600180861b03166040840152606083015260808201520190612217565b1561226a57565b60405162461bcd60e51b8152602060048201526024808201527f4f6e6c79206f666669636572732063616e2063616c6c20746869732066756e636044820152633a34b7b760e11b6064820152608490fd5b156122c257565b60405162461bcd60e51b815260206004820152602260248201527f53746172742064617465206d757374206265206265666f726520656e64206461604482015261746560f01b6064820152608490fd5b81811061231d575050565b60008155600101612312565b91909182516001600160401b038111610348576123468254611e61565b601f81116123f0575b50602080601f831160011461238c575081929394600092612381575b50508160011b916000199060031b1c1916179055565b01519050388061236b565b90601f198316958460005282600020926000905b8882106123d8575050836001959697106123bf575b505050811b019055565b015160001960f88460031b161c191690553880806123b5565b806001859682949686015181550195019301906123a0565b61241d90836000526020600020601f840160051c81019160208510612423575b601f0160051c0190612312565b3861234f565b9091508190612410565b9060058110156103b357815460ff60a01b191660a09190911b60ff60a01b16179055565b8054600160401b8110156103485761246e91600182018155611e49565b919091611f5257611ed991612329565b1561248557565b60405162461bcd60e51b815260206004820152601560248201527415195b99195c88191bd95cc81b9bdd08195e1a5cdd605a1b6044820152606490fd5b9060048110156103b35760ff80198354169116179055565b156124e157565b60405162461bcd60e51b8152602060048201526012602482015271109a5908191bd95cc81b9bdd08195e1a5cdd60721b6044820152606490fd5b906000929180549161252c83611e61565b91828252600193848116908160001461258e575060011461254e575b50505050565b90919394506000526020928360002092846000945b83861061257a575050505001019038808080612548565b805485870183015294019385908201612563565b9294505050602093945060ff191683830152151560051b01019038808080612548565b9081546125bd81611fef565b926125cb6040519485611daf565b818452600090815260208082208186015b8484106125ea575050505050565b60018381926125f885611e9b565b8152019201930192906125dc56fe6b65c6d5f7b922b9e476d69513675de9e14194d8d07e3497bd427fd695866177162fce656cd34b1fd506c44ef9fd09e7939a5c94a678a14c6055668cdd8aa38ea26469706673582212205d623bf3af70d0cf2cbda92971d5cac6749a13481538593f0997b66cbd216c5164736f6c63430008140033","opcodes":"PUSH1 0x80 DUP1 PUSH1 0x40 MSTORE CALLVALUE PUSH2 0x28 JUMPI PUSH1 0x0 DUP1 SLOAD PUSH1 0x1 PUSH1 0x1 PUSH1 0xA0 SHL SUB NOT AND CALLER OR SWAP1 SSTORE PUSH2 0x267C SWAP1 DUP2 PUSH2 0x2E DUP3 CODECOPY RETURN JUMPDEST PUSH1 0x0 DUP1 REVERT INVALID PUSH1 0x80 PUSH1 0x40 MSTORE PUSH1 0x4 CALLDATASIZE LT ISZERO PUSH2 0x12 JUMPI PUSH1 0x0 DUP1 REVERT JUMPDEST PUSH1 0x0 CALLDATALOAD PUSH1 0xE0 SHR DUP1 PUSH4 0x1CC650C EQ PUSH2 0x1D08 JUMPI DUP1 PUSH4 0xF9FB388 EQ PUSH2 0x1CBB JUMPI DUP1 PUSH4 0x174F7692 EQ PUSH2 0x1C2C JUMPI DUP1 PUSH4 0x2D1FAF7C EQ PUSH2 0x1BE2 JUMPI DUP1 PUSH4 0x33F1F39D EQ PUSH2 0x1769 JUMPI DUP1 PUSH4 0x39C776B6 EQ PUSH2 0x1718 JUMPI DUP1 PUSH4 0x526F0300 EQ PUSH2 0x11BC JUMPI DUP1 PUSH4 0x5850B383 EQ PUSH2 0x119E JUMPI DUP1 PUSH4 0x62F058C8 EQ PUSH2 0x103B JUMPI DUP1 PUSH4 0x6759789F EQ PUSH2 0x1001 JUMPI DUP1 PUSH4 0x75829DEF EQ PUSH2 0xF34 JUMPI DUP1 PUSH4 0x7EBD6019 EQ PUSH2 0xBBD JUMPI DUP1 PUSH4 0x83F668B7 EQ PUSH2 0xB47 JUMPI DUP1 PUSH4 0x96EC50C3 EQ PUSH2 0xAE0 JUMPI DUP1 PUSH4 0x997B737F EQ PUSH2 0xA1A JUMPI DUP1 PUSH4 0x9E27AF87 EQ PUSH2 0x995 JUMPI DUP1 PUSH4 0xF7BF8B9E EQ PUSH2 0x58C JUMPI DUP1 PUSH4 0xF851A440 EQ PUSH2 0x563 JUMPI DUP1 PUSH4 0xF9853713 EQ PUSH2 0x433 JUMPI PUSH4 0xFB0998E3 EQ PUSH2 0xF8 JUMPI PUSH1 0x0 DUP1 REVERT JUMPDEST CALLVALUE PUSH2 0x42E JUMPI PUSH2 0x15E PUSH2 0x149 PUSH2 0x136 PUSH1 0x7 PUSH1 0x20 PUSH2 0x113 CALLDATASIZE PUSH2 0x2152 JUMP JUMPDEST SWAP10 DUP10 SWAP15 SWAP4 SWAP12 SWAP3 SWAP5 SWAP10 PUSH1 0x1 SWAP10 SWAP15 SWAP3 SWAP8 SWAP7 SWAP9 SWAP10 DUP1 PUSH1 0xA0 SHL SUB PUSH1 0x0 SLOAD AND CALLER EQ SWAP14 DUP15 PUSH2 0x2263 JUMP JUMPDEST DUP2 PUSH1 0x40 MLOAD SWAP4 DUP3 DUP6 DUP1 SWAP5 MLOAD SWAP4 DUP5 SWAP3 ADD PUSH2 0x1E26 JUMP JUMPDEST PUSH1 0x1 DUP2 DUP4 ADD MSTORE DUP2 ADD SUB ADD SWAP1 KECCAK256 ADD SLOAD ISZERO ISZERO PUSH2 0x247E JUMP JUMPDEST PUSH2 0x177 PUSH1 0x20 DUP13 DUP2 PUSH1 0x40 MLOAD SWAP4 DUP3 DUP6 DUP1 SWAP5 MLOAD SWAP4 DUP5 SWAP3 ADD PUSH2 0x1E26 JUMP JUMPDEST DUP2 ADD PUSH1 0x1 DUP2 MSTORE SUB ADD SWAP1 KECCAK256 SWAP5 PUSH1 0x6 DUP7 ADD SWAP10 DUP11 SLOAD SWAP1 CALLER PUSH1 0x1 DUP1 PUSH1 0xA0 SHL SUB DUP4 AND EQ SWAP1 DUP2 ISZERO PUSH2 0x426 JUMPI JUMPDEST POP ISZERO PUSH2 0x3C9 JUMPI PUSH1 0x5 SWAP10 SWAP1 PUSH1 0xA0 SHR PUSH1 0xFF AND DUP11 DUP2 LT ISZERO PUSH2 0x3B3 JUMPI PUSH2 0x35E JUMPI DUP8 DUP7 PUSH2 0x210 SWAP6 PUSH2 0x1F0 DUP16 SWAP6 PUSH2 0x1E7 PUSH2 0x207 SWAP8 PUSH1 0x1 PUSH1 0xB SWAP16 DUP16 SWAP1 PUSH2 0x219 SWAP16 SWAP1 PUSH2 0x1E1 SWAP2 LT PUSH2 0x22BB JUMP JUMPDEST ADD PUSH2 0x2329 JUMP JUMPDEST PUSH1 0x2 DUP13 ADD PUSH2 0x2329 JUMP JUMPDEST PUSH1 0x3 DUP11 ADD SSTORE PUSH1 0x4 DUP10 ADD SSTORE DUP11 DUP9 ADD SSTORE PUSH1 0x8 DUP8 ADD PUSH2 0x2329 JUMP JUMPDEST PUSH1 0x9 DUP6 ADD PUSH2 0x2329 JUMP JUMPDEST PUSH1 0xA DUP4 ADD PUSH2 0x2329 JUMP JUMPDEST ADD SWAP1 DUP1 MLOAD SWAP3 PUSH1 0x1 PUSH1 0x40 SHL DUP5 GT PUSH2 0x348 JUMPI DUP3 SLOAD SWAP1 DUP5 DUP5 SSTORE DUP2 DUP6 LT PUSH2 0x2D4 JUMPI JUMPDEST POP POP PUSH1 0x20 ADD SWAP1 PUSH1 0x0 MSTORE PUSH1 0x20 PUSH1 0x0 KECCAK256 PUSH1 0x0 SWAP2 JUMPDEST DUP4 DUP4 LT PUSH2 0x2B7 JUMPI PUSH32 0x5F33DD4AC582710407CC42C7D955EB11C3DB69506E9D3B22F38B6E2AF8CD652B PUSH2 0x299 DUP9 DUP9 PUSH2 0x2B2 PUSH2 0x2A7 PUSH1 0xFF DUP12 SLOAD PUSH1 0xA0 SHR AND SWAP3 PUSH1 0x40 MLOAD SWAP6 DUP7 SWAP6 PUSH1 0x60 DUP8 MSTORE PUSH1 0x60 DUP8 ADD SWAP1 PUSH2 0x1F68 JUMP JUMPDEST SWAP1 DUP6 DUP3 SUB PUSH1 0x20 DUP8 ADD MSTORE PUSH2 0x1F68 JUMP JUMPDEST SWAP2 PUSH1 0x40 DUP5 ADD SWAP1 PUSH2 0x2086 JUMP JUMPDEST SUB SWAP1 LOG1 STOP JUMPDEST PUSH1 0x1 PUSH1 0x20 DUP3 PUSH2 0x2C8 DUP4 SWAP5 MLOAD DUP7 PUSH2 0x2329 JUMP JUMPDEST ADD SWAP3 ADD SWAP3 ADD SWAP2 SWAP1 PUSH2 0x249 JUMP JUMPDEST DUP4 PUSH1 0x0 MSTORE DUP5 PUSH1 0x20 PUSH1 0x0 KECCAK256 SWAP3 DUP4 ADD SWAP3 ADD JUMPDEST DUP3 DUP2 LT PUSH2 0x2F1 JUMPI POP PUSH2 0x237 JUMP JUMPDEST DUP1 PUSH2 0x2FE PUSH1 0x1 SWAP3 SLOAD PUSH2 0x1E61 JUMP JUMPDEST DUP1 PUSH2 0x30B JUMPI JUMPDEST POP ADD PUSH2 0x2E4 JUMP JUMPDEST PUSH1 0x1F SWAP1 DUP2 DUP2 GT DUP5 EQ PUSH2 0x324 JUMPI POP POP PUSH1 0x0 DUP2 SSTORE JUMPDEST CODESIZE PUSH2 0x304 JUMP JUMPDEST PUSH2 0x33F PUSH1 0x0 SWAP3 DUP5 DUP5 MSTORE PUSH1 0x20 DUP5 KECCAK256 SWAP3 ADD DUP7 SHR DUP3 ADD DUP6 DUP4 ADD PUSH2 0x2312 JUMP JUMPDEST DUP2 DUP4 SSTORE SSTORE PUSH2 0x31E JUMP JUMPDEST PUSH4 0x4E487B71 PUSH1 0xE0 SHL PUSH1 0x0 MSTORE PUSH1 0x41 PUSH1 0x4 MSTORE PUSH1 0x24 PUSH1 0x0 REVERT JUMPDEST PUSH1 0x40 MLOAD PUSH3 0x461BCD PUSH1 0xE5 SHL DUP2 MSTORE PUSH1 0x20 PUSH1 0x4 DUP3 ADD MSTORE PUSH1 0x27 PUSH1 0x24 DUP3 ADD MSTORE PUSH32 0x43616E206F6E6C79207570646174652074656E6465727320696E204472616674 PUSH1 0x44 DUP3 ADD MSTORE PUSH7 0x20737461747573 PUSH1 0xC8 SHL PUSH1 0x64 DUP3 ADD MSTORE PUSH1 0x84 SWAP1 REVERT JUMPDEST PUSH4 0x4E487B71 PUSH1 0xE0 SHL PUSH1 0x0 MSTORE PUSH1 0x21 PUSH1 0x4 MSTORE PUSH1 0x24 PUSH1 0x0 REVERT JUMPDEST PUSH1 0x40 MLOAD PUSH3 0x461BCD PUSH1 0xE5 SHL DUP2 MSTORE PUSH1 0x20 PUSH1 0x4 DUP3 ADD MSTORE PUSH1 0x2F PUSH1 0x24 DUP3 ADD MSTORE PUSH32 0x4F6E6C79207468652063726561746F72206F722061646D696E2063616E207570 PUSH1 0x44 DUP3 ADD MSTORE PUSH15 0x3230BA32903A3432903A32B73232B9 PUSH1 0x89 SHL PUSH1 0x64 DUP3 ADD MSTORE PUSH1 0x84 SWAP1 REVERT JUMPDEST SWAP1 POP CODESIZE PUSH2 0x19D JUMP JUMPDEST PUSH1 0x0 DUP1 REVERT JUMPDEST CALLVALUE PUSH2 0x42E JUMPI PUSH1 0x20 CALLDATASIZE PUSH1 0x3 NOT ADD SLT PUSH2 0x42E JUMPI PUSH1 0x4 CALLDATALOAD PUSH1 0x1 PUSH1 0x1 PUSH1 0x40 SHL SUB DUP2 GT PUSH2 0x42E JUMPI PUSH1 0x20 PUSH2 0x468 PUSH2 0x4A9 SWAP3 CALLDATASIZE SWAP1 PUSH1 0x4 ADD PUSH2 0x1DD0 JUMP JUMPDEST PUSH1 0x40 MLOAD SWAP1 PUSH2 0x498 PUSH1 0x4 DUP3 MLOAD SWAP4 DUP6 DUP2 DUP2 DUP7 ADD SWAP7 PUSH2 0x485 DUP2 DUP4 DUP11 PUSH2 0x1E26 JUMP JUMPDEST DUP2 ADD PUSH1 0x3 DUP2 MSTORE SUB ADD SWAP1 KECCAK256 ADD SLOAD ISZERO ISZERO PUSH2 0x24DA JUMP JUMPDEST PUSH1 0x40 MLOAD SWAP4 DUP5 SWAP3 DUP4 SWAP3 MLOAD SWAP3 DUP4 SWAP2 PUSH2 0x1E26 JUMP JUMPDEST DUP2 ADD PUSH1 0x3 DUP2 MSTORE SUB ADD SWAP1 KECCAK256 PUSH1 0x40 MLOAD PUSH2 0x4BF DUP2 PUSH2 0x1D78 JUMP JUMPDEST PUSH2 0x4C8 DUP3 PUSH2 0x1E9B JUMP JUMPDEST DUP2 MSTORE PUSH2 0x4D6 PUSH1 0x1 DUP4 ADD PUSH2 0x1E9B JUMP JUMPDEST SWAP1 PUSH1 0x20 DUP2 ADD SWAP2 DUP3 MSTORE PUSH1 0x1 DUP1 PUSH1 0xA0 SHL SUB SWAP1 DUP2 PUSH1 0x2 DUP6 ADD SLOAD AND SWAP4 PUSH1 0x40 DUP3 ADD SWAP5 DUP6 MSTORE PUSH1 0x3 DUP2 ADD SLOAD SWAP3 PUSH1 0x60 DUP4 ADD SWAP4 DUP5 MSTORE PUSH1 0x4 DUP3 ADD SLOAD SWAP3 PUSH1 0x80 DUP2 ADD SWAP4 DUP5 MSTORE PUSH1 0xFF PUSH1 0x5 DUP5 ADD SLOAD AND SWAP3 PUSH1 0xA0 DUP3 ADD SWAP4 PUSH1 0x4 DUP2 LT ISZERO PUSH2 0x3B3 JUMPI DUP5 MSTORE PUSH2 0x534 SWAP1 PUSH1 0x6 ADD PUSH2 0x25B1 JUMP JUMPDEST PUSH1 0xC0 DUP3 ADD MSTORE MLOAD SWAP5 MLOAD SWAP6 MLOAD AND SWAP3 MLOAD SWAP2 MLOAD SWAP1 MLOAD SWAP2 PUSH1 0x4 DUP4 LT ISZERO PUSH2 0x3B3 JUMPI PUSH2 0x55F SWAP4 PUSH1 0x40 MLOAD SWAP7 DUP8 SWAP7 DUP8 PUSH2 0x2224 JUMP JUMPDEST SUB SWAP1 RETURN JUMPDEST CALLVALUE PUSH2 0x42E JUMPI PUSH1 0x0 CALLDATASIZE PUSH1 0x3 NOT ADD SLT PUSH2 0x42E JUMPI PUSH1 0x0 SLOAD PUSH1 0x40 MLOAD PUSH1 0x1 PUSH1 0x1 PUSH1 0xA0 SHL SUB SWAP1 SWAP2 AND DUP2 MSTORE PUSH1 0x20 SWAP1 RETURN JUMPDEST CALLVALUE PUSH2 0x42E JUMPI PUSH1 0x40 CALLDATASIZE PUSH1 0x3 NOT ADD SLT PUSH2 0x42E JUMPI PUSH1 0x4 CALLDATALOAD PUSH1 0x1 PUSH1 0x1 PUSH1 0x40 SHL SUB DUP2 GT PUSH2 0x42E JUMPI PUSH2 0x5BC SWAP1 CALLDATASIZE SWAP1 PUSH1 0x4 ADD PUSH2 0x1DD0 JUMP JUMPDEST PUSH1 0x24 DUP1 CALLDATALOAD PUSH1 0x5 DUP1 DUP3 LT ISZERO PUSH2 0x42E JUMPI PUSH1 0x1 DUP1 PUSH1 0xA0 SHL SUB SWAP3 DUP4 PUSH1 0x0 SLOAD AND CALLER EQ SWAP2 PUSH2 0x5E3 DUP4 PUSH2 0x2263 JUMP JUMPDEST PUSH1 0x40 MLOAD SWAP5 PUSH2 0x62B DUP8 DUP1 MLOAD PUSH2 0x61A PUSH1 0x7 DUP11 PUSH1 0x20 DUP1 SWAP13 DUP2 DUP1 SWAP8 ADD SWAP6 PUSH2 0x607 DUP2 DUP4 DUP10 PUSH2 0x1E26 JUMP JUMPDEST DUP2 ADD PUSH1 0x1 DUP2 MSTORE SUB ADD SWAP1 KECCAK256 ADD SLOAD ISZERO ISZERO PUSH2 0x247E JUMP JUMPDEST PUSH1 0x40 MLOAD DUP1 SWAP4 DUP2 SWAP3 DUP13 MLOAD SWAP3 DUP4 SWAP2 PUSH2 0x1E26 JUMP JUMPDEST DUP2 ADD PUSH1 0x1 DUP2 MSTORE SUB ADD SWAP1 KECCAK256 SWAP1 PUSH1 0x6 DUP3 ADD SWAP5 DUP6 SLOAD SWAP2 CALLER SWAP1 DUP4 AND EQ SWAP1 DUP2 ISZERO PUSH2 0x98D JUMPI JUMPDEST POP ISZERO PUSH2 0x931 JUMPI PUSH1 0x1 DUP7 SUB PUSH2 0x771 JUMPI PUSH1 0xA0 SHR PUSH1 0xFF AND DUP3 DUP2 LT ISZERO PUSH2 0x75C JUMPI PUSH2 0x70D JUMPI ADD SLOAD TIMESTAMP GT PUSH2 0x6B3 JUMPI POP SWAP2 PUSH2 0x2B2 DUP3 PUSH2 0x696 PUSH1 0x0 DUP1 MLOAD PUSH1 0x20 PUSH2 0x2627 DUP4 CODECOPY DUP2 MLOAD SWAP2 MSTORE SWAP7 SWAP5 PUSH2 0x6AA SWAP7 PUSH2 0x242D JUMP JUMPDEST PUSH1 0x40 MLOAD SWAP5 DUP6 SWAP5 PUSH1 0x40 DUP7 MSTORE PUSH1 0x40 DUP7 ADD SWAP1 PUSH2 0x1F68 JUMP JUMPDEST SWAP3 DUP5 ADD SWAP1 PUSH2 0x2086 JUMP JUMPDEST DUP4 PUSH1 0x2E PUSH1 0x84 SWAP3 PUSH1 0x40 MLOAD SWAP3 PUSH3 0x461BCD PUSH1 0xE5 SHL DUP5 MSTORE PUSH1 0x4 DUP5 ADD MSTORE DUP3 ADD MSTORE PUSH32 0x43616E6E6F74207075626C69736820612074656E646572207468617420686173 PUSH1 0x44 DUP3 ADD MSTORE PUSH14 0x8185B1C9958591E48195B991959 PUSH1 0x92 SHL PUSH1 0x64 DUP3 ADD MSTORE REVERT JUMPDEST PUSH1 0x40 MLOAD PUSH3 0x461BCD PUSH1 0xE5 SHL DUP2 MSTORE PUSH1 0x4 DUP2 ADD DUP8 SWAP1 MSTORE PUSH1 0x22 DUP2 DUP6 ADD MSTORE PUSH32 0x43616E206F6E6C79207075626C6973682066726F6D2044726166742073746174 PUSH1 0x44 DUP3 ADD MSTORE PUSH2 0x7573 PUSH1 0xF0 SHL PUSH1 0x64 DUP3 ADD MSTORE PUSH1 0x84 SWAP1 REVERT JUMPDEST DUP4 PUSH4 0x4E487B71 PUSH1 0xE0 SHL PUSH1 0x0 MSTORE PUSH1 0x21 PUSH1 0x4 MSTORE PUSH1 0x0 REVERT JUMPDEST SWAP1 POP PUSH1 0x2 DUP6 SUB PUSH2 0x817 JUMPI PUSH1 0xA0 SHR PUSH1 0xFF AND SWAP1 DUP2 LT ISZERO PUSH2 0x802 JUMPI PUSH1 0x1 SUB PUSH2 0x7B3 JUMPI POP SWAP2 PUSH2 0x2B2 DUP3 PUSH2 0x696 PUSH1 0x0 DUP1 MLOAD PUSH1 0x20 PUSH2 0x2627 DUP4 CODECOPY DUP2 MLOAD SWAP2 MSTORE SWAP7 SWAP5 PUSH2 0x6AA SWAP7 PUSH2 0x242D JUMP JUMPDEST DUP4 PUSH1 0x84 SWAP2 PUSH1 0x40 MLOAD SWAP2 PUSH3 0x461BCD PUSH1 0xE5 SHL DUP4 MSTORE PUSH1 0x4 DUP4 ADD MSTORE DUP1 DUP3 ADD MSTORE PUSH32 0x43616E206F6E6C7920636C6F73652066726F6D205075626C6973686564207374 PUSH1 0x44 DUP3 ADD MSTORE PUSH4 0x61747573 PUSH1 0xE0 SHL PUSH1 0x64 DUP3 ADD MSTORE REVERT JUMPDEST POP PUSH4 0x4E487B71 PUSH1 0xE0 SHL PUSH1 0x0 SWAP1 DUP2 MSTORE PUSH1 0x21 PUSH1 0x4 MSTORE REVERT JUMPDEST PUSH1 0x3 DUP6 SUB PUSH2 0x8A4 JUMPI PUSH1 0xA0 SHR PUSH1 0xFF AND SWAP1 DUP2 LT ISZERO PUSH2 0x802 JUMPI PUSH1 0x2 SUB PUSH2 0x857 JUMPI POP SWAP2 PUSH2 0x2B2 DUP3 PUSH2 0x696 PUSH1 0x0 DUP1 MLOAD PUSH1 0x20 PUSH2 0x2627 DUP4 CODECOPY DUP2 MLOAD SWAP2 MSTORE SWAP7 SWAP5 PUSH2 0x6AA SWAP7 PUSH2 0x242D JUMP JUMPDEST DUP4 PUSH1 0x21 PUSH1 0x84 SWAP3 PUSH1 0x40 MLOAD SWAP3 PUSH3 0x461BCD PUSH1 0xE5 SHL DUP5 MSTORE PUSH1 0x4 DUP5 ADD MSTORE DUP3 ADD MSTORE PUSH32 0x43616E206F6E6C792061776172642066726F6D20436C6F736564207374617475 PUSH1 0x44 DUP3 ADD MSTORE PUSH1 0x73 PUSH1 0xF8 SHL PUSH1 0x64 DUP3 ADD MSTORE REVERT JUMPDEST PUSH1 0x4 DUP6 EQ PUSH2 0x8D2 JUMPI JUMPDEST POP POP POP SWAP2 PUSH2 0x2B2 DUP3 PUSH2 0x696 PUSH1 0x0 DUP1 MLOAD PUSH1 0x20 PUSH2 0x2627 DUP4 CODECOPY DUP2 MLOAD SWAP2 MSTORE SWAP7 SWAP5 PUSH2 0x6AA SWAP7 PUSH2 0x242D JUMP JUMPDEST PUSH1 0xA0 SHR PUSH1 0xFF AND SWAP1 DUP2 LT ISZERO PUSH2 0x802 JUMPI PUSH1 0x3 EQ PUSH2 0x8EE JUMPI DUP1 DUP1 PUSH2 0x8AD JUMP JUMPDEST DUP4 PUSH1 0x1F PUSH1 0x64 SWAP3 PUSH1 0x40 MLOAD SWAP3 PUSH3 0x461BCD PUSH1 0xE5 SHL DUP5 MSTORE PUSH1 0x4 DUP5 ADD MSTORE DUP3 ADD MSTORE PUSH32 0x43616E6E6F742063616E63656C20616E20617761726465642074656E64657200 PUSH1 0x44 DUP3 ADD MSTORE REVERT JUMPDEST PUSH1 0x40 MLOAD PUSH3 0x461BCD PUSH1 0xE5 SHL DUP2 MSTORE PUSH1 0x4 DUP2 ADD DUP9 SWAP1 MSTORE PUSH1 0x2F DUP2 DUP7 ADD MSTORE PUSH32 0x4F6E6C79207468652063726561746F72206F722061646D696E2063616E206368 PUSH1 0x44 DUP3 ADD MSTORE PUSH15 0x616E67652074686520737461747573 PUSH1 0x88 SHL PUSH1 0x64 DUP3 ADD MSTORE PUSH1 0x84 SWAP1 REVERT JUMPDEST SWAP1 POP DUP10 PUSH2 0x64B JUMP JUMPDEST CALLVALUE PUSH2 0x42E JUMPI PUSH1 0x20 CALLDATASIZE PUSH1 0x3 NOT ADD SLT PUSH2 0x42E JUMPI PUSH1 0x4 CALLDATALOAD PUSH1 0x1 PUSH1 0x1 PUSH1 0x40 SHL SUB DUP2 GT PUSH2 0x42E JUMPI PUSH1 0x20 PUSH2 0x136 PUSH2 0x9CA SWAP3 CALLDATASIZE SWAP1 PUSH1 0x4 ADD PUSH2 0x1DD0 JUMP JUMPDEST DUP2 ADD PUSH1 0x3 DUP2 MSTORE SUB ADD SWAP1 KECCAK256 PUSH2 0x9DD DUP2 PUSH2 0x1E9B JUMP JUMPDEST PUSH2 0x55F PUSH2 0x9EC PUSH1 0x1 DUP5 ADD PUSH2 0x1E9B JUMP JUMPDEST SWAP3 PUSH1 0x1 DUP1 PUSH1 0xA0 SHL SUB PUSH1 0x2 DUP3 ADD SLOAD AND SWAP1 PUSH1 0x3 DUP2 ADD SLOAD PUSH1 0xFF PUSH1 0x5 PUSH1 0x4 DUP5 ADD SLOAD SWAP4 ADD SLOAD AND SWAP3 PUSH1 0x40 MLOAD SWAP7 DUP8 SWAP7 DUP8 PUSH2 0x2224 JUMP JUMPDEST CALLVALUE PUSH2 0x42E JUMPI PUSH1 0x20 CALLDATASIZE PUSH1 0x3 NOT ADD SLT PUSH2 0x42E JUMPI PUSH1 0x4 CALLDATALOAD PUSH1 0x1 PUSH1 0x1 PUSH1 0x40 SHL SUB DUP2 GT PUSH2 0x42E JUMPI PUSH1 0x20 PUSH2 0x136 PUSH2 0xA4F SWAP3 CALLDATASIZE SWAP1 PUSH1 0x4 ADD PUSH2 0x1DD0 JUMP JUMPDEST DUP2 ADD PUSH1 0x1 DUP2 MSTORE SUB ADD SWAP1 KECCAK256 PUSH2 0xA62 DUP2 PUSH2 0x1E9B JUMP JUMPDEST PUSH2 0x55F PUSH2 0xA71 PUSH1 0x1 DUP5 ADD PUSH2 0x1E9B JUMP JUMPDEST SWAP2 PUSH2 0xA7E PUSH1 0x2 DUP6 ADD PUSH2 0x1E9B JUMP JUMPDEST SWAP4 PUSH1 0x3 DUP2 ADD SLOAD SWAP2 PUSH1 0x4 DUP3 ADD SLOAD SWAP1 PUSH1 0x5 DUP4 ADD SLOAD SWAP1 PUSH1 0x6 DUP5 ADD SLOAD SWAP1 PUSH1 0x7 DUP6 ADD SLOAD SWAP3 PUSH2 0xAA9 PUSH1 0x8 DUP8 ADD PUSH2 0x1E9B JUMP JUMPDEST SWAP5 PUSH2 0xAC2 PUSH1 0xA PUSH2 0xABB PUSH1 0x9 DUP11 ADD PUSH2 0x1E9B JUMP JUMPDEST SWAP9 ADD PUSH2 0x1E9B JUMP JUMPDEST SWAP8 PUSH1 0x40 MLOAD SWAP12 DUP13 SWAP12 PUSH1 0xFF DUP8 PUSH1 0xA0 SHR AND SWAP7 PUSH1 0x1 DUP1 PUSH1 0xA0 SHL SUB AND SWAP6 DUP14 PUSH2 0x2093 JUMP JUMPDEST CALLVALUE PUSH2 0x42E JUMPI PUSH1 0x40 CALLDATASIZE PUSH1 0x3 NOT ADD SLT PUSH2 0x42E JUMPI PUSH2 0xAF9 PUSH2 0x213C JUMP JUMPDEST PUSH1 0x1 PUSH1 0x1 PUSH1 0xA0 SHL SUB AND PUSH1 0x0 SWAP1 DUP2 MSTORE PUSH1 0x5 PUSH1 0x20 MSTORE PUSH1 0x40 SWAP1 KECCAK256 DUP1 SLOAD PUSH1 0x24 CALLDATALOAD SWAP1 DUP2 LT ISZERO PUSH2 0x42E JUMPI PUSH2 0xB2D PUSH2 0xB33 SWAP2 PUSH2 0x55F SWAP4 PUSH2 0x1E49 JUMP JUMPDEST SWAP1 PUSH2 0x1F41 JUMP JUMPDEST PUSH1 0x40 MLOAD SWAP2 DUP3 SWAP2 PUSH1 0x20 DUP4 MSTORE PUSH1 0x20 DUP4 ADD SWAP1 PUSH2 0x1F68 JUMP JUMPDEST CALLVALUE PUSH2 0x42E JUMPI PUSH1 0x20 CALLDATASIZE PUSH1 0x3 NOT ADD SLT PUSH2 0x42E JUMPI PUSH1 0x4 CALLDATALOAD PUSH1 0x1 PUSH1 0x1 PUSH1 0x40 SHL SUB DUP2 GT PUSH2 0x42E JUMPI PUSH2 0xBB1 PUSH1 0xB PUSH2 0xBA1 PUSH1 0x20 PUSH2 0xB84 PUSH2 0x55F SWAP6 CALLDATASIZE SWAP1 PUSH1 0x4 ADD PUSH2 0x1DD0 JUMP JUMPDEST PUSH1 0x40 MLOAD SWAP1 PUSH2 0x498 PUSH1 0x7 DUP3 MLOAD SWAP4 DUP6 DUP2 DUP2 DUP7 ADD SWAP7 PUSH2 0x607 DUP2 DUP4 DUP11 PUSH2 0x1E26 JUMP JUMPDEST DUP2 ADD PUSH1 0x1 DUP2 MSTORE SUB ADD SWAP1 KECCAK256 ADD PUSH2 0x25B1 JUMP JUMPDEST PUSH1 0x40 MLOAD SWAP2 DUP3 SWAP2 DUP3 PUSH2 0x1F8D JUMP JUMPDEST CALLVALUE PUSH2 0x42E JUMPI PUSH2 0xBCB CALLDATASIZE PUSH2 0x2152 JUMP JUMPDEST SWAP6 PUSH2 0xBEA PUSH1 0x1 DUP1 PUSH1 0xA0 SWAP13 SWAP11 SWAP13 SWAP9 SWAP5 SWAP9 SWAP8 SWAP6 SWAP8 SHL SUB PUSH1 0x0 SLOAD AND CALLER EQ PUSH2 0x2263 JUMP JUMPDEST PUSH1 0x7 PUSH1 0x40 MLOAD PUSH1 0x20 DUP2 DUP2 PUSH2 0xC03 DUP14 DUP4 DUP2 MLOAD SWAP4 DUP5 SWAP3 ADD PUSH2 0x1E26 JUMP JUMPDEST DUP2 ADD PUSH1 0x1 DUP2 MSTORE SUB ADD SWAP1 KECCAK256 ADD SLOAD PUSH2 0xEEF JUMPI PUSH2 0xC1E DUP4 DUP4 LT PUSH2 0x22BB JUMP JUMPDEST PUSH1 0x40 MLOAD SWAP10 PUSH2 0xC2B DUP12 PUSH2 0x1D93 JUMP JUMPDEST DUP9 DUP12 MSTORE DUP10 PUSH1 0x20 DUP13 ADD MSTORE PUSH1 0x40 DUP12 ADD MSTORE PUSH1 0x60 DUP11 ADD MSTORE PUSH1 0x80 DUP10 ADD MSTORE PUSH1 0xA0 DUP9 ADD MSTORE CALLER PUSH1 0xC0 DUP9 ADD MSTORE PUSH1 0x0 PUSH1 0xE0 DUP9 ADD MSTORE TIMESTAMP PUSH2 0x100 DUP9 ADD MSTORE PUSH2 0x120 DUP8 ADD MSTORE PUSH2 0x140 DUP7 ADD MSTORE PUSH2 0x160 DUP6 ADD MSTORE PUSH2 0x180 DUP5 ADD MSTORE PUSH1 0x40 MLOAD PUSH1 0x20 DUP2 DUP4 MLOAD PUSH2 0xC89 DUP2 DUP4 DUP6 DUP9 ADD PUSH2 0x1E26 JUMP JUMPDEST DUP2 ADD PUSH1 0x1 DUP2 MSTORE SUB ADD SWAP1 KECCAK256 SWAP3 PUSH2 0xC9F DUP2 MLOAD DUP6 PUSH2 0x2329 JUMP JUMPDEST PUSH2 0xCB0 PUSH1 0x20 DUP3 ADD MLOAD PUSH1 0x1 DUP7 ADD PUSH2 0x2329 JUMP JUMPDEST PUSH2 0xCC1 PUSH1 0x40 DUP3 ADD MLOAD PUSH1 0x2 DUP7 ADD PUSH2 0x2329 JUMP JUMPDEST PUSH1 0x60 DUP2 ADD MLOAD PUSH1 0x3 DUP6 ADD SSTORE PUSH1 0x80 DUP2 ADD MLOAD PUSH1 0x4 DUP6 ADD SSTORE PUSH1 0xA0 DUP2 ADD MLOAD SWAP4 PUSH1 0x5 SWAP5 DUP6 DUP3 ADD SSTORE PUSH1 0x6 DUP2 ADD SWAP1 PUSH1 0x1 DUP1 PUSH1 0xA0 SHL SUB PUSH1 0xC0 DUP5 ADD MLOAD AND PUSH12 0xFFFFFFFFFFFFFFFFFFFFFFFF PUSH1 0xA0 SHL DUP4 SLOAD AND OR DUP3 SSTORE PUSH1 0xE0 DUP4 ADD MLOAD SWAP1 DUP7 DUP3 LT ISZERO PUSH2 0x3B3 JUMPI PUSH2 0xD27 PUSH1 0xB SWAP3 PUSH2 0x180 SWAP5 PUSH2 0x242D JUMP JUMPDEST PUSH2 0x100 DUP5 ADD MLOAD PUSH1 0x7 DUP3 ADD SSTORE PUSH2 0xD44 PUSH2 0x120 DUP6 ADD MLOAD PUSH1 0x8 DUP4 ADD PUSH2 0x2329 JUMP JUMPDEST PUSH2 0xD56 PUSH2 0x140 DUP6 ADD MLOAD PUSH1 0x9 DUP4 ADD PUSH2 0x2329 JUMP JUMPDEST PUSH2 0xD68 PUSH2 0x160 DUP6 ADD MLOAD PUSH1 0xA DUP4 ADD PUSH2 0x2329 JUMP JUMPDEST ADD SWAP2 ADD MLOAD SWAP1 DUP2 MLOAD SWAP2 PUSH1 0x1 PUSH1 0x40 SHL SWAP6 DUP7 DUP5 GT PUSH2 0x348 JUMPI DUP3 SLOAD SWAP1 DUP5 DUP5 SSTORE DUP2 DUP6 LT PUSH2 0xE7B JUMPI JUMPDEST POP POP PUSH1 0x20 ADD SWAP1 PUSH1 0x0 MSTORE PUSH1 0x20 PUSH1 0x0 KECCAK256 PUSH1 0x0 SWAP2 JUMPDEST DUP4 DUP4 LT PUSH2 0xE5E JUMPI POP POP POP POP PUSH1 0x2 SLOAD SWAP3 DUP4 LT ISZERO PUSH2 0x348 JUMPI PUSH1 0x1 DUP4 ADD DUP1 PUSH1 0x2 SSTORE DUP4 LT ISZERO PUSH2 0xE48 JUMPI PUSH2 0xE3D PUSH2 0xE2F SWAP3 PUSH2 0xE1B DUP4 PUSH32 0x540E31CB45C1B4F21657A7522027A48FF2EC55CD0711035075C1F9E8FAAD564 SWAP7 PUSH1 0x2 PUSH1 0x0 MSTORE PUSH32 0x405787FA12A823E0F2B7631CC41B3BA8828B3321CA811111FA75CD3AA3BB5ACE ADD PUSH2 0x2329 JUMP JUMPDEST PUSH1 0x40 MLOAD SWAP4 DUP5 SWAP4 PUSH1 0x60 DUP6 MSTORE PUSH1 0x60 DUP6 ADD SWAP1 PUSH2 0x1F68 JUMP JUMPDEST SWAP1 DUP4 DUP3 SUB PUSH1 0x20 DUP6 ADD MSTORE PUSH2 0x1F68 JUMP JUMPDEST CALLER PUSH1 0x40 DUP4 ADD MSTORE SUB SWAP1 LOG1 STOP JUMPDEST PUSH4 0x4E487B71 PUSH1 0xE0 SHL PUSH1 0x0 MSTORE PUSH1 0x32 PUSH1 0x4 MSTORE PUSH1 0x24 PUSH1 0x0 REVERT JUMPDEST PUSH1 0x1 PUSH1 0x20 DUP3 PUSH2 0xE6F DUP4 SWAP5 MLOAD DUP7 PUSH2 0x2329 JUMP JUMPDEST ADD SWAP3 ADD SWAP3 ADD SWAP2 SWAP1 PUSH2 0xD9D JUMP JUMPDEST DUP4 PUSH1 0x0 MSTORE DUP5 PUSH1 0x20 PUSH1 0x0 KECCAK256 SWAP3 DUP4 ADD SWAP3 ADD JUMPDEST DUP3 DUP2 LT PUSH2 0xE98 JUMPI POP PUSH2 0xD8B JUMP JUMPDEST DUP1 PUSH2 0xEA5 PUSH1 0x1 SWAP3 SLOAD PUSH2 0x1E61 JUMP JUMPDEST DUP1 PUSH2 0xEB2 JUMPI JUMPDEST POP ADD PUSH2 0xE8B JUMP JUMPDEST PUSH1 0x1F SWAP1 DUP2 DUP2 GT DUP5 EQ PUSH2 0xECB JUMPI POP POP PUSH1 0x0 DUP2 SSTORE JUMPDEST DUP11 PUSH2 0xEAB JUMP JUMPDEST PUSH2 0xEE6 PUSH1 0x0 SWAP3 DUP5 DUP5 MSTORE PUSH1 0x20 DUP5 KECCAK256 SWAP3 ADD DUP7 SHR DUP3 ADD DUP6 DUP4 ADD PUSH2 0x2312 JUMP JUMPDEST DUP2 DUP4 SSTORE SSTORE PUSH2 0xEC5 JUMP JUMPDEST PUSH1 0x40 MLOAD PUSH3 0x461BCD PUSH1 0xE5 SHL DUP2 MSTORE PUSH1 0x20 PUSH1 0x4 DUP3 ADD MSTORE PUSH1 0x18 PUSH1 0x24 DUP3 ADD MSTORE PUSH32 0x54656E64657220494420616C7265616479206578697374730000000000000000 PUSH1 0x44 DUP3 ADD MSTORE PUSH1 0x64 SWAP1 REVERT JUMPDEST CALLVALUE PUSH2 0x42E JUMPI PUSH1 0x20 CALLDATASIZE PUSH1 0x3 NOT ADD SLT PUSH2 0x42E JUMPI PUSH2 0xF4D PUSH2 0x213C JUMP JUMPDEST PUSH1 0x0 SLOAD SWAP1 PUSH1 0x1 PUSH1 0x1 PUSH1 0xA0 SHL SUB SWAP1 DUP2 DUP4 AND CALLER SUB PUSH2 0xFB2 JUMPI AND SWAP1 DUP2 ISZERO PUSH2 0xF7B JUMPI PUSH1 0x1 PUSH1 0x1 PUSH1 0xA0 SHL SUB NOT AND OR PUSH1 0x0 SSTORE STOP JUMPDEST PUSH1 0x40 MLOAD PUSH3 0x461BCD PUSH1 0xE5 SHL DUP2 MSTORE PUSH1 0x20 PUSH1 0x4 DUP3 ADD MSTORE PUSH1 0xF PUSH1 0x24 DUP3 ADD MSTORE PUSH15 0x496E76616C69642061646472657373 PUSH1 0x88 SHL PUSH1 0x44 DUP3 ADD MSTORE PUSH1 0x64 SWAP1 REVERT JUMPDEST PUSH1 0x40 MLOAD PUSH3 0x461BCD PUSH1 0xE5 SHL DUP2 MSTORE PUSH1 0x20 PUSH1 0x4 DUP3 ADD MSTORE PUSH1 0x21 PUSH1 0x24 DUP3 ADD MSTORE PUSH32 0x4F6E6C792061646D696E2063616E2063616C6C20746869732066756E6374696F PUSH1 0x44 DUP3 ADD MSTORE PUSH1 0x37 PUSH1 0xF9 SHL PUSH1 0x64 DUP3 ADD MSTORE PUSH1 0x84 SWAP1 REVERT JUMPDEST CALLVALUE PUSH2 0x42E JUMPI PUSH1 0x20 CALLDATASIZE PUSH1 0x3 NOT ADD SLT PUSH2 0x42E JUMPI PUSH1 0x1 PUSH1 0x1 PUSH1 0xA0 SHL SUB PUSH2 0x1022 PUSH2 0x213C JUMP JUMPDEST AND PUSH1 0x0 MSTORE PUSH1 0x5 PUSH1 0x20 MSTORE PUSH2 0x55F PUSH2 0xBB1 PUSH1 0x40 PUSH1 0x0 KECCAK256 PUSH2 0x25B1 JUMP JUMPDEST CALLVALUE PUSH2 0x42E JUMPI PUSH1 0x20 CALLDATASIZE PUSH1 0x3 NOT ADD SLT PUSH2 0x42E JUMPI PUSH1 0x4 CALLDATALOAD PUSH1 0x1 PUSH1 0x1 PUSH1 0x40 SHL SUB DUP2 GT PUSH2 0x42E JUMPI PUSH1 0x20 PUSH2 0xB84 PUSH2 0x1070 SWAP3 CALLDATASIZE SWAP1 PUSH1 0x4 ADD PUSH2 0x1DD0 JUMP JUMPDEST DUP2 ADD PUSH1 0x1 DUP2 MSTORE SUB ADD SWAP1 KECCAK256 PUSH1 0x40 MLOAD PUSH2 0x1086 DUP2 PUSH2 0x1D93 JUMP JUMPDEST PUSH2 0x108F DUP3 PUSH2 0x1E9B JUMP JUMPDEST DUP2 MSTORE PUSH2 0x109D PUSH1 0x1 DUP4 ADD PUSH2 0x1E9B JUMP JUMPDEST SWAP1 PUSH1 0x20 DUP2 ADD SWAP2 DUP3 MSTORE PUSH2 0x10B1 PUSH1 0x2 DUP5 ADD PUSH2 0x1E9B JUMP JUMPDEST SWAP3 PUSH1 0x40 DUP3 ADD SWAP4 DUP5 MSTORE PUSH1 0x3 DUP2 ADD SLOAD SWAP1 PUSH1 0x60 DUP4 ADD SWAP2 DUP3 MSTORE PUSH1 0x4 DUP2 ADD SLOAD SWAP3 PUSH1 0x80 DUP2 ADD SWAP4 DUP5 MSTORE PUSH1 0x5 DUP3 ADD SLOAD SWAP4 PUSH1 0xA0 DUP3 ADD SWAP5 DUP6 MSTORE PUSH1 0x6 DUP4 ADD SLOAD SWAP1 PUSH1 0xC0 DUP4 ADD PUSH1 0xFF PUSH1 0x1 DUP1 PUSH1 0xA0 SHL SUB SWAP4 DUP5 DUP2 AND DUP4 MSTORE PUSH1 0xA0 SHR AND SWAP1 PUSH1 0xE0 DUP6 ADD SWAP2 PUSH1 0x5 DUP2 LT ISZERO PUSH2 0x3B3 JUMPI DUP3 MSTORE PUSH1 0x7 DUP7 ADD SLOAD SWAP8 PUSH2 0x100 DUP7 ADD SWAP9 DUP10 MSTORE PUSH2 0x1128 PUSH1 0x8 DUP9 ADD PUSH2 0x1E9B JUMP JUMPDEST SWAP5 PUSH2 0x120 DUP8 ADD SWAP6 DUP7 MSTORE PUSH2 0x113D PUSH1 0x9 DUP10 ADD PUSH2 0x1E9B JUMP JUMPDEST SWAP7 PUSH2 0x140 DUP2 ADD SWAP8 DUP9 MSTORE PUSH2 0x1166 PUSH1 0xB PUSH2 0x1157 PUSH1 0xA DUP13 ADD PUSH2 0x1E9B JUMP JUMPDEST SWAP11 PUSH2 0x160 DUP5 ADD SWAP12 DUP13 MSTORE ADD PUSH2 0x25B1 JUMP JUMPDEST PUSH2 0x180 DUP3 ADD MSTORE MLOAD SWAP11 MLOAD SWAP12 MLOAD SWAP9 MLOAD SWAP5 MLOAD SWAP2 MLOAD SWAP3 MLOAD AND SWAP3 MLOAD SWAP4 PUSH1 0x5 DUP6 LT ISZERO PUSH2 0x3B3 JUMPI PUSH2 0x55F SWAP10 MLOAD SWAP6 MLOAD SWAP7 MLOAD SWAP8 MLOAD SWAP9 PUSH1 0x40 MLOAD SWAP13 DUP14 SWAP13 DUP14 PUSH2 0x2093 JUMP JUMPDEST CALLVALUE PUSH2 0x42E JUMPI PUSH1 0x0 CALLDATASIZE PUSH1 0x3 NOT ADD SLT PUSH2 0x42E JUMPI PUSH1 0x20 PUSH1 0x2 SLOAD PUSH1 0x40 MLOAD SWAP1 DUP2 MSTORE RETURN JUMPDEST CALLVALUE PUSH2 0x42E JUMPI PUSH1 0x40 CALLDATASIZE PUSH1 0x3 NOT ADD SLT PUSH2 0x42E JUMPI PUSH1 0x4 CALLDATALOAD PUSH1 0x1 PUSH1 0x1 PUSH1 0x40 SHL SUB DUP2 GT PUSH2 0x42E JUMPI PUSH2 0x11EC SWAP1 CALLDATASIZE SWAP1 PUSH1 0x4 ADD PUSH2 0x1DD0 JUMP JUMPDEST PUSH1 0x24 SWAP1 DUP2 CALLDATALOAD PUSH1 0x4 DUP2 LT ISZERO PUSH2 0x42E JUMPI PUSH1 0x0 SLOAD PUSH1 0x4 SWAP1 PUSH1 0x1 PUSH1 0x1 PUSH1 0xA0 SHL SUB SWAP1 DUP2 AND CALLER EQ PUSH2 0x1216 DUP2 PUSH2 0x2263 JUMP JUMPDEST PUSH2 0x1248 PUSH1 0x40 MLOAD DUP7 MLOAD PUSH2 0x1237 PUSH1 0x20 SWAP7 DUP4 DUP9 DUP1 SWAP6 DUP2 DUP14 ADD SWAP6 PUSH2 0x485 DUP2 DUP4 DUP10 PUSH2 0x1E26 JUMP JUMPDEST PUSH1 0x40 MLOAD DUP1 SWAP4 DUP2 SWAP3 DUP11 MLOAD SWAP3 DUP4 SWAP2 PUSH2 0x1E26 JUMP JUMPDEST DUP2 ADD PUSH1 0x3 DUP2 MSTORE SUB ADD SWAP1 KECCAK256 SWAP1 PUSH1 0x1 SWAP1 DUP2 DUP4 ADD SWAP4 PUSH1 0x40 MLOAD PUSH1 0x0 SWAP1 DUP8 DUP8 SLOAD PUSH2 0x126C DUP2 PUSH2 0x1E61 JUMP JUMPDEST SWAP1 DUP8 DUP2 AND SWAP1 DUP2 ISZERO PUSH2 0x1703 JUMPI POP PUSH1 0x1 EQ PUSH2 0x16CA JUMPI JUMPDEST POP DUP2 DUP4 DUP8 PUSH1 0x6 SWAP6 MSTORE SUB ADD SWAP1 KECCAK256 ADD SWAP2 DUP3 SLOAD SWAP2 CALLER SWAP1 DUP4 AND EQ SWAP1 DUP2 ISZERO PUSH2 0x16C2 JUMPI JUMPDEST POP ISZERO PUSH2 0x165F JUMPI DUP7 DUP4 SUB PUSH2 0x1405 JUMPI POP SWAP1 POP PUSH1 0xFF PUSH1 0x5 DUP4 ADD SLOAD AND PUSH1 0x4 DUP2 LT ISZERO PUSH2 0x13F0 JUMPI PUSH2 0x139B JUMPI SLOAD PUSH1 0xA0 SHR PUSH1 0xFF AND PUSH1 0x5 DUP2 LT ISZERO PUSH2 0x1386 JUMPI PUSH1 0x2 SUB PUSH2 0x1332 JUMPI PUSH1 0x0 DUP1 MLOAD PUSH1 0x20 PUSH2 0x2607 DUP4 CODECOPY DUP2 MLOAD SWAP2 MSTORE SWAP6 POP DUP4 SWAP3 PUSH2 0x2B2 SWAP3 PUSH2 0x1306 PUSH2 0x131A SWAP8 SWAP7 PUSH1 0x5 PUSH2 0x1327 SWAP6 JUMPDEST ADD PUSH2 0x24C2 JUMP JUMPDEST PUSH1 0x40 MLOAD SWAP7 DUP8 SWAP7 PUSH1 0x60 DUP9 MSTORE PUSH1 0x60 DUP9 ADD SWAP1 PUSH2 0x1F68 JUMP JUMPDEST SWAP2 DUP7 DUP4 SUB SWAP1 DUP8 ADD MSTORE PUSH2 0x251B JUMP JUMPDEST SWAP2 PUSH1 0x40 DUP5 ADD SWAP1 PUSH2 0x2217 JUMP JUMPDEST PUSH1 0x40 MLOAD PUSH3 0x461BCD PUSH1 0xE5 SHL DUP2 MSTORE PUSH1 0x4 DUP2 ADD DUP5 SWAP1 MSTORE PUSH1 0x27 DUP2 DUP9 ADD MSTORE PUSH32 0x54656E646572206D75737420626520636C6F73656420746F2073686F72746C69 PUSH1 0x44 DUP3 ADD MSTORE PUSH7 0x73742062696473 PUSH1 0xC8 SHL PUSH1 0x64 DUP3 ADD MSTORE PUSH1 0x84 SWAP1 REVERT JUMPDEST DUP7 PUSH4 0x4E487B71 PUSH1 0xE0 SHL PUSH1 0x0 MSTORE PUSH1 0x21 PUSH1 0x4 MSTORE PUSH1 0x0 REVERT JUMPDEST PUSH1 0x40 MLOAD PUSH3 0x461BCD PUSH1 0xE5 SHL DUP2 MSTORE PUSH1 0x4 DUP2 ADD DUP6 SWAP1 MSTORE PUSH1 0x28 DUP2 DUP10 ADD MSTORE PUSH32 0x43616E206F6E6C792073686F72746C6973742066726F6D205375626D69747465 PUSH1 0x44 DUP3 ADD MSTORE PUSH8 0x6420737461747573 PUSH1 0xC0 SHL PUSH1 0x64 DUP3 ADD MSTORE PUSH1 0x84 SWAP1 REVERT JUMPDEST DUP8 PUSH4 0x4E487B71 PUSH1 0xE0 SHL PUSH1 0x0 MSTORE PUSH1 0x21 PUSH1 0x4 MSTORE PUSH1 0x0 REVERT JUMPDEST PUSH1 0x2 DUP8 SUB PUSH2 0x14B8 JUMPI POP POP PUSH1 0xFF PUSH1 0x5 DUP4 ADD SLOAD AND SWAP1 PUSH1 0x4 DUP3 LT ISZERO PUSH2 0x13F0 JUMPI DUP2 ISZERO SWAP2 DUP3 ISZERO PUSH2 0x14AE JUMPI JUMPDEST POP POP ISZERO PUSH2 0x145C JUMPI PUSH1 0x0 DUP1 MLOAD PUSH1 0x20 PUSH2 0x2607 DUP4 CODECOPY DUP2 MLOAD SWAP2 MSTORE SWAP6 POP DUP4 SWAP3 PUSH2 0x2B2 SWAP3 PUSH2 0x1306 PUSH2 0x131A SWAP8 SWAP7 PUSH1 0x5 PUSH2 0x1327 SWAP6 PUSH2 0x1300 JUMP JUMPDEST PUSH1 0x40 MLOAD PUSH3 0x461BCD PUSH1 0xE5 SHL DUP2 MSTORE PUSH1 0x4 DUP2 ADD DUP5 SWAP1 MSTORE PUSH1 0x25 DUP2 DUP9 ADD MSTORE PUSH32 0x496E76616C696420737461747573207472616E736974696F6E20746F2052656A PUSH1 0x44 DUP3 ADD MSTORE PUSH5 0x1958DD1959 PUSH1 0xDA SHL PUSH1 0x64 DUP3 ADD MSTORE PUSH1 0x84 SWAP1 REVERT JUMPDEST EQ SWAP1 POP DUP8 DUP1 PUSH2 0x142B JUMP JUMPDEST SWAP1 SWAP2 PUSH1 0x3 DUP8 EQ PUSH2 0x14F0 JUMPI JUMPDEST POP POP POP PUSH1 0x0 DUP1 MLOAD PUSH1 0x20 PUSH2 0x2607 DUP4 CODECOPY DUP2 MLOAD SWAP2 MSTORE SWAP6 POP DUP4 SWAP3 PUSH2 0x2B2 SWAP3 PUSH2 0x1306 PUSH2 0x131A SWAP8 SWAP7 PUSH1 0x5 PUSH2 0x1327 SWAP6 PUSH2 0x1300 JUMP JUMPDEST PUSH1 0xFF PUSH1 0x5 DUP6 ADD SLOAD AND PUSH1 0x4 DUP2 LT ISZERO PUSH2 0x164A JUMPI SUB PUSH2 0x15F7 JUMPI PUSH1 0xFF DUP2 PUSH1 0xA0 SHR AND PUSH1 0x5 DUP2 LT ISZERO PUSH2 0x15E2 JUMPI PUSH1 0x2 SUB PUSH2 0x1592 JUMPI PUSH1 0x0 DUP1 MLOAD PUSH1 0x20 PUSH2 0x2607 DUP4 CODECOPY DUP2 MLOAD SWAP2 MSTORE SWAP8 POP SWAP3 PUSH2 0x1306 DUP7 PUSH1 0x5 PUSH2 0x1327 SWAP6 PUSH2 0x131A SWAP11 SWAP10 SWAP9 SWAP6 PUSH2 0x2B2 SWAP9 PUSH1 0x3 PUSH1 0xA0 SHL SWAP1 PUSH1 0xFF PUSH1 0xA0 SHL NOT AND OR SWAP1 SSTORE PUSH1 0x0 DUP1 MLOAD PUSH1 0x20 PUSH2 0x2627 DUP4 CODECOPY DUP2 MLOAD SWAP2 MSTORE PUSH1 0x40 MLOAD PUSH1 0x40 DUP2 MSTORE DUP1 PUSH2 0x1578 PUSH1 0x40 DUP3 ADD DUP10 PUSH2 0x251B JUMP JUMPDEST PUSH1 0x3 DUP11 DUP4 ADD MSTORE SUB SWAP1 LOG1 SWAP6 POP POP POP DUP3 SWAP6 SWAP7 SWAP8 POP DUP2 SWAP5 POP PUSH2 0x14C3 JUMP JUMPDEST PUSH1 0x40 MLOAD PUSH3 0x461BCD PUSH1 0xE5 SHL DUP2 MSTORE PUSH1 0x4 DUP2 ADD DUP7 SWAP1 MSTORE PUSH1 0x23 DUP2 DUP11 ADD MSTORE PUSH32 0x54656E646572206D75737420626520636C6F73656420746F2061776172642062 PUSH1 0x44 DUP3 ADD MSTORE PUSH3 0x696473 PUSH1 0xE8 SHL PUSH1 0x64 DUP3 ADD MSTORE PUSH1 0x84 SWAP1 REVERT JUMPDEST DUP9 PUSH4 0x4E487B71 PUSH1 0xE0 SHL PUSH1 0x0 MSTORE PUSH1 0x21 PUSH1 0x4 MSTORE PUSH1 0x0 REVERT JUMPDEST PUSH1 0x40 MLOAD PUSH3 0x461BCD PUSH1 0xE5 SHL DUP2 MSTORE PUSH1 0x4 DUP2 ADD DUP7 SWAP1 MSTORE PUSH1 0x26 DUP2 DUP11 ADD MSTORE PUSH32 0x43616E206F6E6C792061776172642066726F6D2053686F72746C697374656420 PUSH1 0x44 DUP3 ADD MSTORE PUSH6 0x737461747573 PUSH1 0xD0 SHL PUSH1 0x64 DUP3 ADD MSTORE PUSH1 0x84 SWAP1 REVERT JUMPDEST DUP10 PUSH4 0x4E487B71 PUSH1 0xE0 SHL PUSH1 0x0 MSTORE PUSH1 0x21 PUSH1 0x4 MSTORE PUSH1 0x0 REVERT JUMPDEST PUSH1 0x40 MLOAD PUSH3 0x461BCD PUSH1 0xE5 SHL DUP2 MSTORE PUSH1 0x4 DUP2 ADD DUP8 SWAP1 MSTORE PUSH1 0x36 DUP2 DUP12 ADD MSTORE PUSH32 0x4F6E6C79207468652074656E6465722063726561746F72206F722061646D696E PUSH1 0x44 DUP3 ADD MSTORE PUSH22 0x2063616E206368616E67652062696420737461747573 PUSH1 0x50 SHL PUSH1 0x64 DUP3 ADD MSTORE PUSH1 0x84 SWAP1 REVERT JUMPDEST SWAP1 POP DUP11 PUSH2 0x129E JUMP JUMPDEST SWAP1 SWAP2 SWAP3 POP DUP8 PUSH1 0x0 MSTORE DUP2 PUSH1 0x0 KECCAK256 DUP7 PUSH1 0x0 SWAP2 JUMPDEST DUP4 DUP4 LT PUSH2 0x16EF JUMPI POP POP POP DUP3 ADD SWAP2 SWAP1 DUP2 PUSH2 0x1280 JUMP JUMPDEST DUP1 SLOAD DUP4 DUP8 ADD MSTORE DUP12 SWAP5 SWAP1 SWAP3 ADD SWAP2 DUP9 SWAP2 ADD PUSH2 0x16DB JUMP JUMPDEST PUSH1 0xFF NOT AND DUP5 MSTORE POP DUP1 ISZERO ISZERO MUL DUP3 ADD SWAP3 POP DUP2 PUSH2 0x1280 JUMP JUMPDEST CALLVALUE PUSH2 0x42E JUMPI PUSH1 0x20 CALLDATASIZE PUSH1 0x3 NOT ADD SLT PUSH2 0x42E JUMPI PUSH1 0x4 CALLDATALOAD PUSH1 0x2 SLOAD DUP2 LT ISZERO PUSH2 0x42E JUMPI PUSH2 0xB33 PUSH2 0x55F SWAP2 PUSH1 0x2 PUSH1 0x0 MSTORE PUSH32 0x405787FA12A823E0F2B7631CC41B3BA8828B3321CA811111FA75CD3AA3BB5ACE ADD PUSH2 0x1E9B JUMP JUMPDEST CALLVALUE PUSH2 0x42E JUMPI PUSH1 0x80 CALLDATASIZE PUSH1 0x3 NOT ADD SLT PUSH2 0x42E JUMPI PUSH1 0x1 PUSH1 0x1 PUSH1 0x40 SHL SUB PUSH1 0x4 CALLDATALOAD DUP2 DUP2 GT PUSH2 0x42E JUMPI PUSH2 0x179A SWAP1 CALLDATASIZE SWAP1 PUSH1 0x4 ADD PUSH2 0x1DD0 JUMP JUMPDEST SWAP1 PUSH1 0x24 DUP1 CALLDATALOAD DUP3 DUP2 GT PUSH2 0x42E JUMPI PUSH2 0x17B4 SWAP1 CALLDATASIZE SWAP1 PUSH1 0x4 ADD PUSH2 0x1DD0 JUMP JUMPDEST PUSH1 0x44 CALLDATALOAD SWAP3 PUSH1 0x64 CALLDATALOAD SWAP1 DUP2 GT PUSH2 0x42E JUMPI PUSH2 0x17D0 SWAP1 CALLDATASIZE SWAP1 PUSH1 0x4 ADD PUSH2 0x2006 JUMP JUMPDEST PUSH1 0x40 MLOAD DUP3 MLOAD SWAP1 PUSH1 0x20 SWAP5 PUSH2 0x1805 PUSH1 0x7 DUP8 DUP8 ADD SWAP5 PUSH2 0x17ED DUP2 DUP7 DUP9 PUSH2 0x1E26 JUMP JUMPDEST DUP5 ADD SWAP4 DUP9 DUP2 PUSH1 0x1 SWAP7 DUP8 DUP2 MSTORE SUB ADD SWAP1 KECCAK256 ADD SLOAD ISZERO ISZERO PUSH2 0x247E JUMP JUMPDEST PUSH1 0x40 MLOAD SWAP4 PUSH1 0x4 DUP10 MLOAD SWAP6 DUP9 DUP2 DUP2 DUP14 ADD SWAP9 PUSH2 0x181F DUP2 DUP4 DUP13 PUSH2 0x1E26 JUMP JUMPDEST DUP2 ADD PUSH1 0x3 DUP2 MSTORE SUB ADD SWAP1 KECCAK256 ADD SLOAD PUSH2 0x1BA6 JUMPI PUSH1 0x40 MLOAD DUP8 DUP2 DUP9 MLOAD PUSH2 0x1841 DUP2 DUP4 DUP11 PUSH2 0x1E26 JUMP JUMPDEST DUP2 ADD DUP7 DUP2 MSTORE SUB ADD SWAP1 KECCAK256 SWAP5 PUSH1 0xFF PUSH1 0x6 DUP8 ADD SLOAD PUSH1 0xA0 SHR AND SWAP6 PUSH1 0x5 SWAP7 DUP8 DUP2 LT ISZERO PUSH2 0x1B91 JUMPI DUP6 SUB PUSH2 0x1B4D JUMPI PUSH1 0x4 DUP2 ADD SLOAD TIMESTAMP LT PUSH2 0x1AFE JUMPI DUP7 ADD SLOAD TIMESTAMP GT PUSH2 0x1ABA JUMPI DUP10 PUSH1 0x40 MLOAD SWAP2 PUSH2 0x188A DUP4 PUSH2 0x1D78 JUMP JUMPDEST DUP2 DUP4 MSTORE DUP11 DUP11 PUSH2 0x18F1 DUP2 DUP7 ADD DUP13 DUP2 MSTORE PUSH2 0x18E8 PUSH2 0x18D6 PUSH1 0x40 DUP10 ADD SWAP5 CALLER DUP7 MSTORE PUSH1 0x60 DUP11 ADD SWAP7 DUP8 MSTORE PUSH1 0x80 DUP11 ADD SWAP8 TIMESTAMP DUP10 MSTORE PUSH1 0xA0 DUP12 ADD SWAP10 PUSH1 0x0 DUP12 MSTORE PUSH1 0xC0 DUP13 ADD SWAP13 DUP14 MSTORE PUSH1 0x40 MLOAD SWAP4 DUP5 SWAP3 DUP4 SWAP3 MLOAD SWAP3 DUP4 SWAP2 PUSH2 0x1E26 JUMP JUMPDEST DUP2 ADD PUSH1 0x3 DUP2 MSTORE SUB ADD SWAP1 KECCAK256 SWAP8 MLOAD DUP9 PUSH2 0x2329 JUMP JUMPDEST MLOAD DUP10 DUP8 ADD PUSH2 0x2329 JUMP JUMPDEST PUSH1 0x2 DUP6 ADD SWAP1 PUSH1 0x1 DUP1 PUSH1 0xA0 SHL SUB SWAP1 MLOAD AND PUSH12 0xFFFFFFFFFFFFFFFFFFFFFFFF PUSH1 0xA0 SHL DUP3 SLOAD AND OR SWAP1 SSTORE MLOAD PUSH1 0x3 DUP5 ADD SSTORE MLOAD PUSH1 0x4 DUP4 ADD SSTORE MLOAD PUSH1 0x4 DUP2 LT ISZERO PUSH2 0x75C JUMPI SWAP1 PUSH2 0x193B PUSH1 0x6 SWAP3 DUP9 DUP4 ADD PUSH2 0x24C2 JUMP JUMPDEST ADD SWAP1 MLOAD DUP1 MLOAD SWAP3 PUSH1 0x1 PUSH1 0x40 SHL DUP5 GT PUSH2 0x1AA6 JUMPI POP DUP8 SWAP1 DUP3 SLOAD DUP5 DUP5 SSTORE DUP1 DUP6 LT PUSH2 0x1A28 JUMPI JUMPDEST POP ADD SWAP1 PUSH1 0x0 MSTORE DUP7 PUSH1 0x0 KECCAK256 PUSH1 0x0 SWAP2 JUMPDEST DUP4 DUP4 LT PUSH2 0x1A0D JUMPI PUSH32 0x589214396AEFE501BDB858BB39086111764F18B0CA160C140F42DD4A0009AC91 PUSH2 0x19EF DUP13 DUP13 PUSH2 0x19FC DUP14 DUP14 DUP14 PUSH2 0x19C7 DUP7 DUP16 DUP6 PUSH2 0x19B8 SWAP2 PUSH1 0x40 MLOAD DUP1 SWAP4 DUP2 SWAP3 DUP10 MLOAD SWAP3 DUP4 SWAP2 PUSH2 0x1E26 JUMP JUMPDEST DUP2 ADD PUSH1 0x4 DUP2 MSTORE SUB ADD SWAP1 KECCAK256 PUSH2 0x2451 JUMP JUMPDEST CALLER PUSH1 0x0 MSTORE DUP3 MSTORE PUSH2 0x19DB DUP6 PUSH1 0x40 PUSH1 0x0 KECCAK256 PUSH2 0x2451 JUMP JUMPDEST PUSH1 0x40 MLOAD SWAP6 DUP7 SWAP6 PUSH1 0x80 DUP8 MSTORE PUSH1 0x80 DUP8 ADD SWAP1 PUSH2 0x1F68 JUMP JUMPDEST SWAP2 DUP6 DUP4 SUB SWAP1 DUP7 ADD MSTORE PUSH2 0x1F68 JUMP JUMPDEST SWAP1 CALLER PUSH1 0x40 DUP5 ADD MSTORE PUSH1 0x60 DUP4 ADD MSTORE SUB SWAP1 LOG1 STOP JUMPDEST DUP5 DUP10 DUP3 PUSH2 0x1A1C DUP4 SWAP5 MLOAD DUP7 PUSH2 0x2329 JUMP JUMPDEST ADD SWAP3 ADD SWAP3 ADD SWAP2 SWAP1 PUSH2 0x196A JUMP JUMPDEST DUP4 PUSH1 0x0 MSTORE DUP6 DUP6 DUP5 PUSH1 0x0 KECCAK256 SWAP3 DUP4 ADD SWAP3 ADD JUMPDEST DUP3 DUP2 LT PUSH2 0x1A46 JUMPI POP POP PUSH2 0x195C JUMP JUMPDEST SWAP1 SWAP2 SWAP3 SWAP4 POP PUSH2 0x1A55 DUP2 SLOAD PUSH2 0x1E61 JUMP JUMPDEST DUP1 PUSH2 0x1A67 JUMPI JUMPDEST POP ADD SWAP1 DUP6 DUP11 SWAP4 SWAP3 PUSH2 0x1A38 JUMP JUMPDEST PUSH1 0x1F SWAP1 DUP13 DUP3 DUP3 GT PUSH1 0x1 EQ PUSH2 0x1A83 JUMPI POP POP POP PUSH1 0x0 DUP2 SSTORE JUMPDEST DUP14 PUSH2 0x1A5B JUMP JUMPDEST PUSH1 0x0 SWAP3 PUSH2 0x1A9D SWAP2 DUP6 DUP6 MSTORE DUP5 KECCAK256 SWAP3 ADD DUP13 SHR DUP3 ADD DUP6 DUP4 ADD PUSH2 0x2312 JUMP JUMPDEST DUP2 DUP4 SSTORE SSTORE PUSH2 0x1A7D JUMP JUMPDEST PUSH4 0x4E487B71 PUSH1 0xE0 SHL PUSH1 0x0 SWAP1 DUP2 MSTORE PUSH1 0x41 PUSH1 0x4 MSTORE REVERT JUMPDEST PUSH1 0x40 MLOAD PUSH3 0x461BCD PUSH1 0xE5 SHL DUP2 MSTORE PUSH1 0x4 DUP2 ADD DUP10 SWAP1 MSTORE PUSH1 0x18 DUP2 DUP6 ADD MSTORE PUSH32 0x54656E6465722062696464696E672068617320656E6465640000000000000000 PUSH1 0x44 DUP3 ADD MSTORE PUSH1 0x64 SWAP1 REVERT JUMPDEST PUSH1 0x40 MLOAD PUSH3 0x461BCD PUSH1 0xE5 SHL DUP2 MSTORE PUSH1 0x4 DUP2 ADD DUP11 SWAP1 MSTORE PUSH1 0x22 DUP2 DUP7 ADD MSTORE PUSH32 0x54656E6465722062696464696E6720686173206E6F7420737461727465642079 PUSH1 0x44 DUP3 ADD MSTORE PUSH2 0x195D PUSH1 0xF2 SHL PUSH1 0x64 DUP3 ADD MSTORE PUSH1 0x84 SWAP1 REVERT JUMPDEST PUSH1 0x40 MLOAD PUSH3 0x461BCD PUSH1 0xE5 SHL DUP2 MSTORE PUSH1 0x4 DUP2 ADD DUP11 SWAP1 MSTORE PUSH1 0x1E DUP2 DUP7 ADD MSTORE PUSH32 0x54656E646572206973206E6F74206F70656E20666F722062696464696E670000 PUSH1 0x44 DUP3 ADD MSTORE PUSH1 0x64 SWAP1 REVERT JUMPDEST DUP5 PUSH4 0x4E487B71 PUSH1 0xE0 SHL PUSH1 0x0 MSTORE PUSH1 0x21 PUSH1 0x4 MSTORE PUSH1 0x0 REVERT JUMPDEST PUSH1 0x40 MLOAD PUSH3 0x461BCD PUSH1 0xE5 SHL DUP2 MSTORE PUSH1 0x4 DUP2 ADD DUP9 SWAP1 MSTORE PUSH1 0x15 DUP2 DUP5 ADD MSTORE PUSH21 0x42696420494420616C726561647920657869737473 PUSH1 0x58 SHL PUSH1 0x44 DUP3 ADD MSTORE PUSH1 0x64 SWAP1 REVERT JUMPDEST CALLVALUE PUSH2 0x42E JUMPI PUSH1 0x20 CALLDATASIZE PUSH1 0x3 NOT ADD SLT PUSH2 0x42E JUMPI PUSH1 0x4 CALLDATALOAD PUSH1 0x1 PUSH1 0x1 PUSH1 0x40 SHL SUB DUP2 GT PUSH2 0x42E JUMPI PUSH2 0xBB1 PUSH2 0x1C1D PUSH1 0x20 PUSH2 0xB84 PUSH2 0x55F SWAP5 CALLDATASIZE SWAP1 PUSH1 0x4 ADD PUSH2 0x1DD0 JUMP JUMPDEST DUP2 ADD PUSH1 0x4 DUP2 MSTORE SUB ADD SWAP1 KECCAK256 PUSH2 0x25B1 JUMP JUMPDEST CALLVALUE PUSH2 0x42E JUMPI PUSH1 0x0 CALLDATASIZE PUSH1 0x3 NOT ADD SLT PUSH2 0x42E JUMPI PUSH1 0x2 SLOAD PUSH2 0x1C49 DUP2 PUSH2 0x1FEF JUMP JUMPDEST PUSH2 0x1C56 PUSH1 0x40 MLOAD SWAP2 DUP3 PUSH2 0x1DAF JUMP JUMPDEST DUP2 DUP2 MSTORE PUSH1 0x20 SWAP2 DUP3 DUP3 ADD PUSH1 0x2 PUSH1 0x0 MSTORE PUSH32 0x405787FA12A823E0F2B7631CC41B3BA8828B3321CA811111FA75CD3AA3BB5ACE SWAP4 PUSH1 0x0 SWAP2 JUMPDEST DUP4 DUP4 LT PUSH2 0x1C9F JUMPI PUSH1 0x40 MLOAD DUP1 PUSH2 0x55F DUP8 DUP3 PUSH2 0x1F8D JUMP JUMPDEST PUSH1 0x1 DUP3 DUP2 SWAP3 PUSH2 0x1CAD DUP10 PUSH2 0x1E9B JUMP JUMPDEST DUP2 MSTORE ADD SWAP7 ADD SWAP3 ADD SWAP2 SWAP5 PUSH2 0x1C8A JUMP JUMPDEST CALLVALUE PUSH2 0x42E JUMPI PUSH1 0x20 CALLDATASIZE PUSH1 0x3 NOT ADD SLT PUSH2 0x42E JUMPI PUSH1 0x4 CALLDATALOAD PUSH1 0x1 PUSH1 0x1 PUSH1 0x40 SHL SUB DUP2 GT PUSH2 0x42E JUMPI PUSH2 0xBB1 PUSH1 0x6 PUSH2 0x1CF8 PUSH1 0x20 PUSH2 0x468 PUSH2 0x55F SWAP6 CALLDATASIZE SWAP1 PUSH1 0x4 ADD PUSH2 0x1DD0 JUMP JUMPDEST DUP2 ADD PUSH1 0x3 DUP2 MSTORE SUB ADD SWAP1 KECCAK256 ADD PUSH2 0x25B1 JUMP JUMPDEST CALLVALUE PUSH2 0x42E JUMPI PUSH1 0x40 CALLDATASIZE PUSH1 0x3 NOT ADD SLT PUSH2 0x42E JUMPI PUSH1 0x4 CALLDATALOAD PUSH1 0x1 PUSH1 0x1 PUSH1 0x40 SHL SUB DUP2 GT PUSH2 0x42E JUMPI PUSH2 0x1D38 SWAP1 CALLDATASIZE SWAP1 PUSH1 0x4 ADD PUSH2 0x1DD0 JUMP JUMPDEST PUSH2 0x1D54 PUSH1 0x20 PUSH1 0x24 CALLDATALOAD SWAP3 DUP2 PUSH1 0x40 MLOAD SWAP4 DUP3 DUP6 DUP1 SWAP5 MLOAD SWAP4 DUP5 SWAP3 ADD PUSH2 0x1E26 JUMP JUMPDEST DUP2 ADD PUSH1 0x4 DUP2 MSTORE SUB ADD SWAP1 KECCAK256 SWAP1 DUP2 SLOAD DUP2 LT ISZERO PUSH2 0x42E JUMPI PUSH2 0xB2D PUSH2 0xB33 SWAP2 PUSH2 0x55F SWAP4 PUSH2 0x1E49 JUMP JUMPDEST PUSH1 0xE0 DUP2 ADD SWAP1 DUP2 LT PUSH1 0x1 PUSH1 0x1 PUSH1 0x40 SHL SUB DUP3 GT OR PUSH2 0x348 JUMPI PUSH1 0x40 MSTORE JUMP JUMPDEST PUSH2 0x1A0 DUP2 ADD SWAP1 DUP2 LT PUSH1 0x1 PUSH1 0x1 PUSH1 0x40 SHL SUB DUP3 GT OR PUSH2 0x348 JUMPI PUSH1 0x40 MSTORE JUMP JUMPDEST SWAP1 PUSH1 0x1F DUP1 NOT SWAP2 ADD AND DUP2 ADD SWAP1 DUP2 LT PUSH1 0x1 PUSH1 0x1 PUSH1 0x40 SHL SUB DUP3 GT OR PUSH2 0x348 JUMPI PUSH1 0x40 MSTORE JUMP JUMPDEST DUP2 PUSH1 0x1F DUP3 ADD SLT ISZERO PUSH2 0x42E JUMPI DUP1 CALLDATALOAD SWAP1 PUSH1 0x1 PUSH1 0x1 PUSH1 0x40 SHL SUB DUP3 GT PUSH2 0x348 JUMPI PUSH1 0x40 MLOAD SWAP3 PUSH2 0x1E04 PUSH1 0x1F DUP5 ADD PUSH1 0x1F NOT AND PUSH1 0x20 ADD DUP6 PUSH2 0x1DAF JUMP JUMPDEST DUP3 DUP5 MSTORE PUSH1 0x20 DUP4 DUP4 ADD ADD GT PUSH2 0x42E JUMPI DUP2 PUSH1 0x0 SWAP3 PUSH1 0x20 DUP1 SWAP4 ADD DUP4 DUP7 ADD CALLDATACOPY DUP4 ADD ADD MSTORE SWAP1 JUMP JUMPDEST PUSH1 0x0 JUMPDEST DUP4 DUP2 LT PUSH2 0x1E39 JUMPI POP POP PUSH1 0x0 SWAP2 ADD MSTORE JUMP JUMPDEST DUP2 DUP2 ADD MLOAD DUP4 DUP3 ADD MSTORE PUSH1 0x20 ADD PUSH2 0x1E29 JUMP JUMPDEST DUP1 SLOAD DUP3 LT ISZERO PUSH2 0xE48 JUMPI PUSH1 0x0 MSTORE PUSH1 0x20 PUSH1 0x0 KECCAK256 ADD SWAP1 PUSH1 0x0 SWAP1 JUMP JUMPDEST SWAP1 PUSH1 0x1 DUP3 DUP2 SHR SWAP3 AND DUP1 ISZERO PUSH2 0x1E91 JUMPI JUMPDEST PUSH1 0x20 DUP4 LT EQ PUSH2 0x1E7B JUMPI JUMP JUMPDEST PUSH4 0x4E487B71 PUSH1 0xE0 SHL PUSH1 0x0 MSTORE PUSH1 0x22 PUSH1 0x4 MSTORE PUSH1 0x24 PUSH1 0x0 REVERT JUMPDEST SWAP2 PUSH1 0x7F AND SWAP2 PUSH2 0x1E70 JUMP JUMPDEST SWAP1 PUSH1 0x40 MLOAD SWAP2 DUP3 PUSH1 0x0 DUP3 SLOAD SWAP3 PUSH2 0x1EAF DUP5 PUSH2 0x1E61 JUMP JUMPDEST SWAP1 DUP2 DUP5 MSTORE PUSH1 0x1 SWAP5 DUP6 DUP2 AND SWAP1 DUP2 PUSH1 0x0 EQ PUSH2 0x1F1E JUMPI POP PUSH1 0x1 EQ PUSH2 0x1EDB JUMPI JUMPDEST POP POP PUSH2 0x1ED9 SWAP3 POP SUB DUP4 PUSH2 0x1DAF JUMP JUMPDEST JUMP JUMPDEST SWAP1 SWAP4 SWAP2 POP PUSH1 0x0 MSTORE PUSH1 0x20 SWAP1 DUP2 PUSH1 0x0 KECCAK256 SWAP4 PUSH1 0x0 SWAP2 JUMPDEST DUP2 DUP4 LT PUSH2 0x1F06 JUMPI POP POP PUSH2 0x1ED9 SWAP4 POP DUP3 ADD ADD CODESIZE DUP1 PUSH2 0x1ECB JUMP JUMPDEST DUP6 SLOAD DUP9 DUP5 ADD DUP6 ADD MSTORE SWAP5 DUP6 ADD SWAP5 DUP8 SWAP5 POP SWAP2 DUP4 ADD SWAP2 PUSH2 0x1EEE JUMP JUMPDEST SWAP2 POP POP PUSH2 0x1ED9 SWAP5 POP PUSH1 0x20 SWAP3 POP PUSH1 0xFF NOT AND DUP3 DUP5 ADD MSTORE ISZERO ISZERO PUSH1 0x5 SHL DUP3 ADD ADD CODESIZE DUP1 PUSH2 0x1ECB JUMP JUMPDEST SWAP1 PUSH2 0x1F52 JUMPI PUSH2 0x1F4F SWAP1 PUSH2 0x1E9B JUMP JUMPDEST SWAP1 JUMP JUMPDEST PUSH4 0x4E487B71 PUSH1 0xE0 SHL PUSH1 0x0 MSTORE PUSH1 0x0 PUSH1 0x4 MSTORE PUSH1 0x24 PUSH1 0x0 REVERT JUMPDEST SWAP1 PUSH1 0x20 SWAP2 PUSH2 0x1F81 DUP2 MLOAD DUP1 SWAP3 DUP2 DUP6 MSTORE DUP6 DUP1 DUP7 ADD SWAP2 ADD PUSH2 0x1E26 JUMP JUMPDEST PUSH1 0x1F ADD PUSH1 0x1F NOT AND ADD ADD SWAP1 JUMP JUMPDEST PUSH1 0x20 DUP1 DUP3 ADD SWAP1 DUP1 DUP4 MSTORE DUP4 MLOAD DUP1 SWAP3 MSTORE PUSH1 0x40 DUP4 ADD SWAP3 DUP2 PUSH1 0x40 DUP5 PUSH1 0x5 SHL DUP4 ADD ADD SWAP6 ADD SWAP4 PUSH1 0x0 SWAP2 JUMPDEST DUP5 DUP4 LT PUSH2 0x1FC1 JUMPI POP POP POP POP POP POP SWAP1 JUMP JUMPDEST SWAP1 SWAP2 SWAP3 SWAP4 SWAP5 SWAP6 DUP5 DUP1 PUSH2 0x1FDF PUSH1 0x1 SWAP4 PUSH1 0x3F NOT DUP7 DUP3 SUB ADD DUP8 MSTORE DUP11 MLOAD PUSH2 0x1F68 JUMP JUMPDEST SWAP9 ADD SWAP4 ADD SWAP4 ADD SWAP2 SWAP5 SWAP4 SWAP3 SWAP1 PUSH2 0x1FB1 JUMP JUMPDEST PUSH1 0x1 PUSH1 0x1 PUSH1 0x40 SHL SUB DUP2 GT PUSH2 0x348 JUMPI PUSH1 0x5 SHL PUSH1 0x20 ADD SWAP1 JUMP JUMPDEST SWAP1 DUP1 PUSH1 0x1F DUP4 ADD SLT ISZERO PUSH2 0x42E JUMPI DUP2 CALLDATALOAD SWAP1 PUSH2 0x201E DUP3 PUSH2 0x1FEF JUMP JUMPDEST SWAP3 PUSH2 0x202C PUSH1 0x40 MLOAD SWAP5 DUP6 PUSH2 0x1DAF JUMP JUMPDEST DUP3 DUP5 MSTORE PUSH1 0x20 SWAP3 DUP4 DUP1 DUP7 ADD SWAP2 PUSH1 0x5 SHL DUP4 ADD ADD SWAP3 DUP1 DUP5 GT PUSH2 0x42E JUMPI DUP5 DUP4 ADD SWAP2 JUMPDEST DUP5 DUP4 LT PUSH2 0x205A JUMPI POP POP POP POP POP POP SWAP1 JUMP JUMPDEST DUP3 CALLDATALOAD PUSH1 0x1 PUSH1 0x1 PUSH1 0x40 SHL SUB DUP2 GT PUSH2 0x42E JUMPI DUP7 SWAP2 PUSH2 0x207B DUP5 DUP5 DUP1 SWAP5 DUP10 ADD ADD PUSH2 0x1DD0 JUMP JUMPDEST DUP2 MSTORE ADD SWAP3 ADD SWAP2 PUSH2 0x204A JUMP JUMPDEST SWAP1 PUSH1 0x5 DUP3 LT ISZERO PUSH2 0x3B3 JUMPI MSTORE JUMP JUMPDEST SWAP11 SWAP8 SWAP2 SWAP6 PUSH2 0x1F4F SWAP13 SWAP11 SWAP6 PUSH2 0x212D SWAP11 SWAP6 PUSH1 0x60 PUSH2 0x20E5 DUP16 SWAP11 SWAP8 PUSH2 0x20D7 DUP13 PUSH2 0x210A SWAP11 PUSH2 0x211E SWAP16 SWAP10 PUSH2 0x20C9 SWAP1 PUSH2 0x180 DUP1 DUP6 MSTORE DUP5 ADD SWAP1 PUSH2 0x1F68 JUMP JUMPDEST SWAP2 PUSH1 0x20 DUP2 DUP5 SUB SWAP2 ADD MSTORE PUSH2 0x1F68 JUMP JUMPDEST DUP13 DUP2 SUB PUSH1 0x40 DUP15 ADD MSTORE SWAP1 PUSH2 0x1F68 JUMP JUMPDEST SWAP10 ADD MSTORE PUSH1 0x80 DUP14 ADD MSTORE PUSH1 0xA0 DUP13 ADD MSTORE PUSH1 0x1 PUSH1 0x1 PUSH1 0xA0 SHL SUB AND PUSH1 0xC0 DUP12 ADD MSTORE PUSH1 0xE0 DUP11 ADD SWAP1 PUSH2 0x2086 JUMP JUMPDEST PUSH2 0x100 DUP9 ADD MSTORE DUP7 DUP3 SUB PUSH2 0x120 DUP9 ADD MSTORE PUSH2 0x1F68 JUMP JUMPDEST SWAP1 DUP5 DUP3 SUB PUSH2 0x140 DUP7 ADD MSTORE PUSH2 0x1F68 JUMP JUMPDEST SWAP2 PUSH2 0x160 DUP2 DUP5 SUB SWAP2 ADD MSTORE PUSH2 0x1F68 JUMP JUMPDEST PUSH1 0x4 CALLDATALOAD SWAP1 PUSH1 0x1 PUSH1 0x1 PUSH1 0xA0 SHL SUB DUP3 AND DUP3 SUB PUSH2 0x42E JUMPI JUMP JUMPDEST SWAP1 PUSH2 0x140 PUSH1 0x3 NOT DUP4 ADD SLT PUSH2 0x42E JUMPI PUSH1 0x4 DUP1 CALLDATALOAD SWAP3 PUSH1 0x1 PUSH1 0x1 PUSH1 0x40 SHL SUB SWAP4 DUP5 DUP2 GT PUSH2 0x42E JUMPI DUP2 PUSH2 0x2181 SWAP2 DUP5 ADD PUSH2 0x1DD0 JUMP JUMPDEST SWAP4 PUSH1 0x24 CALLDATALOAD DUP2 DUP2 GT PUSH2 0x42E JUMPI DUP3 PUSH2 0x2198 SWAP2 DUP6 ADD PUSH2 0x1DD0 JUMP JUMPDEST SWAP4 PUSH1 0x44 CALLDATALOAD DUP3 DUP2 GT PUSH2 0x42E JUMPI DUP4 PUSH2 0x21AF SWAP2 DUP7 ADD PUSH2 0x1DD0 JUMP JUMPDEST SWAP4 PUSH1 0x64 CALLDATALOAD SWAP4 PUSH1 0x84 CALLDATALOAD SWAP4 PUSH1 0xA4 CALLDATALOAD SWAP4 PUSH1 0xC4 CALLDATALOAD DUP3 DUP2 GT PUSH2 0x42E JUMPI DUP4 PUSH2 0x21D2 SWAP2 DUP7 ADD PUSH2 0x1DD0 JUMP JUMPDEST SWAP4 PUSH1 0xE4 CALLDATALOAD DUP4 DUP2 GT PUSH2 0x42E JUMPI DUP5 PUSH2 0x21E9 SWAP2 DUP4 ADD PUSH2 0x1DD0 JUMP JUMPDEST SWAP4 PUSH2 0x104 CALLDATALOAD DUP5 DUP2 GT PUSH2 0x42E JUMPI DUP2 PUSH2 0x2201 SWAP2 DUP5 ADD PUSH2 0x1DD0 JUMP JUMPDEST SWAP4 PUSH2 0x124 CALLDATALOAD SWAP1 DUP2 GT PUSH2 0x42E JUMPI PUSH2 0x1F4F SWAP3 ADD PUSH2 0x2006 JUMP JUMPDEST SWAP1 PUSH1 0x4 DUP3 LT ISZERO PUSH2 0x3B3 JUMPI MSTORE JUMP JUMPDEST SWAP2 SWAP4 PUSH2 0x2245 PUSH1 0xA0 SWAP5 SWAP9 SWAP8 SWAP6 PUSH2 0x299 PUSH2 0x1ED9 SWAP9 SWAP5 PUSH1 0xC0 DUP8 MSTORE PUSH1 0xC0 DUP8 ADD SWAP1 PUSH2 0x1F68 JUMP JUMPDEST SWAP8 PUSH1 0x1 DUP1 DUP7 SHL SUB AND PUSH1 0x40 DUP5 ADD MSTORE PUSH1 0x60 DUP4 ADD MSTORE PUSH1 0x80 DUP3 ADD MSTORE ADD SWAP1 PUSH2 0x2217 JUMP JUMPDEST ISZERO PUSH2 0x226A JUMPI JUMP JUMPDEST PUSH1 0x40 MLOAD PUSH3 0x461BCD PUSH1 0xE5 SHL DUP2 MSTORE PUSH1 0x20 PUSH1 0x4 DUP3 ADD MSTORE PUSH1 0x24 DUP1 DUP3 ADD MSTORE PUSH32 0x4F6E6C79206F666669636572732063616E2063616C6C20746869732066756E63 PUSH1 0x44 DUP3 ADD MSTORE PUSH4 0x3A34B7B7 PUSH1 0xE1 SHL PUSH1 0x64 DUP3 ADD MSTORE PUSH1 0x84 SWAP1 REVERT JUMPDEST ISZERO PUSH2 0x22C2 JUMPI JUMP JUMPDEST PUSH1 0x40 MLOAD PUSH3 0x461BCD PUSH1 0xE5 SHL DUP2 MSTORE PUSH1 0x20 PUSH1 0x4 DUP3 ADD MSTORE PUSH1 0x22 PUSH1 0x24 DUP3 ADD MSTORE PUSH32 0x53746172742064617465206D757374206265206265666F726520656E64206461 PUSH1 0x44 DUP3 ADD MSTORE PUSH2 0x7465 PUSH1 0xF0 SHL PUSH1 0x64 DUP3 ADD MSTORE PUSH1 0x84 SWAP1 REVERT JUMPDEST DUP2 DUP2 LT PUSH2 0x231D JUMPI POP POP JUMP JUMPDEST PUSH1 0x0 DUP2 SSTORE PUSH1 0x1 ADD PUSH2 0x2312 JUMP JUMPDEST SWAP2 SWAP1 SWAP2 DUP3 MLOAD PUSH1 0x1 PUSH1 0x1 PUSH1 0x40 SHL SUB DUP2 GT PUSH2 0x348 JUMPI PUSH2 0x2346 DUP3 SLOAD PUSH2 0x1E61 JUMP JUMPDEST PUSH1 0x1F DUP2 GT PUSH2 0x23F0 JUMPI JUMPDEST POP PUSH1 0x20 DUP1 PUSH1 0x1F DUP4 GT PUSH1 0x1 EQ PUSH2 0x238C JUMPI POP DUP2 SWAP3 SWAP4 SWAP5 PUSH1 0x0 SWAP3 PUSH2 0x2381 JUMPI JUMPDEST POP POP DUP2 PUSH1 0x1 SHL SWAP2 PUSH1 0x0 NOT SWAP1 PUSH1 0x3 SHL SHR NOT AND OR SWAP1 SSTORE JUMP JUMPDEST ADD MLOAD SWAP1 POP CODESIZE DUP1 PUSH2 0x236B JUMP JUMPDEST SWAP1 PUSH1 0x1F NOT DUP4 AND SWAP6 DUP5 PUSH1 0x0 MSTORE DUP3 PUSH1 0x0 KECCAK256 SWAP3 PUSH1 0x0 SWAP1 JUMPDEST DUP9 DUP3 LT PUSH2 0x23D8 JUMPI POP POP DUP4 PUSH1 0x1 SWAP6 SWAP7 SWAP8 LT PUSH2 0x23BF JUMPI JUMPDEST POP POP POP DUP2 SHL ADD SWAP1 SSTORE JUMP JUMPDEST ADD MLOAD PUSH1 0x0 NOT PUSH1 0xF8 DUP5 PUSH1 0x3 SHL AND SHR NOT AND SWAP1 SSTORE CODESIZE DUP1 DUP1 PUSH2 0x23B5 JUMP JUMPDEST DUP1 PUSH1 0x1 DUP6 SWAP7 DUP3 SWAP5 SWAP7 DUP7 ADD MLOAD DUP2 SSTORE ADD SWAP6 ADD SWAP4 ADD SWAP1 PUSH2 0x23A0 JUMP JUMPDEST PUSH2 0x241D SWAP1 DUP4 PUSH1 0x0 MSTORE PUSH1 0x20 PUSH1 0x0 KECCAK256 PUSH1 0x1F DUP5 ADD PUSH1 0x5 SHR DUP2 ADD SWAP2 PUSH1 0x20 DUP6 LT PUSH2 0x2423 JUMPI JUMPDEST PUSH1 0x1F ADD PUSH1 0x5 SHR ADD SWAP1 PUSH2 0x2312 JUMP JUMPDEST CODESIZE PUSH2 0x234F JUMP JUMPDEST SWAP1 SWAP2 POP DUP2 SWAP1 PUSH2 0x2410 JUMP JUMPDEST SWAP1 PUSH1 0x5 DUP2 LT ISZERO PUSH2 0x3B3 JUMPI DUP2 SLOAD PUSH1 0xFF PUSH1 0xA0 SHL NOT AND PUSH1 0xA0 SWAP2 SWAP1 SWAP2 SHL PUSH1 0xFF PUSH1 0xA0 SHL AND OR SWAP1 SSTORE JUMP JUMPDEST DUP1 SLOAD PUSH1 0x1 PUSH1 0x40 SHL DUP2 LT ISZERO PUSH2 0x348 JUMPI PUSH2 0x246E SWAP2 PUSH1 0x1 DUP3 ADD DUP2 SSTORE PUSH2 0x1E49 JUMP JUMPDEST SWAP2 SWAP1 SWAP2 PUSH2 0x1F52 JUMPI PUSH2 0x1ED9 SWAP2 PUSH2 0x2329 JUMP JUMPDEST ISZERO PUSH2 0x2485 JUMPI JUMP JUMPDEST PUSH1 0x40 MLOAD PUSH3 0x461BCD PUSH1 0xE5 SHL DUP2 MSTORE PUSH1 0x20 PUSH1 0x4 DUP3 ADD MSTORE PUSH1 0x15 PUSH1 0x24 DUP3 ADD MSTORE PUSH21 0x15195B99195C88191BD95CC81B9BDD08195E1A5CDD PUSH1 0x5A SHL PUSH1 0x44 DUP3 ADD MSTORE PUSH1 0x64 SWAP1 REVERT JUMPDEST SWAP1 PUSH1 0x4 DUP2 LT ISZERO PUSH2 0x3B3 JUMPI PUSH1 0xFF DUP1 NOT DUP4 SLOAD AND SWAP2 AND OR SWAP1 SSTORE JUMP JUMPDEST ISZERO PUSH2 0x24E1 JUMPI JUMP JUMPDEST PUSH1 0x40 MLOAD PUSH3 0x461BCD PUSH1 0xE5 SHL DUP2 MSTORE PUSH1 0x20 PUSH1 0x4 DUP3 ADD MSTORE PUSH1 0x12 PUSH1 0x24 DUP3 ADD MSTORE PUSH18 0x109A5908191BD95CC81B9BDD08195E1A5CDD PUSH1 0x72 SHL PUSH1 0x44 DUP3 ADD MSTORE PUSH1 0x64 SWAP1 REVERT JUMPDEST SWAP1 PUSH1 0x0 SWAP3 SWAP2 DUP1 SLOAD SWAP2 PUSH2 0x252C DUP4 PUSH2 0x1E61 JUMP JUMPDEST SWAP2 DUP3 DUP3 MSTORE PUSH1 0x1 SWAP4 DUP5 DUP2 AND SWAP1 DUP2 PUSH1 0x0 EQ PUSH2 0x258E JUMPI POP PUSH1 0x1 EQ PUSH2 0x254E JUMPI JUMPDEST POP POP POP POP JUMP JUMPDEST SWAP1 SWAP2 SWAP4 SWAP5 POP PUSH1 0x0 MSTORE PUSH1 0x20 SWAP3 DUP4 PUSH1 0x0 KECCAK256 SWAP3 DUP5 PUSH1 0x0 SWAP5 JUMPDEST DUP4 DUP7 LT PUSH2 0x257A JUMPI POP POP POP POP ADD ADD SWAP1 CODESIZE DUP1 DUP1 DUP1 PUSH2 0x2548 JUMP JUMPDEST DUP1 SLOAD DUP6 DUP8 ADD DUP4 ADD MSTORE SWAP5 ADD SWAP4 DUP6 SWAP1 DUP3 ADD PUSH2 0x2563 JUMP JUMPDEST SWAP3 SWAP5 POP POP POP PUSH1 0x20 SWAP4 SWAP5 POP PUSH1 0xFF NOT AND DUP4 DUP4 ADD MSTORE ISZERO ISZERO PUSH1 0x5 SHL ADD ADD SWAP1 CODESIZE DUP1 DUP1 DUP1 PUSH2 0x2548 JUMP JUMPDEST SWAP1 DUP2 SLOAD PUSH2 0x25BD DUP2 PUSH2 0x1FEF JUMP JUMPDEST SWAP3 PUSH2 0x25CB PUSH1 0x40 MLOAD SWAP5 DUP6 PUSH2 0x1DAF JUMP JUMPDEST DUP2 DUP5 MSTORE PUSH1 0x0 SWAP1 DUP2 MSTORE PUSH1 0x20 DUP1 DUP3 KECCAK256 DUP2 DUP7 ADD JUMPDEST DUP5 DUP5 LT PUSH2 0x25EA JUMPI POP POP POP POP POP JUMP JUMPDEST PUSH1 0x1 DUP4 DUP2 SWAP3 PUSH2 0x25F8 DUP6 PUSH2 0x1E9B JUMP JUMPDEST DUP2 MSTORE ADD SWAP3 ADD SWAP4 ADD SWAP3 SWAP1 PUSH2 0x25DC JUMP INVALID PUSH12 0x65C6D5F7B922B9E476D69513 PUSH8 0x5DE9E14194D8D07E CALLVALUE SWAP8 0xBD TIMESTAMP PUSH32 0xD695866177162FCE656CD34B1FD506C44EF9FD09E7939A5C94A678A14C605566 DUP13 0xDD DUP11 LOG3 DUP15 LOG2 PUSH5 0x6970667358 0x22 SLT KECCAK256 0x5D PUSH3 0x3BF3AF PUSH17 0xD0CF2CBDA92971D5CAC6749A1348153859 EXTCODEHASH MULMOD SWAP8 0xB6 PUSH13 0xBD216C5164736F6C6343000814 STOP CALLER "},"methodIdentifiers":{"admin()":"f851a440","bids(string)":"9e27af87","changeBidStatus(string,uint8)":"526f0300","changeTenderStatus(string,uint8)":"f7bf8b9e","createTender(string,string,string,uint256,uint256,uint256,string,string,string,string[])":"7ebd6019","getAllTenderIds()":"174f7692","getBid(string)":"f9853713","getBidDocuments(string)":"0f9fb388","getTender(string)":"62f058c8","getTenderBids(string)":"2d1faf7c","getTenderCount()":"5850b383","getTenderDocuments(string)":"83f668b7","getUserBids(address)":"6759789f","submitBid(string,string,uint256,string[])":"33f1f39d","tenderBids(string,uint256)":"01cc650c","tenderIds(uint256)":"39c776b6","tenders(string)":"997b737f","transferAdmin(address)":"75829def","updateTender(string,string,string,uint256,uint256,uint256,string,string,string,string[])":"fb0998e3","userBids(address,uint256)":"96ec50c3"}}}}}