{
  "_format": "hh-sol-artifact-1",
  "contractName": "BidManagement",
  "sourceName": "src/contracts/BidManagement.sol",
  "abi": [
    {
      "inputs": [
        {
          "internalType": "address",
          "name": "initialOwner",
          "type": "address"
        }
      ],
      "stateMutability": "nonpayable",
      "type": "constructor"
    },
    {
      "inputs": [
        {
          "internalType": "address",
          "name": "owner",
          "type": "address"
        }
      ],
      "name": "OwnableInvalidOwner",
      "type": "error"
    },
    {
      "inputs": [
        {
          "internalType": "address",
          "name": "account",
          "type": "address"
        }
      ],
      "name": "OwnableUnauthorizedAccount",
      "type": "error"
    },
    {
      "anonymous": false,
      "inputs": [
        {
          "indexed": true,
          "internalType": "uint256",
          "name": "tenderId",
          "type": "uint256"
        },
        {
          "indexed": true,
          "internalType": "uint256",
          "name": "bidIndex",
          "type": "uint256"
        },
        {
          "indexed": false,
          "internalType": "string",
          "name": "feedback",
          "type": "string"
        }
      ],
      "name": "BidFeedbackGiven",
      "type": "event"
    },
    {
      "anonymous": false,
      "inputs": [
        {
          "indexed": true,
          "internalType": "uint256",
          "name": "tenderId",
          "type": "uint256"
        },
        {
          "indexed": true,
          "internalType": "uint256",
          "name": "bidIndex",
          "type": "uint256"
        },
        {
          "indexed": false,
          "internalType": "string",
          "name": "modifications",
          "type": "string"
        }
      ],
      "name": "BidModificationRequested",
      "type": "event"
    },
    {
      "anonymous": false,
      "inputs": [
        {
          "indexed": true,
          "internalType": "uint256",
          "name": "tenderId",
          "type": "uint256"
        },
        {
          "indexed": true,
          "internalType": "uint256",
          "name": "bidIndex",
          "type": "uint256"
        },
        {
          "indexed": false,
          "internalType": "uint256",
          "name": "newAmount",
          "type": "uint256"
        },
        {
          "indexed": false,
          "internalType": "string",
          "name": "newDescription",
          "type": "string"
        }
      ],
      "name": "BidModified",
      "type": "event"
    },
    {
      "anonymous": false,
      "inputs": [
        {
          "indexed": true,
          "internalType": "uint256",
          "name": "tenderId",
          "type": "uint256"
        },
        {
          "indexed": true,
          "internalType": "uint256",
          "name": "bidIndex",
          "type": "uint256"
        },
        {
          "indexed": false,
          "internalType": "string",
          "name": "reason",
          "type": "string"
        }
      ],
      "name": "BidRejectedWithReason",
      "type": "event"
    },
    {
      "anonymous": false,
      "inputs": [
        {
          "indexed": true,
          "internalType": "uint256",
          "name": "tenderId",
          "type": "uint256"
        },
        {
          "indexed": true,
          "internalType": "uint256",
          "name": "bidIndex",
          "type": "uint256"
        },
        {
          "indexed": false,
          "internalType": "address",
          "name": "bidder",
          "type": "address"
        },
        {
          "indexed": false,
          "internalType": "uint256",
          "name": "amount",
          "type": "uint256"
        }
      ],
      "name": "BidSubmitted",
      "type": "event"
    },
    {
      "anonymous": false,
      "inputs": [
        {
          "indexed": true,
          "internalType": "address",
          "name": "previousOwner",
          "type": "address"
        },
        {
          "indexed": true,
          "internalType": "address",
          "name": "newOwner",
          "type": "address"
        }
      ],
      "name": "OwnershipTransferred",
      "type": "event"
    },
    {
      "inputs": [
        {
          "internalType": "uint256",
          "name": "",
          "type": "uint256"
        }
      ],
      "name": "bidCounts",
      "outputs": [
        {
          "internalType": "uint256",
          "name": "",
          "type": "uint256"
        }
      ],
      "stateMutability": "view",
      "type": "function"
    },
    {
      "inputs": [
        {
          "internalType": "uint256",
          "name": "",
          "type": "uint256"
        },
        {
          "internalType": "uint256",
          "name": "",
          "type": "uint256"
        }
      ],
      "name": "bids",
      "outputs": [
        {
          "internalType": "uint256",
          "name": "tenderId",
          "type": "uint256"
        },
        {
          "internalType": "address",
          "name": "bidderAddress",
          "type": "address"
        },
        {
          "internalType": "uint256",
          "name": "amount",
          "type": "uint256"
        },
        {
          "internalType": "string",
          "name": "description",
          "type": "string"
        },
        {
          "internalType": "uint256",
          "name": "submittedAt",
          "type": "uint256"
        },
        {
          "internalType": "enum BidManagement.BidStatus",
          "name": "status",
          "type": "uint8"
        },
        {
          "internalType": "string",
          "name": "feedback",
          "type": "string"
        },
        {
          "internalType": "string",
          "name": "modificationRequest",
          "type": "string"
        },
        {
          "internalType": "string",
          "name": "rejectionReason",
          "type": "string"
        }
      ],
      "stateMutability": "view",
      "type": "function"
    },
    {
      "inputs": [
        {
          "internalType": "uint256",
          "name": "_tenderId",
          "type": "uint256"
        },
        {
          "internalType": "uint256",
          "name": "_bidIndex",
          "type": "uint256"
        }
      ],
      "name": "getBid",
      "outputs": [
        {
          "components": [
            {
              "internalType": "uint256",
              "name": "tenderId",
              "type": "uint256"
            },
            {
              "internalType": "address",
              "name": "bidderAddress",
              "type": "address"
            },
            {
              "internalType": "uint256",
              "name": "amount",
              "type": "uint256"
            },
            {
              "internalType": "string",
              "name": "description",
              "type": "string"
            },
            {
              "internalType": "uint256",
              "name": "submittedAt",
              "type": "uint256"
            },
            {
              "internalType": "enum BidManagement.BidStatus",
              "name": "status",
              "type": "uint8"
            },
            {
              "internalType": "string",
              "name": "feedback",
              "type": "string"
            },
            {
              "internalType": "string",
              "name": "modificationRequest",
              "type": "string"
            },
            {
              "internalType": "string",
              "name": "rejectionReason",
              "type": "string"
            }
          ],
          "internalType": "struct BidManagement.Bid",
          "name": "",
          "type": "tuple"
        }
      ],
      "stateMutability": "view",
      "type": "function"
    },
    {
      "inputs": [
        {
          "internalType": "uint256",
          "name": "_tenderId",
          "type": "uint256"
        }
      ],
      "name": "getBidsForTender",
      "outputs": [
        {
          "components": [
            {
              "internalType": "uint256",
              "name": "tenderId",
              "type": "uint256"
            },
            {
              "internalType": "address",
              "name": "bidderAddress",
              "type": "address"
            },
            {
              "internalType": "uint256",
              "name": "amount",
              "type": "uint256"
            },
            {
              "internalType": "string",
              "name": "description",
              "type": "string"
            },
            {
              "internalType": "uint256",
              "name": "submittedAt",
              "type": "uint256"
            },
            {
              "internalType": "enum BidManagement.BidStatus",
              "name": "status",
              "type": "uint8"
            },
            {
              "internalType": "string",
              "name": "feedback",
              "type": "string"
            },
            {
              "internalType": "string",
              "name": "modificationRequest",
              "type": "string"
            },
            {
              "internalType": "string",
              "name": "rejectionReason",
              "type": "string"
            }
          ],
          "internalType": "struct BidManagement.Bid[]",
          "name": "",
          "type": "tuple[]"
        }
      ],
      "stateMutability": "view",
      "type": "function"
    },
    {
      "inputs": [
        {
          "internalType": "address",
          "name": "_user",
          "type": "address"
        }
      ],
      "name": "getBidsForUser",
      "outputs": [
        {
          "components": [
            {
              "internalType": "uint256",
              "name": "tenderId",
              "type": "uint256"
            },
            {
              "internalType": "address",
              "name": "bidderAddress",
              "type": "address"
            },
            {
              "internalType": "uint256",
              "name": "amount",
              "type": "uint256"
            },
            {
              "internalType": "string",
              "name": "description",
              "type": "string"
            },
            {
              "internalType": "uint256",
              "name": "submittedAt",
              "type": "uint256"
            },
            {
              "internalType": "enum BidManagement.BidStatus",
              "name": "status",
              "type": "uint8"
            },
            {
              "internalType": "string",
              "name": "feedback",
              "type": "string"
            },
            {
              "internalType": "string",
              "name": "modificationRequest",
              "type": "string"
            },
            {
              "internalType": "string",
              "name": "rejectionReason",
              "type": "string"
            }
          ],
          "internalType": "struct BidManagement.Bid[]",
          "name": "",
          "type": "tuple[]"
        }
      ],
      "stateMutability": "view",
      "type": "function"
    },
    {
      "inputs": [
        {
          "internalType": "uint256",
          "name": "_tenderId",
          "type": "uint256"
        },
        {
          "internalType": "uint256",
          "name": "_bidIndex",
          "type": "uint256"
        },
        {
          "internalType": "string",
          "name": "_feedback",
          "type": "string"
        }
      ],
      "name": "giveBidFeedback",
      "outputs": [],
      "stateMutability": "nonpayable",
      "type": "function"
    },
    {
      "inputs": [
        {
          "internalType": "uint256",
          "name": "_tenderId",
          "type": "uint256"
        },
        {
          "internalType": "uint256",
          "name": "_bidIndex",
          "type": "uint256"
        },
        {
          "internalType": "uint256",
          "name": "_newAmount",
          "type": "uint256"
        },
        {
          "internalType": "string",
          "name": "_newDescription",
          "type": "string"
        }
      ],
      "name": "modifyBid",
      "outputs": [],
      "stateMutability": "nonpayable",
      "type": "function"
    },
    {
      "inputs": [],
      "name": "owner",
      "outputs": [
        {
          "internalType": "address",
          "name": "",
          "type": "address"
        }
      ],
      "stateMutability": "view",
      "type": "function"
    },
    {
      "inputs": [
        {
          "internalType": "uint256",
          "name": "_tenderId",
          "type": "uint256"
        },
        {
          "internalType": "uint256",
          "name": "_bidIndex",
          "type": "uint256"
        },
        {
          "internalType": "string",
          "name": "_reason",
          "type": "string"
        }
      ],
      "name": "rejectBid",
      "outputs": [],
      "stateMutability": "nonpayable",
      "type": "function"
    },
    {
      "inputs": [],
      "name": "renounceOwnership",
      "outputs": [],
      "stateMutability": "nonpayable",
      "type": "function"
    },
    {
      "inputs": [
        {
          "internalType": "uint256",
          "name": "_tenderId",
          "type": "uint256"
        },
        {
          "internalType": "uint256",
          "name": "_bidIndex",
          "type": "uint256"
        },
        {
          "internalType": "string",
          "name": "_modifications",
          "type": "string"
        }
      ],
      "name": "requestBidModification",
      "outputs": [],
      "stateMutability": "nonpayable",
      "type": "function"
    },
    {
      "inputs": [
        {
          "internalType": "uint256",
          "name": "_tenderId",
          "type": "uint256"
        },
        {
          "internalType": "uint256",
          "name": "_amount",
          "type": "uint256"
        },
        {
          "internalType": "string",
          "name": "_description",
          "type": "string"
        }
      ],
      "name": "submitBid",
      "outputs": [],
      "stateMutability": "nonpayable",
      "type": "function"
    },
    {
      "inputs": [
        {
          "internalType": "uint256",
          "name": "",
          "type": "uint256"
        }
      ],
      "name": "tenders",
      "outputs": [
        {
          "internalType": "address",
          "name": "officerAddress",
          "type": "address"
        },
        {
          "internalType": "bool",
          "name": "isActive",
          "type": "bool"
        },
        {
          "internalType": "uint256",
          "name": "deadline",
          "type": "uint256"
        }
      ],
      "stateMutability": "view",
      "type": "function"
    },
    {
      "inputs": [
        {
          "internalType": "address",
          "name": "newOwner",
          "type": "address"
        }
      ],
      "name": "transferOwnership",
      "outputs": [],
      "stateMutability": "nonpayable",
      "type": "function"
    }
  ],
  "bytecode": "0x6080346100bb57601f611cc938819003918201601f19168301916001600160401b038311848410176100c0578084926020946040528339810103126100bb57516001600160a01b0390818116908190036100bb5780156100a257600080546001600160a01b03198116831782556040519316907f8be0079c531659141344cd1fd0a4f28419497f9722a3daafe3b4186f6b6457e09080a3611bf290816100d78239f35b604051631e4fbdf760e01b815260006004820152602490fd5b600080fd5b634e487b7160e01b600052604160045260246000fdfe6080604052600436101561001257600080fd5b60003560e01c806314c60bdd14610fce578063267b51b314610f315780632e78b86914610d975780633fc898d214610a86578063465e1def14610a39578063582c7ffd146109615780635b8c665c14610770578063715018a6146107175780637b3c4baa146106245780637c8ecd2f146105f85780638da5cb5b146105cf578063928c1784146104035780639f07d4621461014b5763f2fde38b146100b657600080fd5b34610146576020366003190112610146576004356001600160a01b0381811691829003610146576100e56119c3565b811561012d57600054826bffffffffffffffffffffffff60a01b821617600055167f8be0079c531659141344cd1fd0a4f28419497f9722a3daafe3b4186f6b6457e0600080a3005b604051631e4fbdf760e01b815260006004820152602490fd5b600080fd5b346101465761015936611751565b91806000526020926003845261017d60018060a01b036040600020541633146119ef565b81600052600284526101956040600020548410611a3b565b816000526001938481526040600020846000528152600560ff816040600020015416818110156103ed571580156103bf575b156103825783600052858252604060002085600052825280604060002001600260ff198254161790558360005285825260406000208560005282526008604060002001908351906001600160401b03821161036c5761022683546118e3565b90601f8211610325575b50508296601f82116001146102a3578180917f7a9bc058a0636c74f09fba8b41a836b2d26f59e8b63350b3b633df61def6f1cf979899600093610298575b501b916000199060031b1c19161790555b610293604051928284938452830190611786565b0390a3005b87015192508a61026e565b90601f1981169783600052846000209860005b818110610310575090827f7a9bc058a0636c74f09fba8b41a836b2d26f59e8b63350b3b633df61def6f1cf98999a92106102f7575b5050811b01905561027f565b86015160001960f88460031b161c1916905588806102eb565b878301518b55998401999186019186016102b6565b836000528460002090601f8401811c820192868510610362575b601f01901c019088905b8281106103565750610230565b60008155018890610349565b919250829161033f565b634e487b7160e01b600052604160045260246000fd5b60405162461bcd60e51b8152600481018390526015602482015274109a5908185b1c9958591e481c1c9bd8d95cdcd959605a1b6044820152606490fd5b5083600052858252604060002085600052825260ff816040600020015416818110156103ed576003146101c7565b634e487b7160e01b600052602160045260246000fd5b346101465761041136611751565b91806000526020926003845261043560018060a01b036040600020541633146119ef565b816000526002845261044d6040600020548410611a3b565b81600052600193848152604060002084600052815260ff6005604060002001541660058110156103ed576104819015611a7c565b826000528481526040600020846000528152600660406000200182516001600160401b03811161036c576104b582546118e3565b601f8111610586575b508296601f821160011461051e578180917fd7ed299e5e685e22477fc439df8043df54d62f2b07ada5aeda8003a8b376014e97989960009361029857501b916000199060031b1c1916179055610293604051928284938452830190611786565b90601f1981169783600052846000209860005b818110610571575090827fd7ed299e5e685e22477fc439df8043df54d62f2b07ada5aeda8003a8b376014e98999a92106102f7575050811b01905561027f565b878301518b5599840199918601918601610531565b8260005283600020601f830160051c8101918584106105c5575b601f0160051c019088905b8281106105b95750506104be565b600081550188906105ab565b90915081906105a0565b34610146576000366003190112610146576000546040516001600160a01b039091168152602090f35b346101465760203660031901126101465760043560005260026020526020604060002054604051908152f35b3461014657610632366118cd565b9060005260016020526040600020906000526020526020604060002061071381549161070460018060a01b03600183015416916106f660028201546106796003840161191d565b906106e96004850154926106d960ff6005880154169161069b6006890161191d565b946106b460086106ad60078c0161191d565b9a0161191d565b9a6040519e8f9e8f908152015260408d015260608c61012091829101528c0190611786565b9360808b015260a08a01906117c6565b87820360c0890152611786565b9085820360e0870152611786565b90838203610100850152611786565b0390f35b34610146576000366003190112610146576107306119c3565b600080546001600160a01b0319811682556001600160a01b03167f8be0079c531659141344cd1fd0a4f28419497f9722a3daafe3b4186f6b6457e08280a3005b346101465761077e36611751565b9180600052602092600384526107a260018060a01b036040600020541633146119ef565b81600052600284526107ba6040600020548410611a3b565b81600052600193848152604060002084600052815260ff6005604060002001541660058110156103ed576107ee9015611a7c565b8260005284815260406000208460005281526005604060002001600460ff19825416179055826000528481526040600020846000528152600760406000200182516001600160401b03811161036c5761084782546118e3565b601f8111610918575b508296601f82116001146108b0578180917f1131d9b33dacd5043302ebe5126de7550c4ca8f01092e4a8f198e52e6bbdfcce97989960009361029857501b916000199060031b1c1916179055610293604051928284938452830190611786565b90601f1981169783600052846000209860005b818110610903575090827f1131d9b33dacd5043302ebe5126de7550c4ca8f01092e4a8f198e52e6bbdfcce98999a92106102f7575050811b01905561027f565b878301518b55998401999186019186016108c3565b8260005283600020601f830160051c810191858410610957575b601f0160051c019088905b82811061094b575050610850565b6000815501889061093d565b9091508190610932565b346101465761096f366118cd565b90610978611ae3565b5060005260016020526040600020906000526020526107136040600020610a1f6008604051926109a7846116a3565b8054845260018101546001600160a01b03166020850152600281015460408501526109d46003820161191d565b6060850152600481015460808501526109f760ff60058301541660a08601611ad7565b610a036006820161191d565b60c0850152610a146007820161191d565b60e08501520161191d565b6101008201526040519182916020835260208301906117d3565b34610146576020366003190112610146576004356000526003602052606060406000206001815491015460ff6040519260018060a01b038116845260a01c16151560208301526040820152f35b34610146576080366003190112610146576024356004356001600160401b0360443560643582811161014657610ac09036906004016116fb565b8360005260209260028452610adb6040600020548710611a3b565b84600052600190818552604060002087600052855260018060a01b038260406000200154163303610d485785600052818552604060002087600052855260ff6005604060002001541660058110156103ed57600403610cf35785600052818552604060002087600052855283600260406000200155856000528185526040600020876000528552600360406000200190835190811161036c57610b7e82546118e3565b601f8111610caa575b5085601f8211600114610c2057918161029394927fff8032bdb7048063741d028837c6b1dc7ba91d1915100882519364c030a0441898979694600091610c15575b50600019600383901b1c191690831b1790555b86600052845260406000208760005284526005604060002001600360ff198254161790556040805194859485528401526040830190611786565b90508401518b610bc8565b601f1982169083600052876000209160005b818110610c955750927fff8032bdb7048063741d028837c6b1dc7ba91d1915100882519364c030a04418989796949286949282610293989410610c7c575b5050811b019055610bdb565b86015160001960f88460031b161c191690558b80610c70565b87830151845592860192918901918901610c32565b8260005286600020601f830160051c810191888410610ce9575b601f0160051c019084905b828110610cdd575050610b87565b60008155018490610ccf565b9091508190610cc4565b60405162461bcd60e51b815260048101869052602760248201527f426964206e6f7420696e206d6f64696669636174696f6e2072657175657374656044820152666420737461746560c81b6064820152608490fd5b60405162461bcd60e51b815260048101869052602160248201527f4e6f7420617574686f72697a656420746f206d6f6469667920746869732062696044820152601960fa1b6064820152608490fd5b3461014657602080600319360112610146576001600160a01b03600435818116908190036101465760009060015b60008052600285526040600020548111610e3e576001855260406000206000198201828111610e2857600052855281846001604060002001541614610e13575b610e0e90611ac8565b610dc5565b91610e20610e0e91611ac8565b929050610e05565b634e487b7160e01b600052601160045260246000fd5b50610e498492611b42565b9060009060015b6000805260028086526040600020548211610f2357600186526040600020600019830190838211610e285781600052875283886001604060002001541614610ea3575b5050610e9e90611ac8565b610e50565b93610f1b91610e9e939560008052600189526040600020906000528852610efa6008604060002060405193610ed7856116a3565b815485528c6001830154168c86015281015460408501526109d46003820161191d565b610100820152610f0a8288611b92565b52610f158187611b92565b50611ac8565b929087610e93565b60405180610713878261186b565b346101465760208060031936011261014657600435806000526002808352610f5d604060002054611b42565b9260005b83600052828252604060002054811015610f2357610fc99060018084526040600020826000528452610efa6008604060002060405193610fa0856116a3565b815485528101546001600160a01b0316878501528781015460408501526109d46003820161191d565b610f61565b3461014657610fdc36611751565b82600093929352600360205260ff60406000205460a01c16156116675781600052600360205260016040600020015442116116295781600052600260205260406000206110298154611ac8565b90558160005260026020526040600020549081600019810111610e2857604051611052816116a3565b83815260208101913383526040820186815260608301918252426080840152600060a0840152604051611084816116bf565b6000815260c0840152604051611099816116bf565b6000815260e08401526040516110ae816116bf565b600081526101008401528560005260016020526040600020600019860160005260205260406000209383518555600185019060018060a01b039051166bffffffffffffffffffffffff60a01b825416179055516002840155518051906001600160401b03821161036c57819061112760038601546118e3565b601f81116115d6575b50602090601f831160011461156457600092611559575b50508160011b916000199060031b1c19161760038301555b608081015160048301556005820160a082015160058110156103ed5760ff8019835416911617905560c08101518051906001600160401b03821161036c5781906111ac60068601546118e3565b601f8111611506575b50602090601f831160011461149457600092611489575b50508160011b916000199060031b1c19161760068301555b60e08101518051906001600160401b03821161036c5761120760078501546118e3565b601f8111611442575b50602090601f83116001146113ce57610100939291600091836113c3575b50508160011b916000199060031b1c19161760078401555b01518051906001600160401b03821161036c5761126660088401546118e3565b601f8111611378575b50602090601f83116001146112e557827fb5cc2e6a75ba593196ae1600d90399014d2790179ceae0b5d9a2303144028bad9593604095936008936000926112da575b50508160011b916000199060031b1c1916179101555b81519433865260208601526000190193a3005b0151905089806112b1565b90601f198316916008850160005260206000209260005b81811061136057509360409593600893600193837fb5cc2e6a75ba593196ae1600d90399014d2790179ceae0b5d9a2303144028bad9a9810611347575b505050811b019101556112c7565b015160001960f88460031b161c19169055898080611339565b929360206001819287860151815501950193016112fc565b600884016000526020600020601f840160051c810191602085106113b9575b601f0160051c01905b8181106113ad575061126f565b600081556001016113a0565b9091508190611397565b01519050888061122e565b906007850160005260206000209160005b601f198516811061142a57509183916001936101009695601f19811610611411575b505050811b016007840155611246565b015160001960f88460031b161c19169055888080611401565b919260206001819286850151815501940192016113df565b600785016000526020600020601f840160051c810160208510611482575b601f830160051c82018110611476575050611210565b60008155600101611460565b5080611460565b0151905087806111cc565b9250600685016000526020600020906000935b601f19841685106114eb576001945083601f198116106114d2575b505050811b0160068301556111e4565b015160001960f88460031b161c191690558780806114c2565b818101518355602094850194600190930192909101906114a7565b909150600685016000526020600020601f840160051c810160208510611552575b90849392915b601f830160051c820181106115435750506111b5565b6000815585945060010161152d565b5080611527565b015190508780611147565b9250600385016000526020600020906000935b601f19841685106115bb576001945083601f198116106115a2575b505050811b01600383015561115f565b015160001960f88460031b161c19169055878080611592565b81810151835560209485019460019093019290910190611577565b909150600385016000526020600020601f840160051c810160208510611622575b90849392915b601f830160051c82018110611613575050611130565b600081558594506001016115fd565b50806115f7565b60405162461bcd60e51b815260206004820152601660248201527515195b99195c88191958591b1a5b99481c185cdcd95960521b6044820152606490fd5b60405162461bcd60e51b815260206004820152601460248201527354656e646572206973206e6f742061637469766560601b6044820152606490fd5b61012081019081106001600160401b0382111761036c57604052565b602081019081106001600160401b0382111761036c57604052565b90601f801991011681019081106001600160401b0382111761036c57604052565b81601f82011215610146578035906001600160401b03821161036c576040519261172f601f8401601f1916602001856116da565b8284526020838301011161014657816000926020809301838601378301015290565b6060600319820112610146576004359160243591604435906001600160401b03821161014657611783916004016116fb565b90565b919082519283825260005b8481106117b2575050826000602080949584010152601f8019910116010190565b602081830181015184830182015201611791565b9060058210156103ed5752565b90611783918051825260018060a01b036020820151166020830152604081015160408301526118576118456118176060840151610120806060880152860190611786565b6080840151608086015261183360a085015160a08701906117c6565b60c084015185820360c0870152611786565b60e083015184820360e0860152611786565b916101008092015191818403910152611786565b602080820190808352835180925260408301928160408460051b8301019501936000915b84831061189f5750505050505090565b90919293949584806118bd600193603f198682030187528a516117d3565b980193019301919493929061188f565b6040906003190112610146576004359060243590565b90600182811c92168015611913575b60208310146118fd57565b634e487b7160e01b600052602260045260246000fd5b91607f16916118f2565b9060405191826000825492611931846118e3565b9081845260019485811690816000146119a0575060011461195d575b505061195b925003836116da565b565b9093915060005260209081600020936000915b81831061198857505061195b9350820101388061194d565b85548884018501529485019487945091830191611970565b91505061195b94506020925060ff191682840152151560051b820101388061194d565b6000546001600160a01b031633036119d757565b60405163118cdaa760e01b8152336004820152602490fd5b156119f657565b60405162461bcd60e51b815260206004820152601c60248201527f43616c6c6572206973206e6f742074656e646572206f666669636572000000006044820152606490fd5b15611a4257565b60405162461bcd60e51b8152602060048201526012602482015271109a5908191bd95cc81b9bdd08195e1a5cdd60721b6044820152606490fd5b15611a8357565b60405162461bcd60e51b815260206004820152601860248201527f426964206e6f7420696e2070656e64696e6720737461746500000000000000006044820152606490fd5b6000198114610e285760010190565b60058210156103ed5752565b60405190611af0826116a3565b606061010083600081526000602082015260006040820152828082015260006080820152600060a08201528260c08201528260e08201520152565b6001600160401b03811161036c5760051b60200190565b90611b4c82611b2b565b611b5960405191826116da565b8281528092611b6a601f1991611b2b565b019060005b828110611b7b57505050565b602090611b86611ae3565b82828501015201611b6f565b8051821015611ba65760209160051b010190565b634e487b7160e01b600052603260045260246000fdfea26469706673582212200e211a926359350eb6aa9110beafd276eae1ba0f9e157d15b9671f345d936d1664736f6c63430008140033",
  "linkReferences": {},
  "deployedLinkReferences": {}
}