{
  "_format": "hh-sol-artifact-1",
  "contractName": "UserAuthentication",
  "sourceName": "src/contracts/UserAuthentication.sol",
  "abi": [
    {
      "inputs": [],
      "stateMutability": "nonpayable",
      "type": "constructor"
    },
    {
      "anonymous": false,
      "inputs": [
        {
          "indexed": true,
          "internalType": "address",
          "name": "walletAddress",
          "type": "address"
        },
        {
          "indexed": false,
          "internalType": "bool",
          "name": "isApproved",
          "type": "bool"
        },
        {
          "indexed": false,
          "internalType": "string",
          "name": "remark",
          "type": "string"
        }
      ],
      "name": "UserApprovalChanged",
      "type": "event"
    },
    {
      "anonymous": false,
      "inputs": [
        {
          "indexed": true,
          "internalType": "address",
          "name": "walletAddress",
          "type": "address"
        },
        {
          "indexed": false,
          "internalType": "string",
          "name": "id",
          "type": "string"
        },
        {
          "indexed": false,
          "internalType": "string",
          "name": "username",
          "type": "string"
        },
        {
          "indexed": false,
          "internalType": "string",
          "name": "role",
          "type": "string"
        }
      ],
      "name": "UserRegistered",
      "type": "event"
    },
    {
      "anonymous": false,
      "inputs": [
        {
          "indexed": true,
          "internalType": "address",
          "name": "walletAddress",
          "type": "address"
        },
        {
          "indexed": false,
          "internalType": "string",
          "name": "id",
          "type": "string"
        }
      ],
      "name": "UserRemoved",
      "type": "event"
    },
    {
      "anonymous": false,
      "inputs": [
        {
          "indexed": true,
          "internalType": "address",
          "name": "walletAddress",
          "type": "address"
        },
        {
          "indexed": false,
          "internalType": "string",
          "name": "username",
          "type": "string"
        }
      ],
      "name": "UserUpdated",
      "type": "event"
    },
    {
      "inputs": [],
      "name": "admin",
      "outputs": [
        {
          "internalType": "address",
          "name": "",
          "type": "address"
        }
      ],
      "stateMutability": "view",
      "type": "function"
    },
    {
      "inputs": [],
      "name": "getAllUserAddresses",
      "outputs": [
        {
          "internalType": "address[]",
          "name": "",
          "type": "address[]"
        }
      ],
      "stateMutability": "view",
      "type": "function"
    },
    {
      "inputs": [
        {
          "internalType": "address",
          "name": "walletAddress",
          "type": "address"
        }
      ],
      "name": "getCompanyDetails",
      "outputs": [
        {
          "internalType": "string",
          "name": "companyName",
          "type": "string"
        },
        {
          "internalType": "string",
          "name": "registrationNumber",
          "type": "string"
        },
        {
          "internalType": "string",
          "name": "gstNumber",
          "type": "string"
        },
        {
          "internalType": "string",
          "name": "panNumber",
          "type": "string"
        },
        {
          "internalType": "uint256",
          "name": "establishmentYear",
          "type": "uint256"
        },
        {
          "internalType": "string",
          "name": "registeredAddress",
          "type": "string"
        },
        {
          "internalType": "string",
          "name": "state",
          "type": "string"
        },
        {
          "internalType": "string",
          "name": "city",
          "type": "string"
        },
        {
          "internalType": "string",
          "name": "pinCode",
          "type": "string"
        },
        {
          "internalType": "string",
          "name": "bidderType",
          "type": "string"
        }
      ],
      "stateMutability": "view",
      "type": "function"
    },
    {
      "inputs": [
        {
          "internalType": "address",
          "name": "walletAddress",
          "type": "address"
        }
      ],
      "name": "getUserByAddress",
      "outputs": [
        {
          "internalType": "string",
          "name": "id",
          "type": "string"
        },
        {
          "internalType": "string",
          "name": "name",
          "type": "string"
        },
        {
          "internalType": "string",
          "name": "username",
          "type": "string"
        },
        {
          "internalType": "string",
          "name": "email",
          "type": "string"
        },
        {
          "internalType": "string",
          "name": "role",
          "type": "string"
        },
        {
          "internalType": "bool",
          "name": "isApproved",
          "type": "bool"
        },
        {
          "internalType": "string",
          "name": "approvalRemark",
          "type": "string"
        },
        {
          "internalType": "uint256",
          "name": "createdAt",
          "type": "uint256"
        }
      ],
      "stateMutability": "view",
      "type": "function"
    },
    {
      "inputs": [
        {
          "internalType": "string",
          "name": "username",
          "type": "string"
        }
      ],
      "name": "getUserByUsername",
      "outputs": [
        {
          "internalType": "address",
          "name": "walletAddress",
          "type": "address"
        },
        {
          "internalType": "string",
          "name": "id",
          "type": "string"
        },
        {
          "internalType": "string",
          "name": "name",
          "type": "string"
        },
        {
          "internalType": "string",
          "name": "email",
          "type": "string"
        },
        {
          "internalType": "string",
          "name": "role",
          "type": "string"
        },
        {
          "internalType": "bool",
          "name": "isApproved",
          "type": "bool"
        },
        {
          "internalType": "string",
          "name": "approvalRemark",
          "type": "string"
        },
        {
          "internalType": "uint256",
          "name": "createdAt",
          "type": "uint256"
        }
      ],
      "stateMutability": "view",
      "type": "function"
    },
    {
      "inputs": [],
      "name": "getUserCount",
      "outputs": [
        {
          "internalType": "uint256",
          "name": "",
          "type": "uint256"
        }
      ],
      "stateMutability": "view",
      "type": "function"
    },
    {
      "inputs": [
        {
          "internalType": "address",
          "name": "walletAddress",
          "type": "address"
        }
      ],
      "name": "isAdmin",
      "outputs": [
        {
          "internalType": "bool",
          "name": "",
          "type": "bool"
        }
      ],
      "stateMutability": "view",
      "type": "function"
    },
    {
      "inputs": [
        {
          "internalType": "address",
          "name": "walletAddress",
          "type": "address"
        }
      ],
      "name": "isOfficer",
      "outputs": [
        {
          "internalType": "bool",
          "name": "",
          "type": "bool"
        }
      ],
      "stateMutability": "view",
      "type": "function"
    },
    {
      "inputs": [
        {
          "internalType": "address",
          "name": "walletAddress",
          "type": "address"
        }
      ],
      "name": "isUser",
      "outputs": [
        {
          "internalType": "bool",
          "name": "",
          "type": "bool"
        }
      ],
      "stateMutability": "view",
      "type": "function"
    },
    {
      "inputs": [
        {
          "internalType": "address",
          "name": "walletAddress",
          "type": "address"
        },
        {
          "internalType": "string",
          "name": "id",
          "type": "string"
        },
        {
          "internalType": "string",
          "name": "name",
          "type": "string"
        },
        {
          "internalType": "string",
          "name": "username",
          "type": "string"
        },
        {
          "internalType": "string",
          "name": "email",
          "type": "string"
        },
        {
          "internalType": "string",
          "name": "role",
          "type": "string"
        },
        {
          "internalType": "string",
          "name": "companyName",
          "type": "string"
        },
        {
          "internalType": "string",
          "name": "registrationNumber",
          "type": "string"
        },
        {
          "internalType": "string",
          "name": "gstNumber",
          "type": "string"
        },
        {
          "internalType": "string",
          "name": "panNumber",
          "type": "string"
        },
        {
          "internalType": "uint256",
          "name": "establishmentYear",
          "type": "uint256"
        },
        {
          "internalType": "string",
          "name": "registeredAddress",
          "type": "string"
        },
        {
          "internalType": "string",
          "name": "state",
          "type": "string"
        },
        {
          "internalType": "string",
          "name": "city",
          "type": "string"
        },
        {
          "internalType": "string",
          "name": "pinCode",
          "type": "string"
        },
        {
          "internalType": "string",
          "name": "bidderType",
          "type": "string"
        }
      ],
      "name": "registerUser",
      "outputs": [],
      "stateMutability": "nonpayable",
      "type": "function"
    },
    {
      "inputs": [
        {
          "internalType": "address",
          "name": "walletAddress",
          "type": "address"
        }
      ],
      "name": "removeUser",
      "outputs": [],
      "stateMutability": "nonpayable",
      "type": "function"
    },
    {
      "inputs": [
        {
          "internalType": "address",
          "name": "walletAddress",
          "type": "address"
        },
        {
          "internalType": "bool",
          "name": "isApproved",
          "type": "bool"
        },
        {
          "internalType": "string",
          "name": "remark",
          "type": "string"
        }
      ],
      "name": "setUserApproval",
      "outputs": [],
      "stateMutability": "nonpayable",
      "type": "function"
    },
    {
      "inputs": [
        {
          "internalType": "address",
          "name": "newAdmin",
          "type": "address"
        }
      ],
      "name": "transferAdmin",
      "outputs": [],
      "stateMutability": "nonpayable",
      "type": "function"
    },
    {
      "inputs": [
        {
          "internalType": "address",
          "name": "walletAddress",
          "type": "address"
        },
        {
          "internalType": "string",
          "name": "companyName",
          "type": "string"
        },
        {
          "internalType": "string",
          "name": "registrationNumber",
          "type": "string"
        },
        {
          "internalType": "string",
          "name": "gstNumber",
          "type": "string"
        },
        {
          "internalType": "string",
          "name": "panNumber",
          "type": "string"
        },
        {
          "internalType": "uint256",
          "name": "establishmentYear",
          "type": "uint256"
        },
        {
          "internalType": "string",
          "name": "registeredAddress",
          "type": "string"
        },
        {
          "internalType": "string",
          "name": "state",
          "type": "string"
        },
        {
          "internalType": "string",
          "name": "city",
          "type": "string"
        },
        {
          "internalType": "string",
          "name": "pinCode",
          "type": "string"
        },
        {
          "internalType": "string",
          "name": "bidderType",
          "type": "string"
        }
      ],
      "name": "updateCompanyDetails",
      "outputs": [],
      "stateMutability": "nonpayable",
      "type": "function"
    },
    {
      "inputs": [
        {
          "internalType": "address",
          "name": "walletAddress",
          "type": "address"
        },
        {
          "internalType": "string",
          "name": "name",
          "type": "string"
        },
        {
          "internalType": "string",
          "name": "username",
          "type": "string"
        },
        {
          "internalType": "string",
          "name": "email",
          "type": "string"
        }
      ],
      "name": "updateUser",
      "outputs": [],
      "stateMutability": "nonpayable",
      "type": "function"
    },
    {
      "inputs": [
        {
          "internalType": "uint256",
          "name": "",
          "type": "uint256"
        }
      ],
      "name": "userAddresses",
      "outputs": [
        {
          "internalType": "address",
          "name": "",
          "type": "address"
        }
      ],
      "stateMutability": "view",
      "type": "function"
    },
    {
      "inputs": [
        {
          "internalType": "string",
          "name": "",
          "type": "string"
        }
      ],
      "name": "usernameExists",
      "outputs": [
        {
          "internalType": "bool",
          "name": "",
          "type": "bool"
        }
      ],
      "stateMutability": "view",
      "type": "function"
    },
    {
      "inputs": [
        {
          "internalType": "string",
          "name": "",
          "type": "string"
        }
      ],
      "name": "usernameToAddress",
      "outputs": [
        {
          "internalType": "address",
          "name": "",
          "type": "address"
        }
      ],
      "stateMutability": "view",
      "type": "function"
    },
    {
      "inputs": [
        {
          "internalType": "address",
          "name": "",
          "type": "address"
        }
      ],
      "name": "users",
      "outputs": [
        {
          "internalType": "string",
          "name": "id",
          "type": "string"
        },
        {
          "internalType": "string",
          "name": "name",
          "type": "string"
        },
        {
          "internalType": "string",
          "name": "username",
          "type": "string"
        },
        {
          "internalType": "string",
          "name": "email",
          "type": "string"
        },
        {
          "internalType": "string",
          "name": "role",
          "type": "string"
        },
        {
          "internalType": "bool",
          "name": "isApproved",
          "type": "bool"
        },
        {
          "internalType": "string",
          "name": "approvalRemark",
          "type": "string"
        },
        {
          "internalType": "uint256",
          "name": "createdAt",
          "type": "uint256"
        },
        {
          "internalType": "string",
          "name": "companyName",
          "type": "string"
        },
        {
          "internalType": "string",
          "name": "registrationNumber",
          "type": "string"
        },
        {
          "internalType": "string",
          "name": "gstNumber",
          "type": "string"
        },
        {
          "internalType": "string",
          "name": "panNumber",
          "type": "string"
        },
        {
          "internalType": "uint256",
          "name": "establishmentYear",
          "type": "uint256"
        },
        {
          "internalType": "string",
          "name": "registeredAddress",
          "type": "string"
        },
        {
          "internalType": "string",
          "name": "state",
          "type": "string"
        },
        {
          "internalType": "string",
          "name": "city",
          "type": "string"
        },
        {
          "internalType": "string",
          "name": "pinCode",
          "type": "string"
        },
        {
          "internalType": "string",
          "name": "bidderType",
          "type": "string"
        }
      ],
      "stateMutability": "view",
      "type": "function"
    }
  ],
  "bytecode": "0x34620017da57600080546001600160a01b031916331790556102c060405262000027620017df565b600781526661646d696e2d3160c81b602082015260805262000048620017df565b600c81526b29bcb9ba32b69020b236b4b760a11b602082015260a0526200006e620017df565b600581526430b236b4b760d91b602082015260c0526200008d620017df565b601481527f61646d696e407472757374636861696e2e636f6d000000000000000000000000602082015260e052620000c4620017df565b600581526430b236b4b760d91b602082015261010052600161012052620000ea620017ff565b6000815261014052426101605262000101620017df565b600a8152692a393ab9ba21b430b4b760b11b60208201526101805262000126620017df565b6005815264544330303160d81b60208201526101a05262000146620017ff565b600081526101c05262000158620017ff565b600081526101e0526107e76102005262000171620017df565b600d81526c426c6f636b636861696e20485160981b60208201526102205262000199620017df565b600c81526b111958d95b9d1c985b185b9960a21b602082015261024052620001c0620017df565b600b81526a43727970746f204369747960a81b602082015261026052620001e6620017df565b600681526503030303030360d41b60208201526102805262000207620017ff565b60008082526102a0919091523381526001602052604090206080518051906001600160401b03821162000a4b578254908160011c916001811615620017cf575b600116602083101462000b2e5781601f8493116200177a575b50602090601f83116001146200170957600092620016fd575b50508160011b916000199060031b1c19161781555b60a0518051906001600160401b03821162000a4b57600183015490600182811c92168015620016f2575b602083101462000b2e5781601f8493116200169a575b50602090601f8311600114620016235760009262001617575b50508160011b916000199060031b1c19161760018201555b60c0518051906001600160401b03821162000a4b57600283015490600182811c921680156200160c575b602083101462000b2e5781601f849311620015b4575b50602090601f83116001146200153d5760009262001531575b50508160011b916000199060031b1c19161760028201555b60e0518051906001600160401b03821162000a4b57600383015490600182811c9216801562001526575b602083101462000b2e5781601f849311620014ce575b50602090601f831160011462001457576000926200144b575b50508160011b916000199060031b1c19161760038201555b610100518051906001600160401b03821162000a4b57600483015490600182811c9216801562001440575b602083101462000b2e5781601f849311620013e8575b50602090601f8311600114620013715760009262001365575b50508160011b916000199060031b1c19161760048201555b6101205160058201805460ff191691151560ff16919091179055610140518051906001600160401b03821162000a4b57600683015490600182811c921680156200135a575b602083101462000b2e5781601f84931162001302575b50602090601f83116001146200128b576000926200127f575b50508160011b916000199060031b1c19161760068201555b610160516007820155610180518051906001600160401b03821162000a4b57600883015490600182811c9216801562001274575b602083101462000b2e5781601f8493116200121c575b50602090601f8311600114620011a55760009262001199575b50508160011b916000199060031b1c19161760088201555b6101a0518051906001600160401b03821162000a4b57600983015490600182811c921680156200118e575b602083101462000b2e5781601f84931162001136575b50602090601f8311600114620010bf57600092620010b3575b50508160011b916000199060031b1c19161760098201555b6101c0518051906001600160401b03821162000a4b57600a83015490600182811c92168015620010a8575b602083101462000b2e5781601f84931162001050575b50602090601f831160011462000fd95760009262000fcd575b50508160011b916000199060031b1c191617600a8201555b6101e0518051906001600160401b03821162000a4b57600b83015490600182811c9216801562000fc2575b602083101462000b2e5781601f84931162000f6a575b50602090601f831160011462000ef35760009262000ee7575b50508160011b916000199060031b1c191617600b8201555b61020051600c820155610220518051906001600160401b03821162000a4b57600d83015490600182811c9216801562000edc575b602083101462000b2e5781601f84931162000e84575b50602090601f831160011462000e0d5760009262000e01575b50508160011b916000199060031b1c191617600d8201555b610240518051906001600160401b03821162000a4b57600e83015490600182811c9216801562000df6575b602083101462000b2e5781601f84931162000d9e575b50602090601f831160011462000d275760009262000d1b575b50508160011b916000199060031b1c191617600e8201555b610260518051906001600160401b03821162000a4b57600f83015490600182811c9216801562000d10575b602083101462000b2e5781601f84931162000cb8575b50602090601f831160011462000c415760009262000c35575b50508160011b916000199060031b1c191617600f8201555b610280518051906001600160401b03821162000a4b57601083015490600182811c9216801562000c2a575b602083101462000b2e5781601f84931162000bd2575b50602090601f831160011462000b5b5760009262000b4f575b50508160011b916000199060031b1c19161760108201555b6102a0518051906001600160401b03821162000a4b576011830154600181811c9116801562000b44575b602082101462000b2e57601f811162000ae2575b50602090601f831160011462000a6d57601192916000918362000a61575b50508160011b916000199060031b1c1916179101555b60256040516430b236b4b760d91b815260026005820152203360018060a01b031982541617905560256040516430b236b4b760d91b81526004600582015220600160ff198254161790556003546801000000000000000081101562000a4b57600181018060035581101562000a355760036000527fc2575a0e9e593c00f959f8c92f12db2869c3395a3b0502d05e2516446f71f85b0180546001600160a01b0319163317905560405160608082526007908201526661646d696e2d3160c81b608082015260a0602082018190526005908201526430b236b4b760d91b60c08201527f509c70f523067009f7db7f46db6956d7af8b679323680dc3821a8bad001ac1e160e082019180830360408201528062000a223394604090600581526430b236b4b760d91b60208201520190565b0390a26040516141ec9081620018208239f35b634e487b7160e01b600052603260045260246000fd5b634e487b7160e01b600052604160045260246000fd5b015190503880620008dd565b906011840160005260206000209160005b601f198516811062000ac95750918391600193601195601f1981161062000aaf575b505050811b01910155620008f3565b015160001960f88460031b161c1916905538808062000aa0565b9192602060018192868501518155019401920162000a7e565b601184016000526020600020601f840160051c81016020851062000b26575b601f830160051c8201811062000b19575050620008bf565b6000815560010162000b01565b508062000b01565b634e487b7160e01b600052602260045260246000fd5b90607f1690620008ab565b01519050388062000869565b9250601084016000526020600020906000935b601f198416851062000bb6576001945083601f1981161062000b9c575b505050811b01601082015562000881565b015160001960f88460031b161c1916905538808062000b8b565b8181015183556020948501946001909301929091019062000b6e565b909150601084016000526020600020601f840160051c81016020851062000c22575b90849392915b601f830160051c8201811062000c1257505062000850565b6000815585945060010162000bfa565b508062000bf4565b91607f16916200083a565b015190503880620007f7565b9250600f84016000526020600020906000935b601f198416851062000c9c576001945083601f1981161062000c82575b505050811b01600f8201556200080f565b015160001960f88460031b161c1916905538808062000c71565b8181015183556020948501946001909301929091019062000c54565b909150600f84016000526020600020601f840160051c81016020851062000d08575b90849392915b601f830160051c8201811062000cf8575050620007de565b6000815585945060010162000ce0565b508062000cda565b91607f1691620007c8565b01519050388062000785565b9250600e84016000526020600020906000935b601f198416851062000d82576001945083601f1981161062000d68575b505050811b01600e8201556200079d565b015160001960f88460031b161c1916905538808062000d57565b8181015183556020948501946001909301929091019062000d3a565b909150600e84016000526020600020601f840160051c81016020851062000dee575b90849392915b601f830160051c8201811062000dde5750506200076c565b6000815585945060010162000dc6565b508062000dc0565b91607f169162000756565b01519050388062000713565b9250600d84016000526020600020906000935b601f198416851062000e68576001945083601f1981161062000e4e575b505050811b01600d8201556200072b565b015160001960f88460031b161c1916905538808062000e3d565b8181015183556020948501946001909301929091019062000e20565b909150600d84016000526020600020601f840160051c81016020851062000ed4575b90849392915b601f830160051c8201811062000ec4575050620006fa565b6000815585945060010162000eac565b508062000ea6565b91607f1691620006e4565b01519050388062000698565b9250600b84016000526020600020906000935b601f198416851062000f4e576001945083601f1981161062000f34575b505050811b01600b820155620006b0565b015160001960f88460031b161c1916905538808062000f23565b8181015183556020948501946001909301929091019062000f06565b909150600b84016000526020600020601f840160051c81016020851062000fba575b90849392915b601f830160051c8201811062000faa5750506200067f565b6000815585945060010162000f92565b508062000f8c565b91607f169162000669565b01519050388062000626565b9250600a84016000526020600020906000935b601f198416851062001034576001945083601f198116106200101a575b505050811b01600a8201556200063e565b015160001960f88460031b161c1916905538808062001009565b8181015183556020948501946001909301929091019062000fec565b909150600a84016000526020600020601f840160051c810160208510620010a0575b90849392915b601f830160051c82018110620010905750506200060d565b6000815585945060010162001078565b508062001072565b91607f1691620005f7565b015190503880620005b4565b9250600984016000526020600020906000935b601f19841685106200111a576001945083601f1981161062001100575b505050811b016009820155620005cc565b015160001960f88460031b161c19169055388080620010ef565b81810151835560209485019460019093019290910190620010d2565b909150600984016000526020600020601f840160051c81016020851062001186575b90849392915b601f830160051c82018110620011765750506200059b565b600081558594506001016200115e565b508062001158565b91607f169162000585565b01519050388062000542565b9250600884016000526020600020906000935b601f198416851062001200576001945083601f19811610620011e6575b505050811b0160088201556200055a565b015160001960f88460031b161c19169055388080620011d5565b81810151835560209485019460019093019290910190620011b8565b909150600884016000526020600020601f840160051c8101602085106200126c575b90849392915b601f830160051c820181106200125c57505062000529565b6000815585945060010162001244565b50806200123e565b91607f169162000513565b015190503880620004c7565b9250600684016000526020600020906000935b601f1984168510620012e6576001945083601f19811610620012cc575b505050811b016006820155620004df565b015160001960f88460031b161c19169055388080620012bb565b818101518355602094850194600190930192909101906200129e565b909150600684016000526020600020601f840160051c81016020851062001352575b90849392915b601f830160051c8201811062001342575050620004ae565b600081558594506001016200132a565b508062001324565b91607f169162000498565b0151905038806200043b565b9250600484016000526020600020906000935b601f1984168510620013cc576001945083601f19811610620013b2575b505050811b01600482015562000453565b015160001960f88460031b161c19169055388080620013a1565b8181015183556020948501946001909301929091019062001384565b909150600484016000526020600020601f840160051c81016020851062001438575b90849392915b601f830160051c820181106200142857505062000422565b6000815585945060010162001410565b50806200140a565b91607f16916200040c565b015190503880620003c9565b9250600384016000526020600020906000935b601f1984168510620014b2576001945083601f1981161062001498575b505050811b016003820155620003e1565b015160001960f88460031b161c1916905538808062001487565b818101518355602094850194600190930192909101906200146a565b909150600384016000526020600020601f840160051c8101602085106200151e575b90849392915b601f830160051c820181106200150e575050620003b0565b60008155859450600101620014f6565b5080620014f0565b91607f16916200039a565b01519050388062000358565b9250600284016000526020600020906000935b601f198416851062001598576001945083601f198116106200157e575b505050811b01600282015562000370565b015160001960f88460031b161c191690553880806200156d565b8181015183556020948501946001909301929091019062001550565b909150600284016000526020600020601f840160051c81016020851062001604575b90849392915b601f830160051c82018110620015f45750506200033f565b60008155859450600101620015dc565b5080620015d6565b91607f169162000329565b015190503880620002e7565b9250600184016000526020600020906000935b601f19841685106200167e576001945083601f1981161062001664575b505050811b016001820155620002ff565b015160001960f88460031b161c1916905538808062001653565b8181015183556020948501946001909301929091019062001636565b909150600184016000526020600020601f840160051c810160208510620016ea575b90849392915b601f830160051c82018110620016da575050620002ce565b60008155859450600101620016c2565b5080620016bc565b91607f1691620002b8565b01519050388062000279565b9250836000526020600020906000935b601f19841685106200175e576001945083601f1981161062001744575b505050811b0181556200028e565b015160001960f88460031b161c1916905538808062001736565b8181015183556020948501946001909301929091019062001719565b909150836000526020600020601f840160051c810160208510620017c7575b90849392915b601f830160051c82018110620017b757505062000260565b600081558594506001016200179f565b508062001799565b91607f169162000247565b600080fd5b60408051919082016001600160401b0381118382101762000a4b57604052565b60405190602082016001600160401b0381118382101762000a4b5760405256fe61012080604052600436101561001457600080fd5b60003560e01c9081630558d3e914613ab8575080630da4578b1461352d57806324d7806c146134d95780632f3300231461341157806337a1bba2146128325780634209fff1146127ee578063502c9bd5146127ac5780636816442d1461274957806369c212f6146124a357806375829def146123d457806398575188146120975780639d4d134214610b715780639f42af631461080e578063a87430ba1461047b578063b5cb15f71461045d578063b979cc2f146101e8578063f309e3f914610187578063f825f1431461011f5763f851a440146100f157600080fd5b3461011a57600036600319011261011a576000546040516001600160a01b039091168152602090f35b600080fd5b3461011a57602036600319011261011a576004356001600160401b03811161011a576101516020913690600401613e9b565b816101656040519283815193849201613dfb565b600290820190815281900382019020546040516001600160a01b039091168152f35b3461011a57602036600319011261011a576004356001600160401b03811161011a5760ff6101d260206101bf81943690600401613e9b565b8160405193828580945193849201613dfb565b8101600481520301902054166040519015158152f35b3461011a57606036600319011261011a57610201613de5565b6024358015159081810361011a576001600160401b039160443583811161011a57610230903690600401613e9b565b60005490946001600160a01b0391821633148015610411575b610252906140f7565b169283600052600190600660209483865261027b610274604060002054613f3e565b15156140b5565b866000528386526102a0604060002091600583019060ff801983541691151516179055565b019186519182116103fb576102b58354613f3e565b601f81116103c0575b5084601f83116001146103365791808061032695937f925b0343b9085747d26a9125c88206057343a6e2db8d4fe70cee25da0220aac1999a9560009361032b575b501b916000199060031b1c19161790555b6040805194859485528401526040830190613e1e565b0390a2005b86015192508b6102ff565b601f9291921982169084600052866000209160005b8181106103ab575091839161032696947f925b0343b9085747d26a9125c88206057343a6e2db8d4fe70cee25da0220aac19a9b969410610392575b5050811b019055610310565b85015160001960f88460031b161c191690558980610386565b8a83015184559285019291880191880161034b565b6103eb908460005286600020601f850160051c8101918886106103f1575b601f0160051c019061409e565b876102be565b90915081906103de565b634e487b7160e01b600052604160045260246000fd5b5033600052600160205261025261043861043f600460406000200160405192838092613f78565b0382613e7a565b6020815191012061044e614031565b60208151910120149050610249565b3461011a57600036600319011261011a576020600354604051908152f35b3461011a57602036600319011261011a576001600160a01b0361049c613de5565b16600052600160205260406000208080604051806104ba8184613f78565b036104c59082613e7a565b60405160a08190526104da8160018501613f78565b0360a051906104e891613e7a565b60405160808190526104fd8160028501613f78565b036080519061050b91613e7a565b6040518061051c8160038601613f78565b036105279082613e7a565b604051806105388160048701613f78565b036105439082613e7a565b600584015460ff166040518080600688019061055e91613f78565b036105699082613e7a565b600786015460405191826105808160088b01613f78565b0361058b9084613e7a565b604051938461059d8160098c01613f78565b036105a89086613e7a565b60405195866105ba81600a8d01613f78565b036105c59088613e7a565b60405197886105d781600b8e01613f78565b036105e2908a613e7a565b600c8b01549960405180600d819e01906105fb91613f78565b03610606908d613e7a565b60405180809e600e8291019061061b91613f78565b0361062591613e7a565b6040519d8e8061063881600f8501613f78565b0361064291613e7a565b60405160c08190526106578160108401613f78565b0360c0519061066591613e7a565b60405180918160e0526011019061067b91613f78565b0360e0519061068991613e7a565b604051806101005261024080915261010051016106a591613e1e565b61010051808203906020015260a051906106be91613e1e565b610100518082039060400152608051906106d791613e1e565b6101005180820390606001526106ec91613e1e565b61010051808203906080015261070191613e1e565b9015156101005160a00152610100518082039060c0015261072191613e1e565b906101005160e001526101005180820390610100015261074091613e1e565b6101005180820390610120015261075691613e1e565b6101005180820390610140015261076c91613e1e565b6101005180820390610160015261078291613e1e565b9061010051610180015261010051808203906101a001526107a291613e1e565b61010051808203906101c001526107b891613e1e565b61010051808203906101e001526107ce91613e1e565b6101005180820390610200015260c051906107e891613e1e565b61010051808203906102200152610100519060e0519061080791613e1e565b0361010051f35b3461011a5760208060031936011261011a576004356001600160401b03811161011a5761083f903690600401613e9b565b816108536040519283815193849201613dfb565b600290820190815281900382019020546001600160a01b03168015610b37578060005260018252604060002060405161088b81613e43565b604051806108998185613f78565b036108a49082613e7a565b8152604051806108b78160018601613f78565b036108c29082613e7a565b818501908152604051806108d98160028701613f78565b036108e49082613e7a565b6040830152604051808060038601906108fc91613f78565b036109079082613e7a565b606083019081526040518061091f8160048801613f78565b0361092a9082613e7a565b60808401908152600585015460ff169160a085019215158352604051938480600689019061095791613f78565b036109629086613e7a565b60c0860194855260078701549560e08101968752604051978880600883019061098a91613f78565b03610995908a613e7a565b6101009889830152604051808060098401906109b091613f78565b036109bb9082613e7a565b610120830152604051806109d281600a8501613f78565b036109dd9082613e7a565b610140830152604051806109f481600b8501613f78565b036109ff9082613e7a565b610160830152600c81015461018083015260405180610a2181600d8501613f78565b03610a2c9082613e7a565b6101a083015260405180610a4381600e8501613f78565b03610a4e9082613e7a565b6101c083015260405180610a6581600f8501613f78565b03610a709082613e7a565b6101e083015260405180610a878160108501613f78565b03610a929082613e7a565b61020083015260405180601181930190610aab91613f78565b03610ab69082613e7a565b61022082015251905191519251935115159451955196806040519a8b9a8b528a01528801610ae391613e1e565b8781036040890152610af491613e1e565b8681036060880152610b0591613e1e565b8581036080870152610b1691613e1e565b9060a085015283810360c0850152610b2d91613e1e565b9060e08301520390f35b60405162461bcd60e51b8152600481018390526012602482015271155cd95c9b985b59481b9bdd08199bdd5b9960721b6044820152606490fd5b3461011a5761020036600319011261011a57610b8b613de5565b6024356001600160401b03811161011a57610baa903690600401613e9b565b906044356001600160401b03811161011a57610bca903690600401613e9b565b916064356001600160401b03811161011a57610bea903690600401613e9b565b906084356001600160401b03811161011a57610c0a903690600401613e9b565b9360a4356001600160401b03811161011a57610c2a903690600401613e9b565b9460c4356001600160401b03811161011a57610c4a903690600401613e9b565b60e4356001600160401b03811161011a57610c69903690600401613e9b565b610104356001600160401b03811161011a57610c89903690600401613e9b565b6001600160401b03610124351161011a57610caa3661012435600401613e9b565b6001600160401b03610164351161011a57610ccb3661016435600401613e9b565b906001600160401b03610184351161011a57610ced3661018435600401613e9b565b926001600160401b036101a4351161011a57610d0f366101a435600401613e9b565b946001600160401b036101c4351161011a57610d31366101c435600401613e9b565b966001600160401b036101e4351161011a578d98610d55366101e435600401613e9b565b9960208151910120610d6561400e565b6020815191012014611ffa575b6001600160a01b038e16600090815260016020526040902054610d9490613f3e565b611fa9578e8c918e60405180825181816020860191610db292613dfb565b8101600481520360200190205460ff1615610dcc90614052565b82516020840120610ddb61400e565b8051906020012014936040519e8f91610df383613e43565b825260208201526040015260608d015260808c015260a08b0152604051806020810110602082016001600160401b0310176103fb57602081016040526000815260c08b01524260e08b01526101008a0152610120890152610140880152610160870152610144356101808701526101a08601526101c08501526101e084015261020083015261022082015260018060a01b038416600052600160205260406000209080518051906001600160401b0382116103fb578190610eb48554613f3e565b601f8111611f77575b50602090601f8311600114611f0b57600092611f00575b50508160011b916000199060031b1c19161782555b60208101518051906001600160401b0382116103fb578190610f0e6001860154613f3e565b601f8111611ecb575b50602090601f8311600114611e5957600092611e4e575b50508160011b916000199060031b1c19161760018301555b60408101518051906001600160401b0382116103fb578190610f6b6002860154613f3e565b601f8111611e19575b50602090601f8311600114611da757600092611d9c575b50508160011b916000199060031b1c19161760028301555b60608101518051906001600160401b0382116103fb578190610fc86003860154613f3e565b601f8111611d67575b50602090601f8311600114611cf557600092611cea575b50508160011b916000199060031b1c19161760038301555b60808101518051906001600160401b0382116103fb5781906110256004860154613f3e565b601f8111611cb5575b50602090601f8311600114611c4357600092611c38575b50508160011b916000199060031b1c19161760048301555b61107c60a08201511515600584019060ff801983541691151516179055565b60c08101518051906001600160401b0382116103fb5781906110a16006860154613f3e565b601f8111611c03575b50602090601f8311600114611b9157600092611b86575b50508160011b916000199060031b1c19161760068301555b60e081015160078301556101008101518051906001600160401b0382116103fb5781906111096008860154613f3e565b601f8111611b51575b50602090601f8311600114611adf57600092611ad4575b50508160011b916000199060031b1c19161760088301555b6101208101518051906001600160401b0382116103fb5781906111676009860154613f3e565b601f8111611a9f575b50602090601f8311600114611a2d57600092611a22575b50508160011b916000199060031b1c19161760098301555b6101408101518051906001600160401b0382116103fb5781906111c5600a860154613f3e565b601f81116119ed575b50602090601f831160011461197b57600092611970575b50508160011b916000199060031b1c191617600a8301555b6101608101518051906001600160401b0382116103fb578190611223600b860154613f3e565b601f811161193b575b50602090601f83116001146118c9576000926118be575b50508160011b916000199060031b1c191617600b8301555b610180810151600c8301556101a08101518051906001600160401b0382116103fb57819061128c600d860154613f3e565b601f8111611889575b50602090601f83116001146118175760009261180c575b50508160011b916000199060031b1c191617600d8301555b6101c08101518051906001600160401b0382116103fb5781906112ea600e860154613f3e565b601f81116117d7575b50602090601f83116001146117655760009261175a575b50508160011b916000199060031b1c191617600e8301555b6101e08101518051906001600160401b0382116103fb578190611348600f860154613f3e565b601f8111611725575b50602090601f83116001146116b3576000926116a8575b50508160011b916000199060031b1c191617600f8301555b6102008101518051906001600160401b0382116103fb576113a46010850154613f3e565b601f8111611673575b50602090601f83116001146115ff57610220939291600091836115f4575b50508160011b916000199060031b1c19161760108401555b0151908151906001600160401b0382116103fb576011829101926114078454613f3e565b601f81116115c2575b50602090601f831160011461155c57600092611551575b50508160011b916000199060031b1c19161790555b60035491680100000000000000008310156103fb5783611538610326926114b07f509c70f523067009f7db7f46db6956d7af8b679323680dc3821a8bad001ac1e19761149188600161152a9a01600355613ef1565b90919082549060031b9160018060a01b03809116831b921b1916179055565b60405160208183516114c58183858801613dfb565b60029082019081520301902080546001600160a01b0319166001600160a01b038516179055604051815160209082906115018183878601613dfb565b81016004815203019020600160ff19825416179055604051958695606087526060870190613e1e565b908582036020870152613e1e565b83810360408501526001600160a01b0390911695613e1e565b015190508780611427565b6000858152602081209350601f198516905b8181106115aa5750908460019594939210611591575b505050811b01905561143c565b015160001960f88460031b161c19169055878080611584565b9293602060018192878601518155019501930161156e565b6115ee90856000526020600020601f850160051c810191602086106103f157601f0160051c019061409e565b88611410565b0151905089806113cb565b906010850160005260206000209160005b601f198516811061165b57509183916001936102209695601f19811610611642575b505050811b0160108401556113e3565b015160001960f88460031b161c19169055898080611632565b91926020600181928685015181550194019201611610565b6116a290601086016000526020600020601f850160051c810191602086106103f157601f0160051c019061409e565b886113ad565b015190508880611368565b9250600f85016000526020600020906000935b601f198416851061170a576001945083601f198116106116f1575b505050811b01600f830155611380565b015160001960f88460031b161c191690558880806116e1565b818101518355602094850194600190930192909101906116c6565b61175490600f87016000526020600020601f850160051c810191602086106103f157601f0160051c019061409e565b89611351565b01519050888061130a565b9250600e85016000526020600020906000935b601f19841685106117bc576001945083601f198116106117a3575b505050811b01600e830155611322565b015160001960f88460031b161c19169055888080611793565b81810151835560209485019460019093019290910190611778565b61180690600e87016000526020600020601f850160051c810191602086106103f157601f0160051c019061409e565b896112f3565b0151905088806112ac565b9250600d85016000526020600020906000935b601f198416851061186e576001945083601f19811610611855575b505050811b01600d8301556112c4565b015160001960f88460031b161c19169055888080611845565b8181015183556020948501946001909301929091019061182a565b6118b890600d87016000526020600020601f850160051c810191602086106103f157601f0160051c019061409e565b89611295565b015190508880611243565b9250600b85016000526020600020906000935b601f1984168510611920576001945083601f19811610611907575b505050811b01600b83015561125b565b015160001960f88460031b161c191690558880806118f7565b818101518355602094850194600190930192909101906118dc565b61196a90600b87016000526020600020601f850160051c810191602086106103f157601f0160051c019061409e565b8961122c565b0151905088806111e5565b9250600a85016000526020600020906000935b601f19841685106119d2576001945083601f198116106119b9575b505050811b01600a8301556111fd565b015160001960f88460031b161c191690558880806119a9565b8181015183556020948501946001909301929091019061198e565b611a1c90600a87016000526020600020601f850160051c810191602086106103f157601f0160051c019061409e565b896111ce565b015190508880611187565b9250600985016000526020600020906000935b601f1984168510611a84576001945083601f19811610611a6b575b505050811b01600983015561119f565b015160001960f88460031b161c19169055888080611a5b565b81810151835560209485019460019093019290910190611a40565b611ace90600987016000526020600020601f850160051c810191602086106103f157601f0160051c019061409e565b89611170565b015190508880611129565b9250600885016000526020600020906000935b601f1984168510611b36576001945083601f19811610611b1d575b505050811b016008830155611141565b015160001960f88460031b161c19169055888080611b0d565b81810151835560209485019460019093019290910190611af2565b611b8090600887016000526020600020601f850160051c810191602086106103f157601f0160051c019061409e565b89611112565b0151905088806110c1565b9250600685016000526020600020906000935b601f1984168510611be8576001945083601f19811610611bcf575b505050811b0160068301556110d9565b015160001960f88460031b161c19169055888080611bbf565b81810151835560209485019460019093019290910190611ba4565b611c3290600687016000526020600020601f850160051c810191602086106103f157601f0160051c019061409e565b896110aa565b015190508880611045565b9250600485016000526020600020906000935b601f1984168510611c9a576001945083601f19811610611c81575b505050811b01600483015561105d565b015160001960f88460031b161c19169055888080611c71565b81810151835560209485019460019093019290910190611c56565b611ce490600487016000526020600020601f850160051c810191602086106103f157601f0160051c019061409e565b8961102e565b015190508880610fe8565b9250600385016000526020600020906000935b601f1984168510611d4c576001945083601f19811610611d33575b505050811b016003830155611000565b015160001960f88460031b161c19169055888080611d23565b81810151835560209485019460019093019290910190611d08565b611d9690600387016000526020600020601f850160051c810191602086106103f157601f0160051c019061409e565b89610fd1565b015190508880610f8b565b9250600285016000526020600020906000935b601f1984168510611dfe576001945083601f19811610611de5575b505050811b016002830155610fa3565b015160001960f88460031b161c19169055888080611dd5565b81810151835560209485019460019093019290910190611dba565b611e4890600287016000526020600020601f850160051c810191602086106103f157601f0160051c019061409e565b89610f74565b015190508880610f2e565b9250600185016000526020600020906000935b601f1984168510611eb0576001945083601f19811610611e97575b505050811b016001830155610f46565b015160001960f88460031b161c19169055888080611e87565b81810151835560209485019460019093019290910190611e6c565b611efa90600187016000526020600020601f850160051c810191602086106103f157601f0160051c019061409e565b89610f17565b015190508880610ed4565b9250846000526020600020906000935b601f1984168510611f5c576001945083601f19811610611f43575b505050811b018255610ee9565b015160001960f88460031b161c19169055888080611f36565b81810151835560209485019460019093019290910190611f1b565b611fa390866000526020600020601f850160051c810191602086106103f157601f0160051c019061409e565b89610ebd565b60405162461bcd60e51b8152602060048201526024808201527f5573657220616c72656164792065786973747320666f722074686973206164646044820152637265737360e01b6064820152608490fd5b6000546001600160a01b031633148015612057575b610d7257606460405162461bcd60e51b815260206004820152602060248201527f4f6e6c792061646d696e2063616e207265676973746572206f666669636572736044820152fd5b5033600052600160205261043861207b600460406000200160405192838092613f78565b6020815191012061208a614031565b602081519101201461200f565b3461011a5760208060031936011261011a576120b1613de5565b9061213360018060a01b038093816000541633148015612392575b6120d5906140f7565b169182600052600180948183526120f3610274604060002054613f3e565b8460005281835261218283610438612118600260406000200160405192838092613f78565b8760005284825261213a604060002060405198898092613f78565b0388613e7a565b60405190805191838181840194612152818388613dfb565b810160028152030190206bffffffffffffffffffffffff60a01b8154169055604051938492839251928391613dfb565b8101600481520301902060ff1981541690556000915b6122a6575b5050612292601184957f89fcfa7c85bf81269953b23469028afbdb9913b80af31b7c931a42009fb252bd956000528084526121e76040600020916121e08361414d565b820161414d565b6121f36002820161414d565b6121ff6003820161414d565b61220b6004820161414d565b6000600582015561221e6006820161414d565b600060078201556122316008820161414d565b61223d6009820161414d565b612249600a820161414d565b612255600b820161414d565b6000600c820155612268600d820161414d565b612274600e820161414d565b612280600f820161414d565b61228c6010820161414d565b0161414d565b610326604051928284938452830190613e1e565b600380548084101561238b5786836122bd86613ef1565b905490851b1c16146122f457505060001982146122de578580920191612198565b634e487b7160e01b600052601160045260246000fd5b95969095600019938185019182116122de576114918461231661232394613ef1565b9054908b1b1c1691613ef1565b8554918215612375577f89fcfa7c85bf81269953b23469028afbdb9913b80af31b7c931a42009fb252bd9661229294601194019161236083613ef1565b9091825491841b1b191690555595945061219d565b634e487b7160e01b600052603160045260246000fd5b505061219d565b5033600052600184526120d56104386123b8600460406000200160405192838092613f78565b8581519101206123c6614031565b8681519101201490506120cc565b3461011a57602036600319011261011a576123ed613de5565b600054906001600160a01b03903382841614801561245e575b61240f906140f7565b16908115612427576001600160a01b03191617600055005b60405162461bcd60e51b815260206004820152600f60248201526e496e76616c6964206164647265737360881b6044820152606490fd5b5033600052600160205261240f610438612485600460406000200160405192838092613f78565b60208151910120612494614031565b60208151910120149050612406565b3461011a57602036600319011261011a576001600160a01b036124c4613de5565b1660005260016020526040600020604051906124df82613e43565b604051806124ed8184613f78565b036124f89082613e7a565b8252604051918261250c8160018501613f78565b036125179084613e7a565b6020810192835260405190816125308160028601613f78565b0361253b9083613e7a565b604081810192835251806125528160038701613f78565b0361255d9082613e7a565b60608201908152604051806125758160048801613f78565b036125809082613e7a565b60808301908152600585015460ff169060a08401911515825260405192838060068901906125ad91613f78565b036125b89085613e7a565b60c0850193845260078701549460e0810195865260405197888060088301906125e091613f78565b036125eb908a613e7a565b61010098898301526040518080600984019061260691613f78565b036126119082613e7a565b6101208301526040518061262881600a8501613f78565b036126339082613e7a565b6101408301526040518061264a81600b8501613f78565b036126559082613e7a565b610160830152600c8101546101808301526040518061267781600d8501613f78565b036126829082613e7a565b6101a08301526040518061269981600e8501613f78565b036126a49082613e7a565b6101c0830152604051806126bb81600f8501613f78565b036126c69082613e7a565b6101e0830152604051806126dd8160108501613f78565b036126e89082613e7a565b6102008301526040518060118193019061270191613f78565b0361270c9082613e7a565b61022082015251975195519051915192511515935194519560405198888a998a52890161273891613e1e565b88810360208a0152610ae391613e1e565b3461011a57602036600319011261011a576001600160a01b0361276a613de5565b166000526001602052602061043861278f600460406000200160405192838092613f78565b81815191012061279d61400e565b82815191012014604051908152f35b3461011a57602036600319011261011a5760043560035481101561011a576127d5602091613ef1565b905460405160039290921b1c6001600160a01b03168152f35b3461011a57602036600319011261011a576001600160a01b0361280f613de5565b1660005260016020526020612828604060002054613f3e565b1515604051908152f35b3461011a5761016036600319011261011a5761284c613de5565b6024356001600160401b03811161011a5761286b903690600401613e9b565b6044356001600160401b03811161011a5761288a903690600401613e9b565b916064356001600160401b03811161011a576128aa903690600401613e9b565b6084356001600160401b03811161011a576128c9903690600401613e9b565b60c4356001600160401b03811161011a576128e8903690600401613e9b565b60e4356001600160401b03811161011a57612907903690600401613e9b565b90610104356001600160401b03811161011a57612928903690600401613e9b565b92610124356001600160401b03811161011a57612949903690600401613e9b565b94610144356001600160401b03811161011a5761296a903690600401613e9b565b9860018060a01b038816600052600160205261298d610274604060002054613f3e565b6000546001600160a01b0316331480156133d1575b80156133bf575b15613354576001600160a01b0388166000908152600160205260409020895190996001600160401b0382116103fb5781908b6129e86008820154613f3e565b601f811161331f575b5050602090601f83116001146132ad576000926132a2575b50508160011b916000199060031b1c19161760088a01555b8051906001600160401b0382116103fb578190612a4160098c0154613f3e565b601f811161326d575b50602090601f83116001146131fb576000926131f0575b50508160011b916000199060031b1c19161760098901555b8051906001600160401b0382116103fb578190612a99600a8b0154613f3e565b601f81116131bb575b50602090601f83116001146131495760009261313e575b50508160011b916000199060031b1c191617600a8801555b8051906001600160401b0382116103fb578190612af1600b8a0154613f3e565b601f8111613109575b50602090601f83116001146130975760009261308c575b50508160011b916000199060031b1c191617600b8701555b60a435600c8701558051906001600160401b0382116103fb578190612b51600d890154613f3e565b601f8111613057575b50602090601f8311600114612fe557600092612fda575b50508160011b916000199060031b1c191617600d8601555b8051906001600160401b0382116103fb578190612ba9600e880154613f3e565b601f8111612fa5575b50602090601f8311600114612f3357600092612f28575b50508160011b916000199060031b1c191617600e8501555b8051906001600160401b0382116103fb578190612c01600f870154613f3e565b601f8111612ef3575b50602090601f8311600114612e8157600092612e76575b50508160011b916000199060031b1c191617600f8401555b805160108401916001600160401b0382116103fb578190612c5a8454613f3e565b601f8111612e44575b50602090601f8311600114612dde57600092612dd3575b50508160011b916000199060031b1c19161790555b6011820183516001600160401b0381116103fb57612cad8254613f3e565b601f8111612da1575b506020601f8211600114612d255790806103269493926000805160206141978339815191529697600092612d1a575b50508160011b916000199060031b1c19161790555b6040519182916020835260018060a01b0316946002602084019101613f78565b015190508780612ce5565b601f198216958360005260206000209660005b818110612d895750966001928492610326979695600080516020614197833981519152999a10612d70575b505050811b019055612cfa565b015160001960f88460031b161c19169055878080612d63565b83830151895560019098019760209384019301612d38565b612dcd90836000526020600020601f840160051c810191602085106103f157601f0160051c019061409e565b85612cb6565b015190508680612c7a565b6000858152602081209350601f198516905b818110612e2c5750908460019594939210612e13575b505050811b019055612c8f565b015160001960f88460031b161c19169055868080612e06565b92936020600181928786015181550195019301612df0565b612e7090856000526020600020601f850160051c810191602086106103f157601f0160051c019061409e565b87612c63565b015190508680612c21565b9250600f86016000526020600020906000935b601f1984168510612ed8576001945083601f19811610612ebf575b505050811b01600f840155612c39565b015160001960f88460031b161c19169055868080612eaf565b81810151835560209485019460019093019290910190612e94565b612f2290600f88016000526020600020601f850160051c810191602086106103f157601f0160051c019061409e565b87612c0a565b015190508780612bc9565b9250600e87016000526020600020906000935b601f1984168510612f8a576001945083601f19811610612f71575b505050811b01600e850155612be1565b015160001960f88460031b161c19169055878080612f61565b81810151835560209485019460019093019290910190612f46565b612fd490600e89016000526020600020601f850160051c810191602086106103f157601f0160051c019061409e565b88612bb2565b015190508880612b71565b9250600d88016000526020600020906000935b601f198416851061303c576001945083601f19811610613023575b505050811b01600d860155612b89565b015160001960f88460031b161c19169055888080613013565b81810151835560209485019460019093019290910190612ff8565b61308690600d8a016000526020600020601f850160051c810191602086106103f157601f0160051c019061409e565b89612b5a565b015190508980612b11565b9250600b89016000526020600020906000935b601f19841685106130ee576001945083601f198116106130d5575b505050811b01600b870155612b29565b015160001960f88460031b161c191690558980806130c5565b818101518355602094850194600190930192909101906130aa565b61313890600b8b016000526020600020601f850160051c810191602086106103f157601f0160051c019061409e565b8a612afa565b015190508a80612ab9565b9250600a8a016000526020600020906000935b601f19841685106131a0576001945083601f19811610613187575b505050811b01600a880155612ad1565b015160001960f88460031b161c191690558a8080613177565b8181015183556020948501946001909301929091019061315c565b6131ea90600a8c016000526020600020601f850160051c810191602086106103f157601f0160051c019061409e565b8b612aa2565b015190508b80612a61565b925060098b016000526020600020906000935b601f1984168510613252576001945083601f19811610613239575b505050811b016009890155612a79565b015160001960f88460031b161c191690558b8080613229565b8181015183556020948501946001909301929091019061320e565b61329c9060098d016000526020600020601f850160051c810191602086106103f157601f0160051c019061409e565b8c612a4a565b015190508c80612a09565b925060088c016000526020600020906000935b601f1984168510613304576001945083601f198116106132eb575b505050811b0160088a0155612a21565b015160001960f88460031b161c191690558c80806132db565b818101518355602094850194600190930192909101906132c0565b600861334d92016000526020600020601f850160051c810191602086106103f157601f0160051c019061409e565b8b8e6129f1565b60405162461bcd60e51b815260206004820152603c60248201527f4f6e6c792061646d696e206f72207468652075736572207468656d73656c766560448201527f732063616e2075706461746520636f6d70616e792064657461696c73000000006064820152608490fd5b50336001600160a01b038916146129a9565b503360005260016020526104386133f5600460406000200160405192838092613f78565b60208151910120613404614031565b60208151910120146129a2565b3461011a57600036600319011261011a57604051806003548083526020809301809160036000527fc2575a0e9e593c00f959f8c92f12db2869c3395a3b0502d05e2516446f71f85b9060005b868282106134bc57868661347382880383613e7a565b604051928392818401908285525180915260408401929160005b82811061349c57505050500390f35b83516001600160a01b03168552869550938101939281019260010161348d565b83546001600160a01b03168552909301926001928301920161345d565b3461011a57602036600319011261011a576001600160a01b036134fa613de5565b166000526001602052602061043861351f600460406000200160405192838092613f78565b81815191012061279d614031565b3461011a57608036600319011261011a57613546613de5565b6001600160401b0360243581811161011a57613566903690600401613e9b565b9160443582811161011a5761357f903690600401613e9b565b9060643583811161011a57613598903690600401613e9b565b60018060a01b03809216938460005260016020938185526135c0610274604060002054613f3e565b6000541633148015613a7c575b8015613a73575b15613a0857856000528084526104386135fa600260406000200160405192838092613f78565b86815186808401918220938951828b019581872003613925575b5050505090506000528084528060406000200187518381116103fb578061363b8354613f3e565b99601f9a8b81116138f7575b5087908b831160011461389457600092613889575b5050600019600383901b1c191690831b1790555b85600052808452600260406000200185518381116103fb576136928254613f3e565b89811161385b575b5080868a82116001146137f9576000916137ee575b50600019600383901b1c191690831b1790555b8560005280845260036040600020019280519283116103fb576136e58454613f3e565b8881116137b6575b50849783116001146137465782916000805160206141978339815191529798839260009461373b575b50501b916000199060031b1c1916179055610326604051928284938452830190613e1e565b015192508980613716565b601f9291921982169784600052856000209160005b8a81106137a1575083600080516020614197833981519152999a10613788575b505050811b019055612292565b015160001960f88460031b161c1916905587808061377b565b8183015184559285019291870191870161375b565b6137df9085600052866000208a80870160051c8201928988106137e5575b0160051c019061409e565b886136ed565b925081926137d4565b90508701518a6136af565b849250601f1982169084600052886000209160005b8a8c83831061384657505050831161382d575b5050811b0190556136c2565b89015160001960f88460031b161c191690558a80613821565b8401518555889690940193928301920161380e565b6138839083600052876000208b80850160051c8201928a86106137e5570160051c019061409e565b8961369a565b015190508a8061365c565b90859350601f1983169185600052896000209260005b8b8282106138e157505084116138c8575b505050811b019055613670565b015160001960f88460031b161c191690558a80806138bb565b83850151865589979095019493840193016138aa565b61391f9085600052896000208d80860160051c8201928c87106137e5570160051c019061409e565b8b613647565b6139ec936139b99261395860ff84878b819761394660405194858094613dfb565b81016004815203019020541615614052565b8c89613997858b6040518281885161397181838d613dfb565b810160048152030190209460ff1995868154169055604051938492839251928391613dfb565b8101600481520301902091825416179055604051938492839251928391613dfb565b81016002815203019020936bffffffffffffffffffffffff60a01b94858154169055604051809381928c51928391613dfb565b8101600281520301902091825416179055878681868180613614565b60405162461bcd60e51b815260048101859052603960248201527f4f6e6c792061646d696e206f72207468652075736572207468656d73656c766560448201527f732063616e2075706461746520757365722064657461696c73000000000000006064820152608490fd5b508533146135d4565b5033600052808452610438613a9e600460406000200160405192838092613f78565b848151910120613aac614031565b858151910120146135cd565b3461011a57602036600319011261011a576001600160a01b03613ad9613de5565b1660005260016020526040600020613af082613e43565b60405180613afe8184613f78565b03613b099082613e7a565b825260405180613b1c8160018501613f78565b03613b279082613e7a565b602083015260405180613b3d8160028501613f78565b03613b489082613e7a565b604083015260405180806003840190613b6091613f78565b03613b6b9082613e7a565b606083015260405180613b818160048501613f78565b03613b8c9082613e7a565b6080830152600581015460ff16151560a083015260405180613bb18160068501613f78565b03613bbc9082613e7a565b60c0830152600781015460e08301526040519182613bdd8160088501613f78565b03613be89084613e7a565b61010081810193845260405180613c028160098701613f78565b03613c0d9082613e7a565b61012091828401918252604051948580600a830190613c2b91613f78565b03613c369087613e7a565b6101409687968787019081526040518080600b860190613c5591613f78565b03613c609082613e7a565b6101608801908152600c84015461018089019081526040519182613c8781600d8901613f78565b03613c929084613e7a565b6101a08a019283526040519384613cac81600e8a01613f78565b03613cb79086613e7a565b6101c08b019485526040519586613cd181600f8b01613f78565b03613cdc9088613e7a565b6101e08c019687526040519788613cf68160108401613f78565b03613d01908a613e7a565b6102008d019889526040519c8d80601181940190613d1e91613f78565b03613d299083613e7a565b61022001525198519051915192519351945195519651986040519d8e9d8e528d01613d5391613e1e565b8c810360208e0152613d6491613e1e565b8b810360408d0152613d7591613e1e565b8a810360608c0152613d8691613e1e565b9060808a015288810360a08a0152613d9d91613e1e565b87810360c0890152613dae91613e1e565b86810360e0880152613dbf91613e1e565b9085820390860152613dd091613e1e565b9083820390840152613de191613e1e565b0390f35b600435906001600160a01b038216820361011a57565b60005b838110613e0e5750506000910152565b8181015183820152602001613dfe565b90602091613e3781518092818552858086019101613dfb565b601f01601f1916010190565b61024081019081106001600160401b038211176103fb57604052565b604081019081106001600160401b038211176103fb57604052565b90601f801991011681019081106001600160401b038211176103fb57604052565b81601f8201121561011a578035906001600160401b0382116103fb5760405192613ecf601f8401601f191660200185613e7a565b8284526020838301011161011a57816000926020809301838601378301015290565b600354811015613f285760036000527fc2575a0e9e593c00f959f8c92f12db2869c3395a3b0502d05e2516446f71f85b0190600090565b634e487b7160e01b600052603260045260246000fd5b90600182811c92168015613f6e575b6020831014613f5857565b634e487b7160e01b600052602260045260246000fd5b91607f1691613f4d565b9060009291805491613f8983613f3e565b918282526001938481169081600014613feb5750600114613fab575b50505050565b90919394506000526020928360002092846000945b838610613fd7575050505001019038808080613fa5565b805485870183015294019385908201613fc0565b9294505050602093945060ff191683830152151560051b01019038808080613fa5565b6040519061401b82613e5f565b600782526637b33334b1b2b960c91b6020830152565b6040519061403e82613e5f565b600582526430b236b4b760d91b6020830152565b1561405957565b60405162461bcd60e51b815260206004820152601760248201527f557365726e616d6520616c7265616479206578697374730000000000000000006044820152606490fd5b8181106140a9575050565b6000815560010161409e565b156140bc57565b60405162461bcd60e51b8152602060048201526013602482015272155cd95c88191bd95cc81b9bdd08195e1a5cdd606a1b6044820152606490fd5b156140fe57565b60405162461bcd60e51b815260206004820152602160248201527f4f6e6c792061646d696e2063616e2063616c6c20746869732066756e6374696f6044820152603760f91b6064820152608490fd5b6141578154613f3e565b9081614161575050565b81601f60009311600114614173575055565b908083918252614192601f60208420940160051c84016001850161409e565b555556fed6136f3cad7c60bfc24bbf1548f39f766ca8bce104bf9adde3deb6237dec51dfa26469706673582212209ffb02addda2e22bcc3c4180d33ac0d49c62bb3b2b9e0f3cdde7ffec78d4394064736f6c63430008130033",
  "linkReferences": {},
  "deployedLinkReferences": {}
}