{
  "_format": "hh-sol-artifact-1",
  "contractName": "Database",
  "sourceName": "src/contracts/Database.sol",
  "abi": [
    {
      "inputs": [
        {
          "internalType": "address",
          "name": "initialOwner",
          "type": "address"
        }
      ],
      "stateMutability": "nonpayable",
      "type": "constructor"
    },
    {
      "inputs": [
        {
          "internalType": "address",
          "name": "owner",
          "type": "address"
        }
      ],
      "name": "OwnableInvalidOwner",
      "type": "error"
    },
    {
      "inputs": [
        {
          "internalType": "address",
          "name": "account",
          "type": "address"
        }
      ],
      "name": "OwnableUnauthorizedAccount",
      "type": "error"
    },
    {
      "anonymous": false,
      "inputs": [
        {
          "indexed": true,
          "internalType": "uint256",
          "name": "tenderId",
          "type": "uint256"
        },
        {
          "indexed": true,
          "internalType": "address",
          "name": "bidder",
          "type": "address"
        },
        {
          "indexed": false,
          "internalType": "uint256",
          "name": "amount",
          "type": "uint256"
        }
      ],
      "name": "BidSubmitted",
      "type": "event"
    },
    {
      "anonymous": false,
      "inputs": [
        {
          "indexed": true,
          "internalType": "address",
          "name": "previousOwner",
          "type": "address"
        },
        {
          "indexed": true,
          "internalType": "address",
          "name": "newOwner",
          "type": "address"
        }
      ],
      "name": "OwnershipTransferred",
      "type": "event"
    },
    {
      "anonymous": false,
      "inputs": [
        {
          "indexed": true,
          "internalType": "uint256",
          "name": "id",
          "type": "uint256"
        },
        {
          "indexed": false,
          "internalType": "string",
          "name": "title",
          "type": "string"
        },
        {
          "indexed": false,
          "internalType": "address",
          "name": "officer",
          "type": "address"
        }
      ],
      "name": "TenderCreated",
      "type": "event"
    },
    {
      "anonymous": false,
      "inputs": [
        {
          "indexed": true,
          "internalType": "address",
          "name": "user",
          "type": "address"
        },
        {
          "indexed": false,
          "internalType": "string",
          "name": "username",
          "type": "string"
        },
        {
          "indexed": false,
          "internalType": "bool",
          "name": "approved",
          "type": "bool"
        }
      ],
      "name": "UserApproved",
      "type": "event"
    },
    {
      "anonymous": false,
      "inputs": [
        {
          "indexed": true,
          "internalType": "address",
          "name": "user",
          "type": "address"
        },
        {
          "indexed": false,
          "internalType": "string",
          "name": "username",
          "type": "string"
        },
        {
          "indexed": false,
          "internalType": "enum Database.UserRole",
          "name": "role",
          "type": "uint8"
        }
      ],
      "name": "UserRegistered",
      "type": "event"
    },
    {
      "inputs": [
        {
          "internalType": "address",
          "name": "_user",
          "type": "address"
        },
        {
          "internalType": "bool",
          "name": "_approved",
          "type": "bool"
        },
        {
          "internalType": "string",
          "name": "_remark",
          "type": "string"
        }
      ],
      "name": "approveUser",
      "outputs": [],
      "stateMutability": "nonpayable",
      "type": "function"
    },
    {
      "inputs": [
        {
          "internalType": "uint256",
          "name": "",
          "type": "uint256"
        },
        {
          "internalType": "uint256",
          "name": "",
          "type": "uint256"
        }
      ],
      "name": "bids",
      "outputs": [
        {
          "internalType": "uint256",
          "name": "tenderId",
          "type": "uint256"
        },
        {
          "internalType": "address",
          "name": "bidderAddress",
          "type": "address"
        },
        {
          "internalType": "uint256",
          "name": "amount",
          "type": "uint256"
        },
        {
          "internalType": "string",
          "name": "description",
          "type": "string"
        },
        {
          "internalType": "uint256",
          "name": "submittedAt",
          "type": "uint256"
        }
      ],
      "stateMutability": "view",
      "type": "function"
    },
    {
      "inputs": [
        {
          "internalType": "string",
          "name": "_title",
          "type": "string"
        },
        {
          "internalType": "string",
          "name": "_description",
          "type": "string"
        },
        {
          "internalType": "uint256",
          "name": "_budget",
          "type": "uint256"
        },
        {
          "internalType": "uint256",
          "name": "_deadline",
          "type": "uint256"
        }
      ],
      "name": "createTender",
      "outputs": [],
      "stateMutability": "nonpayable",
      "type": "function"
    },
    {
      "inputs": [],
      "name": "getActiveTenders",
      "outputs": [
        {
          "components": [
            {
              "internalType": "uint256",
              "name": "id",
              "type": "uint256"
            },
            {
              "internalType": "string",
              "name": "title",
              "type": "string"
            },
            {
              "internalType": "string",
              "name": "description",
              "type": "string"
            },
            {
              "internalType": "uint256",
              "name": "budget",
              "type": "uint256"
            },
            {
              "internalType": "uint256",
              "name": "deadline",
              "type": "uint256"
            },
            {
              "internalType": "address",
              "name": "officerAddress",
              "type": "address"
            },
            {
              "internalType": "bool",
              "name": "isActive",
              "type": "bool"
            },
            {
              "internalType": "uint256",
              "name": "createdAt",
              "type": "uint256"
            }
          ],
          "internalType": "struct Database.Tender[]",
          "name": "",
          "type": "tuple[]"
        }
      ],
      "stateMutability": "view",
      "type": "function"
    },
    {
      "inputs": [
        {
          "internalType": "uint256",
          "name": "_tenderId",
          "type": "uint256"
        }
      ],
      "name": "getBids",
      "outputs": [
        {
          "components": [
            {
              "internalType": "uint256",
              "name": "tenderId",
              "type": "uint256"
            },
            {
              "internalType": "address",
              "name": "bidderAddress",
              "type": "address"
            },
            {
              "internalType": "uint256",
              "name": "amount",
              "type": "uint256"
            },
            {
              "internalType": "string",
              "name": "description",
              "type": "string"
            },
            {
              "internalType": "uint256",
              "name": "submittedAt",
              "type": "uint256"
            }
          ],
          "internalType": "struct Database.Bid[]",
          "name": "",
          "type": "tuple[]"
        }
      ],
      "stateMutability": "view",
      "type": "function"
    },
    {
      "inputs": [
        {
          "internalType": "uint256",
          "name": "_id",
          "type": "uint256"
        }
      ],
      "name": "getTender",
      "outputs": [
        {
          "components": [
            {
              "internalType": "uint256",
              "name": "id",
              "type": "uint256"
            },
            {
              "internalType": "string",
              "name": "title",
              "type": "string"
            },
            {
              "internalType": "string",
              "name": "description",
              "type": "string"
            },
            {
              "internalType": "uint256",
              "name": "budget",
              "type": "uint256"
            },
            {
              "internalType": "uint256",
              "name": "deadline",
              "type": "uint256"
            },
            {
              "internalType": "address",
              "name": "officerAddress",
              "type": "address"
            },
            {
              "internalType": "bool",
              "name": "isActive",
              "type": "bool"
            },
            {
              "internalType": "uint256",
              "name": "createdAt",
              "type": "uint256"
            }
          ],
          "internalType": "struct Database.Tender",
          "name": "",
          "type": "tuple"
        }
      ],
      "stateMutability": "view",
      "type": "function"
    },
    {
      "inputs": [
        {
          "internalType": "address",
          "name": "_user",
          "type": "address"
        }
      ],
      "name": "getUser",
      "outputs": [
        {
          "components": [
            {
              "internalType": "string",
              "name": "name",
              "type": "string"
            },
            {
              "internalType": "string",
              "name": "username",
              "type": "string"
            },
            {
              "internalType": "string",
              "name": "email",
              "type": "string"
            },
            {
              "internalType": "address",
              "name": "walletAddress",
              "type": "address"
            },
            {
              "internalType": "enum Database.UserRole",
              "name": "role",
              "type": "uint8"
            },
            {
              "internalType": "bool",
              "name": "isApproved",
              "type": "bool"
            },
            {
              "internalType": "string",
              "name": "approvalRemark",
              "type": "string"
            },
            {
              "internalType": "uint256",
              "name": "createdAt",
              "type": "uint256"
            }
          ],
          "internalType": "struct Database.User",
          "name": "",
          "type": "tuple"
        }
      ],
      "stateMutability": "view",
      "type": "function"
    },
    {
      "inputs": [],
      "name": "owner",
      "outputs": [
        {
          "internalType": "address",
          "name": "",
          "type": "address"
        }
      ],
      "stateMutability": "view",
      "type": "function"
    },
    {
      "inputs": [
        {
          "internalType": "string",
          "name": "_name",
          "type": "string"
        },
        {
          "internalType": "string",
          "name": "_username",
          "type": "string"
        },
        {
          "internalType": "string",
          "name": "_email",
          "type": "string"
        },
        {
          "internalType": "enum Database.UserRole",
          "name": "_role",
          "type": "uint8"
        }
      ],
      "name": "registerUser",
      "outputs": [],
      "stateMutability": "nonpayable",
      "type": "function"
    },
    {
      "inputs": [],
      "name": "renounceOwnership",
      "outputs": [],
      "stateMutability": "nonpayable",
      "type": "function"
    },
    {
      "inputs": [
        {
          "internalType": "uint256",
          "name": "_tenderId",
          "type": "uint256"
        },
        {
          "internalType": "uint256",
          "name": "_amount",
          "type": "uint256"
        },
        {
          "internalType": "string",
          "name": "_description",
          "type": "string"
        }
      ],
      "name": "submitBid",
      "outputs": [],
      "stateMutability": "nonpayable",
      "type": "function"
    },
    {
      "inputs": [],
      "name": "tenderCount",
      "outputs": [
        {
          "internalType": "uint256",
          "name": "",
          "type": "uint256"
        }
      ],
      "stateMutability": "view",
      "type": "function"
    },
    {
      "inputs": [
        {
          "internalType": "uint256",
          "name": "",
          "type": "uint256"
        }
      ],
      "name": "tenders",
      "outputs": [
        {
          "internalType": "uint256",
          "name": "id",
          "type": "uint256"
        },
        {
          "internalType": "string",
          "name": "title",
          "type": "string"
        },
        {
          "internalType": "string",
          "name": "description",
          "type": "string"
        },
        {
          "internalType": "uint256",
          "name": "budget",
          "type": "uint256"
        },
        {
          "internalType": "uint256",
          "name": "deadline",
          "type": "uint256"
        },
        {
          "internalType": "address",
          "name": "officerAddress",
          "type": "address"
        },
        {
          "internalType": "bool",
          "name": "isActive",
          "type": "bool"
        },
        {
          "internalType": "uint256",
          "name": "createdAt",
          "type": "uint256"
        }
      ],
      "stateMutability": "view",
      "type": "function"
    },
    {
      "inputs": [
        {
          "internalType": "address",
          "name": "newOwner",
          "type": "address"
        }
      ],
      "name": "transferOwnership",
      "outputs": [],
      "stateMutability": "nonpayable",
      "type": "function"
    },
    {
      "inputs": [
        {
          "internalType": "string",
          "name": "",
          "type": "string"
        }
      ],
      "name": "usernames",
      "outputs": [
        {
          "internalType": "bool",
          "name": "",
          "type": "bool"
        }
      ],
      "stateMutability": "view",
      "type": "function"
    },
    {
      "inputs": [
        {
          "internalType": "address",
          "name": "",
          "type": "address"
        }
      ],
      "name": "users",
      "outputs": [
        {
          "internalType": "string",
          "name": "name",
          "type": "string"
        },
        {
          "internalType": "string",
          "name": "username",
          "type": "string"
        },
        {
          "internalType": "string",
          "name": "email",
          "type": "string"
        },
        {
          "internalType": "address",
          "name": "walletAddress",
          "type": "address"
        },
        {
          "internalType": "enum Database.UserRole",
          "name": "role",
          "type": "uint8"
        },
        {
          "internalType": "bool",
          "name": "isApproved",
          "type": "bool"
        },
        {
          "internalType": "string",
          "name": "approvalRemark",
          "type": "string"
        },
        {
          "internalType": "uint256",
          "name": "createdAt",
          "type": "uint256"
        }
      ],
      "stateMutability": "view",
      "type": "function"
    }
  ],
  "bytecode": "0x6080346100bb57601f6120a538819003918201601f19168301916001600160401b038311848410176100c0578084926020946040528339810103126100bb57516001600160a01b0390818116908190036100bb5780156100a257600080546001600160a01b03198116831782556040519316907f8be0079c531659141344cd1fd0a4f28419497f9722a3daafe3b4186f6b6457e09080a3611fce90816100d78239f35b604051631e4fbdf760e01b815260006004820152602490fd5b600080fd5b634e487b7160e01b600052604160045260246000fdfe6080604052600436101561001257600080fd5b60003560e01c80630585c25e14611b3f5780630f77141714611425578063131d9a27146112d057806314c60bdd14610f555780631f05877614610f375780632ac6c78514610d365780633a9361bd14610ad6578063465e1def14610a185780636f77926b14610846578063715018a6146107ed5780637b3c4baa1461074e5780638da5cb5b14610725578063a87430ba1461060a578063aaee301f146105a9578063d927ee881461015f5763f2fde38b146100cc57600080fd5b3461015a57602036600319011261015a576100e5611d6b565b6100ed611e90565b6001600160a01b0390811690811561014157600054826bffffffffffffffffffffffff60a01b821617600055167f8be0079c531659141344cd1fd0a4f28419497f9722a3daafe3b4186f6b6457e0600080a3005b604051631e4fbdf760e01b815260006004820152602490fd5b600080fd5b3461015a57608036600319011261015a576004356001600160401b03811161015a5761018f903690600401611d15565b6024356001600160401b03811161015a576101ae903690600401611d15565b9033600052600160205260ff60036040600020015460a01c1660038110156105935760010361054f573360005260016020526101f760ff60036040600020015460a81c16611ec8565b610202600554611f08565b91826005556040519261021484611cbd565b80845260208401918383526040850152604435606085015260643560808501523360a0850152600160c08501524260e0850152600052600360205260406000209083518255519283516001600160401b038111610478576102786001840154611d81565b601f8111610508575b506020601f821160011461049957819293949560009261048e575b50508160011b916000199060031b1c19161760018301555b60408101518051906001600160401b038211610478576102d76002850154611d81565b601f8111610431575b50602090601f83116001146103bc5791806006949260e0946000926103b1575b50508160011b916000199060031b1c19161760028501555b60608101516003850155608081015160048501556005840160018060a01b0360a08301511681549060ff60a01b60c0850151151560a01b16916affffffffffffffffffffff60a81b161717905501519101557f288c2eb47aa865e9daa5c117ccf7af2111afee680cc033a9f537aafdc6b7908a6103a660055492604051918291604083526040830190611c27565b3360208301520390a2005b015190508780610300565b906002850160005260206000209160005b601f19851681106104195750926006949260019260e09583601f19811610610400575b505050811b016002850155610318565b015160001960f88460031b161c191690558780806103f0565b919260206001819286850151815501940192016103cd565b600285016000526020600020601f840160051c810160208510610471575b601f830160051c820181106104655750506102e0565b6000815560010161044f565b508061044f565b634e487b7160e01b600052604160045260246000fd5b01519050858061029c565b6001840160005260206000209060005b601f19841681106104f0575060019394959683601f198116106104d7575b505050811b0160018301556102b4565b015160001960f88460031b161c191690558580806104c7565b9091602060018192858b0151815501930191016104a9565b600184016000526020600020601f830160051c810160208410610548575b601f830160051c8201811061053c575050610281565b60008155600101610526565b5080610526565b606460405162461bcd60e51b815260206004820152602060248201527f4f6e6c79206f666669636572732063616e206372656174652074656e646572736044820152fd5b634e487b7160e01b600052602160045260246000fd5b3461015a57602036600319011261015a576004356001600160401b03811161015a5760ff6105f460206105e181943690600401611d15565b8160405193828580945193849201611c04565b8101600281520301902054166040519015158152f35b3461015a57602036600319011261015a576106cd6001600160a01b038061062f611d6b565b166000526001602052604060002061071b60405192610659846106528186611dbb565b0385611cf4565b6040519261066e846106528160018501611dbb565b60ff60405161068b816106848160028701611dbb565b0382611cf4565b6106e96003840154916106db6005604051966106b5886106ae8160048501611dbb565b0389611cf4565b0154986040519b8c9b8c6101008091528d0190611c27565b908b820360208d0152611c27565b9089820360408b0152611c27565b938116606088015261070360808801838360a01c16611e51565b60a81c16151560a086015284820360c0860152611c27565b9060e08301520390f35b3461015a57600036600319011261015a576000546040516001600160a01b039091168152602090f35b3461015a57604036600319011261015a576024356004356000526004602052604060002090815481101561015a5761078591611e5e565b50805460018060a01b03600183015416916107e36002820154916004604051916107bd836107b68160038501611dbb565b0384611cf4565b01549260405195869586526020860152604085015260a0606085015260a0840190611c27565b9060808301520390f35b3461015a57600036600319011261015a57610806611e90565b600080546001600160a01b0319811682556001600160a01b03167f8be0079c531659141344cd1fd0a4f28419497f9722a3daafe3b4186f6b6457e08280a3005b3461015a5760208060031936011261015a57610860611d6b565b60405161086c81611cbd565b606090818152818482015281604082015281810160009052608081016000905260a08101600090528160c082015260e00160009052600160a01b6001900380921660005260018352604060002092604051926108c784611cbd565b604051806108d58188611dbb565b036108e09082611cf4565b845260405190816108f48160018901611dbb565b036108ff9083611cf4565b84830191825260405195866109178160028401611dbb565b036109229088611cf4565b60408601968752600381015485870192808216845260808801908260a01c60ff1661094d9083611ebc565b60a089019260a81c60ff1615158352604051938480600483019061097091611dbb565b0361097b9086611cf4565b60c08a01948552600501549760e08a019889526040519a8b9a898c5251610100809a8d01526101208c016109ae91611c27565b9751601f198c8a03810160408e0152986109c791611c27565b905191888c830301908c01526109dc91611c27565b94511660808901525160a088016109f291611e51565b51151560c087015251918582030160e0860152610a0e91611c27565b9151908301520390f35b3461015a57602036600319011261015a5760043560005260036020526040600020805460405191610a50836107b68160018501611dbb565b604051610a64816106848160028601611dbb565b60ff6003830154926004810154610aa96006600584015493015494610a9b604051998a998a526101008060208c01528a0190611c27565b9088820360408a0152611c27565b946060870152608086015260018060a01b03811660a086015260a01c16151560c084015260e08301520390f35b3461015a57606036600319011261015a57610aef611d6b565b602435908115159081830361015a576001600160401b039260443584811161015a57610b1f903690600401611d15565b610b27611e90565b60018060a01b0380931694856000526001926020948486526003604060002001541615610cfb5760008781528486526040902060038101805460ff60a81b191692151560a81b60ff60a81b169290921790915560040191805191821161047857610b918354611d81565b601f8111610cb2575b508490601f8311600114610c26579180610c129694927fb81b5bf45193a7a76f3526dad1b835e00d4b4fe251e28deb91b938ad89979568989694600092610c1b575b5050600019600383901b1c191690831b1790555b8560005280825260406000200191604051938493604085526040850190611dbb565b918301520390a2005b015190508980610bdc565b90601f1983169184600052866000209260005b818110610c9d575092869491927fb81b5bf45193a7a76f3526dad1b835e00d4b4fe251e28deb91b938ad8997956899979383610c129a989610610c84575b505050811b019055610bf0565b015160001960f88460031b161c19169055898080610c77565b82840151855593870193928801928801610c39565b8360005285600020601f840160051c810191878510610cf1575b601f0160051c019085905b828110610ce5575050610b9a565b60008155018590610cd7565b9091508190610ccc565b60405162461bcd60e51b8152600481018690526013602482015272155cd95c881b9bdd081c9959da5cdd195c9959606a1b6044820152606490fd5b3461015a57600036600319011261015a576005805460009060015b81811115610ef85750610d6382611f6d565b91610d716040519384611cf4565b808352610d80601f1991611f6d565b0160005b818110610ee1575050600060015b82811115610dfa57505050604051906020808301818452825180915281604082818701971b8601019301916000955b828710610dce5785850386f35b909192938280610dea600193603f198a82030186528851611c4c565b9601920196019592919092610dc1565b8060005260036020908082526040600020908782015460a09060ff81831c169283610e34575b505050505050610e2f90611f08565b610d92565b92600692610e2f97989592610ed5979560405196610e5188611cbd565b8554885260405190610e7182610e6a8160018b01611dbb565b0383611cf4565b880152604051610e88816106848160028a01611dbb565b60408801528401546060870152600484015460808701526001600160a01b031690850152151560c0840152015460e0820152610ec48288611f84565b52610ecf8187611f84565b50611f08565b91908680808080610e20565b602090610eec611f2d565b82828701015201610d84565b80600052600360205260ff846040600020015460a01c16610f22575b610f1d90611f08565b610d51565b91610f2f610f1d91611f08565b929050610f14565b3461015a57600036600319011261015a576020600554604051908152f35b3461015a57606036600319011261015a576001600160401b0360443581811161015a57610f86903690600401611d15565b600435600052600360205260ff60056040600020015460a01c161561129457600435600052600360205260046040600020015442116112565733600052600160205260ff60036040600020015460a01c166003811015610593576002036112115733600052600160205261100760ff60036040600020015460a81c16611ec8565b60043560005260046020526040600020916040519161102583611cd9565b6004358352602083019333855260408401906024358252606085019283524260808601528054680100000000000000008110156104785761106b91600182018155611e5e565b9590956111fb5784518655516001860180546001600160a01b0319166001600160a01b0392909216919091179055516002850155518051918211610478576110b66003850154611d81565b601f81116111b0575b50602090601f831160011461113b57918060049492608094600092611130575b50508160011b916000199060031b1c19161760038501555b0151910155604051602435815233907f177554f051f4aa1f0d0310334854b429baeecdb5a96bc329a26fd0cb7c8a7be3602060043592a3005b0151905086806110df565b906003850160005260206000209160005b601f19851681106111985750926004949260019260809583601f1981161061117f575b505050811b0160038501556110f7565b015160001960f88460031b161c1916905586808061116f565b9192602060018192868501518155019401920161114c565b600385016000526020600020601f840160051c810191602085106111f1575b601f0160051c01905b8181106111e557506110bf565b600081556001016111d8565b90915081906111cf565b634e487b7160e01b600052600060045260246000fd5b60405162461bcd60e51b815260206004820152601c60248201527f4f6e6c7920626964646572732063616e207375626d69742062696473000000006044820152606490fd5b60405162461bcd60e51b815260206004820152601660248201527515195b99195c88191958591b1a5b99481c185cdcd95960521b6044820152606490fd5b60405162461bcd60e51b815260206004820152601460248201527354656e646572206973206e6f742061637469766560601b6044820152606490fd5b3461015a5760208060031936011261015a57600435600052600481526040600020908154916112fe83611f6d565b9261130c6040519485611cf4565b8084528284018092600052836000206000915b8383106113bf5750505050604051918083019381845251809452604083019360408160051b85010192916000955b82871061135a5785850386f35b909192938280600192603f1989820301855287519081518152848060a01b03838301511683820152604082015160408201526113a56060808401519060a08091850152830190611c27565b91608080910151910152960192019601959291909261134d565b6005866001926040999899516113d481611cd9565b85548152848060a01b0385870154168382015260028601546040820152604051611405816106848160038b01611dbb565b60608201526004860154608082015281520192019201919095949561131f565b3461015a57608036600319011261015a576004356001600160401b03811161015a57611455903690600401611d15565b6024356001600160401b03811161015a57611474903690600401611d15565b906044356001600160401b03811161015a57611494903690600401611d15565b6003606435101561015a5760ff60405160208186516114b68183858b01611c04565b810160028152030190205416611afa57336000908152600160205260409020600301546001600160a01b0316611ab557604051916114f383611cbd565b8252826020830152604082015233606082015261151560643560808301611ebc565b600060a08201526040518060208101106001600160401b0360208301111761047857602081016040526000815260c08201524260e082015233600052600160205260406000209080519283516001600160401b038111610478576115798454611d81565b601f8111611a71575b506020601f8211600114611a085781929394956000926119fd575b50508160011b916000199060031b1c19161783555b60208201519283516001600160401b038111610478576115d56001830154611d81565b601f81116119b6575b506020601f821160011461194757819293949560009261193c575b50508160011b916000199060031b1c19161760018201555b60408301519283516001600160401b038111610478576116346002840154611d81565b601f81116118f5575b506020601f821160011461188657819293949560009261187b575b50508160011b916000199060031b1c19161760028301555b6003820160018060a01b0360608301511690805460808401519260038410156105935760a08581015160ff60a81b90151560a81b1660ff60a01b9590911b949094166001600160b01b03199290921660ff60a81b1991909116171791909117905560c08101518051906001600160401b038211610478576116f46004850154611d81565b601f8111611830575b50602090601f83116001146117bd5791806005949260e0946000926117b2575b50508160011b916000199060031b1c19161760048501555b0151910155604051602081835161174f8183858801611c04565b81016002815203019020600160ff198254161790557fc2e5d5da58bd71d1a2d14cdef02a4256d971b728088f8190d067ccfbae3bd73e61179a60405192604084526040840190611c27565b916117aa60208201606435611e51565b8033930390a2005b01519050878061171d565b90601f198316916004860160005260206000209260005b818110611818575092600192859260e09660059896106117ff575b505050811b016004850155611735565b015160001960f88460031b161c191690558780806117ef565b929360206001819287860151815501950193016117d4565b600485016000526020600020601f840160051c81019160208510611871575b601f0160051c01905b81811061186557506116fd565b60008155600101611858565b909150819061184f565b015190508580611658565b6002840160005260206000209060005b601f19841681106118dd575060019394959683601f198116106118c4575b505050811b016002830155611670565b015160001960f88460031b161c191690558580806118b4565b9091602060018192858b015181550193019101611896565b600284016000526020600020601f830160051c810160208410611935575b601f830160051c8201811061192957505061163d565b60008155600101611913565b5080611913565b0151905085806115f9565b6001830160005260206000209060005b601f198416811061199e575060019394959683601f19811610611985575b505050811b016001820155611611565b015160001960f88460031b161c19169055858080611975565b9091602060018192858b015181550193019101611957565b600183016000526020600020601f830160051c8101602084106119f6575b601f830160051c820181106119ea5750506115de565b600081556001016119d4565b50806119d4565b01519050858061159d565b8460005260206000209060005b601f1984168110611a59575060019394959683601f19811610611a40575b505050811b0183556115b2565b015160001960f88460031b161c19169055858080611a33565b9091602060018192858b015181550193019101611a15565b846000526020600020601f830160051c810160208410611aae575b601f830160051c82018110611aa2575050611582565b60008155600101611a8c565b5080611a8c565b60405162461bcd60e51b815260206004820152601760248201527f5573657220616c726561647920726567697374657265640000000000000000006044820152606490fd5b60405162461bcd60e51b815260206004820152601760248201527f557365726e616d6520616c7265616479206578697374730000000000000000006044820152606490fd5b3461015a57602036600319011261015a57611b58611f2d565b506004356000526003602052611c006040600020600660405191611b7b83611cbd565b80548352604051611b93816106848160018601611dbb565b6020840152604051611bac816106848160028601611dbb565b6040840152600381015460608401526004810154608084015260ff600582015460018060a01b03811660a086015260a01c16151560c0840152015460e0820152604051918291602083526020830190611c4c565b0390f35b60005b838110611c175750506000910152565b8181015183820152602001611c07565b90602091611c4081518092818552858086019101611c04565b601f01601f1916010190565b908151815260e080611c82611c706020860151610100806020880152860190611c27565b60408601518582036040870152611c27565b93606081015160608501526080810151608085015260018060a01b0360a08201511660a085015260c0810151151560c0850152015191015290565b61010081019081106001600160401b0382111761047857604052565b60a081019081106001600160401b0382111761047857604052565b90601f801991011681019081106001600160401b0382111761047857604052565b81601f8201121561015a578035906001600160401b0382116104785760405192611d49601f8401601f191660200185611cf4565b8284526020838301011161015a57816000926020809301838601378301015290565b600435906001600160a01b038216820361015a57565b90600182811c92168015611db1575b6020831014611d9b57565b634e487b7160e01b600052602260045260246000fd5b91607f1691611d90565b9060009291805491611dcc83611d81565b918282526001938481169081600014611e2e5750600114611dee575b50505050565b90919394506000526020928360002092846000945b838610611e1a575050505001019038808080611de8565b805485870183015294019385908201611e03565b9294505050602093945060ff191683830152151560051b01019038808080611de8565b9060038210156105935752565b8054821015611e7a576000526005602060002091020190600090565b634e487b7160e01b600052603260045260246000fd5b6000546001600160a01b03163303611ea457565b60405163118cdaa760e01b8152336004820152602490fd5b60038210156105935752565b15611ecf57565b60405162461bcd60e51b8152602060048201526011602482015270155cd95c881b9bdd08185c1c1c9bdd9959607a1b6044820152606490fd5b6000198114611f175760010190565b634e487b7160e01b600052601160045260246000fd5b60405190611f3a82611cbd565b8160e060009182815260606020820152606060408201528260608201528260808201528260a08201528260c08201520152565b6001600160401b0381116104785760051b60200190565b8051821015611e7a5760209160051b01019056fea2646970667358221220c1f517dc84fe76cec91e96c00148b45ddae1595c9d5cf1ca6d78dff50b57eef364736f6c63430008140033",
  "linkReferences": {},
  "deployedLinkReferences": {}
}